:100000000C94DA020C94E01E0C940B030C94A91EC1
:100010000C940B030C940B030C940B030C940B0328
:100020000C940B030C940B030C940B030C940B0318
:100030000C940B030C94C20E0C940B030C94561BE3
:100040000C940B030C9481320C940B030C940B0353
:100050000C940B030C940B030C940B030C94C74DE2
:100060000C940B030C9466130C943C130C940B032C
:100070000C940B030C940B030C940B030C940B03C8
:100080000C944B1B0C940B030C940B030C940B0360
:100090000C940B030C940B030C940B030C940B03A8
:1000A0000C940B030C940B030C94231B0C940B0368
:1000B0000C940B030C940B030C940B030C94FB1A81
:1000C0000C940B030C940B030C940B030C940B0378
:1000D0000C940B030C940B030C940B030C940B0368
:1000E0000C940B030C94E2410C942D260C94B34A0F
:1000F0000C94CA410C94A8180C94BE060C94DC18FD
:100100000C94E2060C9493420C9428270C94E04A39
:100110000C94F8260C942C410C9447420C94A94062
:100120000C945F410C946B030C945D030C941719B1
:100130000C949D4A0C947B250C9440270C940F073B
:100140000C94B0410C9479420C94A3030C94BF26F8
:100150000C949A060C94A8250C943A030C94F2245F
:100160000C94C5420C9496410C949E260C94BB4A68
:100170000C94FC250C94B74A0C94D64A0C94F003CA
:100180000C9402190C9461420C9465250C94DC4A81
:100190000C94984A0C9456260C9464400C94FA40A3
:1001A0000C94B5260C94AD420C9449030C94FA417E
:1001B0000C94DE260C94DD420C9414410C94F1183E
:1001C0000C94C3400C9450250C9441040C94DB40D7
:1001D0000C9430250C94C7180C94AF4A0C94E44A44
:1001E0000C942F420C94F5420C94AD060C9484268A
:1001F0000C94FE180C943F260C9442040C946D262B
:100200000C94D24A0C9405190C9410600C9479410A
:100210000C94D4260C941C140C94C84A0C94962666
:100220000C94EA4A0C94E0400C94E5250C94EE4AB8
:100230000C940E260C940E270C9482400C94914141
:100240000C9416260C9444410C949C400C94D106BA
:100250000C94CF250C94A4400C94CE4A0C94C44A20
:100260000C9415420C94BE4A0C94B9250C9490251C
:100270000C940D036364696E6F70737578585B003E
:10028000205B27242720666F722068656C705D00F4
:100290006F6B006572726F723A20007C52504D3A5B
:1002A000007C4D3A007C46534D3A003C4D506F73F4
:1002B0003A00000020002300260029002C002F0017
:1002C000320000010000030106010901242420611D
:1002D0006C6C2C20246E2071756572792C20246E34
:1002E0003D76616C207365742C20244920696E660C
:1002F0006F2C203F20737461747573002434342094
:10030000636F6F726420756E69747320303D73740F
:1003100065707320313D6D6D20323D696E636800FC
:10032000243435206261636B6C617368206D696E83
:10033000207370656564206D6D2F6D696E002434C7
:1003400033206261636B6C617368206D6178207328
:1003500070656564206D6D2F6D696E0024343020EA
:100360006261636B6C617368206175746F2C20240B
:1003700034312D24343220582F5A20737465707311
:1003800000243332206A6F6720646563656C206DDA
:10039000696E2073746570732028303D6F6666291E
:1003A00000243330207370696E646C6520505052A5
:1003B0002C202433312062757A7A6572002432361B
:1003C00020582073746570732F6D6D2C2024323784
:1003D00020582064697220696E7665727400243238
:1003E000302D2432352058206D6F746F722F757345
:1003F0007465702F70697463682F6D61782F7261F6
:100400007069642F616363656C00243136205A2063
:1004100073746570732F6D6D2C20243137205A2032
:1004200064697220696E76657274002431302D24FF
:100430003135205A206D6F746F722F75737465702B
:100440002F70697463682F6D61782F7261706964B1
:100450002F616363656C0024322D24332073796E21
:10046000632066656564206D696E2F6D6178206D0F
:100470006D2F7265760024302D2431206173796EE2
:10048000632066656564206D696E2F6D6178206DEF
:100490006D2F6D696E002C454550524F4D5D005BD0
:1004A0004F50543A005B5645523A00000021002458
:1004B0000027002A002D0030003300010100000455
:1004C0000107010A0100000A0B02090C0D0E0807C2
:1004D0000304010000000000000000000000000014
:1004E000000000000000000000000000000000000C
:1004F00000121110000000000000000000000000C9
:100500000000000000000000000000010210202098
:100510000808102040102040800201020108040257
:1005200001010204081020408080402010080402CD
:100530000180040201804020100804020108040226
:10054000010102040810204080010204081020402C
:100550008000002200250028002B002E00310034EE
:100560000002010000050108010B01050505050752
:100570000508080808020202020A0A08080404041E
:10058000040101010101010101030303030303034A
:1005900003040707070C0C0C0C0C0C0C0C020202D9
:1005A0000206060606060606060B0B0B0B0B0B0BCC
:1005B0000B02106011241FBECFEFD1E2DEBFCDBF12
:1005C00000E00CBF1AE0A0E0B2E0EAE3F9ED00E0E1
:1005D0000BBF02C007900D92A030B107D9F722E1FE
:1005E000A0E0BAE001C01D92AA35B207E1F712E01F
:1005F000CAEDD2E000E006C021970109802FFE017C
:100600000E944665C93DD10780E00807A9F70E940E
:10061000264E0C949B6C0C940000AF92BF92CF922C
:10062000DF92EF92FF920F931F93CF93DF936C01B2
:100630007B018B01040F151FEB015E01AE18BF0893
:10064000C017D10759F06991D601ED91FC91019045
:10065000F081E02DC6011995892B79F7C501DF914D
:10066000CF911F910F91FF90EF90DF90CF90BF90AF
:10067000AF900895FC01538D448D252F30E0842FD9
:1006800090E0821B930B541710F0CF9608950197BA
:100690000895FC01918D828D981761F0A28DAE0FA7
:1006A000BF2FB11D5D968C91928D9F5F9F73928F2E
:1006B00090E008958FEF9FEF0895FC01918D828D5A
:1006C000981731F0828DE80FF11D858D90E0089527
:1006D0008FEF9FEF0895FC01918D228D892F90E07F
:1006E000805C9F4F821B91098F739927089580EC3E
:1006F0009FE00E946B0321E0892B09F420E0822F08
:100700000895FC01A48DA80FB92FB11DA35ABF4FA6
:100710002C91848D90E001968F739927848FA68900
:10072000B7892C93A089B1898C91837080648C9354
:10073000938D848D981306C00288F389E02D808103
:100740008F7D80830895EF92FF920F931F93CF9335
:10075000DF93EC0181E0888F9B8D8C8D98131AC0FC
:10076000E889F989808185FF15C09FB7F894EE89E3
:10077000FF896083E889F989808183708064808340
:100780009FBF81E090E0DF91CF911F910F91FF908B
:10079000EF900895F62E0B8D10E00F5F1F4F0F7333
:1007A0001127E02E8C8D8E110CC00FB607FCFACFEE
:1007B000E889F989808185FFF5CFCE010E94810308
:1007C000F1CFEB8DEC0FFD2FF11DE35AFF4FF082BF
:1007D0009FB7F8940B8FEA89FB8980818062CFCF25
:1007E000CF93DF93EC01888D8823B9F0AA89BB8968
:1007F000E889F9898C9185FD03C0808186FD0DC053
:100800000FB607FCF7CF8C9185FFF2CF808185FF73
:10081000EDCFCE010E948103E9CFDF91CF91089502
:1008200080E090E0892B29F00E94770381110E94DB
:10083000000080E090E0892B49F080E090E0892B77
:1008400029F00E94000081110E94000080E090E0E9
:10085000892B49F080E090E0892B29F00E9400006C
:1008600081110E94000080E090E0892B49F080E037
:1008700090E0892B29F00E94000081110C94000067
:100880000895089590E080E00895809103018370B9
:10089000823029F41092D00A8091D00A08958130D4
:1008A000D9F78093D00AF8CF8091611090916210AF
:1008B000807299272091701025FF08C0892B19F4A8
:1008C00081E080930302809103020895892BD9F37C
:1008D00010920302F8CF80919D1085FF04C082E042
:1008E0008093CF0A06C080918E1085FF05C01092BC
:1008F000CF0A8091CF0A089580917F1085FFF7CFAE
:1009000081E0EECF8091151185FD1EC0809106110A
:1009100085FD1CC08091F71085FD1AC08091E810FC
:1009200085FD18C08091D91085FD16C08091CA1030
:1009300085FD14C08091BB1085FD12C08091AC1064
:1009400085FD10C080E0089581E0089582E008955B
:1009500083E0089584E0089585E0089586E0089591
:1009600087E0089588E0089580E0E82FF0E0E457FC
:10097000F04F9081992341F090539A3018F480936E
:10098000000B08958F5FF1CF1092000B08958091B6
:10099000000B90E0FC01E457F04F208120532A30F7
:1009A000B0F0019748F0FC01E457F04F208120534C
:1009B0002A30B8F78093000BE091000BF0E0E45789
:1009C000F04F808180538A3010F00C94B404089565
:1009D000E8E7FFE08081918190932C0280932B02C5
:1009E0008281938190932A02809329028481958148
:1009F0009093280280932702868197819093260204
:100A000080932502EEE5FFE0838594859093240290
:100A10008093230285858093220286859785909313
:100A20002102809320028089918990931F028093F4
:100A30001E028289938990931D0280931C028489EF
:100A400080931B028081918190931A0280931902F6
:100A500082818093180283819481909317028093FE
:100A600016028581968190931502809314028781E6
:100A700090859093130280931202818580931102D6
:100A800085898093E70A82858093E60A868997891B
:100A900090930202809301028091360280932D028E
:100AA000A7E5BFE08C918093100211968D919C91E7
:100AB000129790930F0280930E0213968D919C9142
:100AC000149790930D0280930C0215968C911597B4
:100AD00090E090930B0280930A0216968C9190E01E
:100AE0009093090280930802808D918D9093E50A7E
:100AF0008093E40A8091560F8093E30A08958A3127
:100B000070F4E82FF0E0EE0FFF1FEF51FD4F019062
:100B1000F081E02D309719F060837183089585503E
:100B2000863160F4E82FF0E0EE0FFF1FEB54FD4F2D
:100B30000190F081E02D309709F060830895F894DA
:100B40008091EC0A9091ED0AA091EE0AB091EF0A23
:100B50008093E80A9093E90AA093EA0AB093EB0A1B
:100B600078940895F8941092EC0A1092ED0A10927D
:100B7000EE0A1092EF0A1092E80A1092E90A109217
:100B8000EA0A1092EB0A789408950F931F93F89451
:100B90006091EC0A7091ED0A8091EE0A9091EF0A53
:100BA0000091E80A1091E90A2091EA0A3091EB0AD3
:100BB000601B710B820B930B16161706180619068D
:100BC000A4F40F5F1F4F2F4F3F4F0093E80A10937D
:100BD000E90A2093EA0A3093EB0A789461E070E026
:100BE00080E090E01F910F910895611571058105D6
:100BF000910589F001501109210931090093E80A92
:100C00001093E90A2093EA0A3093EB0A78946FEF85
:100C10007FEFCB01E7CF7894E5CF0F931F93F89444
:100C20006091EC0A7091ED0A8091EE0A9091EF0AC2
:100C300078940091E80A1091E90A2091EA0A30912B
:100C4000EB0A601B710B820B930B1F910F910895A0
:100C5000E0EBF1E111828481958188279071958381
:100C60008483E1EAF1E11182848195818827907182
:100C700095838483E2E9F1E111828481958188275B
:100C8000907195838483E3E8F1E1118284819581F9
:100C90008827907195838483E4E7F1E11182848150
:100CA0009581882790719583848308958091D80ACF
:100CB00081110FC08091D90A81110BC08091DA0A8D
:100CC000811107C081E09091DB0A911103C080E09F
:100CD000089581E008952FE0E2EDFAE0DC01019053
:100CE0000D922A95E1F7089548990EC049990EC0D2
:100CF0008091930E9091940EA091950EB091960EC6
:100D00000196A11DB11D0DC04999F2CF8091930E9E
:100D10009091940EA091950EB091960E0197A10915
:100D2000B1098093930E9093940EA093950EB09377
:100D3000960E0895ECE3F5E08491ECE9F5E0E4919A
:100D4000F0E0EE0FFF1FEF5AFA4FA591B4919C917E
:100D5000E82FE095E923EC930895ECE3F5E0849126
:100D6000ECE9F5E0E491F0E0EE0FFF1FEF5AFA4FE7
:100D7000A591B491EC91E82BEC930895EBE3F5E0A9
:100D80008491EBE9F5E0E491F0E0EE0FFF1FEF5AFC
:100D9000FA4FA591B4919C91E82FE095E923EC934B
:100DA0000895EBE3F5E08491EBE9F5E0E491F0E000
:100DB000EE0FFF1FEF5AFA4FA591B491EC91E82B7B
:100DC000EC9308959091730F992321F091E0811194
:100DD00090E0892FE6E3F5E026E935E0882379F015
:100DE0008491F9012491E22FF0E0EE0FFF1FEF5AFA
:100DF000FA4FA591B491EC91E82BEC93089584916E
:100E0000F9012491E22FF0E0EE0FFF1FEF5AFA4FA5
:100E1000A591B4919C91E82FE095E923EECF9091B4
:100E2000680F992321F091E0811190E0892FE7E389
:100E3000F5E027E935E0882379F08491F9012491E0
:100E4000E22FF0E0EE0FFF1FEF5AFA4FA591B49199
:100E5000EC91E82BEC9308958491F9012491E22F11
:100E6000F0E0EE0FFF1FEF5AFA4FA591B4919C915D
:100E7000E82FE095E923EECFFC012FB7F89480919D
:100E8000C20B90E0019666E070E00E94F1649091E0
:100E9000C30B981779F0A091C20B90E2A99FD001E3
:100EA0001124AE5FB44F90E201900D929A95E1F754
:100EB0008093C20B2FBF0895811109C06091800FEC
:100EC0007091810F8091820F9091830F08956091AE
:100ED000860F7091870F8091880F9091890F0895E8
:100EE0000F931F93CF93DF93C9EFDEE0811102C010
:100EF000CBE0DFE00E945C071616170618061906FD
:100F000074F081E0088519852A853B854C855D85CF
:100F10006E857F85041715072607370709F080E0DF
:100F2000DF91CF911F910F9108958AE1EAE4F2E0F9
:100F3000AEE5BFE001900D928A95E1F70895FC01BE
:100F400080819181C2978F399740F0F482818150DE
:100F50008032D0F4838194810A978F3D9340A0F42E
:100F6000858196810A978F37934170F487819085A8
:100F70000A978730974240F481858150843120F46C
:100F800081E09285923008F080E00895CF93DF935E
:100F9000EC010E949F078823A1F0CE010B960E94CE
:100FA0009F07882371F08E899F89845691098D3A15
:100FB000964230F481E0288D398D213D374008F08C
:100FC00080E0DF91CF910895CF93883008F080E0E2
:100FD000E82FF0E0E55DFC4FC081C23008F0C0E0D2
:100FE00024E0C29FF0011124E858F04F4281538160
:100FF0000190F081E02DE417F50778F59A012F5F55
:101000003F4F2E1B3F0BDB010E944E652AE0969559
:101010008795779567952A95D1F79A01261B370B07
:10102000B901C1111CC04E1B5F0B4233510580F04A
:10103000CB018E1B9F0B6AE070E00E94F164CB0134
:101040002AE0289FB001299F700D11246E0F7F1F89
:1010500090E080E00E945D630CC0BF01E2CF90E0B1
:1010600080E00E945D632AE037ED43E25CE30E948A
:101070001464CF910895883008F080E0E82FF0E004
:10108000E55DFC4F90819F3F31F06091C90E7091FA
:10109000CA0E0C94E40760E070E0CB010895CF9293
:1010A000DF92EF92FF92CF93DF938091C80E88304A
:1010B00008F040C0823089F121E090E0813009F0F1
:1010C00020E0C22FD92F0E943B086B017C01CD2B61
:1010D000D9F06091830E7091840E8091850E90916D
:1010E000860E6A3071058105910520F46CE370E08D
:1010F00080E090E00E945D639B01AC01C701B601F6
:101100000E9414646B017C01C701B601DF91CF918D
:10111000FF90EF90DF90CF9008956091C90E70918D
:10112000CA0E80E0DF91CF91FF90EF90DF90CF90DB
:101130000C94E407D0E0C0E0C6CF4617570770F024
:101140004115510559F0880F991F880F991FFC010F
:10115000E858F04F71836083538342830895E8E732
:10116000FFE0A2E4B2E04D915D916D917C91139707
:10117000408351836283738314968D919D910D906A
:10118000BC91A02D84839583A683B7830895FC0129
:1011900082819381208131818217930760F0892BAE
:1011A00051F026813781848195812817390718F0FD
:1011B00081E0232B09F480E008954F925F926F92B3
:1011C0007F928F929F92AF92BF92CF92DF92EF92D7
:1011D000FF920F931F93CF93DF93F82E8A01D62FA0
:1011E000C72F60915D0F70E090E080E00E945D632A
:1011F000762E872E982EA92E60915C0F70E090E0DD
:1012000080E00E945D63B62EC72ED82EE92EEF2D0A
:10121000F110E1E08BE0E89FF0011124E25AF04F79
:101220006581768190E080E00E945D632B01682EED
:10123000F92E98014D2F5C2F672D782D892D9A2D31
:101240000E940F64181624F4072D182DD92DCA2DCD
:101250002B2D3C2D4D2D5E2DB8018D2F9C2F0E94E6
:101260000F64181624F40B2D1C2DDD2DCE2D20E03F
:1012700030E040E85FE3B8018D2F9C2F0E94B06200
:1012800087FF04C000E010E0D0E8CFE39201462DD4
:101290005F2DB8018D2F9C2F0E940F6418161CF42F
:1012A0008201D62DCF2DB8018D2F9C2FDF91CF91AC
:1012B0001F910F91FF90EF90DF90CF90BF90AF9074
:1012C0009F908F907F906F905F904F90089587E0F0
:1012D000EBE3F2E0A7E5BFE001900D928A95E1F71C
:1012E0000895FC0180818230B8F48181928189382F
:1012F000934190F4838194818938934168F42581E6
:101300008BEF820F843C40F496818BEF890F843CF5
:1013100018F481E0291708F480E0089580915C0FAB
:10132000853018F485E080935C0F80915C0F893CD8
:1013300018F088EC80935C0F80915D0F853018F475
:1013400085E080935D0F80915D0F893C18F088ECFB
:1013500080935D0F80915C0F90915D0F891710F461
:1013600080935D0F0895CF93DF93FC012481358135
:1013700033FF10C0EC010E94BB4D2A813B81621BF0
:10138000730B2E85F0E12F9F9001112481E06217ED
:10139000730708F480E0DF91CF9108951F93CF93F6
:1013A000DF93EC018C819D8180FD19829C012F715E
:1013B0003327232B19F0807E9D838C838C819D8124
:1013C00094FB112710F9162796FF04C09F7B9D837D
:1013D0008C8311E08C819D8191FD10C011110BC097
:1013E000CE010E94B309182F8111C0C0812FDF9157
:1013F000CF911F91089592609D838C830E94BB4D75
:10140000AB018A819B81FA01E81BF90B8C819D81DC
:10141000112309F45DC085FD3EC02A8592FD06C0FA
:10142000222321F094609D838C830BC02E171F060E
:1014300019F010F0211107C082629D838C835987B7
:1014400048875B834A838C819D818F71992711E046
:10145000892B31F28E819F81892B41F28C819D8174
:1014600091708436910509F48AC008F09AC08232DE
:10147000910509F484C008F07BC08130910509F41E
:101480007EC0409709F47BC0CE010E94B309882337
:1014900009F4ACCF74C097FDD6CF86FD0AC02C8569
:1014A000A0E12A9F90011124E217F30760F28464FF
:1014B000BACF87FF0BC02D85A0E12A9F9001112490
:1014C0008868E217F30708F0AECFBDCF2C85F4CFC4
:1014D00085FF12C02A852E171F0609F080F586FDAC
:1014E00003C029812F5F298397FD19828F7D806139
:1014F00091609D838C8323C090FF0DC097FD03C036
:1015000080619D838C838C819D819E779D838C835C
:101510005B834A8314C029812223F1F09C01207C43
:101520003327232BA1F42B8540E1249F9001112424
:10153000E217F30760F488859985892B51F48C8133
:101540009D8192FF80CF9B7F9D838C837CCF816028
:10155000D0CF19861886F3CF91FFF1CF8F739D7F7F
:1015600098609D838C8319861886D2CF10E072CF45
:101570008134910521F08035910509F085CFEE8108
:10158000FF81309709F432CF1995CE010E94B3093B
:10159000882309F42BCF8C819D81977F9D838C8339
:1015A00025CF883E910559F338F4813C910539F3F4
:1015B000803D910521F368CF8035A1E09A07F9F2CB
:1015C000803D21E09207D9F28031914009F05CCF53
:1015D000D6CF6EE270E08CE89FE00E9447660097ED
:1015E00041F09C012C583F4081E09091000B29175D
:1015F00008F080E00895E091000BF0E0E457F04F30
:10160000808180538A3020F5E091950F88E0E89F33
:10161000F0011124E55CFC4F828193810197D1F4A4
:101620000E94E90A282F80E0211126C0E82FF0E06F
:10163000E457F04F9081992341F09E3231F090535E
:101640009A3008F42F5F8F5FF1CF81E02230A0F451
:1016500080E0089520E090E0E22FF0E0E457F04FC2
:101660008081882331F080538A3008F49F5F2F5F98
:10167000F3CF81E0923060F30895CF93DF9300972A
:10168000A1F0FC012081222381F0EB010E94F16195
:1016900061157105F1E08F07910538F4798368834E
:1016A00081E090E0DF91CF91089590E080E0FACF63
:1016B0008F929F92AF92BF92EF92FF920F931F93E0
:1016C000CF93DF93009709F467C0FC0120812223A8
:1016D00009F462C08B01EC016EE270E00E94476683
:1016E0007C01892B71F4B801CE01DF91CF911F915C
:1016F0000F91FF90EF90BF90AF909F908F900C94C0
:101700003D0BCE010E94F1614B015C01C7010196C6
:101710000E94F161F8EE8F16F3E09F06A104B10478
:10172000D8F597FD2BC06A3071058105910554F5F8
:10173000F701218120532A3048F42281211106C06B
:10174000AAE0B0E09B01AC010E945D6544E6489DC3
:101750009001499D300D1124620F731FF8017183B0
:10176000608381E090E0DF91CF911F910F91FF9016
:10177000EF90BF90AF909F908F90089560E070E0E1
:10178000CB01D6CF6436710581059105FCF263E685
:1017900070E080E090E0DACF90E080E0E4CF80E994
:1017A00092E00C94953E882319F08AE50C94ED3D67
:1017B00088E5FCCFCF93DF93D82FC5E18C9FC00184
:1017C000112444E150E060E270E08A5A954F0E9493
:1017D0004066CD9FF0011124EA5AF54F148ADF913B
:1017E000CF910895EF92FF920F931F93CF93DF93C2
:1017F000CDB7DEB7A0970FB6F894DEBF0FBECDBF52
:10180000FE01339696E1DF011D929A95E9F793E088
:1018100099838A836B83298F3A8F4B8F5C8FED8EF0
:10182000FE8E0F8F18A3CE0101960E943C07A09652
:101830000FB6F894DEBF0FBECDBFDF91CF911F91E1
:101840000F91FF90EF9008950C94D54B9091340236
:1018500089130DC0E1EBF5E0E4919FEF9093340222
:10186000E230E1F038F4EE2381F0E13089F060E01D
:101870000C94684AE43049F110F1E530C1F79091D9
:1018800073009D7F90937300F2CF10926E00EFCFA4
:1018900090916F009D7F90936F00E9CF90917000C1
:1018A0009D7F9093700091E09093B0009091B10073
:1018B000987F94609093B1001092B300D8CF90912C
:1018C00071009D7F90937100D2CF909172009D7FA7
:1018D00090937200CCCFCF93DF93EC0160E08E81C8
:1018E0000E94684A61E08E810E94684A60E08E81B1
:1018F0000E94684A8BE891E00197F1F7DF91CF9160
:101900000895CF93C82F61E00E94F44A61E08C2FC4
:10191000CF910C94684ACF93C82F61E00E94F44A9B
:1019200060E08C2FCF910C94684A62E00C94F44AEA
:101930008CE89FE0FC0101900020E9F7CF018D5871
:101940009F408830F0F441E0480F2091000B30E0D8
:101950002F5F3F4FE42FF0E02E173F0740F4E4578E
:10196000F04FDF0111975C9150834150F3CF245722
:10197000304F40E3F90140839927FC01E457F04FD1
:10198000118208950E94383E2091C90E3091CA0EEE
:10199000A9014C5F5F4F481759072CF024503109BB
:1019A0008217930744F52091CB0AE22FF0E0EE0F67
:1019B000FF1FE555F54F4091CC0A5091CD0A60814B
:1019C0007181461B570B91838083840F951F9093E1
:1019D000CD0A8093CC0A2F5F2F702093CB0A44E06E
:1019E000969587954A95E1F79093CA0E8093C90E14
:1019F00081E08093CE0A08950F931F93CF93DF93D6
:101A0000EB0109900020E9F72197C61BC53108F0CA
:101A1000C4E1D0E095E1899F800111240A5A154F55
:101A2000AE01C8010E94256644E150E04C1B5D0BED
:101A300060E270E0C8018C0F9D1F0E944066F801B3
:101A4000148ADF91CF911F910F910895FF920F9308
:101A50001F93CF93DF93CDB7DEB765970FB6F8949A
:101A6000DEBF0FBECDBF1091950F123008F44EC0EF
:101A70001150193108F018E1BE016F5F7F4F812FBF
:101A80000E94473DBE016F5F7F4F80E00E94FC0CCB
:101A9000FF24F394F10EBE016F5F7F4F8F2D0E94E4
:101AA000473DBE016F5F7F4F81E00E94FC0C02E06A
:101AB000010FBE016F5F7F4F802F0E94473DBE0127
:101AC0006F5F7F4F82E00E94FC0C9091960F9130E7
:101AD00051F58091950F8117D9F0F816D1F092E069
:101AE0000817B9F08FEF80932E0261E374E083E072
:101AF0000E94FC0C65960FB6F894DEBF0FBECDBFFA
:101B0000DF91CF911F910F91FF90089510E0B4CF16
:101B100090E08091000B895F843120F790932E0232
:101B20008093AA0AE2CF65E474E083E00E94FC0C93
:101B30008FEF80932E02DECF1F93CF93DF93CDB72D
:101B4000DEB764970FB6F894DEBF0FBECDBF182F77
:101B5000BE016F5F7F4F0E942840892B89F084E28D
:101B60000E94ED3D612F70E090E080E04AE00E942D
:101B7000F23D8DE30E94ED3DCE0101960E94343D81
:101B800064960FB6F894DEBF0FBECDBFDF91CF9144
:101B90001F910895CF93DF93C4E6D2E089910E940C
:101BA0009C0D82E0C138D807C9F7DF91CF91089525
:101BB000CF93DF93EC0183E992E00E947A3ECE015D
:101BC000DF91CF910C94343D1F93CF93DF93EC01C1
:101BD000162F0E942D62181739F0612FCE01DF9168
:101BE000CF911F910C943562DF91CF911F91089591
:101BF000CF93C091360280910002C80FCB5565EAA1
:101C000090E080E00E94E40D6091000281E090E0AD
:101C10000E94E40D6091360282E090E00E94E40DA3
:101C20006C2F83E090E0CF910C94E40DEF92FF9243
:101C30001F93CF93DF938EE5E82E8FE0F82EF70108
:101C400015EC8191180F8FE0E837F807D1F765ECB4
:101C500080E290E00E94E40DC1E2D0E0F7016191E2
:101C60007F01CE010E94E40D2196CB33D105B1F75F
:101C7000612F87E390E0DF91CF911F91FF90EF906C
:101C80000C94E40DEF92FF921F93CF93DF9388E7BC
:101C9000E82E8FE0F82EF70117EB8191180F8FE0F7
:101CA000E038F807D1F767EB80E190E00E94E40D9F
:101CB000C1E1D0E0F70161917F01CE010E94E40D06
:101CC0002196C931D105B1F7612F89E190E0DF910B
:101CD000CF911F91FF90EF900C94E40DEF92FF9243
:101CE0001F93CF93DF9387E5E82E8FE0F82EF7015F
:101CF00012EB8191180F8FE0EE35F807D1F762EB08
:101D000088E390E00E94E40DC9E3D0E0F70161911F
:101D10007F01CE010E94E40D2196C034D105B1F7B8
:101D2000612F80E490E0DF91CF911F91FF90EF90C1
:101D30000C94E40D0C942D620F931F93CF93DF93BB
:101D4000062FC82FD0E0CE010E949A0E182FCE0188
:101D500001960E949A0EC82F802F90E00E949A0E42
:101D6000113D71F491ED9C0F89130AC0C33040F40A
:101D7000C093560F81E0DF91CF911F910F9108958D
:101D800080E0F9CF1F920F920FB60F9211240BB67D
:101D90000F922F933F934F935F936F937F938F9304
:101DA0009F93AF93BF93EF93FF938091D80E909141
:101DB000D90EA091DA0EB091DB0E892B8A2B8B2BDA
:101DC000E1F19091D50EE091D60EF091D70E808181
:101DD000892780838091D80E9091D90EA091DA0E38
:101DE000B091DB0E181619061A061B069CF480919A
:101DF000D80E9091D90EA091DA0EB091DB0E01971A
:101E0000A109B1098093D80E9093D90EA093DA0E50
:101E1000B093DB0EFF91EF91BF91AF919F918F91A6
:101E20007F916F915F914F913F912F910F900BBEDA
:101E30000F900FBE0F901F901895809134020E9452
:101E4000260CE8CFFB0101900020E9F73197AF01A4
:101E5000461B570BDC01ED91FC910280F381E02DD4
:101E600019946115710511F00C94220F90E080E037
:101E700008950F931F93CF93809130118D7F80939E
:101E8000301188600E94E73D06E51AE0C0E0E0916D
:101E90003311CE1790F1E150F0E0E05EFE4E848900
:101EA00080680E94E73DB80180E291E10E94310F15
:101EB000CF5F0B5E1F4FC43051F7E0912E02E4302C
:101EC000F0F48091AA0A90913311E91710F0EFEF26
:101ED000E90FF0E0E05EFE4E9489890F80680E9471
:101EE000E73D80913011982F9260909330118A6075
:101EF000CF911F910F910C94E73DEC2FCDCFCF9157
:101F00001F910F910895AF92BF92CF92DF92EF92FF
:101F1000FF920F931F93CF93DF93909135029923F4
:101F200009F449C0833009F446C067017801E9012A
:101F30008A015B0160E276E080EC9FE00E94310F55
:101F400068E574E080EC9FE00E94310F6EE176E07E
:101F500080EC9FE00E94310FB50180EC9FE00E9471
:101F6000310F6EE176E080EC9FE00E94310FB80106
:101F700080EC9FE00E94310F61EF77E080EC9FE002
:101F80000E94310FBE0180EC9FE00E94310F80E281
:101F90000E94ED3D4AE0C701B6010E94F23DDF918B
:101FA000CF911F910F91FF90EF90DF90CF90BF9056
:101FB000AF900C942E3DDF91CF911F910F91FF9028
:101FC000EF90DF90CF90BF90AF900895EF92FF9287
:101FD0000F931F932FB7F8944091800F5091810F6A
:101FE0006091820F7091830F8091860F9091870F7F
:101FF000A091880FB091890F1092800F1092810FDD
:102000001092820F1092830F1092860F1092870FFA
:102010001092880F1092890F2FBF141615061606FE
:1020200017062CF0181619061A061B067CF47A01FE
:102030008B01E80EF91E0A1F1B1F2DE534E043E655
:1020400054E066E674E082E00E94830F1F910F91D6
:10205000FF90EF900895EF92FF920F931F93CF930D
:10206000DF93909135029923B1F18330A1F1E90119
:102070008A017B0160E276E080EC9FE00E94310FF4
:1020800068E574E080EC9FE00E94310F6EE176E03D
:1020900080EC9FE00E94310FB70180EC9FE00E942E
:1020A000310F6EE176E080EC9FE00E94310FB801C5
:1020B00080EC9FE00E94310F61EF77E080EC9FE0C1
:1020C0000E94310FCE01DF91CF911F910F91FF90B0
:1020D000EF900C94343DDF91CF911F910F91FF90C1
:1020E000EF9008950F931F93CF93DF93EC018B0133
:1020F000FB018481958180759170409741F49E0128
:102100004AE654E06EE674E082E00E942B10F8018B
:10211000848182FF0CC09E0141E754E06EE674E0CA
:1021200082E0DF91CF911F910F910C942B10DF91E2
:10213000CF911F910F9108950F931F93CF93DF932A
:102140008C01EA01FC018481958180759170409732
:1021500059F481E0FB0180839A014AE654E06EE67F
:1021600074E082E00E942B10F801848182FF0CC091
:102170009E0141E754E06EE674E082E0DF91CF918A
:102180001F910F910C942B10DF91CF911F910F9104
:102190000895CF93C091D10ACC23C9F080914D0FFF
:1021A000811118C0C0911D0FC11114C090914F0E24
:1021B00080914E0E98130EC01092D10A26E734E09B
:1021C00043E654E066E674E082E00E942B108C2F18
:1021D000CF910895C1E0FBCFEF92FF920F931F9331
:1021E000CF93DF930E94C910882309F452C06EE890
:1021F00074E080E00E94FC0C40E150E060E270E09E
:102200008FEA9FE00E94406684E0E3EAF4E0ABEAF4
:10221000BFE001900D928A95E1F78091560F8130D1
:10222000B1F1823091F584E48093BE0F1092BF0F1C
:102230008BEA9FE0892B59F084E1EBEAFFE0ABE603
:10224000BAE001900D928A95E1F710927F0A82E040
:102250000E94DA0B0E948B3C8BEA9FE0892B59F09D
:1022600084E1EBEAFFE0A5E9BAE001900D928A95DE
:10227000E1F71092A90A8FEF80932E02DF91CF91A0
:102280001F910F91FF90EF90089583E5CDCF8DE4DE
:10229000CBCFD091600EF090610EC091620E809114
:1022A000C80E883008F080E0E82FF0E0E55DFC4FD4
:1022B00090819F3F09F0ACC068EA74E085E19AE044
:1022C0000E94526691E000E814E0F91639F0E2E06D
:1022D00008E814E0FE1202C004E814E08FEF8D0F4E
:1022E0003CE8E32E34E0F32E883050F42D2F2150BB
:1022F000330BF901EE0FFF1FE55EFC4FE080F1802C
:1023000044E150E060E270E08BEA9FE00E944066AA
:1023100045E15AE0FA0101900020E9F7AF0146518A
:102320005A404531510510F044E150E084E190E01D
:10233000841B950B96958795D82F65E17AE0855596
:10234000904F0E942566F70101900020E9F7319730
:10235000EE19FF09D11101C0D1E04D2F50E0E41773
:10236000F50708F4AF01B7018BEA9FE00E942566EC
:1023700083E0F801ACEBBFE001900D928A95E1F7A4
:102380001092BF0F8BEA9FE0009721F0BC0180E024
:102390000E94FC0CCC2309F49DC0DAE5C23008F0A1
:1023A0009BC024E0C29FF0011124E459F14FC08189
:1023B00011810281F38044E150E060E270E080E04E
:1023C0009AE00E944066FF920F931F93CF931F9253
:1023D000DF938DEB94E09F938F931F9284E18F9313
:1023E00080E09AE09F938F930E946866EDB7FEB7F6
:1023F0003C960FB6F894FEBF0FBEEDBF97FF71C0BD
:1024000090E080E08050964F20E2FC0120836CC079
:1024100002E010E0823039F021E090E0813009F0F4
:1024200020E0022F192F0E943B080115110509F524
:1024300020E030E040E05FE30E9444620E942E63AF
:102440007F936F938EEA94E09F938F931F9280E126
:102450008F9385E19AE09F938F930E9468662DB7D2
:102460003EB7285F3F4F0FB6F8943EBF0FBE2DBF5B
:1024700029CF0130110509F025CF20E030E048ECEC
:1024800052E40E94146420E030E040E05FE30E94E8
:1024900044620E942E63CB0164E670E00E94F16406
:1024A0009F938F937F936F9383EB94E09F938F938E
:1024B0001F9280E18F9385E19AE09F938F930E9412
:1024C00068668DB79EB70A960FB6F8949EBF0FBE8A
:1024D0008DBFF8CED8E565CFC0E010E000E0F12C6C
:1024E0006ACF843108F48ECF8091560F813069F025
:1024F000823049F484E48093130A1092140A84E130
:10250000E0E0FAE09CCE83E5F6CF8DE4F4CFEF92E5
:10251000FF920F931F93CF930E94F80D90E080E0FD
:102520000E949A0E082F81E090E00E949A0EC82F18
:1025300082E090E00E949A0E182F83E090E00E94C3
:102540009A0E053A61F596EF9C0F9B3540F51230D7
:1025500030F5C10FCB558C1322C0E0900002F12C56
:1025600010E000E029EC34E04EEC54E063ED74E060
:1025700082E00E94830FE0903602F12C10E000E030
:1025800027ED34E04EEC54E063ED74E082E00E940D
:10259000830FCF911F910F91FF90EF9008952CED35
:1025A00034E04EEC54E063ED74E082E0CF911F9193
:1025B0000F91FF90EF900C942B108EE59FE00E94FE
:1025C000C607811102C00E9495070E94160E28EED0
:1025D00034E04EEE54E063ED74E082E00C942B1096
:1025E00088E79FE00E94C708811102C00E94AF08DF
:1025F0000E94420E28EE34E043EF54E063ED74E0B5
:1026000082E00C942B10CF938091560F833010F002
:102610001092560FC091560FCF5261ED86E490E0B4
:102620000E94E40D6091560F87E490E00E94E40D53
:102630006C2F88E490E00E94E40D28EE34E048EF2F
:1026400054E063ED74E082E0CF910C942B100E9473
:102650008E0987E59FE00E947109811102C00E94E6
:1026600067090E946E0E28EE34E043E654E063ED05
:1026700074E082E00C942B101F920F920FB60F9211
:1026800011240BB60F922F933F934F935F936F9349
:102690007F938F939F93AF93BF93EF93FF9380ECC0
:1026A0009FE00E948103FF91EF91BF91AF919F91B5
:1026B0008F917F916F915F914F913F912F910F90EB
:1026C0000BBE0F900FBE0F901F9018951F920F9288
:1026D0000FB60F9211240BB60F922F938F939F93E7
:1026E000EF93FF93E091D00FF091D10F8081E091B3
:1026F000D60FF091D70F82FD1DC090818091D90F28
:102700008F5F8F732091DA0F821741F0E091D90F1C
:10271000F0E0E054F04F958F8093D90FFF91EF9147
:102720009F918F912F910F900BBE0F900FBE0F9026
:102730001F9018958081F2CFCF92DF92EF92FF9297
:102740000F931F93CF93DF936C017C0187E0E80E1A
:10275000F11CD0E0C0E0062F10E0B8010C2E02C042
:10276000759567950A94E2F76170F70181917F0191
:102770000E94684A2196C430D10579F7C601DF91DD
:10278000CF911F910F91FF90EF90DF90CF900C941D
:102790006B0CCF92DF92EF92FF920F931F93CF9328
:1027A000DF93EC01F62E642F8C810E94684A8D81A4
:1027B0008F3F19F060E00E94684A0F2D10E08F856E
:1027C00084FF25C06E0187E0C80ED11CF12CE12CDE
:1027D000B8010E2C02C0759567950A94E2F76170F6
:1027E000F60181916F010E94684AFFEFEF1AFF0A1C
:1027F00088E0E816F10461F7CE01DF91CF911F91D7
:102800000F91FF90EF90DF90CF900C946B0CB8017C
:1028100084E0759567958A95E1F7CE010E949C1337
:102820006F2DCE01DF91CF911F910F91FF90EF900F
:10283000DF90CF900C949C1341E00E94C91381E07B
:1028400090E008958A3170F4E82FF0E0EE0FFF1F5A
:10285000EF51FD4F0190F081E02D309719F080810C
:10286000918108958550863170F4E82FF0E0EE0FE5
:10287000FF1FEB54FD4F0190F081E02D309719F0D0
:10288000808190E0089590E080E00895CF93C82F74
:102890000E94221428E0C29FF0011124E55CFC4F45
:1028A0002281338121303105F9F464E670E00E9421
:1028B000F1649F938F937F936F9385EB94E09F9345
:1028C0008F931F9289E08F938CE89FE09F938F9363
:1028D0000E9468668DB79EB70A960FB6F8949EBFA1
:1028E0000FBE8DBFCF91089523303105C1F49F9362
:1028F0008F938CEB97E09F938F931F9289E08F9338
:102900008CE89FE09F938F930E9468668DB79EB777
:1029100008960FB6F8949EBF0FBE8DBFE3CF9F936E
:102920008F938CEB97E09F938F931F9289E08F9307
:102930008CE89FE09F938F930E9468668DB79EB747
:1029400008960FB6F8949EBF0FBE8DBFCBCFCF9227
:10295000DF92EF92FF920F931F93CF93DF9300D0FC
:1029600000D01F921F92CDB7DEB7D82E1091950FD1
:1029700048E0149FF0011124E55CFC4F82819381B3
:1029800082309105C9F5812F0E942214813009F40B
:1029900018C1823009F422C1843009F421C1883081
:1029A00009F420C1803109F41FC1803209F400C14B
:1029B0005FEFE6E0D51609F40FC1F0E0EB5EFC4FE7
:1029C000608170E0812F0E947F058091950F0E94A9
:1029D00046140E94B40428960FB6F894DEBF0FBECA
:1029E000CDBFDF91CF911F910F91FF90EF90DF90BE
:1029F000CF900895EF5FE1CF8330910551F4812F9F
:102A00000E94221461E070E0892BE1F270E060E046
:102A1000D9CFC090000B2C2D30E0F901E457F04FD6
:102A20007F01108120ED210F2A30A8F6019709F0CF
:102A300094C00E94E90A082FF1E0882381F0DF1298
:102A400008C0193311F01F5F01C010E3F7011083B4
:102A5000C2CF103311F01150F9CF19E3F7CFDF12C5
:102A600037C0193389F580E3F70180830E94980C01
:102A70006EE270E08CE89FE00E944766009709F4E0
:102A80008DC0FC01318120ED230F2A3008F030E3A6
:102A9000FC01228140ED420F4A3008F020E3ECE8CF
:102AA000FFE0E817F90758F5073070F5419150ED50
:102AB000540F5A30B0F7A1E0B0E0AC0FBD1FA00F2B
:102AC000B11D4C930F5FEDCF1F5FF7011083D0CF87
:102AD000103399F40E94FB0A882309F47CCFEC2D73
:102AE000F0E0E457F04F8081882321F081818083DA
:102AF000C394F5CF0E94C704BBCF1150E6CF01119C
:102B000003C080E3898301E0CE010196FC01E00F60
:102B1000F11D1082422F022E000C550B5F932F9354
:102B2000432F032E000C550B5F933F939F938F937E
:102B30008CEF94E09F938F931F9289E08F938CE8A2
:102B40009FE09F938F930E9468660E94C7040FB610
:102B5000F894DEBF0FBECDBF3ECF51E0D51208C006
:102B6000193309F070CF80E380830E94980C33CF33
:102B7000103309F070CF0E94FB0A882309F42BCF91
:102B8000EC2DF0E0E457F04F8081882321F0818123
:102B90008083C394F5CF0E94C7041DCF8CE89FE0CB
:102BA000FC0101900020E9F7CF01019730E376CFD7
:102BB000F1E0DF1621F05FEFE5E0D51669F0E5E022
:102BC000FCCEE0E041E0D41609F414CF8FEFD81228
:102BD000F4CEEE2309F4F1CEE150EFCEE1E0F2CFF6
:102BE000E2E0F0CFE3E0EECFE4E0ECCF8FB7F89493
:102BF000EDE1FFE010821282ABE0BFE051961C9243
:102C00005197E9EFFEE0118A14961D921D921D92D4
:102C10001C92179714821582168217828FBF08950F
:102C200010924E0E10924F0E10924D0F1092D10A2C
:102C30000C94F61580911D0F882329F081E0909166
:102C40001F0F911101C080E008958F929F92AF9263
:102C5000BF92EF92FF920F931F93CF9349015A01B6
:102C6000611571058105910561F1C1E01616170620
:102C7000180619060CF0C0E020911B0F2C17C1F0AC
:102C80002091130F3091140F4091150F5091160F92
:102C900079018A01E60EF71E081F191F161617067E
:102CA000180619060CF447C06FEF80E00E94F20B83
:102CB0006C2F80E00E940443C0931B0F8C2F0E9456
:102CC0000F0781149104A104B104B9F1C1E01814F3
:102CD00019041A041B040CF0C0E08091090F8C1732
:102CE000C1F02091010F3091020F4091030F5091DC
:102CF000040F85017401E20EF31E041F151F6FEF10
:102D0000181419041A041B040CF461E081E00E94F9
:102D1000F20B6C2F81E00E940443C093090F8C2FAB
:102D2000CF911F910F91FF90EF90BF90AF909F9028
:102D30008F900C94E20661E0B8CFCF911F910F9174
:102D4000FF90EF90BF90AF909F908F900895E9EF24
:102D5000FEE0811102C0EBE0FFE00FB607FC05C00A
:102D6000648575858685978508952FB7F894648561
:102D70007585868597852FBF0895E9EFFEE081115F
:102D800002C0EBE0FFE00FB607FC05C044875587A3
:102D90006687778708958FB7F89444875587668745
:102DA00077878FBF0895E9EFFEE0811102C0EBE065
:102DB000FFE00FB607FC09C0408751876287738721
:102DC000448755876687778708958FB7F89440873B
:102DD00051876287738744875587668777878FBF58
:102DE0000895E9EFFEE0811102C0EBE0FFE00FB6CD
:102DF00007FC05C0608571858285938508952FB78E
:102E0000F89460857185828593852FBF08958F9290
:102E10009F92AF92BF92CF92DF92EF92FF92CF93A9
:102E2000CFB7F8940E94F6150E94E60F80E00E944A
:102E3000F1164B015C0181E00E94F1166B017C01EF
:102E4000B501A40180E00E94BD16B701A60181E092
:102E50000E94BD16CFBF10924D0FCF91FF90EF9003
:102E6000DF90CF90BF90AF909F908F9008958F92FA
:102E70009F92AF92BF92CF92DF92EF92FF9280919A
:102E80001D0F882361F10E94071781E00E94F1164F
:102E90006B017C0180E00E94F1164B015C01809186
:102EA00035028823A1F164E075E080EC9FE00E9488
:102EB000310FC501B4010E94A13E6EE175E080ECC6
:102EC0009FE00E94310FC701B601FF90EF90DF90A5
:102ED000CF90BF90AF909F908F900C94F84280E07D
:102EE0000E94F116AB01BC0180E00E94BD1681E09A
:102EF0000E94F116AB01BC0181E0FF90EF90DF90E2
:102F0000CF90BF90AF909F908F900C94BD16FF9084
:102F1000EF90DF90CF90BF90AF909F908F900895EB
:102F2000CF92DF92EF92FF920F931F93CF939091E6
:102F30005F0E911155C0843008F052C0282F30E048
:102F4000F901E955F04F9081992309F449C08D7F2B
:102F5000C1E009F0C0E0220F331F220F331FF90137
:102F6000E956F04FC080D180E280F3808C2F0E9420
:102F7000F1166C157D058E059F0591F1C093570ED6
:102F8000C092530ED092540EE092550EF092560E0F
:102F900081E08093740E10925E0E80935D0E8BE044
:102FA000C89FF0011124E25AF04F6781708590E0CC
:102FB00080E00E945D638B019C01B701A6018C2F0C
:102FC0000E94464980913502882351F0970186017D
:102FD00049ED57E061E275E087E295E00E94CE4955
:102FE000CF911F910F91FF90EF90DF90CF900895B8
:102FF000CF93DF9380E00E94F116C1EFDEE068839B
:1030000079838A839B8381E00E94F1166C837D83A0
:103010008E839F83DF91CF9108950E9407171092AE
:10302000EF0E1092F00E1092790E1092750E109213
:10303000760E1092770E1092780E0C94F817CF93AC
:10304000823080F490916B0E981761F0C82F0E9427
:10305000C910882349F0C0936B0E0E949F0582E03F
:1030600080936A0ECF9108950E940D180E949F05CB
:10307000C0936B0EF4CFCF938091740E882399F098
:103080001092740E10925E0E10925D0E0E94F61554
:10309000C091570E8C2F0E94F116AB01BC018C2FF2
:1030A000CF910C94BD16CF9108958091500E9091C0
:1030B000510E0497D1F084E090E09093510E8093EC
:1030C000500E0E9410160E94E60F80E00E94F1163A
:1030D000AB01BC0180E00E94BD1681E00E94F116A8
:1030E000AB01BC0181E00C94BD1608956091500EB7
:1030F0007091510EE1E8F2E049EA52E0208131811D
:103100006217730719F02530310529F422813381C4
:103110008217930731F035964E175F0779F70C94B5
:1031200055189093510E8093500E0895883020F5D5
:10313000E82FF0E08827E056F74E8F4F0C94466555
:10314000A818C718DC18F118FE1802190519171964
:103150006BE275E080E00E94FC0C66E375E081E0C4
:103160000E94FC0C6AE375E082E00E94FC0C64E4BF
:1031700075E083E00E94FC0C8091500E9091510EFE
:10318000892B09F074C081E090E00C94761881E0FE
:1031900080937E0E6CE275E080E00E94FC0C6AE495
:1031A00075E081E00E94FC0C68E575E082E00E9419
:1031B000FC0C6FE575E0DDCF81E080937D0E65E668
:1031C00075E080E00E94FC0C61E775E081E00E9400
:1031D000FC0C68E575E082E00E94FC0C6EE775E08F
:1031E000C8CF6BE875E080E00E94FC0C63E975E0F5
:1031F00081E00E94FC0C6DE975E0D8CF68EA75E0CB
:1032000080E0B8CF6DEA75E0FBCF64EB75E080E05D
:103210000E94FC0C6CEB75E081E00E94FC0C66ECFB
:1032200075E082E00E94FC0C61ED75E0A2CF81E0C8
:1032300080937C0E10927B0E10927A0E6CED75E0EE
:1032400080E00E94FC0C67EE75E081E00E94FC0CBF
:1032500066EF75E082E00E94FC0C6FE575E083E0AC
:103260000E94FC0C81E090E00E94761885CF0895C2
:10327000CF92DF92EF92FF920F931F93CF93DF9342
:103280008A01D62FC72F811181E09BE0899FF00131
:103290001124E25AF04F6581768190E080E00E942F
:1032A0005D636B017C0120E030E040E85FE3B80142
:1032B0008D2F9C2F0E94B06287FF04C000E010E0B9
:1032C000D0E8CFE39601A701B8018D2F9C2F0E9473
:1032D0000F6418161CF48601DE2DCF2DB8018D2F3A
:1032E0009C2FDF91CF911F910F91FF90EF90DF9076
:1032F000CF9008950F931F93CF93C82F0E94F1167C
:103300002091F00E1216A4F424E0C29FF0011124C3
:10331000EF50F14F00811181228133810617170789
:1033200028073907B4F4608371838283938311C0C3
:10333000222379F024E0C29FF0011124EF50F14FD5
:103340000081118122813381601771078207930701
:1033500054F3CF911F910F910895CF92DF92EF9286
:10336000FF920F931F93CF93DF93811181E0C82FBA
:10337000D0E06623E9F08BE08C9FF0018D9FF00D8B
:103380001124E25AF04F6781708590E080E00E943E
:103390005D638B01D82FC92FB8018D2F9C2FDF9132
:1033A000CF911F910F91FF90EF90DF90CF900895F4
:1033B0000E944F086B017C0120E030E040E251E4C4
:1033C0000E94B06287FF06C0C12CD12C80E2E82E9B
:1033D00091E4F92E8BE08C9FF0018D9FF00D11246C
:1033E000E25AF04F6581768190E080E00E945D6353
:1033F0008B01D82FC92F9B01482F592FB601C70128
:103400000E940F64181644F28601DE2DCF2DC4CF22
:10341000CF92DF92EF92FF920F931F936A017B018D
:103420008130B1F48091A70F882309F447C06091DF
:10343000970F7091980F8091990F90919A0F20910A
:10344000A90F21111EC000E814E82EE130E021C0D0
:103450008091AA0F8823B9F16091A30F7091A40FF6
:103460008091A50F9091A60F2091A80F222359F3C8
:1034700000919B0F10919C0F20919D0F30919E0FFA
:1034800008C000919F0F1091A00F2091A10F3091C3
:10349000A20FC616D706E806F9064CF0C701B6011A
:1034A000061717072807390714F4C901B8011F9137
:1034B0000F91FF90EF90DF90CF90089560E87BE749
:1034C00081EE9FEFBCCF60E87BE781EE9FEFCCCF32
:1034D0007F928F929F92AF92BF92CF92DF92EF92A4
:1034E000FF920F931F93CF93DF9341155105610511
:1034F000710509F442C0722E94E0899FE001112405
:10350000FE01EF50F14F80809180A280B3806A016C
:103510007B01C80CD91CEA1CFB1C21113CC0B70163
:10352000A6010E94081AFE01EF50F14F60837183DB
:1035300082839383711008C0C616D706E806F90681
:1035400019F081E0F8018083FE01E459F14FCF507A
:10355000D14F88819981AA81BB8188199909AA09CB
:10356000BB094081518162817381840F951FA61F21
:10357000B71F80839183A283B383DF91CF911F9183
:103580000F91FF90EF90DF90CF90BF90AF909F9002
:103590008F907F900895C701B601C5CFCF93CFB765
:1035A000F8949091DC0B9F5F93707091DD0B79170D
:1035B000F9F0A091DC0BE6E0EA9FD0011124AC53B6
:1035C000B44F8C93A091DC0BEA9FD0011124AC5333
:1035D000B44F11966C938091DC0BE89FF00111249D
:1035E000EC53F44F22833383448355839093DC0B55
:1035F000CFBFCF9108951F920F920FB60F92112453
:103600000BB60F922F933F934F935F936F937F93DC
:103610008F939F93AF93BF93EF93FF930E94390FC4
:10362000FF91EF91BF91AF919F918F917F916F919A
:103630005F914F913F912F910F900BBE0F900FBE56
:103640000F901F9018951F920F920FB60F92112492
:103650000BB60F922F933F934F935F936F937F938C
:103660008F939F93AF93BF93EF93FF930E94C20CEE
:10367000FF91EF91BF91AF919F918F917F916F914A
:103680005F914F913F912F910F900BBE0F900FBE06
:103690000F901F9018951F920F920FB60F92112442
:1036A000A8950F900FBE0F901F9018951F920F9224
:1036B0000FB60F9211240BB60F922F933F934F9397
:1036C0005F936F937F938F939F93AF93BF93EF938A
:1036D000FF930E9474068091930E9091940EA09196
:1036E000950EB091960EFF91EF91BF91AF919F9182
:1036F0008F917F916F915F914F913F912F910F909B
:103700000BBE0F900FBE0F901F90189590E0FC011C
:10371000E559FA4FE491EE2389F0F0E0EE0FFF1F38
:10372000EE54FD4FA591B4912C91855F9A4FFC0109
:103730008491282381E019F480E0089581E00895C0
:103740008EE10E94861B61E0811101C060E081E191
:1037500091E10E94CE098FE10E94861B61E08111F8
:1037600001C060E082E091E10E94CE0980E20E9407
:10377000861B61E0811101C060E083EF90E10E944F
:10378000CE0981E20E94861B61E0811101C060E0E8
:1037900084EE90E10E94CE0982E20E94861B61E0E5
:1037A000811101C060E085ED90E10E94CE0983E2C5
:1037B0000E94861B61E0811101C060E086EC90E10F
:1037C0000E94CE0984E20E94861B61E0811101C043
:1037D00060E087EB90E10E94CE0985E20E94861BA3
:1037E00061E0811101C060E088EA90E10E94CE09A9
:1037F0006091060165FB662760F989E990E10E9406
:10380000CE096091060166FB662760F98AE890E1BF
:103810000E94CE0960910601661F6627661F8BE72E
:1038200090E10E94CE096CB1629561708CE690E1E6
:103830000E94CE096CB165FB662760F98DE590E1C9
:103840000C94CE094F925F926F927F92AF92BF928B
:10385000CF92DF92EF92FF920F931F93CF93DF935C
:103860007C01142FFB018481958182FF43C1970164
:1038700041E754E06EE674E082E00E942B101111E3
:1038800018C2809106019091B51192959170817046
:10389000CFEF98130EC0809106019091A6119295DA
:1038A000917086958170C1E0981303C080E0C0E0FC
:1038B00001C081E09091060120919711229521701D
:1038C00092FB992790F929133EC29091060120910D
:1038D00088112295217093FB992790F9291337C2FB
:1038E000882331F1CC2321F1C13021F5D1E08130A1
:1038F00009F4D2E0CD2ED12C96012955304F590133
:10390000F90190819923A1F00E94F116CC0CDD1CE5
:10391000CC0CDD1CF601E956F04F408051806280EE
:103920007380C13061F4641575058605970574F0E0
:10393000C1E0C3C1D3E08130E9F6D0E0DBCFCF3FB7
:1039400029F4461657066806790694F7970140E071
:1039500056E06EE674E082E00E942B1080915F0ECC
:10396000811140C0F50180818823E1F1C1E0D0FDE3
:10397000C0E0F601E956F04FC080D180E280F380CC
:103980008C2F0E94F1166C157D058E059F0551F157
:10399000C093570EC092530ED092540EE092550E23
:1039A000F092560E81E08093740E80935E0E10921A
:1039B0005D0E60E08C2F0E94AD198B019C01B70158
:1039C000A6018C2F0E94464980913502882351F030
:1039D0009701860149ED57E060E076E087E295E0E7
:1039E0000E94CE49DF91CF911F910F91FF90EF90F0
:1039F000DF90CF90BF90AF907F906F905F904F908F
:103A000008952091A70F2223A1F0C090970FD09086
:103A1000980FE090990FF0909A0FC61AD70AE80A0B
:103A2000F90AC092970FD092980FE092990FF092F6
:103A30009A0F2091A90F2223A1F0C0909F0FD09040
:103A4000A00FE090A10FF090A20FC61AD70AE80AC3
:103A5000F90AC0929F0FD092A00FE092A10FF092AE
:103A6000A20F8C2F0E946C3EEC2FF0E0EE0FFF1F98
:103A7000EE0FFF1FE459F14F108211821282138260
:103A80000E94B2058C2F0E944E3EE12FF0E0EE0F17
:103A9000FF1FE755FD4F2081318146E056E06EE67D
:103AA00074E082E00E942B1080913602882309F492
:103AB00099CF0E94D54B6DE270E080E090E00E94CB
:103AC000894D80E10E94260C60E570E080E090E086
:103AD0000E94894DDF91CF911F910F91FF90EF9040
:103AE000DF90CF90BF90AF907F906F905F904F909E
:103AF0000C94D54B80759170409709F073CF0E945C
:103B0000C64997018823C1F041E255E06EE674E0B2
:103B100082E00E942B10812FDF91CF911F910F9196
:103B2000FF90EF90DF90CF90BF90AF907F906F901D
:103B30005F904F900C9490174AE654E06EE674E064
:103B400082E00E942B10C12FD0E09E012955304FFA
:103B50005901F9018081882329F11082CF54DD4F6A
:103B600061E088810E94684A2BE036E043E255E03C
:103B70006EE674E082E00E942B108091360288236A
:103B800009F430CFDF91CF911F910F91FF90EF900B
:103B9000DF90CF90BF90AF907F906F905F904F90ED
:103BA0000C94240C812F8D7FD9F481E00E94F116B2
:103BB0006B017C01112371F11230B9F48091A70FD0
:103BC0008823D1F18091970F9091980FA091990F30
:103BD000B0919A0F8C159D05AE05BF056CF102CF13
:103BE00080E00E94F1166B017C01113009F04DC09C
:103BF0008091AA0F882301F18091A30F9091A40FC7
:103C0000A091A50FB091A60F8C159D05AE05BF051F
:103C10009CF0E8CE8091A90F882371F080919F0FCE
:103C20009091A00FA091A10FB091A20FC816D90634
:103C3000EA06FB060CF0D6CE81E0F5018083FE019A
:103C4000EE0FFF1FEE0FFF1FE956F04FC082D1822B
:103C5000E282F38260E0FE01EF54FD4F80810E941A
:103C6000684A80913502882309F487CFCC0FDD1F85
:103C7000C755DD4F488159819701860163E275E0A0
:103C80008EE694E00E94CE4978CF1330A9F6809159
:103C9000A80F882389F280919B0F90919C0FA0918F
:103CA0009D0FB0919E0FC816D906EA06FB0624F2B6
:103CB00099CEC1E0123009F0C0E08C2F0E94F116BD
:103CC0002091740E222351F02091570EC21306C08A
:103CD0001092740E10925E0E10925D0EC13009F4B7
:103CE00090CE2091A80F2223A1F0C0909B0FD090DE
:103CF0009C0FE0909D0FF0909E0FC61AD70AE80A1D
:103D0000F90AC0929B0FD0929C0FE0929D0FF09207
:103D10009E0F2091AA0F222309F4A3CEC090A30FD7
:103D2000D090A40FE090A50FF090A60FC61AD70A66
:103D3000E80AF90AC092A30FD092A40FE092A50F4F
:103D4000F092A60F8ECEC1E08111F2CDCDCDCFEF96
:103D5000FBCF1F920F920FB60F9211248F939F9358
:103D6000AF93BF934A991EC04B9913C08091EC0A40
:103D70009091ED0AA091EE0AB091EF0A0197A10986
:103D8000B1098093EC0A9093ED0AA093EE0AB093E8
:103D9000EF0ABF91AF919F918F910F900FBE0F903F
:103DA0001F9018954B99F5CF8091EC0A9091ED0AF0
:103DB000A091EE0AB091EF0A0196A11DB11DE1CFCD
:103DC0001F920F920FB60F9211240BB60F922F93E2
:103DD0003F934F935F936F937F938F939F93AF9393
:103DE000BF93EF93FF930E947406FF91EF91BF91F1
:103DF000AF919F918F917F916F915F914F913F9183
:103E00002F910F900BBE0F900FBE0F901F90189523
:103E1000CF92DF92EF92FF92CF93DF93811181E0F7
:103E20009BE0899FE0011124C25AD04F68817981BB
:103E300090E080E00E945D636B017C016A8170E02C
:103E400090E080E00E945D639B01AC01C701B60178
:103E50000E9414646B017C016B817C8190E080E0A6
:103E60000E945D632AE037ED43E25CE30E94146444
:103E70009B01AC01C701B6010E94B562DF91CF91F1
:103E8000FF90EF90DF90CF9008954F925F926F92E6
:103E90007F928F929F92AF92BF92CF92DF92EF92DA
:103EA000FF920F931F93CF93DF93CDB7DEB72C977D
:103EB0000FB6F894DEBF0FBECDBF90911D0F9923B2
:103EC00009F4A3C090911F0F992309F48DC040916C
:103ED000490F50914A0F60914B0F70914C0FA09079
:103EE000450FB090460FC090470FD090480FA9865D
:103EF000BA86CB86DC86A416B506C606D70620F49D
:103F000049875A876B877C87C984DA84EB84FC8471
:103F1000CD28CE28CF2841F4E12CF12C8701E39461
:103F2000E986FA860B871C878090310F9090320FBC
:103F3000A090330FB090340F04E0809FF001112463
:103F4000EB5BF04FC080D180E280F3800E94081FBD
:103F50002B013C0120E030E040E85FE30E94B062CA
:103F600087FD53C0C501B401A70196010E94706589
:103F7000C984DA84EB84FC8456016701E12CF12CBE
:103F80008701A982BA82CB82DC82ED82FE820F8316
:103F90001887E12CF12C00E010E00E949D65B9012A
:103FA000CA010E945D6320E030E040E752E40E94D5
:103FB0001464A30192010E94B5622C960FB6F89486
:103FC000DEBF0FBECDBFDF91CF911F910F91FF904C
:103FD000EF90DF90CF90BF90AF909F908F907F90A9
:103FE0006F905F904F900895A090210FB090220F96
:103FF000C090230FD090240FA986BA86CB86DC868A
:10400000AB28AC28AD2809F08FCF60E070E0CB0181
:10401000D4CFCF92DF92EF92FF92CF93C82F0E941E
:10402000081F6B017C01C111C1E08BE0C89FF0014A
:104030001124E25AF04F618570E090E080E00E9428
:104040005D6320E030E048E452E40E941464A7017C
:1040500096010E94146420E030E040E05FE30E949B
:1040600044620E942E63611571058105910521F45A
:1040700061E070E080E090E0CF91FF90EF90DF9002
:10408000CF9008952F923F924F925F926F927F92BE
:104090008F929F92AF92BF92CF92DF92EF92FF9258
:1040A0000F931F93CF93DF93CDB7DEB72F970FB644
:1040B000F894DEBF0FBECDBF10914F0EC0904E0ED4
:1040C000CD821C1509F4BAC180E00E94F1166E83FE
:1040D0007F838887998781E00E94F1166A877B87B2
:1040E0008C879D8707E2212E312C029D7001039D54
:1040F000F00C112497012252344F3A832983D901BD
:1041000096968C919697882399F192968C91929796
:1041100080FF69C094966D917C9190E080E00E9450
:104120005D63E981FA81648F758F868F978F10A206
:1041300011A2029DF001039DF00D1124E252F44FF3
:1041400082A180FD10C0C084D184E284F384CE8239
:10415000DF82E886F986C484D584E684F784CA863B
:10416000DB86EC86FD861F5F1F70DD80D112BBCF22
:104170008D81815F8F708983E0904F0EED821E826A
:104180001A86312C212CF9800F2D10E027E2209F78
:10419000F001219FF00D1124E252F44F86A18823F3
:1041A00009F44CC18E819A85A32DB22D808F918FF9
:1041B000A28FB38F82A180FFA1C0148A158A168AAC
:1041C000178A108E118E128E138E1E821A86312C33
:1041D000212CCD80D980CD1409F430C18D2D815F83
:1041E0008F708983D0CFA981BA8118964D905D9048
:1041F0006D907C901B97CE80DF80E884F9844C180A
:104200005D086E087F081C968D919D910D90BC9164
:10421000A02D6C017D012A853B854C855D85C21AE8
:10422000D30AE40AF50AC982DA82EB82FC825301DE
:10423000420177FE07C08824992454018418950808
:10424000A608B708C980DA80EB80FC80F7FE08C0BA
:10425000F094E094D094C094C11CD11CE11CF11CDA
:10426000029DA001039D500D11244252544F5F87BF
:104270004E87B401C5018C149D04AE04BF0410F434
:10428000B601C7010E945D63AE85BF855C966D93E4
:104290007D938D939C935F97029DF001039DF00D9C
:1042A0001124E252F44F81E014141504160417048B
:1042B0000CF080E080A3029DF001039DF00D11241D
:1042C000E252F44F81E029813A814B815C811216E0
:1042D0001306140615060CF080E081A3029DF00180
:1042E000039DF00D1124E252F44F81E08C149D04E3
:1042F000AE04BF0408F080E083A31BCFF3A0448C7E
:10430000558C668C778C8F2D0E94081F4B015C01A9
:10431000EF2DF110E1E03BE03E9FF0011124E25A65
:10432000F04F618570E090E080E00E945D6320E0E6
:1043300030E048E452E40E9414646B017C0120E008
:1043400030E0A901C501B4010E940F6418160CF0F9
:1043500071C0A5019401C301B2010E94B5624B0175
:104360005C0120E030E040E752E46E817A85832DE5
:10437000922D0E94B5622B013C01A7019601C70155
:10438000B6010E944462A50194010E9414646B016D
:104390007C01A3019201C301B2010E9414649B013C
:1043A000AC01C701B6010E9444626B017C0120E0B0
:1043B00030E0A9010E94B06287FF03C0C12CD12C5C
:1043C0007601C701B6010E94876420E030E040E733
:1043D00052E40E9414646B017C0147E2409FF001AB
:1043E000419FF00D1124E252F44F50895E83818980
:1043F0008A87328823889601A7016E81782F832DC2
:10440000922D0E94B06287FD04C0CE82DA863E2CD7
:104410002F2C97E2909FF001919FF00D1124E25212
:10442000F44F8E819A85A32DB22D848B958BA68B0C
:10443000B78BCFCE812C912C540193CF2F960FB6F2
:10444000F894DEBF0FBECDBFDF91CF911F910F91CA
:10445000FF90EF90DF90CF90BF90AF909F908F90A4
:104460007F906F905F904F903F902F9008952F9284
:104470003F924F925F926F927F928F929F92AF92F4
:10448000BF92CF92DF92EF92FF920F931F93CF9341
:10449000DF93CDB7DEB72E970FB6F894DEBF0FBE11
:1044A000CDBF811145C040904E0F50904F0F60908E
:1044B000500F7090510F14141504160417040CF0CB
:1044C0007AC149875A876B877C878D832FB6F8948A
:1044D00080E00E94F1164B015C0181E00E94F11620
:1044E0006B017C0120914E0E2983122F1F5F1F70DC
:1044F00000914F0E101325C02FBE8FEF9FEF2E9609
:104500000FB6F894DEBF0FBECDBFDF91CF911F91E4
:104510000F91FF90EF90DF90CF90BF90AF909F9062
:104520008F907F906F905F904F903F902F90089565
:104530004090520F5090530F6090540F7090550F51
:10454000BACF8981A7E28A9FC00111248252944F79
:104550009E878D8733243394DC0196963C92B50177
:10456000A40180E00E94081A4B015C01ED85FE85E4
:1045700080869186A286B386B701A60181E00E945B
:10458000081A6B017C01AD85BE851C96CD92DD922B
:10459000ED92FC921F9780E00E94081F69837A8346
:1045A0008B839C83C501B4010E945F6329813A819A
:1045B0004B815C810E94B562ED85FE8560837183CD
:1045C0008283938381E00E94081F4B015C01C70135
:1045D000B6010E945F63A50194010E94B562AD859A
:1045E000BE8514966D937D938D939C9317978985C3
:1045F0009A85AB85BC85ED85FE85808B918BA28BE2
:10460000B38BDF01148A158A168A178A108E118ED1
:10461000128E138E148E158E168E178E10A211A266
:1046200032A2ED819396EC93939795965C924E927D
:10463000949710934E0E0E944220312E301A10177C
:1046400028F4612F601B80E1382E360E80913502F0
:10465000882309F4AFC0115F1F7027E2129FF00199
:104660001124E252F44F02A10170808D918DA28D30
:10467000B38D89839A83AB83BC8384899589A6890A
:10468000B7898D839E83AF83B88780899189A289FA
:10469000B38989879A87AB87BC8784809580A680F9
:1046A000B7804080518062807380C48CD58CE68C4A
:1046B000F78C13A163E176E080EC9FE00E94310F5C
:1046C00001117CC0AFE0B6E0BE87AD87C701B6017F
:1046D0000E942E636B017C016D857E8580EC9FE0DE
:1046E0000E94310F61EF77E080EC9FE00E94310F74
:1046F000002309F468C08AE5111101C088E50E9411
:10470000ED3D62E276E080EC9FE00E94310F4AE0EE
:10471000C701B6010E94F23D6CE276E080EC9FE0BA
:104720000E94310F20E030E040E05FE369857A8548
:104730008B859C850E9444620E942763CB010E9466
:10474000CB3E6FE276E080EC9FE00E94310F20E0EC
:1047500030E040E05FE36D817E818F8198850E942B
:1047600044620E942763CB010E94CB3E64E376E063
:1047700080EC9FE00E94310F20E030E040E05FE3FA
:1047800069817A818B819C810E9444620E942763A7
:10479000CB010E94CB3E6AE376E080EC9FE00E9472
:1047A000310F632D70E090E080E04AE00E94F23D1E
:1047B0000E942E3D2FBE90E080E0A1CEE3E6F4E023
:1047C000FE87ED8783CF69E479E080EC9FE00E946B
:1047D000310F43E0C301B2010E94503F6EE175E02A
:1047E00080EC9FE00E94310F43E0C501B4010E94BC
:1047F000503F67E276E087CFCF92DF92EF92FF9251
:104800000F93CF936A017B01C22F811126C00E94B2
:10481000081F0E9427632AE030E040E050E00111C9
:1048200022C0C130E1F0F7FE04C0CC24CA94DC2CD5
:104830007601A7019601121613061406150624F434
:1048400021E030E040E050E0CA01B901CF910F9182
:10485000FF90EF90DF90CF90089581E0D8CF24E6CD
:1048600030E040E050E00E9427651216130614065F
:10487000150624F021E030E040E050E01C141D0457
:104880001E041F040CF350954095309521953F4F21
:104890004F4F5F4FD9CF8F929F92AF92BF92CF92DF
:1048A000DF92EF92FF92CF93DF9380E00E94081F88
:1048B0004B015C0181E00E94081F6B017C0180912B
:1048C000580F9091590FC0915A0FD0915B0F0097DC
:1048D00011F1B0E0A0E080934E0F90934F0FA093A2
:1048E000500FB093510F209779F1CE01B0E0A0E0C6
:1048F0008093520F9093530FA093540FB093550F82
:10490000DF91CF91FF90EF90DF90CF90BF90AF906D
:104910009F908F9008952BE734E14EEA5EE3C50146
:10492000B4010E94146420E030E040E05FE30E94A4
:1049300044620E94276360934E0F70934F0F8093E1
:10494000500F9093510FCFCF2EE135E84BEE5EE341
:10495000C701B6010E94146420E030E040E05FE34C
:104960000E9444620E9427636093520F7093530F1A
:104970008093540F9093550FC3CFEF92FF920F93F4
:104980001F930E944B24E0904E0FF0904F0F009128
:10499000500F1091510F2DE336E043E654E066E6E8
:1049A00074E082E00E94830FE090520FF090530F6A
:1049B0000091540F1091550F22E436E043E654E085
:1049C00066E674E082E00E94830F1F910F91FF90D2
:1049D000EF900895CF93DF931F921F92CDB7DEB76C
:1049E000803119F490E080E056C08A31D9F38E32DC
:1049F000C8F7DB01E82FF0E08827EE5FFA4D8F4F14
:104A00000C9446653025502565257B25F224F2243B
:104A1000F224F224F224F2249025A825B925CF25EA
:104A2000E525FC25F2240E26F224F22416262D2656
:104A30003F2656266D268426F2249626F224F2245A
:104A40009E26B526BF26F224F224F224F224F22474
:104A5000F224F224D426DE26F8260E274027282723
:104A6000BE016F5F7F4FCD010E943D0B892B09F482
:104A7000B9CF40917A0F50917B0F69817A814617A7
:104A8000570708F4AB0190E080E00E949D080E9467
:104A9000F01281E090E00F900F90DF91CF91089598
:104AA000BE016F5F7F4FCD010E943D0B892B09F442
:104AB00099CF6091780F7091790F89819A81AC01BB
:104AC0008617970700F7BC01DECFBE016F5F7F4FEF
:104AD000CD010E94580B892B09F484CF40917E0FA1
:104AE00050917F0F69817A814617570708F4AB010F
:104AF00081E090E0CACFBE016F5F7F4FCD010E9481
:104B0000580B892B09F46ECF60917C0F70917D0F4B
:104B100089819A81AC018617970750F7BC01E8CFCD
:104B2000BE016F5F7F4FCD010E943D0B892B09F4C1
:104B300059CF89819A819C01225331092F393740FD
:104B400020F490936A0F8093690F0E94DD12A1CF29
:104B5000BE016F5F7F4FCD010E943D0B892B09F491
:104B600041CF89819FEF980F903278F780936B0F38
:104B7000ECCFBE016F5F7F4FCD010E94580B892B98
:104B800009F430CF89819A819C012A5031092F3D47
:104B90003340D8F690936D0F80936C0FD6CFBE0143
:104BA0006F5F7F4FCD010E943D0B892B09F41ACF17
:104BB00089819A819C012A5031092F37334128F687
:104BC00090936F0F80936E0FC0CFBE016F5F7F4FCA
:104BD000CD010E943D0B892B09F404CF89819A8174
:104BE0009C012A5031092730374208F0AECF90930C
:104BF000710F8093700FA9CFBE016F5F7F4FCD0102
:104C00000E943D0B892B09F4EDCE89819FEF980F0F
:104C1000943108F09ACF8093720F97CF81E09C91E6
:104C2000913309F080E08093730F8FCFBE016F5FE7
:104C30007F4FCD010E943D0B892B09F4D3CE898192
:104C40009A819C01225331092F39374008F07DCFDA
:104C500090935F0F80935E0F78CFBE016F5F7F4FA1
:104C6000CD010E943D0B892B09F4BCCE89819FEFB9
:104C7000980F903208F069CF8093600F66CFBE0125
:104C80006F5F7F4FCD010E94580B892B09F4AACE8C
:104C900089819A819C012A5031092F3D334008F0C7
:104CA00054CF9093620F8093610F4FCFBE016F5F1F
:104CB0007F4FCD010E943D0B892B09F493CE898152
:104CC0009A819C012A5031092F37334108F03DCF9A
:104CD0009093640F8093630F38CFBE016F5F7F4F57
:104CE000CD010E943D0B892B09F47CCE89819A81EC
:104CF0009C012A5031092730374208F026CF909383
:104D0000660F8093650F21CFBE016F5F7F4FCD018E
:104D10000E943D0B892B09F465CE89819FEF980F86
:104D2000943108F012CF8093670F0FCF81E09C91F0
:104D3000913309F080E08093680F07CFBE016F5F69
:104D40007F4FCD010E943D0B892B09F44BCE898109
:104D50009A819C01245631092D3A364208F0F5CE4D
:104D60009093750F8093740FF0CE81E09C919133F6
:104D700009F080E0809336020E9487128ACEBE013D
:104D80006F5F7F4FCD010E943D0B892B09F42ACE26
:104D900089819A81813D27E0920708F023CE909384
:104DA000770F8093760FD1CE81E09C91913309F0FB
:104DB00080E08093570F0E9427136BCEBE016F5F78
:104DC0007F4FCD010E943D0B892B09F40BCE8981C9
:104DD0009A81893843E1940710F088E893E1909331
:104DE000590F8093580F0E9427130E94BD2451CE63
:104DF000BE016F5F7F4FCD010E943D0B892B09F4EF
:104E0000F1CD89819A81893823E1920710F088E8F1
:104E100093E190935B0F80935A0FE5CFBE016F5FD4
:104E20007F4FCD010E943D0B892B09F4DBCD898199
:104E30009A81893C910510F088EC90E085309105CD
:104E400010F485E090E080935C0F0E948E09B3CF50
:104E5000BE016F5F7F4FCD010E943D0B892B09F48E
:104E6000C1CD89819A81893C910510F088EC90E050
:104E70008530910510F485E090E080935D0FE5CFDB
:104E8000BE016F5F7F4FCD010E943D0B892B09F45E
:104E9000A9CD89819A818330910508F0A3CD8093B3
:104EA000560F0E940313F5CD8F929F92AF92BF923F
:104EB000CF92DF92EF92FF920F931F93CF93DF93E6
:104EC000CDB7DEB76A970FB6F894DEBF0FBECDBF81
:104ED00080E30E948B0C8CE20E948B0C81E30E9489
:104EE0008B0C8BE20E948B0C80E10E948B0C8AE27F
:104EF0000E94810C8DE10E94810C89E10E94810C4D
:104F00008BE10E94810C87E10E94810C86E30E9464
:104F1000950C87E30E94950C88E30E94950C89E329
:104F20000E94950C8AE30E94950C8EE30E94950CDA
:104F30008FE30E94950C80E40E94950C81E40E940E
:104F4000950C82E40E94950C83E40E94950C84E405
:104F50000E94950C85E40E94950C8EE10E94950CB0
:104F60008FE10E94950C80E20E94950C81E20E94E4
:104F7000950C82E20E94950C83E20E94950C84E2DB
:104F80000E94950C85E20E94950C82E10E94950C8E
:104F900083E10E94950C82E00E94950C83E00E94C0
:104FA000950C8FE00E94950C8EE00E94950C84E198
:104FB0000E94950C85E10E94950C86E10E94950C5B
:104FC00088E10E94950C8AE10E94950C8CE10E9478
:104FD000950CE091D00FF091D10F82E08083E091A9
:104FE000CC0FF091CD0F1082E091CE0FF091CF0F4A
:104FF00080E180831092D80FE091D40FF091D50F0B
:1050000086E08083E091D20FF091D30F80818061A0
:105010008083E091D20FF091D30F808188608083EC
:10502000E091D20FF091D30F808180688083E0916E
:10503000D20FF091D30F80818F7D808381E08093A8
:10504000350214B714BE80913502882331F067E42D
:1050500076E080EC9FE00E94310F612F70E090E0DD
:1050600080E04AE00E94F23D0E942E3D1092C70E61
:1050700062E576E080EC9FE00E94310F80E20E94C2
:10508000ED3D61E676E080EC9FE00E94310F80E824
:1050900092E00E94953E80913502882321F086E2BD
:1050A00099E00E94343D80913502882321F08CE6FE
:1050B00096E00E94343D22E936E046E956E06CE98C
:1050C00076E082E00E942B1090E080E00E949A0E31
:1050D000182F81E090E00E949A0ED82E82E090E096
:1050E0000E949A0EC82E83E090E00E949A0EB82E7D
:1050F000153A61F586EF8D0D8B3540F521E02C15C5
:1051000028F18D2D8C0D8B55B81220C0D092000245
:10511000C0923602ED2CF12C10E000E029EC34E0D6
:1051200040EA56E063ED74E082E00E94830FE09075
:105130003602F12C10E000E027ED34E040EA56E0C2
:1051400063ED74E082E00E94830F14C084E68093D4
:10515000000281E080933602153A09F46BC40E9484
:10516000F80D25EA36E040EA56E063ED74E082E0AF
:105170000E942B1080E190E00E949A0EF82E89E1A7
:1051800090E00E949A0EA82E87EBF81282C48E013E
:105190000F5F1F4F4801A1E1CA2ED12CB02EE12E86
:1051A000C6010E949A0ED4018D934D01BFEFCB1A18
:1051B000DB0AE9E1CE16D10499F7C8010896D801B7
:1051C0002D918D01F20E8A179B07C9F7AF1061C4AC
:1051D0008B2D9E2D0E94C708882309F45AC489810B
:1051E0009A81AB81BC818093780F9093790FA093C3
:1051F0007A0FB0937B0F8D819E81AF81B8858093AC
:105200007C0F90937D0FA0937E0FB0937F0F2EEBBA
:1052100036E043EF54E063ED74E082E00E942B102F
:1052200080E290E00E949A0EF82E87E390E00E94C0
:105230009A0EA82EB5ECFB1233C48E010F5F1F4FE0
:105240004801F1E2CF2ED12CB02EE12EC6010E94F2
:105250009A0EF40181934F01FFEFCF1ADF0A2BE37F
:10526000C216D10499F7C8014A96D8012D918D0133
:10527000F20E8A179B07C9F7AF1012C48B2D9E2D13
:105280000E94C607882309F40BC48AE1EB2DFE2D8A
:10529000AEE5BFE001900D928A95E1F72EEB36E086
:1052A0004EEE54E063ED74E082E00E942B1088E340
:1052B00090E00E949A0EF82E80E490E00E949A0EF0
:1052C000A82EB2EBFB12F3C38E010F5F1F4F4801F4
:1052D000E9E3CE2ED12CB02EE12EC6010E949A0E0B
:1052E000F40181934F01FFEFCF1ADF0A20E4C216C9
:1052F000D10499F7C8010796D8012D918D01F20EBE
:105300008A179B07C9F7AF10D2C38B2D9E2D0E9421
:105310007109882309F4CBC387E0EB2DFE2DA7E5A7
:10532000BFE001900D928A95E1F72EEB36E043E65F
:1053300054E063ED74E082E00E942B1068E486E4A0
:105340000E949C0E2EEB36E081110BC062E480E4DB
:105350000E949C0E882309F4B1C30E9403132EEC13
:1053600036E048EF54E063ED74E082E00E942B10D9
:1053700023ED36E046E956E06CE976E082E00E94F3
:105380002B1082E1EBE0FFE0DF01282F1D922A9530
:10539000E9F7E9EFFEE0DF011D928A95E9F7EDE11B
:1053A000FFE080E3DF011D928A95E9F78FB7F8945B
:1053B0001092C20B1092C30B8FBF0E944B24E0903F
:1053C0004E0FF0904F0F0091500F1091510F2DE3A1
:1053D00036E043E654E066E674E082E00E94830F24
:1053E000E090520FF090530F0091540F1091550F11
:1053F00022E436E043E654E066E674E082E00E9490
:10540000830F1092850F10928B0F1092840F1092C1
:105410008A0F1092800F1092810F1092820F1092BB
:10542000830F1092860F1092870F1092880F1092A0
:10543000890F1092DC0B1092DD0B27ED36E046E968
:1054400056E06CE976E082E00E942B1010926C0E20
:1054500010926D0E10926E0E10926F0E1092700ED2
:105460001092710E1092720E1092730E1092650EC1
:105470001092640E1092580E1092590E10925A0EFD
:1054800010925B0E1092740E10925E0E10925D0ED2
:105490001092EF0E1092660E1092670E1092680E28
:1054A0001092690E11E010932F0210936B0E109260
:1054B000790E1092F00E1092750E1092760E1092D8
:1054C000770E1092780E10926A0E0E94F81780E004
:1054D0000E946C3E81E00E946C3E8091570F8111CA
:1054E0000FC01092850F1093840F1092800F1092AE
:1054F000810F1092820F1092830F81E00E944E3E26
:105500002BED36E046E956E06CE976E082E00E9459
:105510002B1064E084E10E94304B81E00E94E73D63
:105520008BE39FE10197F1F7809130118D7F80939C
:10553000301188600E94E73D8FEF80932E0280E05B
:105540000E94DA0B81E00E94DA0B82E00E94DA0B03
:1055500083E00E94DA0B2FED36E046E956E06CE975
:1055600076E082E00E942B10809115119091161127
:10557000906190931611809315118091061190916E
:105580000711906190930711809306118091F71095
:105590009091F81090619093F8108093F71080919B
:1055A000E8109091E91090619093E9108093E810D1
:1055B0008091D9109091DA1090619093DA108093D5
:1055C000D9108091CA109091CB1090619093CB101C
:1055D0008093CA108091BB109091BC109061909301
:1055E000BC108093BB108091AC109091AD10906175
:1055F0009093AD108093AC1080919D1090919E106F
:10560000906190939E1080939D1080918E10909148
:105610008F10906190938F1080938E1080917F10E7
:105620009091801090619093801080937F10809172
:105630007010909171109061909371108093701020
:1056400080916110909162109061909362108093AC
:1056500061100E94A01B0E948204811101C081E0A0
:10566000809304020E9454040E9445040E94820414
:10567000811180930402109104021093600E0E9425
:105680006B048093610E209103022093620E90912F
:10569000D00A9093630E1093E10A8093070220933F
:1056A00006029093050222EE36E046E956E06CE9E8
:1056B00076E082E00E942B108091FF119091001201
:1056C0009061909300128093FF118091F01190915E
:1056D000F11190619093F1118093F0118091E1119B
:1056E0009091E21190619093E2118093E111809189
:1056F000D2119091D31190619093D3118093D211D4
:105700008091C3119091C41190619093C4118093C2
:10571000C3118091B4119091B51190619093B5111E
:105720008093B4118091A5119091A61190619093EE
:10573000A6118093A5118091961190919711906177
:105740009093971180939611809187119091881171
:105750009061909388118093871180917811909136
:1057600079119061909379118093781180916911EA
:1057700090916A11906190936A1180936911809160
:105780005A1190915B11906190935B1180935A1123
:1057900080914B1190914C11906190934C1180939A
:1057A0004B1180913C1190913D11906190933D116E
:1057B00080933C11E2EDFAE08FE0DF011D928A95C3
:1057C000E9F7EAEFFAE086E0DF011D928A95E9F752
:1057D00021E539E046E956E06CE976E082E00E9496
:1057E0002B1007EA1FE057E9C52E5FE0D52E61EBCD
:1057F000E62E62E0F62E7BEA872E7FE0972EF801F8
:1058000011928F01D6011D921D921D921D926D0164
:1058100061E0F70181917F010E94684A801691063C
:1058200071F726EE36E046E956E06CE976E082E074
:105830000E942B1060E08DE30E94F44A0E94383EE3
:10584000EBEAFAE0819391932AE0EB3CF207D1F77F
:105850009C0144E0220F331F4A95E1F73093CD0AB3
:105860002093CC0A9093CA0E8093C90E1092CE0A50
:1058700080E090E0A0E8BFEB80933002909331028B
:10588000A0933202B09333022AEE36E046E956E0A6
:105890006CE976E082E00E942B108AB1807F8AB9A1
:1058A0008BB18F608BB91092EC0A1092ED0A1092B6
:1058B000EE0A1092EF0A1092E80A1092E90A10928A
:1058C000EA0A1092EB0A2EEE36E046E956E06CE961
:1058D00076E082E00E942B101092CB0E1092960F71
:1058E0001092010B1092F00A1092F10A1092F20A33
:1058F0001092F30A1092F90A1092F50A1092F60A21
:105900001092F70A1092F80A1092F40A1092950F6A
:105910000E94E80423EF36E046E956E06CE976E0C1
:1059200082E00E942B108091600E9091610E815058
:10593000883008F080E08093C80E9093E20A0E94BD
:10594000961827EF36E046E956E06CE976E082E00B
:105950000E942B1010928F0E1092900E1092910EAA
:105960001092920E61E086E00E94F44A8AB1807F34
:105970008AB98BB18F608BB92BEF36E046E956E0E0
:105980006CE976E082E00E942B10809169008160D2
:105990008093690081E08CBBE89A80916900806106
:1059A0008093690084E08CBBEA9A2FEF36E046E9E9
:1059B00056E06CE976E082E00E942B108091CB0EDD
:1059C000882309F482C00E94260D0E94390F24E02A
:1059D00037E046E956E06CE976E082E00E942B1061
:1059E000F894109280008AE08093810082E490E035
:1059F000909389008093880082E080936F00789470
:105A000027E037E048E157E06CE976E06A960FB6A8
:105A1000F894DEBF0FBECDBFDF91CF911F910F91E4
:105A2000FF90EF90DF90CF90BF90AF909F908F90BE
:105A30000C942B1015EAE12EF12C00E010E022EB83
:105A400036E040EA56E063ED74E082E00E94830FA6
:105A5000ED2CF12C10E000E029EC34E040EA56E0B7
:105A600063ED74E082E00E94830FEC2CF12C10E0D7
:105A700000E027ED34E040EA56E063ED74E082E0B8
:105A80000E94830FEB2CF12C10E000E02AEB36E0B3
:105A900055CB0E94AF080E94420E25EC36E0B9CBF0
:105AA0000E9495070E94160E25EC36E0F9CB0E9465
:105AB00067090E946E0E25EC36E039CC1092560F25
:105AC0000E94031325EC36E04CCC0E94EC107DCFF5
:105AD0008F929F92AF92BF92CF92DF92EF92FF92FE
