:020000040000FA
:100000000C943B010C946C010C946C010C946C01ED
:100010000C94C70B0C94FE0B0C946C0B0C949F0B64
:100020000C946C010C946C010C946C010C94620B9C
:100030000C946C010C946C010C946C010C944E0AA1
:100040000C946C010C94830A0C946C010C946C015C
:100050000C946C010C946C010C946C010C94490987
:100060000C946C010C94BD090C9493090C946C01D4
:100070000C946C010C946C010C946C010C946C014C
:100080000C94430A0C946C010C946C010C946C015C
:100090000C946C010C946C010C946C010C946C012C
:1000A0000C946C010C946C010C941B0A0C946C0164
:1000B0000C946C010C946C010C946C010C94F3097D
:1000C0000C946C010C946C010C946C010C946C01FC
:1000D0000C946C010C946C010C946C010C946C01EC
:1000E0000C946C010C9474020C940A030C94B002EE
:1000F0000C949A010C94D2020C9457030C94A10214
:100100000C94A9030C949E010C94A7010C94B501C6
:100110000C94B9010C94BF010C94A1010C94C4027D
:100120000C94CD010C94AB010C94DE060C94CC0124
:100130000C9496010C94A8030C943B0C0C94C701EE
:100140000C94C3010C94D1010C948C010C94920179
:100150000C94B10100002100240027002A002D008A
:100160003000330001010000040107010A01000012
:100170002200250028002B002E003100340002014F
:100180000000050108010B010000200023002600EB
:1001900029002C002F00320000010000030106019D
:1001A00009010505050507050808080802020202FD
:1001B0000A0A080804040404010101010101010103
:1001C0000303030303030303040707070C0C0C0CCE
:1001D0000C0C0C0C020202020606060606060606B7
:1001E0000B0B0B0B0B0B0B0B010210202008081044
:1001F0002040102040800201020108040201010297
:10020000040810204080804020100804020180046F
:1002100002018040201008040201080402010102CA
:1002200004081020408001020408102040800000D3
:100230000A0B02090C0D0E08070304010000000060
:1002400000000000000000000000000000000000AE
:10025000000000000000000000001211100000006B
:10026000000000000000000000000000000000008E
:10027000000000003B0C11241FBECFEFD1E2DEBF17
:10028000CDBF00E00CBF13E0A0E0B2E0E2E6FCE28C
:1002900000E00BBF02C007900D92AE39B107D9F74D
:1002A00026E0AEE9B3E001C01D92A831B207E1F744
:1002B00011E0CBE3D1E000E006C021970109802FD7
:1002C000FE010E941413CA33D10780E00807A9F782
:1002D0000E94590D0C942F160C940000815082310D
:1002E00008F05AC0E82FF0E08827E658FE4F8F4FFD
:1002F0000C9414139A019E018C0192019601CC0179
:10030000A101A701AB01B101B501B901BF01C30151
:10031000CC01C701CD01D101809180008F778093FE
:1003200080000895809180008F7DF9CF80918000BA
:10033000877FF5CF84B58F7784BD089584B58F7D91
:10034000FBCF8091B0008F778093B00008958091AB
:10035000B0008F7DF9CF809190008F7780939000CF
:100360000895809190008F7DF9CF80919000877FD4
:10037000F5CF8091A0008F778093A00008958091A1
:10038000A0008F7DF9CF8091A000877FF5CF80916D
:1003900020018F77809320010895809120018F7D27
:1003A000F9CF80912001877FF5CFCF93DF93282F5E
:1003B00030E0F901E25DFD4F8491F901E851FE4F13
:1003C000D491F901EE55FE4FC491CC23A1F08111D7
:1003D0000E946E01EC2FF0E0EE0FFF1FE857FE4F7A
:1003E000A591B491EC91ED2381E090E009F480E0D7
:1003F000DF91CF91089580E090E0FACF1F93CF93E3
:10040000DF93282F30E0F901E25DFD4F8491F9017F
:10041000E851FE4FD491F901EE55FE4FC491CC2323
:10042000A9F0162F81110E946E01EC2FF0E0EE0F63
:10043000FF1FE259FE4FA591B4918FB7F894EC914C
:10044000111108C0D095DE23DC938FBFDF91CF91CF
:100450001F910895DE2BF8CFCF93DF9390E0FC013E
:10046000E851FE4F24918E559E4FFC0184918823C4
:10047000C9F090E0880F991FFC01EC5AFE4FA5913E
:10048000B491FC01E259FE4FC591D49161110DC0A8
:100490009FB7F8948C91209582238C938881282390
:1004A00028839FBFDF91CF910895623051F49FB7A9
:1004B000F8943C91822F809583238C93E8812E2B96
:1004C000EFCF8FB7F894EC912E2B2C938FBFEACF00
:1004D0002FB7F89460918D0470918E0480918F04F1
:1004E000909190042FBF0895AF92BF92CF92DF9268
:1004F000EF92FF920F931F93CF93DF936C017B01D9
:100500008B01040F151FEB015E01AE18BF08C01769
:10051000D10759F06991D601ED91FC910190F081DC
:10052000E02DC6011995892B79F7C501DF91CF918F
:100530001F910F91FF90EF90DF90CF90BF90AF9001
:100540000895FC01538D448D252F30E0842F90E0D9
:10055000821B930B541710F0CF96089501970895BE
:10056000FC01918D828D981761F0A28DAE0FBF2F87
:10057000B11D5D968C91928D9F5F9F73928F90E0DD
:1005800008958FEF9FEF0895FC01918D828D98174C
:1005900031F0828DE80FF11D858D90E008958FEF89
:1005A0009FEF0895FC01918D228D892F90E0805C52
:1005B0009F4F821B91098F739927089581E994E0D9
:1005C0000E94D20221E0892B09F420E0822F0895B5
:1005D000FC01A48DA80FB92FB11DA35ABF4F2C91B8
:1005E000848D90E001968F739927848FA689B789AF
:1005F0002C93A089B1898C91837080648C93938DA6
:10060000848D981306C00288F389E02D80818F7D48
:1006100080830895EF92FF920F931F93CF93DF9300
:10062000EC0181E0888F9B8D8C8D98131AC0E8892E
:10063000F989808185FF15C09FB7F894EE89FF89FD
:100640006083E889F98980818370806480839FBF9B
:1006500081E090E0DF91CF911F910F91FF90EF909B
:100660000895F62E0B8D10E00F5F1F4F0F731127AB
:10067000E02E8C8D8E110CC00FB607FCFACFE889E6
:10068000F989808185FFF5CFCE010E94E802F1CF84
:10069000EB8DEC0FFD2FF11DE35AFF4FF0829FB75A
:1006A000F8940B8FEA89FB8980818062CFCFCF934A
:1006B000DF93EC01888D8823B9F0AA89BB89E8898A
:1006C000F9898C9185FD03C0808186FD0DC00FB630
:1006D00007FCF7CF8C9185FFF2CF808185FFEDCFAE
:1006E000CE010E94E802E9CFDF91CF91089580E02A
:1006F00090E0892B29F00E94DE0281110E94000007
:1007000080E090E0892B49F080E090E0892B29F08F
:100710000E94000081110E94000080E090E0892B7F
:1007200049F080E090E0892B29F00E9400008111BF
:100730000E94000080E090E0892B49F080E090E08A
:10074000892B29F00E94000081110C94000008956B
:10075000089590E080E0089584E40E94D501892BFB
:1007600051F085E40E94D501892B39F083E40E9481
:10077000D501892B21F080E0089581E0089582E081
:100780000895CF93C0E08EE18C0F0E94D501CF5F1A
:10079000892B19F0C830B9F7C1E08C2FCF9108959B
:1007A00080917B00877F80937B0087E480937C002F
:1007B00080917A00806480937A0080917A0086FD2F
:1007C000FCCF809178009091790020917E04309147
:1007D0007F04AC01421B530B141615065CF42091E8
:1007E0007E0430917F04AC01421B530B463051050F
:1007F00054F4089520917E0430917F04281B390B16
:10080000263031053CF090937F0480937E0481E094
:100810008093DF030895861323C0409138045091DC
:10082000390460913A0470913B044F5F5F4F6F4F02
:100830007F4F409338045093390460933A04709387
:100840003B0441E050E060E070E04093510450937D
:100850005204609353047093540480935004089599
:10086000409138045091390460913A0470913B04EE
:10087000415051096109710940933804509339047A
:1008800060933A0470933B044FEF5FEFBA01DDCF02
:10089000CF93DF93FC012481358133FF10C0EC013D
:1008A0000E9468022A813B81621B730B2E85F0E156
:1008B0002F9F9001112481E06217730708F480E0F4
:1008C000DF91CF9108951F93CF93DF93EC018C813B
:1008D0009D8180FD19829C012F713327232B19F0F4
:1008E000807E9D838C838C819D8194FB112710F9E0
:1008F000162796FF04C09F7B9D838C8311E08C811B
:100900009D8191FD10C011110BC0CE010E944804C1
:10091000182F8111C0C0812FDF91CF911F910895B1
:1009200092609D838C830E946802AB018A819B81C7
:10093000FA01E81BF90B8C819D81112309F45DC03C
:1009400085FD3EC02A8592FD06C0222321F09460D9
:100950009D838C830BC02E171F0619F010F02111F8
:1009600007C082629D838C83598748875B834A8353
:100970008C819D818F71992711E0892B31F28E81B5
:100980009F81892B41F28C819D81917084369105E4
:1009900009F48AC008F09AC08232910509F484C033
:1009A00008F07BC08130910509F47EC0409709F4BE
:1009B0007BC0CE010E944804882309F4ACCF74C0E8
:1009C00097FDD6CF86FD0AC02C85A0E12A9F900115
:1009D0001124E217F30760F28464BACF87FF0BC0DB
:1009E0002D85A0E12A9F900111248868E217F30762
:1009F00008F0AECFBDCF2C85F4CF85FF12C02A857D
:100A00002E171F0609F080F586FD03C029812F5F90
:100A1000298397FD19828F7D806191609D838C83EE
:100A200023C090FF0DC097FD03C080619D838C8320
:100A30008C819D819E779D838C835B834A8314C0C8
:100A400029812223F1F09C01207C3327232BA1F460
:100A50002B8540E1249F90011124E217F30760F4F5
:100A600088859985892B51F48C819D8192FF80CF57
:100A70009B7F9D838C837CCF8160D0CF1986188625
:100A8000F3CF91FFF1CF8F739D7F98609D838C830F
:100A900019861886D2CF10E072CF8134910521F0EB
:100AA0008035910509F085CFEE81FF81309709F4FB
:100AB00032CF1995CE010E944804882309F42BCF28
:100AC0008C819D81977F9D838C8325CF883E910566
:100AD00059F338F4813C910539F3803D910521F3B8
:100AE00068CF8035A1E09A07F9F2803D21E09207B6
:100AF000D9F28031914009F05CCFD6CF0E94D50168
:100B000021E0892B09F420E0822F0895CF93C82F8C
:100B100061E00E942C0261E08C2FCF910C94FE01C9
:100B2000CF93C82F61E00E942C0260E08C2FCF9100
:100B30000C94FE0162E00C942C02CF93DF93EC0145
:100B400060E08E810E94FE0161E08E810E94FE01C4
:100B500060E08E810E94FE018BE891E00197F1F741
:100B6000DF91CF910895CF92DF92EF92FF920F9392
:100B70001F93CF93DF936C017C0187E0E80EF11C9B
:100B8000D0E0C0E0062F10E0B8010C2E02C0759531
:100B900067950A94E2F76170F70181917F010E94E5
:100BA000FE012196C430D10579F7C601DF91CF91BE
:100BB0001F910F91FF90EF90DF90CF900C949D05C7
:100BC000CF92DF92EF92FF920F931F93CF93DF9319
:100BD000EC01F62E642F8C810E94FE018D818F3FE7
:100BE00019F060E00E94FE010F2D10E08F8584FF58
:100BF00025C06E0187E0C80ED11CF12CE12CB80194
:100C00000E2C02C0759567950A94E2F76170F601A3
:100C100081916F010E94FE01FFEFEF1AFF0A88E049
:100C2000E816F10461F7CE01DF91CF911F910F918A
:100C3000FF90EF90DF90CF900C949D05B80184E079
:100C4000759567958A95E1F7CE010E94B3056F2DE2
:100C5000CE01DF91CF911F910F91FF90EF90DF9028
:100C6000CF900C94B30540E0682F8EE295E00C9491
:100C7000E005CF93DF93613029F090913D059860B6
:100C800090933D05609341051092420590E4909346
:100C9000430580934405805C8093450561E0809125
:100CA00032050E942C02809133058F3F19F061E0DC
:100CB0000E942C0261E0809134050E942C02CEE259
:100CC000D5E09E012E52354080913D0584FD0BC03C
:100CD00084E090E021962817390744F461E08E8182
:100CE0000E942C02EECF88E090E0F4CF8BE39DE0F1
:100CF0000197F1F760E0809132050E94FE0160E00B
:100D0000809134050E94FE01809133058F3F19F0D8
:100D100060E00E94FE0180913D0584FD39C063E0E2
:100D20008EE295E00E94B305CBE4D6E4CE010197B4
:100D3000F1F763E08EE295E00E94B3052197F1F7A9
:100D400063E08EE295E00E94B30583E592E00197AF
:100D5000F1F762E08EE295E00E94B30580913D05D7
:100D600080620E94330684E080933E058CE00E94FE
:100D7000330681E00E9433068BE39FE10197F1F790
:100D800082E080933F0586E0DF91CF910C9433069B
:100D900080620E9433068BE496E40197F1F780911C
:100DA0003D0580620E94330683E592E00197F1F7EA
:100DB00080913D0580620E943306D0CF41E00E94C1
:100DC000E00581E090E00895FB0101900020E9F743
:100DD0003197AF01461B570BDC01ED91FC9102806E
:100DE000F381E02D1994CF93DF93D0E0C0E000971A
:100DF00031F0BC0181E994E00E94E406EC016CE36F
:100E000072E081E994E00E94E4068C0F9D1FDF915F
:100E1000CF9108956115710511F00C94E40690E0EE
:100E200080E00895EF92FF920F931F93CF93DF938B
:100E3000209101022223A1F1EA018B017C0166E4E9
:100E400072E081E994E00E940A076FE372E081E9B1
:100E500094E00E940A0764E472E081E994E00E9451
:100E60000A07B70181E994E00E940A0764E472E08E
:100E700081E994E00E940A07B80181E994E00E94A8
:100E80000A0768E472E081E994E00E940A07CE0153
:100E9000DF91CF911F910F91FF90EF900C94F3068B
:100EA000DF91CF911F910F91FF90EF900895EF92F6
:100EB000FF920F931F93CF93DF938C017B01C42F7D
:100EC000FB018481958180759170409729F5A80177
:100ED0006BE472E08FE492E00E941207D0E0FE0122
:100EE000EC5CFB4F908181E0911180E08083FE01FA
:100EF000E65FFD4F8081911120C060E00E94FE01FD
:100F0000CC0FDD1FCE5FDD4F4881598162E572E075
:100F10008FE492E00E941207F701848182FF13C0E0
:100F2000A8016AE572E08FE492E0DF91CF911F9112
:100F30000F91FF90EF900C94120761E00E94FE0168
:100F400046E552E0E3CFDF91CF911F910F91FF90E3
:100F5000EF9008950F931F93CF93DF93EC018B01D4
:100F6000FB018481958180759170409739F4AE01C1
:100F70006BE472E08FE492E00E941207F801848132
:100F800082FF0BC0AE016AE572E08FE492E0DF9170
:100F9000CF911F910F910C941207DF91CF911F9168
:100FA0000F9108954F925F926F927F92AF92BF928E
:100FB000CF92DF92EF92FF920F931F93CF93DF9325
:100FC000CDB7DEB7A1970FB6F894DEBF0FBECDBF89
:100FD0005C016B017A012801390166E472E081E964
:100FE00094E00E940A076FE372E081E994E00E94B6
:100FF0000A0764E472E081E994E00E940A07B501FF
:1010000081E994E00E940A0764E472E081E994E0D7
:101010000E940A07B60181E994E00E940A0768E489
:1010200072E081E994E00E940A07B70181E994E047
:101030000E940A0719A28E010F5D1F4F8AE0C82E79
:10104000D12CE12CF12CC301B201A70196010E9421
:10105000F21229013A01605DF80162938F01411497
:1010600051046104710479F7309729F0BF0181E9D7
:1010700094E00E94E4066CE372E081E994E00E944F
:10108000E406A1960FB6F894DEBF0FBECDBFDF9188
:10109000CF911F910F91FF90EF90DF90CF90BF9075
:1010A000AF907F906F905F904F9008950F931F9334
:1010B000CF9300EE13E0C0E0E0914105CE17B0F011
:1010C000E150F0E0E25DFA4F848980680E943306C7
:1010D000B8018EE295E00E940A07CF5F0B5E1F4FBA
:1010E000C43051F7CF911F910F910895EC2FE9CFA4
:1010F000CF93DF93D82FC5E18C9FC001112444E129
:1011000050E080529C4F0E943D13CD9FF00111246E
:10111000E052FC4F148ADF91CF910895CF92DF9275
:10112000EF92FF9220914B0480914C04F0904D047B
:10113000813009F4A6C0823009F4A6C087E692E0A7
:101140009F938F931F922F938BE692E09F938F93A1
:101150001F9285E18F938EE993E09F938F930E9476
:101160004C136EE973E081E00E9478088DB79EB75A
:101170000A960FB6F8949EBF0FBE8DBF4AE5F110D8
:1011800001C048E520917E0430917F04C09038046E
:10119000D0903904E0903A04F0903B04A4E6B0E02B
:1011A0000E941C132AE096958795779567952A9556
:1011B000D1F71F926F93FF92EF92DF92CF921F921F
:1011C0004F9383E792E09F938F931F9285E18F93D4
:1011D0008EE993E09F938F930E944C136EE973E026
:1011E00082E00E947808409160045091610460910F
:1011F0006204709163048DB79EB70E960FB6F89493
:101200009EBF0FBE8DBF8091370430E281113AE25C
:101210008091360420E281112AE28091350490E227
:1012200081119AE280913404811131C080E27F9370
:101230006F935F934F931F923F931F922F931F9231
:101240009F931F928F9386E892E09F938F931F92B4
:1012500085E18F938EE993E09F938F930E944C13C7
:101260008DB79EB742960FB6F8949EBF0FBE8DBF46
:101270006EE973E083E0FF90EF90DF90CF900C94E5
:1012800078088FE592E05CCF83E692E059CF8AE25E
:10129000CECF1F920F920FB60F9211242F933F9330
:1012A0008F939F93AF93BF9380918D0490918E0401
:1012B000A0918F04B091900430918C0423E0230F0F
:1012C0002D3758F50196A11DB11D20938C048093F4
:1012D0008D0490938E04A0938F04B093900480911A
:1012E000880490918904A0918A04B0918B0401969E
:1012F000A11DB11D8093880490938904A0938A0452
:10130000B0938B04BF91AF919F918F913F912F919B
:101310000F900FBE0F901F90189526E8230F02968E
:10132000A11DB11DD2CF1F920F920FB60F921124A3
:101330000BB60F922F933F934F935F936F937F93CF
:101340008F939F93AF93BF93EF93FF9381E994E0C3
:101350000E94E802FF91EF91BF91AF919F918F9111
:101360007F916F915F914F913F912F910F900BBEA5
:101370000F900FBE0F901F9018951F920F920FB6EF
:101380000F9211240BB60F922F938F939F93EF938D
:10139000FF93E091A104F091A2048081E091A70461
:1013A000F091A80482FD1DC090818091AA048F5FF6
:1013B0008F732091AB04821741F0E091AA04F0E012
:1013C000EF56FB4F958F8093AA04FF91EF919F9169
:1013D0008F912F910F900BBE0F900FBE0F901F900B
:1013E00018958081F2CF1F920F920FB60F921124A1
:1013F0000BB60F922F933F934F935F936F937F930F
:101400008F939F93AF93BF93EF93FF930E945608E0
:10141000FF91EF91BF91AF919F918F917F916F91CC
:101420005F914F913F912F910F900BBE0F900FBE88
:101430000F901F9018951F920F920FB60F921124C4
:101440000BB60F922F933F934F935F936F937F93BE
:101450008F939F93AF93BF93EF93FF930E94D0031B
:10146000FF91EF91BF91AF919F918F917F916F917C
:101470005F914F913F912F910F900BBE0F900FBE38
:101480000F901F9018951F920F920FB60F92112474
:10149000A8950F900FBE0F901F9018951F920F9256
:1014A0000FB60F9211248F939F93AF93BF938091A8
:1014B000570490915804A0915904B0915A04019690
:1014C000A11DB11D8093570490935804A093590413
:1014D000B0935A048091570490915804A0915904F4
:1014E000B0915A048093700490937104A093720495
:1014F000B0937304BF91AF919F918F910F900FBEE6
:101500000F901F9018951F920F920FB60F921124F3
:101510000BB60F922F933F934F935F936F937F93ED
:101520008F939F93AF93BF93EF93FF938091DB03D0
:101530009091DC03A091DD03B091DE030196A11D23
:10154000B11D8093DB039093DC03A093DD03B09384
:10155000DE038091D8038823F1F08091C703909136
:10156000C803A091C903B091CA034091CB03509125
:10157000CC036091CD037091CE03840F951FA61FFD
:10158000B71FB7FD3DC08093C7039093C803A093D6
:10159000C903B093CA038091C4038823F1F08091FA
:1015A000B3039091B403A091B503B091B6034091F9
:1015B000B7035091B8036091B9037091BA03840FD7
:1015C000951FA61FB71FB7FD4CC08093B303909320
:1015D000B403A093B503B093B603FF91EF91BF910D
:1015E000AF919F918F917F916F915F914F913F91BB
:1015F0002F910F900BBE0F900FBE0F901F9018955C
:10160000B0588093C7039093C803A093C903B093C5
:10161000CA0361E080E30E94FE018091CF039091B4
:10162000D003A091D103B091D2032091D7034FEF03
:101630005FEFBA01222321F041E050E060E070E06A
:10164000840F951FA61FB71F8093CF039093D003DD
:10165000A093D103B093D20360E080E30E94FE0127
:101660009ACFB0588093B3039093B403A093B5037B
:10167000B093B60361E081E30E94FE018091BB0359
:101680009091BC03A091BD03B091BE032091C30310
:101690004FEF5FEFBA01222321F041E050E060E01C
:1016A00070E0840F951FA61FB71F8093BB03909314
:1016B000BC03A093BD03B093BE0360E081E30E942E
:1016C000FE018BCF1F920F920FB60F9211240F9035
:1016D0000FBE0F901F9018951F920F920FB60F928A
:1016E00011240BB60F922F933F934F935F936F93F9
:1016F0007F938F939F93AF93BF93EF93FF936FB1BC
:101700008FB18295817090915004891729F065FB03
:10171000662760F90E940B04FF91EF91BF91AF9192
:101720009F918F917F916F915F914F913F912F91F9
:101730000F900BBE0F900FBE0F901F9018951F9229
:101740000F920FB60F9211240BB60F922F933F9367
:101750004F935F936F937F938F939F93AF93BF93B9
:10176000EF93FF930E946C0BFF91EF91BF91AF91AC
:101770009F918F917F916F915F914F913F912F91A9
:101780000F900BBE0F900FBE0F901F9018951F92D9
:101790000F920FB60F9211248F939F93AF93BF9325
:1017A00089B189B18091570490915804A09159044E
:1017B000B0915A040196A11DB11D809357049093D6
:1017C0005804A0935904B0935A04809157049091FF
:1017D0005804A0915904B0915A04809370049093D6
:1017E0007104A0937204B0937304BF91AF919F9161
:1017F0008F910F900FBE0F901F9018951F920F9210
:101800000FB60F9211240BB60F922F933F934F9365
:101810005F936F937F938F939F93AF93BF93EF9358
:10182000FF930E94C70BFF91EF91BF91AF919F91E2
:101830008F917F916F915F914F913F912F910F9079
:101840000BBE0F900FBE0F901F901895FC011082D9
:1018500013821282158214821782168211861086D4
:1018600082E382878FE1838785E284878CE08587A6
:101870008EE386870895E1E9F4E01382128288EE10
:1018800093E0A0E0B0E084839583A683B78382E2EF
:1018900092E09183808385EC90E09587848784EC47
:1018A00090E09787868780EC90E0918B808B81EC2D
:1018B00090E0938B828B82EC90E0958B848B86EC0E
:1018C00090E0978B868B118E128E138E148EEEE223
:1018D000F5E01382128284E392E09183808388E0B2
:1018E00084838FEF858389E086838AE087838BE01A
:1018F00080878CE081878DE0828713861486158629
:101900001686178661E080E10E94390689E096E03C
:101910000E94260C62E089E30E942C02E9E0F6E0D6
:10192000848195819061958384838AEF95E00E94FC
:10193000260C62E088E30E942C02EAEFF5E0848145
:1019400095819061958384838BEE95E00E94260CAF
:1019500062E087E30E942C02EBEEF5E08481958142
:101960009061958384838CED95E00E94260C62E063
:1019700086E30E942C02ECEDF5E084819581906174
:10198000958384838DEC95E00E94260C62E08AE3C7
:101990000E942C02EDECF5E08481958190619583A5
:1019A00084838EEB95E00E94260C62E08EE30E9419
:1019B0002C02EEEBF5E08481958190619583848320
:1019C0008FEA95E00E94260C62E08FE30E942C02D1
:1019D000EFEAF5E08481958190619583848380EAC4
:1019E00095E00E94260C62E080E40E942C02E0EA6E
:1019F000F5E08481958190619583848381E995E008
:101A00000E94260C62E081E40E942C02E1E9F5E0EC
:101A10008481958190619583848382E895E00E941A
:101A2000260C62E082E40E942C02E2E8F5E0848168
:101A3000958190619583848383E795E00E94260CCD
:101A400062E086E10E942C02E3E7F5E08481958163
:101A500090619583848384E695E00E94260C62E081
:101A600088E10E942C02E4E6F5E084819581906192
:101A70009583848385E595E00E94260C62E08AE1E7
:101A80000E942C02E5E5F5E08481958190619583C3
:101A9000848386E495E00E94260C62E08CE10E943B
:101AA0002C02E6E4F5E0848195819061958384833E
:101AB0000895789484B5826084BD84B5816084BDC6
:101AC00085B5826085BD85B5816085BD80916E00DC
:101AD000816080936E00109281008091810082600D
:101AE000809381008091810081608093810080914A
:101AF00080008160809380008091B1008460809339
:101B0000B1008091B00081608093B000809191001D
:101B10008260809391008091910081608093910018
:101B2000809190008160809390008091A1008260FC
:101B30008093A1008091A10081608093A100809199
:101B4000A00081608093A000809121018260809339
:101B500021018091210181608093210180912001E8
:101B600081608093200180917A00846080937A0064
:101B700080917A00826080937A0080917A008160FF
:101B800080937A0080917A00806880937A00109226
:101B9000C10080E30E9490058CE20E94900581E3E1
:101BA0000E9490058BE20E94900580E10E949005C2
:101BB0008AE20E9486058DE10E94860589E10E94E5
:101BC00086058BE10E94860587E10E94860586E3F3
:101BD0000E949A0587E30E949A0588E30E949A056D
:101BE00089E30E949A058AE30E949A058EE30E9487
:101BF0009A058FE30E949A0580E40E949A0581E489
:101C00000E949A0582E40E949A0583E40E949A0544
:101C100084E40E949A0585E40E949A058EE10E9460
:101C20009A058FE10E949A0580E20E949A0581E25E
:101C30000E949A0582E20E949A0583E20E949A0518
:101C400084E20E949A0585E20E949A0582E10E9440
:101C50009A0583E10E949A0582E00E949A0583E03A
:101C60000E949A058FE00E949A058EE00E949A05D4
:101C700084E10E949A0585E10E949A0586E10E940E
:101C80009A0588E10E949A058AE10E949A058CE1F2
:101C90000E949A05E091A104F091A20482E0808361
:101CA000E0919D04F0919E041082E0919F04F091D8
:101CB000A00480E180831092A904E091A504F09132
:101CC000A60486E08083E091A304F091A4048081BF
:101CD00080618083E091A304F091A40480818860F6
:101CE0008083E091A304F091A404808180688083C4
:101CF000E091A304F091A40480818F7D808381E032
:101D0000809301028EE392E00E94F306809101022B
:101D1000882321F081EA92E00E94F30664E084E1E6
:101D20000E94390681E00E9433068BE39FE1019710
:101D3000F1F7C0EED3E004E314E044E150E060E2E8
:101D400070E0CE010E9436131C8A65960C171D07A1
:101D5000A1F70E94C103D82F80934B040E94AC03CB
:101D6000C82F80934C0483E00E94D501892B09F48D
:101D700031C482E00E94D50181E080934D048EE061
:101D80000E94D501892B09F427C48FE00E94D50158
:101D900080E080934E04D0934F04C0930002809162
:101DA0000D0690910E06906190930E0680930D069D
:101DB0008091FE059091FF0590619093FF058093BF
:101DC000FE058091EF059091F00590619093F005EC
:101DD0008093EF058091E0059091E10590619093EB
:101DE000E1058093E0058091D1059091D205906145
:101DF0009093D2058093D1058091C2059091C3053F
:101E000090619093C3058093C2058091B305909132
:101E1000B40590619093B4058093B3058091A405B7
:101E20009091A50590619093A5058093A40580915C
:101E300095059091960590619093960580939505F0
:101E40008091860590918705906190938705809396
:101E5000860580917705909178059061909378053B
:101E600080937705809168059091690590619093C2
:101E70006905809368058091590590915A05906194
:101E800090935A058093590580914A0590914B058E
:101E9000906190934B0580934A05ECE3F4E08FE06A
:101EA000DF011D928A95E9F71092340461E08DE11B
:101EB0000E94FE011092350461E089E10E94FE015A
:101EC0001092360461E08BE10E94FE01109237040B
:101ED00061E087E10E94FE0160E08DE30E942C0238
:101EE0000E94D00320917E0430917F04A4E6B0E0EC
:101EF0000E941C134AE096958795779567954A95B9
:101F0000D1F760937D041092380410923904109236
:101F10003A0410923B041092510410925204109211
:101F200053041092540462E082E10E942C0262E0A9
:101F300083E10E942C0210926904109268041092AE
:101F40006A0410926B0410926C0410926D0410924B
:101F50006E0410926F04109270041092710410922B
:101F6000720410927304109274041092750410920B
:101F70007604109277041092780461E086E00E9463
:101F80002C0262E084E10E942C0262E085E10E9462
:101F90002C0264EC72E080E00E94780863ED72E04D
:101FA00081E00E9478080E948E080E94560841EE47
:101FB00052E06FEE72E084EF92E00E94120758EB5D
:101FC000C52E5BE0D52EE12CF12C89E30E947E0525
:101FD000682F89E096E00E94630488E30E947E05F2
:101FE000682F8AEF95E00E94630487E30E947E05D4
:101FF000682F8BEE95E00E94630486E30E947E05C5
:10200000682F8CED95E00E9463048AE30E947E05B0
:10201000682F8DEC95E00E9463048EE30E947E059C
:10202000682F8EEB95E00E9463048FE30E947E058B
:10203000682F8FEA95E00E94630480E40E947E0589
:10204000682F80EA95E00E94630481E40E947E0587
:10205000682F81E995E00E94630482E40E947E0576
:10206000682F82E895E00E94630486E10E947E0565
:10207000682F83E795E00E94630488E10E947E0553
:10208000682F84E695E00E9463048AE10E947E0541
:10209000682F85E595E00E9463048CE10E947E052F
:1020A000682F86E495E00E94630469E076E088EF9B
:1020B00092E00E94AA076AEF75E08DEF92E00E941D
:1020C000AA076BEE75E083E093E00E94AA076CED2F
:1020D00075E086E093E00E94AA076DEC75E08BE066
:1020E00093E00E94AA076EEB75E082E193E00E9404
:1020F000AA076FEA75E087E193E00E94AA0760EA09
:1021000075E08CE193E00E94AA0761E975E081E245
:1021100093E00E94AA0762E875E086E293E00E94DD
:10212000AA0740E063E775E08CE293E00E9457075E
:1021300041E064E675E081E393E00E94570742E0E6
:1021400065E575E086E393E00E94570743E066E4A7
:1021500075E08BE393E00E94570780910D0685FBA5
:10216000882780F980933C048091FE0585FB8827B1
:1021700080F980933D048091EF0585FB882780F9E5
:1021800080933E048091E00585FB882780F9809349
:102190003F048091D1059091D20585FB222720F93B
:1021A000209340048076992721E08036910509F03C
:1021B00020E0209341048091C20585FB882780F9A7
:1021C000809342048091B30585FB882780F9809332
:1021D00043048091A40585FB882780F980934404FB
:1021E0008091950585FB882780F98093450480912F
:1021F000860585FB882780F98093460480917705C2
:1022000085FB882780F9809347048091680585FBCA
:10221000882780F9809348048091590585FB882799
:1022200080F98093490480914A0585FB882780F9CD
:1022300080934A040E94C103C82F0E94AC03D82F88
:1022400080914F04C81701F18FEF8C0F4FE952E0D6
:10225000883050F42C2F2150330BF901EE0FFF1F63
:10226000E25FFD4F4081518180910102882351F04E
:102270000C2F10E030E020E061E473E08FE492E0A6
:102280000E94D207C0934F0480910002D81791F0AA
:102290004FE552E0D13031F043E652E0D23011F058
:1022A00047E652E066E473E08FE492E00E94120792
:1022B000D0930002C0934B04D0934C0483E00E945F
:1022C000D501892B09F48AC182E00E94D50181E001
:1022D00080934D048EE00E94D501892B09F480C1C2
:1022E0008FE00E94D50180E080934E0482E10E943D
:1022F000D501C82F83E10E94D501D82F80915604C3
:10230000C81304C080915504D817B1F180915004CE
:10231000C81721F06D2F8C2F0E940B0400915104DF
:10232000109152042091530430915404109251049E
:102330001092520410925304109254040115110586
:1023400021053105A9F080910102882389F037FF2A
:1023500007C030952095109501951F4F2F4F3F4F87
:102360004AE453E060E573E08FE492E00E94D20714
:10237000C0935604D093550484E10E94D501C82F20
:1023800085E10E94D50180915B04C81729F18091F5
:10239000570490915804A0915904B0915A040196A1
:1023A000A11DB11D8093570490935804A093590424
:1023B000B0935A048091570490915804A091590405
:1023C000B0915A048093700490937104A0937204A6
:1023D000B0937304C0935B040E9468024B015C01DC
:1023E0008091790490917A04A0917B04B0917C044F
:1023F000A5019401281B390B4A0B5B0BDA01C901BB
:10240000883E9340A105B10508F469C0409070046E
:102410005090710460907204709073048091640411
:1024200090916504A0916604B0916704A3019201A4
:10243000281B390B4A0B5B0BACE3B0E00E942B135B
:10244000A70196010E94F21289019A01009360048B
:1024500010936104209362043093630400936C042E
:1024600010936D0420936E0430936F0440926404C3
:1024700050926504609266047092670480927904B9
:1024800090927A04A0927B04B0927C0480915C04C8
:1024900090915D04A0915E04B0915F040817190744
:1024A0002A073B07E1F080910102882341F044E5CF
:1024B00053E068E573E08CE593E00E94D2078091D9
:1024C000600490916104A0916204B09163048093D0
:1024D0005C0490935D04A0935E04B0935F040E943B
:1024E0006802009184041091850420918604309143
:1024F0008704601B710B820B930B64367105810599
:10250000910508F443C00E94D00320917E043091CD
:102510007F04A4E6B0E00E941C13DC01CB012AE09A
:10252000B695A795979587952A95D1F720917D0423
:10253000281711F180937D0420917E0430917F044F
:10254000809101028823C1F0A4E6B0E00E941C1330
:102550008B019C018AE036952795179507958A95FA
:10256000D1F711272227332741E653E065E673E0D0
:102570008FE492E00E94D2070E9468026093840474
:102580007093850480938604909387040E948E083C
:102590000E946802009180041091810420918204BD
:1025A00030918304601B710B820B930B60357105B6
:1025B0008105910560F00E9456080E9468026093B0
:1025C00080047093810480938204909383040E941A
:1025D0007703FBCC80E0D1CB81E0DBCB80E078CE11
:1025E00081E082CEA1E21A2EAA1BBB1BFD010DC009
:1025F000AA1FBB1FEE1FFF1FA217B307E407F507B3
:1026000020F0A21BB30BE40BF50B661F771F881F8E
:10261000991F1A9469F760957095809590959B0124
:10262000AC01BD01CF010895EE0FFF1F881F8BBFC6
:102630000790F691E02D1994A29FB001B39FC001BD
:10264000A39F700D811D1124911DB29F700D811DDE
:102650001124911D08950E941C13A59F900DB49FF5
:10266000900DA49F800D911D11240895DC0101C0DF
:102670006D9341505040E0F70895FB01DC0141505B
:10268000504048F001900D920020C9F701C01D9202
:1026900041505040E0F708950F931F93CF93DF937D
:1026A000CDB7DEB72E970FB6F894DEBF0FBECDBF05
:1026B0000E891F89888D998D26E02C831A830983C2
:1026C00097FF02C080E090E801979E838D83AE0162
:1026D000445E5F4F6A8D7B8DCE0101960E94891307
:1026E0004D815E8157FD0AC02F81388542175307FF
:1026F0000CF49A01020F131FF80110822E960FB6E8
:10270000F894DEBF0FBECDBFDF91CF911F910F9127
:1027100008952F923F924F925F926F927F928F9285
:102720009F92AF92BF92CF92DF92EF92FF920F9360
:102730001F93CF93DF9300D000D000D01F921F9241
:10274000CDB7DEB77C013B018A01FC0117821682FE
:10275000838181FFDDC1CE0101965C01F701938188
:10276000F30193FD859193FF81913F01882309F443
:1027700053C1853239F493FD859193FF81913F01D7
:10278000853229F4B70190E00E94A115E7CF912C82
:10279000212C312CFFE1F31538F08B3211F190F43C
:1027A000803209F1833229F137FC3CC020ED280F3B
:1027B0002A3050F536FE20C08AE0989E200D112464
:1027C000922E06C08D3291F0803371F7689430F804
:1027D000F30193FD859193FF81913F018111DACF40
:1027E00021C0689431F8689432F8F2CF689433F8D5
:1027F000EFCF689434F8ECCFEAE02E9E200D112440
:10280000222E689435F8E4CF8E3229F436FC04C1C8
:10281000689436F8DDCF8C3619F4689437F8D8CF41
:102820008836B1F2982F9F7D95549330E0F083362F
:10283000A1F18337C1F1833509F063C02801F2E0CB
:102840004F0E511CF801C080D180692D70E036FC1C
:1028500002C06FEF7FEFC6010E948B154C01689498
:1028600037F882010AC00C5F1F4FFFE3F983882409
:102870008394912C6501E89437F833FE2DC0522CD7
:102880008114910471F5552009F468CFB70180E2F5
:1028900090E00E94A1155A94F6CFF80180818983B7
:1028A0000E5F1F4FE4CF2801F2E04F0E511CF801DC
:1028B000C080D180692D70E036FC02C06FEF7FEFE1
:1028C000C6010E9496154C018201D5CFB70180E266
:1028D00090E00E94A1152A942814190409F0B0F779
:1028E000CECFF60137FC859137FE81916F01B7019C
:1028F00090E00E94A11551105A94F1E08F1A9108AE
:10290000BFCF843619F0893609F077C0F80137FE59
:102910006BC060817181828193810C5F1F4FF32DA9
:10292000FF763F2E97FF09C0909580957095619531
:102930007F4F8F4F9F4F689437F82AE030E0A50112
:102940000E94D115C82ECA188C2C432C36FE0CC000
:10295000E89440F8C91440F434FE05C032FC03C0CA
:10296000F32DFE7E4F2E892C44FEAAC0FE01EC0DF5
:10297000F11D8081803309F09CC0242D297E422ED8
:10298000842D8870582E43FCAAC040FEA4C09C2C05
:10299000821418F42C0C922C981844FEA6C0B7018F
:1029A00080E390E00E94A11542FE09C088E790E014
:1029B00041FE02C088E590E0B7010E94A115C9144C
:1029C00008F49FC0CA94D12C9FEFC91AD90ACA0C27
:1029D000DB1CF60182916F01B70190E00E94A11506
:1029E000AC14BD04B1F74FCF60817181072E000C8C
:1029F000880B990B0E5F1F4F92CFD32CE894D4F81D
:102A00002AE030E08537E1F1232D297FD22E8F3661
:102A1000A9F1F0F4883551F1F701868197812B9661
:102A20000FB6F894DEBF0FBECDBFDF91CF911F91DF
:102A30000F91FF90EF90DF90CF90BF90AF909F905D
:102A40008F907F906F905F904F903F902F90089560
:102A5000803749F0883701F7D4FE02C06894D2F875
:102A600020E130E00DC06894D4F8F6CF34FE03C006
:102A7000822F8660D82E20E132E002C028E030E0CC
:102A8000F801D7FE0FC060817181828193810C5F54
:102A90001F4FA5010E94D115C82ECA183D2CE894DD
:102AA00037F852CF6081718190E080E00E5F1F4F58
:102AB000F0CF42FC02C0839463CF8394839460CFB1
:102AC000842D867809F45CCFF6CFB70180E290E0E0
:102AD0000E94A11583948214C0F3512C5ECF522C16
:102AE0005818821408F459CFF8CF842D867809F449
:102AF00066CF8BE241FE80E247FC8DE2B70190E0B9
:102B00005CCFB70180E390E00E94A1159A9457CF63
:102B10008FEF9FEF84CFFC01059061507040011052
:102B2000D8F7809590958E0F9F1F0895FC016150F6
:102B3000704001900110D8F7809590958E0F9F1FDF
:102B400008950F931F93CF93DF93182F092FEB0155
:102B50008B8181FD09C01FEF0FEF812F902FDF9137
:102B6000CF911F910F91089582FF14C02E813F8154
:102B70008C819D81281739073CF4E881F981CF01C8
:102B800001969983888310838E819F8101969F830C
:102B90008E83E3CFE885F985812F1995892BA1F3E1
:102BA000DACFFA01AA27283051F1203181F1E894D7
:102BB0006F936E7F6E5F7F4F8F4F9F4FAF4FB1E030
:102BC0003ED0B4E03CD0670F781F891F9A1FA11D2B
:102BD000680F791F8A1F911DA11D6A0F711D811D2C
:102BE000911DA11D20D009F468943F912AE0269FF1
:102BF00011243019305D3193DEF6CF010895462F50
:102C00004770405D4193B3E00FD0C9F7F6CF462F30
:102C10004F70405D4A3318F0495D31FD4052419399
:102C200002D0A9F7EACFB4E0A69597958795779556
:102C30006795BA95C9F700976105710508959B01DD
:102C4000AC010A2E06945795479537952795BA9566
:102C5000C9F7620F731F841F951FA01D0895F89474
:102C6000FFCFFF012C03310336033B031D191B1754
:102C700069036F0374037B03830388038F03970344
:102C8000000000000A037402A1025703D202B0023E
:102C9000C40200000000DE067402A903A8030D0AA6
:102CA00000494E464F005D205B005D200042544EBF
:102CB000005549004C494D006F666600484F4C4432
:102CC0000045787400496E74004D616E004D3A25E0
:102CD00075202573004D504720256320252B6C64FB
:102CE00020463A25752525004C256320462563207E
:102CF00052256320526525632052504D3A256C754C
:102D0000003F00454C5320416C6578412056322EDF
:102D10003120537461676520312053746172746986
:102D20006E672E2E2E00454C5320416C6578412055
:102D300056322E310053746167652031205265612F
:102D4000647900537461676520312072656164792C
:102D500000494E495400535953004C656674005263
:102D60006967687400557000446F776E0053656C36
:102D7000656374004A6F794C004A6F7952004A6F5C
:102D80007955004A6F7944005261706964004C695A
:102D90006D4C004C696D46004C696D52004C696D7C
:102DA0005265004D4F4445005355420064656C74B4
:102DB00061004D50470076616C0052504D005350F9
:102DC000444C0070637400504F54004173796E633B
:102DD0000053796E630054687265616400436861F2
:102DE0006D66657200436F6E65005370686572654D
:102DF0000044697669646572004772696E64000018
:020000040003F7
:10E000000D9489F10D94B2F10D94B2F10D94B2F129
:10E010000D94B2F10D94B2F10D94B2F10D94B2F1F0
:10E020000D94B2F10D94B2F10D94B2F10D94B2F1E0
:10E030000D94B2F10D94B2F10D94B2F10D94B2F1D0
:10E040000D94B2F10D94B2F10D94B2F10D94B2F1C0
:10E050000D94B2F10D94B2F10D94B2F10D94B2F1B0
:10E060000D94B2F10D94B2F10D94B2F10D94B2F1A0
:10E070000D94B2F10D94B2F10D94B2F10D94B2F190
:10E080000D94B2F10D94B2F10D94B2F10D94B2F180
:10E090000D94B2F10D94B2F10D94B2F10D94B2F170
:10E0A0000D94B2F10D94B2F10D94B2F10D94B2F160
:10E0B0000D94B2F10D94B2F10D94B2F10D94B2F150
:10E0C0000D94B2F10D94B2F10D94B2F10D94B2F140
:10E0D0000D94B2F10D94B2F10D94B2F10D94B2F130
:10E0E0000D94B2F141546D656761323536300041AF
:10E0F000726475696E6F206578706C6F72657220DE
:10E1000073746B3530305632206279204D4C530099
:10E11000426F6F746C6F616465723E004875683F52
:10E1200000436F6D70696C6564206F6E203D200048
:10E130004350552054797065202020203D20005FF9
:10E140005F4156525F415243485F5F3D2000415658
:10E1500052204C696243205665723D20004743437C
:10E160002056657273696F6E203D20004350552024
:10E1700049442020202020203D20004C6F7720663D
:10E18000757365202020203D20004869676820665F
:10E190007573652020203D200045787420667573D6
:10E1A00065202020203D20004C6F636B2066757336
:10E1B000652020203D20004D617220203720323024
:10E1C000313300312E362E3800342E332E350056A2
:10E1D00023202020414444522020206F7020636F70
:10E1E00064652020202020696E73747275637469E1
:10E1F0006F6E2061646472202020496E74657272B3
:10E20000757074006E6F20766563746F7200726A49
:10E210006D702020006A6D70200057686174207056
:10E220006F72743A00506F7274206E6F7420737541
:10E2300070706F72746564004D7573742062652030
:10E2400061206C6574746572002000577269747483
:10E25000696E672045450052656164696E672045B7
:10E26000450045452065727220636E743D00504F35
:10E27000525400303D5A65726F2061646472003FF1
:10E280003D43505520737461747300403D454550C3
:10E29000524F4D207465737400423D426C696E6B41
:10E2A000204C454400453D44756D70204545505215
:10E2B0004F4D00463D44756D7020464C415348001B
:10E2C000483D48656C70004C3D4C69737420492F83
:10E2D0004F20506F72747300513D51756974005234
:10E2E0003D44756D702052414D00563D73686F7707
:10E2F00020696E7465727275707420566563746FF0
:10E30000727300593D506F727420626C696E6B00BD
:10E310002A0011241FBECFEFD1E2DEBFCDBF01E046
:10E320000CBF12E0A0E0B2E0EEE1FDEF03E00BBFB6
:10E3300002C007900D92A030B107D9F712E0A0E01B
:10E34000B2E001C01D92AE30B107E1F70F9460F367
:10E350000D948DFE01E20EBF0FEF0DBF11241FBE05
:10E360000D9460F30D9400F020E030E040ED57E0B4
:10E3700005C0FA013197F1F72F5F3F4F2817390792
:10E38000C0F308959C01260F311DC901A0E0B0E043
:10E390002F5F3F4FABBFFC018791882361F08093D3
:10E3A000C6008091C00086FFFCCF8091C0008064D1
:10E3B0008093C000EACF08958DE08093C6008091DD
:10E3C000C00086FFFCCF8091C00080648093C000B5
:10E3D0008AE08093C6008091C00086FFFCCF8091C8
:10E3E000C00080648093C00008950F94C2F10F9420
:10E3F000DCF10895FC019081992359F09093C600B7
:10E400008091C00086FFFCCF8091C0008064809323
:10E41000C0003196992379F70895282F982F929567
:10E420009F70892F805D8A3308F0895F8093C600D2
:10E430008091C00086FFFCCF8091C00080648093F3
:10E44000C000822F8F70982F905D9A3308F0995FEB
:10E450009093C6008091C00086FFFCCF8091C000E1
:10E4600080648093C00008959C01FB01853691056E
:10E470001CF46330710594F0C90164E670E00F94F8
:10E480002EFE605D7F4F6093C6008091C00086FFC6
:10E49000FCCF8091C00080648093C0002B30310598
:10E4A00014F43297B4F0C90164E670E00F942EFEC4
:10E4B0006AE070E00F942EFE605D7F4F6093C600AF
:10E4C0008091C00086FFFCCF8091C0008064809363
:10E4D000C000C9016AE070E00F942EFEC0968093E0
:10E4E000C6008091C00086FFFCCF8091C000806490
:10E4F0008093C00008951F93182F8EE692EE60E07F
:10E500000F94C2F11093C6008091C00086FFFCCF2B
:10E510008091C00080648093C0000F94DCF11F9153
:10E5200008952F923F924F925F926F927F928F92B7
:10E530009F92AF92BF92CF92DF92EF92FF920F9392
:10E540001F93DF93CF93CDB7DEB762970FB6F894E2
:10E55000DEBF0FBECDBF382E622ECA01DB015C01CB
:10E560006D01772420E2222E2E010894411C511CBB
:10E570008BC081E0A81680E0B80681E0C80680E084
:10E58000D80628F0C601AA27BB270F940DF2BB2797
:10E59000AD2D9C2D8B2D0F940DF28A2D0F940DF225
:10E5A0002092C6008091C00086FFFCCF8091C00001
:10E5B00080648093C0009DE29093C6008091C0006B
:10E5C00086FFFCCF8091C00080648093C0002092C1
:10E5D000C6008091C00086FFFCCF8091C00080649F
:10E5E0008093C00019828601750188249924A1E0D6
:10E5F0003A1651F03A1620F0B2E03B1661F409C029
:10E600000BBFF701779007C0C7010F9477FE782EF4
:10E6100002C0F7017080872D0F940DF22092C60082
:10E620008091C00086FFFCCF8091C0008064809301
:10E63000C000872D8052F401EF70F0708F3520F408
:10E64000E40DF51D708204C0E40DF51D8EE280839B
:10E650000894E11CF11C011D111D0894811C911CE2
:10E6600090E18916910409F0C2CF80E190E0A0E02A
:10E67000B0E0A80EB91ECA1EDB1E198AC2010F9493
:10E68000FAF10F94DCF16A94662009F072CF629679
:10E690000FB6F894DEBF0FBECDBFCF91DF911F91B3
:10E6A0000F91FF90EF90DF90CF90BF90AF909F9031
:10E6B0008F907F906F905F904F903F902F90089534
:10E6C0002F923F924F925F926F927F928F929F9282
:10E6D000AF92BF92CF92DF92EF92FF920F931F9370
:10E6E000DF93CF93CDB7DEB7CD53D1400FB6F894BB
:10E6F000DEBF0FBECDBF01E20EBF0FEF0DBF94B75F
:10E70000F894A89514BE80916000886180936000A1
:10E7100010926000789493FF05C0E0910002F091A0
:10E7200001021995279A2F9A8091C00082608093E8
:10E73000C00080E18093C40088E18093C1000000A4
:10E74000EE24FF24870144E0A42EB12CCC24DD2448
:10E7500024C0C5010197F1F70894E11CF11C011DCB
:10E76000111D21E2E2162EE4F20620E0020720E06D
:10E77000120718F031E0C32ED12CC801B70127ECE5
:10E780003BE140E050E00F9441FE611571058105C9
:10E79000910519F485B1805885B98091C00087FD35
:10E7A00003C0C114D104A9F2A6014F5F5F4FC25E3E
:10E7B000DE4F59834883CE51D140C25EDE4F8881FF
:10E7C0009981CE51D140019711F00D9410FEC05D9A
:10E7D000DE4F19821882C053D14060E0C15DDE4F28
:10E7E0001882CF52D14088249924C35DDE4F19820C
:10E7F0001882CD52D140C05EDE4F188219821A8233
:10E800001B82C052D140CE5CDE4F188219821A8220
:10E810001B82C253D140EE24FF2487010BBFF701B6
:10E8200007911691C45CDE4F19830883CC53D14005
:10E830000D940BFEC25EDE4F28813981CE51D1404E
:10E840002130310509F52091C600C25EDE4F1982E4
:10E850001882CE51D14022C02F5F3F4F4F4F5F4FA4
:10E86000213082E138078AE7480780E0580780F0C6
:10E87000C45CDE4FE881F981CC53D140EF5FFF4F9C
:10E8800019F0EE27FF27099420E030E040E050E047
:10E890008091C00087FFE0CF2091C600C35DDE4FAE
:10E8A00048815981CD52D1404F5F5F4FC35DDE4FEC
:10E8B00059834883CD52D140213209F063C64A3092
:10E8C000510508F05FC60894811C911C53E0851621
:10E8D000910409F059C600E010E018C081E280936D
:10E8E000C6008091C00086FFFCCF8091C00080648C
:10E8F0008093C0002F5F3F4F2931310579F70F9486
:10E90000DCF10F5F1F4F0530110519F020E030E0FA
:10E91000E5CF10920A0210920B0210920C02109294
:10E920000D02109206021092070210920802109235
:10E930000902109202021092030210920402109235
:10E9400005028FEE90EE60E00F94F5F180E191EE1C
:10E9500060E00F94C2F18091C00087FFFCCF9091DE
:10E96000C600903608F09F759032B8F09093C600BC
:10E970008091C00086FFFCCF8091C00080648093AE
:10E98000C000A0E2A093C6008091C00086FFFCCF2B
:10E990008091C00080648093C000983409F4D7C18E
:10E9A0009934B8F4923409F459C1933458F490333B
:10E9B00019F1903308F4E3C59F33A1F1903409F0C5
:10E9C000DEC5BDC0953409F470C1963409F0D7C5D1
:10E9D00098C1923509F42BC2933538F49C3409F46C
:10E9E000F5C1913509F0CBC518C2963509F445C279
:10E9F000993509F0C4C567C483E792EE62E00F94CD
:10EA0000F5F110920602109207021092080210927D
:10EA1000090210920A0210920B0210920C0210923C
:10EA20000D0213C18FE792EE62E00F94F5F18FEEC5
:10EA300090EE60E00F94F5F181E291EE60E00F94CA
:10EA4000C2F187EB91EE60E00F94F5F180E391EE77
:10EA500060E00F94C2F184EE90EE60E00F94F5F167
:10EA60008FE391EE60E00F94C2F186E090E061E008
:10EA700070E00F9434F20F94DCF18DE591EE60E0DC
:10EA80000F94C2F189EC91EE60E00F94F5F18EE401
:10EA900091EE60E00F94C2F183EC91EE60E00F9490
:10EAA000F5F18CE691EE60E00F94C2F18EE10F94E7
:10EAB0000DF288E90F940DF281E00F940DF20F949E
:10EAC000DCF18BE791EE60E00F94C2F119E0E0E039
:10EAD000F0E010935700E4918E2F0F940DF20F94F5
:10EAE000DCF18AE891EE60E00F94C2F1E3E0F0E03F
:10EAF00010935700E4918E2F0F940DF20F94DCF1D8
:10EB000089E991EE60E00F94C2F1E2E0F0E0109349
:10EB10005700E4918E2F0F940DF20F94DCF188EAE8
:10EB200091EE60E00F94C2F1E1E0F0E01093570045
:10EB30001491812F0F940DF20F94DCF107CF8BE825
:10EB400092EE62E00F94F5F18BE492EE60E00F94A8
:10EB5000F5F10F94DCF100E010E019C0C8016F2D51
:10EB60000F947FFEFF2031F489E492EE60E00F9471
:10EB7000C2F10BC0F092C6008091C00086FFFCCFAE
:10EB80008091C00080648093C0000F5F1F4FC80158
:10EB900081519F41A0E0B0E0ABBFFC01F790BAE229
:10EBA000FB1621F0E2E000301E07C1F60F94DCF105
:10EBB0000F94DCF187E592EE60E00F94F5F10F948D
:10EBC000DCF1CC24DD2400E010E01EC0C8010F946D
:10EBD00077FEF82E882331F489E492EE60E00F94FA
:10EBE000C2F10BC08093C6008091C00086FFFCCFAD
:10EBF0008091C00080648093C000FE1419F00894D6
:10EC0000C11CD11C0F5F1F4FC80181519F41A0E063
:10EC1000B0E0ABBFFC01E790FAE2EF1621F022E092
:10EC20000030120799F60F94DCF10F94DCF182E6C4
:10EC300092EE60E00F94C2F1C60161E070E00F94C3
:10EC400034F20F94DCF10F94DCF110920202109276
:10EC50000302109204021092050278CE89E992EE26
:10EC600062E00F94F5F1279A2F9A16C02F9880E052
:10EC700090E0E0EDF7E03197F1F7019684369105E9
:10EC8000C1F72F9A80E090E0E0EDF7E03197F1F7DF
:10EC9000019684369105C1F78091C00087FFE6CFC9
:10ECA0008091C00087FFFCCF64C485EA92EE62E0E9
:10ECB0000F94F5F140910202509103026091040219
:10ECC0007091050281E020E10F9491F2809102029F
:10ECD00090910302A0910402B091050280509F4FD1
:10ECE000AF4FBF4F8093020290930302A0930402A0
:10ECF000B093050280509041A040B04008F426CE69
:10ED0000A4CF83EB92EE62E00F94F5F140910602FE
:10ED100050910702609108027091090280E020E1A1
:10ED20000F9491F28091060290910702A09108023F
:10ED3000B091090280509F4FAF4FBF4F80930602A2
:10ED400090930702A0930802B0930902FFCD80ECD4
:10ED500092EE62E00F94F5F183E792EE60E00F949B
:10ED6000F5F18FE792EE60E00F94F5F18BE892EE0B
:10ED700060E00F94F5F189E992EE60E00F94F5F10F
:10ED800085EA92EE60E00F94F5F183EB92EE60E09D
:10ED90000F94F5F180EC92EE60E00F94F5F187ECC2
:10EDA00092EE60E00F94F5F188ED92EE60E00F9442
:10EDB000F5F18FED92EE60E00F94F5F18AEE92EEB0
:10EDC00060E00F94F5F183E093EEBDCD87EC92EE19
:10EDD00062E00F94F5F181E40F947BF282E40F94EA
:10EDE0007BF283E40F947BF284E40F947BF285E45E
:10EDF0000F947BF286E40F947BF287E40F947BF20E
:10EE000088E40F947BF28AE40F947BF28BE40F94F6
:10EE10007BF28CE40F947BF299CD88ED92EE62E068
:10EE20000F94F5F1772473948824992409C48FED05
:10EE300092EE62E00F94F5F140910A0250910B02BC
:10EE400060910C0270910D0282E020E10F9491F22A
:10EE500080910A0290910B02A0910C02B0910D02D8
:10EE600080509F4FAF4FBF4F80930A0290930B0289
:10EE7000A0930C02B0930D0269CD8AEE92EE62E08F
:10EE80000F94F5F184EE90EE60E00F94F5F18FECC5
:10EE900091EE60E00F94F5F1662477244301CC5D98
:10EEA000DE4F19821882C452D140D401C301B695F5
:10EEB000A79597958795CA5DDE4F88839983AA8326
:10EEC000BB83C652D140CC5DDE4FA881B981C4520C
:10EED000D1401196CC5DDE4FB983A883C452D14096
:10EEE000CD0162E070E00F9434F2B0E2B093C6005E
:10EEF0008091C00086FFFCCF8091C0008064809329
:10EF0000C000EDE2E093C6008091C00086FFFCCF18
:10EF10008091C00080648093C000F0E2F093C6004E
:10EF20008091C00086FFFCCF8091C00080648093F8
:10EF3000C000CA5DDE4FE880F9800A811B81C6529D
:10EF4000D140BB27A12F902F8F2D0F940DF2CA5DBA
:10EF5000DE4F8881C652D1400F940DF2B0E2FB2EF5
:10EF6000F092C6008091C00086FFFCCF8091C00067
:10EF700080648093C0000DE30093C6008091C000C0
:10EF800086FFFCCF8091C00080648093C00010E2B7
:10EF90001093C6008091C00086FFFCCF8091C00016
:10EFA00080648093C0008BBEF3012791C65DDE4F65
:10EFB0002883CA52D140A22EBB24CC24DD2408943D
:10EFC000611C711C811C911C8BBEF3018791282E42
:10EFD0003324442455240894611C711C811C911C09
:10EFE0008BBEF3013791C55DDE4F3883CB52D140E4
:10EFF0000894611C711C811C911C8BBEF30147910C
:10F00000C45DDE4F4883CC52D140ADEFEA2EAFEF66
:10F01000FA2EAFEF0A2FAFEF1A2F6E0C7F1C801E57
:10F02000911E142D032DF22CEE24EA0CFB1C0C1D5A
:10F030001D1D0F940DF220E22093C6008091C000A8
:10F0400086FFFCCF8091C00080648093C000C65DC5
:10F05000DE4F8881CA52D1400F940DF230E23093D6
:10F06000C6008091C00086FFFCCF8091C000806404
:10F070008093C000C45DDE4F8881CC52D1400F9494
:10F080000DF240E24093C6008091C00086FFFCCFA5
:10F090008091C00080648093C000C55DDE4F888190
:10F0A000CB52D1400F940DF250E25093C6008091A4
:10F0B000C00086FFFCCF8091C00080648093C000B8
:10F0C0008FEFE8168FEFF80680E0080780E018075A
:10F0D00031F484E092EE60E00F94C2F1DFC0D80119
:10F0E000C7018070907CA070B0708050904CA040A0
:10F0F000B040D1F52FEF3FE340E050E0E222F322B1
:10F1000004231523CA5DDE4FA880B980CA80DB8046
:10F11000C652D140AE0CBF1CC01ED11EAA0CBB1CD7
:10F12000CC1CDD1C8EE092EE60E00F94C2F1BB2798
:10F13000A12F902F8F2D0F940DF28E2D0F940DF285
:10F1400030E23093C6008091C00086FFFCCF8091F2
:10F15000C00080648093C0004EE34093C60080915D
:10F16000C00086FFFCCF87C08EE09EEFA0E0B0E03D
:10F17000E822F9220A231B239CE0E91694E9F90608
:10F1800090E0090790E0190709F088C0C45DDE4FE0
:10F19000A881CC52D140EA2EFF2400E010E0102FCD
:10F1A0000F2DFE2CEE24C55DDE4FB881CB52D14031
:10F1B000EB0EF11C011D111DD601C501817090706F
:10F1C000A070B070DC0199278827E80EF91E0A1F8D
:10F1D0001B1F20EF30E040E050E0A222B322C42207
:10F1E000D52241E1AA0CBB1CCC1CDD1C4A95D1F7F1
:10F1F000EA0CFB1C0C1D1D1D81E090E0A0E0B0E0BE
:10F20000282239224A225B2235E1220C331C441C7D
:10F21000551C3A95D1F7E20CF31C041D151D57013E
:10F220006801AA0CBB1CCC1CDD1C85E192EE60E0E1
:10F230000F94C2F1C801AA27BB270F940DF2BB2778
:10F24000A12F902F8F2D0F940DF28E2D0F940DF274
:10F2500090E29093C6008091C00086FFFCCF809121
:10F26000C00080648093C000AEE3A093C60080918C
:10F27000C00086FFFCCF8091C00080648093C000F6
:10F28000C601AA27BB270F940DF2BB27AD2D9C2DDD
:10F290008B2D0F940DF28A2D0F940DF20F94DCF14B
:10F2A000CC5DDE4FE881F981C452D140F99709F471
:10F2B0004DCBF4E0EF2EF12C012D112D6E0C7F1CA7
:10F2C000801E911EF2CD83E093EE62E00F94F5F183
:10F2D0008AE192EE60E00F94C2F18091C00087FF56
:10F2E000FCCF1091C6001F751093C6008091C0001E
:10F2F00086FFFCCF8091C00080648093C0000F9493
:10F30000DCF1812F81548A3108F036C1163409F4BA
:10F3100095C0173490F4133409F44EC0143430F40B
:10F320001134F1F0123409F01DC130C0143409F465
:10F3300059C0153409F016C16BC01A3409F4C4C0A1
:10F340001B3438F4173409F48FC0183409F00AC19B
:10F35000A1C01B3409F4D2C01C3409F003C1E8C0B9
:10F360008FEF81B90DC082B1809582B980E090E0C5
:10F37000E0EDF7E03197F1F70196883C9105C1F790
:10F380008091C00087FFEFCF12B8EFC08FEF84B934
:10F390000DC085B1809585B980E090E0E0EDF7E0A3
:10F3A0003197F1F70196883C9105C1F78091C00033
:10F3B00087FFEFCF15B8D9C08FEF87B90DC088B1DF
:10F3C000809588B980E090E0E0EDF7E03197F1F7C3
:10F3D0000196883C9105C1F78091C00087FFEFCF6F
:10F3E00018B8C3C08FEF8AB90DC08BB180958BB9A7
:10F3F00080E090E0E0EDF7E03197F1F70196883C8E
:10F400009105C1F78091C00087FFEFCF1BB8ADC059
:10F410008FEF8DB90DC08EB180958EB980E090E0F0
:10F42000E0EDF7E03197F1F70196883C9105C1F7DF
:10F430008091C00087FFEFCF1EB897C08FEF80BBD1
:10F440000DC081B3809581BB80E090E0E0EDF7E0F6
:10F450003197F1F70196883C9105C1F78091C00082
:10F4600087FFEFCF11BA81C08FEF83BB0DC084B38C
:10F47000809584BB80E090E0E0EDF7E03197F1F714
:10F480000196883C9105C1F78091C00087FFEFCFBE
:10F4900014BA6BC08FEF809301010FC080910201FD
:10F4A00080958093020180E090E0E0EDF7E03197F5
:10F4B000F1F70196883C9105C1F78091C00087FF64
:10F4C000EDCF1092020151C08FEF809304010FC065
:10F4D0008091050180958093050180E090E0E0ED4A
:10F4E000F7E03197F1F70196883C9105C1F78091DB
:10F4F000C00087FFEDCF1092050137C08FEF8093DA
:10F5000007010FC08091080180958093080180E079
:10F5100090E0E0EDF7E03197F1F70196883C910536
:10F52000C1F78091C00087FFEDCF109208011DC088
:10F530008FEF80930A010FC080910B01809580931B
:10F540000B0180E090E0E0EDF7E03197F1F70196F4
:10F55000883C9105C1F78091C00087FFEDCF1092E4
:10F560000B0103C085E292EEEEC98091C00087FFD7
:10F57000FCCF8091C600EAC988E392EEE4C98CE131
:10F5800091EEE1C988249924933011F1943028F444
:10F59000913089F09230B8F408C0953061F195301F
:10F5A000F0F0963009F048C043C02B3109F042C951
:10F5B00091E06BE13FC96227C15DDE4F2883CF52E6
:10F5C000D14092E037C9B22FA0E0622793E032C960
:10F5D000822F90E0A82BB92B622794E02BC92E3004
:10F5E00009F039C3622795E0C05DDE4F19821882A9
:10F5F000C053D1401FC9E1E0F0E0EC0FFD1FC05D3A
:10F60000DE4F08811981C053D140E00FF11F2083E4
:10F610000F5F1F4FC05DDE4F19830883C053D14079
:10F6200062270A171B0709F005C9D80196E002C92D
:10F63000261709F010C303C0973009F0FBC87724E0
:10F640009981933109F412C19431C8F4963009F4C8
:10F65000D8C0973050F4923009F406C1933009F4C1
:10F660006DC0913009F059C253C0913109F477C08F
:10F67000923108F0BBC0903109F04FC2F5C098310B
:10F6800009F487C0993150F4953109F4EFC09531F0
:10F6900008F4C6C1963109F040C2C2C19A3109F4DA
:10F6A0006CC09A3108F491C09B3109F45BC09D3164
:10F6B00009F033C29D81903359F48F81882311F46E
:10F6C0009EE11CC0813011F091E018C098E916C08D
:10F6D000892F807591F0903539F4E0E0F0E089E011
:10F6E0008093570094910AC0983539F4E3E0F0E034
:10F6F00089E080935700949101C090E01A821B82A8
:10F700008D818C831D829E831F8227E030E009C299
:10F710001A8288E08B8381E48C8386E58D8382E581
:10F720008E8389E48F8383E5888780E589878FE5E9
:10F730008A8782E38B872BE030E0F3C18A818139AD
:10F7400041F0823941F0803911F48FE005C080E04A
:10F7500003C082E001C08AE01A828B8344C0772410
:10F76000739482C08D81882311F48EE12CC0813086
:10F7700011F081E028C088E926C01A82E1E0F0E0BB
:10F7800089E08093570084918B831C8224E030E0D1
:10F79000C8C18B81803589F48C81883039F4E2E0EE
:10F7A000F0E089E08093570084910DC0E0E0F0E044
:10F7B00089E080935700849106C0E3E0F0E089E09F
:10F7C0008093570084911A82DFCF8D81836C99E0FA
:10F7D000E1E0F0E0082E90935700E89507B600FCB2
:10F7E000FDCF1A821B8223E030E09BC180EC8A832C
:10F7F000CE5CDE4F188219821A821B82C253D1401E
:10F800008EC18A8190E0A0E0B0E0582F44273327D2
:10F8100022278B8190E0A0E0B0E0DC0199278827C7
:10F82000282B392B4A2B5B2B8D8190E0A0E0B0E098
:10F83000282B392B4A2B5B2B8C8190E0A0E0B0E089
:10F84000BA2FA92F982F8827282B392B4A2B5B2BCF
:10F85000220F331F441F551FC05EDE4F288339839C
:10F860004A835B83C052D1401A8259C13A81C95C34
:10F87000DE4F3883C753D140CA5CDE4F1882C6536F
:10F88000D1408B81C82EDD24CA5CDE4F488159816E
:10F89000C653D140C42AD52A933109F082C0CE5C28
:10F8A000DE4F88819981AA81BB81C253D1408050AB
:10F8B000904CA340B04030F583E0CE5CDE4FE88052
:10F8C000F9800A811B81C253D140F70100935B008C
:10F8D00080935700E89507B600FCFDCFCE5CDE4F65
:10F8E000088119812A813B81C253D14000501F4FAA
:10F8F0002F4F3F4FCE5CDE4F088319832A833B8313
:10F90000C253D140C05EDE4F488159816A817B81FC
:10F91000C052D140DE011B9631E08C9111962C91A2
:10F9200011971296C75CDE4F2883C953D140C85C3B
:10F93000DE4F1882C853D14090E0C85CDE4FE881AA
:10F94000F981C853D1408E2B9F2B0C01FA01609393
:10F950005B0030935700E89511244E5F5F4F6F4F67
:10F960007F4F0EEFE02E0FEFF02ECE0CDF1CC114F8
:10F97000D10499F685E0C05EDE4F088119812A81A5
:10F980003B81C052D140F80120935B008093570027
:10F99000E89507B600FCFDCF81E180935700E8951C
:10F9A00035C0C05EDE4F88819981AA81BB81C0527B
:10F9B000D140B695A795979587957C018601ABE0D8
:10F9C000AA2EB12CAC0EBD1E0BC0D5016D915D01F0
:10F9D000C7010F947FFE0894E11CF11C01501040F8
:10F9E0000115110591F7A60160E070E0440F551F65
:10F9F000661F771FC05EDE4FE880F9800A811B8199
:10FA0000C052D1404E0D5F1D601F711F1A82C05E33
:10FA1000DE4F488359836A837B83C052D1407FC0C5
:10FA2000FA80C55CDE4FF882CB53D140C65CDE4F16
:10FA30001882CA53D1408B81C82EDD24C65CDE4FAC
:10FA400008811981CA53D140C02AD12A1A828981DA
:10FA5000BE016D5F7F4F843121F59601C05EDE4FA0
:10FA6000E880F9800A811B81C052D1400BBFF701A9
:10FA700087919691DB018C9311969C936E5F7F4FDB
:10FA8000D801C7010296A11DB11DC05EDE4F88835B
:10FA90009983AA83BB83C052D14022503040F1F6F3
:10FAA00036C0C05EDE4F288139814A815B81C052F9
:10FAB000D1400894C108D108760100E010E0089414
:10FAC000C11CD11C0894E11CF11C011D111DE20E8A
:10FAD000F31E041F151F21BDBB27A52F942F832FB5
:10FAE00082BD2F5F3F4F4F4F5F4FF89A80B5DB01CC
:10FAF0008D93BD012E153F054007510761F7C05E8C
:10FB0000DE4F288339834A835B83C052D1409601FC
:10FB10002D5F3F4FFB01108204C080EC8A8322E0FE
:10FB200030E08BE18093C6008091C00086FFFCCF5F
:10FB30008091C00080648093C000C15DDE4FF88179
:10FB4000CF52D140F093C6008091C00086FFFCCF19
:10FB50008091C00080648093C000432F3093C60022
:10FB60008091C00086FFFCCF8091C00080648093AC
:10FB7000C000922F2093C6008091C00086FFFCCF6A
:10FB80008091C00080648093C0008EE08093C600A6
:10FB90008091C00086FFFCCF8091C000806480937C
:10FBA000C00065E1C15DDE4FE880CF52D1406E25D7
:10FBB00069276427FE01319610C090819093C6009A
:10FBC0008091C00086FFFCCF31968091C000806498
:10FBD0008093C0006927215030402115310569F715
:10FBE0006093C6008091C00086FFFCCF8091C0006A
:10FBF00080648093C00085B1805885B9772081F4F6
:10FC0000C15DDE4F0881CF52D1400F5FC15DDE4F35
:10FC10000883CF52D14090E0A0E0B0E00D941AF4F8
:10FC200027982F9880E090E020ED37E0F901319798
:10FC3000F1F7019684369105C9F700008091C00064
:10FC40008D7F8093C00081E180935700E895EE2777
:10FC5000FF270994FFCF90E00D941AF497FB092E2B
:10FC600007260AD077FD04D02ED006D000201AF443
:10FC7000709561957F4F0895F6F7909581959F4F08
:10FC80000895A1E21A2EAA1BBB1BFD010DC0AA1FDD
:10FC9000BB1FEE1FFF1FA217B307E407F50720F0F5
:10FCA000A21BB30BE40BF50B661F771F881F991F70
:10FCB0001A9469F760957095809590959B01AC01B9
:10FCC000BD01CF010895AA1BBB1B51E107C0AA1FAC
:10FCD000BB1FA617B70710F0A61BB70B881F991FED
:10FCE0005A95A9F780959095BC01CD010895F99991
:10FCF000FECF92BD81BDF89A992780B50895262F31
:10FD0000F999FECF1FBA92BD81BD20BD0FB6F89400
:0EFD1000FA9AF99A0FBE01960895F894FFCF63
:00000001FF
