:100000000C943B010C946C010C946C010C946C01ED
:100010000C94C70B0C94FE0B0C946C0B0C949F0B64
:100020000C946C010C946C010C946C010C94620B9C
:100030000C946C010C946C010C946C010C944E0AA1
:100040000C946C010C94830A0C946C010C946C015C
:100050000C946C010C946C010C946C010C94490987
:100060000C946C010C94BD090C9493090C946C01D4
:100070000C946C010C946C010C946C010C946C014C
:100080000C94430A0C946C010C946C010C946C015C
:100090000C946C010C946C010C946C010C946C012C
:1000A0000C946C010C946C010C941B0A0C946C0164
:1000B0000C946C010C946C010C946C010C94F3097D
:1000C0000C946C010C946C010C946C010C946C01FC
:1000D0000C946C010C946C010C946C010C946C01EC
:1000E0000C946C010C9474020C940A030C94B002EE
:1000F0000C949A010C94D2020C9457030C94A10214
:100100000C94A9030C949E010C94A7010C94B501C6
:100110000C94B9010C94BF010C94A1010C94C4027D
:100120000C94CD010C94AB010C94DE060C94CC0124
:100130000C9496010C94A8030C943B0C0C94C701EE
:100140000C94C3010C94D1010C948C010C94920179
:100150000C94B10100002100240027002A002D008A
:100160003000330001010000040107010A01000012
:100170002200250028002B002E003100340002014F
:100180000000050108010B010000200023002600EB
:1001900029002C002F00320000010000030106019D
:1001A00009010505050507050808080802020202FD
:1001B0000A0A080804040404010101010101010103
:1001C0000303030303030303040707070C0C0C0CCE
:1001D0000C0C0C0C020202020606060606060606B7
:1001E0000B0B0B0B0B0B0B0B010210202008081044
:1001F0002040102040800201020108040201010297
:10020000040810204080804020100804020180046F
:1002100002018040201008040201080402010102CA
:1002200004081020408001020408102040800000D3
:100230000A0B02090C0D0E08070304010000000060
:1002400000000000000000000000000000000000AE
:10025000000000000000000000001211100000006B
:10026000000000000000000000000000000000008E
:10027000000000003B0C11241FBECFEFD1E2DEBF17
:10028000CDBF00E00CBF13E0A0E0B2E0E2E6FCE28C
:1002900000E00BBF02C007900D92AE39B107D9F74D
:1002A00026E0AEE9B3E001C01D92A831B207E1F744
:1002B00011E0CBE3D1E000E006C021970109802FD7
:1002C000FE010E941413CA33D10780E00807A9F782
:1002D0000E94590D0C942F160C940000815082310D
:1002E00008F05AC0E82FF0E08827E658FE4F8F4FFD
:1002F0000C9414139A019E018C0192019601CC0179
:10030000A101A701AB01B101B501B901BF01C30151
:10031000CC01C701CD01D101809180008F778093FE
:1003200080000895809180008F7DF9CF80918000BA
:10033000877FF5CF84B58F7784BD089584B58F7D91
:10034000FBCF8091B0008F778093B00008958091AB
:10035000B0008F7DF9CF809190008F7780939000CF
:100360000895809190008F7DF9CF80919000877FD4
:10037000F5CF8091A0008F778093A00008958091A1
:10038000A0008F7DF9CF8091A000877FF5CF80916D
:1003900020018F77809320010895809120018F7D27
:1003A000F9CF80912001877FF5CFCF93DF93282F5E
:1003B00030E0F901E25DFD4F8491F901E851FE4F13
:1003C000D491F901EE55FE4FC491CC23A1F08111D7
:1003D0000E946E01EC2FF0E0EE0FFF1FE857FE4F7A
:1003E000A591B491EC91ED2381E090E009F480E0D7
:1003F000DF91CF91089580E090E0FACF1F93CF93E3
:10040000DF93282F30E0F901E25DFD4F8491F9017F
:10041000E851FE4FD491F901EE55FE4FC491CC2323
:10042000A9F0162F81110E946E01EC2FF0E0EE0F63
:10043000FF1FE259FE4FA591B4918FB7F894EC914C
:10044000111108C0D095DE23DC938FBFDF91CF91CF
:100450001F910895DE2BF8CFCF93DF9390E0FC013E
:10046000E851FE4F24918E559E4FFC0184918823C4
:10047000C9F090E0880F991FFC01EC5AFE4FA5913E
:10048000B491FC01E259FE4FC591D49161110DC0A8
:100490009FB7F8948C91209582238C938881282390
:1004A00028839FBFDF91CF910895623051F49FB7A9
:1004B000F8943C91822F809583238C93E8812E2B96
:1004C000EFCF8FB7F894EC912E2B2C938FBFEACF00
:1004D0002FB7F89460918D0470918E0480918F04F1
:1004E000909190042FBF0895AF92BF92CF92DF9268
:1004F000EF92FF920F931F93CF93DF936C017B01D9
:100500008B01040F151FEB015E01AE18BF08C01769
:10051000D10759F06991D601ED91FC910190F081DC
:10052000E02DC6011995892B79F7C501DF91CF918F
:100530001F910F91FF90EF90DF90CF90BF90AF9001
:100540000895FC01538D448D252F30E0842F90E0D9
:10055000821B930B541710F0CF96089501970895BE
:10056000FC01918D828D981761F0A28DAE0FBF2F87
:10057000B11D5D968C91928D9F5F9F73928F90E0DD
:1005800008958FEF9FEF0895FC01918D828D98174C
:1005900031F0828DE80FF11D858D90E008958FEF89
:1005A0009FEF0895FC01918D228D892F90E0805C52
:1005B0009F4F821B91098F739927089581E994E0D9
:1005C0000E94D20221E0892B09F420E0822F0895B5
:1005D000FC01A48DA80FB92FB11DA35ABF4F2C91B8
:1005E000848D90E001968F739927848FA689B789AF
:1005F0002C93A089B1898C91837080648C93938DA6
:10060000848D981306C00288F389E02D80818F7D48
:1006100080830895EF92FF920F931F93CF93DF9300
:10062000EC0181E0888F9B8D8C8D98131AC0E8892E
:10063000F989808185FF15C09FB7F894EE89FF89FD
:100640006083E889F98980818370806480839FBF9B
:1006500081E090E0DF91CF911F910F91FF90EF909B
:100660000895F62E0B8D10E00F5F1F4F0F731127AB
:10067000E02E8C8D8E110CC00FB607FCFACFE889E6
:10068000F989808185FFF5CFCE010E94E802F1CF84
:10069000EB8DEC0FFD2FF11DE35AFF4FF0829FB75A
:1006A000F8940B8FEA89FB8980818062CFCFCF934A
:1006B000DF93EC01888D8823B9F0AA89BB89E8898A
:1006C000F9898C9185FD03C0808186FD0DC00FB630
:1006D00007FCF7CF8C9185FFF2CF808185FFEDCFAE
:1006E000CE010E94E802E9CFDF91CF91089580E02A
:1006F00090E0892B29F00E94DE0281110E94000007
:1007000080E090E0892B49F080E090E0892B29F08F
:100710000E94000081110E94000080E090E0892B7F
:1007200049F080E090E0892B29F00E9400008111BF
:100730000E94000080E090E0892B49F080E090E08A
:10074000892B29F00E94000081110C94000008956B
:10075000089590E080E0089584E40E94D501892BFB
:1007600051F085E40E94D501892B39F083E40E9481
:10077000D501892B21F080E0089581E0089582E081
:100780000895CF93C0E08EE18C0F0E94D501CF5F1A
:10079000892B19F0C830B9F7C1E08C2FCF9108959B
:1007A00080917B00877F80937B0087E480937C002F
:1007B00080917A00806480937A0080917A0086FD2F
:1007C000FCCF809178009091790020917E04309147
:1007D0007F04AC01421B530B141615065CF42091E8
:1007E0007E0430917F04AC01421B530B463051050F
:1007F00054F4089520917E0430917F04281B390B16
:10080000263031053CF090937F0480937E0481E094
:100810008093DF030895861323C0409138045091DC
:10082000390460913A0470913B044F5F5F4F6F4F02
:100830007F4F409338045093390460933A04709387
:100840003B0441E050E060E070E04093510450937D
:100850005204609353047093540480935004089599
:10086000409138045091390460913A0470913B04EE
:10087000415051096109710940933804509339047A
:1008800060933A0470933B044FEF5FEFBA01DDCF02
:10089000CF93DF93FC012481358133FF10C0EC013D
:1008A0000E9468022A813B81621B730B2E85F0E156
:1008B0002F9F9001112481E06217730708F480E0F4
:1008C000DF91CF9108951F93CF93DF93EC018C813B
:1008D0009D8180FD19829C012F713327232B19F0F4
:1008E000807E9D838C838C819D8194FB112710F9E0
:1008F000162796FF04C09F7B9D838C8311E08C811B
:100900009D8191FD10C011110BC0CE010E944804C1
:10091000182F8111C0C0812FDF91CF911F910895B1
:1009200092609D838C830E946802AB018A819B81C7
:10093000FA01E81BF90B8C819D81112309F45DC03C
:1009400085FD3EC02A8592FD06C0222321F09460D9
:100950009D838C830BC02E171F0619F010F02111F8
:1009600007C082629D838C83598748875B834A8353
:100970008C819D818F71992711E0892B31F28E81B5
:100980009F81892B41F28C819D81917084369105E4
:1009900009F48AC008F09AC08232910509F484C033
:1009A00008F07BC08130910509F47EC0409709F4BE
:1009B0007BC0CE010E944804882309F4ACCF74C0E8
:1009C00097FDD6CF86FD0AC02C85A0E12A9F900115
:1009D0001124E217F30760F28464BACF87FF0BC0DB
:1009E0002D85A0E12A9F900111248868E217F30762
:1009F00008F0AECFBDCF2C85F4CF85FF12C02A857D
:100A00002E171F0609F080F586FD03C029812F5F90
:100A1000298397FD19828F7D806191609D838C83EE
:100A200023C090FF0DC097FD03C080619D838C8320
:100A30008C819D819E779D838C835B834A8314C0C8
:100A400029812223F1F09C01207C3327232BA1F460
:100A50002B8540E1249F90011124E217F30760F4F5
:100A600088859985892B51F48C819D8192FF80CF57
:100A70009B7F9D838C837CCF8160D0CF1986188625
:100A8000F3CF91FFF1CF8F739D7F98609D838C830F
:100A900019861886D2CF10E072CF8134910521F0EB
:100AA0008035910509F085CFEE81FF81309709F4FB
:100AB00032CF1995CE010E944804882309F42BCF28
:100AC0008C819D81977F9D838C8325CF883E910566
:100AD00059F338F4813C910539F3803D910521F3B8
:100AE00068CF8035A1E09A07F9F2803D21E09207B6
:100AF000D9F28031914009F05CCFD6CF0E94D50168
:100B000021E0892B09F420E0822F0895CF93C82F8C
:100B100061E00E942C0261E08C2FCF910C94FE01C9
:100B2000CF93C82F61E00E942C0260E08C2FCF9100
:100B30000C94FE0162E00C942C02CF93DF93EC0145
:100B400060E08E810E94FE0161E08E810E94FE01C4
:100B500060E08E810E94FE018BE891E00197F1F741
:100B6000DF91CF910895CF92DF92EF92FF920F9392
:100B70001F93CF93DF936C017C0187E0E80EF11C9B
:100B8000D0E0C0E0062F10E0B8010C2E02C0759531
:100B900067950A94E2F76170F70181917F010E94E5
:100BA000FE012196C430D10579F7C601DF91CF91BE
:100BB0001F910F91FF90EF90DF90CF900C949D05C7
:100BC000CF92DF92EF92FF920F931F93CF93DF9319
:100BD000EC01F62E642F8C810E94FE018D818F3FE7
:100BE00019F060E00E94FE010F2D10E08F8584FF58
:100BF00025C06E0187E0C80ED11CF12CE12CB80194
:100C00000E2C02C0759567950A94E2F76170F601A3
:100C100081916F010E94FE01FFEFEF1AFF0A88E049
:100C2000E816F10461F7CE01DF91CF911F910F918A
:100C3000FF90EF90DF90CF900C949D05B80184E079
:100C4000759567958A95E1F7CE010E94B3056F2DE2
:100C5000CE01DF91CF911F910F91FF90EF90DF9028
:100C6000CF900C94B30540E0682F8EE295E00C9491
:100C7000E005CF93DF93613029F090913D059860B6
:100C800090933D05609341051092420590E4909346
:100C9000430580934405805C8093450561E0809125
:100CA00032050E942C02809133058F3F19F061E0DC
:100CB0000E942C0261E0809134050E942C02CEE259
:100CC000D5E09E012E52354080913D0584FD0BC03C
:100CD00084E090E021962817390744F461E08E8182
:100CE0000E942C02EECF88E090E0F4CF8BE39DE0F1
:100CF0000197F1F760E0809132050E94FE0160E00B
:100D0000809134050E94FE01809133058F3F19F0D8
:100D100060E00E94FE0180913D0584FD39C063E0E2
:100D20008EE295E00E94B305CBE4D6E4CE010197B4
:100D3000F1F763E08EE295E00E94B3052197F1F7A9
:100D400063E08EE295E00E94B30583E592E00197AF
:100D5000F1F762E08EE295E00E94B30580913D05D7
:100D600080620E94330684E080933E058CE00E94FE
:100D7000330681E00E9433068BE39FE10197F1F790
:100D800082E080933F0586E0DF91CF910C9433069B
:100D900080620E9433068BE496E40197F1F780911C
:100DA0003D0580620E94330683E592E00197F1F7EA
:100DB00080913D0580620E943306D0CF41E00E94C1
:100DC000E00581E090E00895FB0101900020E9F743
:100DD0003197AF01461B570BDC01ED91FC9102806E
:100DE000F381E02D1994CF93DF93D0E0C0E000971A
:100DF00031F0BC0181E994E00E94E406EC016CE36F
:100E000072E081E994E00E94E4068C0F9D1FDF915F
:100E1000CF9108956115710511F00C94E40690E0EE
:100E200080E00895EF92FF920F931F93CF93DF938B
:100E3000209101022223A1F1EA018B017C0166E4E9
:100E400072E081E994E00E940A076FE372E081E9B1
:100E500094E00E940A0764E472E081E994E00E9451
:100E60000A07B70181E994E00E940A0764E472E08E
:100E700081E994E00E940A07B80181E994E00E94A8
:100E80000A0768E472E081E994E00E940A07CE0153
:100E9000DF91CF911F910F91FF90EF900C94F3068B
:100EA000DF91CF911F910F91FF90EF900895EF92F6
:100EB000FF920F931F93CF93DF938C017B01C42F7D
:100EC000FB018481958180759170409729F5A80177
:100ED0006BE472E08FE492E00E941207D0E0FE0122
:100EE000EC5CFB4F908181E0911180E08083FE01FA
:100EF000E65FFD4F8081911120C060E00E94FE01FD
:100F0000CC0FDD1FCE5FDD4F4881598162E572E075
:100F10008FE492E00E941207F701848182FF13C0E0
:100F2000A8016AE572E08FE492E0DF91CF911F9112
:100F30000F91FF90EF900C94120761E00E94FE0168
:100F400046E552E0E3CFDF91CF911F910F91FF90E3
:100F5000EF9008950F931F93CF93DF93EC018B01D4
:100F6000FB018481958180759170409739F4AE01C1
:100F70006BE472E08FE492E00E941207F801848132
:100F800082FF0BC0AE016AE572E08FE492E0DF9170
:100F9000CF911F910F910C941207DF91CF911F9168
:100FA0000F9108954F925F926F927F92AF92BF928E
:100FB000CF92DF92EF92FF920F931F93CF93DF9325
:100FC000CDB7DEB7A1970FB6F894DEBF0FBECDBF89
:100FD0005C016B017A012801390166E472E081E964
:100FE00094E00E940A076FE372E081E994E00E94B6
:100FF0000A0764E472E081E994E00E940A07B501FF
:1010000081E994E00E940A0764E472E081E994E0D7
:101010000E940A07B60181E994E00E940A0768E489
:1010200072E081E994E00E940A07B70181E994E047
:101030000E940A0719A28E010F5D1F4F8AE0C82E79
:10104000D12CE12CF12CC301B201A70196010E9421
:10105000F21229013A01605DF80162938F01411497
:1010600051046104710479F7309729F0BF0181E9D7
:1010700094E00E94E4066CE372E081E994E00E944F
:10108000E406A1960FB6F894DEBF0FBECDBFDF9188
:10109000CF911F910F91FF90EF90DF90CF90BF9075
:1010A000AF907F906F905F904F9008950F931F9334
:1010B000CF9300EE13E0C0E0E0914105CE17B0F011
:1010C000E150F0E0E25DFA4F848980680E943306C7
:1010D000B8018EE295E00E940A07CF5F0B5E1F4FBA
:1010E000C43051F7CF911F910F910895EC2FE9CFA4
:1010F000CF93DF93D82FC5E18C9FC001112444E129
:1011000050E080529C4F0E943D13CD9FF00111246E
:10111000E052FC4F148ADF91CF910895CF92DF9275
:10112000EF92FF9220914B0480914C04F0904D047B
:10113000813009F4A6C0823009F4A6C087E692E0A7
:101140009F938F931F922F938BE692E09F938F93A1
:101150001F9285E18F938EE993E09F938F930E9476
:101160004C136EE973E081E00E9478088DB79EB75A
:101170000A960FB6F8949EBF0FBE8DBF4AE5F110D8
:1011800001C048E520917E0430917F04C09038046E
:10119000D0903904E0903A04F0903B04A4E6B0E02B
:1011A0000E941C132AE096958795779567952A9556
:1011B000D1F71F926F93FF92EF92DF92CF921F921F
:1011C0004F9383E792E09F938F931F9285E18F93D4
:1011D0008EE993E09F938F930E944C136EE973E026
:1011E00082E00E947808409160045091610460910F
:1011F0006204709163048DB79EB70E960FB6F89493
:101200009EBF0FBE8DBF8091370430E281113AE25C
:101210008091360420E281112AE28091350490E227
:1012200081119AE280913404811131C080E27F9370
:101230006F935F934F931F923F931F922F931F9231
:101240009F931F928F9386E892E09F938F931F92B4
:1012500085E18F938EE993E09F938F930E944C13C7
:101260008DB79EB742960FB6F8949EBF0FBE8DBF46
:101270006EE973E083E0FF90EF90DF90CF900C94E5
:1012800078088FE592E05CCF83E692E059CF8AE25E
:10129000CECF1F920F920FB60F9211242F933F9330
:1012A0008F939F93AF93BF9380918D0490918E0401
:1012B000A0918F04B091900430918C0423E0230F0F
:1012C0002D3758F50196A11DB11D20938C048093F4
:1012D0008D0490938E04A0938F04B093900480911A
:1012E000880490918904A0918A04B0918B0401969E
:1012F000A11DB11D8093880490938904A0938A0452
:10130000B0938B04BF91AF919F918F913F912F919B
:101310000F900FBE0F901F90189526E8230F02968E
:10132000A11DB11DD2CF1F920F920FB60F921124A3
:101330000BB60F922F933F934F935F936F937F93CF
:101340008F939F93AF93BF93EF93FF9381E994E0C3
:101350000E94E802FF91EF91BF91AF919F918F9111
:101360007F916F915F914F913F912F910F900BBEA5
:101370000F900FBE0F901F9018951F920F920FB6EF
:101380000F9211240BB60F922F938F939F93EF938D
:10139000FF93E091A104F091A2048081E091A70461
:1013A000F091A80482FD1DC090818091AA048F5FF6
:1013B0008F732091AB04821741F0E091AA04F0E012
:1013C000EF56FB4F958F8093AA04FF91EF919F9169
:1013D0008F912F910F900BBE0F900FBE0F901F900B
:1013E00018958081F2CF1F920F920FB60F921124A1
:1013F0000BB60F922F933F934F935F936F937F930F
:101400008F939F93AF93BF93EF93FF930E945608E0
:10141000FF91EF91BF91AF919F918F917F916F91CC
:101420005F914F913F912F910F900BBE0F900FBE88
:101430000F901F9018951F920F920FB60F921124C4
:101440000BB60F922F933F934F935F936F937F93BE
:101450008F939F93AF93BF93EF93FF930E94D0031B
:10146000FF91EF91BF91AF919F918F917F916F917C
:101470005F914F913F912F910F900BBE0F900FBE38
:101480000F901F9018951F920F920FB60F92112474
:10149000A8950F900FBE0F901F9018951F920F9256
:1014A0000FB60F9211248F939F93AF93BF938091A8
:1014B000570490915804A0915904B0915A04019690
:1014C000A11DB11D8093570490935804A093590413
:1014D000B0935A048091570490915804A0915904F4
:1014E000B0915A048093700490937104A093720495
:1014F000B0937304BF91AF919F918F910F900FBEE6
:101500000F901F9018951F920F920FB60F921124F3
:101510000BB60F922F933F934F935F936F937F93ED
:101520008F939F93AF93BF93EF93FF938091DB03D0
:101530009091DC03A091DD03B091DE030196A11D23
:10154000B11D8093DB039093DC03A093DD03B09384
:10155000DE038091D8038823F1F08091C703909136
:10156000C803A091C903B091CA034091CB03509125
:10157000CC036091CD037091CE03840F951FA61FFD
:10158000B71FB7FD3DC08093C7039093C803A093D6
:10159000C903B093CA038091C4038823F1F08091FA
:1015A000B3039091B403A091B503B091B6034091F9
:1015B000B7035091B8036091B9037091BA03840FD7
:1015C000951FA61FB71FB7FD4CC08093B303909320
:1015D000B403A093B503B093B603FF91EF91BF910D
:1015E000AF919F918F917F916F915F914F913F91BB
:1015F0002F910F900BBE0F900FBE0F901F9018955C
:10160000B0588093C7039093C803A093C903B093C5
:10161000CA0361E080E30E94FE018091CF039091B4
:10162000D003A091D103B091D2032091D7034FEF03
:101630005FEFBA01222321F041E050E060E070E06A
:10164000840F951FA61FB71F8093CF039093D003DD
:10165000A093D103B093D20360E080E30E94FE0127
:101660009ACFB0588093B3039093B403A093B5037B
:10167000B093B60361E081E30E94FE018091BB0359
:101680009091BC03A091BD03B091BE032091C30310
:101690004FEF5FEFBA01222321F041E050E060E01C
:1016A00070E0840F951FA61FB71F8093BB03909314
:1016B000BC03A093BD03B093BE0360E081E30E942E
:1016C000FE018BCF1F920F920FB60F9211240F9035
:1016D0000FBE0F901F9018951F920F920FB60F928A
:1016E00011240BB60F922F933F934F935F936F93F9
:1016F0007F938F939F93AF93BF93EF93FF936FB1BC
:101700008FB18295817090915004891729F065FB03
:10171000662760F90E940B04FF91EF91BF91AF9192
:101720009F918F917F916F915F914F913F912F91F9
:101730000F900BBE0F900FBE0F901F9018951F9229
:101740000F920FB60F9211240BB60F922F933F9367
:101750004F935F936F937F938F939F93AF93BF93B9
:10176000EF93FF930E946C0BFF91EF91BF91AF91AC
:101770009F918F917F916F915F914F913F912F91A9
:101780000F900BBE0F900FBE0F901F9018951F92D9
:101790000F920FB60F9211248F939F93AF93BF9325
:1017A00089B189B18091570490915804A09159044E
:1017B000B0915A040196A11DB11D809357049093D6
:1017C0005804A0935904B0935A04809157049091FF
:1017D0005804A0915904B0915A04809370049093D6
:1017E0007104A0937204B0937304BF91AF919F9161
:1017F0008F910F900FBE0F901F9018951F920F9210
:101800000FB60F9211240BB60F922F933F934F9365
:101810005F936F937F938F939F93AF93BF93EF9358
:10182000FF930E94C70BFF91EF91BF91AF919F91E2
:101830008F917F916F915F914F913F912F910F9079
:101840000BBE0F900FBE0F901F901895FC011082D9
:1018500013821282158214821782168211861086D4
:1018600082E382878FE1838785E284878CE08587A6
:101870008EE386870895E1E9F4E01382128288EE10
:1018800093E0A0E0B0E084839583A683B78382E2EF
:1018900092E09183808385EC90E09587848784EC47
:1018A00090E09787868780EC90E0918B808B81EC2D
:1018B00090E0938B828B82EC90E0958B848B86EC0E
:1018C00090E0978B868B118E128E138E148EEEE223
:1018D000F5E01382128284E392E09183808388E0B2
:1018E00084838FEF858389E086838AE087838BE01A
:1018F00080878CE081878DE0828713861486158629
:101900001686178661E080E10E94390689E096E03C
:101910000E94260C62E089E30E942C02E9E0F6E0D6
:10192000848195819061958384838AEF95E00E94FC
:10193000260C62E088E30E942C02EAEFF5E0848145
:1019400095819061958384838BEE95E00E94260CAF
:1019500062E087E30E942C02EBEEF5E08481958142
:101960009061958384838CED95E00E94260C62E063
:1019700086E30E942C02ECEDF5E084819581906174
:10198000958384838DEC95E00E94260C62E08AE3C7
:101990000E942C02EDECF5E08481958190619583A5
:1019A00084838EEB95E00E94260C62E08EE30E9419
:1019B0002C02EEEBF5E08481958190619583848320
:1019C0008FEA95E00E94260C62E08FE30E942C02D1
:1019D000EFEAF5E08481958190619583848380EAC4
:1019E00095E00E94260C62E080E40E942C02E0EA6E
:1019F000F5E08481958190619583848381E995E008
:101A00000E94260C62E081E40E942C02E1E9F5E0EC
:101A10008481958190619583848382E895E00E941A
:101A2000260C62E082E40E942C02E2E8F5E0848168
:101A3000958190619583848383E795E00E94260CCD
:101A400062E086E10E942C02E3E7F5E08481958163
:101A500090619583848384E695E00E94260C62E081
:101A600088E10E942C02E4E6F5E084819581906192
:101A70009583848385E595E00E94260C62E08AE1E7
:101A80000E942C02E5E5F5E08481958190619583C3
:101A9000848386E495E00E94260C62E08CE10E943B
:101AA0002C02E6E4F5E0848195819061958384833E
:101AB0000895789484B5826084BD84B5816084BDC6
:101AC00085B5826085BD85B5816085BD80916E00DC
:101AD000816080936E00109281008091810082600D
:101AE000809381008091810081608093810080914A
:101AF00080008160809380008091B1008460809339
:101B0000B1008091B00081608093B000809191001D
:101B10008260809391008091910081608093910018
:101B2000809190008160809390008091A1008260FC
:101B30008093A1008091A10081608093A100809199
:101B4000A00081608093A000809121018260809339
:101B500021018091210181608093210180912001E8
:101B600081608093200180917A00846080937A0064
:101B700080917A00826080937A0080917A008160FF
:101B800080937A0080917A00806880937A00109226
:101B9000C10080E30E9490058CE20E94900581E3E1
:101BA0000E9490058BE20E94900580E10E949005C2
:101BB0008AE20E9486058DE10E94860589E10E94E5
:101BC00086058BE10E94860587E10E94860586E3F3
:101BD0000E949A0587E30E949A0588E30E949A056D
:101BE00089E30E949A058AE30E949A058EE30E9487
:101BF0009A058FE30E949A0580E40E949A0581E489
:101C00000E949A0582E40E949A0583E40E949A0544
:101C100084E40E949A0585E40E949A058EE10E9460
:101C20009A058FE10E949A0580E20E949A0581E25E
:101C30000E949A0582E20E949A0583E20E949A0518
:101C400084E20E949A0585E20E949A0582E10E9440
:101C50009A0583E10E949A0582E00E949A0583E03A
:101C60000E949A058FE00E949A058EE00E949A05D4
:101C700084E10E949A0585E10E949A0586E10E940E
:101C80009A0588E10E949A058AE10E949A058CE1F2
:101C90000E949A05E091A104F091A20482E0808361
:101CA000E0919D04F0919E041082E0919F04F091D8
:101CB000A00480E180831092A904E091A504F09132
:101CC000A60486E08083E091A304F091A4048081BF
:101CD00080618083E091A304F091A40480818860F6
:101CE0008083E091A304F091A404808180688083C4
:101CF000E091A304F091A40480818F7D808381E032
:101D0000809301028EE392E00E94F306809101022B
:101D1000882321F081EA92E00E94F30664E084E1E6
:101D20000E94390681E00E9433068BE39FE1019710
:101D3000F1F7C0EED3E004E314E044E150E060E2E8
:101D400070E0CE010E9436131C8A65960C171D07A1
:101D5000A1F70E94C103D82F80934B040E94AC03CB
:101D6000C82F80934C0483E00E94D501892B09F48D
:101D700031C482E00E94D50181E080934D048EE061
:101D80000E94D501892B09F427C48FE00E94D50158
:101D900080E080934E04D0934F04C0930002809162
:101DA0000D0690910E06906190930E0680930D069D
:101DB0008091FE059091FF0590619093FF058093BF
:101DC000FE058091EF059091F00590619093F005EC
:101DD0008093EF058091E0059091E10590619093EB
:101DE000E1058093E0058091D1059091D205906145
:101DF0009093D2058093D1058091C2059091C3053F
:101E000090619093C3058093C2058091B305909132
:101E1000B40590619093B4058093B3058091A405B7
:101E20009091A50590619093A5058093A40580915C
:101E300095059091960590619093960580939505F0
:101E40008091860590918705906190938705809396
:101E5000860580917705909178059061909378053B
:101E600080937705809168059091690590619093C2
:101E70006905809368058091590590915A05906194
:101E800090935A058093590580914A0590914B058E
:101E9000906190934B0580934A05ECE3F4E08FE06A
:101EA000DF011D928A95E9F71092340461E08DE11B
:101EB0000E94FE011092350461E089E10E94FE015A
:101EC0001092360461E08BE10E94FE01109237040B
:101ED00061E087E10E94FE0160E08DE30E942C0238
:101EE0000E94D00320917E0430917F04A4E6B0E0EC
:101EF0000E941C134AE096958795779567954A95B9
:101F0000D1F760937D041092380410923904109236
:101F10003A0410923B041092510410925204109211
:101F200053041092540462E082E10E942C0262E0A9
:101F300083E10E942C0210926904109268041092AE
:101F40006A0410926B0410926C0410926D0410924B
:101F50006E0410926F04109270041092710410922B
:101F6000720410927304109274041092750410920B
:101F70007604109277041092780461E086E00E9463
:101F80002C0262E084E10E942C0262E085E10E9462
:101F90002C0264EC72E080E00E94780863ED72E04D
:101FA00081E00E9478080E948E080E94560841EE47
:101FB00052E06FEE72E084EF92E00E94120758EB5D
:101FC000C52E5BE0D52EE12CF12C89E30E947E0525
:101FD000682F89E096E00E94630488E30E947E05F2
:101FE000682F8AEF95E00E94630487E30E947E05D4
:101FF000682F8BEE95E00E94630486E30E947E05C5
:10200000682F8CED95E00E9463048AE30E947E05B0
:10201000682F8DEC95E00E9463048EE30E947E059C
:10202000682F8EEB95E00E9463048FE30E947E058B
:10203000682F8FEA95E00E94630480E40E947E0589
:10204000682F80EA95E00E94630481E40E947E0587
:10205000682F81E995E00E94630482E40E947E0576
:10206000682F82E895E00E94630486E10E947E0565
:10207000682F83E795E00E94630488E10E947E0553
:10208000682F84E695E00E9463048AE10E947E0541
:10209000682F85E595E00E9463048CE10E947E052F
:1020A000682F86E495E00E94630469E076E088EF9B
:1020B00092E00E94AA076AEF75E08DEF92E00E941D
:1020C000AA076BEE75E083E093E00E94AA076CED2F
:1020D00075E086E093E00E94AA076DEC75E08BE066
:1020E00093E00E94AA076EEB75E082E193E00E9404
:1020F000AA076FEA75E087E193E00E94AA0760EA09
:1021000075E08CE193E00E94AA0761E975E081E245
:1021100093E00E94AA0762E875E086E293E00E94DD
:10212000AA0740E063E775E08CE293E00E9457075E
:1021300041E064E675E081E393E00E94570742E0E6
:1021400065E575E086E393E00E94570743E066E4A7
:1021500075E08BE393E00E94570780910D0685FBA5
:10216000882780F980933C048091FE0585FB8827B1
:1021700080F980933D048091EF0585FB882780F9E5
:1021800080933E048091E00585FB882780F9809349
:102190003F048091D1059091D20585FB222720F93B
:1021A000209340048076992721E08036910509F03C
:1021B00020E0209341048091C20585FB882780F9A7
:1021C000809342048091B30585FB882780F9809332
:1021D00043048091A40585FB882780F980934404FB
:1021E0008091950585FB882780F98093450480912F
:1021F000860585FB882780F98093460480917705C2
:1022000085FB882780F9809347048091680585FBCA
:10221000882780F9809348048091590585FB882799
:1022200080F98093490480914A0585FB882780F9CD
:1022300080934A040E94C103C82F0E94AC03D82F88
:1022400080914F04C81701F18FEF8C0F4FE952E0D6
:10225000883050F42C2F2150330BF901EE0FFF1F63
:10226000E25FFD4F4081518180910102882351F04E
:102270000C2F10E030E020E061E473E08FE492E0A6
:102280000E94D207C0934F0480910002D81791F0AA
:102290004FE552E0D13031F043E652E0D23011F058
:1022A00047E652E066E473E08FE492E00E94120792
:1022B000D0930002C0934B04D0934C0483E00E945F
:1022C000D501892B09F48AC182E00E94D50181E001
:1022D00080934D048EE00E94D501892B09F480C1C2
:1022E0008FE00E94D50180E080934E0482E10E943D
:1022F000D501C82F83E10E94D501D82F80915604C3
:10230000C81304C080915504D817B1F180915004CE
:10231000C81721F06D2F8C2F0E940B0400915104DF
:10232000109152042091530430915404109251049E
:102330001092520410925304109254040115110586
:1023400021053105A9F080910102882389F037FF2A
:1023500007C030952095109501951F4F2F4F3F4F87
:102360004AE453E060E573E08FE492E00E94D20714
:10237000C0935604D093550484E10E94D501C82F20
:1023800085E10E94D50180915B04C81729F18091F5
:10239000570490915804A0915904B0915A040196A1
:1023A000A11DB11D8093570490935804A093590424
:1023B000B0935A048091570490915804A091590405
:1023C000B0915A048093700490937104A0937204A6
:1023D000B0937304C0935B040E9468024B015C01DC
:1023E0008091790490917A04A0917B04B0917C044F
:1023F000A5019401281B390B4A0B5B0BDA01C901BB
:10240000883E9340A105B10508F469C0409070046E
:102410005090710460907204709073048091640411
:1024200090916504A0916604B0916704A3019201A4
:10243000281B390B4A0B5B0BACE3B0E00E942B135B
:10244000A70196010E94F21289019A01009360048B
:1024500010936104209362043093630400936C042E
:1024600010936D0420936E0430936F0440926404C3
:1024700050926504609266047092670480927904B9
:1024800090927A04A0927B04B0927C0480915C04C8
:1024900090915D04A0915E04B0915F040817190744
:1024A0002A073B07E1F080910102882341F044E5CF
:1024B00053E068E573E08CE593E00E94D2078091D9
:1024C000600490916104A0916204B09163048093D0
:1024D0005C0490935D04A0935E04B0935F040E943B
:1024E0006802009184041091850420918604309143
:1024F0008704601B710B820B930B64367105810599
:10250000910508F443C00E94D00320917E043091CD
:102510007F04A4E6B0E00E941C13DC01CB012AE09A
:10252000B695A795979587952A95D1F720917D0423
:10253000281711F180937D0420917E0430917F044F
:10254000809101028823C1F0A4E6B0E00E941C1330
:102550008B019C018AE036952795179507958A95FA
:10256000D1F711272227332741E653E065E673E0D0
:102570008FE492E00E94D2070E9468026093840474
:102580007093850480938604909387040E948E083C
:102590000E946802009180041091810420918204BD
:1025A00030918304601B710B820B930B60357105B6
:1025B0008105910560F00E9456080E9468026093B0
:1025C00080047093810480938204909383040E941A
:1025D0007703FBCC80E0D1CB81E0DBCB80E078CE11
:1025E00081E082CEA1E21A2EAA1BBB1BFD010DC009
:1025F000AA1FBB1FEE1FFF1FA217B307E407F507B3
:1026000020F0A21BB30BE40BF50B661F771F881F8E
:10261000991F1A9469F760957095809590959B0124
:10262000AC01BD01CF010895EE0FFF1F881F8BBFC6
:102630000790F691E02D1994A29FB001B39FC001BD
:10264000A39F700D811D1124911DB29F700D811DDE
:102650001124911D08950E941C13A59F900DB49FF5
:10266000900DA49F800D911D11240895DC0101C0DF
:102670006D9341505040E0F70895FB01DC0141505B
:10268000504048F001900D920020C9F701C01D9202
:1026900041505040E0F708950F931F93CF93DF937D
:1026A000CDB7DEB72E970FB6F894DEBF0FBECDBF05
:1026B0000E891F89888D998D26E02C831A830983C2
:1026C00097FF02C080E090E801979E838D83AE0162
:1026D000445E5F4F6A8D7B8DCE0101960E94891307
:1026E0004D815E8157FD0AC02F81388542175307FF
:1026F0000CF49A01020F131FF80110822E960FB6E8
:10270000F894DEBF0FBECDBFDF91CF911F910F9127
:1027100008952F923F924F925F926F927F928F9285
:102720009F92AF92BF92CF92DF92EF92FF920F9360
:102730001F93CF93DF9300D000D000D01F921F9241
:10274000CDB7DEB77C013B018A01FC0117821682FE
:10275000838181FFDDC1CE0101965C01F701938188
:10276000F30193FD859193FF81913F01882309F443
:1027700053C1853239F493FD859193FF81913F01D7
:10278000853229F4B70190E00E94A115E7CF912C82
:10279000212C312CFFE1F31538F08B3211F190F43C
:1027A000803209F1833229F137FC3CC020ED280F3B
:1027B0002A3050F536FE20C08AE0989E200D112464
:1027C000922E06C08D3291F0803371F7689430F804
:1027D000F30193FD859193FF81913F018111DACF40
:1027E00021C0689431F8689432F8F2CF689433F8D5
:1027F000EFCF689434F8ECCFEAE02E9E200D112440
:10280000222E689435F8E4CF8E3229F436FC04C1C8
:10281000689436F8DDCF8C3619F4689437F8D8CF41
:102820008836B1F2982F9F7D95549330E0F083362F
:10283000A1F18337C1F1833509F063C02801F2E0CB
:102840004F0E511CF801C080D180692D70E036FC1C
:1028500002C06FEF7FEFC6010E948B154C01689498
:1028600037F882010AC00C5F1F4FFFE3F983882409
:102870008394912C6501E89437F833FE2DC0522CD7
:102880008114910471F5552009F468CFB70180E2F5
:1028900090E00E94A1155A94F6CFF80180818983B7
:1028A0000E5F1F4FE4CF2801F2E04F0E511CF801DC
:1028B000C080D180692D70E036FC02C06FEF7FEFE1
:1028C000C6010E9496154C018201D5CFB70180E266
:1028D00090E00E94A1152A942814190409F0B0F779
:1028E000CECFF60137FC859137FE81916F01B7019C
:1028F00090E00E94A11551105A94F1E08F1A9108AE
:10290000BFCF843619F0893609F077C0F80137FE59
:102910006BC060817181828193810C5F1F4FF32DA9
:10292000FF763F2E97FF09C0909580957095619531
:102930007F4F8F4F9F4F689437F82AE030E0A50112
:102940000E94D115C82ECA188C2C432C36FE0CC000
:10295000E89440F8C91440F434FE05C032FC03C0CA
:10296000F32DFE7E4F2E892C44FEAAC0FE01EC0DF5
:10297000F11D8081803309F09CC0242D297E422ED8
:10298000842D8870582E43FCAAC040FEA4C09C2C05
:10299000821418F42C0C922C981844FEA6C0B7018F
:1029A00080E390E00E94A11542FE09C088E790E014
:1029B00041FE02C088E590E0B7010E94A115C9144C
:1029C00008F49FC0CA94D12C9FEFC91AD90ACA0C27
:1029D000DB1CF60182916F01B70190E00E94A11506
:1029E000AC14BD04B1F74FCF60817181072E000C8C
:1029F000880B990B0E5F1F4F92CFD32CE894D4F81D
:102A00002AE030E08537E1F1232D297FD22E8F3661
:102A1000A9F1F0F4883551F1F701868197812B9661
:102A20000FB6F894DEBF0FBECDBFDF91CF911F91DF
:102A30000F91FF90EF90DF90CF90BF90AF909F905D
:102A40008F907F906F905F904F903F902F90089560
:102A5000803749F0883701F7D4FE02C06894D2F875
:102A600020E130E00DC06894D4F8F6CF34FE03C006
:102A7000822F8660D82E20E132E002C028E030E0CC
:102A8000F801D7FE0FC060817181828193810C5F54
:102A90001F4FA5010E94D115C82ECA183D2CE894DD
:102AA00037F852CF6081718190E080E00E5F1F4F58
:102AB000F0CF42FC02C0839463CF8394839460CFB1
:102AC000842D867809F45CCFF6CFB70180E290E0E0
:102AD0000E94A11583948214C0F3512C5ECF522C16
:102AE0005818821408F459CFF8CF842D867809F449
:102AF00066CF8BE241FE80E247FC8DE2B70190E0B9
:102B00005CCFB70180E390E00E94A1159A9457CF63
:102B10008FEF9FEF84CFFC01059061507040011052
:102B2000D8F7809590958E0F9F1F0895FC016150F6
:102B3000704001900110D8F7809590958E0F9F1FDF
:102B400008950F931F93CF93DF93182F092FEB0155
:102B50008B8181FD09C01FEF0FEF812F902FDF9137
:102B6000CF911F910F91089582FF14C02E813F8154
:102B70008C819D81281739073CF4E881F981CF01C8
:102B800001969983888310838E819F8101969F830C
:102B90008E83E3CFE885F985812F1995892BA1F3E1
:102BA000DACFFA01AA27283051F1203181F1E894D7
:102BB0006F936E7F6E5F7F4F8F4F9F4FAF4FB1E030
:102BC0003ED0B4E03CD0670F781F891F9A1FA11D2B
:102BD000680F791F8A1F911DA11D6A0F711D811D2C
:102BE000911DA11D20D009F468943F912AE0269FF1
:102BF00011243019305D3193DEF6CF010895462F50
:102C00004770405D4193B3E00FD0C9F7F6CF462F30
:102C10004F70405D4A3318F0495D31FD4052419399
:102C200002D0A9F7EACFB4E0A69597958795779556
:102C30006795BA95C9F700976105710508959B01DD
:102C4000AC010A2E06945795479537952795BA9566
:102C5000C9F7620F731F841F951FA01D0895F89474
:022C6000FFCFA4
:102C6200FF012C03310336033B031D191B176903B4
:102C72006F0374037B03830388038F0397030000AE
:102C820000000A037402A1025703D202B002C40276
:102C920000000000DE067402A903A8030D0A004921
:102CA2004E464F005D205B005D200042544E0055B1
:102CB20049004C494D006F666600484F4C44004540
:102CC200787400496E74004D616E004D3A2575208E
:102CD2002573004D504720256320252B6C64204628
:102CE2003A25752525004C2563204625632052256B
:102CF2006320526525632052504D3A256C75003F82
:102D020000454C5320416C6578412056322E3120CB
:102D120053746167652031205374617274696E6700
:102D22002E2E2E00454C5320416C657841205632A0
:102D32002E310053746167652031205265616479D8
:102D420000537461676520312072656164790049BE
:102D52004E495400535953004C65667400526967DA
:102D6200687400557000446F776E0053656C65633C
:102D720074004A6F794C004A6F7952004A6F795554
:102D8200004A6F7944005261706964004C696D4C6D
:102D9200004C696D46004C696D52004C696D52657C
:102DA200004D4F4445005355420064656C74610008
:102DB2004D50470076616C0052504D005350444CC8
:102DC2000070637400504F54004173796E63005376
:102DD200796E6300546872656164004368616D6670
:102DE200657200436F6E65005370686572650044DA
:0E2DF200697669646572004772696E6400005C
:00000001FF
