:020000040000FA
:100000000C949E020C94052E0C94CF020C94CE2DD1
:100010000C94CF020C94CF020C94CF020C94CF021C
:100020000C94CF020C94CF020C94CF020C94CF020C
:100030000C94CF020C94CA2B0C94CF020C94E52C98
:100040000C94CF020C94152D0C94CF020C94CF027B
:100050000C94CF020C94CF020C94CF020C94802B02
:100060000C94CF020C94542C0C942A2C0C94CF0298
:100070000C94CF020C94CF020C94CF020C94CF02BC
:100080000C94DA2C0C94CF020C94CF020C94CF0277
:100090000C94CF020C94CF020C94CF020C94CF029C
:1000A0000C94CF020C94CF020C94B22C0C94CF027F
:1000B0000C94CF020C94CF020C94CF020C948A2C97
:1000C0000C94CF020C94CF020C94CF020C94CF026C
:1000D0000C94CF020C94CF020C94CF020C94CF025C
:1000E0000C94CF020C9418070C94E7120C9456034E
:1000F0000C947E130C9431130C943C3F0C940640EA
:100100000C9496120C9420400C9451120C94133FB2
:100110000C9464230C94AF060C94D6070C943B23E8
:100120000C9466130C9471030C9401130C94422EDE
:100130000C9480140C945B030C948B0C0C9479033A
:100140000C94430C0C94DC3F0C9426230C94B73F86
:100150000C9435400C94A2030C94670C0C948C0303
:100160000C94B7130C9402140C949A030C944C4006
:100170000C94C73F0C94E7130C94AC030C946D03E0
:100180000C94FF3E0C94E0060C9461230C94A8039D
:100190000C94263F0C9475030C942C3E0C94733FE6
:1001A0000C9478400C944C130C9482030C94072309
:1001B0000C9485070C9450230C94D2060C94644044
:1001C0000C9466140C9440400C94BE060C947C0372
:1001D0000C94CD120C94D43E0C9419130C949D13D2
:1001E0000C9476230C9489120C9416400C94EC3EDB
:1001F0000C9483130C9491120C9434140C945F3F60
:100200000C94D7070C9482060C941C140C94F13FA8
:100210000C949E030C94983F0C94DF160C949A1443
:100220000C94C8120C9490030C94CF130C94860376
:100230000C944B3F0C944C140C94B80C0C94A23FAF
:100240000C94B0120C947A0C0C945D230C946F12E5
:100250000C94560C0C9494030C94883F6364696E60
:100260006F70737578585B00205B27242720666FBA
:10027000722068656C705D006F6B006572726F72E2
:100280003A20007C52504D3A007C4D3A007C465357
:100290004D3A003C4D506F733A000000200023009F
:1002A000260029002C002F0032000001000003016D
:1002B00006010901242420616C6C2C20246E20711D
:1002C000756572792C20246E3D76616C207365749F
:1002D0002C20244920696E666F2C203F20737461A6
:1002E00074757300243433206261636B6C617368CE
:1002F000206175746F207370656564206D6D2F6D5E
:10030000696E00243430206261636B6C6173682015
:100310006175746F2C202434312D24343220582FF1
:100320005A20737465707300243330207370696EC3
:10033000646C65205050522C202433312062757A31
:100340007A65720024323620582073746570732FDA
:100350006D6D2C2024323720582064697220696E1C
:1003600076657274002432302D2432352058206D89
:100370006F746F722F75737465702F706974636812
:100380002F6D61782F72617069642F616363656C92
:1003900000243136205A2073746570732F6D6D2CD4
:1003A00020243137205A2064697220696E76657284
:1003B00074002431302D243135205A206D6F746F34
:1003C000722F75737465702F70697463682F6D6117
:1003D000782F72617069642F616363656C002432E9
:1003E0002D24332073796E632066656564206D6902
:1003F0006E2F6D6178206D6D2F7265760024302D23
:100400002431206173796E632066656564206D69AF
:100410006E2F6D6178206D6D2F6D696E002C4545D6
:1004200050524F4D5D005B4F50543A005B56455261
:100430003A0000002100240027002A002D0030008F
:10044000330001010000040107010A0100000A0B4A
:1004500002090C0D0E080703040100000000000053
:10046000000000000000000000000000000000008C
:100470000000000000000000121110000000000049
:10048000000000000000000000000000000000006C
:100490000000010210202008081020401020408099
:1004A0000201020108040201010204081020408038
:1004B00080402010080402018004020180402010C6
:1004C000080402010804020101020408102040800F
:1004D00001020408102040800000220025002800AE
:1004E0002B002E003100340002010000050108013C
:1004F0000B010505050507050808080802020202A8
:100500000A0A0808040404040101010101010101AF
:100510000303030303030303040707070C0C0C0C7A
:100520000C0C0C0C02020202060606060606060663
:100530000B0B0B0B0B0B0B0B0200422E11241FBEDF
:10054000CFEFD1E2DEBFCDBF00E00CBF18E0A0E0EE
:10055000B2E0E8E0F8E900E00BBF02C007900D92BE
:10056000A839B107D9F72EE0A8E9B8E001C01D927B
:10057000A038B207E1F712E0CEE9D2E000E006C011
:1005800021970109802FFE010E94A444CD39D10793
:1005900080E00807A9F70E9423300C94024C0C94C9
:1005A000000080917B00877F80937B0087E48093AD
:1005B0007C0080917A00806480937A0080917A0038
:1005C00086FDFCCF80917800909179000895CF92BC
:1005D000DF92EF92FF92813019F53091EE0B20916E
:1005E000EC0B8091E70B9091E80BA091E90BB09197
:1005F000EA0BEFEDFBE0181619061A061B060CF5C0
:10060000C080D180E280F3801C141D041E041F04EE
:10061000C4F0311114C080839183A283B38311C0CD
:100620003091ED0B2091EB0B8091E30B9091E40B5B
:10063000A091E50BB091E60BEBEDFBE0DCCF621394
:10064000EACFFF90EF90DF90CF900895282F30E011
:10065000F901E45BFB4F9491F901EE56FB4F449195
:100660002E503B4FF9012491222309F435C09923E0
:1006700011F191509231F8F4E92FF0E08827EC5B0A
:10068000FC4F8F4F0C94A4447503790356036D03FC
:1006900071035B037C03820386038C039003940342
:1006A0009A039E035B03A203A803AC03809180001E
:1006B0008F7780938000E22FF0E0EE0FFF1FE8526B
:1006C000FB4FA591B4918FB7F894EC91611148C09C
:1006D00040954E234C938FBF0895809180008F7D6D
:1006E000E8CF80918000877FE4CF84B58F7784BD89
:1006F000E2CF84B58F7DFBCF8091B0008F77809360
:10070000B000D9CF8091B0008F7DF9CF809190005B
:100710008F7780939000CFCF809190008F7DF9CF1D
:1007200080919000877FF5CF8091A0008F77809394
:10073000A000C1CF8091A0008F7DF9CF8091A00053
:10074000877FF5CF809120018F7780932001B3CFF1
:10075000809120018F7DF9CF80912001877FF5CF97
:100760004E2BB8CFCF93DF9390E0FC01EE56FB4FBA
:1007700024918E509B4FFC0184918823C9F090E016
:10078000880F991FFC01EE5CFB4FA591B491FC0111
:10079000E852FB4FC591D49161110DC09FB7F894F9
:1007A0008C91209582238C938881282328839FBF56
:1007B000DF91CF910895623051F49FB7F8943C9146
:1007C000822F809583238C93E8812E2BEFCF8FB7D8
:1007D000F894EC912E2B2C938FBFEACFCF9380917E
:1007E0003202803121F08F3F61F1CF910895E8E32B
:1007F000F5E0C491C7FDF9CF61E080E10E94B2034A
:10080000CC2309F4F1C0C23009F006C18091B100D7
:10081000887F83608093B10083E68093B30088EC87
:1008200090E0A0E0B0E08093CF0B9093D00BA0932A
:10083000D10BB093D20B80917000826080937000D6
:10084000D4CF80E180933202E8E3F5E0C4918C2FAD
:10085000CF3F59F2C23009F468C060F4CC2379F17B
:10086000C13009F444C087FDC0CF61E080E10E943F
:10087000B203C9CFC43009F499C008F478C0C530B8
:1008800091F710922001109221018091210188603E
:100890008093210180912101816080932101E2E018
:1008A000F5E0E491F0E0EE0FFF1FE852FB4F859179
:1008B0009491E2EAF4E0E491E093BB0B9DCF14BC89
:1008C00015BC84B5826084BD85B5816085BDE2E0DC
:1008D000F5E0E491F0E0EE0FFF1FE852FB4F859149
:1008E0009491E2EAF4E0E491E093C20B85CF109298
:1008F0008000109281008091810088608093810047
:1009000080918100816080938100E2E0F5E0E491D4
:10091000F0E0EE0FFF1FE852FB4F85919491E2EA61
:10092000F4E0E491E093C10B67CF1092B000109215
:10093000B1008091B00082608093B0008091B100DE
:1009400081608093B100E2E0F5E0E491F0E0EE0F29
:10095000FF1FE852FB4F859194919093C00B8093B9
:10096000BF0BE2EAF4E0E491E093BE0B45CF1092B6
:100970009000109291008091910088608093910086
:1009800080919100816080939100E2E0F5E0E49134
:10099000F0E0EE0FFF1FE852FB4F85919491E2EAE1
:1009A000F4E0E491E093BD0BC3E026CF1092A000E9
:1009B0001092A1008091A10088608093A100809195
:1009C000A10081608093A100E2E0F5E0E491F0E015
:1009D000EE0FFF1FE852FB4F85919491E2EAF4E09D
:1009E000E491E093BC0B08CF85B5887F836085BD1B
:1009F00081E387BD88EC90E0A0E0B0E08093D70B66
:100A00009093D80BA093D90BB093DA0B80916E0022
:100A1000826080936E00E9CEC130F1F48091810054
:100A2000887F8160809381008FE79CE090938900AC
:100A30008093880088EC90E0A0E0B0E08093D30B36
:100A40009093D40BA093D50BB093D60B80916F00ED
:100A5000826080936F00C9CEC330F1F48091910021
:100A6000887F8160809391008FE79CE0909399004C
:100A70008093980088EC90E0A0E0B0E08093CB0BEE
:100A80009093CC0BA093CD0BB093CE0B80917100C3
:100A9000826080937100A9CEC430F1F48091A100EE
:100AA000887F81608093A1008FE79CE09093A900EC
:100AB0008093A80088EC90E0A0E0B0E08093C70BA2
:100AC0009093C80BA093C90BB093CA0B809172008E
:100AD00082608093720089CEC530F1F4809121014B
:100AE000887F8160809321018FE79CE090932901AA
:100AF0008093280188EC90E0A0E0B0E08093C30BE5
:100B00009093C40BA093C50BB093C60B8091730058
:100B100082608093730069CEC23091F034F4CC23AC
:100B200069F0C13009F061CE7FCFC43009F4BCCF89
:100B30000CF49ACFC53009F058CED6CF8FE759CFF5
:100B40008FE76BCE3FB7F8948091B70B9091B80BBD
:100B5000A091B90BB091BA0B26B5A89B05C02F3F49
:100B600019F00196A11DB11D3FBFBA2FA92F982FD3
:100B70008827BC01CD01620F711D811D911D42E0CE
:100B8000660F771F881F991F4A95D1F708958F9296
:100B90009F92AF92BF92CF92DF92EF92FF924B0162
:100BA0005C010E94A2056B017C010E94A2056C19E8
:100BB0007D098E099F09683E734081059105A8F360
:100BC00021E0821A9108A108B10888EEC80E83E0DE
:100BD000D81EE11CF11C81149104A104B10429F771
:100BE000FF90EF90DF90CF90BF90AF909F908F904D
:100BF00008952FB7F8946091B30B7091B40B809166
:100C0000B50B9091B60B2FBF08958F929F92AF9224
:100C1000BF92CF92DF92EF92FF920F931F93CF93E9
:100C2000DF93C4E2DBE0811102C0C8E3DBE09A019C
:100C3000AB0160E070E080E090E00FE10E9485454C
:100C4000EFE5AE2EF6E7BF2EC12CD12CE12CF12C16
:100C500000E010E00E9428452C833D834E835F8393
:100C6000DF91CF911F910F91FF90EF90DF90CF9088
:100C7000BF90AF909F908F9008959091320289130A
:100C80000DC0E8E3F5E0E4919FEF90933202E2308B
:100C9000E1F038F4EE2381F0E13089F060E00C946B
:100CA0002603E43049F110F1E530C1F7909173006B
:100CB0009D7F90937300F2CF10926E00EFCF9091D2
:100CC0006F009D7F90936F00E9CF909170009D7FA2
:100CD0009093700091E09093B0009091B100987F54
:100CE00094609093B1001092B300D8CF90917100AE
:100CF0009D7F90937100D2CF909172009D7F9093D1
:100D00007200CCCFAF92BF92CF92DF92EF92FF9260
:100D10000F931F93CF93DF936C017B018B01040F23
:100D2000151FEB015E01AE18BF08C017D10759F0BF
:100D30006991D601ED91FC910190F081E02DC60101
:100D40001995892B79F7C501DF91CF911F910F91EB
:100D5000FF90EF90DF90CF90BF90AF900895FC018F
:100D6000538D448D252F30E0842F90E0821B930B10
:100D7000541710F0CF96089501970895FC01918DB6
:100D8000828D981761F0A28DAE0FBF2FB11D5D96B9
:100D90008C91928D9F5F9F73928F90E008958FEF5B
:100DA0009FEF0895FC01918D828D981731F0828D0F
:100DB000E80FF11D858D90E008958FEF9FEF089566
:100DC000FC01918D228D892F90E0805C9F4F821BCA
:100DD00091098F739927089586E39CE00E94E006AD
:100DE00021E0892B09F420E0822F0895FC01A48DD5
:100DF000A80FB92FB11DA35ABF4F2C91848D90E03D
:100E000001968F739927848FA689B7892C93A0891F
:100E1000B1898C91837080648C93938D848D9813A9
:100E200006C00288F389E02D80818F7D808308953C
:100E3000EF92FF920F931F93CF93DF93EC0181E02A
:100E4000888F9B8D8C8D98131AC0E889F9898081D1
:100E500085FF15C09FB7F894EE89FF896083E88904
:100E6000F98980818370806480839FBF81E090E0F6
:100E7000DF91CF911F910F91FF90EF900895F62E83
:100E80000B8D10E00F5F1F4F0F731127E02E8C8D1D
:100E90008E110CC00FB607FCFACFE889F989808162
:100EA00085FFF5CFCE010E94F606F1CFEB8DEC0F5A
:100EB000FD2FF11DE35AFF4FF0829FB7F8940B8F7F
:100EC000EA89FB8980818062CFCF682F86E39CE02E
:100ED0000C9418070F931F93CF93DF938C01D0E0EE
:100EE000C0E0F801EC0FFD1F6491662341F086E33A
:100EF0009CE00E941807892B11F02196F2CFCE01B9
:100F0000DF91CF911F910F910895CF93DF93EC0163
:100F1000888D8823B9F0AA89BB89E889F9898C91E1
:100F200085FD03C0808186FD0DC00FB607FCF7CF9D
:100F30008C9185FFF2CF808185FFEDCFCE010E949D
:100F4000F606E9CFDF91CF91089580E090E0892BFC
:100F500029F00E94EC0681110E94000080E090E0E0
:100F6000892B49F080E090E0892B29F00E94000055
:100F700081110E94000080E090E0892B49F080E020
:100F800090E0892B29F00E94000081110E9400004E
:100F900080E090E0892B49F080E090E0892B29F0F7
:100FA0000E94000081110C9400000895089590E0C3
:100FB00080E00895809103018370823029F41092BB
:100FC0002A0980912A0908958130D9F780932A0946
:100FD000F8CF8091D70C9091D80C807299272091EE
:100FE000E60C25FF08C0892B19F481E080930302E9
:100FF000809103020895892BD9F310920302F8CF50
:101000008091130D85FF04C082E08093290906C0FA
:101010008091040D85FF05C010922909809129094E
:1010200008958091F50C85FFF7CF81E0EECF809198
:101030008B0D85FD1EC080917C0D85FD1CC08091AF
:101040006D0D85FD1AC080915E0D85FD18C08091E3
:101050004F0D85FD16C08091400D85FD14C0809117
:10106000310D85FD12C08091220D85FD10C080E0FC
:10107000089581E0089582E0089583E0089584E072
:10108000089585E0089586E0089587E0089588E052
:1010900008950E94D1022091A60B3091A70BA901BF
:1010A0004C5F5F4F481759072CF0245031098217C5
:1010B000930744F520912509E22FF0E0EE0FFF1F82
:1010C000EB5FF64F409126095091270960817181AD
:1010D000461B570B91838083840F951F909327099C
:1010E000809326092F5F2F702093250944E0969561
:1010F00087954A95E1F79093A70B8093A60B81E023
:101100008093280908950C94EE0380E0E82FF0E026
:10111000EA5EF34F9081992341F090539A3018F48E
:101120008093430908958F5FF1CF1092430908958A
:101130008091430990E0FC01EA5EF34F2081205347
:101140002A30B0F0019748F0FC01EA5EF34F2081AD
:1011500020532A30B8F780934309E0914309F0E027
:10116000EA5EF34F808180538A3010F00C9485083A
:101170000895EEE0FCE08081918190932B028093B2
:101180002A0282819381909329028093280284818C
:101190009581909327028093260286819781909370
:1011A000250280932402E6EFFBE0838594859093EB
:1011B000230280932202858580932102868597856C
:1011C0009093200280931F028089918990931E0240
:1011D00080931D028289938990931C0280931B0245
:1011E000848980931A02808191819093190280935F
:1011F0001802828180931702838194819093160252
:101200008093150285819681909314028093130236
:10121000878190859093120280931102818580933B
:1012200010028589809332098285809331098689ED
:1012300097899093020280930102809133028093F8
:101240002C02EFEEFBE0808180930F02818192817E
:1012500090930E0280930D028381948190930C02EF
:1012600080930B028581968190930A0280930902F4
:101270000895883170F4E82FF0E0EE0FFF1FE65379
:10128000FD4F0190F081E02D309719F0608371835C
:1012900008958550803160F4E82FF0E0EE0FFF1FD5
:1012A000E655FD4F0190F081E02D309709F0608305
:1012B0000895883170F4E82FF0E0EE0FFF1FE65339
:1012C000FD4F0190F081E02D309719F080819181E0
:1012D00008958550803170F4E82FF0E0EE0FFF1F85
:1012E000E655FD4F0190F081E02D309719F0808197
:1012F00090E0089590E080E00895F89410920D0B2E
:1013000010920E0B10920F0B1092100B1092090BF3
:1013100010920A0B10920B0B10920C0B78940895FC
:10132000CF92DF92EF92FF920F931F93F894009168
:101330000D0B10910E0B20910F0B3091100B789428
:101340004091090B50910A0B60910B0B70910C0BA3
:1013500068017901C41AD50AE60AF70AC701B6017D
:101360000093090B10930A0B20930B0B30930C0B7B
:101370001F910F91FF90EF90DF90CF900895E6E2DC
:10138000FEE0118284819581882790719583848302
:10139000E7E1FEE011828481958188279071958331
:1013A0008483E8E0FEE01182848195818827907132
:1013B00095838483E9EFFDE01182848195818827FC
:1013C000907195838483EAEEFDE01182848195819A
:1013D0008827907195838483089580911B0B8111D8
:1013E0000FC080911C0B81110BC080911D0B8111CE
:1013F00007C081E090911E0B911103C080E0089519
:1014000081E00895CF93DF93FC012481358133FF80
:1014100010C0EC010E94F9052A813B81621B730B0D
:101420002E85F0E12F9F9001112481E06217730750
:1014300008F480E0DF91CF9108951F93CF93DF935D
:10144000EC018C819D8180FD19829C012F713327D5
:10145000232B19F0807E9D838C838C819D8194FB4E
:10146000112710F9162796FF04C09F7B9D838C835C
:1014700011E08C819D8191FD10C011110BC0CE0136
:101480000E94020A182F8111C0C0812FDF91CF91D5
:101490001F91089592609D838C830E94F905AB0192
:1014A0008A819B81FA01E81BF90B8C819D811123B4
:1014B00009F45DC085FD3EC02A8592FD06C0222349
:1014C00021F094609D838C830BC02E171F0619F0AA
:1014D00010F0211107C082629D838C835987488751
:1014E0005B834A838C819D818F71992711E0892BC1
:1014F00031F28E819F81892B41F28C819D81917087
:101500008436910509F48AC008F09AC082329105A8
:1015100009F484C008F07BC08130910509F47EC0D5
:10152000409709F47BC0CE010E94020A882309F487
:10153000ACCF74C097FDD6CF86FD0AC02C85A0E144
:101540002A9F90011124E217F30760F28464BACF56
:1015500087FF0BC02D85A0E12A9F90011124886888
:10156000E217F30708F0AECFBDCF2C85F4CF85FF8F
:1015700012C02A852E171F0609F080F586FD03C0CC
:1015800029812F5F298397FD19828F7D806191606A
:101590009D838C8323C090FF0DC097FD03C08061A5
:1015A0009D838C838C819D819E779D838C835B83BF
:1015B0004A8314C029812223F1F09C01207C332727
:1015C000232BA1F42B8540E1249F90011124E217E5
:1015D000F30760F488859985892B51F48C819D816E
:1015E00092FF80CF9B7F9D838C837CCF8160D0CF07
:1015F00019861886F3CF91FFF1CF8F739D7F986086
:101600009D838C8319861886D2CF10E072CF8134E7
:10161000910521F08035910509F085CFEE81FF819C
:10162000309709F432CF1995CE010E94020A88231F
:1016300009F42BCF8C819D81977F9D838C8325CF4F
:10164000883E910559F338F4813C910539F3803D8A
:10165000910521F368CF8035A1E09A07F9F2803D2A
:1016600021E09207D9F28031914009F05CCFD6CFCA
:1016700048990EC049990EC08091700B9091710BE2
:10168000A091720BB091730B0196A11DB11D0DC0FD
:101690004999F2CF8091700B9091710BA091720BD0
:1016A000B091730B0197A109B1098093700B9093CE
:1016B000710BA093720BB093730B0895AF92BF920E
:1016C000CF92DF92EF92FF920F931F93CF93DF930E
:1016D000B82EEB016A017901F801A888488559857F
:1016E0006A857B858C859D85AE85BF8548175907A2
:1016F0006A077B0779F111E0481759076A077B07EA
:101700000CF010E0A11649F0188B812F1995612F6C
:1017100080E0B11081E00E94E70288819981AA816E
:10172000BB814C815D816E817F81840F951FA61FD7
:10173000B71FB7FD13C088839983AA83BB83DF914A
:10174000CF911F910F91FF90EF90DF90CF90BF90BE
:10175000AF9008958A2D19951A2DDFCFB058888340
:101760009983AA83BB83F6011995B11029C0809192
:10177000DB0B9091DC0BA091DD0BB091DE0B2DEE1D
:101780003BE0EBEDFBE04BEE5BE0181619061A06AA
:101790001B062CF188859985AA85BB8541E050E020
:1017A00060E070E0111103C04FEF5FEFBA01840FEA
:1017B000951FA61FB71F88879987AA87BB8727C051
:1017C0008091DF0B9091E00BA091E10BB091E20BC7
:1017D0002EEE3BE0EFEDFBE04CEE5BE0D6CF808100
:1017E0009181A281B3810197A109B109808391837D
:1017F000A283B38380819181A281B381892B8A2BBB
:101800008B2B29F4FA01108381E0F9018083F70121
:10181000DF91CF911F910F91FF90EF90DF90CF90CC
:10182000BF90AF9019940F931F93882359F0809124
:10183000DF0B9091E00BA091E10BB091E20BE4E2A1
:10184000FBE00AC08091DB0B9091DC0BA091DD0BDB
:10185000B091DE0BE8E3FBE0181619061A061B062A
:1018600074F081E000851185228533854485558596
:1018700066857785041715072607370709F080E086
:101880001F910F910895E3ECF4E08491E3E2F5E019
:10189000E491F0E0EE0FFF1FE852FB4FA591B491E9
:1018A0009C91E82FE095E923EC930895E3ECF4E0B4
:1018B0008491E3E2F5E0E491F0E0EE0FFF1FE852DF
:1018C000FB4FA591B491EC91E82BEC930895E2ECD9
:1018D000F4E08491E2E2F5E0E491F0E0EE0FFF1F26
:1018E000E852FB4FA591B4919C91E82FE095E92334
:1018F000EC930895E2ECF4E08491E2E2F5E0E49107
:10190000F0E0EE0FFF1FE852FB4FA591B491EC9170
:10191000E82BEC93089590910B0C992321F091E022
:10192000811190E0892FEDEBF4E02DE135E0882383
:1019300079F08491F9012491E22FF0E0EE0FFF1F7E
:10194000E852FB4FA591B491EC91E82BEC930895EC
:101950008491F9012491E22FF0E0EE0FFF1FE8528D
:10196000FB4FA591B4919C91E82FE095E923EECF30
:101970009091000C992321F091E0811190E0892F42
:10198000EEEBF4E02EE135E0882379F08491F90163
:101990002491E22FF0E0EE0FFF1FE852FB4FA591DC
:1019A000B491EC91E82BEC9308958491F901249182
:1019B000E22FF0E0EE0FFF1FE852FB4FA591B4912C
:1019C0009C91E82FE095E923EECF1092F80A10924F
:1019D000F90A1092FA0A08950F931F93CF93DF9399
:1019E000041715072607370731F1C1E040175107E3
:1019F000620773070CF0C0E0D82F6C2F81110FC065
:101A000080E00E94E702E8E3FBE0C08B8C2FD1115D
:101A10000CC0DF91CF911F910F910C94B80C81E015
:101A20000E94E702E4E2FBE0F0CFDF91CF911F914B
:101A30000F910C948B0CDF91CF911F910F91089512
:101A40008091560B8823D1F01092560B1092070B01
:101A50001092060B8091000B811111C08091400BF8
:101A60009091410BA091420BB091430BE8E3FBE056
:101A700084879587A687B78781E0818B08958091B9
:101A80002C0B90912D0BA0912E0BB0912F0BE4E21B
:101A9000FBE0EECFCF93C82F0E94130C8823A9F050
:101AA000C1110AC06091400B7091410B8091420BB3
:101AB0009091430BCF91089560912C0B70912D0B59
:101AC00080912E0B90912F0BF5CFC11109C0609121
:101AD000440B7091450B8091460B9091470BEACFD8
:101AE0006091300B7091310B8091320B9091330BE0
:101AF000E1CF823010F40C944A0D60E070E0CB012D
:101B00000895CF92DF92EF92FF920F931F936A0195
:101B10007B018130B1F48091AC08882309F447C07F
:101B200060919C0870919D0880919E0890919F08FB
:101B30002091AE0821111EC000E814E82EE130E02B
:101B400021C08091AF088823B9F16091A8087091F5
:101B5000A9088091AA089091AB082091AD08222392
:101B600059F30091A0081091A1082091A20830918A
:101B7000A30808C00091A4081091A5082091A60808
:101B80003091A708C616D706E806F9064CF0C7013B
:101B9000B601061717072807390714F4C901B80159
:101BA0001F910F91FF90EF90DF90CF90089560E824
:101BB0007BE781EE9FEFBCCF60E87BE781EE9FEF94
:101BC000CCCF90E0FC01EE50FB4FE491EE2389F086
:101BD000F0E0EE0FFF1FE656FD4FA591B4912C915A
:101BE0008E569B4FFC018491282381E019F480E0FC
:101BF000089581E00895809106019091EF0D892765
:101C00008295817008958EE10E94E10D61E081115D
:101C100001C060E087E89DE00E941D0A8FE10E94FC
:101C2000E10D61E0811101C060E088E79DE00E9464
:101C30001D0A80E20E94E10D61E0811101C060E0B7
:101C400089E69DE00E941D0A81E20E94E10D61E0AB
:101C5000811101C060E08AE59DE00E941D0A82E2D8
:101C60000E94E10D61E0811101C060E08BE49DE024
:101C70000E941D0A83E20E94E10D61E0811101C012
:101C800060E08CE39DE00E941D0A84E20E94E10D69
:101C900061E0811101C060E08DE29DE00E941D0ABB
:101CA00085E20E94E10D61E0811101C060E08EE1FA
:101CB0009DE00E941D0A6091060165FB662760F9A0
:101CC0008FE09DE00E941D0A6091060166FB662779
:101CD00060F980E09DE00E941D0A60910601661F88
:101CE0006627661F81EF9CE00E941D0A6CB1629519
:101CF000617082EE9CE00E941D0A6CB165FB662754
:101D000060F983ED9CE00C941D0ACF93C82F61E02D
:101D10000E94B20361E08C2FCF910C942603CF93E5
:101D2000C82F61E00E94B20360E08C2FCF910C9429
:101D3000260362E00C94B203CF92DF92EF92FF92FF
:101D4000CF93DF93811181E09BE0899FE001112413
:101D5000CA50D44F6881798190E080E00E94164398
:101D60006B017C016A8170E090E080E00E94164384
:101D70009B01AC01C701B6010E94CD436B017C0100
:101D80006B817C8190E080E00E9416432AE037ED71
:101D900043E25CE30E94CD439B01AC01C701B60165
:101DA0000E946E42DF91CF91FF90EF90DF90CF9035
:101DB00008958F929F92AF92BF92CF92DF92EF924F
:101DC000FF92CF93DF9380E00E949C0E4B015C0159
:101DD00081E00E949C0E6B017C018091F00B909140
:101DE000F10BC091F20BD091F30B009711F1B0E021
:101DF000A0E08093E30B9093E40BA093E50BB093EA
:101E0000E60B209779F1CE01B0E0A0E08093E70BDC
:101E10009093E80BA093E90BB093EA0BDF91CF917D
:101E2000FF90EF90DF90CF90BF90AF909F908F90FA
:101E300008952BE734E14EEA5EE3C501B4010E9448
:101E4000CD4320E030E040E05FE30E94FD410E948E
:101E5000E0426093E30B7093E40B8093E50B909367
:101E6000E60BCFCF2EE135E84BEE5EE3C701B601BE
:101E70000E94CD4320E030E040E05FE30E94FD415E
:101E80000E94E0426093E70B7093E80B8093E90BAC
:101E90009093EA0BC3CFCF92DF92EF92FF92CF9352
:101EA000C82F6A017B0120E030E040E85FE3CB010E
:101EB000B6010E94694287FF06C0C12CD12C80E880
:101EC000E82E8FE3F82E8C2F0E949C0E9B01AC0114
:101ED000C701B6010E94CD4320E030E040E752E464
:101EE0000E946E420E94E7426115710581059105CD
:101EF00021F461E070E080E090E0CF91FF90EF90FE
:101F0000DF90CF900895BF92CF92DF92EF92FF9231
:101F10000F931F93CF93DF93F82EEA01162F072F0D
:101F200020E030E040E85FE3BE01812F902F0E9467
:101F3000694287FF04C0C0E0D0E010E80FE38BE007
:101F4000F89EF0011124EA50F44F6581768190E00B
:101F500080E00E941643B62EC72ED82EE92E9E0191
:101F6000412F502F0E94694287FF04C0CB2DDC2DEA
:101F70001D2D0E2DAE01612F702F8F2DDF91CF9172
:101F80001F910F91FF90EF90DF90CF90BF900C9436
:101F90004B0F88E1E4E4F2E0A6EFBBE001900D9284
:101FA0008A95E1F70895FC0180819181C2978F396C
:101FB0009740F0F4828181508032D0F48381948103
:101FC0000A978F3D9340A0F4858196810A978F37B9
:101FD000934170F4878190850A978730974240F447
:101FE00081858150843120F481E09285923008F01F
:101FF00080E00895CF93DF93EC010E94D30F8823F4
:1020000079F0CE010B960E94D30F882349F02E89D8
:102010003F892456310981E02D3A364208F080E0AC
:10202000DF91CF910895CF93883008F080E0E82FBA
:10203000F0E0E05FFC4FC081C23008F0C0E024E077
:10204000C29FF0011124E25FF34F4281538101905E
:10205000F081E02DE417F50778F59A012F5F3F4FE7
:102060002E1B3F0BDB010E94AC442AE0969587951E
:10207000779567952A95D1F79A01261B370BB901F9
:10208000C1111CC04E1B5F0B4233510580F0CB01C8
:102090008E1B9F0B6AE070E00E944F44CB012AE048
:1020A000289FB001299F700D11246E0F7F1F90E0B3
:1020B00080E00E9416430CC0BF01E2CF90E080E0B8
:1020C0000E9416432AE037ED43E25CE30E94CD43D1
:1020D000CF910895883008F080E0E82FF0E0E05FCD
:1020E000FC4F90819F3F31F06091A60B7091A70B40
:1020F0000C94131060E070E0CB010895BF92CF9272
:10210000DF92EF92FF920F931F93CF93DF93B82E3E
:10211000811181E0E82EF12C6623F1F08BE08E9D99
:10212000F0018F9DF00D1124EA50F44F6781708506
:1021300090E080E00E9416436B017C01A601B7018C
:102140008B2DDF91CF911F910F91FF90EF90DF903A
:10215000CF90BF900C944B0F8091A50B883008F066
:1021600062C0823049F121E090E0813009F020E046
:10217000C22ED92E0E946A108B01D82FC92FCD28CC
:1021800029F16091600B7091610B8091620B9091CD
:10219000630B6A3071058105910520F46CE370E0F2
:1021A00080E090E00E9416439B01AC01B8018D2FA6
:1021B0009C2F0E94CD4307C06091A60B7091A70B86
:1021C00080E00E9413108B01D82FC92F20E030E04F
:1021D00040E251E4B8018D2F9C2F0E94694287FF95
:1021E00004C000E010E0D0E2C1E48BE08E9DF0017D
:1021F0008F9DF00D1124EA50F44F6581768190E0B7
:1022000080E00E9416436B017C019B01AC01B80188
:102210008D2F9C2F0E94C84318160CF48FCF680195
:10222000ED2EFC2E8BCFD12CC12CA4CF46175707F7
:1022300070F04115510559F0880F991F880F991FAB
:10224000FC01E25FF34F71836083538342830895FF
:10225000EEE0FCE0ACE3B2E04D915D916D917C91DC
:102260001397408351836283738314968D919D915C
:102270000D90BC91A02D84839583A683B783089588
:10228000FC0182819381208131818217930760F064
:10229000892B51F026813781848195812817390750
:1022A00018F081E0232B09F480E0089587E0E5E34E
:1022B000F2E0AFEEBBE001900D928A95E1F7089550
:1022C000CF92DF92EF92FF920F931F93E62F062E8D
:1022D000000CFF0B57FF2AC069017A010027112764
:1022E00098010C191D092E093F093F932F931F9345
:1022F0000F93FF936F9326EF33E03F932F931F923B
:102300002AE02F939F938F930E94CF452DB73EB71E
:10231000245F3F4F0FB6F8943EBF0FBE2DBF1F91F5
:102320000F91FF90EF90DF90CF9008955F934F93C0
:102330003F932F93FF936F932FEF33E03F932F93B0
:102340001F922AE02F939F938F930E94CF452DB722
:102350003EB7245F3F4F0FB6F8943EBF0FBE2DBF70
:10236000DECFEF92FF920F931F93CF93DF93CDB702
:10237000DEB764970FB6F894DEBF0FBECDBF80E026
:102380000E944A0D9B01AC018E01055F1F4F68E55D
:10239000C8010E94601181E00E944A0D9B01AC01BE
:1023A0006AE5CE0101967C010E946011FF92EF92D6
:1023B0001F930F9388E094E09F938F931F9285E182
:1023C0008F9381E29CE09F938F930E94CF450FB63D
:1023D000F894DEBF0FBECDBF64960FB6F894DEBF93
:1023E0000FBECDBFDF91CF911F910F91FF90EF9066
:1023F00008959C01CB0164E670E00E944F449F93D6
:102400008F937F936F938BE196E09F938F931F92AF
:1024100084E18F933F932F930E94CF458DB79EB752
:102420000A960FB6F8949EBF0FBE8DBF0895CF9346
:10243000DF938C3208F07EC2EB01E82FF0E08827B2
:10244000EB5DFD4E8F4F0C94A44451126F12891214
:1024500091129A149A149A149A149A149A1496121D
:10246000B012C812CD12E7120113311319139A14C6
:102470009A144C1366137E1383139D13B713E7133B
:10248000CF139A149A1402141C149A149A149A14BE
:102490009A149A149A149A149A1434144C146614B4
:1024A000801480910F0C8F9380910E0C8F938CE68B
:1024B00097E09F938F931F9284E18F93DF936F93A5
:1024C0000E94CF458DB79EB708960FB6F8949EBF71
:1024D0000FBE8DBF81E090E0DF91CF910895809194
:1024E000110C8F938091100C8F938CE697E09F9343
:1024F0008F931F9284E18F93DF936F930E94CF4558
:102500008DB79EB708960FB6F8949EBF0FBE8DBFCD
:10251000E1CF6091120C7091130CCE010E94F91161
:10252000D9CF6091140C7091150CF7CF8091020CEB
:102530008F938091010C8F938CE697E09F938F93FC
:102540001F9284E18F93DF936F930E94CF458DB7E5
:102550009EB708960FB6F8949EBF0FBE8DBFBACF38
:102560008091030C1F928F938CE697E09F938F933B
:102570001F9284E18F93DF936F930E94CF458DB7B5
:102580009EB708960FB6F8949EBF0FBE8DBFA2CF20
:102590006091040C7091050CC0CF8091070C8F9353
:1025A0008091060C8F938CE697E09F938F931F92F8
:1025B00084E18F93DF936F930E94CF458DB79EB7D1
:1025C00008960FB6F8949EBF0FBE8DBF83CF809143
:1025D000090C8F938091080C8F938CE697E09F9362
:1025E0008F931F9284E18F93DF936F930E94CF4567
:1025F0008DB79EB708960FB6F8949EBF0FBE8DBFDD
:1026000069CF80910A0C1F928F938CE697E09F937D
:102610008F931F9284E18F93DF936F930E94CF4536
:102620008DB79EB708960FB6F8949EBF0FBE8DBFAC
:1026300051CF80910B0C1F928F938CE697E09F9364
:102640008F931F9284E18F93DF936F930E94CF4506
:102650008DB79EB708960FB6F8949EBF0FBE8DBF7C
:1026600039CF81E00E949C0E9F938F937F936F934D
:102670008EE094E09F938F931F9284E18F93DF937A
:10268000CF930E94CF458DB79EB70A960FB6F894A8
:102690009EBF0FBE8DBF1ECF8091F70B8F93809191
:1026A000F60B8F938CE697E09F938F931F9284E1B4
:1026B0008F93DF936F930E94CF458DB79EB7089697
:1026C0000FB6F8949EBF0FBE8DBF04CF8091F80B5C
:1026D0001F928F938CE697E09F938F931F9284E1D4
:1026E0008F93DF936F930E94CF458DB79EB7089667
:1026F0000FB6F8949EBF0FBE8DBFECCE6091F90B64
:102700007091FA0B0ACF8091FC0B8F938091FB0B99
:102710008F938CE697E09F938F931F9284E18F9322
:10272000DF936F930E94CF458DB79EB708960FB683
:10273000F8949EBF0FBE8DBFCDCE8091FE0B8F93C0
:102740008091FD0B8F938CE697E09F938F931F9260
:1027500084E18F93DF936F930E94CF458DB79EB72F
:1027600008960FB6F8949EBF0FBE8DBFB3CE809172
:10277000FF0B1F928F938CE697E09F938F931F928E
:1027800084E18F93DF936F930E94CF458DB79EB7FF
:1027900008960FB6F8949EBF0FBE8DBF9BCE80915A
:1027A000000C1F928F938CE697E09F938F931F925C
:1027B00084E18F93DF936F930E94CF458DB79EB7CF
:1027C00008960FB6F8949EBF0FBE8DBF83CE80E0F3
:1027D0000E949C0E9F938F937F936F938EE094E063
:1027E0009F938F931F9284E18F93DF93CF930E94E7
:1027F000CF458DB79EB70A960FB6F8949EBF0FBE11
:102800008DBF68CE80910D0C8F9380910C0C8F93AF
:102810008CE697E09F938F931F9284E18F93DF93D1
:102820006F930E94CF458DB79EB708960FB6F89468
:102830009EBF0FBE8DBF4ECE809133021F928F93ED
:102840008CE697E09F938F931F9284E18F93DF93A1
:102850006F930E94CF458DB79EB708960FB6F89438
:102860009EBF0FBE8DBF36CE8091EF0B1F928F9310
:102870008CE697E09F938F931F9284E18F93DF9371
:102880006F930E94CF458DB79EB708960FB6F89408
:102890009EBF0FBE8DBF1ECE8091F10B8F93809196
:1028A000F00B8F938CE697E09F938F931F9284E1B8
:1028B0008F93DF936F930E94CF458DB79EB7089695
:1028C0000FB6F8949EBF0FBE8DBF04CE8091F30B60
:1028D0008F938091F20B8F938CE697E09F938F9369
:1028E0001F9284E18F93DF936F930E94CF458DB742
:1028F0009EB708960FB6F8949EBF0FBE8DBFEACD67
:102900008091F50B8F938091F40B8F938CE697E079
:102910009F938F931F9284E18F93DF936F930E9415
:10292000CF458DB79EB708960FB6F8949EBF0FBEE1
:102930008DBFD0CD90E080E0CFCDCF93C82F0E9447
:10294000590928E0C29FF0011124E85EFC4F228162
:10295000338121303105F9F464E670E00E944F4480
:102960009F938F937F936F938BE196E09F938F93C9
:102970001F9289E08F9386E19CE09F938F930E9442
:10298000CF458DB79EB70A960FB6F8949EBF0FBE7F
:102990008DBFCF91089523303105C1F49F938F935C
:1029A0008CE697E09F938F931F9289E08F9386E147
:1029B0009CE09F938F930E94CF458DB79EB708965A
:1029C0000FB6F8949EBF0FBE8DBFE3CF9F938F933A
:1029D0008CE697E09F938F931F9289E08F9386E117
:1029E0009CE09F938F930E94CF458DB79EB708962A
:1029F0000FB6F8949EBF0FBE8DBFCBCFBF92CF92C4
:102A0000DF92EF92FF920F931F93CF93DF93CDB797
:102A1000DEB72C970FB6F894DEBF0FBECDBFD82E11
:102A2000C62EB72E8091200C9E012F5F3F4F79015B
:102A300038E0D39E800111248130E9F580911F0C8C
:102A4000D81239C04BE050E066E17CE0C7010E943B
:102A5000C0451C8680911F0CD81609F46DC080E219
:102A6000FF92EF92F801E85EFC4F91819F93908175
:102A70009F931F928F938AE194E09F938F931F926D
:102A800085E18F93BF92CF920E94CF450FB6F89405
:102A9000DEBF0FBECDBF2C960FB6F894DEBF0FBEC3
:102AA000CDBFDF91CF911F910F91FF90EF90DF90FD
:102AB000CF90BF9008958D2D0E945909F801E85ECE
:102AC000FC4F2281338121303105C9F464E670E086
:102AD0000E944F449F938F937F936F938BE196E077
:102AE0009F938F931F928CE08F93FF92EF920E949F
:102AF000CF450FB6F894DEBF0FBECDBFABCF2330AE
:102B00003105A9F4892B81F486E194E09F938F939A
:102B10008BE094E09F938F931F928CE08F93FF92B2
:102B2000EF920E94CF45E5CF83E194E0EFCF9F93F2
:102B30008F938CE697E0EECF8EE392CFCF93DF9327
:102B4000EC0160E08E810E94260361E08E810E948C
:102B5000260360E08E810E9426038BE891E00197B6
:102B6000F1F7DF91CF910895CF92DF92EF92FF922C
:102B70000F931F93CF93DF936C017C0187E0E80EE6
:102B8000F11CD0E0C0E0062F10E0B8010C2E02C00E
:102B9000759567950A94E2F76170F70181917F015D
:102BA0000E9426032196C430D10579F7C601DF9132
:102BB000CF911F910F91FF90EF90DF90CF900C94E9
:102BC0009E15CF92DF92EF92FF920F931F93CF93B8
:102BD000DF93EC01F62E642F8C810E9426038D81F9
:102BE0008F3F19F060E00E9426030F2D10E08F85C3
:102BF00084FF25C06E0187E0C80ED11CF12CE12CAA
:102C0000B8010E2C02C0759567950A94E2F76170C1
:102C1000F60181916F010E942603FFEFEF1AFF0A70
:102C200088E0E816F10461F7CE01DF91CF911F91A2
:102C30000F91FF90EF90DF90CF900C949E15B8010C
:102C400084E0759567958A95E1F7CE010E94B415E9
:102C50006F2DCE01DF91CF911F910F91FF90EF90DB
:102C6000DF90CF900C94B41540E0682F86E99DE08A
:102C70000C94E115CF93DF93613029F09091A50D6D
:102C800098609093A50D6093A90D1092AA0D90E401
:102C90009093AB0D8093AC0D805C8093AD0D61E0A3
:102CA00080919A0D0E94B20380919B0D8F3F19F085
:102CB00061E00E94B20361E080919C0D0E94B2032A
:102CC000C6E9DDE09E0126593D408091A50D84FDB9
:102CD0000BC084E090E021962817390744F461E0A6
:102CE0008E810E94B203EECF88E090E0F4CF8BE3B8
:102CF0009DE00197F1F760E080919A0D0E94260314
:102D000060E080919C0D0E94260380919B0D8F3F77
:102D100019F060E00E9426038091A50D84FD39C062
:102D200063E086E99DE00E94B415CBE4D6E4CE01D1
:102D30000197F1F763E086E99DE00E94B4152197C1
:102D4000F1F763E086E99DE00E94B41583E592E027
:102D50000197F1F762E086E99DE00E94B415809149
:102D6000A50D80620E94341684E08093A60D8CE04D
:102D70000E94341681E00E9434168BE39FE1019794
:102D8000F1F782E08093A70D86E0DF91CF910C945C
:102D9000341680620E9434168BE496E40197F1F7B2
:102DA0008091A50D80620E94341683E592E0019720
:102DB000F1F78091A50D80620E943416D0CF41E0DA
:102DC0000E94E11581E090E008956EE270E086E1F6
:102DD0009CE00E94AE45009741F09C0126513C408A
:102DE00081E090914309291708F080E00895E0916F
:102DF0004309F0E0EA5EF34F808180538A3020F58A
:102E0000E0911F0C88E0E89FF0011124E85EFC4F80
:102E1000828193810197D1F40E94E516282F80E0EA
:102E2000211126C0E82FF0E0EA5EF34F908199234C
:102E300041F09E3231F090539A3008F42F5F8F5F4B
:102E4000F1CF81E02230A0F480E0089520E090E00E
:102E5000E22FF0E0EA5EF34F8081882331F0805367
:102E60008A3008F49F5F2F5FF3CF81E0923060F3E8
:102E70000895CF93DF930097A1F0FC0120812223D6
:102E800081F0EB010E94AA4161157105F1E08F0705
:102E9000910538F47983688381E090E0DF91CF91E8
:102EA000089590E080E0FACF8F929F92AF92BF9208
:102EB000EF92FF920F931F93CF93DF93009709F444
:102EC00067C0FC012081222309F462C08B01EC0160
:102ED0006EE270E00E94AE457C01892B71F4B8016E
:102EE000CE01DF91CF911F910F91FF90EF90BF9096
:102EF000AF909F908F900C943917CE010E94AA41F9
:102F00004B015C01C70101960E94AA41F8EE8F16A1
:102F1000F3E09F06A104B104D8F597FD2BC06A30F9
:102F200071058105910554F5F701218120532A305F
:102F300048F42281211106C0AAE0B0E09B01AC0157
:102F40000E94BB4444E6489D9001499D300D1124E8
:102F5000620F731FF8017183608381E090E0DF915D
:102F6000CF911F910F91FF90EF90BF90AF909F90E6
:102F70008F90089560E070E0CB01D6CF6436710584
:102F800081059105FCF263E670E080E090E0DACF25
:102F900090E080E0E4CFCF93DF93D82FC5E18C9F02
:102FA000C001112444E150E060E270E08055974F89
:102FB0000E94A745CD9FF0011124E055F74F148AD8
:102FC000DF91CF910895FB0101900020E9F731973F
:102FD000AF01461B570BDC01ED91FC910280F381A0
:102FE000E02D19948F929F92AF92BF920F931F93EF
:102FF000CF93DF93CDB7DEB7A1970FB6F894DEBFBE
:103000000FBECDBF19A2423008F44AE08E010F5D19
:103010001F4F842E912CB12CA12CA50194010E944C
:103020006344E62FB901CA01EA3004F5E05DD80136
:10303000EE938D01232B242B252B79F790E080E054
:10304000109729F0BD0186E39CE00E94E317A1964A
:103050000FB6F894DEBF0FBECDBFDF91CF911F91A9
:103060000F91BF90AF909F908F900895E95CDFCF54
:10307000CF92DF92EF92FF92CF93DF9397FF19C029
:103080006B017C018DE20E946507EC0166277727C2
:10309000CB016C197D098E099F094AE00E94F21745
:1030A0008C0F9D1FDF91CF91FF90EF90DF90CF901D
:1030B00008954AE0DF91CF91FF90EF90DF90CF909D
:1030C0000C94F217CF93DF93D0E0C0E0009731F07B
:1030D000BC0186E39CE00E94E317EC0164E274E02B
:1030E00086E39CE00E94E3178C0F9D1FDF91CF9138
:1030F00008951F93CF93DF93CDB7DEB764970FB6D4
:10310000F894DEBF0FBECDBF182FBE016F5F7F4F9B
:103110000E941712892B89F084E20E946507612FB3
:1031200070E090E080E04AE00E94F2178DE30E9498
:103130006507CE0101960E94621864960FB6F89456
:10314000DEBF0FBECDBFDF91CF911F910895CF930A
:10315000DF93CCE5D2E089910E94791882E0C637EE
:10316000D807C9F7DF91CF910895CF93DF93EC0192
:103170008BE792E00E946A07CE01DF91CF910C9419
:103180006218CF93DF930E946A07EC0164E274E057
:1031900086E39CE00E94E3178C0F9D1FDF91CF9187
:1031A000089588E792E00C94C1184F925F926F9255
:1031B0007F928F929F92AF92BF92CF92DF92EF92C7
:1031C000FF920F931F93CF936B017C01742EAC0180
:1031D0009B010E943A4467E274E0811126C04601D7
:1031E0005701E894B7F82FEF3FEF4FE75FE7C501CE
:1031F000B4010E943A4481110CC02FEF3FEF4FE71A
:103200005FE7C501B4010E9469426BE274E01816E1
:1032100064F02FEF3FEF4FE75FE4C701B6010E9474
:10322000C8431816ACF46FE274E086E39CE0CF91DB
:103230001F910F91FF90EF90DF90CF90BF90AF90D4
:103240009F908F907F906F905F904F900C94E317BA
:103250002FEF3FEF4FE75FECC701B6010E946942D5
:1032600087FDE1CF20E030E0A901C701B6010E944F
:10327000694210E000E087FF08C08DE20E94650708
:103280008C01F7FAF094F7F8F094C0E060E070E099
:1032900080E09FE37C1641F020E030E040E251E422
:1032A0000E946E42CF5FF6CFA70196010E94FD41BA
:1032B0002B013C010E94E7424B015C014AE00E9465
:1032C000F2177C01E00EF11ECC23B1F1C501B4016F
:1032D0000E9416439B01AC01C301B2010E94FC4154
:1032E0004B015C018EE20E946507E80EF91EC15099
:1032F00018F120E030E040E251E4C501B4010E9441
:10330000CD432B013C010E94E7424B01B12CA12C83
:103310004AE0C501B4010E94F217E80EF91EC5018A
:10332000B4010E9416439B01AC01C301B2010E948B
:10333000FC414B015C01DBCFC701CF911F910F9185
:10334000FF90EF90DF90CF90BF90AF909F908F90C5
:103350007F906F905F904F9008958F929F92AF9261
:10336000BF92CF92DF92EF92FF9283E992E00E94A8
:103370006A0780E00E944A0D4B015C0180E00E94D8
:103380009C0E6B017C01C501B4010E941843A7018A
:1033900096010E946E4243E00E94D5188CE20E9482
:1033A000650781E00E944A0D4B015C0181E00E94AB
:1033B0009C0E6B017C01C501B4010E941843A7015A
:1033C00096010E946E4243E00E94D5188DE892E07B
:1033D0000E946A076091460970914709072E000C08
:1033E000880B990B0E94381889E892E00E946A07BE
:1033F0006091A50B70E090E080E04AE00E94F21737
:1034000083E892E00E946A076091600B7091610B03
:103410008091620B9091630B4AE00E94F2178EE359
:103420000E94650764E274E086E39CE0FF90EF9001
:10343000DF90CF90BF90AF909F908F900C94E31748
:103440006115710511F00C94E31790E080E0089588
:10345000EF92FF920F931F93CF93DF93209134024B
:103460002223A1F1EA018B017C016AE374E086E387
:103470009CE00E94201A63E374E086E39CE00E94D3
:10348000201A68E374E086E39CE00E94201AB701EA
:1034900086E39CE00E94201A68E374E086E39CE0E7
:1034A0000E94201AB80186E39CE00E94201A65E879
:1034B00077E086E39CE00E94201ACE01DF91CF9155
:1034C0001F910F91FF90EF900C946218DF91CF91B4
:1034D0001F910F91FF90EF9008950F931F93CF933B
:1034E000DF93EC018B01FB018481958180759170E4
:1034F000409739F4AE016CE374E080E494E00E94FC
:10350000281AF801848182FF0BC0AE0163E474E0E5
:1035100080E494E0DF91CF911F910F910C94281AD1
:10352000DF91CF911F910F9108950F931F93CF9328
:10353000DF938C01EA01FC01848195818075917093
:10354000409749F481E0FB0180836CE374E080E400
:1035500094E00E94281AF801848182FF0BC0AE011A
:1035600063E474E080E494E0DF91CF911F910F91C8
:103570000C94281ADF91CF911F910F910895AF926B
:10358000BF92CF92DF92EF92FF920F931F93CF9350
:10359000DF93E0913402EE2309F44AC06801790117
:1035A000EA018B015C016AE374E086E39CE00E941F
:1035B000201A63E374E086E39CE00E94201A68E32B
:1035C00074E086E39CE00E94201AB50186E39CE04B
:1035D0000E94201A68E374E086E39CE00E94201AAF
:1035E000B80186E39CE00E94201A65E877E086E354
:1035F0009CE00E94201ABE0186E39CE00E94201AF3
:1036000080E20E9465074AE0C701B6010E94F217F6
:1036100064E274E086E39CE0DF91CF911F910F910B
:10362000FF90EF90DF90CF90BF90AF900C94E31796
:10363000DF91CF911F910F91FF90EF90DF90CF908E
:10364000BF90AF9008950F931F938091DB0B9091E3
:10365000DC0BA091DD0BB091DE0B181619061A06D3
:103660001B066CF08091DF0B9091E00BA091E10BB9
:10367000B091E20B181619061A061B06E4F4009125
:10368000DB0B1091DC0B2091DD0B3091DE0B809178
:10369000DF0B9091E00BA091E10BB091E20B080FD2
:1036A000191F2A1F3B1F48E454E06EE474E081E5D3
:1036B00094E00E94BF1A1092DB0B1092DC0B109268
:1036C000DD0B1092DE0B1092DF0B1092E00B1092CC
:1036D000E10B1092E20B1F910F9108958091460922
:1036E000909147090497F1F184E090E090934709A5
:1036F000809346090E94E50C0E94231B8091400B99
:103700009091410BA091420BB091430B8093440BDD
:103710009093450BA093460BB093470B80912C0BD5
:1037200090912D0BA0912E0BB0912F0B8093300B0D
:103730009093310BA093320BB093330B1092490B43
:103740001092350B10923C0B10923D0B10923E0BD9
:1037500010923F0B1092280B1092290B10922A0BFB
:1037600010922B0B08956091460970914709E6E786
:10377000F2E04EE952E0208131816217730719F0BF
:103780002530310529F4228133818217930731F0E6
:1037900035964E175F0779F70C946E1B9093470987
:1037A0008093460908950F931F930E94D90E0091AC
:1037B000E30B1091E40B2091E50B3091E60B45E50E
:1037C00054E06EE474E081E594E00E94BF1A009139
:1037D000E70B1091E80B2091E90B3091EA0B4AE5D9
:1037E00054E06EE474E081E594E00E94BF1A1F91FA
:1037F0000F9108958F929F92AF92BF92CF92DF92D6
:10380000EF92FF920F931F93CF93DF936C017B0195
:10381000EA0159016AE374E086E39CE00E94201A01
:1038200063E374E086E39CE00E94201A68E374E09E
:1038300086E39CE00E94201AB60186E39CE00E9489
:10384000201A68E374E086E39CE00E94201AB70126
:1038500086E39CE00E94201A65E877E086E39CE01E
:103860000E94201ABE0186E39CE00E94201A80E29A
:103870000E946507C501B8010E94381864E274E02F
:1038800086E39CE0DF91CF911F910F91FF90EF9025
:10389000DF90CF90BF90AF909F908F900C94E317E4
:1038A000CF92DF92EF92FF920F931F93CF9390915D
:1038B000080B911161C0843008F05EC0282F30E001
:1038C000F901E455F74F9081992309F455C08D7F94
:1038D000C1E009F0C0E0220F331F220F331FF901AE
:1038E000E456F74FC080D180E280F3808C2F0E9495
:1038F000790D6C157D058E059F05F1F1C093000BC8
:10390000C092FC0AD092FD0AE092FE0AF092FF0AF1
:1039100081E08093560B1092070B8093060B8C2F3F
:103920000E94790DAB01BC01970186018C2F0E948A
:10393000EC0CE4E2FBE0C11102C0E8E3FBE0C4866A
:10394000D586E686F78681E0818B61E08C2F0E9428
:103950007E10AB01BC018C2F0E94050680913402C1
:10396000882351F0970186014FE554E063E674E047
:1039700089E694E00E94FA1BCF911F910F91FF906E
:10398000EF90DF90CF9008950F931F93CF93809186
:10399000A60D8D7F8093A60D88600E94341600EBE3
:1039A00018E0C0E0E091A90DCE1790F1E150F0E0F1
:1039B000EA56F24F848980680E943416B80186E97D
:1039C0009DE00E94201ACF5F0B5E1F4FC43051F75D
:1039D000E0912D02E430F0F4809104099091A90D5A
:1039E000E91710F0EFEFE90FF0E0EA56F24F948993
:1039F000890F80680E9434168091A60D982F9260DE
:103A00009093A60D8A60CF911F910F910C9434165C
:103A1000EC2FCDCFCF911F910F910895AF92BF9210
:103A2000CF92DF92EF92FF920F931F93CF93DF938A
:103A30005C01D62FC42F680179016DE674E086E33E
:103A40009CE00E94201AB50186E39CE00E94201AA7
:103A500080E20E9465078AE5D11101C088E50E94D5
:103A6000650760E874E086E39CE00E94201A8DE21E
:103A7000C1118BE20E946507C114D104E104F10475
:103A800051F065E874E086E39CE00E94201AC701CB
:103A9000B6010E94381864E274E086E39CE0DF918E
:103AA000CF911F910F91FF90EF90DF90CF90BF903B
:103AB000AF900C94E3170F931F9381111DC0609377
:103AC000EB0B91E09093ED0B1092DB0B1092DC0B63
:103AD0001092DD0B1092DE0B90913402992349F085
:103AE000462F682F00E010E098018BE894E00E94D8
:103AF0000E1D1F910F9108956093EC0B91E0909330
:103B0000EE0B1092DF0B1092E00B1092E10B109273
:103B1000E20BE2CF4F925F926F927F929F92AF92B1
:103B2000BF92CF92DF92EF92FF920F931F93CF93AA
:103B3000DF937C01B42EFB018481958182FF65C1F6
:103B4000A70163E474E080E494E00E94281AB110B5
:103B50004AC28091060190912B0E929591708170CE
:103B6000CFEF98134DC08091060190911C0E929555
:103B7000917086958170981342C080E0C0E090916A
:103B8000060120910D0E2295217092FB992790F944
:103B9000291374C2909106012091FE0D2295217087
:103BA00093FB992790F929136DC2882331F1CC2317
:103BB00021F1C13039F5D2E0813009F0D1E00D2F8B
:103BC00010E098012455374F6901F901908199233C
:103BD000A1F00E94790D000F111F000F111FF801B5
:103BE000E456F74F4080518062807380C13079F491
:103BF00064157505860597058CF0C1E0F8C1C1E034
:103C000081E0BDCFD0E08130D1F2D3E0D8CFCF3F3B
:103C100029F446165706680679067CF7A70160E97D
:103C200074E080E494E00E94281A8091080B8111CE
:103C300055C0F6018081882309F450C0C1E0D0FD51
:103C4000C0E0F801E456F74FC080D180E280F380F5
:103C50008C2F0E94790D6C157D058E059F05F1F165
:103C6000C093000BC092FC0AD092FD0AE092FE0ABB
:103C7000F092FF0A81E08093560B8093070B10921D
:103C8000060B8C2F0E94790DAB01BC0197018601B8
:103C90008C2F0E94EC0CE8E3FBE0CC2311F0E4E273
:103CA000FBE0C486D586E686F78681E0818B60E0FE
:103CB0008C2F0E947E10AB01BC018C2F0E94050648
:103CC00080913402882351F0970186014FE554E03A
:103CD00060E974E089E694E00E94FA1BDF91CF91DD
:103CE0001F910F91FF90EF90DF90CF90BF90AF901A
:103CF0009F907F906F905F904F9008952091AC08B7
:103D00002223A1F000919C0810919D0820919E080B
:103D100030919F08061B170B280B390B00939C084A
:103D200010939D0820939E0830939F082091AE0821
:103D30002223A1F00091A4081091A5082091A608C3
:103D40003091A708061B170B280B390B0093A4080A
:103D50001093A5082093A6083093A708E4E2FBE09F
:103D60001086118612861386148615861686178687
:103D7000EC2FF0E0EE0FFF1FEE0FFF1FE45BF44FA0
:103D800010821182128213820E947D09E8E3FBE017
:103D9000CC2311F0E4E2FBE060898C2F0E945B1DD4
:103DA000EB2DF0E0EE0FFF1FE256FD4F40815181F9
:103DB00066E974E080E494E00E94281A809133025E
:103DC000882309F48BCF0E94EE036DE270E080E05F
:103DD00090E00E94C70580E10E943D0660E570E02A
:103DE00080E090E00E94C705DF91CF911F910F9175
:103DF000FF90EF90DF90CF90BF90AF909F907F901B
:103E00006F905F904F900C94EE0380759170409787
:103E100009F064CF0E94FB0DA7018823C1F063E67F
:103E200074E080E494E00E94281A8B2DDF91CF91FA
:103E30001F910F91FF90EF90DF90CF90BF90AF90C8
:103E40009F907F906F905F904F900C94501C6CE30C
:103E500074E080E494E00E94281ACB2DD0E08E011B
:103E60000455174FF801A080AA2029F11082CA55E5
:103E7000DD4F61E088810E9426034BE954E065E64E
:103E800074E080E494E00E94281A80913302882331
:103E900009F424CFDF91CF911F910F91FF90EF9004
:103EA000DF90CF90BF90AF909F907F906F905F908A
:103EB0004F900C9483089B2CE89491F891101CC0AF
:103EC00081E00E944A0D6B017C01BB2079F1F2E098
:103ED000BF1217C08091AC088823D1F180919C0853
:103EE00090919D08A0919E08B0919F088C159D050A
:103EF000AE05BF056CF1F2CE80E00E944A0D6B0169
:103F00007C0121E0B21259C08091AF08882301F1F1
:103F10008091A8089091A908A091AA08B091AB0837
:103F20008C159D05AE05BF059CF0D8CE8091AE08DE
:103F3000882371F08091A4089091A508A091A6080B
:103F4000B091A708C816D906EA06FB060CF0C6CE43
:103F500081E0F8018083FE01EE0FFF1FEE0FFF1FCF
:103F6000E456F74FC082D182E282F38260E0FE0124
:103F7000EA55FD4F80810E942603E8E3FBE09110A3
:103F800004C0AA24A394E4E2FBE060898A2D0E9485
:103F90005B1D80913402882309F477CFCC0FDD1F9D
:103FA000C256DD4F488159819701860165E674E06C
:103FB00080E494E00E94FA1B68CF33E0B312C8CFCC
:103FC0008091AD08882321F28091A0089091A108EA
:103FD000A091A208B091A308C816D906EA06FB066C
:103FE0000CF4B6CF7BCEC1E0F2E0BF12C0E08C2F64
:103FF0000E94790D2091560B222351F02091000B45
:10400000C21306C01092560B1092070B1092060BAB
:10401000C13009F473CE2091AD082223A1F00091A4
:10402000A0081091A1082091A2083091A308061BB6
:10403000170B280B390B0093A0081093A1082093AD
:10404000A2083093A3082091AF082223A1F0009189
:10405000A8081091A9082091AA083091AB08061B66
:10406000170B280B390B0093A8081093A90820936D
:10407000AA083093AB08E8E3FBE072CEC1E08111FF
:10408000BCCD97CDCFEFFBCF8F929F92AF92BF92D7
:10409000CF92DF92EF92FF920F931F93CF93C82F8F
:1040A000811177C0C090E30BD090E40BE090E50B5A
:1040B000F090E60B6091F40B7091F50B90E080E0CE
:1040C0000E941643AB01BC018C2F0E944B0F4B0189
:1040D0005C01EBEDFBE0CC2311F0EFEDFBE01C14F9
:1040E0001D041E041F04CCF480819181A281B38140
:1040F000181619061A061B0684F080913402C08235
:10410000D182E282F382882341F09701860140E068
:104110006C2F8FE994E00E940E1D08E31BE0CC2376
:1041200011F004E21BE0F801108A80E0C1113AC0EE
:104130000E94B80C8091400B9091410BA091420BD2
:10414000B091430BF80184879587A687B787B5019F
:10415000A4018C2F0E94050681E0F801818BC09399
:10416000040280913402882341F09701860140E0E7
:104170006C2F8FE994E00E940E1DCF911F910F913B
:10418000FF90EF90DF90CF90BF90AF909F908F9077
:104190000895C090E70BD090E80BE090E90BF09009
:1041A000EA0B88CF0E948B0C80912C0B90912D0BE9
:1041B000A0912E0BB0912F0BC5CF86E19CE0FC01A6
:1041C00001900020E9F7CF0187519C408830F0F43E
:1041D00041E0480F2091430930E02F5F3F4FE42F2B
:1041E000F0E02E173F0740F4EA5EF34FDF0111972E
:1041F0005C9150834150F3CF2A5E334F40E3F90185
:1042000040839927FC01EA5EF34F11820895CF9213
:10421000DF92EF92FF920F931F93CF93DF9300D023
:1042200000D01F921F92CDB7DEB7D82E10911F0C71
:1042300048E0149FF0011124E85EFC4F82819381D5
:1042400082309105C1F5812F0E945909813009F40E
:1042500017C1823009F421C1843009F420C18830AB
:1042600009F41FC1803109F41EC1803209F4FFC076
:104270005FEFE6E0D51609F40EC1F0E0E650FD4F21
:10428000608170E0812F0E943909812F0E949D1466
:104290000E94850828960FB6F894DEBF0FBECDBFEA
:1042A000DF91CF911F910F91FF90EF90DF90CF9012
:1042B0000895EF5FE2CF8330910551F4812F0E9482
:1042C000590961E070E0892BE9F270E060E0DACF33
:1042D000C09043092C2D30E0F901EA5EF34F7F01D5
:1042E000108120ED210F2A30A8F6019709F094C023
:1042F0000E94E516082FF1E0882381F0DF1208C044
:10430000193311F01F5F01C010E3F7011083C2CF12
:10431000103311F01150F9CF19E3F7CFDF1237C086
:10432000193389F580E3F70180830E94DD206EE276
:1043300070E086E19CE00E94AE45009709F48DC0D4
:10434000FC01318120ED230F2A3008F030E3FC011D
:10435000228140ED420F4A3008F020E3E6E1FCE024
:10436000E817F90758F5073070F5419150ED540FF3
:104370005A30B0F7A1E0B0E0AC0FBD1FA00FB11DE7
:104380004C930F5FEDCF1F5FF7011083D0CF103339
:1043900099F40E94F716882309F47CCFEC2DF0E005
:1043A000EA5EF34F8081882321F081818083C3946A
:1043B000F5CF0E949808BBCF1150E6CF011103C082
:1043C00080E3898301E0CE010196FC01E00FF11D3D
:1043D0001082422F022E000C550B5F932F93432F18
:1043E000032E000C550B5F933F939F938F9383EAAB
:1043F00094E09F938F931F9289E08F9386E19CE0D6
:104400009F938F930E94CF450E9498080FB6F8940F
:10441000DEBF0FBECDBF3ECF51E0D51208C019336D
:1044200009F070CF80E380830E94DD2033CF10330A
:1044300009F070CF0E94F716882309F42BCFEC2DDA
:10444000F0E0EA5EF34F8081882321F08181808350
:10445000C394F5CF0E9498081DCF86E19CE0FC0133
:1044600001900020E9F7CF01019730E376CFF1E02A
:10447000DF1621F05FEFE5E0D51669F0E5E0FDCE4F
:10448000E0E041E0D41609F414CF8FEFD812F5CE56
:10449000EE2309F4F2CEE150F0CEE1E0F2CFE2E01B
:1044A000F0CFE3E0EECFE4E0ECCF0F931F93CF9398
:1044B000DF93EB0109900020E9F72197C61BC53176
:1044C00008F0C4E1D0E095E1899F800111240055F6
:1044D000174FAE01C8010E949E4544E150E04C1BBD
:1044E0005D0B60E270E0C8018C0F9D1F0E94A74524
:1044F000F801148ADF91CF911F910F910895FF92D7
:104500000F931F93CF93DF93CDB7DEB765970FB6A9
:10451000F894DEBF0FBECDBF10911F0C123008F40F
:104520004EC01150163108F015E1BE016F5F7F4F8C
:10453000812F0E94FE14BE016F5F7F4F80E00E94BA
:104540005522FF24F394F10EBE016F5F7F4F8F2D34
:104550000E94FE14BE016F5F7F4F81E00E945522D2
:1045600002E0010FBE016F5F7F4F802F0E94FE149B
:10457000BE016F5F7F4F82E00E9455229091200C18
:10458000913051F580911F0C8117D9F0F816D1F0B8
:1045900092E00817B9F08FEF80932D026BEA74E078
:1045A00083E00E94552265960FB6F894DEBF0FBED9
:1045B000CDBFDF91CF911F910F91FF90089510E033
:1045C000B4CF90E080914309895F843120F79093C4
:1045D0002D0280930409E2CF6FEB74E083E00E9428
:1045E00055228FEF80932D02DECF883020F5E82F03
:1045F000F0E08827E150FD4D8F4F0C94A444072331
:1046000026233B2350235D2361236423762362ED1D
:1046100074E080E00E9455226DED74E081E00E941C
:10462000552261EE74E082E00E9455226BEE74E048
:1046300083E00E9455228091460990914709892B79
:1046400009F074C081E090E00C94B31B81E080938A
:104650005B0B63ED74E080E00E94552261EF74E033
:1046600081E00E9455226FEF74E082E00E945522A3
:1046700066E075E0DDCF81E080935A0B6CE075E079
:1046800080E00E94552268E175E081E00E94552299
:104690006FEF74E082E00E94552265E275E0C8CFBA
:1046A00062E375E080E00E9455226AE375E081E0F4
:1046B0000E94552264E475E0D8CF6FE475E080E095
:1046C000B8CF64E575E0FBCF6BE575E080E00E9454
:1046D000552263E675E081E00E9455226DE675E0A3
:1046E00082E00E94552268E775E0A2CF81E08093C6
:1046F000590B1092580B1092570B63E875E080E04D
:104700000E9455226EE875E081E00E9455226DE915
:1047100075E082E00E94552266E075E083E00E9429
:10472000552281E090E00E94B31B85CF08951F932E
:10473000CF93DF93EC01162F0E94E641181739F052
:10474000612FCE01DF91CF911F910C94EE41DF914B
:10475000CF911F910895CF93C091330280910002B1
:10476000C80FCB5565EA90E080E00E9497236091E6
:10477000000281E090E00E9497236091330282E082
:1047800090E00E9497236C2F83E090E0CF910C94EF
:104790009723EF92FF921F93CF93DF9386EFE82E3C
:1047A0008BE0F82EF70115EC8191180F8CE0EE30BC
:1047B000F807D1F765EC80E290E00E949723C1E210
:1047C000D0E0F70161917F01CE010E9497232196ED
:1047D000C933D105B1F7612F87E390E0DF91CF9125
:1047E0001F91FF90EF900C94972386EF9BE00E941F
:1047F000FA0F811102C00E94C90F0E94C92347EA23
:1048000055E06DEA75E082EB95E00C94281AEF9282
:10481000FF921F93CF93DF938EE0E82E8CE0F82E6B
:10482000F70117EB8191180F8CE0E631F807D1F70B
:1048300067EB80E190E00E949723C1E1D0E0F701AF
:1048400061917F01CE010E9497232196C931D10544
:10485000B1F7612F89E190E0DF91CF911F91FF9037
:10486000EF900C9497238EE09CE00E944011811100
:1048700002C00E9428110E94072447EA55E066EB17
:1048800075E082EB95E00C94281AEF92FF921F934B
:10489000CF93DF938FEEE82E8BE0F82EF70111EB2C
:1048A0008191180F8BE0E63FF807D1F761EB88E3C1
:1048B00090E00E949723C9E3D0E0F70161917F0166
:1048C000CE010E9497232196C034D105B1F7612F04
:1048D0008FE390E0DF91CF911F91FF90EF900C94C8
:1048E00097238091EF0B8230B0F48091F00B909180
:1048F000F10B8938934178F48091F20B9091F30B8E
:104900008938934140F48091F40B9091F50B059711
:10491000843C910510F00E9456110E94452447EAFC
:1049200055E06EE474E082EB95E00C94281A0C9448
:10493000E6410F931F93CF930E94AB2390E080E05A
:104940000E949724082F81E090E00E949724C82FAE
:1049500082E090E00E949724182F83E090E00E946C
:104960009724053A41F596EF9C0F9B3520F51230C0
:1049700010F5C10FCB558C131EC00091000210E042
:1049800030E020E04BEB55E060EC75E082EB95E029
:104990000E94BF1A0091330210E030E020E045ECA5
:1049A00055E060EC75E082EB95E00E94BF1ACF9174
:1049B0001F910F9108954AEC55E060EC75E082EB91
:1049C00095E0CF911F910F910C94281AAF92BF924E
:1049D000CF92DF92EF92FF920F931F93CF93DF93CB
:1049E000CDB7DEB7A0970FB6F894DEBF0FBECDBF30
:1049F00080914509882341F164EE75E080E00E94D2
:104A0000552269EF75E081E00E94552282E00E9404
:104A1000CB170E94B11161E27CE083E00E94552235
:104A20008FEF80932D02A0960FB6F894DEBF0FBED5
:104A3000CDBFDF91CF911F910F91FF90EF90DF904D
:104A4000CF90BF90AF9008950091110BD090120BB2
:104A50001091130B8091A50B883008F080E0E82FAF
:104A6000F0E0E05FFC4F90819E012F5F3F4F5901C6
:104A70009F3F09F0A5C06EE076E0C9010E94B945EC
:104A800031E0D31609F4EFC082E0D81609F4F0C083
:104A90007EEDC72E75E0D72E8FEF800F32EEE32E1E
:104AA00035E0F32E883050F4202F2150330BF901DC
:104AB000EE0FFF1FE050FD4FE080F18044E150E039
:104AC00060E270E081E29CE00E94A745F501019060
:104AD0000020E9F7AF01415051094A195B094531FE
:104AE000510510F044E150E084E190E0841B950B07
:104AF00096958795082FB5018F5D934F0E949E452F
:104B0000F70101900020E9F73197EE19FF09011133
:104B100001C001E0402F50E0E417F50708F4AF01B1
:104B2000B70181E29CE00E949E4583E0F601A2E38A
:104B3000BCE001900D928A95E1F71092350C61E28C
:104B40007CE080E00E945522112309F496C08AE59A
:104B5000123008F094C024E0129FF0011124E45BAD
:104B6000F44F90812181328143814F933F932F9362
:104B70009F931F928F9383E296E09F938F931F9250
:104B800080E18F938E010F5E1F4F1F930F930E9442
:104B9000CF45B80181E00E94552282E00E94CB17E8
:104BA0000E94B11161E27CE083E00E9455228FEF08
:104BB00080932D020FB6F894DEBF0FBECDBF33CF6A
:104BC000E2E0EE2EF12C823039F021E090E08130ED
:104BD00009F020E0E22EF92E0E946A10E114F1049F
:104BE000D9F420E030E040E05FE30E94FD410E9404
:104BF000E7427F936F9384E196E09F938F931F9298
:104C000080E18F93BF92AF920E94CF450FB6F89488
:104C1000DEBF0FBECDBF34CFEA94EF2809F030CF0E
:104C200020E030E048EC52E40E94CD4320E030E048
:104C300040E05FE30E94FD410E94E742CB0164E651
:104C400070E00E944F449F938F937F936F9389E10D
:104C500096E09F938F931F9280E18F93BF92AF92C4
:104C60000E94CF45D3CF66EDC62E65E0D62E14CF79
:104C70005AEDC52E55E0D52E0FCF88E56CCF90E0CC
:104C800020E030E040E071CF8F929F92AF92BF92D0
:104C9000CF92DF92EF92FF920F931F93CF93DF9308
:104CA000CDB7DEB768970FB6F894DEBF0FBECDBFA5
:104CB00080E30E948F0E8CE20E948F0E81E30E949F
:104CC0008F0E8BE20E948F0E80E10E948F0E8AE28F
:104CD0000E94850E8DE10E94850E89E10E94850E5D
:104CE0008BE10E94850E87E10E94850E86E30E947B
:104CF000990E87E30E94990E88E30E94990E89E33A
:104D00000E94990E8AE30E94990E8EE30E94990EEA
:104D10008FE30E94990E80E40E94990E81E40E9424
:104D2000990E82E40E94990E83E40E94990E84E415
:104D30000E94990E85E40E94990E8EE10E94990EC0
:104D40008FE10E94990E80E20E94990E81E20E94FA
:104D5000990E82E20E94990E83E20E94990E84E2EB
:104D60000E94990E85E20E94990E82E10E94990E9E
:104D700083E10E94990E82E00E94990E83E00E94D6
:104D8000990E8FE00E94990E8EE00E94990E84E1A8
:104D90000E94990E85E10E94990E86E10E94990E6B
:104DA00088E10E94990E8AE10E94990E8CE10E948E
:104DB000990EE091460CF091470C82E08083E091DF
:104DC000420CF091430C1082E091440CF091450CA0
:104DD00080E1808310924E0CE0914A0CF0914B0CD4
:104DE00086E08083E091480CF091490C80818061DD
:104DF0008083E091480CF091490C80818860808329
:104E0000E091480CF091490C808180688083E091AA
:104E1000480CF091490C80818F7D808381E08093E4
:104E200034021092A40B6FE276E086E39CE00E94CD
:104E3000201A80E20E9465076EE376E086E39CE03C
:104E40000E94201A88E692E00E94C11880913402E4
:104E5000882321F086E294E00E9462188091340257
:104E6000882321F089E496E00E94621890E080E0B7
:104E70000E949724182F81E090E00E949724F82E3A
:104E800082E090E00E949724E82E83E090E00E9468
:104E90009724D82E153A51F586EF8F0D8B3530F5C6
:104EA00021E02E1518F18F2D8E0D8B55D8121EC0B6
:104EB000F0920002E09233020F2D10E030E020E08B
:104EC0004BEB55E06FE676E082EB95E00E94BF1A6F
:104ED0000091330210E030E020E045EC55E06FE651
:104EE00076E082EB95E00E94BF1A13C084E68093BF
:104EF000000281E080933302153A09F4BEC30E9498
:104F0000AB2344E756E06FE676E082EB95E00E9443
:104F1000281A80E190E00E949724F82E89E190E021
:104F20000E949724882E87EBF812D2C38E010F5F60
:104F30001F4F5801A1E1CA2ED12C902EE12EC6019F
:104F40000E949724D5018D935D01BFEFCB1ADB0A38
:104F5000E9E1CE16D10499F7C8010896D8012D9140
:104F60008D01F20EA817B907C9F78F10B1C3892DAB
:104F70009E2D0E944011882309F4AAC389819A8139
:104F8000AB81BC8180930E0C90930F0CA093100CFE
:104F9000B093110C8D819E81AF81B8858093120CE6
:104FA0009093130CA093140CB093150C4DE856E09D
:104FB00066EB75E082EB95E00E94281A80E290E0B3
:104FC0000E949724F82E87E390E00E949724A82E51
:104FD000B5ECFB1284C38E010F5F1F4F4801F1E255
:104FE000CF2ED12CB02EE12EC6010E949724F401C1
:104FF00081934F01FFEFCF1ADF0A29E3C216D104D4
:1050000099F7C8014896D8012D918D01F20EA81785
:10501000B907C9F7AF1063C38B2D9E2D0E94FA0FFD
:10502000882309F45CC388E1EB2DFE2DA6EFBBE0DD
:1050300001900D928A95E1F74DE856E06DEA75E032
:1050400082EB95E00E94281A88E390E00E94972462
:10505000F82E8FE390E00E949724882EB1EBFB128C
:1050600045C38E010F5F1F4F5801E9E3CE2ED12CAF
:10507000902EE12EC6010E949724F50181935F01D5
:10508000FFEFCF1ADF0A20E4C216D10499F7C80156
:105090000796D8012D918D01F20E8A179B07C9F74B
:1050A0008F1024C38981823008F020C38A819B81BC
:1050B0008938934108F01AC38C819D8189389341C6
:1050C00008F014C38E819F810597843C910508F0F8
:1050D0000DC387E0E92DFE2DAFEEBBE001900D92F0
:1050E0008A95E1F74DE856E06EE474E082EB95E0D6
:1050F0000E94281A84E1E8E3FBE0DF01282F1D92DB
:105100002A95E9F7E4E2FBE0DF011D928A95E9F7D1
:105110000E94D90E0091E30B1091E40B2091E50B56
:105120003091E60B45E554E06EE474E081E594E0EF
:105130000E94BF1A0091E70B1091E80B2091E90B38
:105140003091EA0B4AE554E06EE474E081E594E0C6
:105150000E94BF1A1092EB0B1092EC0B1092ED0B09
:105160001092EE0B1092DB0B1092DC0B1092DD0B09
:105170001092DE0B1092DF0B1092E00B1092E10BFD
:105180001092E20BF894109280008AE080938100E4
:1051900082E490E0909389008093880082E080937D
:1051A0006F00789410924C0B10924D0B10924E0B96
:1051B00010924F0B1092500B1092510B1092520BF9
:1051C0001092530B1092550B1092540B1092010B2E
:1051D0001092020B1092030B1092040B1092560BBC
:1051E0001092070B1092060B1092400B1092410B7D
:1051F0001092420B1092430B1092440B1092450BED
:105200001092460B1092470B10922C0B10922D0B04
:1052100010922E0B10922F0B1092300B1092310B1C
:105220001092320B1092330B8091EF0B811107C05B
:1052300060E00E945B1D60E081E00E945B1D64E015
:1052400084E10E943A1681E00E9434168BE39FE1CC
:105250000197F1F78091A60D8D7F8093A60D886050
:105260000E9434168FEF80932D0280E00E94CB17AE
:1052700081E00E94CB1782E00E94CB1783E00E945E
:10528000CB1780918B0D90918C0D906190938C0D2C
:1052900080938B0D80917C0D90917D0D906190930A
:1052A0007D0D80937C0D80916D0D90916E0D9061C0
:1052B00090936E0D80936D0D80915E0D90915F0DBA
:1052C000906190935F0D80935E0D80914F0D909152
:1052D000500D90619093500D80934F0D8091400D33
:1052E0009091410D90619093410D8093400D80917C
:1052F000310D9091320D90619093320D8093310D6C
:105300008091220D9091230D90619093230D8093B5
:10531000220D8091130D9091140D90619093140DB6
:105320008093130D8091040D9091050D90619093E1
:10533000050D8093040D8091F50C9091F60C906111
:105340009093F60C8093F50C8091E60C9091E70C0D
:1053500090619093E70C8093E60C8091D70C90912C
:10536000D80C90619093D80C8093D70C0E94030EB8
:105370000E941708811101C081E0809305020E94FC
:10538000E9070E94DA070E9417088111809305023D
:10539000109105021093110B0E9400088093120BCC
:1053A000209103022093130B90912A099093140BE0
:1053B00010932F098093080220930702909306020E
:1053C0008091750E9091760E90619093760E8093F9
:1053D000750E8091660E9091670E90619093670EA6
:1053E0008093660E8091570E9091580E9061909325
:1053F000580E8093570E8091480E9091490E9061FF
:105400009093490E8093480E8091390E90913A0EF8
:10541000906190933A0E8093390E80912A0E90916C
:105420002B0E906190932B0E80932A0E80911B0E71
:1054300090911C0E906190931C0E80931B0E809196
:105440000C0E90910D0E906190930D0E80930C0EAA
:105450008091FD0D9091FE0D90619093FE0D8093D3
:10546000FD0D8091EE0D9091EF0D90619093EF0DF9
:105470008093EE0D8091DF0D9091E00D90619093FF
:10548000E00D8093DF0D8091D00D9091D10D906152
:105490009093D10D8093D00D8091C10D9091C20D4C
:1054A00090619093C20D8093C10D8091B20D909147
:1054B000B30D90619093B30D8093B20DE5E1FBE0E5
:1054C0008FE0DF011D928A95E9F7EDE3F9E086E0D0
:1054D000DF011D928A95E9F70CEA18E05CE9C52E18
:1054E00058E0D52E66EAE62E62E0F62E70EBA72E87
:1054F00078E0B72EF80111928F01D6011D921D920E
:105500001D921D926D0161E0F70181917F010E9462
:105510002603A016B10671F760E08DE30E94B20386
:105520000E94D102E5E0F9E08193919329E0E53210
:10553000F207D1F79C0144E0220F331F4A95E1F7AF
:1055400030932709209326099093A70B8093A60BED
:105550001092280980E090E0A0E8BFEB80932E0233
:1055600090932F02A0933002B09331028AB1807FD2
:105570008AB98BB18F608BB910920D0B10920E0B04
:1055800010920F0B1092100B1092090B10920A0B35
:1055900010920B0B10920C0B1092A80B1092200C77
:1055A000109244091092330910923409109235096F
:1055B0001092360910923C0910923809109239095C
:1055C00010923A0910923B091092370910921F0C61
:1055D0000E94B9088091110B9091120B8150883074
:1055E00008F080E08093A50B909330090E94F5228B
:1055F00010926C0B10926D0B10926E0B10926F0B41
:1056000061E086E00E94B2038AB1807F8AB98BB1E3
:105610008F608BB98091690081608093690081E01F
:105620008CBBE89A8091690080618093690084E076
:105630008CBBEA9A8091A80B882309F45EC00E9473
:105640007F220E94C41C4DE956E06EEA76E083EBAF
:1056500096E068960FB6F894DEBF0FBECDBFDF911F
:10566000CF911F910F91FF90EF90DF90CF90BF905F
:10567000AF909F908F900C94281A05EA10E020E0DC
:1056800030E041E856E06FE676E082EB95E00E947C
:10569000BF1A0F2D10E030E020E04BEB55E06FE635
:1056A00076E082EB95E00E94BF1A0E2D10E030E00C
:1056B00020E045EC55E06FE676E082EB95E00E9455
:1056C000BF1A0D2D10E030E020E049E856E007CC8D
:1056D0000E9428110E94072444E956E069CC0E94E8
:1056E000C90F0E94C92344E956E0A8CC0E94561174
:1056F0000E94452444E956E0F7CC0E94E624A1CF5D
:105700001F920F920FB60F9211242F933F938F93F6
:105710009F93AF93BF938091B30B9091B40BA091E3
:10572000B50BB091B60B3091B20B23E0230F2D37A0
:1057300058F50196A11DB11D2093B20B8093B30BB8
:105740009093B40BA093B50BB093B60B8091B70BAD
:105750009091B80BA091B90BB091BA0B0196A11D15
:10576000B11D8093B70B9093B80BA093B90BB09376
:10577000BA0BBF91AF919F918F913F912F910F9055
:105780000FBE0F901F90189526E8230F0296A11DBB
:10579000B11DD2CF1F920F920FB60F9211240BB6EC
:1057A0000F922F933F934F935F936F937F938F93BA
:1057B0009F93AF93BF93EF93FF938091CF0B909103
:1057C000D00BA091D10BB091D20B892B8A2B8B2BB4
:1057D000E1F19091BE0BE091BF0BF091C00B808185
:1057E000892780838091CF0B9091D00BA091D10B12
:1057F000B091D20B181619061A061B069CF480915C
:10580000CF0B9091D00BA091D10BB091D20B0197FF
:10581000A109B1098093CF0B9093D00BA093D10B2A
:10582000B093D20BFF91EF91BF91AF919F918F9168
:105830007F916F915F914F913F912F910F900BBE90
:105840000F900FBE0F901F901895809132020E940A
:105850003D06E8CF1F920F920FB60F9211240BB6A0
:105860000F922F933F934F935F936F937F938F93F9
:105870009F93AF93BF93EF93FF9386E39CE00E94C7
:10588000F606FF91EF91BF91AF919F918F917F911C
:105890006F915F914F913F912F910F900BBE0F90A1
:1058A0000FBE0F901F9018951F920F920FB60F9278
:1058B00011240BB60F922F938F939F93EF93FF9327
:1058C000E091460CF091470C8081E0914C0CF091F6
:1058D0004D0C82FD1DC0908180914F0C8F5F8F73A6
:1058E0002091500C821741F0E0914F0CF0E0EA5CFF
:1058F000F34F958F80934F0CFF91EF919F918F9174
:105900002F910F900BBE0F900FBE0F901F90189508
:105910008081F2CF1F920F920FB60F9211240BB617
:105920000F922F933F934F935F936F937F938F9338
:105930009F93AF93BF93EF93FF930E94C41CFF917B
:10594000EF91BF91AF919F918F917F916F915F91F7
:105950004F913F912F910F900BBE0F900FBE0F9064
:105960001F9018951F920F920FB60F9211240BB62D
:105970000F922F933F934F935F936F937F938F93E8
:105980009F93AF93BF93EF93FF930E944908FF91BA
:10599000EF91BF91AF919F918F917F916F915F91A7
:1059A0004F913F912F910F900BBE0F900FBE0F9014
:1059B0001F9018951F920F920FB60F921124A89561
:1059C0000F900FBE0F901F9018951F920F920FB659
:1059D0000F9211240BB60F922F933F934F935F9327
:1059E0006F937F938F939F93AF93BF93EF93FF93A7
:1059F0000E94380B8091700B9091710BA091720BEB
:105A0000B091730BFF91EF91BF91AF919F918F91E7
:105A10007F916F915F914F913F912F910F900BBEAE
:105A20000F900FBE0F901F9018951F920F920FB6F8
:105A30000F9211240BB60F920F931F932F933F9346
:105A40004F935F936F937F938F939F93AF93BF9386
:105A5000EF93FF93F8948091980890919908A09102
:105A60009A08B0919B080196A11DB11D80939808DA
:105A700090939908A0939A08B0939B088091490B42
:105A80008823C9F180913C0B90913D0BA0913E0B76
:105A9000B0913F0B892B8A2B8B2B69F14091400BE6
:105AA0005091410B6091420B7091430B8091440BDC
:105AB0009091450BA091460BB091470B48175907A1
:105AC0006A077B0769F48091DB0B9091DC0BA09156
:105AD000DD0BB091DE0B181619061A061B065CF4D6
