:100000000C94DA020C94DF210C940B030C94A821BD
:100010000C940B030C940B030C940B030C940B0328
:100020000C940B030C940B030C940B030C940B0318
:100030000C940B030C94BC0F0C940B030C94DC205D
:100040000C940B030C943D310C940B030C940B0398
:100050000C940B030C940B030C940B030C942D5871
:100060000C940B030C94EB140C94C1140C940B0320
:100070000C940B030C940B030C940B030C940B03C8
:100080000C94D1200C940B030C940B030C940B03D5
:100090000C940B030C940B030C940B030C940B03A8
:1000A0000C940B030C940B030C94A9200C940B03DD
:1000B0000C940B030C940B030C940B030C948120F5
:1000C0000C940B030C940B030C940B030C940B0378
:1000D0000C940B030C940B030C940B030C940B0368
:1000E0000C940B030C94531B0C942C290C94A84ACD
:1000F0000C94A7280C9419550C943E550C94C74A9F
:100100000C947D4B0C94D3290C94F06A0C940D291B
:100110000C940D2A0C944C550C9497070C94684A37
:100120000C94F7290C94B4290C9450550C94F81A9B
:100130000C94CE4B0C94E8070C94484B0C94954BC4
:100140000C94E14C0C94334C0C9471030C948F2858
:100150000C944F280C9415290C94A04A0C945A1B0B
:100160000C94461B0C94A1150C9456040C94205529
:100170000C9415550C944E030C94E44A0C94305591
:100180000C94E4280C94BB070C944B4C0C94B828AA
:100190000C94CE280C94DD290C942A550C9404045C
:1001A0000C94B44B0C9411550C94184B0C9426558C
:1001B0000C943E290C94AA070C94E64B0C94304BFB
:1001C0000C94194C0C949D290C94B7030C9483291E
:1001D0000C94F1270C949A4B0C9495290C94864A14
:1001E0000C9473070C941C1B0C941D550C94210348
:1001F0000C94FE4B0C94272A0C94654C0C94BE294D
:100200000C943F2A0C94974C0C9442550C946C29F6
:100210000C947F030C94FA540C947D4C0C94571B53
:100220000C94AD4A0C9446550C94FB280C9464280D
:100230000C94FE4A0C94FF540C94634B0C94B14CF8
:100240000C94C94C0C9455040C94311B0C947A28D2
:100250000C948D1B0C945D030C9455290C942F2841
:100260000C94DF4A0C94F94C0C9434550C9438558A
:100270000C9486076364696E6F70737578585B00C1
:10028000205B27242720666F722068656C705D00F4
:100290006F6B006572726F723A20007C52504D3A5B
:1002A000007C4D3A007C46534D3A003C4D506F73F4
:1002B0003A00000020002300260029002C002F0017
:1002C000320000010000030106010901242420611D
:1002D0006C6C2C20246E2071756572792C20246E34
:1002E0003D76616C207365742C20244920696E660C
:1002F0006F2C203F20737461747573002434342094
:10030000636F6F726420756E69747320303D73740F
:1003100065707320313D6D6D20323D696E636800FC
:10032000243435206261636B6C617368206D696E83
:10033000207370656564206D6D2F6D696E002434C7
:1003400033206261636B6C617368206D6178207328
:1003500070656564206D6D2F6D696E0024343020EA
:100360006261636B6C617368206175746F2C20240B
:1003700034312D24343220582F5A20737465707311
:1003800000243332206A6F6720646563656C206DDA
:10039000696E2073746570732028303D6F6666291E
:1003A00000243330207370696E646C6520505052A5
:1003B0002C202433312062757A7A6572002432361B
:1003C00020582073746570732F6D6D2C2024323784
:1003D00020582064697220696E7665727400243238
:1003E000302D2432352058206D6F746F722F757345
:1003F0007465702F70697463682F6D61782F7261F6
:100400007069642F616363656C00243136205A2063
:1004100073746570732F6D6D2C20243137205A2032
:1004200064697220696E76657274002431302D24FF
:100430003135205A206D6F746F722F75737465702B
:100440002F70697463682F6D61782F7261706964B1
:100450002F616363656C0024322D24332073796E21
:10046000632066656564206D696E2F6D6178206D0F
:100470006D2F7265760024302D2431206173796EE2
:10048000632066656564206D696E2F6D6178206DEF
:100490006D2F6D696E002C454550524F4D5D005BD0
:1004A0004F50543A005B5645523A00000021002458
:1004B0000027002A002D0030003300010100000455
:1004C0000107010A0100000A0B02090C0D0E0807C2
:1004D0000304010000000000000000000000000014
:1004E000000000000000000000000000000000000C
:1004F00000121110000000000000000000000000C9
:100500000000000000000000000000010210202098
:100510000808102040102040800201020108040257
:1005200001010204081020408080402010080402CD
:100530000180040201804020100804020108040226
:10054000010102040810204080010204081020402C
:100550008000002200250028002B002E00310034EE
:100560000002010000050108010B01050505050752
:100570000508080808020202020A0A08080404041E
:10058000040101010101010101030303030303034A
:1005900003040707070C0C0C0C0C0C0C0C020202D9
:1005A0000206060606060606060B0B0B0B0B0B0BCC
:1005B0000B02F06A11241FBECFEFD1E2DEBFCDBF28
:1005C00000E00CBF1AE0A0E0B2E0EAEFFEEE00E0CF
:1005D0000BBF02C007900D92AC3EB107D9F723E1E3
:1005E000ACEEBAE001C01D92A83AB207E1F712E002
:1005F000CAEDD2E000E006C021970109802FFE017C
:100600000E942670C93DD10780E00807A9F70E9423
:100610008C580C947B770C940000811109C0609178
:10062000B3107091B4108091B5109091B6100895E8
:100630006091B9107091BA108091BB109091BC106C
:100640000895AF92BF92CF92DF92EF92FF920F93F5
:100650001F93CF93DF936C017B018B01040F151F58
:10066000EB015E01AE18BF08C017D10759F06991C0
:10067000D601ED91FC910190F081E02DC601199514
:10068000892B79F7C501DF91CF911F910F91FF90D1
:10069000EF90DF90CF90BF90AF900895FC01538D05
:1006A000448D252F30E0842F90E0821B930B54174C
:1006B00010F0CF96089501970895FC01918D828DD9
:1006C000981761F0A28DAE0FBF2FB11D5D968C9172
:1006D000928D9F5F9F73928F90E008958FEF9FEFB1
:1006E0000895FC01918D828D981731F0828DE80F6D
:1006F000F11D858D90E008958FEF9FEF0895FC0127
:10070000918D228D892F90E0805C9F4F821B9109F3
:100710008F73992708958EE091E10E947F0321E075
:10072000892B09F420E0822F0895FC01A48DA80FE5
:10073000B92FB11DA35ABF4F2C91848D90E0019623
:100740008F739927848FA689B7892C93A089B18943
:100750008C91837080648C93938D848D981306C0E4
:100760000288F389E02D80818F7D80830895EF9248
:10077000FF920F931F93CF93DF93EC0181E0888F5B
:100780009B8D8C8D98131AC0E889F989808185FF2B
:1007900015C09FB7F894EE89FF896083E889F989CD
:1007A00080818370806480839FBF81E090E0DF91CF
:1007B000CF911F910F91FF90EF900895F62E0B8D22
:1007C00010E00F5F1F4F0F731127E02E8C8D8E11DD
:1007D0000CC00FB607FCFACFE889F989808185FF44
:1007E000F5CFCE010E949503F1CFEB8DEC0FFD2FDD
:1007F000F11DE35AFF4FF0829FB7F8940B8FEA89FF
:10080000FB8980818062CFCFCF93DF93EC01888D0D
:100810008823B9F0AA89BB89E889F9898C9185FD7B
:1008200003C0808186FD0DC00FB607FCF7CF8C9109
:1008300085FFF2CF808185FFEDCFCE010E94950329
:10084000E9CFDF91CF91089580E090E0892B29F0E6
:100850000E948B0381110E94000080E090E0892BB0
:1008600049F080E090E0892B29F00E94000081117E
:100870000E94000080E090E0892B49F080E090E049
:10088000892B29F00E94000081110E94000080E065
:1008900090E0892B49F080E090E0892B29F00E94BC
:1008A000000081110C9400000895089590E080E00C
:1008B00008958F929F92AF92BF92CF92DF92EF9264
:1008C000FF92C090E010D090E110F12CE12CCC0C04
:1008D000DD1CEE1CFF1CC114D104E104F10439F14C
:1008E000A70196010E94077097FF04C06C0D7D1D43
:1008F0008E1D9F1D0E943F6E20E030E044EB53E4CC
:100900000E94F46E4B015C01C701B6010E943F6E6C
:100910009B01AC01C501B4010E94956DFF90EF9061
:10092000DF90CF90BF90AF909F908F90089560E040
:1009300070E0CB01F3CF4F925F926F927F928F92D4
:100940009F92AF92BF92CF92DF92EF92FF924B01B4
:100950005C017A01452BA9F121503109B90190E0E0
:1009600080E00E943D6E20E030E044EB53E40E94C2
:10097000F46E2B013C01B70190E080E00E943D6ED7
:100980009B01AC01C301B2010E94956D6B017C011A
:10099000C501B4010E9459049B01AC01C701B60115
:1009A0000E94236D6B017C0120E030E044E353E4BE
:1009B0000E94EF6E18164CF420E030E044EB53E454
:1009C000EDCFC12CD12C7601E3CF20E030E044E321
:1009D00053ECC701B6010E94906D18165CF020E040
:1009E00030E044EB53E4C701B6010E94246D6B0173
:1009F0007C01EBCFC701B601FF90EF90DF90CF9065
:100A0000BF90AF909F908F907F906F905F904F902E
:100A100008956091090C70910A0C80910B0C9091D3
:100A20000C0C0895809103018370823029F4109298
:100A3000F70B8091F70B08958130D9F78093F70B6E
:100A4000F8CF8091AF119091B011807299272091C9
:100A5000BE1125FF08C0892B19F481E080930402A0
:100A6000809104020895892BD9F310920402F8CFE3
:100A70008091EB1185FF04C082E08093F60B06C0E5
:100A80008091DC1185FF05C01092F60B8091F60B6A
:100A900008958091CD1185FFF7CF81E0EECF809151
:100AA000631285FD1EC08091541285FD1CC080918B
:100AB000451285FD1AC08091361285FD18C08091BF
:100AC000271285FD16C08091181285FD14C08091F3
:100AD000091285FD12C08091FA1185FD10C080E0D9
:100AE000089581E0089582E0089583E0089584E008
:100AF000089585E0089586E0089587E0089588E0E8
:100B0000089580E0E82FF0E0E154FF4E90819923B2
:100B100041F090539A3018F480932F0C08958F5F12
:100B2000F1CF10922F0C089580912F0C90E0FC01D2
:100B3000E154FF4E208120532A30B0F0019748F055
:100B4000FC01E154FF4E208120532A30B8F78093F6
:100B50002F0CE0912F0CF0E0E154FF4E8081805388
:100B60008A3010F00C9481050895EBEAF0E1808161
:100B7000918190932D0280932C0282819381909396
:100B80002B0280932A02848195819093290280937D
:100B90002802868197819093270280932602EAECAF
:100BA000F0E18385948590932502809324028585C6
:100BB0008093230286859785909322028093210259
:100BC000808991899093200280931F028289938962
:100BD00090931E0280931D02848980931C02808161
:100BE000918190931B0280931A0282818093190253
:100BF0008381948190931802809317028581968156
:100C00009093160280931502878190859093140229
:100C10008093130281858093120285898093130C3F
:100C200082858093120C8689978990930302809322
:100C3000020280913C0280932E02A4EAB0E18C91E2
:100C40008093110211968D919C91129790931002AE
:100C500080930F0213968D919C91149790930E029E
:100C600080930D0215968C91159790E090930C024D
:100C700080930B0216968C9190E090930A028093D9
:100C80000902808D918D9093110C8093100C8091AE
:100C9000A31080930F0C08958A3170F4E82FF0E0D0
:100CA000EE0FFF1FE951FD4F0190F081E02D3097CD
:100CB00019F06083718308958550863160F4E82FC0
:100CC000F0E0EE0FFF1FE554FD4F0190F081E02DA5
:100CD000309709F060830895F8948091180C9091F2
:100CE000190CA0911A0CB0911B0C8093140C9093CA
:100CF000150CA093160CB093170C78940895F894E3
:100D00001092180C1092190C10921A0C10921B0CC5
:100D10001092140C1092150C1092160C1092170CC5
:100D2000789408950F931F93F8946091180C709124
:100D3000190C80911A0C90911B0C0091140C1091BD
:100D4000150C2091160C3091170C601B710B820B47
:100D5000930B1616170618061906A4F40F5F1F4FFB
:100D60002F4F3F4F0093140C1093150C2093160C2B
:100D70003093170C789461E070E080E090E01F9170
:100D80000F910895611571058105910589F0015054
:100D90001109210931090093140C1093150C2093AB
:100DA000160C3093170C78946FEF7FEFCB01E7CFE1
:100DB0007894E5CF0F931F93F8946091180C70917D
:100DC000190C80911A0C90911B0C78940091140CC2
:100DD0001091150C2091160C3091170C601B710BA3
:100DE000820B930B1F910F9108958091000C81113C
:100DF0000FC08091010C81110BC08091020C8111F8
:100E000007C081E09091030C911103C080E0089528
:100E100081E008952FE0EAEFFBE0DC0101900D9204
:100E20002A95E1F70895FC01118284819581882734
:100E300090719583848308952FB7F8946091BA0FC9
:100E40007091BB0F8091BC0F9091BD0F2FBF089583
:100E500048990EC049990EC08091BA0F9091BB0F6E
:100E6000A091BC0FB091BD0F0196A11DB11D0DC089
:100E70004999F2CF8091BA0F9091BB0FA091BC0F0E
:100E8000B091BD0F0197A109B1098093BA0F90935A
:100E9000BB0FA093BC0FB093BD0F08950F931F938A
:100EA000CF93DF93C3E4D0E1811102C0C5E5D0E167
:100EB0000E940D03161617061806190674F081E035
:100EC000088519852A853B854C855D856E857F85DE
:100ED000041715072607370709F080E0DF91CF9147
:100EE0001F910F910895ECE3F5E08491ECE9F5E0B2
:100EF000E491F0E0EE0FFF1FEF5AFA4FA591B49185
:100F00009C91E82FE095E923EC930895ECE3F5E05C
:100F10008491ECE9F5E0E491F0E0EE0FFF1FEF5A69
:100F2000FA4FA591B491EC91E82BEC930895EBE383
:100F3000F5E08491EBE9F5E0E491F0E0EE0FFF1FBE
:100F4000EF5AFA4FA591B4919C91E82FE095E923CF
:100F5000EC930895EBE3F5E08491EBE9F5E0E4919F
:100F6000F0E0EE0FFF1FEF5AFA4FA591B491EC910C
:100F7000E82BEC9308959091DF10992321F091E0F4
:100F8000811190E0892FE6E3F5E026E935E088233A
:100F900079F08491F9012491E22FF0E0EE0FFF1F28
:100FA000EF5AFA4FA591B491EC91E82BEC93089588
:100FB0008491F9012491E22FF0E0EE0FFF1FEF5A28
:100FC000FA4FA591B4919C91E82FE095E923EECFDB
:100FD0009091D410992321F091E0811190E0892F14
:100FE000E7E3F5E027E935E0882379F08491F9011A
:100FF0002491E22FF0E0EE0FFF1FEF5AFA4FA59178
:10100000B491EC91E82BEC9308958491F90124912B
:10101000E22FF0E0EE0FFF1FEF5AFA4FA591B491C7
:101020009C91E82FE095E923EECFFC012FB7F894CF
:101030008091F20C90E0019666E070E00E94D16F22
:101040009091F30C981779F0A091F20C90E2A99F7F
:10105000D0011124AE5CB34F90E201900D929A95AD
:10106000E1F78093F20C2FBF08958AE1E0E5F2E00A
:10107000AAECB0E101900D928A95E1F70895FC0188
:1010800080819181C2978F399740F0F4828181509D
:101090008032D0F4838194810A978F3D9340A0F4ED
:1010A000858196810A978F37934170F48781908567
:1010B0000A978730974240F481858150843120F42B
:1010C00081E09285923008F080E00895CF93DF931D
:1010D000EC010E943F088823A1F0CE010B960E94EC
:1010E0003F08882371F08E899F89845691098D3A33
:1010F000964230F481E0288D398D213D374008F04B
:1011000080E0DF91CF910895CF93883008F080E0A0
:10111000E82FF0E0EF5CFC4FC081C23008F0C0E087
:1011200024E0C29FF0011124E555FF4E4281538116
:101130000190F081E02DE417F50778F59A012F5F13
:101140003F4F2E1B3F0BDB010E942E702AE096952D
:101150008795779567952A95D1F79A01261B370BC6
:10116000B901C1111CC04E1B5F0B4233510580F009
:10117000CB018E1B9F0B6AE070E00E94D16FCB0108
:101180002AE0289FB001299F700D11246E0F7F1F48
:1011900090E080E00E943D6E0CC0BF01E2CF90E085
:1011A00080E00E943D6E2AE037ED43E25CE30E945E
:1011B000F46ECF910895883008F080E0E82FF0E0D9
:1011C000EF5CFC4F90819F3F31F06091F70F709181
:1011D000F80F0C94840860E070E0CB010895CF9282
:1011E000DF92EF92FF92CF93DF93809114108830BB
:1011F00008F040C0823089F121E090E0813009F0B0
:1012000020E0C22FD92F0E94DB086B017C01CD2B7F
:10121000D9F06091AA0F7091AB0F8091AC0F9091B3
:10122000AD0F6A3071058105910520F46CE370E023
:1012300080E090E00E943D6E9B01AC01C701B601C9
:101240000E94F46E6B017C01C701B601DF91CF9162
:10125000FF90EF90DF90CF9008956091F70F70911D
:10126000F80F80E0DF91CF91FF90EF90DF90CF906B
:101270000C948408D0E0C0E0C6CF4617570770F042
:101280004115510559F0880F991F880F991FFC01CE
:10129000E555FF4E71836083538342830895EBEAE3
:1012A000F0E1A8E4B2E04D915D916D917C911397CE
:1012B000408351836283738314968D919D910D9029
:1012C000BC91A02D84839583A683B7830895FC01E8
:1012D00082819381208131818217930760F0892B6D
:1012E00051F026813781848195812817390718F0BC
:1012F00081E0232B09F480E008958091A3108130D0
:1013000031F0823011F484E4089583E508958DE48A
:1013100008954F925F926F927F928F929F92AF92B9
:10132000BF92CF92DF92EF92FF920F931F93CF93D2
:10133000DF93F82E8A01D62FC72F6091AA1070E094
:1013400090E080E00E943D6E762E872E982EA92E8A
:101350006091A91070E090E080E00E943D6EB62E92
:10136000C72ED82EE92EEF2DF110E1E08BE0E89F9B
:10137000F0011124E653FF4E6581768190E080E014
:101380000E943D6E2B01682EF92E98014D2F5C2F87
:10139000672D782D892D9A2D0E94EF6E181624F452
:1013A000072D182DD92DCA2D2B2D3C2D4D2D5E2D01
:1013B000B8018D2F9C2F0E94EF6E181624F40B2D70
:1013C0001C2DDD2DCE2D20E030E040E85FE3B8019C
:1013D0008D2F9C2F0E94906D87FF04C000E010E0CD
:1013E000D0E8CFE39201462D5F2DB8018D2F9C2FC1
:1013F0000E94EF6E18161CF48201D62DCF2DB80175
:101400008D2F9C2FDF91CF911F910F91FF90EF9027
:10141000DF90CF90BF90AF909F908F907F906F9014
:101420005F904F90089587E0E1E4F2E0A4EAB0E134
:1014300001900D928A95E1F70895FC018081823038
:10144000B8F4818192818938934190F483819481A9
:101450008938934168F425818BEF820F843C40F4F6
:1014600096818BEF890F843C18F481E0291708F4EA
:1014700080E008958091A910853018F485E080936C
:10148000A9108091A910893C18F088EC8093A910CC
:101490008091AA10853018F485E08093AA1080917D
:1014A000AA10893C18F088EC8093AA108091A910AA
:1014B0009091AA10891710F48093AA100895CF93E1
:1014C000DF93FC012481358133FF10C0EC010E94C1
:1014D00021582A813B81621B730B2E85F0E12F9FDF
:1014E0009001112481E06217730708F480E0DF9116
:1014F000CF9108951F93CF93DF93EC018C819D8151
:1015000080FD19829C012F713327232B19F0807ED7
:101510009D838C838C819D8194FB112710F9162764
:1015200096FF04C09F7B9D838C8311E08C819D81FD
:1015300091FD10C011110BC0CE010E945F0A182F3F
:101540008111C0C0812FDF91CF911F9108959260CA
:101550009D838C830E942158AB018A819B81FA0173
:10156000E81BF90B8C819D81112309F45DC085FD79
:101570003EC02A8592FD06C0222321F094609D83FF
:101580008C830BC02E171F0619F010F0211107C015
:1015900082629D838C83598748875B834A838C81D1
:1015A0009D818F71992711E0892B31F28E819F8166
:1015B000892B41F28C819D8191708436910509F4CB
:1015C0008AC008F09AC08232910509F484C008F0FC
:1015D0007BC08130910509F47EC0409709F47BC03F
:1015E000CE010E945F0A882309F4ACCF74C097FD36
:1015F000D6CF86FD0AC02C85A0E12A9F9001112438
:10160000E217F30760F28464BACF87FF0BC02D8521
:10161000A0E12A9F900111248868E217F30708F0DF
:10162000AECFBDCF2C85F4CF85FF12C02A852E17F3
:101630001F0609F080F586FD03C029812F5F2983ED
:1016400097FD19828F7D806191609D838C8323C07B
:1016500090FF0DC097FD03C080619D838C838C81BA
:101660009D819E779D838C835B834A8314C02981EF
:101670002223F1F09C01207C3327232BA1F42B851E
:1016800040E1249F90011124E217F30760F488855C
:101690009985892B51F48C819D8192FF80CF9B7F0E
:1016A0009D838C837CCF8160D0CF19861886F3CF41
:1016B00091FFF1CF8F739D7F98609D838C831986F6
:1016C0001886D2CF10E072CF8134910521F0803599
:1016D000910509F085CFEE81FF81309709F432CF73
:1016E0001995CE010E945F0A882309F42BCF8C81C3
:1016F0009D81977F9D838C8325CF883E910559F3EB
:1017000038F4813C910539F3803D910521F368CF90
:101710008035A1E09A07F9F2803D21E09207D9F2E5
:101720008031914009F05CCFD6CF6EE270E08FEB54
:1017300090E10E942771009741F09C012F5B30419E
:1017400081E090912F0C291708F080E00895E09136
:101750002F0CF0E0E154FF4E808180538A3020F559
:10176000E091C81088E0E89FF0011124EF5BFC4F86
:10177000828193810197D1F40E94950B282F80E0FC
:10178000211126C0E82FF0E0E154FF4E908199230B
:1017900041F09E3231F090539A3008F42F5F8F5F02
:1017A000F1CF81E02230A0F480E0089520E090E0C5
:1017B000E22FF0E0E154FF4E8081882331F0805326
:1017C0008A3008F49F5F2F5FF3CF81E0923060F39F
:1017D0000895CF93DF930097A1F0FC01208122238D
:1017E00081F0EB010E94D16C61157105F1E08F076A
:1017F000910538F47983688381E090E0DF91CF919F
:10180000089590E080E0FACF8F929F92AF92BF92BE
:10181000EF92FF920F931F93CF93DF93009709F4FA
:1018200067C0FC012081222309F462C08B01EC0116
:101830006EE270E00E9427717C01892B71F4B8017F
:10184000CE01DF91CF911F910F91FF90EF90BF904C
:10185000AF909F908F900C94E90BCE010E94D16CB9
:101860004B015C01C70101960E94D16CF8EE8F1606
:10187000F3E09F06A104B104D8F597FD2BC06A30B0
:1018800071058105910554F5F701218120532A3016
:1018900048F42281211106C0AAE0B0E09B01AC010E
:1018A0000E943D7044E6489D9001499D300D1124F1
:1018B000620F731FF8017183608381E090E0DF9114
:1018C000CF911F910F91FF90EF90BF90AF909F909D
:1018D0008F90089560E070E0CB01D6CF643671053B
:1018E00081059105FCF263E670E080E090E0DACFDC
:1018F00090E080E0E4CF80E992E00C94994888235E
:1019000019F08AE50C94F14788E5FCCF68E270E0B5
:1019100080E090E00C943756CF93DF93D82FC5E149
:101920008C9FC001112444E150E060E270E08358D4
:10193000944F0E942071CD9FF0011124E358F44F81
:10194000148ADF91CF910895EF92FF920F931F9326
:10195000CF93DF93CDB7DEB7A0970FB6F894DEBF75
:101960000FBECDBFFE01339696E1DF011D929A9521
:10197000E9F793E099838A836B83298F3A8F4B8FA2
:101980005C8FED8EFE8E0F8F18A3CE0101960E9404
:101990001508A0960FB6F894DEBF0FBECDBFDF913D
:1019A000CF911F910F91FF90EF900895CF930E94D8
:1019B0007754C82F0E946D548111C2600E946254F6
:1019C0008111C4600E9457548111C8600E944F5415
:1019D0008111C0618C2FCF91089590913A028913A3
:1019E0000DC0E1EBF5E0E4919FEF90933A02E23015
:1019F000E1F038F4EE2381F0E13089F060E00C94FE
:101A0000CA54E43049F110F1E530C1F79091730008
:101A10009D7F90937300F2CF10926E00EFCF909164
:101A20006F009D7F90936F00E9CF909170009D7F34
:101A30009093700091E09093B0009091B100987FE6
:101A400094609093B1001092B300D8CF9091710040
:101A50009D7F90937100D2CF909172009D7F909363
:101A60007200CCCFCF93DF93EC0160E08E810E94B7
:101A7000CA5461E08E810E94CA5460E08E810E9447
:101A8000CA548BE891E00197F1F7DF91CF91089567
:101A900080913C028823D9F068E270E080E090E019
:101AA0000E9437566DE270E080E090E00E94EF57B0
:101AB00080E10E94ED0C60E570E080E090E00E9423
:101AC000EF5768E270E080E090E00C94375608959C
:101AD000CF93C82F61E00E94565561E08C2FCF91C3
:101AE0000C94CA54CF93C82F61E00E94565560E011
:101AF0008C2FCF910C94CA5462E00C9456558FEB06
:101B000090E1FC0101900020E9F7CF01805C904159
:101B10008830F0F441E0480F20912F0C30E02F5F27
:101B20003F4FE42FF0E02E173F0740F4E154FF4E03
:101B3000DF0111975C9150834150F3CF21543F4E08
:101B400040E3F90140839927FC01E154FF4E1182E3
:101B500008950E943C482091F70F3091F80FA90199
:101B60004C5F5F4F481759072CF0245031098217FA
:101B7000930744F52091F20BE22FF0E0EE0FFF1FE8
:101B8000EE52F44F4091F30B5091F40B6081718150
:101B9000461B570B91838083840F951F9093F40B02
:101BA0008093F30B2F5F2F702093F20B44E09695F8
:101BB00087954A95E1F79093F80F8093F70F81E0AE
:101BC0008093F50B089595E1899FD0011124A358C6
:101BD000B44F24E1FB0101900D922A95E1F7989F03
:101BE000F0011124E358F44F148A08950F931F93C2
:101BF000CF93DF93EB0109900020E9F72197C61BF3
:101C0000C53108F0C4E1D0E095E1899F800111243D
:101C10000358144FAE01C8010E94057144E150E021
:101C20004C1B5D0B60E270E0C8018C0F9D1F0E9491
:101C30002071F801148ADF91CF911F910F910895BF
:101C4000FF920F931F93CF93DF93CDB7DEB76597C6
:101C50000FB6F894DEBF0FBECDBF1091C810123082
:101C600008F44EC01150193108F018E1BE016F5F41
:101C70007F4F812F0E944B47BE016F5F7F4F80E0F7
:101C80000E94F60DFF24F394F10EBE016F5F7F4FAB
:101C90008F2D0E944B47BE016F5F7F4F81E00E94F6
:101CA000F60D02E0010FBE016F5F7F4F802F0E9493
:101CB0004B47BE016F5F7F4F82E00E94F60D90910F
:101CC000C910913051F58091C8108117D9F0F816DC
:101CD000D1F092E00817B9F08FEF80932F0267E3FD
:101CE00074E083E00E94F60D65960FB6F894DEBFAF
:101CF0000FBECDBFDF91CF911F910F91FF9008953F
:101D000010E0B4CF90E080912F0C895F843120F7F0
:101D100090932F028093D10BE2CF6BE474E083E0C9
:101D20000E94F60D8FEF80932F02DECF1F93CF938B
:101D3000DF93CDB7DEB764970FB6F894DEBF0FBE62
:101D4000CDBF182FBE016F5F7F4F0E942C4A892B99
:101D500089F084E20E94F147612F70E090E080E01A
:101D60004AE00E94F6478DE30E94F147CE010196BA
:101D70000E94584664960FB6F894DEBF0FBECDBFE2
:101D8000DF91CF911F910895CF93DF93CAE6D2E000
:101D900089910E94960E82E0C738D807C9F7DF9173
:101DA000CF910895CF93DF93EC0183E992E00E94F5
:101DB0007E48CE01DF91CF910C9458461F93CF936C
:101DC000DF93EC01162F0E940D6D181739F0612F6B
:101DD000CE01DF91CF911F910C94156DDF91CF91C2
:101DE0001F910895CF93C0913C0280910002C80FCB
:101DF000CB5565EA90E080E00E94DE0E6091000223
:101E000081E090E00E94DE0E60913C0282E090E072
:101E10000E94DE0E6C2F83E090E0CF910C94DE0EDA
:101E2000EF92FF921F93CF93DF938AECE82E80E12D
:101E3000F82EF70115EC8191180F80E1E43EF807C8
:101E4000D1F765EC80E290E00E94DE0EC1E2D0E0C6
:101E5000F70161917F01CE010E94DE0E2196CB3306
:101E6000D105B1F7612F87E390E0DF91CF911F910A
:101E7000FF90EF900C94DE0EEF92FF921F93CF93A2
:101E8000DF938BEAE82E80E1F82EF70117EB8191C2
:101E9000180F80E1E33BF807D1F767EB80E190E0B2
:101EA0000E94DE0EC1E1D0E0F70161917F01CE0119
:101EB0000E94DE0E2196C931D105B1F7612F89E16B
:101EC00090E0DF91CF911F91FF90EF900C94DE0E88
:101ED000EF92FF921F93CF93DF9384EAE82E80E185
:101EE000F82EF70112EB8191180F80E1EB3AF80719
:101EF000D1F762EB88E390E00E94DE0EC9E3D0E008
:101F0000F70161917F01CE010E94DE0E2196C0345F
:101F1000D105B1F7612F80E490E0DF91CF911F915F
:101F2000FF90EF900C94DE0E0C940D6D0F931F93A9
:101F3000CF93DF93062FC82FD0E0CE010E94940FDD
:101F4000182FCE0101960E94940FC82F802F90E089
:101F50000E94940F113D71F491ED9C0F89130AC0FA
:101F6000C33040F4C093A31081E0DF91CF911F9163
:101F70000F91089580E0F9CF1F920F920FB60F9244
:101F800011240BB60F922F933F934F935F936F9350
:101F90007F938F939F93AF93BF93EF93FF93809122
:101FA000221090912310A0912410B0912510892B1C
:101FB0008A2B8B2BE1F190911F10E0912010F09172
:101FC0002110808189278083809122109091231095
:101FD000A0912410B0912510181619061A061B0698
:101FE0009CF48091221090912310A0912410B09124
:101FF00025100197A109B109809322109093231015
:10200000A0932410B0932510FF91EF91BF91AF9151
:102010009F918F917F916F915F914F913F912F9100
:102020000F900BBE0F900FBE0F901F9018958091D0
:102030003A020E94ED0CE8CFFB0101900020E9F785
:102040003197AF01461B570BDC01ED91FC910280EB
:10205000F381E02D19946115710511F00C941C1099
:1020600090E080E008950F931F93CF9380917E12AC
:102070008D7F80937E1288600E94EB470DE71BE006
:10208000C0E0E0918112CE1790F1E150F0E0E2590A
:10209000FD4E848980680E94EB47B8018EE692E18C
:1020A0000E942B10CF5F0B5E1F4FC43051F7E091A1
:1020B0002F02E430F0F48091D10B90918112E91756
:1020C00010F0EFEFE90FF0E0E259FD4E9489890F2F
:1020D00080680E94EB4780917E12982F92609093C7
:1020E0007E128A60CF911F910F910C94EB47EC2FD9
:1020F000CDCFCF911F910F910895AF92BF92CF9204
:10210000DF92EF92FF920F931F93CF93DF93909103
:102110003B02992309F449C0833009F446C06701A2
:102120007801E9018A015B0163E376E08EE091E1E9
:102130000E942B106EE574E08EE091E10E942B105E
:1021400061E376E08EE091E10E942B10B5018EE014
:1021500091E10E942B1061E376E08EE091E10E9414
:102160002B10B8018EE091E10E942B1061E878E01D
:102170008EE091E10E942B10BE018EE091E10E9461
:102180002B1080E20E94F1474AE0C701B6010E948D
:10219000F647DF91CF911F910F91FF90EF90DF9065
:1021A000CF90BF90AF900C945246DF91CF911F918A
:1021B0000F91FF90EF90DF90CF90BF90AF90089578
:1021C000EF92FF920F931F938EEF92E10E941307FD
:1021D0008FEE92E10E94130780EE92E10E941307B6
:1021E00081ED92E10E94130782EC92E10E941307B5
:1021F0000E94D60C8093F90BE82EF12C10E000E041
:1022000023E634E047E654E06BE674E082E00E94A7
:102210007D101F910F91FF90EF900895EF92FF9224
:102220000F931F932FB7F8944091B3105091B410AF
:102230006091B5107091B6108091B9109091BA105C
:10224000A091BB10B091BC101092B3101092B410BA
:102250001092B5101092B6101092B9101092BA10D8
:102260001092BB101092BC102FBF14161506160644
:1022700017062CF0181619061A061B067CF47A01AC
:102280008B01E80EF91E0A1F1B1F2EE634E044E7FF
:1022900054E067E774E082E00E947D101F910F9187
:1022A000FF90EF900895EF92FF920F931F93CF93BB
:1022B000DF9390913B029923B1F18330A1F1E901C1
:1022C0008A017B0163E376E08EE091E10E942B10AE
:1022D0006EE574E08EE091E10E942B1061E376E000
:1022E0008EE091E10E942B10B7018EE091E10E94F7
:1022F0002B1061E376E08EE091E10E942B10B80193
:102300008EE091E10E942B1061E878E08EE091E18F
:102310000E942B10CE01DF91CF911F910F91FF9062
:10232000EF900C945846DF91CF911F910F91FF9041
:10233000EF900895CF92DF92EF92FF920F931F9349
:10234000CF93DF93CDB7DEB72F970FB6F894DEBFEC
:102350000FBECDBF8C01C090C910D12CF12CE12C47
:10236000CC0CDD1CEE1CFF1C8091310C90E0B0E029
:10237000A0E022E0880F991FAA1FBB1F2A95D1F762
:102380008C299D29AE29BF29209115106C017D0152
:10239000C22A80912E0C90E0B0E0A0E033E0880FDC
:1023A000991FAA1FBB1F3A95D1F7C82AD92AEA2A32
:1023B000FB2A8091290C90E0B0E0A0E044E0880F77
:1023C000991FAA1FBB1F4A95D1F7C82AD92AEA2A02
:1023D000FB2ACE0101960E940A078D8190E0B0E0B1
:1023E000A0E055E0880F991FAA1FBB1F5A95D1F78F
:1023F000C82AD92AEA2AFB2A98014BE754E06BE65F
:1024000074E082E00E9453118701760120E834E0F5
:102410004BE754E06BE674E082E00E947D10E090B0
:10242000C810F12C10E000E024E834E04BE754E061
:102430006BE674E082E00E947D10E090A20FF090C5
:10244000A30F10E000E028E834E04BE754E06BE62F
:1024500074E082E00E947D102F960FB6F894DEBFE4
:102460000FBECDBFDF91CF911F910F91FF90EF90E5
:10247000DF90CF90089589E493E10E9413078AE3E7
:1024800093E10E9413078BE293E10E9413078CE112
:1024900093E10E9413078DE093E10E9413072CE85B
:1024A00034E045E954E06BE674E082E00C945311AB
:1024B0000F931F93CF93DF93EC018B01FB0184817A
:1024C000958180759170409741F49E0145E954E0F3
:1024D0006BE674E082E00E945311F801848182FF70
:1024E0000CC09E0149E954E06BE674E082E0DF91A4
:1024F000CF911F910F910C945311DF91CF911F91A8
:102500000F9108950F931F93CF93DF938C01EA01EE
:10251000FC018481958180759170409759F481E028
:10252000FB0180839A0145E954E06BE674E082E0A8
:102530000E945311F801848182FF0CC09E0149E979
:1025400054E06BE674E082E0DF91CF911F910F9130
:102550000C945311DF91CF911F910F910895CF9358
:10256000C091F80BCC23C9F080919810811118C04C
:10257000C0916710C11114C090917F0F80917E0FA0
:1025800098130EC01092F80B2EE934E044E754E0A3
:1025900067E774E082E00E9453118C2FCF91089579
:1025A000C1E0FBCFFF920F931F93CF93DF930E9465
:1025B000AF128823D9F166EB74E080E00E94F60D3B
:1025C00040E150E060E270E08DEF90E10E94207108
:1025D00084E0EBECF4E0A9EFB0E101900D928A9574
:1025E000E1F70E947D0980930C1110920D1189EF83
:1025F00090E1009721F0BC0181E00E94E30D82E0B0
:102600000E948C0C0E94024689EF90E1892B29F0F0
:1026100069EF70E183E00E94E30D8FEF80932F025A
:10262000DF91CF911F910F91FF9008950E940905AE
:10263000D62FF72EC82F80911410883008F080E034
:10264000E82FF0E0EF5CFC4F90819F3F09F06CC0F9
:1026500060ED74E08EE19BE00E94327191E048EA07
:1026600054E0F91639F0E2E040EB54E0FE1202C00B
:102670004CEA54E08FEF8D0F883008F0B7C02D2F53
:102680002150330BF901EE0FFF1FEF5DFC4F8081EE
:10269000918120E06EE17BE00E946B4689EF90E142
:1026A000009721F0BC0180E00E94F60DCC2309F4D4
:1026B000A0C0DAE5C23008F09EC034E0C39FF0014C
:1026C0001124E151F04FC08111810281F38044E176
:1026D00050E060E270E089E09BE00E942071FF9290
:1026E0000F931F93CF931F92DF9385EE94E09F93F8
:1026F0008F931F9284E18F9389E09BE09F938F9348
:102700000E944871EDB7FEB73C960FB6F894FEBF35
:102710000FBEEDBF97FF74C090E080E0875F944FDD
:1027200020E2FC0120836FC002E010E0823039F02B
:1027300021E090E0813009F020E0022F192F0E9463
:10274000DB080115110509F520E030E040E05FE30A
:102750000E94246D0E940E6E7F936F9386ED94E02D
:102760009F938F931F9280E18F938EE19BE09F93C5
:102770008F930E9448712DB73EB7285F3F4F0FB629
:10278000F8943EBF0FBE2DBF69CF0130110509F08F
:1027900065CF20E030E048EC52E40E94F46E20E087
:1027A00030E040E05FE30E94246D0E940E6ECB019A
:1027B00064E670E00E94D16F9F938F937F936F9335
:1027C0008BED94E09F938F931F9280E18F938EE126
:1027D0009BE09F938F930E9448718DB79EB70A9696
:1027E0000FB6F8949EBF0FBE8DBF38CF84EB94E038
:1027F00050CFD8E562CFC0E010E000E0F12C67CF09
:10280000843108F48BCF0E947D0980931C0B1092B9
:102810001D0B69E07BE0F0CEEF92FF920F931F93C8
:10282000CF930E94F20E90E080E00E94940F082F58
:1028300081E090E00E94940FC82F82E090E00E9417
:10284000940F182F83E090E00E94940F053A61F5F1
:1028500096EF9C0F9B3540F5123030F5C10FCB55EC
:102860008C1322C0E0900002F12C10E000E021EF78
:1028700034E046EF54E06BEF74E082E00E947D109C
:10288000E0903C02F12C10E000E02FEF34E046EF46
:1028900054E06BEF74E082E00E947D10CF911F91B5
:1028A0000F91FF90EF90089524E035E046EF54E05B
:1028B0006BEF74E082E0CF911F910F91FF90EF904A
:1028C0000C9453118AEC90E10E946608811102C0B9
:1028D0000E9435080E94100F20E135E046E155E0E6
:1028E0006BEF74E082E00C9453118BEA90E10E944C
:1028F0006709811102C00E944F090E943C0F20E12C
:1029000035E04BE155E06BEF74E082E00C9453113D
:10291000CF938091A310833010F01092A310C09138
:10292000A310CF5261ED86E490E00E94DE0E60912C
:10293000A31087E490E00E94DE0E6C2F88E490E004
:102940000E94DE0E20E135E040E255E06BEF74E0DE
:1029500082E0CF910C9453110E943A0A84EA90E1EC
:102960000E941D0A811102C00E94130A0E94680F72
:1029700020E135E044E754E06BEF74E082E00C9432
:1029800053111F920F920FB60F9211240BB60F9294
:102990002F933F934F935F936F937F938F939F9367
:1029A000AF93BF93EF93FF938EE091E10E94950365
:1029B000FF91EF91BF91AF919F918F917F916F9117
:1029C0005F914F913F912F910F900BBE0F900FBED3
:1029D0000F901F9018951F920F920FB60F9211240F
:1029E0000BB60F922F938F939F93EF93FF93E091EA
:1029F0001E11F0911F118081E0912411F091251199
:102A000082FD1DC09081809127118F5F8F7320916F
:102A10002811821741F0E0912711F0E0E25FFE4EAD
:102A2000958F80932711FF91EF919F918F912F9117
:102A30000F900BBE0F900FBE0F901F9018958081C6
:102A4000F2CFCF92DF92EF92FF920F931F93CF932B
:102A5000DF936C017C0187E0E80EF11CD0E0C0E060
:102A6000062F10E0B8010C2E02C0759567950A94E8
:102A7000E2F76170F70181917F010E94CA542196AB
:102A8000C430D10579F7C601DF91CF911F910F9125
:102A9000FF90EF90DF90CF900C94320DCF92DF92A9
:102AA000EF92FF920F931F93CF93DF93EC01F62EDB
:102AB000642F8C810E94CA548D818F3F19F060E091
:102AC0000E94CA540F2D10E08F8584FF25C06E012F
:102AD00087E0C80ED11CF12CE12CB8010E2C02C0ED
:102AE000759567950A94E2F76170F60181916F011F
:102AF0000E94CA54FFEFEF1AFF0A88E0E816F104BB
:102B000061F7CE01DF91CF911F910F91FF90EF9070
:102B1000DF90CF900C94320DB80184E075956795E5
:102B20008A95E1F7CE010E9421156F2DCE01DF912C
:102B3000CF911F910F91FF90EF90DF90CF900C9469
:102B4000211541E00E944E1581E090E008950F9319
:102B50001F930E941C070091830F1091840F2091F6
:102B6000850F3091860F601B710B820B930B1F91A9
:102B70000F9108950F931F93CF93DF93009132022B
:102B800010913302C0913002D09131020E94A715FA
:102B90009801AE010E949B049F772AE037ED43E243
:102BA0005CE30E94906D881F8827881F80938D0F9B
:102BB000DF91CF911F910F9108954F925F926F9285
:102BC0007F928F929F92AF92BF92CF92DF92EF92BD
:102BD000FF920F931F93CF93DF930E94AF1288232E
:102BE00009F44DC066EB74E080E00E94F60D40E110
:102BF00050E060E270E08DEF90E10E94207184E08F
:102C0000EBECF4E0A9EFB0E101900D928A95E1F7C9
:102C10000E947D0980930C1110920D1189EF90E1B3
:102C2000009721F0BC0181E00E94E30D0E94DA468A
:102C300084EE90E1009721F0BC0182E00E94F60D45
:102C40000E94024689EF90E1892B29F069EF70E13B
:102C500083E00E94E30D8FEF80932F02DF91CF91ED
:102C60001F910F91FF90EF90DF90CF90BF90AF90AA
:102C70009F908F907F906F905F904F9008950E94EB
:102C80000905EB010E94A7150E9459044B015C0144
:102C90000E940E6E8B0190E080E00E943D6E9B01D1
:102CA000AC01C501B4010E94236D20E030E048EC86
:102CB00052E40E94F46E20E030E040E05FE30E94C6
:102CC000246D0E940E6E6436710520F00F5F1F4F59
:102CD00070E060E0083681E0180710F010E000E0D6
:102CE0007F936F931F930F9384E295E09F938F934D
:102CF0001F9288E08F9381E09BE09F938F930E94C7
:102D000048718DB79EB70A960FB6F8949EBF0FBE56
:102D10008DBF48EA54E0D13031F040EB54E0D2307E
:102D200011F44CEA54E08FEF8C0F883008F07BC030
:102D30008C2F8150990BFC01EE0FFF1FEF5DFC4FB4
:102D40008081918121E061E07BE00E946B4689EF08
:102D500090E1009721F0BC0180E00E94F60D009107
:102D60003202F0903302C0913002109131020E9481
:102D7000A715202F3F2D4C2F512F0E949B044B0154
:102D80005C012B013C01E89477F8C301B2010E9479
:102D90000E6ED62FE72E20E030E048EC52E4C3015F
:102DA000B2010E94F46E20E030E040E05FE30E9458
:102DB000246D0E940E6ECB0164E670E00E94D16F1C
:102DC000D82EC92E20E030E0A901C501B4010E942F
:102DD000EF6E87FF2BC08DE2CF92DF92EF92DF93F1
:102DE0001F928F93FF920F931F93CF938EE295E0E4
:102DF0009F938F931F9285E18F938CEE9AE09F9320
:102E00008F930E9448716CEE7AE081E00E94F60D8B
:102E10000E94DA468DB79EB740960FB6F8949EBFD3
:102E20000FBE8DBF05CF84EB94E08CCF8BE2D4CF67
:102E30008A3170F4E82FF0E0EE0FFF1FE951FD4FEB
:102E40000190F081E02D309719F0808191810895F3
:102E50008550863170F4E82FF0E0EE0FFF1FE55447
:102E6000FD4F0190F081E02D309719F0808190E0C6
:102E7000089590E080E00895CF93C82F0E9418171E
:102E800028E0C29FF0011124EF5BFC4F22813381C7
:102E900021303105F9F464E670E00E94D16F9F9310
:102EA0008F937F936F938DED94E09F938F931F92F9
:102EB00089E08F938FEB90E19F938F930E944871ED
:102EC0008DB79EB70A960FB6F8949EBF0FBE8DBF02
:102ED000CF91089523303105C1F49F938F9387E2FA
:102EE00098E09F938F931F9289E08F938FEB90E1EF
:102EF0009F938F930E9448718DB79EB708960FB627
:102F0000F8949EBF0FBE8DBFE3CF9F938F9387E250
:102F100098E09F938F931F9289E08F938FEB90E1BE
:102F20009F938F930E9448718DB79EB708960FB6F6
:102F3000F8949EBF0FBE8DBFCBCF81E08093C910A8
:102F40008091C8100E943C170E94810583E495E09F
:102F50000C949A11CF92DF92EF92FF920F931F93EE
:102F6000CF93DF9300D000D01F921F92CDB7DEB772
:102F7000D82E1091C81048E0149FF0011124EF5B87
:102F8000FC4F8281938182309105C9F5812F0E9487
:102F90001817813009F418C1823009F422C1843035
:102FA00009F421C1883009F420C1803109F41FC11E
:102FB000803209F400C15FEFE6E0D51609F40FC1D5
:102FC000F0E0E55EFC4F608170E0812F0E944C06CE
:102FD0008091C8100E943C170E94810528960FB668
:102FE000F894DEBF0FBECDBFDF91CF911F910F913F
:102FF000FF90EF90DF90CF900895EF5FE1CF8330A7
:10300000910551F4812F0E94181761E070E0892B1F
:10301000E1F270E060E0D9CFC0902F0C2C2D30E0B1
:10302000F901E154FF4E7F01108120ED210F2A307C
:10303000A8F6019709F094C00E94950B082FF1E0C3
:10304000882381F0DF1208C0193311F01F5F01C01F
:1030500010E3F7011083C2CF103311F01150F9CFF4
:1030600019E3F7CFDF1237C0193389F580E3F70191
:1030700080830E947F0D6EE270E08FEB90E10E94F2
:103080002771009709F48DC0FC01318120ED230FD9
:103090002A3008F030E3FC01228140ED420F4A3033
:1030A00008F020E3EFEBF0E1E817F90758F50730F7
:1030B00070F5419150ED540F5A30B0F7A1E0B0E0F7
:1030C000AC0FBD1FA00FB11D4C930F5FEDCF1F5F65
:1030D000F7011083D0CF103399F40E94A70B8823F7
:1030E00009F47CCFEC2DF0E0E154FF4E8081882381
:1030F00021F081818083C394F5CF0E949405BBCFDA
:103100001150E6CF011103C080E3898301E0CE01B5
:103110000196FC01E00FF11D1082422F022E000CDF
:10312000550B5F932F93432F032E000C550B5F938A
:103130003F939F938F9388E495E09F938F931F9283
:1031400089E08F938FEB90E19F938F930E9448715A
:103150000E9494050FB6F894DEBF0FBECDBF3ECFE0
:1031600051E0D51208C0193309F070CF80E3808395
:103170000E947F0D33CF103309F070CF0E94A70B50
:10318000882309F42BCFEC2DF0E0E154FF4E808131
:10319000882321F081818083C394F5CF0E94940518
:1031A0001DCF8FEB90E1FC0101900020E9F7CF01EA
:1031B000019730E376CFF1E0DF1621F05FEFE5E035
:1031C000D51669F0E5E0FCCEE0E041E0D41609F464
:1031D00014CF8FEFD812F4CEEE2309F4F1CEE150E4
:1031E000EFCEE1E0F2CFE2E0F0CFE3E0EECFE4E0DB
:1031F000ECCF8FB7F894E7E6F0E1108212821382E9
:10320000A5E5B0E151961C925197E3E4F0E1118AF3
:1032100014961D921D921D921C921797148215826E
:10322000168217828FBF089510927E0F10927F0F23
:10323000109298101092F80B0C94F9188091671066
:10324000882329F081E090916910911101C080E0FC
:103250000895E3E4F0E1811102C0E5E5F0E10FB685
:1032600007FC05C0648575858685978508952FB709
:10327000F89464857585868597852FBF0895E3E466
:10328000F0E1811102C0E5E5F0E10FB607FC05C0F1
:10329000448755876687778708958FB7F894448762
:1032A0005587668777878FBF0895E3E4F0E1811142
:1032B00002C0E5E5F0E10FB607FC09C04087518781
:1032C00062877387448755876687778708958FB7A6
:1032D000F89440875187628773874487558766874C
:1032E00077878FBF0895E3E4F0E1811102C0E5E53F
:1032F000F0E10FB607FC05C0608571858285938576
:1033000008952FB7F89460857185828593852FBFC6
:103310000895CF92DF92EF92FF920F931F93CF9376
:103320009091900F911155C0843008F052C0282F11
:1033300030E0F901E758F44F9081992309F449C02E
:103340008D7FC1E009F0C0E0220F331F220F331F31
:10335000F901E759F44FC080D180E280F3808C2FCF
:103360000E9473196C157D058E059F0591F1C09320
:10337000960FC092920FD092930FE092940FF0921A
:10338000950F81E08093A00F10929F0F80939E0F66
:103390008BE0C89FF0011124E653FF4E67817085D2
:1033A00090E080E00E943D6E8B019C01B701A60178
:1033B0008C2F0E947C5180913B02882351F0970111
:1033C000860149E658E060E575E086E595E00E94F3
:1033D000FF53CF911F910F91FF90EF90DF90CF900F
:1033E0000895CF93DF9380E00E947319CBE3D0E17F
:1033F000688379838A839B8381E00E9473196C833D
:103400007D838E839F83DF91CF9108958F929F92CA
:10341000AF92BF92CF92DF92EF92FF92CF93CFB74E
:10342000F8940E94F9180E940E1180E00E9473190E
:103430004B015C0181E00E9473196B017C01B501B5
:10344000A40180E00E943F19B701A60181E00E941B
:103450003F19CFBF109298101092391010923A1065
:103460001092200C10921C0C10921D0C10921E0C2D
:1034700010921F0CCF91FF90EF90DF90CF90BF90F4
:10348000AF909F908F900C94F119CF93823080F47D
:1034900090913B0B981761F0C82F0E94AF128823C0
:1034A00049F0C0933B0B0E946C0682E080933A0B7C
:1034B000CF9108950E94061A0E946C06C0933B0BA0
:1034C000F4CF1F93CF93DF93182F84E0189FE00170
:1034D0001124FE01E151F04F1082118212821382F9
:1034E000812F0E947319C55CDF4E688379838A83BC
:1034F0009B8380913B0B811304C010923A10109271
:10350000200CDF91CF911F910C947F06CF93809177
:10351000A00F882399F01092A00F10929F0F109285
:103520009E0F0E94F918C091960F8C2F0E9473195C
:10353000AB01BC018C2FCF910C943F19CF91089512
:103540008091A20F9091A30F0497D1F084E090E0B6
:103550009093A30F8093A20F0E9414190E940E1142
:1035600080E00E947319AB01BC0180E00E943F190A
:1035700081E00E947319AB01BC0181E00C943F19FA
:1035800008956091A20F7091A30FE7E8F2E04FEA6F
:1035900052E0208131816217730719F0253031051F
:1035A00029F4228133818217930731F035964E1723
:1035B0005F0779F70C94A01A9093A30F8093A20F42
:1035C0000895EF92FF920F931F93CF93883020F5C9
:1035D000E82FF0E08827E051F54E8F4F0C942670CD
:1035E000F81A1C1B311B461B531B571B5A1B8D1BE8
:1035F0006AE575E080E00E94F60D65E675E081E021
:103600000E94F60D69E675E082E00E94F60D63E720
:1036100075E083E00E94F60D8091A20F9091A30FB8
:10362000892B09F09AC081E090E0CF911F910F9112
:10363000FF90EF900C94C11A81E080938F0F6BE59F
:1036400075E080E00E94F60D69E775E081E00E9478
:10365000F60D67E875E082E00E94F60D6EE875E011
:10366000D8CF81E080938E0F64E975E080E00E94FE
:10367000F60D60EA75E081E00E94F60D67E875E0FE
:1036800082E00E94F60D6DEA75E0C3CF6AEB75E04B
:1036900080E00E94F60D62EC75E081E00E94F60D7C
:1036A0006CEC75E0D8CF67ED75E080E0B3CF6CEDE2
:1036B00075E0FBCFC1E0C093FD0F81E090E09093F7
:1036C00031028093300290933302809332020E9441
:1036D0001C076093830F7093840F8093850F9093E2
:1036E000860F0E941C076093F90F7093FA0F809366
:1036F000FB0F9093FC0FC09338020E94BA15E12C87
:10370000F12C8701E39423EE35E045EE55E06BEEB6
:1037100075E082E00E947D107FCF81E08093820F70
:103720001092810F1092800F6FEE75E080E00E9482
:10373000F60D6AEF75E081E00E94F60D69E076E033
:1037400082E00E94F60D6EE875E083E00E94F60DBF
:1037500081E090E00E94C11A5FCFCF911F910F913D
:10376000FF90EF900895CF92DF92EF92FF920F9328
:103770001F93CF93DF938A01D62FC72F811181E04A
:103780009BE0899FF0011124E653FF4E658176810D
:1037900090E080E00E943D6E6B017C0120E030E013
:1037A00040E85FE3B8018D2F9C2F0E94906D87FF4A
:1037B00004C000E010E0D0E8CFE39601A701B80113
:1037C0008D2F9C2F0E94EF6E18161CF48601DE2DA3
:1037D000CF2DB8018D2F9C2FDF91CF911F910F918D
:1037E000FF90EF90DF90CF9008950F931F93CF93AA
:1037F000C82F0E94731920913A101216A4F424E0E5
:10380000C29FF0011124E55CFF4E008111812281ED
:1038100033810617170728073907B4F460837183CB
:103820008283938311C0222379F024E0C29FF001A8
:103830001124E55CFF4E00811181228133816017E4
:1038400071078207930754F3CF911F910F91089549
:10385000CF92DF92EF92FF920F931F93CF93DF935C
:10386000811181E0C82FD0E06623E9F08BE08C9FC6
:10387000F0018D9FF00D1124E653FF4E6781708596
:1038800090E080E00E943D6E8B01D82FC92FB801D7
:103890008D2F9C2FDF91CF911F910F91FF90EF9073
:1038A000DF90CF9008950E94EF086B017C0120E02B
:1038B00030E040E251E40E94906D87FF06C0C12CC9
:1038C000D12C80E2E82E91E4F92E8BE08C9FF00160
:1038D0008D9FF00D1124E653FF4E6581768190E0B7
:1038E00080E00E943D6E8B01D82FC92F9B01482F8D
:1038F000592FB601C7010E94EF6E181644F28601D7
:10390000DE2DCF2DC4CF4F925F926F927F92AF92F8
:10391000BF92CF92DF92EF92FF920F931F93CF93BC
:10392000DF937C01142FFB018481958182FF15C1F7
:10393000970149E954E06BE674E082E00E9453117C
:103940001111EAC10E947754CFEF811108C00E9483
:103950006D54C1E0811103C0D0E0C0E001C0D1E0EE
:103960000E946254811122C20E945754811122C2C6
:10397000DD2339F1CC2329F1C13029F501E0D13023
:1039800009F402E0C02ED12CC6018758944F5C0187
:10399000FC0180818823A9F08D2F0E947319CC0C23
:1039A000DD1CCC0CDD1CF601E759F44F4080518042
:1039B00062807380C13061F46415750586059705D2
:1039C00074F0C1E0ADC103E0D130E1F600E0DACF40
:1039D000CF3F29F4461657066806790694F79701F3
:1039E00043E156E06BE674E082E00E94531180915F
:1039F000900F811140C0F50180818823E1F1C1E081
:103A000000FDC0E0F601E759F44FC080D180E280AC
:103A1000F3808C2F0E9473196C157D058E059F0510
:103A200051F1C093960FC092920FD092930FE092F3
:103A3000940FF092950F81E08093A00F80939F0FD9
:103A400010929E0F60E08C2F0E94281C8B019C011D
:103A5000B701A6018C2F0E947C5180913B028823E4
:103A600051F09701860149E658E063E176E086E58A
:103A700095E00E94FF53DF91CF911F910F91FF902E
:103A8000EF90DF90CF90BF90AF907F906F905F905E
:103A90004F9008952091790B2223A1F0C090690BDB
:103AA000D0906A0BE0906B0BF0906C0BC61AD70AA3
:103AB000E80AF90AC092690BD0926A0BE0926B0B8C
:103AC000F0926C0B20917B0B2223A1F0C090710B24
:103AD000D090720BE090730BF090740BC61AD70A5B
:103AE000E80AF90AC092710BD092720BE092730B44
:103AF000F092740B8C2F0E947048EC2FF0E0EE0FC8
:103B0000FF1FEE0FFF1FE151F04F10821182128252
:103B100013820E947F068C2F0E945248E12FF0E012
:103B2000EE0FFF1FE155FD4F2081318149E156E045
:103B30006BE674E082E00E945311DF91CF911F91F8
:103B40000F91FF90EF90DF90CF90BF90AF907F905C
:103B50006F905F904F900C94480D807591704097D6
:103B600009F089CF0E944F5497018823C1F040E5A6
:103B700055E06BE674E082E00E945311812FDF91E3
:103B8000CF911F910F91FF90EF90DF90CF90BF905A
:103B9000AF907F906F905F904F900C94891945E99A
:103BA00054E06BE674E082E00E945311C12FD0E034
:103BB000CE018758944F5C01FC018081882329F154
:103BC0001082C954DD4F61E088810E94CA542EE101
:103BD00036E042E555E06BE674E082E00E94531166
:103BE00080913C02882309F446CFDF91CF911F9149
:103BF0000F91FF90EF90DF90CF90BF90AF907F90AC
:103C00006F905F904F900C94860C812F8D7FD9F42C
:103C100081E00E9473196B017C01112371F1123054
:103C2000B9F48091790B8823D1F18091690B90913F
:103C30006A0BA0916B0BB0916C0B8C159D05AE05BA
:103C4000BF056CF118CF80E00E9473196B017C01F5
:103C5000113009F04DC080917C0B882301F18091D7
:103C6000750B9091760BA091770BB091780B8C151A
:103C70009D05AE05BF059CF0FECE80917B0B882391
:103C800071F08091710B9091720BA091730BB091B8
:103C9000740BC816D906EA06FB060CF0ECCE81E0E0
:103CA000F5018083FE01EE0FFF1FEE0FFF1FE759A6
:103CB000F44FC082D182E282F38260E0FE01E954D7
:103CC000FD4F80810E94CA5480913B02882309F4F1
:103CD00087CFCC0FDD1FC155DD4F4881598197013A
:103CE000860162E575E08BE694E00E94FF5378CF91
:103CF0001330A9F680917A0B882389F280916D0B9D
:103D000090916E0BA0916F0BB091700BC816D906F5
:103D1000EA06FB0624F2AFCEC1E0123009F0C0E0A3
:103D20008C2F0E9473192091A00F222351F0209113
:103D3000960FC21306C01092A00F10929F0F109200
:103D40009E0FC13009F4A6CE20917A0B2223A1F058
:103D5000C0906D0BD0906E0BE0906F0BF090700BDD
:103D6000C61AD70AE80AF90AC0926D0BD0926E0BF8
:103D7000E0926F0BF092700B20917C0B222309F4E0
:103D8000B9CEC090750BD090760BE090770BF09089
:103D9000780BC61AD70AE80AF90AC092750BD092B6
:103DA000760BE092770BF092780BA4CEC1E0D111A4
:103DB00008CEE2CDCFEFFBCFCF92DF92EF92FF9212
:103DC0000F931F936A017B018130B1F48091790BCD
:103DD000882309F447C06091690B70916A0B809148
:103DE0006B0B90916C0B20917B0B21111EC000E896
:103DF00014E82EE130E021C080917C0B8823B9F1DA
:103E00006091750B7091760B8091770B9091780B88
:103E100020917A0B222359F300916D0B10916E0BB8
:103E200020916F0B3091700B08C00091710B1091B5
:103E3000720B2091730B3091740BC616D706E806EF
:103E4000F9064CF0C701B60106171707280739070E
:103E500014F4C901B8011F910F91FF90EF90DF900A
:103E6000CF90089560E87BE781EE9FEFBCCF60E8DC
:103E70007BE781EE9FEFCCCF7F928F929F92AF92A4
:103E8000BF92CF92DF92EF92FF920F931F93CF9347
:103E9000DF93411551056105710509F442C0722E89
:103EA00094E0899FE0011124FE01E55CFF4E8080D3
:103EB0009180A280B3806A017B01C80CD91CEA1CE6
:103EC000FB1C21113CC0B701A6010E94DC1EFE01B3
:103ED000E55CFF4E6083718382839383711008C019
:103EE000C616D706E806F90619F081E0F8018083C6
:103EF000FE01E151F04FC55CDF4E88819981AA81B6
:103F0000BB8188199909AA09BB0940815181628145
:103F10007381840F951FA61FB71F80839183A2838F
:103F2000B383DF91CF911F910F91FF90EF90DF90BE
:103F3000CF90BF90AF909F908F907F900895C701D2
:103F4000B601C5CF0F931F93CF93C82F0E9473194B
:103F5000C11127C020917C0B222369F00091750BC1
:103F60001091760B2091770B3091780B061717077D
:103F700028073907D1F120917A0B2223D1F1009142
:103F80006D0B10916E0B20916F0B3091700B06171B
:103F900017072807390769F586E4CF911F910F911C
:103FA00008952091790B222369F00091690B1091FB
:103FB0006A0B20916B0B30916C0B061717072807C3
:103FC0003907A9F020917B0B222399F00091710B06
:103FD0001091720B2091730B3091740B0617170719
:103FE0002807390731F48EE3D8CF82E4D6CF8CE3AB
:103FF000D4CF80E2D2CF1F93CF93DF930E940905E5
:10400000162FD72FC82F0E94AF128093FE0F8091DA
:1040100014108093FF0F10930010D0930110C093E1
:10402000021080E00E9473196093031070930410D3
:10403000809305109093061081E00E94731960939D
:104040000710709308108093091090930A1080E075
:104050000E94A21F80930B1081E00E94A21F8093F8
:104060000C1080E090E0DC01C23050F484E0C89F86
:10407000F0011124E151F04F80819181A281B3813F
:1040800080930D1090930E10A0930F10B09310100A
:104090008091F70F9091F80F909312108093111068
:1040A000DF91CF911F910895CF93CFB7F89490915E
:1040B0000C0D9F5F937070910D0D7917F9F0A09121
:1040C0000C0DE6E0EA9FD0011124AC50B34F8C9365
:1040D000A0910C0DEA9FD0011124AC50B34F119662
:1040E0006C9380910C0DE89FF0011124EC50F34F7C
:1040F000228333834483558390930C0DCFBFCF919C
:1041000008951F920F920FB60F9211240BB60F92C3
:104110002F933F934F935F936F937F938F939F93CF
:10412000AF93BF93EF93FF930E943310FF91EF91F2
:10413000BF91AF919F918F917F916F915F914F91BF
:104140003F912F910F900BBE0F900FBE0F901F90BD
:1041500018951F920F920FB60F9211240BB60F9263
:104160002F933F934F935F936F937F938F939F937F
:10417000AF93BF93EF93FF930E94A90DFF91EF912F
:10418000BF91AF919F918F917F916F915F914F916F
:104190003F912F910F900BBE0F900FBE0F901F906D
:1041A00018951F920F920FB60F921124A8950F9099
:1041B0000FBE0F901F9018951F920F920FB60F927F
:1041C00011240BB60F922F933F934F935F936F93EE
:1041D0007F938F939F93AF93BF93EF93FF930E942F
:1041E00028078091BA0F9091BB0FA091BC0FB0919E
:1041F000BD0FFF91EF91BF91AF919F918F917F91F3
:104200006F915F914F913F912F910F900BBE0F9047
:104210000FBE0F901F90189590E0FC01E559FA4FE2
:10422000E491EE2389F0F0E0EE0FFF1FEE54FD4F16
:10423000A591B4912C91855F9A4FFC01849128231C
:1042400081E019F480E0089581E008958EE10E94F4
:104250000C2161E0811101C060E08FE592E10E94D4
:104260007A0A8FE10E940C2161E0811101C060E0B7
:1042700080E592E10E947A0A80E20E940C2161E0CE
:10428000811101C060E081E492E10E947A0A81E23A
:104290000E940C2161E0811101C060E082E392E1A3
:1042A0000E947A0A82E20E940C2161E0811101C021
:1042B00060E083E292E10E947A0A83E20E940C218C
:1042C00061E0811101C060E084E192E10E947A0A1C
:1042D00084E20E940C2161E0811101C060E085E070
:1042E00092E10E947A0A85E20E940C2161E081112C
:1042F00001C060E086EF91E10E947A0A60910601B8
:1043000065FB662760F987EE91E10E947A0A609169
:10431000060166FB662760F988ED91E10E947A0A42
:1043200060910601661F6627661F89EC91E10E9475
:104330007A0A6CB1629561708AEB91E10E947A0A07
:104340006CB165FB662760F98BEA91E10C947A0AFF
:104350001F920F920FB60F9211248F939F93AF93DA
:10436000BF934A991EC04B9913C08091180C90912D
:10437000190CA0911A0CB0911B0C0197A109B1095D
:104380008093180C9093190CA0931A0CB0931B0CEB
:10439000BF91AF919F918F910F900FBE0F901F9083
:1043A00018954B99F5CF8091180C9091190CA0910C
:1043B0001A0CB0911B0C0196A11DB11DE1CF1F92EB
:1043C0000F920FB60F9211240BB60F922F933F93BB
:1043D0004F935F936F937F938F939F93AF93BF930D
:1043E000EF93FF930E942807FF91EF91BF91AF9148
:1043F0009F918F917F916F915F914F913F912F91FD
:104400000F900BBE0F900FBE0F901F901895CF927C
:10441000DF92EF92FF92CF93DF93811181E09BE0D7
:10442000899FE0011124C653DF4E6881798190E0B5
:1044300080E00E943D6E6B017C016A8170E090E03B
:1044400080E00E943D6E9B01AC01C701B6010E9455
:10445000F46E6B017C016B817C8190E080E00E94B6
:104460003D6E2AE037ED43E25CE30E94F46E9B016F
:10447000AC01C701B6010E94956DDF91CF91FF900D
:10448000EF90DF90CF9008954F925F926F927F925E
:104490008F929F92AF92BF92CF92DF92EF92FF9254
:1044A0000F931F93CF93DF93CDB7DEB72C970FB643
:1044B000F894DEBF0FBECDBF90916710992309F429
:1044C000A3C090916910992309F48DC04091941074
:1044D000509195106091961070919710A090901047
:1044E000B0909110C0909210D0909310A986BA8687
:1044F000CB86DC86A416B506C606D70620F4498707
:104500005A876B877C87C984DA84EB84FC84CD2846
:10451000CE28CF2841F4E12CF12C8701E394E986E1
:10452000FA860B871C8780907C1090907D10A0905D
:104530007E10B0907F1004E0809FF0011124E959B3
:10454000FF4EC1A4D2A4E3A4F4A40E9407222B012D
:104550003C0120E030E040E85FE30E94906D87FD81
:1045600053C0C501B401A70196010E945070C984CF
:10457000DA84EB84FC8456016701E12CF12C87017D
:10458000A982BA82CB82DC82ED82FE820F831887F9
:10459000E12CF12C00E010E00E947D70B901CA010D
:1045A0000E943D6E20E030E040E752E40E94F46E4D
:1045B000A30192010E94956D2C960FB6F894DEBF70
:1045C0000FBECDBFDF91CF911F910F91FF90EF9064
:1045D000DF90CF90BF90AF909F908F907F906F9023
:1045E0005F904F900895A0906C10B0906D10C090A7
:1045F0006E10D0906F10A986BA86CB86DC86AB2869
:10460000AC28AD2809F08FCF60E070E0CB01D4CFAB
:10461000CF92DF92EF92FF92CF93C82F0E94072292
:104620006B017C01C111C1E08BE0C89FF001112436
:10463000E653FF4E618570E090E080E00E943D6EA1
:1046400020E030E048E452E40E94F46EA7019601B5
:104650000E94F46E20E030E040E05FE30E94246DB1
:104660000E940E6E611571058105910521F461E0CE
:1046700070E080E090E0CF91FF90EF90DF90CF90DE
:1046800008952F923F924F925F926F927F928F92F6
:104690009F92AF92BF92CF92DF92EF92FF920F93D1
:1046A0001F93CF93DF93CDB7DEB72F970FB6F89454
:1046B000DEBF0FBECDBF10917F0FC0907E0FCD82A9
:1046C0001C1509F4BAC180E00E9473196E837F83C0
:1046D0008887998781E00E9473196A877B878C8716
:1046E0009D8707E2212E312C029D7001039DF00C65
:1046F00011249701225F324F3A832983D90196967C
:104700008C919697882399F192968C91929780FF3D
:1047100069C094966D917C9190E080E00E943D6E1E
:10472000E981FA81648F758F868F978F10A211A20D
:10473000029DF001039DF00D1124E25FF24F82A172
:1047400080FD10C0C084D184E284F384CE82DF82F5
:10475000E886F986C484D584E684F784CA86DB8635
:10476000EC86FD861F5F1F70DD80D112BBCF8D816F
:10477000815F8F708983E0907F0FED821E821A86A1
:10478000312C212CF9800F2D10E027E2209FF00121
:10479000219FF00D1124E25FF24F86A1882309F4D6
:1047A0004CC18E819A85A32DB22D808F918FA28FBF
:1047B000B38F82A180FFA1C0148A158A168A178A36
:1047C000108E118E128E138E1E821A86312C212C81
:1047D000CD80D980CD1409F430C18D2D815F8F70CB
:1047E0008983D0CFA981BA8118964D905D906D9044
:1047F0007C901B97CE80DF80E884F9844C185D089C
:104800006E087F081C968D919D910D90BC91A02DF6
:104810006C017D012A853B854C855D85C21AD30AD2
:10482000E40AF50AC982DA82EB82FC825301420172
:1048300077FE07C088249924540184189508A60897
:10484000B708C980DA80EB80FC80F7FE08C0F094DE
:10485000E094D094C094C11CD11CE11CF11C029DB9
:10486000A001039D500D1124425F524F5F874E8778
:10487000B401C5018C149D04AE04BF0410F4B6014C
:10488000C7010E943D6EAE85BF855C966D937D939A
:104890008D939C935F97029DF001039DF00D112471
:1048A000E25FF24F81E014141504160417040CF0B3
:1048B00080E080A3029DF001039DF00D1124E25FD2
:1048C000F24F81E029813A814B815C8112161306F7
:1048D000140615060CF080E081A3029DF001039DF3
:1048E000F00D1124E25FF24F81E08C149D04AE04C0
:1048F000BF0408F080E083A31BCFF3A0448C558C49
:10490000668C778C8F2D0E9407224B015C01EF2D66
:10491000F110E1E03BE03E9FF0011124E653FF4E31
:10492000618570E090E080E00E943D6E20E030E024
:1049300048E452E40E94F46E6B017C0120E030E018
:10494000A901C501B4010E94EF6E18160CF071C0E8
:10495000A5019401C301B2010E94956D4B015C0158
:1049600020E030E040E752E46E817A85832D922D7D
:104970000E94956D2B013C01A7019601C701B6016C
:104980000E94246DA50194010E94F46E6B017C01CC
:10499000A3019201C301B2010E94F46E9B01AC011C
:1049A000C701B6010E94246D6B017C0120E030E05C
:1049B000A9010E94906D87FF03C0C12CD12C760104
:1049C000C701B6010E94676F20E030E040E752E483
:1049D0000E94F46E6B017C0147E2409FF001419F11
:1049E000F00D1124E25FF24F50895E8381898A873E
:1049F000328823889601A7016E81782F832D922D0E
:104A00000E94906D87FD04C0CE82DA863E2C2F2C4A
:104A100097E2909FF001919FF00D1124E25FF24F19
:104A20008E819A85A32DB22D848B958BA68BB78B07
:104A3000CFCE812C912C540193CF2F960FB6F894A2
:104A4000DEBF0FBECDBFDF91CF911F910F91FF90C1
:104A5000EF90DF90CF90BF90AF909F908F907F901E
:104A60006F905F904F903F902F9008952F923F92BC
:104A70004F925F926F927F928F929F92AF92BF926E
:104A8000CF92DF92EF92FF920F931F93CF93DF931A
:104A9000CDB7DEB72E970FB6F894DEBF0FBECDBFF1
:104AA000811145C04090991050909A1060909B10D1
:104AB00070909C1014141504160417040CF07AC19D
:104AC00049875A876B877C878D832FB6F89480E05F
:104AD0000E9473194B015C0181E00E9473196B0104
:104AE0007C0120917E0F2983122F1F5F1F70009180
:104AF0007F0F101325C02FBE8FEF9FEF2E960FB69E
:104B0000F894DEBF0FBECDBFDF91CF911F910F9103
:104B1000FF90EF90DF90CF90BF90AF909F908F90DD
:104B20007F906F905F904F903F902F9008954090AE
:104B30009D1050909E1060909F107090A010BACF62
:104B40008981A7E28A9FC0011124825F924F9E87CC
:104B50008D8733243394DC0196963C92B501A401F1
:104B600080E00E94DC1E4B015C01ED85FE858086A5
:104B70009186A286B386B701A60181E00E94DC1E61
:104B80006B017C01AD85BE851C96CD92DD92ED92C8
:104B9000FC921F9780E00E94072269837A838B83AF
:104BA0009C83C501B4010E943F6E29813A814B81EB
:104BB0005C810E94956DED85FE85608371838283A3
:104BC000938381E00E9407224B015C01C701B6017B
:104BD0000E943F6EA50194010E94956DAD85BE8532
:104BE00014966D937D938D939C93179789859A85E1
:104BF000AB85BC85ED85FE85808B918BA28BB38BBD
:104C0000DF01148A158A168A178A108E118E128E69
:104C1000138E148E158E168E178E10A211A232A22C
:104C2000ED819396EC93939795965C924E92949720
:104C300010937E0F0E944123312E301A101728F452
:104C4000612F601B80E1382E360E80913B02882355
:104C500009F4AFC0115F1F7027E2129FF001112409
:104C6000E25FF24F02A10170808D918DA28DB38D14
:104C700089839A83AB83BC8384899589A689B78904
:104C80008D839E83AF83B88780899189A289B389F8
:104C900089879A87AB87BC8784809580A680B780F8
:104CA0004080518062807380C48CD58CE68CF78CF8
:104CB00013A166E276E08EE091E10E942B100111D3
:104CC0007CC0A2E2B6E0BE87AD87C701B6010E94F4
:104CD0000E6E6B017C016D857E858EE091E10E94F8
:104CE0002B1061E878E08EE091E10E942B10002308
:104CF00009F468C08AE5111101C088E50E94F147F6
:104D000065E376E08EE091E10E942B104AE0C70156
:104D1000B6010E94F64762E476E08EE091E10E94DF
:104D20002B1020E030E040E05FE369857A858B85D9
:104D30009C850E94246D0E94076ECB010E94CF4883
:104D400065E476E08EE091E10E942B1020E030E0F7
:104D500040E05FE36D817E818F8198850E94246DA4
:104D60000E94076ECB010E94CF486AE476E08EE095
:104D700091E10E942B1020E030E040E05FE3698188
:104D80007A818B819C810E94246D0E94076ECB01E9
:104D90000E94CF4860E576E08EE091E10E942B1002
:104DA000632D70E090E080E04AE00E94F6470E94A8
:104DB00052462FBE90E080E0A1CEE4E7F4E0FE870B
:104DC000ED8783CF65E37AE08EE091E10E942B10BE
:104DD00043E0C301B2010E9454496AE376E08EE0E9
:104DE00091E10E942B1043E0C501B4010E94544997
:104DF0006DE376E087CFCF92DF92EF92FF920F9331
:104E0000CF936A017B01C22F811126C00E94072225
:104E10000E94076E2AE030E040E050E0011122C01D
:104E2000C130E1F0F7FE04C0CC24CA94DC2C76013A
:104E3000A7019601121613061406150624F421E0A4
:104E400030E040E050E0CA01B901CF910F91FF90EE
:104E5000EF90DF90CF90089581E0D8CF24E630E046
:104E600040E050E00E940770121613061406150663
:104E700024F021E030E040E050E01C141D041E044A
:104E80001F040CF350954095309521953F4F4F4F9F
:104E90005F4FD9CF8F929F92AF92BF92CF92DF9206
:104EA000EF92FF92CF93DF9380E00E9407224B01A5
:104EB0005C0181E00E9407226B017C018091A510BA
:104EC0009091A610C091A710D091A810009711F151
:104ED000B0E0A0E08093991090939A10A0939B105B
:104EE000B0939C10209779F1CE01B0E0A0E08093C0
:104EF0009D1090939E10A0939F10B093A010DF91EF
:104F0000CF91FF90EF90DF90CF90BF90AF909F90A8
:104F10008F9008952BE734E14EEA5EE3C501B401BA
:104F20000E94F46E20E030E040E05FE30E94246DD8
:104F30000E94076E6093991070939A1080939B1053
:104F400090939C10CFCF2EE135E84BEE5EE3C70186
:104F5000B6010E94F46E20E030E040E05FE30E9482
:104F6000246D0E94076E60939D1070939E10809335
:104F70009F109093A010C3CFEF92FF920F931F93B7
:104F80000E944A27E0909910F0909A1000919B108F
:104F900010919C1023E536E044E754E067E774E0A5
:104FA00082E00E947D10E0909D10F0909E10009194
:104FB0009F101091A01028E536E044E754E067E721
:104FC00074E082E00E947D101F910F91FF90EF909E
:104FD0000895CF93DF931F921F92CDB7DEB7803134
:104FE00019F490E080E056C08A31D9F38E32C8F7C8
:104FF000DB01E82FF0E08827EF5FF74D8F4F0C942F
:1050000026702F284F2864287A28F127F127F127C6
:10501000F127F127F1278F28A728B828CE28E428E0
:10502000FB28F1270D29F127F12715292C293E29E5
:1050300055296C298329F1279529F127F1279D29E5
:10504000B429BE29F127F127F127F127F127F1270C
:10505000F127D329DD29F7290D2A3F2A272ABE0166
:105060006F5F7F4FCD010E94E90B892B09F4B9CF07
:105070004091AD105091AE1069817A814617570763
:1050800008F4AB0190E080E00E943D090E94751495
:1050900081E090E00F900F90DF91CF910895BE01D5
:1050A0006F5F7F4FCD010E94E90B892B09F499CFE7
:1050B0006091AB107091AC1089819A81AC01861718
:1050C000970700F7BC01DECFBE016F5F7F4FCD01B8
:1050D0000E94040C892B09F484CF4091B1105091A7
:1050E000B21069817A814617570708F4AB0181E055
:1050F00090E0CACFBE016F5F7F4FCD010E94040CCC
:10510000892B09F46ECF6091AF107091B010898136
:105110009A81AC018617970750F7BC01E8CFBE0112
:105120006F5F7F4FCD010E94E90B892B09F459CFA6
:1051300089819A819C01225331092F39374020F40B
:105140009093D6108093D5100E946214A1CFBE0117
:105150006F5F7F4FCD010E94E90B892B09F441CF8E
:1051600089819FEF980F903278F78093D710ECCF1A
:10517000BE016F5F7F4FCD010E94040C892B09F4A3
:1051800030CF89819A819C012A5031092F3D3340CB
:10519000D8F69093D9108093D810D6CFBE016F5F08
:1051A0007F4FCD010E94E90B892B09F41ACF898129
:1051B0009A819C012A5031092F37334128F6909368
:1051C000DB108093DA10C0CFBE016F5F7F4FCD013F
:1051D0000E94E90B892B09F404CF89819A819C01F3
:1051E0002A5031092730374208F0AECF9093DD10B6
:1051F0008093DC10A9CFBE016F5F7F4FCD010E946D
:10520000E90B892B09F4EDCE89819FEF980F94313A
:1052100008F09ACF8093DE1097CF81E09C91913374
:1052200009F080E08093DF108FCFBE016F5F7F4F6A
:10523000CD010E94E90B892B09F4D3CE89819A8193
:105240009C01225331092F39374008F07DCF9093CC
:10525000CB108093CA1078CFBE016F5F7F4FCD0116
:105260000E94E90B892B09F4BCCE89819FEF980F2E
:10527000903208F069CF8093CC1066CFBE016F5F8B
:105280007F4FCD010E94040C892B09F4AACE89819D
:105290009A819C012A5031092F3D334008F054CFA8
:1052A0009093CE108093CD104FCFBE016F5F7F4F94
:1052B000CD010E94E90B892B09F493CE89819A8153
:1052C0009C012A5031092F37334108F03DCF90938C
:1052D000D0108093CF1038CFBE016F5F7F4FCD01CC
:1052E0000E94E90B892B09F47CCE89819A819C016B
:1052F0002A5031092730374208F026CF9093D21038
:105300008093D11021CFBE016F5F7F4FCD010E94EE
:10531000E90B892B09F465CE89819FEF980F9431B1
:1053200008F012CF8093D3100FCF81E09C9191337E
:1053300009F080E08093D41007CFBE016F5F7F4FEC
:10534000CD010E94E90B892B09F44BCE89819A810A
:105350009C01245631092D3A364208F0F5CE90933F
:10536000E1108093E010F0CE81E09C91913309F040
:1053700080E080933C020E940C148ACEBE016F5FD5
:105380007F4FCD010E94E90B892B09F42ACE898138
:105390009A81813D27E0920708F023CE9093E31095
:1053A0008093E210D1CE81E09C91913309F080E0AE
:1053B0008093A4100E94AC146BCEBE016F5F7F4F30
:1053C000CD010E94E90B892B09F40BCE89819A81CA
:1053D000893843E1940710F088E893E19093A61090
:1053E0008093A5100E94AC140E94BC2751CEBE0130
:1053F0006F5F7F4FCD010E94E90B892B09F4F1CD3E
:1054000089819A81893823E1920710F088E893E135
:105410009093A8108093A710E5CFBE016F5F7F4FD8
:10542000CD010E94E90B892B09F4DBCD89819A819A
:10543000893C910510F088EC90E08530910510F4DE
:1054400085E090E08093A9100E943A0AB3CFBE0194
:105450006F5F7F4FCD010E94E90B892B09F4C1CD0D
:1054600089819A81893C910510F088EC90E0853023
:10547000910510F485E090E08093AA10E5CFBE017D
:105480006F5F7F4FCD010E94E90B892B09F4A9CDF5
:1054900089819A818330910508F0A3CD8093A31070
:1054A0000E948814F5CD8F929F92AF92BF92CF92B7
:1054B000DF92EF92FF928BEA92E00E947E4880E0BA
:1054C0000E9473194B015C0180E00E9407226B016E
:1054D0007C01C501B4010E943F6EA70196010E94A4
:1054E000956D43E00E9454498CE20E94F14781E0AF
:1054F0000E9473194B015C0181E00E9407226B013D
:105500007C01C501B4010E943F6EA70196010E9473
:10551000956D43E00E94544985EA92E00E947E48DE
:105520008091A20F9091A30F0E94CF4881EA92E050
:105530000E947E486091141070E090E080E04AE0A4
:105540000E94F6478BE992E00E947E486091AA0F84
:105550007091AB0F8091AC0F9091AD0F4AE00E941B
:10556000F6478EE30E94F147FF90EF90DF90CF90D7
:10557000BF90AF909F908F900C9452468F929F92C5
:10558000AF92BF92CF92DF92EF92FF924A015B01FE
:105590000E9407226B017C0120E030E040E85FE3DD
:1055A0000E94906D87FD20C0C501B4010E943D6E30
:1055B00020E030E040E752E40E94F46EA70196013B
:1055C0000E94956D20E030E040E05FE30E94246D92
:1055D0000E94076ECB01FF90EF90DF90CF90BF90BD
:1055E000AF909F908F90089590E080E0F4CFCF929D
:1055F000DF92EF92FF92CF93C82F6A017B0120E0E8
:1056000030E040E85FE3CB01B6010E94906D87FF78
:1056100006C0C12CD12C80E8E82E8FE3F82E8C2F09
:105620000E9407229B01AC01C701B6010E94F46EE3
:1056300020E030E040E752E40E94956D0E940E6E3B
:10564000611571058105910521F461E070E080E04C
:1056500090E0CF91FF90EF90DF90CF900895CF92A0
:10566000DF92EF92FF92CF93C82F6A017B0120E077
:1056700030E040E85EE3CB01B6010E94906D87FD0B
:105680001AC020E030E040E85FE3C701B6010E94A5
:10569000906D87FF06C0C12CD12C80E8E82E8FE3E7
:1056A000F82EB701A6018C2FCF91FF90EF90DF90DD
:1056B000CF900C94F72A61E070E080E090E0CF9109
:1056C000FF90EF90DF90CF9008954F925F926F928E
:1056D0007F928F929F92AF92BF92EF92FF920F9321
:1056E0001F93CF9349015A012701380161157105B4
:1056F0008105910599F1C1E01616170618061906DD
:105700000CF0C0E0209165102C17C1F020915D10C5
:1057100030915E1040915F105091601079018A01C4
:10572000E60EF71E081F191F16161706180619068B
:105730000CF45AC06FEF80E00E94A40CB301A201E8
:1057400080E00E942F2B9B01AC016C2F80E00E9417
:10575000FC4CC09365108C2F0E94E80781149104C3
:10576000A104B10409F442C0C1E0181419041A04D8
:105770001B040CF0C0E0809153108C17C1F02091F5
:105780004B1030914C1040914D1050914E107901BA
:105790008A01E80CF91C0A1D1B1D6FEF181419046F
:1057A0001A041B040CF461E081E00E94A40CB30114
:1057B000A20181E00E942F2B9B01AC016C2F81E0A4
:1057C0000E94FC4CC09353108C2FCF911F910F91CE
:1057D000FF90EF90BF90AF909F908F907F906F90D1
:1057E0005F904F900C94BB0761E0A5CFCF911F91C4
:1057F0000F91FF90EF90BF90AF909F908F907F9010
:105800006F905F904F900895CF93C82F809167104D
:1058100081110DC06091AA1070E090E080E00E94BC
:105820003D6EAB01BC018C2FCF910C942F2B60915E
:105830007C1070917D1080917E1090917F10611589
:1058400071058105910569F4609180107091811056
:1058500080918210909183106115710581059105E9
:10586000C9F2CF910895CF93C82F6091AA1070E02C
:1058700090E080E00E943D6EAB01BC018C2FCF9187
:105880000C94F72AAF92BF92CF92DF92EF92FF92E1
:105890000F931F93CF93DF93282F811141C0609105
:1058A000360B7091370B8091380B9091390B611545
:1058B00071058105910549F5822F0E94332C6115F0
:1058C00071058105910521F461E070E080E090E0D0
:1058D000DC019B01AD0160E070E080E090E00FE151
:1058E0000E94DA70EFE5AE2EF6E7BF2EC12CD12C68
:1058F000E12CF12C00E010E00E947D70A32FF42F2A
:10590000E52F622F7A2F8F2F9E2FDF91CF911F913E
:105910000F91FF90EF90DF90CF90BF90AF900895E0
:105920006091320B7091330B8091340B9091350B59
:10593000BECF8F929F92AF92BF92CF92DF92EF92A3
:10594000FF920F931F93CF93C82F0E94422C611593
:1059500071058105910589F56091AA1070E090E0CC
:1059600080E00E943D6EAB01BC018C2F0E942F2B6A
:10597000611571058105910521F461E070E080E019
:1059800090E09B01AC0160E070E080E090E00FE10E
:105990000E94DA70EFE5AE2EF6E7BF2EC12CD12CB7
:1059A000E12CF12C00E010E00E947D70A32FF42F79
:1059B000E52F622F7A2F8F2F9E2FE3E4F0E1C111A4
:1059C00002C0E5E5F0E121E0218B24E0C29FF00177
:1059D0001124E959FF4EC12CD12C7601C394C1A6E4
:1059E000D2A6E3A6F4A6C11114C060935910709317
:1059F0005A1080935B1090935C10CF911F910F9180
:105A0000FF90EF90DF90CF90BF90AF909F908F90DE
:105A100008956093471070934810809349109093B5
:105A20004A10EBCFEF92FF921F93CF93DF9300D0FA
:105A30001F92CDB7DEB780913D0290913E02A091BA
:105A40003F02B091400289839A83AB83BC83CE012D
:105A500001967C0110E0812F0E940D031616170697
:105A6000180619069CF4812F0E94422C61157105BD
:105A70008105910521F461E070E080E090E0D701BC
:105A8000ED91FC916483758386839783B2E0EB0E7E
:105A9000F11C113051F40F900F900F900F90DF9187
:105AA000CF911F91FF90EF90089511E0D4CF2F92E6
:105AB0003F924F925F926F927F928F929F92AF929E
:105AC000BF92CF92DF92EF92FF920F931F93CF93EB
:105AD000DF93CDB7DEB72C970FB6F894DEBF0FBEBD
