:100000000C94DC020C94B5260C940D030C947E2603
:100010000C940D030C940D030C940D030C940D0320
:100020000C940D030C940D030C940D030C940D0310
:100030000C940D030C940D030C940D030C944626A4
:100040000C940D030C94FD360C940D030C940D03CD
:100050000C940D030C940D030C940D030C940A5195
:100060000C940D030C94AE140C9484140C940D0396
:100070000C940D030C940D030C940D030C940D03C0
:100080000C943B260C940D030C940D030C940D035F
:100090000C940D030C940D030C940D030C940D03A0
:1000A0000C940D030C940D030C9413260C940D0367
:1000B0000C940D030C940D030C940D030C940D0380
:1000C0000C940D030C940D030C940D030C940D0370
:1000D0000C940D030C940D030C940D030C940D0360
:1000E0000C940D030C9472490C94C9390C94F44986
:1000F0000C94BC1D0C9481030C943E490C94BF3AA3
:100100000C94A3080C94F14A0C941D3A0C94AD176E
:100110000C94A53A0C9434500C9402490C94731727
:100120000C94D63A0C94A54A0C948D4A0C94135016
:100130000C940B1E0C943C500C9423030C940B5009
:100140000C94F53A0C94623B0C9439490C94D74AC0
:100150000C9473030C94773A0C94576A0C944250A5
:100160000C94BF4A0C94B1390C945F030C94410871
:100170000C94C2480C94493B0C94DE1D0C94E51D74
:100180000C9452080C948A490C94FF3A0C94074939
:100190000C9422630C94EF490C949C390C942050DD
:1001A0000C9451390C94BD490C94A2490C94E21D55
:1001B0000C94E0480C94E03A0C94D7490C940F50FE
:1001C0000C94F04F0C9438500C9465080C942E0845
:1001D0000C94234B0C940E4A0C943B4B0C944E3ACB
:1001E0000C9450030C94734A0C94B9030C94133977
:1001F0000C94F0390C9471390C9486390C94871D49
:100200000C94284A0C9406040C94193B0C941C5032
:100210000C9421490C94D11D0C94A1040C940B4B0B
:100220000C9407500C9416500C94B73A0C942E5022
:100230000C942F3A0C94603A0C94DA390C94A71D64
:100240000C9476080C94534B0C94FA480C94373A5F
:100250000C9426500C9446500C942A500C94063A58
:100260000C94584A0C942F3B0C94404A0C948E3AB0
:100270000C9458490C94F54F6364696E6F707375F4
:1002800078585B00205B27242720666F7220686502
:100290006C705D006F6B006572726F723A20007C4B
:1002A00052504D3A007C4D3A007C46534D3A003C4A
:1002B0004D506F733A00242420616C6C2C20246E06
:1002C0002071756572792C20246E3D76616C2073E7
:1002D00065742C20244920696E666F2C203F2073A2
:1002E00074617475730024343420636F6F726420FA
:1002F000756E69747320303D737465707320313D81
:100300006D6D20323D696E63680024343520626172
:10031000636B6C617368206D696E207370656564D2
:10032000206D6D2F6D696E00243433206261636B24
:100330006C617368206D6178207370656564206DF1
:100340006D2F6D696E00243430206261636B6C61C7
:100350007368206175746F2C202434312D2434325D
:1003600020582F5A20737465707300243332206A2A
:100370006F6720646563656C206D696E20737465BA
:1003800070732028303D6F66662900243330207357
:1003900070696E646C65205050522C2024333120DB
:1003A00062757A7A6572002432362058207374653B
:1003B00070732F6D6D2C20243237205820646972A1
:1003C00020696E76657274002432302D2432352017
:1003D00058206D6F746F722F75737465702F70690C
:1003E0007463682F6D61782F72617069642F616327
:1003F00063656C00243136205A2073746570732F46
:100400006D6D2C20243137205A2064697220696E6A
:1004100076657274002431302D243135205A206DD8
:100420006F746F722F75737465702F706974636861
:100430002F6D61782F72617069642F616363656CE1
:100440000024322D24332073796E63206665656441
:10045000206D696E2F6D6178206D6D2F726576004D
:1004600024302D2431206173796E632066656564C4
:10047000206D696E2F6D6178206D6D2F6D696E0036
:100480002C454550524F4D5D005B4F50543A005B38
:100490005645523A0000002100240027002A002D72
:1004A000003000330001010000040107010A0100CF
:1004B000000A0B02090C0D0E0807030401000000DE
:1004C000000000000000000000000000000000002C
:1004D00000000000000000000000001211100000E9
:1004E000000000000000000000000000000000000C
:1004F0000000000000000020002300260029002C3E
:10050000002F003200000100000301060109010173
:100510000210202008081020401020408002010214
:1005200001080402010102040810204080804020DC
:100530001008040201800402018040201008040217
:100540000108040201010204081020408001020495
:10055000081020408000002200250028002B002EDB
:10056000003100340002010000050108010B010503
:10057000050505070508080808020202020A0A081C
:100580000804040404010101010101010103030342
:100590000303030303040707070C0C0C0C0C0C0CDF
:1005A0000C0202020206060606060606060B0B0BE6
:1005B0000B0B0B0B0B00226311241FBECFEFD1E2FC
:1005C000DEBFCDBF00E00CBF17E0A0E0B2E0E4E783
:1005D000F3EE00E00BBF02C007900D92AE31B10701
:1005E000D9F72FE0AEE1B7E001C01D92A63FB207F8
:1005F000E1F712E0CCEDD2E000E006C0219701095E
:10060000802FFE010E948D69CB3DD10780E0080755
:10061000A9F70E9469510C94B8710C9400008111E3
:1006200009C060911A0C70911B0C80911C0C909168
:100630001D0C08956091200C7091210C8091220C6A
:100640009091230C0895AF92BF92CF92DF92EF92D8
:10065000FF920F931F93CF93DF936C017B018B016C
:10066000040F151FEB015E01AE18BF08C017D107BC
:1006700059F06991D601ED91FC910190F081E02D46
:10068000C6011995892B79F7C501DF91CF911F918B
:100690000F91FF90EF90DF90CF90BF90AF900895B3
:1006A000FC01538D448D252F30E0842F90E0821B78
:1006B000930B541710F0CF96089501970895FC01FD
:1006C000918D828D981761F0A28DAE0FBF2FB11D55
:1006D0005D968C91928D9F5F9F73928F90E00895AD
:1006E0008FEF9FEF0895FC01918D828D981731F067
:1006F000828DE80FF11D858D90E008958FEF9FEFBB
:100700000895FC01918D228D892F90E0805C9F4F90
:10071000821B91098F739927089585E79CE00E94B9
:10072000810321E0892B09F420E0822F0895FC0148
:10073000A48DA80FB92FB11DA35ABF4F2C91848D42
:1007400090E001968F739927848FA689B7892C939F
:10075000A089B1898C91837080648C93938D848DF2
:10076000981306C00288F389E02D80818F7D8083F5
:100770000895EF92FF920F931F93CF93DF93EC01B5
:1007800081E0888F9B8D8C8D98131AC0E889F98938
:10079000808185FF15C09FB7F894EE89FF8960833B
:1007A000E889F98980818370806480839FBF81E0BC
:1007B00090E0DF91CF911F910F91FF90EF900895FE
:1007C000F62E0B8D10E00F5F1F4F0F731127E02ED9
:1007D0008C8D8E110CC00FB607FCFACFE889F98911
:1007E000808185FFF5CFCE010E949703F1CFEB8D7D
:1007F000EC0FFD2FF11DE35AFF4FF0829FB7F894E5
:100800000B8FEA89FB8980818062CFCFCF93DF9302
:10081000EC01888D8823B9F0AA89BB89E889F98918
:100820008C9185FD03C0808186FD0DC00FB607FC4D
:10083000F7CF8C9185FFF2CF808185FFEDCFCE0180
:100840000E949703E9CFDF91CF91089580E090E077
:10085000892B29F00E948D0381110E94000080E005
:1008600090E0892B49F080E090E0892B29F00E94EC
:10087000000081110E94000080E090E0892B49F087
:1008800080E090E0892B29F00E94000081110E94F5
:10089000000080E090E0892B49F080E090E0892B17
:1008A00029F00E94000081110C9400000895CF935C
:1008B000DF93DC015E96ED91FC915F9760811F965E
:1008C0004C9150E0FC01B19630E020E080E0A1E0E6
:1008D000B0E0241735076CF49191962339F0ED01BF
:1008E000022E01C0CC0F0A94EAF78C2B2F5F3F4FEA
:1008F000F0CFDF91CF910895DC0151968C91519703
:10090000882359F05696ED91FC91579758968C9103
:100910009081662319F0892B80830895809589231F
:10092000FBCFDC015396ED91FC91549755968C9139
:100930009081662319F0892B8083089580958923FF
:10094000FBCF90E080E008954F925F926F927F928C
:100950008F929F92AF92BF92CF92DF92EF92FF92CF
:100960000F931F93CF93DF93CDB7DEB72C970FB6BE
:10097000F894DEBF0FBECDBF4115510509F483C009
:100980004090470C5090480C4114510409F47BC02E
:100990004A0169877A878B879C87712C612C50E08C
:1009A00040E0C301B2010E941E6A5401D12CC12C47
:1009B000E12CF12C87018982BA82CB82DC82ED8224
:1009C000FE820F831887C12CD12CE12CF12C00E082
:1009D00010E00E944B6A49015A01181419041A04C4
:1009E0001B040CF050C0C984DA84EB84FC848C189E
:1009F0009D08AE08BF08C501B4010E94A66720E0AB
:100A000030E044EB53E40E945B686B017C01C3015E
:100A1000B2010E94A6679B01AC01C701B6010E940A
:100A2000FC662B013C01E89477F82AE037ED43E2BD
:100A30005CE3C301B2010E94F76687FD24C0B7FEE4
:100A400005C077FA709477F8709404C08091110B08
:100A50008111F7CFC301B2012C960FB6F894DEBF17
:100A60000FBECDBFDF91CF911F910F91FF90EF90FF
:100A7000DF90CF90BF90AF909F908F907F906F90BE
:100A80005F904F900895412C512C3201E3CF60913B
:100A9000390870913A0880913B0890913C0808957C
:100AA000809103018370823029F41092270880918D
:100AB000270808958130D9F780932708F8CF8091CF
:100AC000160D9091170D807299272091250D25FF05
:100AD00008C0892B19F481E08093130280911302DE
:100AE0000895892BD9F310921302F8CF8091520DFB
:100AF00085FF04C082E08093260806C08091430DE4
:100B000085FF05C0109226088091260808958091DF
:100B1000340D85FFF7CF81E0EECF8091CA0D85FDC2
:100B20001FC08091BB0D85FD21C08091AC0D85FD5E
:100B30001FC080919D0D85FD1DC080918E0D85FD8E
:100B40001BC080917F0D85FD19C08091700D85FDC2
:100B500017C08091610DE8E085FD03C080E0089535
:100B6000E1E0F0E0E75CFC4F80810895E2E0F9CF3E
:100B7000E3E0F7CFE4E0F5CFE5E0F3CFE6E0F1CF57
:100B8000E7E0EFCF80E0E82FF0E0EA5DF34F9081FF
:100B9000992341F090539A3018F4809355080895A2
:100BA0008F5FF1CF1092550808958091550890E01D
:100BB000FC01EA5DF34F208120532A30B0F0019709
:100BC00048F0FC01EA5DF34F208120532A30B8F74A
:100BD00080935508E0915508F0E0EA5DF34F80817D
:100BE00080538A3010F00C94C2050895E2E1FCE0D5
:100BF0008081918190933D0280933C028281938118
:100C000090933B0280933A028481958190933902BC
:100C100080933802868197819093370280933602C1
:100C2000E1E3FCE083859485909335028093340260
:100C300085858093330286859785909332028093D1
:100C40003102808991899093300280932F028289AA
:100C5000938990932E0280932D02848980932C0295
:100C60008081918190932B0280932A0282818093CC
:100C700029028381948190932802809327028581A1
:100C80009681909326028093250287819085909388
:100C90002402809323028185809322028589809398
:100CA0004208828580932102868997899093110258
:100CB0008093100280914D0280933E02ABE0BCE035
:100CC0008C9180933F0811968D919C9112979093EF
:100CD000200280931F0213968D919C9114979093FC
:100CE0001E0280931D0215968C91159790E09093AB
:100CF0001C0280931B0216968C9190E090931A022E
:100D000080931902808D918D9093410880934008C3
:100D100080914C028093180208958A3170F4E82F74
:100D2000F0E0EE0FFF1FE050FD4F0190F081E02D4D
:100D3000309719F06083718308958550863160F48F
:100D4000E82FF0E0EE0FFF1FEC52FD4F0190F08115
:100D5000E02D309709F06083089595E1899FD001D7
:100D6000112430E020E090E0FB014191BF014111EE
:100D700001C040E2F901EA0FFB1FE355F84F408341
:100D80002F5F3F4F2431310579F725E1289FF0018E
:100D9000299FF00D1124E355F84F148A0895F89413
:100DA0008091470890914808A0914908B0914A085D
:100DB0008093430890934408A0934508B093460855
:100DC00078940895F8941092470810924808109269
:100DD000490810924A081092430810924408109251
:100DE000450810924608789408950F931F93F8943D
:100DF00060914708709148088091490890914A088D
:100E0000009143081091440820914508309146080C
:100E1000601B710B820B930B16161706180619062A
:100E2000A4F40F5F1F4F2F4F3F4F009343081093C1
:100E300044082093450830934608789461E070E0B8
:100E400080E090E01F910F91089561157105810573
:100E5000910589F0015011092109310900934308D6
:100E600010934408209345083093460878946FEF18
:100E70007FEFCB01E7CF7894E5CF0F931F93F894E2
:100E800060914708709148088091490890914A08FC
:100E900078940091430810914408209145083091BE
:100EA0004608601B710B820B930B1F910F910895E5
:100EB0008091300881110FC08091310881110BC0E1
:100EC00080913208811107C081E09091330891111F
:100ED00003C080E0089581E008952FE0EAE2F8E0A1
:100EE000DC0101900D922A95E1F70895CF93DF93ED
:100EF000CDB7DEB72F970FB6F894DEBF0FBECDBFCC
:100F0000CE0101960E946D072F960FB6F894DEBFB2
:100F10000FBECDBFDF91CF9108958091690F909161
:100F20006A0F25E0969587952A95E1F78170909153
:100F30005A0F95FD826090914B0F95FD84609091C2
:100F40003C0F95FD886090912D0F95FD806108956F
:100F5000FC01118284819581882790719583848317
:100F6000089580EB9FE00E94A80781EA9FE00E941D
:100F7000A80782E99FE00E94A80783E89FE00E94FB
:100F8000A80784E79FE00C94A80785E69FE00E94ED
:100F9000A80786E59FE00E94A80787E49FE00E94DB
:100FA000A80788E39FE00E94A80789E29FE00E94CB
:100FB000A8070E948D07809329080895489910C0BA
:100FC000499910C01092110B8091280B9091290B18
:100FD000A0912A0BB0912B0B0196A11DB11D10C041
:100FE0004999F0CF81E08093110B8091280B90916B
:100FF000290BA0912A0BB0912B0B0197A109B109E4
:101000008093280B9093290BA0932A0BB0932B0B62
:1010100008950F931F93CF93DF93CCEADBE0811108
:1010200002C0CEEBDBE00E940F031616170618066F
:10103000190674F081E0088519852A853B854C8561
:101040005D856E857F85041715072607370709F02C
:1010500080E0DF91CF911F910F910895E0E4F5E0DA
:101060008491E0EAF5E0E491F0E0EE0FFF1FEB5A27
:10107000FA4FA591B4919C91E82FE095E923EC9368
:101080000895E0E4F5E08491E0EAF5E0E491F0E031
:10109000EE0FFF1FEB5AFA4FA591B491EC91E82B9C
:1010A000EC930895EFE3F5E08491EFE9F5E0E49146
:1010B000F0E0EE0FFF1FEB5AFA4FA591B4919C910F
:1010C000E82FE095E923EC930895EFE3F5E08491B0
:1010D000EFE9F5E0E491F0E0EE0FFF1FEB5AFA4F75
:1010E000A591B491EC91E82BEC9308959091460C66
:1010F000992321F091E0811190E0892FEAE3F5E056
:101100002AE935E0882379F08491F9012491E22FCE
:10111000F0E0EE0FFF1FEB5AFA4FA591B491EC915E
:10112000E82BEC9308958491F9012491E22FF0E0EB
:10113000EE0FFF1FEB5AFA4FA591B4919C91E82F47
:10114000E095E923EECF90913B0C992321F091E0BB
:10115000811190E0892FEBE3F5E02BE935E088235E
:1011600079F08491F9012491E22FF0E0EE0FFF1F56
:10117000EB5AFA4FA591B491EC91E82BEC930895BA
:101180008491F9012491E22FF0E0EE0FFF1FEB5A5A
:10119000FA4FA591B4919C91E82FE095E923EECF09
:1011A0002FB7F8948091580890E0019666E070E0BF
:1011B0000E94386990915908981721F09091580829
:1011C000809358082FBF089580912808882391F0B4
:1011D0008091AB0B81110DC08091D00B811109C0A2
:1011E0002091CD0A9091CC0A291303C010922808AF
:1011F000089581E008958FB7F89440911A0C5091AA
:101200001B0C60911C0C70911D0C4091200C509196
:10121000210C6091220C7091230C10921A0C1092E8
:101220001B0C10921C0C10921D0C1092200C109292
:10123000210C1092220C1092230C8FBF0895AF92B4
:10124000BF92CF92DF92EF92FF920F931F93CF93B3
:10125000DF93811118C060916807709169078091D0
:101260006A0790916B07611571058105910509F178
:10127000DF91CF911F910F91FF90EF90DF90CF9072
:10128000BF90AF9008956091640770916507809159
:10129000660790916707611571058105910541F712
:1012A0008091080290910902A0910A02B0910B026C
:1012B00008C080910C0290910D02A0910E02B09195
:1012C0000F020097A105B10521F481E090E0A0E0B4
:1012D000B0E09C01AD0160E070E080E090E00FE1E3
:1012E0000E94206BEFE5AE2EF6E7BF2EC12CD12C6D
:1012F000E12CF12C00E010E00E947C6AA32FF42F77
:10130000E52F622F7A2F8F2F9E2FB2CFEF92FF9271
:101310001F93CF93DF9300D01F92CDB7DEB780919C
:101320004E0290914F02A0915002B09151028983D8
:101330009A83AB83BC83CE0101967C0110E0812FA0
:101340000E940F0316161706180619069CF4812F23
:101350000E941F09611571058105910521F461E065
:1013600070E080E090E0D701ED91FC91648375839B
:1013700086839783B2E0EB0EF11C113051F40F908D
:101380000F900F900F90DF91CF911F91FF90EF90F2
:10139000089511E0D4CF90E0FC01E159FA4FE491B7
:1013A000EE2389F0F0E0EE0FFF1FEB50FB4FA5910D
:1013B000B4912C91815F9A4FFC018491282381E0A4
:1013C00019F480E0089581E008958AE1E1E7F2E010
:1013D000A1E3BCE001900D928A95E1F70895FC012C
:1013E00080819181C2978F369F40F0F48281815035
:1013F0008032D0F4838194810A978F3D9340A0F48A
:10140000858196810A978F37934170F48781908503
:101410000A978730974240F481858150843120F4C7
:1014200081E09285923008F080E00895CF93DF93B9
:10143000EC010E94EF09882399F0CE010B960E94DF
:10144000EF09882369F08E899F890A978F3A9B401C
:1014500030F481E0288D398D213D374008F080E05F
:10146000DF91CF910895CF93883008F080E0E82F86
:10147000F0E0EE5BFC4FC081C23008F0C0E024E039
:10148000C29FF0011124EE5EF34F4281538101901F
:10149000F081E02DE417F50778F59A012F5F3F4FB3
:1014A0002E1B3F0BDB010E9495692AE096958795DC
:1014B000779567952A95D1F79A01261B370BB901C5
:1014C000C1111CC04E1B5F0B4233510580F0CB0194
:1014D0008E1B9F0B6AE070E00E943869CB012AE006
:1014E000289FB001299F700D11246E0F7F1F90E07F
:1014F00080E00E94A4670CC0BF01E2CF90E080E0D2
:101500000E94A4672AE037ED43E25CE30E945B6837
:10151000CF910895883008F080E0E82FF0E0EE5B8E
:10152000FC4F90819F3F31F06091650B7091660B8D
:101530000C94330A60E070E0CB010895CF92DF9203
:10154000EF92FF92CF93DF938091830B883008F066
:1015500040C0823089F121E090E0813009F020E044
:10156000C22FD92F0E948A0A6B017C01CD2BD9F0A2
:101570006091030B7091040B8091050B9091060B09
:101580006A3071058105910520F46CE370E080E01C
:1015900090E00E94A4679B01AC01C701B6010E94C4
:1015A0005B686B017C01C701B601DF91CF91FF90B1
:1015B000EF90DF90CF9008956091650B7091660B6E
:1015C00080E0DF91CF91FF90EF90DF90CF900C946F
:1015D000330AD0E0C0E0C6CF4617570770F0411578
:1015E000510559F0880F991F880F991FFC01EE5E75
:1015F000F34F71836083538342830895E2E1FCE0FB
:10160000A9E6B2E04D915D916D917C911397408375
:1016100051836283738314968D919D910D90BC913B
:10162000A02D84839583A683B7830895FC018281CE
:101630009381208131818217930760F0892B51F0CB
:1016400026813781848195812817390718F081E038
:10165000232B09F480E0089580914C02813031F011
:10166000823011F484E4089583E508958DE40895AB
:101670004F925F926F927F928F929F92AF92BF92A2
:10168000CF92DF92EF92FF920F931F93CF93DF934E
:10169000F82E8A01D62FC72F6091110C70E090E0D0
:1016A00080E00E94A467762E872E982EA92E609146
:1016B000100C70E090E080E00E94A467B62EC72E68
:1016C000D82EE92EEF2DF110E1E08BE0E89FF0013C
:1016D0001124EF5CF34F6581768190E080E00E94F9
:1016E000A4672B01682EF92E98014D2F5C2F672DD2
:1016F000782D892D9A2D0E945668181624F4072DEE
:10170000182DD92DCA2D2B2D3C2D4D2D5E2DB80118
:101710008D2F9C2F0E945668181624F40B2D1C2D1B
:10172000DD2DCE2D20E030E040E85FE3B8018D2FC5
:101730009C2F0E94F76687FF04C000E010E0D0E80D
:10174000CFE39201462D5F2DB8018D2F9C2F0E9473
:10175000566818161CF48201D62DCF2DB8018D2F96
:101760009C2FDF91CF911F910F91FF90EF90DF9011
:10177000CF90BF90AF909F908F907F906F905F9031
:101780004F90089587E0E2E6F2E0ABE0BCE0019024
:101790000D928A95E1F70895FC0180818230A8F4CA
:1017A000818192818938934180F483819481893841
:1017B000934158F425818BEF820F843C30F496815D
:1017C000953018F081E0291708F480E008958091A1
:1017D000100C853018F485E08093100C8091100C6B
:1017E000893C18F088EC8093100C8091110C8530A6
:1017F00018F485E08093110C8091100C9091110CDD
:10180000891710F48093110C089580910B0C882394
:1018100011F08BE408958DE208952F923F924F923C
:101820005F926F927F928F929F92AF92BF92CF9270
:10183000DF92EF92FF920F931F93CF93DF9300D02D
:1018400000D0CDB7DEB7411141E03BE0439FF0014E
:101850001124EF5CF34F808091807280438154812A
:101860003FEF97FF31E0F6013083F80110821182DB
:1018700012821382F7011082118212821382611583
:1018800071058105910509F46CC08114910409F476
:1018900068C0772009F465C04115510509F461C09D
:1018A00097FF07C090958095709561957F4F8F4FFA
:1018B0009F4FFC82EB821E830D832A839A0150E0A6
:1018C00040E00E940F6AE8EEAE2EF3E0BF2EC12C7E
:1018D000D12CE12CF12C00E010E00E94B769190135
:1018E0002A01662E7983F82FE92F272D30E0D401C5
:1018F0000E9495699B01AC01A4E6B0E00E94A46936
:101900005B016C0100E010E09101A201662D79817C
:101910008F2F9E2F0E947C6AFA81F23071F4A0E131
:10192000B7E20E94A469685E7F408E4F9F4F20E31C
:1019300030EE43E050E00E944C69B901CA0128EE44
:1019400033E040E050E00E944C69ED81FE8120834D
:10195000318342835383EB81FC8160837183828373
:10196000938326960FB6F894DEBF0FBECDBFDF91EE
:10197000CF911F910F91FF90EF90DF90CF90BF908C
:10198000AF909F908F907F906F905F904F903F901F
:101990002F900895CF93DF93FC012481358133FF8D
:1019A00010C0EC010E94FE502A813B81621B730B28
:1019B0002E85F0E12F9F9001112481E062177307BB
:1019C00008F480E0DF91CF9108951F93CF93DF93C8
:1019D000EC018C819D8180FD19829C012F71332740
:1019E000232B19F0807E9D838C838C819D8194FBB9
:1019F000112710F9162796FF04C09F7B9D838C83C7
:101A000011E08C819D8191FD10C011110BC0CE01A0
:101A10000E94CA0C182F8111C0C0812FDF91CF9175
:101A20001F91089592609D838C830E94FE50AB01AC
:101A30008A819B81FA01E81BF90B8C819D8111231E
:101A400009F45DC085FD3EC02A8592FD06C02223B3
:101A500021F094609D838C830BC02E171F0619F014
:101A600010F0211107C082629D838C8359874887BB
:101A70005B834A838C819D818F71992711E0892B2B
:101A800031F28E819F81892B41F28C819D819170F1
:101A90008436910509F48AC008F09AC08232910513
:101AA00009F484C008F07BC08130910509F47EC040
:101AB000409709F47BC0CE010E94CA0C882309F428
:101AC000ACCF74C097FDD6CF86FD0AC02C85A0E1AF
:101AD0002A9F90011124E217F30760F28464BACFC1
:101AE00087FF0BC02D85A0E12A9F900111248868F3
:101AF000E217F30708F0AECFBDCF2C85F4CF85FFFA
:101B000012C02A852E171F0609F080F586FD03C036
:101B100029812F5F298397FD19828F7D80619160D4
:101B20009D838C8323C090FF0DC097FD03C080610F
:101B30009D838C838C819D819E779D838C835B8329
:101B40004A8314C029812223F1F09C01207C332791
:101B5000232BA1F42B8540E1249F90011124E2174F
:101B6000F30760F488859985892B51F48C819D81D8
:101B700092FF80CF9B7F9D838C837CCF8160D0CF71
:101B800019861886F3CF91FFF1CF8F739D7F9860F0
:101B90009D838C8319861886D2CF10E072CF813452
:101BA000910521F08035910509F085CFEE81FF8107
:101BB000309709F432CF1995CE010E94CA0C8823C0
:101BC00009F42BCF8C819D81977F9D838C8325CFBA
:101BD000883E910559F338F4813C910539F3803DF5
:101BE000910521F368CF8035A1E09A07F9F2803D95
:101BF00021E09207D9F28031914009F05CCFD6CF35
:101C00008EE10E94CB0961E0811101C060E086ECA9
:101C10009DE00E94E50C8FE10E94CB0961E08111FB
:101C200001C060E087EB9DE00E94E50C80E20E942D
:101C3000CB0961E0811101C060E088EA9DE00E946B
:101C4000E50C81E20E94CB0961E0811101C060E0F6
:101C500089E99DE00E94E50C82E20E94CB0961E0E7
:101C6000811101C060E08AE89DE00E94E50C83E2FA
:101C70000E94CB0961E0811101C060E08BE79DE02B
:101C80000E94E50C84E20E94CB0961E0811101C051
:101C900060E08CE69DE00E94E50C85E20E94CB09A5
:101CA00061E0811101C060E08DE59DE00E94E50CDE
:101CB0006091060165FB662760F98EE49DE00E9455
:101CC000E50C6091060166FB662760F98FE39DE0F5
:101CD0000E94E50C60910601661F6627661F80E37F
:101CE0009DE00E94E50C6CB16295617081E29DE01F
:101CF0000E94E50C6CB165FB662760F982E19DE00E
:101D00000C94E50C6EE270E086E29CE00E94646B4D
:101D1000009741F09C0126523C4081E0909155088B
:101D2000291708F080E00895E0915508F0E0EA5D99
:101D3000F34F808180538A3020F5E0912F0C88E0AA
:101D4000E89FF0011124E65BFC4F828193810197AB
:101D5000D1F40E94820E282F80E0211126C0E82FA6
:101D6000F0E0EA5DF34F9081992341F09E3231F02B
:101D700090539A3008F42F5F8F5FF1CF81E02230CB
:101D8000A0F480E0089520E090E0E22FF0E0EA5D2A
:101D9000F34F8081882331F080538A3008F49F5FAD
:101DA0002F5FF3CF81E0923060F30895CF93DF93FC
:101DB0000097A1F0FC012081222381F0EB010E9419
:101DC000386661157105F1E08F07910538F4798364
:101DD000688381E090E0DF91CF91089590E080E00A
:101DE000FACF8F929F92AF92BF92EF92FF920F9392
:101DF0001F93CF93DF93009709F467C0FC01208104
:101E0000222309F462C08B01EC016EE270E00E94B3
:101E1000646B7C01892B71F4B801CE01DF91CF9105
:101E20001F910F91FF90EF90BF90AF909F908F9078
:101E30000C94D60ECE010E9438664B015C01C7019E
:101E400001960E943866F8EE8F16F3E09F06A10413
:101E5000B104D8F597FD2BC06A3071058105910555
:101E600054F5F701218120532A3048F422812111B1
:101E700006C0AAE0B0E09B01AC010E94A46944E660
:101E8000489D9001499D300D1124620F731FF80188
:101E90007183608381E090E0DF91CF911F910F917A
:101EA000FF90EF90BF90AF909F908F90089560E06B
:101EB00070E0CB01D6CF6436710581059105FCF247
:101EC00063E670E080E090E0DACF90E080E0E4CF7D
:101ED00084E992E00C942947CF93DF93EC0187E9E2
:101EE00092E00E940E47CE010E94014788E494E0F0
:101EF000DF91CF910C940147CF93DF93D82FC5E1A9
:101F00008C9FC001112444E150E060E270E08355F1
:101F1000984F0E945D6BCD9FF0011124E355F84F5F
:101F2000148ADF91CF910895EF92FF920F931F9340
:101F3000CF93DF93CDB7DEB7A0970FB6F894DEBF8F
:101F40000FBECDBFFE01339696E1DF011D929A953B
:101F5000E9F793E099838A836B83298F3A8F4B8FBC
:101F60005C8FED8EFE8E0F8F18A3CE0101960E941E
:101F7000D008A0960FB6F894DEBF0FBECDBFDF919C
:101F8000CF911F910F91FF90EF90089562E00C9414
:101F90004C50CF93DF9320914D02222381F0EC012E
:101FA00060E080E10E94C04FBE0190E080E00E94AE
:101FB000CB5061E080E1DF91CF910C94C04FDF9175
:101FC000CF910895CF93C82F61E00E944C5061E0FB
:101FD0008C2FCF910C94C04FCF93C82F61E00E94FB
:101FE0004C5060E08C2FCF910C94C04F0E94BF46A4
:101FF0002091650B3091660BA9014C5F5F4F48172C
:1020000059072CF0245031098217930744F5209189
:102010002208E22FF0E0EE0FFF1FEE5FF74F409136
:1020200023085091240860817181461B570B9183CE
:102030008083840F951F90932408809323082F5F3B
:102040002F702093220844E0969587954A95E1F7F2
:102050009093660B8093650B81E08093250808952B
:1020600086E29CE0FC0101900020E9F7CF01875255
:102070009C408830F0F441E0480F2091550830E052
:102080002F5F3F4FE42FF0E02E173F0740F4EA5D4B
:10209000F34FDF0111975C9150834150F3CF2A5DDC
:1020A000334F40E3F90140839927FC01EA5DF34F88
:1020B000118208950F931F93CF93DF93EB01099043
:1020C0000020E9F72197C61BC53108F0C4E1D0E034
:1020D00095E1899F800111240355184FAE01C80175
:1020E0000E94426B44E150E04C1B5D0B60E270E0EB
:1020F000C8018C0F9D1F0E945D6BF801148ADF914F
:10210000CF911F910F910895FF920F931F93CF933B
:10211000DF93CDB7DEB765970FB6F894DEBF0FBE7D
:10212000CDBF10912F0C123008F44EC011501A314F
:1021300008F019E1BE016F5F7F4F812F0E94D445E7
:10214000BE016F5F7F4F80E00E945A10FF24F3941E
:10215000F10EBE016F5F7F4F8F2D0E94D445BE01EF
:102160006F5F7F4F81E00E945A1002E0010FBE01B5
:102170006F5F7F4F802F0E94D445BE016F5F7F4FFE
:1021800082E00E945A109091300C913051F580916C
:102190002F0C8117D9F0F816D1F092E00817B9F09A
:1021A0008FEF80933F026BE474E083E00E945A104B
:1021B00065960FB6F894DEBF0FBECDBFDF91CF910D
:1021C0001F910F91FF90089510E0B4CF90E080919F
:1021D0005508895F843120F790933F02809301086E
:1021E000E2CF6FE574E083E00E945A108FEF809396
:1021F0003F02DECF1F93CF93DF93CDB7DEB7649757
:102200000FB6F894DEBF0FBECDBF182FBE016F5FB3
:102210007F4F0E948648892BA9F084E20E943747AD
:10222000612F70E090E080E04AE00E943C478DE33F
:102230000E943747CE0101960E94014788E494E04E
:102240000E94014764960FB6F894DEBF0FBECDBF63
:10225000DF91CF911F910895CF93DF93CBE8D2E028
:1022600089910E94FA1082E0C83AD807C9F7DF9135
:10227000CF9108951F93CF93DF93EC01162F0E9407
:102280007466181739F0612FCE01DF91CF911F913D
:102290000C947C66DF91CF911F910895CF93C091EC
:1022A0004D0280911202C80FCB5565EA90E080E0A4
:1022B0000E943A116091120281E090E00E943A116E
:1022C00060914D0282E090E00E943A116C2F83E011
:1022D00090E0CF910C943A11EF92FF921F93CF931D
:1022E000DF9381E3E82E8CE0F82EF70115EC819165
:1022F000180F8CE0EB34F807D1F765EC80E290E042
:102300000E943A11C1E2D0E0F70161917F01CE0154
:102310000E943A112196CB33D105B1F7612F87E3A3
:1023200090E0DF91CF911F91FF90EF900C943A11C4
:1023300081E39CE00E94160A811102C00E94E50917
:102340000C946C11EF92FF921F93CF93DF9382E175
:10235000E82E8CE0F82EF70117EB8191180F8CE036
:10236000EA31F807D1F767EB80E190E00E943A117B
:10237000C1E1D0E0F70161917F01CE010E943A11E5
:102380002196C931D105B1F7612F89E190E0DF9144
:10239000CF911F91FF90EF900C943A1182E19CE055
:1023A0000E94160B811102C00E94FE0A0C94A21119
:1023B000CF9380914C02833018F081E080934C02DF
:1023C000C0914C02CF5261ED86E490E00E943A1138
:1023D00060914C0287E490E00E943A116C2F88E4EF
:1023E00090E0CF910C943A11EF92FF921F93CF930C
:1023F000DF938BE0E82E8CE0F82EF70112EB819151
:10240000180F8CE0E231F807D1F762EB88E390E037
:102410000E943A11C9E3D0E0F70161917F01CE013A
:102420000E943A112196C034D105B1F7612F80E4A2
:1024300090E0DF91CF911F91FF90EF900C943A11B3
:102440000E94E70B8BE09CE00E94CC0B811102C044
:102450000E94C20B0C94F4110C9474660C944E11EF
:102460000F931F93CF93DF93062FC82FD0E0CE0199
:102470000E942C12182FCE0101960E942C12C82FF8
:10248000802F90E00E942C12113D71F491ED9C0F71
:1024900089130AC0C33040F4C0934C0281E0DF913D
:1024A000CF911F910F91089580E0F9CFAF92BF9225
:1024B000CF92DF92EF92FF920F931F93CF93DF9310
:1024C000CDB7DEB72C970FB6F894DEBF0FBECDBFE9
:1024D0007C01D42EC52EB62EA72EC901B80128EE38
:1024E00033E040E050E00E944C699F938F937F93CC
:1024F0006F93AF92BF92CF92DF9282E794E09F9367
:102500008F931F928CE08F939E012F5F3F4F690145
:102510003F932F930E94856B6EE270E0C6010E948C
:10252000646B0FB6F894DEBF0FBECDBF009711F1FC
:10253000C816D906F8F49601FC013197B9012E1797
:102540003F0730F42F5F3F4FDB014C914033B1F335
:102550008617970711F461507109C616D70650F413
:10256000FB0101900020E9F7AF01461B570BC601A4
:102570000E944B6BD6010D900020E9F711978D0159
:102580000C191D0947E050E060E270E0C7010E94AD
:102590005D6B07301105F0F0F8013797EC0DFD1D6C
:1025A00087E0D70101900D928A95E1F7D701179640
:1025B0001C922C960FB6F894DEBF0FBECDBFDF91F4
:1025C000CF911F910F91FF90EF90DF90CF90BF9030
:1025D000AF900895C701801B910BA801B601079623
:1025E0000E94426BE3CF4F925F926F927F928F92E5
:1025F0009F92AF92BF92CF92DF92EF92FF920F9392
:102600001F93CF93DF93CDB7DEB761970FB6F894E2
:10261000DEBF0FBECDBF0E94E408882309F450C07E
:102620006AE874E080E00E945A1040E150E060E205
:1026300070E084E69CE00E945D6B84E0EFE9F4E0EA
:10264000A0E6BCE001900D928A95E1F70E942C0B68
:102650008093720C0E94050C8093730C1092740C82
:1026600080E69CE0009721F0BC0181E00E94AD066D
:1026700082E00E947C0F0E94464580E69CE0892B08
:1026800029F060E67CE083E00E94AD068FEF809346
:102690003F0261960FB6F894DEBF0FBECDBFDF914B
:1026A000CF911F910F91FF90EF90DF90CF90BF904F
:1026B000AF909F908F907F906F905F904F90089514
:1026C0000E944705162F072F582E8091830B8830C4
:1026D00008F080E0E82FF0E0EE5BFC4F90819F3F38
:1026E00009F090C064EA74E080E597E00E946F6BA7
:1026F0004CE754E0013031F044E854E0023011F48A
:1027000040E854E08FEF810F883008F0D2C0812F6D
:102710008150990BFC01EE0FFF1FEE5AFD4F808197
:10272000918120E060E577E00E94D74480E69CE05C
:10273000009721F0BC0180E00E945A10552009F456
:10274000BBC091E01AE5812C912C5401951550F0F5
:1027500024E0529EF0011124E35AF44F80809180CE
:10276000A280B38040904C0240E150E060E270E013
:102770008FE397E00E945D6B84E0E9EBF4E0ABE36C
:10278000B7E001900D928A95E1F710933F07CE01D3
:1027900001963C01411096C0B7FE90C08DE2809337
:1027A0004007B094A09490948094811C911CA11C2B
:1027B000B11CBF92AF929F928F928EEB94E09F9349
:1027C0008F931F9288E08F937F926F920E94856B08
:1027D0000FB6F894DEBF0FBECDBF87E0F301A1E4D2
:1027E000B7E001900D928A95E1F70E942C0B80933F
:1027F0004D070E94050C80934E0710924F076BE324
:1028000077E033CF92E0A92EB12C823039F021E06D
:1028100090E0813009F020E0A22EB92E0E948A0AB1
:10282000A114B104E9F420E030E040E05FE30E944D
:102830008B660E9475677F936F938AEA94E09F93FB
:102840008F931F9280E18F9380E597E09F938F9302
:102850000E94856B0FB6F894DEBF0FBECDBF48CF88
:10286000AA94AB2809F044CF20E030E048EC52E4D1
:102870000E945B6820E030E040E05FE30E948B66EE
:102880000E947567CB0164E670E00E9438699F93EF
:102890008F937F936F938FEA94E09F938F931F9210
:1028A00080E18F9380E597E09F938F930E94856BE3
:1028B000D1CF88E894E035CF18E54ACF80E2809305
:1028C000400777CFCE0141966C0108977C018E01BD
:1028D000035F1F4F242D452DC501B4010E940D0C2F
:1028E00009851A852B853C854D855E856F857889A0
:1028F000C3010E945612898987FD04C080E280933B
:1029000040076BCF8DE2FBCF1F920F920FB60F9255
:1029100011240BB60F922F933F934F935F936F93B6
:102920007F938F939F93AF93BF93EF93FF9385E72D
:102930009CE00E949703FF91EF91BF91AF919F910F
:102940008F917F916F915F914F913F912F910F9058
:102950000BBE0F900FBE0F901F9018951F920F92F5
:102960000FB60F9211240BB60F922F938F939F9354
:10297000EF93FF93E091850CF091860C8081E091BC
:102980008B0CF0918C0C82FD1DC0908180918E0C7F
:102990008F5F8F7320918F0C821741F0E0918E0C26
:1029A000F0E0EB58F34F958F80938E0CFF91EF91F1
:1029B0009F918F912F910F900BBE0F900FBE0F9094
:1029C0001F9018958081F2CFFC01A18DB28D8C9162
:1029D000938D892B8C93A18DB28D9C91838D809545
:1029E00089238C930895EF92FF921F93CF93DF93E7
:1029F000EC01EC8CFD8CF70192917F0188A1809510
:102A00008923808381E06827CE010E94910489890F
:102A1000882321F061E0CE010E947C04888988230C
:102A200021F1CE010E94E414CE010E945704182F18
:102A3000CE010E94E414CE010E9457041295107F2B
:102A40008F70182BF701808198A1892B8083898949
:102A5000882321F060E0CE010E947C04812FDF9169
:102A6000CF911F91FF90EF900895CE010E94E41442
:102A7000CE010E945704182FE5CF1F93CF93DF9309
:102A8000EC01162F642F0E9491048989882321F07C
:102A900060E0CE010E947C0488898823C9F0612F00
:102AA00070E084E0759567958A95E1F7CE010E9404
:102AB0007C46612F6F70CE010E947C4689898823F5
:102AC000A9F060E0CE01DF91CF911F910C947C04BE
:102AD00068A1EC8DFD8D9081862F8095892316232A
:102AE000182B1083CE010E94E414E8CFDF91CF9120
:102AF0001F9108958F929F92AF92BF92CF92DF92D3
:102B0000EF92FF920F931F93CF93DF93FC01E95E47
:102B1000FE4F2081211105C0CC24CA94DC2C760103
:102B200021C0EC018C01085F1E4FD8018D919C9152
:102B3000019751F50E948850FE01E65FFE4F8080AC
:102B40009180A280B380681579058A059B05C8F439
:102B5000C080D180E280F3800E948850C61AD70AD4
:102B6000E80AF90AC701B601DF91CF911F910F91D1
:102B7000FF90EF90DF90CF90BF90AF909F908F909D
:102B80000895F80111821082D8018D919C910297CD
:102B900009F099C06E01B1EFCB1ABEEFDB0AF60166
:102BA000B0807E01F2EFEF1AFEEFFF0AD701EC9141
:102BB000EC0FFD2FF11D87A5B80E61E0CE010E943C
:102BC000F3148F77B8122CC061E0CE010E94F31489
:102BD00060E0CE010E94F314FE01EF5EFE4F908193
:102BE00098131EC08081F7012081D601EC9199A530
:102BF000AE01299F400D511D1124E40FF52FF11D49
:102C000085ABD80111961C921E92C95FDE4F988148
:102C10009150988325E0C22ED12CE12CF12CA2CF2B
:102C2000FE01E05FFE4F9081DE01AA5EBE4F8C91F7
:102C3000981788F580818F5F8083F6016081D701C6
:102C4000EC91EC0FFD2FF11D87A5680F606840E047
:102C5000CE010E943D156BE9E62EF12CC7010197CC
:102C6000F1F7FE01EF5EFE4F608141E0CE010E9470
:102C70003D15C7010197F1F70E948850685D7F4FAD
:102C80008F4F9F4FC65FDE4F688379838A839B8314
:102C900082E090E05FC0FE01EE5EFE4F8081918198
:102CA000A281B3810196A11DB11D80839183A2836E
:102CB000B383D80111961C921E92C95FDE4F988192
:102CC0009150988329CFAE01495F5E4FFA01808110
:102CD000882309F421CF329780818C0F9D2F911D7D
:102CE0008B579F4FDC018C91208130E02F5F3F4F4D
:102CF0002F773327208320812C0F3D2F311D2B5719
:102D00003F4FD9016C91208130E02F5F3F4F2F77EB
:102D100033272083FA01908191509083833009F406
:102D20007FC0E0F4813009F47CC0823009F01ACF12
:102D300041E0CE010E943D150E948850685D7F4FA2
:102D40008F4F9F4FC65FDE4F688379838A839B8353
:102D500081E090E0F8019183808379C0853009F4A7
:102D600099C008F47AC0863009F0FCCE862F90E036
:102D700034E0959587953A95E1F74E01B2EF8B1ABD
:102D8000BEEF9B0AF40180836F70DE01A15FBE4F2E
:102D90006C9320818C9199A5AE01299F400D511D06
:102DA0001124840F952F911DFC0185A96E01FFEE62
:102DB000CF1AFEEFDF0AF60180835E01F0EFAF1A53
:102DC000FEEFBF0AF5011082FC90D401EC91EC0FEC
:102DD000FD2FF11D87A5F80EEF2C6894E7F840E071
:102DE0006E2DCE010E943D158BE990E00197F1F721
:102DF00061E0CE010E94F3148F77F81263C061E0A6
:102E0000CE010E94F31460E0CE010E94F314F6019B
:102E10009081891357C0D80111961C921E92FACE48
:102E2000606840E0CE010E943D150E948850685DB8
:102E30007F4F8F4F9F4FC65FDE4F688379838A83B2
:102E40009B8381E090E0D80111969C938E9388E259
:102E5000C82ED12CE12CF12C85CE40E061E0CE01D2
:102E60000E943D150E94885060517A4F8F4F9F4FAE
:102E7000C65FDE4F688379838A839B8381E090E01D
:102E8000F8019183808340EFC42E45E0D42EE12CDD
:102E9000F12C68CE40E062E0CE010E943D150E9418
:102EA000885060517A4F8F4F9F4FC65FDE4F6883C7
:102EB00079838A839B8381E090E0D80111969C936B
:102EC0008E93E1CF81E0F501808340E06E2DCE014D
:102ED0000E943D159BE9E92EF12CC7010197F1F7FE
:102EE000D6016C91C2CECF93DF93EC01CE010E944C
:102EF0007A1597FFFBCFDF91CF910895CF93DF93A2
:102F0000EC01C95FDE4F28812F3728F5FC01EA5F0D
:102F1000FE4FA081A80FB92FB11DAB57BF4F6C93C7
:102F2000208130E02F5F3F4F2F7733272083A08110
:102F3000A80FB92FB11DAB57BF4F4C93808190E0C4
:102F400001968F779927808388818F5F888381E0BE
:102F5000DF91CF91089580E0FBCFFC01E95EFE4F49
:102F60002081222331F0462F62E00E947E1790E0FC
:102F7000089590E080E00895EF92FF920F931F93E1
:102F8000CF930E94AD5080913F02843058F0409121
:102F9000020E4D7F4093020E486061E085ED9DE09A
:102FA0000E947E178DEAE82E87E0F82EC0E080911F
:102FB000EC0E882321F06C2F80E00E94A44610E0E4
:102FC00000E0F701E00FF11F608185ED9DE00E94B8
:102FD000AD170F5F1F4F0431110599F7CF5F85E1E2
:102FE000E80EF11CC43019F760913F026430A0F480
:102FF0008091EC0E882321F0809101080E94A44664
:103000004091020E842F82608093020E4A6061E03C
:1030100085ED9DE00E947E17CF911F910F91FF904B
:10302000EF900C94AD508A3170F4E82FF0E0EE0F81
:10303000FF1FE050FD4F0190F081E02D309719F017
:103040008081918108958550863170F4E82FF0E0F9
:10305000EE0FFF1FEC52FD4F0190F081E02D3097F5
:1030600019F0808190E0089590E080E00895CF937A
:10307000C82F0E94131828E0C29FF0011124E65BBC
:10308000FC4F2281338121303105F9F464E670E090
:103090000E9438699F938F937F936F9381EB94E0A5
:1030A0009F938F931F9289E08F9386E29CE09F937A
:1030B0008F930E94856B8DB79EB70A960FB6F894D2
:1030C0009EBF0FBE8DBFCF91089523303105C1F44F
:1030D0009F938F9385EB95E09F938F931F9289E049
:1030E0008F9386E29CE09F938F930E94856B8DB7B0
:1030F0009EB708960FB6F8949EBF0FBE8DBFE3CF64
:103100009F938F9385EB95E09F938F931F9289E018
:103110008F9386E29CE09F938F930E94856B8DB77F
:103120009EB708960FB6F8949EBF0FBE8DBFCBCF4B
:10313000CF92DF92EF92FF920F931F93CF93DF9383
:1031400000D000D01F921F92CDB7DEB7D82E1091BD
:103150002F0C48E0149FF0011124E65BFC4F8281A4
:10316000938182309105C9F5812F0E941318813017
:1031700009F418C1823009F422C1843009F421C154
:10318000883009F420C1803109F41FC1803209F46C
:1031900000C15FEFE6E0D51609F40FC1F0E0EC5C8A
:1031A000FC4F608170E0812F0E948D0680912F0C72
:1031B0000E9437180E94C20528960FB6F894DEBF09
:1031C0000FBECDBFDF91CF911F910F91FF90EF9078
:1031D000DF90CF900895EF5FE1CF8330910551F4F8
:1031E000812F0E94131861E070E0892BE1F270E0FA
:1031F00060E0D9CFC09055082C2D30E0F901EA5D90
:10320000F34F7F01108120ED210F2A30A8F601979E
:1032100009F094C00E94820E082FF1E0882381F00B
:10322000DF1208C0193311F01F5F01C010E3F7016E
:103230001083C2CF103311F01150F9CF19E3F7CF3B
:10324000DF1237C0193389F580E3F70180830E94CC
:1032500030106EE270E086E29CE00E94646B0097A2
:1032600009F48DC0FC01318120ED230F2A3008F0D4
:1032700030E3FC01228140ED420F4A3008F020E3A8
:10328000E6E2FCE0E817F90758F5073070F54191E0
:1032900050ED540F5A30B0F7A1E0B0E0AC0FBD1FB5
:1032A000A00FB11D4C930F5FEDCF1F5FF70110838F
:1032B000D0CF103399F40E94940E882309F47CCF68
:1032C000EC2DF0E0EA5DF34F8081882321F08181CD
:1032D0008083C394F5CF0E94D505BBCF1150E6CFB4
:1032E000011103C080E3898301E0CE010196FC0156
:1032F000E00FF11D1082422F022E000C550B5F9340
:103300002F93432F032E000C550B5F933F939F93F6
:103310008F9384EC94E09F938F931F9289E08F9317
:1033200086E29CE09F938F930E94856B0E94D50557
:103330000FB6F894DEBF0FBECDBF3ECF51E0D51221
:1033400008C0193309F070CF80E380830E943010E9
:1033500033CF103309F070CF0E94940E882309F404
:103360002BCFEC2DF0E0EA5DF34F8081882321F034
:1033700081818083C394F5CF0E94D5051DCF86E25D
:103380009CE0FC0101900020E9F7CF01019730E3B8
:1033900076CFF1E0DF1621F05FEFE5E0D51669F0BA
:1033A000E5E0FCCEE0E041E0D41609F414CF8FEF65
:1033B000D812F4CEEE2309F4F1CEE150EFCEE1E0E5
:1033C000F2CFE2E0F0CFE3E0EECFE4E0ECCF2FB7D6
:1033D000F8946091280B7091290B80912A0B9091A1
:1033E0002B0B2FBF08950F931F930E94E719009195
:1033F000F00A1091F10A2091F20A3091F30A601B51
:10340000710B820B930B1F910F9108950F931F93D4
:10341000CF93DF930091430210914402C091410287
:10342000D09142020E94F3199801AE010E94A404B7
:103430009F772AE037ED43E25CE30E94F766881F3E
:103440008827881F8093FA0ADF91CF911F910F91EF
:1034500008954F925F926F927F928F929F92AF9258
:10346000BF92CF92DF92EF92FF92CF93DF930E94B1
:10347000E408882309F44FC06AE874E080E00E9401
:103480005A1040E150E060E270E084E69CE00E9467
:103490005D6B84E0EFE9F4E0A0E6BCE001900D9202
:1034A0008A95E1F70E942C0B8093720C0E94050C08
:1034B0008093730C1092740C80E69CE0009721F0CE
:1034C000BC0181E00E94AD060E948D458BE49CE02A
:1034D000009721F0BC0182E00E945A100E944645EC
:1034E00080E69CE0892B29F060E67CE083E00E9486
:1034F000AD068FEF80933F02DF91CF91FF90EF9069
:10350000DF90CF90BF90AF909F908F907F906F9003
:103510005F904F9008950E944705EB010E94F319B8
:10352000C090470CD090480CF12CE12C412C512C30
:103530003201C114D104E104F10401F1A7019601A3
:103540000E946E6997FF04C06C0D7D1D8E1D9F1D2E
:103550000E94A66720E030E044EB53E40E945B68E1
:103560004B015C01C701B6010E94A6679B01AC013B
:10357000C501B4010E94FC662B013C01C301B201EC
:103580000E9475677B0190E080E00E94A4679B0128
:10359000AC01C301B2010E948A6620E030E048EC31
:1035A00052E40E945B6820E030E040E05FE30E946C
:1035B0008B660E9475676436710528F08FEFE81AF4
:1035C000F80A70E060E098E6E91691E0F90610F07C
:1035D000F12CE12C7F936F93FF92EF928CEC94E0AF
:1035E0009F938F931F9288E08F9383E397E09F933D
:1035F0008F930E94856B8DB79EB70A960FB6F8948D
:103600009EBF0FBE8DBF4CE754E0D13031F044E88F
:1036100054E0D23011F440E854E08FEF8C0F883042
:1036200008F07FC08C2F8150990BFC01EE0FFF1F1B
:10363000EE5AFD4F8081918121E063E377E00E94A3
:10364000D74480E69CE0009721F0BC0180E00E9416
:103650005A10B0904302A090440290904102809092
:1036600042020E94F3192B2D3A2D492D582D0E940C
:10367000A4042B013C017C016B01E894F7F8C7011D
:10368000B6010E947567EB01C83691E0D90708F0D2
:103690004BC020E030E048EC52E4C701B6010E9484
:1036A0005B6820E030E040E05FE30E948B660E94B0
:1036B0007567CB0164E670E00E943869F82EE92E48
:1036C00020E030E0A901C301B2010E94566887FFE3
:1036D00030C08DE2EF92FF92DF93CF931F928F93D2
:1036E000AF92BF928F929F9286ED94E09F938F93BB
:1036F0001F9285E18F938EE197E09F938F930E94B5
:10370000856B6EE177E081E00E945A100E948D4542
:103710008DB79EB740960FB6F8949EBF0FBE8DBF73
:10372000D5CE88E894E088CFF12CE12CC8E6D1E032
:10373000C7CF8BE2CFCF8FB7F894E0EDFBE01082DC
:1037400012821382AEEBBBE051961C925197ECEAC9
:10375000FBE0118A14961D921D921D921C921797E0
:1037600014821582168217828FBF08951092CC0A98
:103770001092CD0A1092AB0B109228080C949B1B50
:103780008091D00B882329F081E09091D20B911188
:1037900001C080E00895ECEAFBE0811102C0EEEB8D
:1037A000FBE00FB607FC05C06485758586859785A7
:1037B00008952FB7F89464857585868597852FBF02
:1037C0000895ECEAFBE0811102C0EEEBFBE00FB6DE
:1037D00007FC05C0448755876687778708958FB7AC
:1037E000F89444875587668777878FBF0895ECEAFA
:1037F000FBE0811102C0EEEBFBE00FB607FC09C055
:1038000040875187628773874487558766877787A4
:1038100008958FB7F89440875187628773874487EC
:103820005587668777878FBF0895ECEAFBE08111A3
:1038300002C0EEEBFBE00FB607FC05C060857185AA
:103840008285938508952FB7F89460857185828568
:1038500093852FBF0895CF92DF92EF92FF920F933F
:103860001F93CF939091DE0A911146C0843008F0E7
:1038700043C0282F30E0F901E755F84F9081992394
:10388000D9F18D7FC1E009F0C0E0220F331F220F74
:10389000331FF901E756F84FC080D180E280F380F2
:1038A0008C2F0E94151C6C157D058E059F0521F13E
:1038B000C093D50AC092D10AD092D20AE092D30A1C
:1038C000F092D40A81E08093E70A1092DC0A809398
:1038D000DB0A8BE0C89FF0011124EF5CF34F678196
:1038E000708590E080E00E94A4678B019C01B70185
:1038F000A6018C2F0E94094FCF911F910F91FF902D
:10390000EF90DF90CF900895CF93DF9380E00E94F7
:10391000151CC3EADBE0688379838A839B8381E09B
:103920000E94151C6C837D838E839F83DF91CF91D2
:1039300008958F929F92AF92BF92CF92DF92EF92B3
:10394000FF92CF93CFB7F8940E949B1B0E94FB0875
:1039500080E00E94151C4B015C0181E00E94151C57
:103960006B017C01B501A40180E00E94E11BB7015D
:10397000A60181E00E94E11BCFBF1092AB0B109219
:10398000A10B1092A20B1092EC0A1092E80A10926E
:10399000E90A1092EA0A1092EB0ACF91FF90EF9099
:1039A000DF90CF90BF90AF909F908F900C94841C2D
:1039B000CF93823080F49091E60A981761F0C82F77
:1039C0000E94E408882349F0C093E60A0E94CF06CB
:1039D00082E08093E50ACF9108950E94991C0E948D
:1039E000CF06C093E60AF4CF1F93CF93DF93182F2F
:1039F00084E0189FE0011124FE01E35AF44F108285
:103A0000118212821382812F0E94151CCD55D44F32
:103A1000688379838A839B838091E60A811304C03B
:103A20001092A20B1092EC0ADF91CF911F910C948F
:103A3000E206CF938091E70A882399F01092E70A73
:103A40001092DC0A1092DB0A0E949B1BC091D50ADF
:103A50008C2F0E94151CAB01BC018C2FCF910C94B4
:103A6000E11BCF9108958091CE0A9091CF0A0497DF
:103A7000D1F084E090E09093CF0A8093CE0A0E9428
:103A8000B61B0E94FB0880E00E94151CAB01BC0124
:103A900080E00E94E11B81E00E94151CAB01BC018B
:103AA00081E00C94E11B08956091CE0A7091CF0AD9
:103AB000E8EAF2E040ED52E02081318162177307BD
:103AC00019F02530310529F42281338182179307BB
:103AD00031F035964E175F0779F70C94331D9093AC
:103AE000CF0A8093CE0A0895CF93883020F5E82F2F
:103AF000F0E08827E158F24E8F4F0C948D69871DB6
:103B0000A71DBC1DD11DDE1DE21DE51D0B1E6BEEAC
:103B100074E080E00E945A1066EF74E081E00E9439
:103B20005A106AEF74E082E00E945A1064E075E077
:103B300083E00E945A108091CE0A9091CF0A892B7F
:103B400009F089C081E090E0CF910C94541D81E090
:103B50008093FC0A6CEE74E080E00E945A106AE0E8
:103B600075E081E00E945A1068E175E082E00E94F1
:103B70005A106FE175E0DCCF81E08093FB0A65E2CB
:103B800075E080E00E945A1061E375E081E00E94D8
:103B90005A1068E175E082E00E945A106EE375E009
:103BA000C7CF6BE475E080E00E945A1063E575E0D2
:103BB00081E00E945A106DE575E0D8CF68E675E0A7
:103BC00080E0B7CF6DE675E0FBCFC1E0C0936B0B33
:103BD00081E090E0909342028093410290934402EE
:103BE000809343020E94E7196093F00A7093F10AF0
:103BF0008093F20A9093F30A0E94E7196093670B8F
:103C00007093680B8093690B90936A0BC0934A0280
:103C10000E94061A90CF81E08093EF0A1092EE0A7C
:103C20001092ED0A64E775E080E00E945A106FE799
:103C300075E081E00E945A106EE875E082E00E9413
:103C40005A106FE175E083E00E945A1081E090E025
:103C50000E94541D70CFCF9108952F923F924F92A2
:103C60005F926F927F928F929F92AF92BF92CF920C
:103C7000DF92EF92FF920F931F93CF93DF93CDB715
:103C8000DEB72C970FB6F894DEBF0FBECDBF809184
:103C9000D20B882309F4F8C08091FD0B9091FE0BA4
:103CA000A091FF0BB091000C4090F90B5090FA0BD3
:103CB0006090FB0B7090FC0B481659066A067B0659
:103CC00010F42C013D01411451046104710421F4EC
:103CD000412C512C32014394A090E50BB090E60B9F
:103CE000C090E70BD090E80BA986BA86CB86DC861D
:103CF0002091F90B3091FA0B4091FB0B5091FC0B8A
:103D0000211531054105510509F4E5C0C601B5018C
:103D10000E941E6A63015201E12CF12C8701498245
:103D2000BA826B82DC82ED82FE820F831887E12CDF
:103D3000F12C00E010E00E947C6AF22FE32F8F2F1D
:103D40009E2FA42FB52F0097A105B10521F481E086
:103D500090E0A0E0B0E06C017D0100E010E098018F
:103D60008983DA82AB83FC820D831E832F8338879D
:103D70009C01AD0160E070E080E090E00FE10E9406
:103D8000206BAFE5AA2EB6E7BB2EC12CD12CE12CBF
:103D9000F12C00E010E00E947C6A2093C20B30936B
:103DA000C30B4093C40B5093C50B2091FD0B309176
:103DB000FE0B4091FF0B5091000C21153105410580
:103DC000510509F491C069857A858B859C850E948F
:103DD0001E6A120151016301E12CF12C00E010E098
:103DE0000E947C6AF22FE32F8F2F9E2FA42FB52FD6
:103DF0000097A105B10521F481E090E0A0E0B0E0DA
:103E00007C018D0120E030E0A9018983FA82AB8337
:103E10001C832D833E834F8358879C01AD0160E056
:103E200070E080E090E00FE10E94206BEFE5AE2EA5
:103E3000F6E7BF2EC12CD12CE12CF12C00E010E0D4
:103E40000E947C6A2093B00B3093B10B4093B20B6D
:103E50005093B30B2C960FB6F894DEBF0FBECDBFB8
:103E6000DF91CF911F910F91FF90EF90DF90CF9056
:103E7000BF90AF909F908F907F906F905F904F908A
:103E80003F902F900C9486094090D50B5090D60B04
:103E90006090D70B7090D80B4114510461047104E9
:103EA00009F01ACF2C960FB6F894DEBF0FBECDBF27
:103EB000DF91CF911F910F91FF90EF90DF90CF9006
:103EC000BF90AF909F908F907F906F905F904F903A
:103ED0003F902F9008951092C20B1092C30B109236
:103EE000C40B1092C50B61CF1092B00B1092B10BA6
:103EF0001092B20B1092B30BADCF2F923F924F9214
:103F00005F926F927F928F929F92AF92BF92CF9269
:103F1000DF92EF92FF920F931F93CF93DF93CDB772
:103F2000DEB768970FB6F894DEBF0FBECDBF6987C6
:103F30007A878B879C8729013A012EA53FA548A93E
:103F400059A92D873E874F87588B672B682B692B84
:103F500041F481E090E0A0E0B0E089879A87AB87E8
:103F6000BC87411451046104710421F4412C512C8B
:103F700032014394E114F1040105110521F4E12C0F
:103F8000F12C8701E394A114B104C104D10421F4FC
:103F9000A12CB12C6501A3942D853E854F855889B0
:103FA000232B242B252B41F481E090E0A0E0B0E00E
:103FB0008D879E87AF87B88B49825A826B827C82BD
:103FC000E414F5040605170520F4E982FA820B8350
:103FD0001C83498A5A8A6B8A7C8AA414B504C60455
:103FE000D70420F4A98ABA8ACB8ADC8A09811A818B
:103FF0002B813C81041515052605370508F09AC16B
:10400000C301B201A30192010E941E6A59016A0113
:104010001B014C0169817A818B819C819B01AC01E0
:104020000E941E6AB22FA32FF42FE52F7B018C0173
:104030009501A601B101C401AB2EBA2ECF2EDE2E02
:104040000E94396B19014A01B62FA72FF82FE92FCB
:104050002D853E854F85588960E070E080E090E0D6
:1040600001E00E94206B59016A017B018C019101E2
:10407000A4016B2F7A2F8F2F9E2F0E947C6A2D8395
:104080003E834F83588789899A89AB89BC89841577
:104090009505A605B70508F080C0C301B201A301CC
:1040A00092010E941E6A2D8B3E8B4F8B588F1B01F5
:1040B0004C0169897A898B899C899B01AC010E949A
:1040C0001E6A59016A017B018C012D893E894F8945
:1040D000588DB101C4010E94396B19014A01B62FF4
:1040E000A72FF82FE92F2D853E854F85588960E051
:1040F00070E080E090E001E00E94206B59016A01CD
:104100007B018C019101A4016B2F7A2F8F2F9E2FA1
:104110000E947C6AF22FE32F8F2F9E2FA42FB52FA2
:104120004D815E816F817885480F591F6A1F7B1F03
:1041300009851A852B853C8540175107620773074F
:1041400008F4E1C029813A814B815C81CA01B9013F
:104150000E9428696B017C0129853A854B855C8525
:104160006D857E858F8598890E94286997018601D3
:10417000060F171F281F391F80E090E0A0E0B0E471
:10418000081719072A073B0760F442E0B695A79580
:10419000979587954A95D1F7F3CF80E090E0DC01C1
:1041A000BFCF40E050E0BA010097A105B105F9F09A
:1041B0006C017D01C40ED51EE61EF71E769567952F
:1041C000579547950C151D052E053F0540F00C1918
:1041D0001D092E093F09480F591F6A1F7B1FE2E086
:1041E000B695A79597958795EA95D1F7DDCF898103
:1041F0009A81AB81BC8184179507A607B70710F495
:10420000DB01CA0184159505A605B70510F42C013C
:104210003D0189859A85AB85BC85B695A79597950F
:1042200087958093DD0B9093DE0BA093DF0BB0930B
:10423000E00B8093E10B9093E20BA093E30BB09320
:10424000E40B29853A854B855C852093D50B30930B
:10425000D60B4093D70B5093D80B1092D90B1092DA
:10426000DA0B1092DB0B1092DC0B4092E90B5092B0
:10427000EA0B6092EB0B7092EC0B89819A81AB8117
:10428000BC818093ED0B9093EE0BA093EF0BB0935A
:10429000F00B09891A892B893C890093F10B109343
:1042A000F20B2093F30B3093F40B8093E50B909378
:1042B000E60BA093E70BB093E80B2D853E854F8569
:1042C00058892093F50B3093F60B4093F70B5093DE
:1042D000F80B68960FB6F894DEBF0FBECDBFDF9126
:1042E000CF911F910F91FF90EF90DF90CF90BF90F3
:1042F000AF909F908F907F906F905F904F903F9086
:104300002F900C942D1E2D813E814F815885209336
:10431000DD0B3093DE0B4093DF0B5093E00B0985F0
:104320001A852B853C85081B190B2A0B3B0BD901E1
:10433000C8017FCF1D821E821F821886A4CECF9215
:10434000DF92EF92FF920F931F93CF93DF938A0137
:10435000D62FC72F811181E09BE0899FF0011124A6
:10436000EF5CF34F6581768190E080E00E94A46766
:104370006B017C0120E030E040E85FE3B8018D2F65
:104380009C2F0E94F76687FF04C000E010E0D0E891
:10439000CFE39601A701B8018D2F9C2F0E9456688C
:1043A00018161CF48601DE2DCF2DB8018D2F9C2F01
:1043B000DF91CF911F910F91FF90EF90DF90CF9001
:1043C00008950F931F93CF93C82F0E94151C20911F
:1043D000A20B1216A4F424E0C29FF0011124ED55A3
:1043E000F44F0081118122813381061717072807B6
:1043F0003907B4F4608371838283938311C02223CD
:1044000079F024E0C29FF0011124ED55F44F0081B2
:10441000118122813381601771078207930754F35A
:10442000CF911F910F910895CF92DF92EF92FF925B
:104430000F931F93CF93DF93811181E0E82EF12C2E
:104440006623D9F08BE08E9DF0018F9DF00D112435
:10445000EF5CF34F6781708590E080E00E94A46775
:104460006B017C01B601C701DF91CF911F910F91C4
:10447000FF90EF90DF90CF9008950E949E0A8B01ED
:10448000D82FC92F8091830B813081F420E030E058
:1044900040E85FE3B8018D2F9C2F0E94F76687FFED
:1044A00010C000E010E0D0E8CFE30BC020E030E027
:1044B00040E251E4B8018D2F9C2F0E94F76687FDE2
:1044C0001EC08BE08E9DF0018F9DF00D1124EF5CDE
:1044D000F34F6581768190E080E00E94A4676B01D4
:1044E0007C019B01AC01B8018D2F9C2F0E94566866
:1044F00018160CF4B7CF6801ED2EFC2EB3CF00E0F8
:1045000010E0D0E2C1E4DDCF8F929F92AF92BF92D4
:10451000CF92DF92EF92FF920F931F93CF93DF938F
:10452000C62FFC018481958182FFE2C061116DC1BB
:104530008091690F85FD08C080915A0FD1E085FDFB
:1045400004C080E0D0E002C0DFEF81E090914B0F2B
:1045500095FDA5C190913C0F95FDA5C1882341F122
:10456000DD2331F1D13029F4C1E0813029F4C2E0FA
:1045700003C0813009F0C3E00C2F10E0F801E755CB
:10458000F84F90819923A1F00E94151C000F111F74
:10459000000F111FF801E756F84FC080D180E2806C
:1045A000F380D13039F46C157D058E059F054CF0F4
:1045B000D1E02FC1DF3F29F4C616D706E806F90679
:1045C000BCF78091DE0A811128C0CD7FD1E009F0CF
:1045D000D0E08D2F0E94151CC616D706E806F906F6
:1045E000E1F0D093D50AC092D10AD092D20AE092DB
:1045F000D30AF092D40A81E08093E70A8093DC0A20
:104600001092DB0A60E08D2F0E9414228B019C0126
:10461000B701A6018D2F0E94094FDF91CF911F9105
:104620000F91FF90EF90DF90CF90BF90AF909F9051
:104630008F9008952091A9072223A1F00091990756
:1046400010919A0720919B0730919C07061B170B2E
:10465000280B390B0093990710939A0720939B0717
:1046600030939C072091AB072223A1F00091A10772
:104670001091A2072091A3073091A407061B170BE6
:10468000280B390B0093A1071093A2072093A307CF
:104690003093A4078D2F0E94F346ED2FF0E0EE0F2C
:1046A000FF1FEE0FFF1FE35AF44F10821182128298
:1046B00013820E94E2068D2F0E94D54688E290E088
:1046C0000E94C90F6DE270E080E090E00E94CB5044
:1046D00088E290E0DF91CF911F910F91FF90EF90D2
:1046E000DF90CF90BF90AF909F908F900C94C90FA8
:1046F00080759170409709F090CF80912D0F85FFC4
:104700000FC0862FDF91CF911F910F91FF90EF90F7
:10471000DF90CF90BF90AF909F908F900C942B1C08
:10472000062F10E0C8018755984F7C01FC0180815D
:10473000882349F01082F801E053FD4F61E0808149
:104740000E94C04FC5CF862F8D7F61F581E00E940A
:10475000151CCC23C9F1C23041F52091A9072223B1
:1047600071F08090990790909A07A0909B07B09065
:104770009C0786169706A806B9060CF04ECF21E0D6
:10478000F7012083F801EE0FFF1FEE0FFF1FE75622
:10479000F84F6083718382839383F801E053FD4F68
:1047A00060E0CDCF80E00E94151CC130F9F420916B
:1047B000AC07222321F38090A5079090A607A09034
:1047C000A707B090A807D5CF2091AB072223B9F255
:1047D0008090A1079090A207A090A307B090A40793
:1047E000681579058A059B0554F217CFC33039F651
:1047F0002091AA07222319F280909D0790909E078E
:10480000A0909F07B090A007EBCFD1E0623009F0F5
:10481000D0E08D2F0E94151C2091E70A222351F031
:104820002091D50A2D1306C01092E70A1092DC0AD7
:104830001092DB0AD13009F4FDCE2091AA07222381
:10484000A1F000919D0710919E0720919F07309144
:10485000A007061B170B280B390B00939D0710931D
:104860009E0720939F073093A0072091AC07222337
:1048700009F410CF0091A5071091A6072091A70772
:104880003091A807061B170B280B390B0093A507BF
:104890001093A6072093A7073093A807FBCED1E07B
:1048A000811186CE5FCEDFEFFBCFCF92DF92EF920A
:1048B000FF920F931F93CF93DF93F82E682F80E022
:1048C0000E9414228B01D82FC92F6F2D81E00E94E6
:1048D00014226B017C019B01AC01B8018D2F9C2F30
:1048E0000E94566818161CF08601DE2DCF2DB801E7
:1048F0008D2F9C2FDF91CF911F910F91FF90EF9003
:10490000DF90CF900895CF92DF92EF92FF920F93B6
:104910001F936A017B018130B1F48091A90788233C
:1049200009F447C06091990770919A0780919B079D
:1049300090919C072091AB0721111EC000E814E85C
:104940002EE130E021C08091AC078823B9F160915D
:10495000A5077091A6078091A7079091A8072091BD
:10496000AA07222359F300919D0710919E072091D9
:104970009F073091A00708C00091A1071091A207DE
:104980002091A3073091A407C616D706E806F906BA
:104990004CF0C701B601061717072807390714F4AA
:1049A000C901B8011F910F91FF90EF90DF90CF9058
:1049B000089560E87BE781EE9FEFBCCF60E87BE77E
:1049C00081EE9FEFCCCF7F928F929F92AF92BF925A
:1049D000CF92DF92EF92FF920F931F93CF93DF93CB
:1049E000411551056105710509F442C0722E94E02C
:1049F000899FE0011124FE01ED55F44F80809180E4
:104A0000A280B3806A017B01C80CD91CEA1CFB1C84
:104A100021113CC0B701A6010E948324FE01ED557F
:104A2000F44F6083718382839383711008C0C6162C
:104A3000D706E806F90619F081E0F8018083FE0147
:104A4000E35AF44FCD55D44F88819981AA81BB8117
:104A500088199909AA09BB09408151816281738132
:104A6000840F951FA61FB71F80839183A283B383F2
:104A7000DF91CF911F910F91FF90EF90DF90CF903A
:104A8000BF90AF909F908F907F900895C701B6011F
:104A9000C5CF0F931F93CF93C82F0E94151CC11130
:104AA00027C02091AC07222369F00091A50710913F
:104AB000A6072091A7073091A80706171707280710
:104AC0003907D1F12091AA072223D1F100919D0746
:104AD00010919E0720919F073091A0070617170796
:104AE0002807390769F586E4CF911F910F91089542
:104AF0002091A907222369F00091990710919A0744
:104B000020919B0730919C07061717072807390744
:104B1000A9F02091AB07222399F00091A1071091F1
:104B2000A2072091A3073091A407061717072807AB
:104B3000390731F48EE3D8CF82E4D6CF8CE3D4CFDB
:104B400080E2D2CF1F93CF93DF930E944705162FA9
:104B5000D72FC82F0E94E40880936C0B8091830BA1
:104B600080936D0B10936E0BD0936F0BC093700BF3
:104B700080E00E94151C6093710B7093720B809300
:104B8000730B9093740B81E00E94151C6093750B5E
:104B90007093760B8093770B9093780B80E00E9454
:104BA00049258093790B81E00E94492580937A0BF7
:104BB00080E090E0DC01C23050F484E0C89FF00156
:104BC0001124E35AF44F80819181A281B3818093B3
:104BD0007B0B90937C0BA0937D0BB0937E0B80910D
:104BE000650B9091660B9093800B80937F0B809167
:104BF0000B0C8093810BDF91CF911F9108959FB78C
:104C0000F89480915A088F5F837020915B08281771
:104C100041F020915A0820915A0820915A08809317
:104C20005A089FBF08951F920F920FB60F9211243A
:104C30000BB60F922F933F934F935F936F937F9396
:104C40008F939F93AF93BF93EF93FF930E94F60FC1
:104C5000FF91EF91BF91AF919F918F917F916F9154
:104C60005F914F913F912F910F900BBE0F900FBE10
:104C70000F901F9018951F920F920FB60F9211244C
:104C8000A8950F900FBE0F901F9018951F920F922E
:104C90000FB60F9211240BB60F922F933F934F93A1
:104CA0005F936F937F938F939F93AF93BF93EF9394
:104CB000FF930E94DE078091280B9091290BA09111
:104CC0002A0BB0912B0B8093170B9093180BA0938A
:104CD000190BB0931A0BFF91EF91BF91AF919F9178
:104CE0008F917F916F915F914F913F912F910F9095
:104CF0000BBE0F900FBE0F901F9018951F920F9232
:104D00000FB60F9211248F939F93AF93BF934A993D
:104D10001EC04B9913C08091470890914808A091FC
:104D20004908B0914A080197A109B1098093470841
:104D300090934808A0934908B0934A08BF91AF9157
:104D40009F918F910F900FBE0F901F9018954B99C8
:104D5000F5CF8091470890914808A0914908B091FB
:104D60004A080196A11DB11DE1CF1F920F920FB607
:104D70000F9211240BB60F922F933F934F935F9393
:104D80006F937F938F939F93AF93BF93EF93FF9313
:104D90000E94DE07FF91EF91BF91AF919F918F919C
:104DA0007F916F915F914F913F912F910F900BBE2B
:104DB0000F900FBE0F901F901895CF92DF92EF9239
:104DC000FF92CF93DF93811181E09BE0899FE00107
:104DD0001124CF5CD34F6881798190E080E00E94FC
:104DE000A4676B017C016A8170E090E080E00E9422
:104DF000A4679B01AC01C701B6010E945B686B010F
:104E00007C016B817C8190E080E00E94A4672AE0B5
:104E100037ED43E25CE30E945B689B01AC01C70194
:104E2000B6010E94FC66DF91CF91FF90EF90DF907A
:104E3000CF9008954F925F926F927F928F929F9240
:104E4000AF92BF92CF92DF92EF92FF920F931F9398
:104E5000CF93DF93CDB7DEB72C970FB6F894DEBFB4
:104E60000FBECDBF9091D00B992309F4A3C09091B0
:104E7000D20B992309F48DC04091FD0B5091FE0B8C
:104E80006091FF0B7091000CA090F90BB090FA0BA1
:104E9000C090FB0BD090FC0BA986BA86CB86DC8633
:104EA000A416B506C606D70620F449875A876B872D
:104EB0007C87C984DA84EB84FC84CD28CE28CF2873
:104EC00041F4E12CF12C8701E394E986FA860B8703
:104ED0001C878090E50B9090E60BA090E70BB090BC
:104EE000E80B04E0809FF0011124E053F44FC1A4CB
:104EF000D2A4E3A4F4A40E94DD262B013C0120E00F
:104F000030E040E85FE30E94F76687FD53C0C501CB
:104F1000B401A70196010E941E6AC984DA84EB8459
:104F2000FC8456016701E12CF12C8701A982BA8229
:104F3000CB82DC82ED82FE820F831887E12CF12C7C
:104F400000E010E00E947C6AB901CA010E94A467D7
:104F500020E030E040E752E40E945B68A301920148
:104F60000E94FC662C960FB6F894DEBF0FBECDBF34
:104F7000DF91CF911F910F91FF90EF90DF90CF9035
:104F8000BF90AF909F908F907F906F905F904F9069
:104F90000895A090D50BB090D60BC090D70BD090B1
:104FA000D80BA986BA86CB86DC86AB28AC28AD2880
:104FB00009F08FCF60E070E0CB01D4CFCF92DF92C9
:104FC000EF92FF92CF93C82F0E94DD266B017C01E8
:104FD000C111C1E08BE0C89FF0011124EF5CF34FD9
:104FE000618570E090E080E00E94A46720E030E0FE
:104FF00048E452E40E945B68A70196010E945B6846
:1050000020E030E040E05FE30E948B660E9475671D
:10501000611571058105910521F461E070E080E082
:1050200090E0CF91FF90EF90DF90CF9008952F9276
:105030003F924F925F926F927F928F929F92AF9228
:10504000BF92CF92DF92EF92FF920F931F93CF9375
:10505000DF93CDB7DEB72F970FB6F894DEBF0FBE44
:10506000CDBF1091CD0AC090CC0ACD821C1509F499
:10507000BAC180E00E94151C6E837F838887998760
:1050800081E00E94151C6A877B878C879D8707E2D9
:10509000212E312C029D7001039DF00C11249701EB
:1050A000245A374F3A832983D90196968C91969743
:1050B000882399F192968C91929780FF69C094967B
:1050C0006D917C9190E080E00E94A467E981FA8173
:1050D000648F758F868F978F10A211A2029DF001A9
:1050E000039DF00D1124E45AF74F82A180FD10C0FA
:1050F000C084D184E284F384CE82DF82E886F9869C
:10510000C484D584E684F784CA86DB86EC86FD8673
:105110001F5F1F70DD80D112BBCF8D81815F8F70CB
:105120008983E090CD0AED821E821A86312C212CD3
:10513000F9800F2D10E027E2209FF001219FF00D54
:105140001124E45AF74F86A1882309F44CC18E81BB
:105150009A85A32DB22D808F918FA28FB38F82A1BC
:1051600080FFA1C0148A158A168A178A108E118EA4
:10517000128E138E1E821A86312C212CCD80D9805E
:10518000CD1409F430C18D2D815F8F708983D0CF0C
:10519000A981BA8118964D905D906D907C901B9777
:1051A000CE80DF80E884F9844C185D086E087F08A3
:1051B0001C968D919D910D90BC91A02D6C017D014F
:1051C0002A853B854C855D85C21AD30AE40AF50A17
:1051D000C982DA82EB82FC825301420177FE07C06A
:1051E00088249924540184189508A608B708C98012
:1051F000DA80EB80FC80F7FE08C0F094E094D09455
:10520000C094C11CD11CE11CF11C029DA001039D96
:10521000500D1124445A574F5F874E87B401C50182
:105220008C149D04AE04BF0410F4B601C7010E94A3
:10523000A467AE85BF855C966D937D938D939C939B
:105240005F97029DF001039DF00D1124E45AF74F82
:1052500081E014141504160417040CF080E080A3F8
:10526000029DF001039DF00D1124E45AF74F81E0F7
:1052700029813A814B815C811216130614061506AA
:105280000CF080E081A3029DF001039DF00D11243C
:10529000E45AF74F81E08C149D04AE04BF0408F07B
:1052A00080E083A31BCFF3A0448C558C668C778C55
:1052B0008F2D0E94DD264B015C01EF2DF110E1E006
:1052C0003BE03E9FF0011124EF5CF34F618570E0FD
:1052D00090E080E00E94A46720E030E048E452E4DF
:1052E0000E945B686B017C0120E030E0A901C501F0
:1052F000B4010E94566818160CF071C0A501940103
:10530000C301B2010E94FC664B015C0120E030E069
:1053100040E752E46E817A85832D922D0E94FC66CF
:105320002B013C01A7019601C701B6010E948B66C3
:10533000A50194010E945B686B017C01A3019201AD
:10534000C301B2010E945B689B01AC01C701B601B9
:105350000E948B666B017C0120E030E0A9010E9475
:10536000F76687FF03C0C12CD12C7601C701B601B7
:105370000E94CE6820E030E040E752E40E945B6883
:105380006B017C0147E2409FF001419FF00D112429
:10539000E45AF74F50895E8381898A87328823884F
:1053A0009601A7016E81782F832D922D0E94F766BA
:1053B00087FD04C0CE82DA863E2C2F2C97E2909F88
:1053C000F001919FF00D1124E45AF74F8E819A85D8
:1053D000A32DB22D848B958BA68BB78BCFCE812C32
:1053E000912C540193CF2F960FB6F894DEBF0FBEC9
:1053F000CDBFDF91CF911F910F91FF90EF90DF9084
:10540000CF90BF90AF909F908F907F906F905F9064
:105410004F903F902F9008952F923F924F925F921E
:105420006F927F928F929F92AF92BF92CF92DF92B4
:10543000EF92FF920F931F93CF93DF9300D000D092
:1054400000D01F92CDB7DEB78111BAC04090010CD9
:105450005090020C6090030C7090040C141415040E
:10546000160417040CF0B8C04D835E836F837887F1
:10547000382E2FB6F89480E00E94151C4B015C0179
:1054800081E00E94151C6B017C012091CC0A2983CC
:10549000022F0F5F0F708091CD0A081709F499C091
:1054A000A7E22A9FC0011124845A974F9A878987BF
:1054B00011E0DC0196961C93B501A40180E00E94E6
:1054C00083244B015C01E985FA8580869186A2865A
:1054D000B386B701A60181E00E9483246B017C01A1
:1054E000A985BA851C96CD92DD92ED92FC921F970C
:1054F00080E00E94DD2669837A838B839C83C501CB
:10550000B4010E94A66729813A814B815C810E9487
:10551000FC66E985FA85608371838283938381E0E9
:105520000E94DD264B015C01C701B6010E94A667FF
:10553000A50194010E94FC66A985BA8514966D9315
:105540007D938D939C9317978D819E81AF81B885B4
:10555000E985FA85808B918BA28BB38B148A158A8F
:10556000168A178A108E118E128E138E148E158E37
:10557000168E178E10A211A212A333A255A244A216
:105580000093CC0A0E94172890E080E02FBE2A9654
:105590000FB6F894DEBF0FBECDBFDF91CF911F9144
:1055A0000F91FF90EF90DF90CF90BF90AF909F90C2
:1055B0008F907F906F905F904F903F902F900895C5
:1055C0004090050C5090060C6090070C7090080CF1
:1055D00045CF8FEF9FEFDACF90E080E0D8CFCF922A
:1055E000DF92EF92FF920F93CF936A017B01C22F5C
:1055F000811126C00E94DD260E946E672AE030E0FD
:1056000040E050E0011122C0C130E1F0F7FE04C0DB
:10561000CC24CA94DC2C7601A7019601121613063D
:105620001406150624F421E030E040E050E0CA0101
:10563000B901CF910F91FF90EF90DF90CF90089537
:1056400081E0D8CF24E630E040E050E00E946E696F
:10565000121613061406150624F021E030E040E08F
:1056600050E01C141D041E041F040CF350954095BB
:10567000309521953F4F4F4F5F4FD9CF8F929F92DB
:10568000AF92BF92CF92DF92EF92FF92CF93DF93D0
:1056900080E00E94DD264B015C0181E00E94DD2656
:1056A0006B017C0180910C0C90910D0CC0910E0C43
:1056B000D0910F0C009711F1B0E0A0E08093010CA5
:1056C0009093020CA093030CB093040C209779F1F3
:1056D000CE01B0E0A0E08093050C9093060CA0935F
:1056E000070CB093080CDF91CF91FF90EF90DF9003
:1056F000CF90BF90AF909F908F9008952BE734E1AB
:105700004EEA5EE3C501B4010E945B6820E030E030
:1057100040E05FE30E948B660E946E676093010C1D
:105720007093020C8093030C9093040CCFCF2EE166
:1057300035E84BEE5EE3C701B6010E945B6820E0EE
:1057400030E040E05FE30E948B660E946E676093EA
:10575000050C7093060C8093070C9093080CC3CF34
:105760009F92AF92BF92CF92DF92EF92FF920F93F0
:105770001F93CF93DF93982E811167C0D0910C02B5
:10578000C0910D02F0910E0280910F02E09104028F
:10579000D0900502E0900602F09007020D2F1C2F1A
:1057A0002F2F382F041715072607370710F48A0103
:1057B0009B018E2F9D2DD701081719072A073B073C
:1057C00010F4D901C8010097A105B10521F481E0C9
:1057D00090E0A0E0B0E09C01AD0160E070E080E00E
:1057E00090E00FE10E94206BEFE5AE2EF6E7BF2EB2
:1057F000C12CD12CE12CF12C00E010E00E947C6A3D
:10580000F22FE32F8F2F9E2FA42FB52F0097A105E6
:10581000B10521F481E090E0A0E0B0E0911026C055
:105820008093680790936907A0936A07B0936B070A
:105830008FB7DF91CF911F910F91FF90EF90DF9085
:10584000CF90BF90AF909F900895D0910802C091E3
:105850000902F0910A0280910B02E0910002D090BF
:105860000102E0900202F090030298CF8093640757
:1058700090936507A0936607B0936707D9CF8F927F
:105880009F92AF92BF92CF92DF92EF92FF928FEAF8
:1058900092E00E940E4780E00E94151C4B015C01C3
:1058A00080E00E94DD266B017C01C501B4010E94ED
:1058B000A667A70196010E94FC6643E00E94AE47DE
:1058C0008CE20E94374781E00E94151C4B015C016D
:1058D00081E00E94DD266B017C01C501B4010E94BC
:1058E000A667A70196010E94FC6643E00E94AE47AE
:1058F00089EA92E00E940E478091CE0A9091CF0AE9
:105900000E94804785EA92E00E940E476091830BD7
:1059100070E090E080E04AE00E943C478FE992E02E
:105920000E940E476091030B7091040B8091050B50
:105930009091060B4AE00E943C478EE30E94374755
:1059400088E494E0FF90EF90DF90CF90BF90AF900D
:105950009F908F900C940147CF92DF92EF92FF922D
:10596000CF93C82F6A017B0120E030E040E85FE37D
:10597000CB01B6010E94F76687FF06C0C12CD12C6F
:1059800080E8E82E8FE3F82E8C2F0E94DD269B0105
:10599000AC01C701B6010E945B6820E030E040E73F
:1059A00052E40E94FC660E947567611571058105CD
:1059B000910521F461E070E080E090E0CF91FF90EC
:1059C000EF90DF90CF900895CF92DF92EF92FF9209
:1059D000CF93C82F6A017B0120E030E040E85EE30E
:1059E000CB01B6010E94F76687FD1AC020E030E0C7
:1059F00040E85FE3C701B6010E94F76687FF06C073
:105A0000C12CD12C80E8E82E8FE3F82EB701A60137
:105A10008C2FCF91FF90EF90DF90CF900C94AC2C17
:105A200061E070E080E090E0CF91FF90EF90DF9038
:105A3000CF9008958F929F92AF92BF92CF92DF92B4
:105A4000EF92FF920F931F93CF93C82F0E941F09CD
:105A5000611571058105910589F56091110C70E062
:105A600090E080E00E94A467AB01BC018C2F0E94F3
:105A7000E42C611571058105910521F461E070E068
:105A800080E090E09B01AC0160E070E080E090E09D
:105A90000FE10E94206BEFE5AE2EF6E7BF2EC12C82
:105AA000D12CE12CF12C00E010E00E947C6AA32FA5
:105AB000F42FE52F622F7A2F8F2F9E2FECEAFBE039
:105AC000C11102C0EEEBFBE021E0218B24E0C29F7C
:105AD000F0011124E053F44FC12CD12C7601C39472
