:020000040000FA
:100000000C94DA020C94851E0C940B030C944E1E77
:100010000C940B030C940B030C940B030C940B0328
:100020000C940B030C940B030C940B030C940B0318
:100030000C940B030C94C20E0C940B030C94FB1A3F
:100040000C940B030C9492320C940B030C940B0342
:100050000C940B030C940B030C940B030C949E4F09
:100060000C940B030C9466130C943C130C940B032C
:100070000C940B030C940B030C940B030C940B03C8
:100080000C94F01A0C940B030C940B030C940B03BC
:100090000C940B030C940B030C940B030C940B03A8
:1000A0000C940B030C940B030C94C81A0C940B03C4
:1000B0000C940B030C940B030C940B030C94A01ADC
:1000C0000C940B030C940B030C940B030C940B0378
:1000D0000C940B030C940B030C940B030C940B0368
:1000E0000C940B030C94A7180C9460430C94D30647
:1000F0000C94F5240C9494430C9473420C94742542
:100100000C943B260C94A54C0C94F6420C948A4C0F
:100110000C9497240C9412260C94AA180C94B34CAB
:100120000C9404040C945B430C94E5260C948D42CF
:100130000C9455040C94E6060C94924C0C945D03BC
:100140000C9471030C948E4C0C94AA420C9443436F
:100150000C9496180C949B4C0C949D260C94954CE6
:100160000C94744C0C94C14C0C94F9430C947A4349
:100170000C94DE420C9479260C94AC430C94A5426A
:100180000C9466420C94CD260C94E4250C94BB4C44
:100190000C944C420C94D2250C946E420C94434423
:1001A0000C9420250C94A1250C942B440C94114400
:1001B0000C94BC180C94A7440C94B3250C94FB2508
:1001C0000C9464260C94BF440C9413620C94352553
:1001D0000C9429260C944D250C9429430C94DF4350
:1001E0000C940A070C948A250C940E430C945E25FB
:1001F0000C9448070C946C180C940A250C94F70680
:100200000C947F030C949F4C0C94864C0C945D448E
:100210000C94C54C0C9443260C94A94C0C945A266F
:100220000C94A3180C9421030C94B7030C941B0793
:100230000C94D5240C94BB250C9483260C94B74CB9
:100240000C946F4C0C9481180C944D180C94AD4C7C
:100250000C942E420C94C4430C9456040C94774492
:100260000C94B3260C941C140C944E030C948F44E1
:100270000C94C4426364696E6F70737578585B0048
:10028000205B27242720666F722068656C705D00F4
:100290006F6B006572726F723A20007C52504D3A5B
:1002A000007C4D3A007C46534D3A003C4D506F73F4
:1002B0003A00000020002300260029002C002F0017
:1002C000320000010000030106010901242420611D
:1002D0006C6C2C20246E2071756572792C20246E34
:1002E0003D76616C207365742C20244920696E660C
:1002F0006F2C203F20737461747573002434342094
:10030000636F6F726420756E69747320303D73740F
:1003100065707320313D6D6D20323D696E636800FC
:10032000243435206261636B6C617368206D696E83
:10033000207370656564206D6D2F6D696E002434C7
:1003400033206261636B6C617368206D6178207328
:1003500070656564206D6D2F6D696E0024343020EA
:100360006261636B6C617368206175746F2C20240B
:1003700034312D24343220582F5A20737465707311
:1003800000243332206A6F6720646563656C206DDA
:10039000696E2073746570732028303D6F6666291E
:1003A00000243330207370696E646C6520505052A5
:1003B0002C202433312062757A7A6572002432361B
:1003C00020582073746570732F6D6D2C2024323784
:1003D00020582064697220696E7665727400243238
:1003E000302D2432352058206D6F746F722F757345
:1003F0007465702F70697463682F6D61782F7261F6
:100400007069642F616363656C00243136205A2063
:1004100073746570732F6D6D2C20243137205A2032
:1004200064697220696E76657274002431302D24FF
:100430003135205A206D6F746F722F75737465702B
:100440002F70697463682F6D61782F7261706964B1
:100450002F616363656C0024322D24332073796E21
:10046000632066656564206D696E2F6D6178206D0F
:100470006D2F7265760024302D2431206173796EE2
:10048000632066656564206D696E2F6D6178206DEF
:100490006D2F6D696E002C454550524F4D5D005BD0
:1004A0004F50543A005B5645523A00000021002458
:1004B0000027002A002D0030003300010100000455
:1004C0000107010A0100000A0B02090C0D0E0807C2
:1004D0000304010000000000000000000000000014
:1004E000000000000000000000000000000000000C
:1004F00000121110000000000000000000000000C9
:100500000000000000000000000000010210202098
:100510000808102040102040800201020108040257
:1005200001010204081020408080402010080402CD
:100530000180040201804020100804020108040226
:10054000010102040810204080010204081020402C
:100550008000002200250028002B002E00310034EE
:100560000002010000050108010B01050505050752
:100570000508080808020202020A0A08080404041E
:10058000040101010101010101030303030303034A
:1005900003040707070C0C0C0C0C0C0C0C020202D9
:1005A0000206060606060606060B0B0B0B0B0B0BCC
:1005B0000B02136211241FBECFEFD1E2DEBFCDBF0D
:1005C00000E00CBF1AE0A0E0B2E0E0E4FDED00E0E6
:1005D0000BBF02C007900D92A030B107D9F722E1FE
:1005E000A0E0BAE001C01D92AD35B207E1F712E01C
:1005F000CAEDD2E000E006C021970109802FFE017C
:100600000E944967C93DD10780E00807A9F70E9409
:10061000FD4F0C949E6E0C940000811109C06091F6
:10062000830F7091840F8091850F9091860F0895AC
:100630006091890F70918A0F80918B0F90918C0F30
:100640000895AF92BF92CF92DF92EF92FF920F93F5
:100650001F93CF93DF936C017B018B01040F151F58
:10066000EB015E01AE18BF08C017D10759F06991C0
:10067000D601ED91FC910190F081E02DC601199514
:10068000892B79F7C501DF91CF911F910F91FF90D1
:10069000EF90DF90CF90BF90AF900895FC01538D05
:1006A000448D252F30E0842F90E0821B930B54174C
:1006B00010F0CF96089501970895FC01918D828DD9
:1006C000981761F0A28DAE0FBF2FB11D5D968C9172
:1006D000928D9F5F9F73928F90E008958FEF9FEFB1
:1006E0000895FC01918D828D981731F0828DE80F6D
:1006F000F11D858D90E008958FEF9FEF0895FC0127
:10070000918D228D892F90E0805C9F4F821B9109F3
:100710008F739927089583EC9FE00E947F0321E067
:10072000892B09F420E0822F0895FC01A48DA80FE5
:10073000B92FB11DA35ABF4F2C91848D90E0019623
:100740008F739927848FA689B7892C93A089B18943
:100750008C91837080648C93938D848D981306C0E4
:100760000288F389E02D80818F7D80830895EF9248
:10077000FF920F931F93CF93DF93EC0181E0888F5B
:100780009B8D8C8D98131AC0E889F989808185FF2B
:1007900015C09FB7F894EE89FF896083E889F989CD
:1007A00080818370806480839FBF81E090E0DF91CF
:1007B000CF911F910F91FF90EF900895F62E0B8D22
:1007C00010E00F5F1F4F0F731127E02E8C8D8E11DD
:1007D0000CC00FB607FCFACFE889F989808185FF44
:1007E000F5CFCE010E949503F1CFEB8DEC0FFD2FDD
:1007F000F11DE35AFF4FF0829FB7F8940B8FEA89FF
:10080000FB8980818062CFCFCF93DF93EC01888D0D
:100810008823B9F0AA89BB89E889F9898C9185FD7B
:1008200003C0808186FD0DC00FB607FCF7CF8C9109
:1008300085FFF2CF808185FFEDCFCE010E94950329
:10084000E9CFDF91CF91089580E090E0892B29F0E6
:100850000E948B0381110E94000080E090E0892BB0
:1008600049F080E090E0892B29F00E94000081117E
:100870000E94000080E090E0892B49F080E090E049
:10088000892B29F00E94000081110E94000080E065
:1008900090E0892B49F080E090E0892B29F00E94BC
:1008A000000081110C9400000895089590E080E00C
:1008B0000895809103018370823029F41092D00A48
:1008C0008091D00A08958130D9F78093D00AF8CF6B
:1008D0008091641090916510807299272091731017
:1008E00025FF08C0892B19F481E0809303028091D1
:1008F00003020895892BD9F310920302F8CF809157
:10090000A01085FF04C082E08093CF0A06C08091CA
:10091000911085FF05C01092CF0A8091CF0A0895EB
:100920008091821085FFF7CF81E0EECF8091181182
:1009300085FD1EC08091091185FD1CC08091FA10B3
:1009400085FD1AC08091EB1085FD18C08091DC10E8
:1009500085FD16C08091CD1085FD14C08091BE101C
:1009600085FD12C08091AF1085FD10C080E0089514
:1009700081E0089582E0089583E0089584E0089579
:1009800085E0089586E0089587E0089588E0089559
:1009900080E0E82FF0E0E157F04F9081992341F09B
:1009A00090539A3018F48093000B08958F5FF1CF25
:1009B0001092000B08958091000B90E0FC01E1572C
:1009C000F04F208120532A30B0F0019748F0FC010D
:1009D000E157F04F208120532A30B8F78093000B65
:1009E000E091000BF0E0E157F04F808180538A30B6
:1009F00010F00C94C8040895EBE7FFE0808191812A
:100A000090932C0280932B028281938190932A02EF
:100A100080932902848195819093280280932702F4
:100A2000868197819093260280932502E1E6FFE07C
:100A300083859485909324028093230285858093F7
:100A400022028685978590932102809320028089D7
:100A5000918990931F0280931E02828993899093BB
:100A60001D0280931C02848980931B0280819181E6
:100A700090931A02809319028281809318028381D5
:100A800094819093170280931602858196819093AA
:100A900015028093140287819085909313028093AE
:100AA000120281858093110285898093E70A8285ED
:100AB0008093E60A868997899093020280930102C7
:100AC0008091360280932D02AAE5BFE08C9180933D
:100AD000100211968D919C91129790930F02809322
:100AE0000E0213968D919C91149790930D02809312
:100AF0000C0215968C91159790E090930B028093C1
:100B00000A0216968C9190E0909309028093080255
:100B1000808D918D9093E50A8093E40A8091590F1E
:100B20008093E30A08958A3170F4E82FF0E0EE0F25
:100B3000FF1FEF51FD4F0190F081E02D309719F02C
:100B40006083718308958550863160F4E82FF0E06A
:100B5000EE0FFF1FEB54FD4F0190F081E02D309719
:100B600009F060830895F8948091EC0A9091ED0A61
:100B7000A091EE0AB091EF0A8093E80A9093E90AF7
:100B8000A093EA0AB093EB0A78940895F89410922F
:100B9000EC0A1092ED0A1092EE0A1092EF0A1092EF
:100BA000E80A1092E90A1092EA0A1092EB0A789485
:100BB00008950F931F93F8946091EC0A7091ED0AD9
:100BC0008091EE0A9091EF0A0091E80A1091E90AEB
:100BD0002091EA0A3091EB0A601B710B820B930B98
:100BE0001616170618061906A4F40F5F1F4F2F4F8D
:100BF0003F4F0093E80A1093E90A2093EA0A3093E2
:100C0000EB0A789461E070E080E090E01F910F9132
:100C10000895611571058105910589F0015011094B
:100C2000210931090093E80A1093E90A2093EA0A9E
:100C30003093EB0A78946FEF7FEFCB01E7CF789496
:100C4000E5CF0F931F93F8946091EC0A7091ED0A31
:100C50008091EE0A9091EF0A78940091E80A109141
:100C6000E90A2091EA0A3091EB0A601B710B820BB2
:100C7000930B1F910F910895E3EBF1E111828481B1
:100C800095818827907195838483E4EAF1E111824C
:100C9000848195818827907195838483E5E9F1E1CA
:100CA0001182848195818827907195838483E6E8F9
:100CB000F1E11182848195818827907195838483E5
:100CC000E7E7F1E11182848195818827907195830E
:100CD000848308958091D80A81110FC08091D90A28
:100CE00081110BC08091DA0A811107C081E09091D7
:100CF000DB0A911103C080E0089581E008952FE0A0
:100D0000E2EDFAE0DC0101900D922A95E1F70895F9
:100D100048990EC049990EC08091930E9091940EFF
:100D2000A091950EB091960E0196A11DB11D0DC01A
:100D30004999F2CF8091930E9091940EA091950EC7
:100D4000B091960E0197A109B1098093930E9093EB
:100D5000940EA093950EB093960E08950F931F9343
:100D6000CF93DF93C9EFDEE0811102C0CBE0DFE07B
:100D70000E940D03161617061806190674F081E076
:100D8000088519852A853B854C855D856E857F851F
:100D9000041715072607370709F080E0DF91CF9188
:100DA0001F910F910895ECE3F5E08491ECE9F5E0F3
:100DB000E491F0E0EE0FFF1FEF5AFA4FA591B491C6
:100DC0009C91E82FE095E923EC930895ECE3F5E09E
:100DD0008491ECE9F5E0E491F0E0EE0FFF1FEF5AAB
:100DE000FA4FA591B491EC91E82BEC930895EBE3C5
:100DF000F5E08491EBE9F5E0E491F0E0EE0FFF1F00
:100E0000EF5AFA4FA591B4919C91E82FE095E92310
:100E1000EC930895EBE3F5E08491EBE9F5E0E491E0
:100E2000F0E0EE0FFF1FEF5AFA4FA591B491EC914D
:100E3000E82BEC9308959091760F992321F091E09F
:100E4000811190E0892FE6E3F5E026E935E088237B
:100E500079F08491F9012491E22FF0E0EE0FFF1F69
:100E6000EF5AFA4FA591B491EC91E82BEC930895C9
:100E70008491F9012491E22FF0E0EE0FFF1FEF5A69
:100E8000FA4FA591B4919C91E82FE095E923EECF1C
:100E900090916B0F992321F091E0811190E0892FBF
:100EA000E7E3F5E027E935E0882379F08491F9015B
:100EB0002491E22FF0E0EE0FFF1FEF5AFA4FA591B9
:100EC000B491EC91E82BEC9308958491F90124916D
:100ED000E22FF0E0EE0FFF1FEF5AFA4FA591B49109
:100EE0009C91E82FE095E923EECFFC012FB7F89411
:100EF0008091C20B90E0019666E070E00E94F4667B
:100F00009091C30B981779F0A091C20B90E2A99F22
:100F1000D0011124AE5FB44F90E201900D929A95EA
:100F2000E1F78093C20B2FBF08958AE1EAE4F2E073
:100F3000A1E6BFE001900D928A95E1F70895FC01CA
:100F400080819181C2978F399740F0F482818150DE
:100F50008032D0F4838194810A978F3D9340A0F42E
:100F6000858196810A978F37934170F487819085A8
:100F70000A978730974240F481858150843120F46C
:100F800081E09285923008F080E00895CF93DF935E
:100F9000EC010E949F078823A1F0CE010B960E94CE
:100FA0009F07882371F08E899F89845691098D3A15
:100FB000964230F481E0288D398D213D374008F08C
:100FC00080E0DF91CF910895CF93883008F080E0E2
:100FD000E82FF0E0E55DFC4FC081C23008F0C0E0D2
:100FE00024E0C29FF0011124E558F04F4281538163
:100FF0000190F081E02DE417F50778F59A012F5F55
:101000003F4F2E1B3F0BDB010E9451672AE0969554
:101010008795779567952A95D1F79A01261B370B07
:10102000B901C1111CC04E1B5F0B4233510580F04A
:10103000CB018E1B9F0B6AE070E00E94F466CB012F
:101040002AE0289FB001299F700D11246E0F7F1F89
:1010500090E080E00E9460650CC0BF01E2CF90E0AC
:1010600080E00E9460652AE037ED43E25CE30E9485
:101070001766CF910895883008F080E0E82FF0E0FF
:10108000E55DFC4F90819F3F31F06091C90E7091FA
:10109000CA0E0C94E40760E070E0CB010895CF9293
:1010A000DF92EF92FF92CF93DF938091C80E88304A
:1010B00008F040C0823089F121E090E0813009F0F1
:1010C00020E0C22FD92F0E943B086B017C01CD2B61
:1010D000D9F06091830E7091840E8091850E90916D
:1010E000860E6A3071058105910520F46CE370E08D
:1010F00080E090E00E9460659B01AC01C701B601F1
:101100000E9417666B017C01C701B601DF91CF9188
:10111000FF90EF90DF90CF9008956091C90E70918D
:10112000CA0E80E0DF91CF91FF90EF90DF90CF90DB
:101130000C94E407D0E0C0E0C6CF4617570770F024
:101140004115510559F0880F991F880F991FFC010F
:10115000E558F04F71836083538342830895EBE732
:10116000FFE0A2E4B2E04D915D916D917C91139707
:10117000408351836283738314968D919D910D906A
:10118000BC91A02D84839583A683B7830895FC0129
:1011900082819381208131818217930760F0892BAE
:1011A00051F026813781848195812817390718F0FD
:1011B00081E0232B09F480E008954F925F926F92B3
:1011C0007F928F929F92AF92BF92CF92DF92EF92D7
:1011D000FF920F931F93CF93DF93F82E8A01D62FA0
:1011E000C72F6091600F70E090E080E00E94606522
:1011F000762E872E982EA92E60915F0F70E090E0DA
:1012000080E00E946065B62EC72ED82EE92EEF2D05
:10121000F110E1E08BE0E89FF0011124EF59F04F6D
:101220006581768190E080E00E9460652B01682EE8
:10123000F92E98014D2F5C2F672D782D892D9A2D31
:101240000E941266181624F4072D182DD92DCA2DC8
:101250002B2D3C2D4D2D5E2DB8018D2F9C2F0E94E6
:101260001266181624F40B2D1C2DDD2DCE2D20E03A
:1012700030E040E85FE3B8018D2F9C2F0E94B364FB
:1012800087FF04C000E010E0D0E8CFE39201462DD4
:101290005F2DB8018D2F9C2F0E94126618161CF42A
:1012A0008201D62DCF2DB8018D2F9C2FDF91CF91AC
:1012B0001F910F91FF90EF90DF90CF90BF90AF9074
:1012C0009F908F907F906F905F904F90089587E0F0
:1012D000EBE3F2E0AAE5BFE001900D928A95E1F719
:1012E0000895FC0180818230B8F48181928189382F
:1012F000934190F4838194818938934168F42581E6
:101300008BEF820F843C40F496818BEF890F843CF5
:1013100018F481E0291708F480E0089580915F0FA8
:10132000853018F485E080935F0F80915F0F893CD2
:1013300018F088EC80935F0F8091600F853018F46F
:1013400085E08093600F8091600F893C18F088ECF5
:101350008093600F80915F0F9091600F891710F458
:101360008093600F0895CF93DF93FC012481358132
:1013700033FF10C0EC010E94924F2A813B81621B17
:10138000730B2E85F0E12F9F9001112481E06217ED
:10139000730708F480E0DF91CF9108951F93CF93F6
:1013A000DF93EC018C819D8180FD19829C012F715E
:1013B0003327232B19F0807E9D838C838C819D8124
:1013C00094FB112710F9162796FF04C09F7B9D837D
:1013D0008C8311E08C819D8191FD10C011110BC097
:1013E000CE010E94B309182F8111C0C0812FDF9157
:1013F000CF911F91089592609D838C830E94924F9C
:10140000AB018A819B81FA01E81BF90B8C819D81DC
:10141000112309F45DC085FD3EC02A8592FD06C0FA
:10142000222321F094609D838C830BC02E171F060E
:1014300019F010F0211107C082629D838C835987B7
:1014400048875B834A838C819D818F71992711E046
:10145000892B31F28E819F81892B41F28C819D8174
:1014600091708436910509F48AC008F09AC08232DE
:10147000910509F484C008F07BC08130910509F41E
:101480007EC0409709F47BC0CE010E94B309882337
:1014900009F4ACCF74C097FDD6CF86FD0AC02C8569
:1014A000A0E12A9F90011124E217F30760F28464FF
:1014B000BACF87FF0BC02D85A0E12A9F9001112490
:1014C0008868E217F30708F0AECFBDCF2C85F4CFC4
:1014D00085FF12C02A852E171F0609F080F586FDAC
:1014E00003C029812F5F298397FD19828F7D806139
:1014F00091609D838C8323C090FF0DC097FD03C036
:1015000080619D838C838C819D819E779D838C835C
:101510005B834A8314C029812223F1F09C01207C43
:101520003327232BA1F42B8540E1249F9001112424
:10153000E217F30760F488859985892B51F48C8133
:101540009D8192FF80CF9B7F9D838C837CCF816028
:10155000D0CF19861886F3CF91FFF1CF8F739D7F7F
:1015600098609D838C8319861886D2CF10E072CF45
:101570008134910521F08035910509F085CFEE8108
:10158000FF81309709F432CF1995CE010E94B3093B
:10159000882309F42BCF8C819D81977F9D838C8339
:1015A00025CF883E910559F338F4813C910539F3F4
:1015B000803D910521F368CF8035A1E09A07F9F2CB
:1015C000803D21E09207D9F28031914009F05CCF53
:1015D000D6CF6EE270E08FE89FE00E944A680097E5
:1015E00041F09C012F583F4081E09091000B29175A
:1015F00008F080E00895E091000BF0E0E157F04F33
:10160000808180538A3020F5E091980F88E0E89F30
:10161000F0011124E55CFC4F828193810197D1F4A4
:101620000E94E90A282F80E0211126C0E82FF0E06F
:10163000E157F04F9081992341F09E3231F0905361
:101640009A3008F42F5F8F5FF1CF81E02230A0F451
:1016500080E0089520E090E0E22FF0E0E157F04FC5
:101660008081882331F080538A3008F49F5F2F5F98
:10167000F3CF81E0923060F30895CF93DF9300972A
:10168000A1F0FC012081222381F0EB010E94F46390
:1016900061157105F1E08F07910538F4798368834E
:1016A00081E090E0DF91CF91089590E080E0FACF63
:1016B0008F929F92AF92BF92EF92FF920F931F93E0
:1016C000CF93DF93009709F467C0FC0120812223A8
:1016D00009F462C08B01EC016EE270E00E944A687E
:1016E0007C01892B71F4B801CE01DF91CF911F915C
:1016F0000F91FF90EF90BF90AF909F908F900C94C0
:101700003D0BCE010E94F4634B015C01C7010196C1
:101710000E94F463F8EE8F16F3E09F06A104B10473
:10172000D8F597FD2BC06A3071058105910554F5F8
:10173000F701218120532A3048F42281211106C06B
:10174000AAE0B0E09B01AC010E94606744E6489DBE
:101750009001499D300D1124620F731FF8017183B0
:10176000608381E090E0DF91CF911F910F91FF9016
:10177000EF90BF90AF909F908F90089560E070E0E1
:10178000CB01D6CF6436710581059105FCF263E685
:1017900070E080E090E0DACF90E080E0E4CF80E994
:1017A00092E00C945F40882319F08AE50C94B73FCF
:1017B00088E5FCCFCF93DF93D82FC5E18C9FC00184
:1017C000112444E150E060E270E08A5A954F0E9493
:1017D0004368CD9FF0011124EA5AF54F148ADF9136
:1017E000CF910895EF92FF920F931F93CF93DF93C2
:1017F000CDB7DEB7A0970FB6F894DEBF0FBECDBF52
:10180000FE01339696E1DF011D929A95E9F793E088
:1018100099838A836B83298F3A8F4B8F5C8FED8EF0
:10182000FE8E0F8F18A3CE0101960E947507A09619
:101830000FB6F894DEBF0FBECDBFDF91CF911F91E1
:101840000F91FF90EF9008950C94AC4D909134025D
:1018500089130DC0E1EBF5E0E4919FEF9093340222
:10186000E230E1F038F4EE2381F0E13089F060E01D
:101870000C943F4CE43049F110F1E530C1F7909100
:1018800073009D7F90937300F2CF10926E00EFCFA4
:1018900090916F009D7F90936F00E9CF90917000C1
:1018A0009D7F9093700091E09093B0009091B10073
:1018B000987F94609093B1001092B300D8CF90912C
:1018C00071009D7F90937100D2CF909172009D7FA7
:1018D00090937200CCCFCF93DF93EC0160E08E81C8
:1018E0000E943F4C61E08E810E943F4C60E08E81FF
:1018F0000E943F4C8BE891E00197F1F7DF91CF9187
:101900000895CF93C82F61E00E94CB4C61E08C2FEB
:10191000CF910C943F4CCF93C82F61E00E94CB4CE9
:1019200060E08C2FCF910C943F4C62E00C94CB4C38
:101930008FE89FE0FC0101900020E9F7CF0180597A
:101940009F408830F0F441E0480F2091000B30E0D8
:101950002F5F3F4FE42FF0E02E173F0740F4E15791
:10196000F04FDF0111975C9150834150F3CF215725
:10197000304F40E3F90140839927FC01E157F04FD4
:10198000118208950E9402402091C90E3091CA0E22
:10199000A9014C5F5F4F481759072CF024503109BB
:1019A0008217930744F52091CB0AE22FF0E0EE0F67
:1019B000FF1FE555F54F4091CC0A5091CD0A60814B
:1019C0007181461B570B91838083840F951F9093E1
:1019D000CD0A8093CC0A2F5F2F702093CB0A44E06E
:1019E000969587954A95E1F79093CA0E8093C90E14
:1019F00081E08093CE0A08950F931F93CF93DF93D6
:101A0000EB0109900020E9F72197C61BC53108F0CA
:101A1000C4E1D0E095E1899F800111240A5A154F55
:101A2000AE01C8010E94286844E150E04C1B5D0BE8
:101A300060E270E0C8018C0F9D1F0E944368F801AE
:101A4000148ADF91CF911F910F910895FF920F9308
:101A50001F93CF93DF93CDB7DEB765970FB6F8949A
:101A6000DEBF0FBECDBF1091980F123008F44EC0EC
:101A70001150193108F018E1BE016F5F7F4F812FBF
:101A80000E94113FBE016F5F7F4F80E00E94FC0CFF
:101A9000FF24F394F10EBE016F5F7F4F8F2D0E94E4
:101AA000113FBE016F5F7F4F81E00E94FC0C02E09E
:101AB000010FBE016F5F7F4F802F0E94113FBE015B
:101AC0006F5F7F4F82E00E94FC0C9091990F9130E4
:101AD00051F58091980F8117D9F0F816D1F092E066
:101AE0000817B9F08FEF80932E0261E374E083E072
:101AF0000E94FC0C65960FB6F894DEBF0FBECDBFFA
:101B0000DF91CF911F910F91FF90089510E0B4CF16
:101B100090E08091000B895F843120F790932E0232
:101B20008093AA0AE2CF65E474E083E00E94FC0C93
:101B30008FEF80932E02DECF1F93CF93DF93CDB72D
:101B4000DEB764970FB6F894DEBF0FBECDBF182F77
:101B5000BE016F5F7F4F0E94F241892B89F084E2C2
:101B60000E94B73F612F70E090E080E04AE00E9461
:101B7000BC3F8DE30E94B73FCE0101960E94FE3E1E
:101B800064960FB6F894DEBF0FBECDBFDF91CF9144
:101B90001F910895CF93DF93C4E6D2E089910E940C
:101BA0009C0D82E0C138D807C9F7DF91CF91089525
:101BB000CF93DF93EC0183E992E00E944440CE0191
:101BC000DF91CF910C94FE3E1F93CF93DF93EC01F6
:101BD000162F0E943064181739F0612FCE01DF9163
:101BE000CF911F910C943864DF91CF911F9108958C
:101BF000CF93C091360280910002C80FCB5565EAA1
:101C000090E080E00E94E40D6091000281E090E0AD
:101C10000E94E40D6091360282E090E00E94E40DA3
:101C20006C2F83E090E0CF910C94E40DEF92FF9243
:101C30001F93CF93DF9381E6E82E8FE0F82EF70114
:101C400015EC8191180F8FE0EB37F807D1F765ECB1
:101C500080E290E00E94E40DC1E2D0E0F7016191E2
:101C60007F01CE010E94E40D2196CB33D105B1F75F
:101C7000612F87E390E0DF91CF911F91FF90EF906C
:101C80000C94E40DEF92FF921F93CF93DF938BE7B9
:101C9000E82E8FE0F82EF70117EB8191180F8FE0F7
:101CA000E338F807D1F767EB80E190E00E94E40D9C
:101CB000C1E1D0E0F70161917F01CE010E94E40D06
:101CC0002196C931D105B1F7612F89E190E0DF910B
:101CD000CF911F91FF90EF900C94E40DEF92FF9243
:101CE0001F93CF93DF938AE5E82E8FE0F82EF7015C
:101CF00012EB8191180F8FE0E136F807D1F762EB14
:101D000088E390E00E94E40DC9E3D0E0F70161911F
:101D10007F01CE010E94E40D2196C034D105B1F7B8
:101D2000612F80E490E0DF91CF911F91FF90EF90C1
:101D30000C94E40D0C9430640F931F93CF93DF93B6
:101D4000062FC82FD0E0CE010E949A0E182FCE0188
:101D500001960E949A0EC82F802F90E00E949A0E42
:101D6000113D71F491ED9C0F89130AC0C33040F40A
:101D7000C093590F81E0DF91CF911F910F9108958A
:101D800080E0F9CF1F920F920FB60F9211240BB67D
:101D90000F922F933F934F935F936F937F938F9304
:101DA0009F93AF93BF93EF93FF938091D80E909141
:101DB000D90EA091DA0EB091DB0E892B8A2B8B2BDA
:101DC000E1F19091D50EE091D60EF091D70E808181
:101DD000892780838091D80E9091D90EA091DA0E38
:101DE000B091DB0E181619061A061B069CF480919A
:101DF000D80E9091D90EA091DA0EB091DB0E01971A
:101E0000A109B1098093D80E9093D90EA093DA0E50
:101E1000B093DB0EFF91EF91BF91AF919F918F91A6
:101E20007F916F915F914F913F912F910F900BBEDA
:101E30000F900FBE0F901F901895809134020E9452
:101E4000260CE8CFFB0101900020E9F73197AF01A4
:101E5000461B570BDC01ED91FC910280F381E02DD4
:101E600019946115710511F00C94220F90E080E037
:101E700008950F931F93CF93809133118D7F80939B
:101E8000331188600E94B13F06E51AE0C0E0E0919E
:101E90003611CE1790F1E150F0E0ED5DFE4E8489F1
:101EA00080680E94B13FB80183E291E10E94310F46
:101EB000CF5F0B5E1F4FC43051F7E0912E02E4302C
:101EC000F0F48091AA0A90913611E91710F0EFEF23
:101ED000E90FF0E0ED5DFE4E9489890F80680E9465
:101EE000B13F80913311982F9260909333118A60A3
:101EF000CF911F910F910C94B13FEC2FCDCFCF918B
:101F00001F910F910895AF92BF92CF92DF92EF92FF
:101F1000FF920F931F93CF93DF93909135029923F4
:101F200009F449C0833009F446C067017801E9012A
:101F30008A015B0163E076E083EC9FE00E94310F51
:101F400068E574E083EC9FE00E94310F61E076E089
:101F500083EC9FE00E94310FB50183EC9FE00E946B
:101F6000310F61E076E083EC9FE00E94310FB80111
:101F700083EC9FE00E94310F61EF77E083EC9FE0FC
:101F80000E94310FBE0183EC9FE00E94310F80E27E
:101F90000E94B73F4AE0C701B6010E94BC3FDF91F3
:101FA000CF911F910F91FF90EF90DF90CF90BF9056
:101FB000AF900C94F83EDF91CF911F910F91FF905D
:101FC000EF90DF90CF90BF90AF900895EF92FF9287
:101FD0000F931F932FB7F8944091830F5091840F64
:101FE0006091850F7091860F8091890F90918A0F73
:101FF000A0918B0FB0918C0F1092830F1092840FD1
:102000001092850F1092860F1092890F10928A0FEE
:1020100010928B0F10928C0F2FBF141615061606F8
:1020200017062CF0181619061A061B067CF47A01FE
:102030008B01E80EF91E0A1F1B1F2DE534E043E655
:1020400054E066E674E082E00E94830F1F910F91D6
:10205000FF90EF900895EF92FF920F931F93CF930D
:10206000DF93909135029923B1F18330A1F1E90119
:102070008A017B0163E076E083EC9FE00E94310FF0
:1020800068E574E083EC9FE00E94310F61E076E048
:1020900083EC9FE00E94310FB70183EC9FE00E9428
:1020A000310F61E076E083EC9FE00E94310FB801D0
:1020B00083EC9FE00E94310F61EF77E083EC9FE0BB
:1020C0000E94310FCE01DF91CF911F910F91FF90B0
:1020D000EF900C94FE3EDF91CF911F910F91FF90F6
:1020E000EF9008950F931F93CF93DF93EC018B0133
:1020F000FB018481958180759170409741F49E0128
:102100004AE654E06EE674E082E00E942B10F8018B
:10211000848182FF0CC09E0141E754E06EE674E0CA
:1021200082E0DF91CF911F910F910C942B10DF91E2
:10213000CF911F910F9108950F931F93CF93DF932A
:102140008C01EA01FC018481958180759170409732
:1021500059F481E0FB0180839A014AE654E06EE67F
:1021600074E082E00E942B10F801848182FF0CC091
:102170009E0141E754E06EE674E082E0DF91CF918A
:102180001F910F910C942B10DF91CF911F910F9104
:102190000895CF93C091D10ACC23C9F080914E0FFE
:1021A000811118C0C0911D0FC11114C090914F0E24
:1021B00080914E0E98130EC01092D10A26E734E09B
:1021C00043E654E066E674E082E00E942B108C2F18
:1021D000CF910895C1E0FBCFEF92FF920F931F9331
:1021E000CF93DF930E94C910882309F452C06EE890
:1021F00074E080E00E94FC0C40E150E060E270E09E
:1022000082EB9FE00E94436884E0E3EAF4E0AEEAF8
:10221000BFE001900D928A95E1F78091590F8130CE
:10222000B1F1823091F584E48093C10F1092C20F16
:102230008EEA9FE0892B59F084E1EEEAFFE0ABE6FD
:10224000BAE001900D928A95E1F710927F0A82E040
:102250000E94DA0B0E94553E8EEA9FE0892B59F0CE
:1022600084E1EEEAFFE0A5E9BAE001900D928A95DB
:10227000E1F71092A90A8FEF80932E02DF91CF91A0
:102280001F910F91FF90EF90089583E5CDCF8DE4DE
:10229000CBCFD091600EF090610EC091620E809114
:1022A000C80E883008F080E0E82FF0E0E55DFC4FD4
:1022B00090819F3F09F0ACC068EA74E085E19AE044
:1022C0000E94556891E000E814E0F91639F0E2E068
:1022D00008E814E0FE1202C004E814E08FEF8D0F4E
:1022E0003CE8E32E34E0F32E883050F42D2F2150BB
:1022F000330BF901EE0FFF1FE55EFC4FE080F1802C
:1023000044E150E060E270E08EEA9FE00E944368A2
:1023100045E15AE0FA0101900020E9F7AF0146518A
:102320005A404531510510F044E150E084E190E01D
:10233000841B950B96958795D82F65E17AE0825599
:10234000904F0E942868F70101900020E9F731972B
:10235000EE19FF09D11101C0D1E04D2F50E0E41773
:10236000F50708F4AF01B7018EEA9FE00E942868E4
:1023700083E0F801AFEBBFE001900D928A95E1F7A1
:102380001092C20F8EEA9FE0009721F0BC0180E01E
:102390000E94FC0CCC2309F49DC0DAE5C23008F0A1
:1023A0009BC024E0C29FF0011124E459F14FC08189
:1023B00011810281F38044E150E060E270E080E04E
:1023C0009AE00E944368FF920F931F93CF931F924E
:1023D000DF938DEB94E09F938F931F9284E18F9313
:1023E00080E09AE09F938F930E946B68EDB7FEB7F1
:1023F0003C960FB6F894FEBF0FBEEDBF97FF71C0BD
:1024000090E080E08050964F20E2FC0120836CC079
:1024100002E010E0823039F021E090E0813009F0F4
:1024200020E0022F192F0E943B080115110509F524
:1024300020E030E040E05FE30E9447640E943165A5
:102440007F936F938EEA94E09F938F931F9280E126
:102450008F9385E19AE09F938F930E946B682DB7CD
:102460003EB7285F3F4F0FB6F8943EBF0FBE2DBF5B
:1024700029CF0130110509F025CF20E030E048ECEC
:1024800052E40E94176620E030E040E05FE30E94E3
:1024900047640E943165CB0164E670E00E94F466F7
:1024A0009F938F937F936F9383EB94E09F938F938E
:1024B0001F9280E18F9385E19AE09F938F930E9412
:1024C0006B688DB79EB70A960FB6F8949EBF0FBE85
:1024D0008DBFF8CED8E565CFC0E010E000E0F12C6C
:1024E0006ACF843108F48ECF8091590F813069F022
:1024F000823049F484E48093130A1092140A84E130
:10250000E0E0FAE09CCE83E5F6CF8DE4F4CFEF92E5
:10251000FF920F931F93CF930E94F80D90E080E0FD
:102520000E949A0E082F81E090E00E949A0EC82F18
:1025300082E090E00E949A0E182F83E090E00E94C3
:102540009A0E053A61F596EF9C0F9B3540F51230D7
:1025500030F5C10FCB558C1322C0E0900002F12C56
:1025600010E000E029EC34E04EEC54E063ED74E060
:1025700082E00E94830FE0903602F12C10E000E030
:1025800027ED34E04EEC54E063ED74E082E00E940D
:10259000830FCF911F910F91FF90EF9008952CED35
:1025A00034E04EEC54E063ED74E082E0CF911F9193
:1025B0000F91FF90EF900C942B1081E69FE00E940A
:1025C000C607811102C00E9495070E94160E28EED0
:1025D00034E04EEE54E063ED74E082E00C942B1096
:1025E0008BE79FE00E94C708811102C00E94AF08DC
:1025F0000E94420E28EE34E043EF54E063ED74E0B5
:1026000082E00C942B10CF938091590F833010F0FF
:102610001092590FC091590FCF5261ED86E490E0AE
:102620000E94E40D6091590F87E490E00E94E40D50
:102630006C2F88E490E00E94E40D28EE34E048EF2F
:1026400054E063ED74E082E0CF910C942B100E9473
:102650008E098AE59FE00E947109811102C00E94E3
:1026600067090E946E0E28EE34E043E654E063ED05
:1026700074E082E00C942B101F920F920FB60F9211
:1026800011240BB60F922F933F934F935F936F9349
:102690007F938F939F93AF93BF93EF93FF9383ECBD
:1026A0009FE00E949503FF91EF91BF91AF919F91A1
:1026B0008F917F916F915F914F913F912F910F90EB
:1026C0000BBE0F900FBE0F901F9018951F920F9288
:1026D0000FB60F9211240BB60F922F938F939F93E7
:1026E000EF93FF93E091D30FF091D40F8081E091AD
:1026F000D90FF091DA0F82FD1DC090818091DC0F1F
:102700008F5F8F732091DD0F821741F0E091DC0F16
:10271000F0E0ED53F04F958F8093DC0FFF91EF9138
:102720009F918F912F910F900BBE0F900FBE0F9026
:102730001F9018958081F2CFCF92DF92EF92FF9297
:102740000F931F93CF93DF936C017C0187E0E80E1A
:10275000F11CD0E0C0E0062F10E0B8010C2E02C042
:10276000759567950A94E2F76170F70181917F0191
:102770000E943F4C2196C430D10579F7C601DF9104
:10278000CF911F910F91FF90EF90DF90CF900C941D
:102790006B0CCF92DF92EF92FF920F931F93CF9328
:1027A000DF93EC01F62E642F8C810E943F4C8D81CB
:1027B0008F3F19F060E00E943F4C0F2D10E08F8595
:1027C00084FF25C06E0187E0C80ED11CF12CE12CDE
:1027D000B8010E2C02C0759567950A94E2F76170F6
:1027E000F60181916F010E943F4CFFEFEF1AFF0A43
:1027F00088E0E816F10461F7CE01DF91CF911F91D7
:102800000F91FF90EF90DF90CF900C946B0CB8017C
:1028100084E0759567958A95E1F7CE010E949C1337
:102820006F2DCE01DF91CF911F910F91FF90EF900F
:10283000DF90CF900C949C1341E00E94C91381E07B
:1028400090E008958A3170F4E82FF0E0EE0FFF1F5A
:10285000EF51FD4F0190F081E02D309719F080810C
:10286000918108958550863170F4E82FF0E0EE0FE5
:10287000FF1FEB54FD4F0190F081E02D309719F0D0
:10288000808190E0089590E080E00895CF93C82F74
:102890000E94221428E0C29FF0011124E55CFC4F45
:1028A0002281338121303105F9F464E670E00E9421
:1028B000F4669F938F937F936F9385EB94E09F9340
:1028C0008F931F9289E08F938FE89FE09F938F9360
:1028D0000E946B688DB79EB70A960FB6F8949EBF9C
:1028E0000FBE8DBFCF91089523303105C1F49F9362
:1028F0008F938CEB97E09F938F931F9289E08F9338
:102900008FE89FE09F938F930E946B688DB79EB76F
:1029100008960FB6F8949EBF0FBE8DBFE3CF9F936E
:102920008F938CEB97E09F938F931F9289E08F9307
:102930008FE89FE09F938F930E946B688DB79EB73F
:1029400008960FB6F8949EBF0FBE8DBFCBCFCF9227
:10295000DF92EF92FF920F931F93CF93DF9300D0FC
:1029600000D01F921F92CDB7DEB7D82E1091980FCE
:1029700048E0149FF0011124E55CFC4F82819381B3
:1029800082309105C9F5812F0E942214813009F40B
:1029900018C1823009F422C1843009F421C1883081
:1029A00009F420C1803109F41FC1803209F400C14B
:1029B0005FEFE6E0D51609F40FC1F0E0EB5EFC4FE7
:1029C000608170E0812F0E9493058091980F0E9492
:1029D00046140E94C80428960FB6F894DEBF0FBEB6
:1029E000CDBFDF91CF911F910F91FF90EF90DF90BE
:1029F000CF900895EF5FE1CF8330910551F4812F9F
:102A00000E94221461E070E0892BE1F270E060E046
:102A1000D9CFC090000B2C2D30E0F901E157F04FD9
:102A20007F01108120ED210F2A30A8F6019709F0CF
:102A300094C00E94E90A082FF1E0882381F0DF1298
:102A400008C0193311F01F5F01C010E3F7011083B4
:102A5000C2CF103311F01150F9CF19E3F7CFDF12C5
:102A600037C0193389F580E3F70180830E94980C01
:102A70006EE270E08FE89FE00E944A68009709F4D8
:102A80008DC0FC01318120ED230F2A3008F030E3A6
:102A9000FC01228140ED420F4A3008F020E3EFE8CC
:102AA000FFE0E817F90758F5073070F5419150ED50
:102AB000540F5A30B0F7A1E0B0E0AC0FBD1FA00F2B
:102AC000B11D4C930F5FEDCF1F5FF7011083D0CF87
:102AD000103399F40E94FB0A882309F47CCFEC2D73
:102AE000F0E0E157F04F8081882321F081818083DD
:102AF000C394F5CF0E94DB04BBCF1150E6CF011188
:102B000003C080E3898301E0CE010196FC01E00F60
:102B1000F11D1082422F022E000C550B5F932F9354
:102B2000432F032E000C550B5F933F939F938F937E
:102B30008CEF94E09F938F931F9289E08F938FE89F
:102B40009FE09F938F930E946B680E94DB040FB6F7
:102B5000F894DEBF0FBECDBF3ECF51E0D51208C006
:102B6000193309F070CF80E380830E94980C33CF33
:102B7000103309F070CF0E94FB0A882309F42BCF91
:102B8000EC2DF0E0E157F04F8081882321F0818126
:102B90008083C394F5CF0E94DB041DCF8FE89FE0B4
:102BA000FC0101900020E9F7CF01019730E376CFD7
:102BB000F1E0DF1621F05FEFE5E0D51669F0E5E022
:102BC000FCCEE0E041E0D41609F414CF8FEFD81228
:102BD000F4CEEE2309F4F1CEE150EFCEE1E0F2CFF6
:102BE000E2E0F0CFE3E0EECFE4E0ECCF8FB7F89493
:102BF000EDE1FFE0108212821382ABE0BFE051965C
:102C00001C925197E9EFFEE0118A14961D921D92D5
:102C10001D921C92179714821582168217828FBFFD
:102C2000089510924E0E10924F0E10924E0F109269
:102C3000D10A0C94F61580911D0F882329F081E0AC
:102C400090911F0F911101C080E008958F929F9283
:102C5000AF92BF92EF92FF920F931F93CF934901D0
:102C60005A01611571058105910561F1C1E01616E2
:102C70001706180619060CF0C0E020911B0F2C1740
:102C8000C1F02091130F3091140F4091150F509106
:102C9000160F79018A01E60EF71E081F191F161676
:102CA0001706180619060CF447C06FEF80E00E9463
:102CB000F20B6C2F80E00E94CE44C0931B0F8C2F30
:102CC0000E94480781149104A104B104B9F1C1E044
:102CD000181419041A041B040CF0C0E08091090FA9
:102CE0008C17C1F02091010F3091020F4091030F1A
:102CF0005091040F85017401E20EF31E041F151F8D
:102D00006FEF181419041A041B040CF461E081E03D
:102D10000E94F20B6C2F81E00E94CE44C093090FF9
:102D20008C2FCF911F910F91FF90EF90BF90AF909C
:102D30009F908F900C941B0761E0B8CFCF911F91AB
:102D40000F91FF90EF90BF90AF909F908F9008955C
:102D5000E9EFFEE0811102C0EBE0FFE00FB607FCF7
:102D600005C0648575858685978508952FB7F89485
:102D700064857585868597852FBF0895E9EFFEE008
:102D8000811102C0EBE0FFE00FB607FC05C04487ED
:102D900055876687778708958FB7F8944487558756
:102DA000668777878FBF0895E9EFFEE0811102C043
:102DB000EBE0FFE00FB607FC09C040875187628750
:102DC0007387448755876687778708958FB7F89408
:102DD00040875187628773874487558766877787DF
:102DE0008FBF0895E9EFFEE0811102C0EBE0FFE044
:102DF0000FB607FC05C060857185828593850895AF
:102E00002FB7F89460857185828593852FBF0895CB
:102E1000CF92DF92EF92FF920F931F93CF939091F7
:102E20005F0E911155C0843008F052C0282F30E059
:102E3000F901E655F04F9081992309F449C08D7F3F
:102E4000C1E009F0C0E0220F331F220F331FF90148
:102E5000E656F04FC080D180E280F3808C2F0E9434
:102E6000F2166C157D058E059F0591F1C093570EE6
:102E7000C092530ED092540EE092550EF092560E20
:102E800081E08093740E10925E0E80935D0E8BE055
:102E9000C89FF0011124EF59F04F6781708590E0D1
:102EA00080E00E9460658B019C01B701A6018C2F18
:102EB0000E941D4B80913502882351F097018601B5
:102EC00049ED57E064E075E08AE095E00E94A54B8B
:102ED000CF911F910F91FF90EF90DF90CF900895C9
:102EE000CF93DF9380E00E94F216C1EFDEE06883AB
:102EF00079838A839B8381E00E94F2166C837D83B1
:102F00008E839F83DF91CF9108958F929F92AF928E
:102F1000BF92CF92DF92EF92FF92CF93CFB7F89408
:102F20000E94F6150E94E60F80E00E94F2164B0107
:102F30005C0181E00E94F2166B017C01B501A401E5
:102F400080E00E94BE16B701A60181E00E94BE1675
:102F5000CFBF10924E0F1092EF0E1092F00E109203
:102F6000790E1092750E1092760E1092770E1092C6
:102F7000780ECF91FF90EF90DF90CF90BF90AF9001
:102F80009F908F900C947017CF93823080F4909123
:102F90006B0E981761F0C82F0E94C910882349F062
:102FA000C0936B0E0E94B30582E080936A0ECF91AE
:102FB00008950E9485170E94B305C0936B0EF4CF4D
:102FC000CF938091740E882399F01092740E109212
:102FD0005E0E10925D0E0E94F615C091570E8C2F5A
:102FE0000E94F216AB01BC018C2FCF910C94BE163F
:102FF000CF9108958091500E9091510E0497D1F089
:1030000084E090E09093510E8093500E0E94111630
:103010000E94E60F80E00E94F216AB01BC0180E046
:103020000E94BE1681E00E94F216AB01BC0181E055
:103030000C94BE1608956091500E7091510EE1E807
:10304000F2E049EA52E0208131816217730719F0FA
:103050002530310529F4228133818217930731F01D
:1030600035964E175F0779F70C94FA179093510E27
:103070008093500E0895883020F5E82FF0E08827DF
:10308000EB5BF74E8F4F0C9449674D186C18811805
:103090009618A318A718AA18BC186EE075E080E06F
:1030A0000E94FC0C69E175E081E00E94FC0C6DE17E
:1030B00075E082E00E94FC0C67E275E083E00E940C
:1030C000FC0C8091500E9091510E892B09F074C028
:1030D00081E090E00C941B1881E080937E0E6FE0FD
:1030E00075E080E00E94FC0C6DE275E081E00E94DA
:1030F000FC0C6BE375E082E00E94FC0C62E475E07E
:10310000DDCF81E080937D0E68E475E080E00E9471
:10311000FC0C64E575E081E00E94FC0C6BE375E05B
:1031200082E00E94FC0C61E675E0C8CF6EE675E0B7
:1031300080E00E94FC0C66E775E081E00E94FC0CD8
:1031400060E875E0D8CF6BE875E080E0B8CF60E963
:1031500075E0FBCF67E975E080E00E94FC0C6FE949
:1031600075E081E00E94FC0C69EA75E082E00E9453
:10317000FC0C64EB75E0A2CF81E080937C0E109292
:103180007B0E10927A0E6FEB75E080E00E94FC0CD3
:103190006AEC75E081E00E94FC0C69ED75E082E06C
:1031A0000E94FC0C62E475E083E00E94FC0C81E06C
:1031B00090E00E941B1885CF0895CF92DF92EF9286
:1031C000FF920F931F93CF93DF938A01D62FC72FC0
:1031D000811181E09BE0899FF0011124EF59F04FAC
:1031E0006581768190E080E00E9460656B017C01E2
:1031F00020E030E040E85FE3B8018D2F9C2F0E9473
:10320000B36487FF04C000E010E0D0E8CFE396018C
:10321000A701B8018D2F9C2F0E94126618161CF46E
:103220008601DE2DCF2DB8018D2F9C2FDF91CF9100
:103230001F910F91FF90EF90DF90CF9008950F9323
:103240001F93CF93C82F0E94F2162091F00E1216F2
:10325000A4F424E0C29FF0011124EF50F14F00814B
:103260001181228133810617170728073907B4F423
:10327000608371838283938311C0222379F024E0D9
:10328000C29FF0011124EF50F14F00811181228182
:103290003381601771078207930754F3CF911F9111
:1032A0000F910895CF92DF92EF92FF920F931F93A9
:1032B000CF93DF93811181E0C82FD0E06623E9F03E
:1032C0008BE08C9FF0018D9FF00D1124EF59F04F92
:1032D0006781708590E080E00E9460658B01D82F47
:1032E000C92FB8018D2F9C2FDF91CF911F910F9186
:1032F000FF90EF90DF90CF9008950E944F086B01F0
:103300007C0120E030E040E251E40E94B36487FF9A
:1033100006C0C12CD12C80E2E82E91E4F92E8BE07E
:103320008C9FF0018D9FF00D1124EF59F04F6581B6
:10333000768190E080E00E9460658B01D82FC92FD4
:103340009B01482F592FB601C7010E94126618161B
:1033500044F28601DE2DCF2DC4CFCF92DF92EF92C3
:10336000FF920F931F936A017B018130B1F480912A
:10337000AA0F882309F447C060919A0F70919B0FA0
:1033800080919C0F90919D0F2091AC0F21111EC038
:1033900000E814E82EE130E021C08091AD0F8823D1
:1033A000B9F16091A60F7091A70F8091A80F90912D
:1033B000A90F2091AB0F222359F300919E0F10917A
:1033C0009F0F2091A00F3091A10F08C00091A20F74
:1033D0001091A30F2091A40F3091A50FC616D70608
:1033E000E806F9064CF0C701B601061717072807CB
:1033F000390714F4C901B8011F910F91FF90EF90A4
:10340000DF90CF90089560E87BE781EE9FEFBCCF1F
:1034100060E87BE781EE9FEFCCCF7F928F929F9207
:10342000AF92BF92CF92DF92EF92FF920F931F93D2
:10343000CF93DF93411551056105710509F442C031
:10344000722E94E0899FE0011124FE01EF50F14FAC
:1034500080809180A280B3806A017B01C80CD91C56
:10346000EA1CFB1C21113CC0B701A6010E94AD194A
:10347000FE01EF50F14F608371838283938371105B
:1034800008C0C616D706E806F90619F081E0F8016B
:103490008083FE01E459F14FCF50D14F888199814B
:1034A000AA81BB8188199909AA09BB094081518168
:1034B00062817381840F951FA61FB71F808391833C
:1034C000A283B383DF91CF911F910F91FF90EF9073
:1034D000DF90CF90BF90AF909F908F907F90089596
:1034E000C701B601C5CFCF93CFB7F8949091DC0B4D
:1034F0009F5F93707091DD0B7917F9F0A091DC0B51
:10350000E6E0EA9FD0011124AC53B44F8C93A09114
:10351000DC0BEA9FD0011124AC53B44F11966C938D
:103520008091DC0BE89FF0011124EC53F44F2283CF
:103530003383448355839093DC0BCFBFCF910895A1
:103540001F920F920FB60F9211240BB60F922F936A
:103550003F934F935F936F937F938F939F93AF931B
:10356000BF93EF93FF930E94390FFF91EF91BF91AB
:10357000AF919F918F917F916F915F914F913F910B
:103580002F910F900BBE0F900FBE0F901F901895AC
:103590001F920F920FB60F9211240BB60F922F931A
:1035A0003F934F935F936F937F938F939F93AF93CB
:1035B000BF93EF93FF930E94C20CFF91EF91BF91D5
:1035C000AF919F918F917F916F915F914F913F91BB
:1035D0002F910F900BBE0F900FBE0F901F9018955C
:1035E0001F920F920FB60F921124A8950F900FBE45
:1035F0000F901F9018951F920F920FB60F921124E3
:103600000BB60F922F933F934F935F936F937F93DC
:103610008F939F93AF93BF93EF93FF930E9488067E
:103620008091930E9091940EA091950EB091960E6C
:10363000FF91EF91BF91AF919F918F917F916F918A
:103640005F914F913F912F910F900BBE0F900FBE46
:103650000F901F90189590E0FC01E559FA4FE49106
:10366000EE2389F0F0E0EE0FFF1FEE54FD4FA59121
:10367000B4912C91855F9A4FFC018491282381E0BD
:1036800019F480E0089581E008958EE10E942B1BDB
:1036900061E0811101C060E084E191E10E94CE0906
:1036A0008FE10E942B1B61E0811101C060E085E089
:1036B00091E10E94CE0980E20E942B1B61E0811102
:1036C00001C060E086EF90E10E94CE0981E20E9495
:1036D0002B1B61E0811101C060E087EE90E10E9448
:1036E000CE0982E20E942B1B61E0811101C060E0E3
:1036F00088ED90E10E94CE0983E20E942B1B61E0DD
:10370000811101C060E089EC90E10E94CE0984E261
:103710000E942B1B61E0811101C060E08AEB90E107
:103720000E94CE0985E20E942B1B61E0811101C03D
:1037300060E08BEA90E10E94CE096091060165FB92
:10374000662760F98CE990E10E94CE09609106013C
:1037500066FB662760F98DE890E10E94CE096091D2
:103760000601661F6627661F8EE790E10E94CE095C
:103770006CB1629561708FE690E10E94CE096CB1E8
:1037800065FB662760F980E690E10C94CE094F92C4
:103790005F926F927F92AF92BF92CF92DF92EF9241
:1037A000FF920F931F93CF93DF937C01142FFB01A4
:1037B0008481958182FF43C1970141E754E06EE621
:1037C00074E082E00E942B10111118C28091060152
:1037D0009091B811929591708170CFEF98130EC0AF
:1037E000809106019091A9119295917086958170B2
:1037F000C1E0981303C080E0C0E001C081E0909177
:10380000060120919A112295217092FB992790F937
:1038100029133EC29091060120918B1122952170AF
:1038200093FB992790F9291337C2882331F1CC23D0
:1038300021F1C13021F5D1E0813009F4D2E0CD2E63
:10384000D12C96012655304F5901F90190819923C9
:10385000A1F00E94F216CC0CDD1CCC0CDD1CF60194
:10386000E656F04F4080518062807380C13061F431
:10387000641575058605970574F0C1E0C3C1D3E0F2
:103880008130E9F6D0E0DBCFCF3F29F4461657066A
:103890006806790694F7970143EE55E06EE674E00A
:1038A00082E00E942B1080915F0E811140C0F501D3
:1038B00080818823E1F1C1E0D0FDC0E0F601E65649
:1038C000F04FC080D180E280F3808C2F0E94F216EE
:1038D0006C157D058E059F0551F1C093570EC09262
:1038E000530ED092540EE092550EF092560E81E097
:1038F0008093740E80935E0E10925D0E60E08C2FAC
:103900000E9452198B019C01B701A6018C2F0E94C5
:103910001D4B80913502882351F09701860149EDB6
:1039200057E063EE75E08AE095E00E94A54BDF91D9
:10393000CF911F910F91FF90EF90DF90CF90BF90AC
:10394000AF907F906F905F904F9008952091AA0F55
:103950002223A1F0C0909A0FD0909B0FE0909C0F73
:10396000F0909D0FC61AD70AE80AF90AC0929A0F7A
:10397000D0929B0FE0929C0FF0929D0F2091AC0F84
:103980002223A1F0C090A20FD090A30FE090A40F2B
:10399000F090A50FC61AD70AE80AF90AC092A20F3A
:1039A000D092A30FE092A40FF092A50F8C2F0E944B
:1039B0003640EC2FF0E0EE0FFF1FEE0FFF1FE45933
:1039C000F14F10821182128213820E94C6058C2F41
:1039D0000E941840E12FF0E0EE0FFF1FE755FD4F6A
:1039E0002081318149EE55E06EE674E082E00E946C
:1039F0002B1080913602882309F499CF0E94AC4D98
:103A00006DE270E080E090E00E94604F80E10E94F3
:103A1000260C60E570E080E090E00E94604FDF914E
:103A2000CF911F910F91FF90EF90DF90CF90BF90BB
:103A3000AF907F906F905F904F900C94AC4D8075DD
:103A40009170409709F073CF0E949D4B9701882396
:103A5000C1F044E055E06EE674E082E00E942B1075
:103A6000812FDF91CF911F910F91FF90EF90DF9009
:103A7000CF90BF90AF907F906F905F904F900C94DD
:103A800008174AE654E06EE674E082E00E942B10CC
:103A9000C12FD0E09E012655304F5901F901808198
:103AA000882329F11082CF54DD4F61E088810E9484
:103AB0003F4C2EEE35E046E055E06EE674E082E0E5
:103AC0000E942B1080913602882309F430CFDF91B9
:103AD000CF911F910F91FF90EF90DF90CF90BF900B
:103AE000AF907F906F905F904F900C94240C812F3B
:103AF0008D7FD9F481E00E94F2166B017C011123C5
:103B000071F11230B9F48091AA0F8823D1F180911C
:103B10009A0F90919B0FA0919C0FB0919D0F8C15C7
:103B20009D05AE05BF056CF102CF80E00E94F21644
:103B30006B017C01113009F04DC08091AD0F8823DD
:103B400001F18091A60F9091A70FA091A80FB091BD
:103B5000A90F8C159D05AE05BF059CF0E8CE8091A0
:103B6000AC0F882371F08091A20F9091A30FA091C8
:103B7000A40FB091A50FC816D906EA06FB060CF0F3
:103B8000D6CE81E0F5018083FE01EE0FFF1FEE0F20
:103B9000FF1FE656F04FC082D182E282F38260E0DE
:103BA000FE01EF54FD4F80810E943F4C8091350211
:103BB000882309F487CFCC0FDD1FC755DD4F48811F
:103BC00059819701860166E075E08EE694E00E94D7
:103BD000A54B78CF1330A9F68091AB0F882389F2DB
:103BE00080919E0F90919F0FA091A00FB091A10F77
:103BF000C816D906EA06FB0624F299CEC1E01230B7
:103C000009F0C0E08C2F0E94F2162091740E22233E
:103C100051F02091570EC21306C01092740E1092EC
:103C20005E0E10925D0EC13009F490CE2091AB0F64
:103C30002223A1F0C0909E0FD0909F0FE090A00F84
:103C4000F090A10FC61AD70AE80AF90AC0929E0F8F
:103C5000D0929F0FE092A00FF092A10F2091AD0F94
:103C6000222309F4A3CEC090A60FD090A70FE09016
:103C7000A80FF090A90FC61AD70AE80AF90AC0924D
:103C8000A60FD092A70FE092A80FF092A90F8ECEA8
:103C9000C1E08111F2CDCDCDCFEFFBCF1F920F92BE
:103CA0000FB60F9211248F939F93AF93BF934A99AE
:103CB0001EC04B9913C08091EC0A9091ED0AA0911F
:103CC000EE0AB091EF0A0197A109B1098093EC0ABD
:103CD0009093ED0AA093EE0AB093EF0ABF91AF91D3
:103CE0009F918F910F900FBE0F901F9018954B9939
:103CF000F5CF8091EC0A9091ED0AA091EE0AB09177
:103D0000EF0A0196A11DB11DE1CF1F920F920FB6D0
:103D10000F9211240BB60F922F933F934F935F9303
:103D20006F937F938F939F93AF93BF93EF93FF9383
:103D30000E948806FF91EF91BF91AF919F918F9163
:103D40007F916F915F914F913F912F910F900BBE9B
:103D50000F900FBE0F901F901895CF92DF92EF92A9
:103D6000FF92CF93DF93811181E09BE0899FE00177
:103D70001124CF59D04F6881798190E080E00E9472
:103D800060656B017C016A8170E090E080E00E94D8
:103D900060659B01AC01C701B6010E9417666B010B
:103DA0007C016B817C8190E080E00E9460652AE06C
:103DB00037ED43E25CE30E9417669B01AC01C7014B
:103DC000B6010E94B864DF91CF91FF90EF90DF9031
:103DD000CF9008954F925F926F927F928F929F92B1
:103DE000AF92BF92CF92DF92EF92FF920F931F9309
:103DF000CF93DF93CDB7DEB72C970FB6F894DEBF25
:103E00000FBECDBF90911D0F992309F4A3C09091CF
:103E10001F0F992309F48DC040914A0F50914B0F09
:103E200060914C0F70914D0FA090460FB090470FCE
:103E3000C090480FD090490FA986BA86CB86DC8601
:103E4000A416B506C606D70620F449875A876B879D
:103E50007C87C984DA84EB84FC84CD28CE28CF28E3
:103E600041F4E12CF12C8701E394E986FA860B8773
:103E70001C878090320F9090330FA090340FB09039
:103E8000350F04E0809FF0011124E35EF04FC1A4E0
:103E9000D2A4E3A4F4A40E94AD1E2B013C0120E0B7
:103EA00030E040E85FE30E94B36487FD53C0C50182
:103EB000B401A70196010E947367C984DA84EB8478
:103EC000FC8456016701E12CF12C8701A982BA829A
:103ED000CB82DC82ED82FE820F831887E12CF12CED
:103EE00000E010E00E94A067B901CA010E9460656D
:103EF00020E030E040E752E40E941766A3019201FF
:103F00000E94B8642C960FB6F894DEBF0FBECDBFEA
:103F1000DF91CF911F910F91FF90EF90DF90CF90A5
:103F2000BF90AF909F908F907F906F905F904F90D9
:103F30000895A090220FB090230FC090240FD0902E
:103F4000250FA986BA86CB86DC86AB28AC28AD289F
:103F500009F08FCF60E070E0CB01D4CFCF92DF9239
:103F6000EF92FF92CF93C82F0E94AD1E6B017C0190
:103F7000C111C1E08BE0C89FF0011124EF59F04F4F
:103F8000618570E090E080E00E94606520E030E0B4
:103F900048E452E40E941766A70196010E94176642
:103FA00020E030E040E05FE30E9447640E9431651A
:103FB000611571058105910521F461E070E080E0F3
:103FC00090E0CF91FF90EF90DF90CF9008952F92E7
:103FD0003F924F925F926F927F928F929F92AF9299
:103FE000BF92CF92DF92EF92FF920F931F93CF93E6
:103FF000DF93CDB7DEB72F970FB6F894DEBF0FBEB5
:10400000CDBF10914F0EC0904E0ECD821C1509F4FD
:10401000BAC180E00E94F2166E837F8388879987F9
:1040200081E00E94F2166A877B878C879D8707E272
:10403000212E312C029D7001039DF00C112497015B
:104040002252344F3A832983D90196968C919697C0
:10405000882399F192968C91929780FF69C09496EB
:104060006D917C9190E080E00E946065E981FA8129
:10407000648F758F868F978F10A211A2029DF00119
:10408000039DF00D1124E252F44F82A180FD10C077
:10409000C084D184E284F384CE82DF82E886F9860C
:1040A000C484D584E684F784CA86DB86EC86FD86E4
:1040B0001F5F1F70DD80D112BBCF8D81815F8F703C
:1040C0008983E0904F0EED821E821A86312C212CBE
:1040D000F9800F2D10E027E2209FF001219FF00DC5
:1040E0001124E252F44F86A1882309F44CC18E8139
:1040F0009A85A32DB22D808F918FA28FB38F82A12D
:1041000080FFA1C0148A158A168A178A108E118E14
:10411000128E138E1E821A86312C212CCD80D980CE
:10412000CD1409F430C18D2D815F8F708983D0CF7C
:10413000A981BA8118964D905D906D907C901B97E7
:10414000CE80DF80E884F9844C185D086E087F0813
:104150001C968D919D910D90BC91A02D6C017D01BF
:104160002A853B854C855D85C21AD30AE40AF50A87
:10417000C982DA82EB82FC825301420177FE07C0DA
:1041800088249924540184189508A608B708C98082
:10419000DA80EB80FC80F7FE08C0F094E094D094C5
:1041A000C094C11CD11CE11CF11C029DA001039D07
:1041B000500D11244252544F5F874E87B401C50100
:1041C0008C149D04AE04BF0410F4B601C7010E9414
:1041D0006065AE85BF855C966D937D938D939C9352
:1041E0005F97029DF001039DF00D1124E252F44F00
:1041F00081E014141504160417040CF080E080A369
:10420000029DF001039DF00D1124E252F44F81E074
:1042100029813A814B815C8112161306140615061A
:104220000CF080E081A3029DF001039DF00D1124AC
:10423000E252F44F81E08C149D04AE04BF0408F0F8
:1042400080E083A31BCFF3A0448C558C668C778CC5
:104250008F2D0E94AD1E4B015C01EF2DF110E1E0AE
:104260003BE03E9FF0011124EF59F04F618570E073
:1042700090E080E00E94606520E030E048E452E495
:104280000E9417666B017C0120E030E0A901C501A6
:10429000B4010E94126618160CF071C0A5019401B9
:1042A000C301B2010E94B8644B015C0120E030E020
:1042B00040E752E46E817A85832D922D0E94B86486
:1042C0002B013C01A7019601C701B6010E9447647A
:1042D000A50194010E9417666B017C01A301920164
:1042E000C301B2010E9417669B01AC01C701B60170
:1042F0000E9447646B017C0120E030E0A9010E942C
:10430000B36487FF03C0C12CD12C7601C701B6016D
:104310000E948A6620E030E040E752E40E9417667F
:104320006B017C0147E2409FF001419FF00D112499
:10433000E252F44F50895E8381898A8732882388CC
:104340009601A7016E81782F832D922D0E94B36470
:1043500087FD04C0CE82DA863E2C2F2C97E2909FF8
:10436000F001919FF00D1124E252F44F8E819A8555
:10437000A32DB22D848B958BA68BB78BCFCE812CA2
:10438000912C540193CF2F960FB6F894DEBF0FBE39
:10439000CDBFDF91CF911F910F91FF90EF90DF90F4
:1043A000CF90BF90AF909F908F907F906F905F90D5
:1043B0004F903F902F9008952F923F924F925F928F
:1043C0006F927F928F929F92AF92BF92CF92DF9225
:1043D000EF92FF920F931F93CF93DF93CDB7DEB78A
:1043E0002E970FB6F894DEBF0FBECDBF811145C02A
:1043F00040904F0F5090500F6090510F7090520F9F
:1044000014141504160417040CF07AC149875A874E
:104410006B877C878D832FB6F89480E00E94F2161C
:104420004B015C0181E00E94F2166B017C0120913E
:104430004E0E2983122F1F5F1F7000914F0E101315
:1044400025C02FBE8FEF9FEF2E960FB6F894DEBFDC
:104450000FBECDBFDF91CF911F910F91FF90EF90D5
:10446000DF90CF90BF90AF909F908F907F906F9094
:104470005F904F903F902F9008954090530F509031
:10448000540F6090550F7090560FBACF8981A7E2F4
:104490008A9FC00111248252944F9E878D873324B6
:1044A0003394DC0196963C92B501A40180E00E9411
:1044B000AD194B015C01ED85FE8580869186A28653
:1044C000B386B701A60181E00E94AD196B017C01A2
:1044D000AD85BE851C96CD92DD92ED92FC921F9724
:1044E00080E00E94AD1E69837A838B839C83C50123
:1044F000B4010E94626529813A814B815C810E94EE
:10450000B864ED85FE85608371838283938381E047
:104510000E94AD1E4B015C01C701B6010E9462659D
:10452000A50194010E94B864AD85BE8514966D9373
:104530007D938D939C93179789859A85AB85BC85D0
:10454000ED85FE85808B918BA28BB38BDF01148A66
:10455000158A168A178A108E118E128E138E148E5B
:10456000158E168E178E10A211A232A2ED8193968F
:10457000EC93939795965C924E92949710934E0E6F
:104580000E94E71F312E301A101728F4612F601B8C
:1045900080E1382E360E80913502882309F4AFC0B1
:1045A000115F1F7027E2129FF0011124E252F44FB5
:1045B00002A10170808D918DA28DB38D89839A8324
:1045C000AB83BC8384899589A689B7898D839E83B3
:1045D000AF83B88780899189A289B38989879A87AF
:1045E000AB87BC8784809580A680B780408051804F
:1045F00062807380C48CD58CE68CF78C13A166EF37
:1046000075E083EC9FE00E94310F01117CC0A2EFA6
:10461000B5E0BE87AD87C701B6010E9431656B0169
:104620007C016D857E8583EC9FE00E94310F61EFF8
:1046300077E083EC9FE00E94310F002309F468C00B
:104640008AE5111101C088E50E94B73F65E076E078
:1046500083EC9FE00E94310F4AE0C701B6010E943F
:10466000BC3F62E176E083EC9FE00E94310F20E0E6
:1046700030E040E05FE369857A858B859C850E9408
:1046800047640E942A65CB010E94954065E176E06F
:1046900083EC9FE00E94310F20E030E040E05FE3D8
:1046A0006D817E818F8198850E9447640E942A6572
:1046B000CB010E9495406AE176E083EC9FE00E9486
:1046C000310F20E030E040E05FE369817A818B8147
:1046D0009C810E9447640E942A65CB010E949540FC
:1046E00060E276E083EC9FE00E94310F632D70E082
:1046F00090E080E04AE00E94BC3F0E94F83E2FBE5E
:1047000090E080E0A1CEE3E6F4E0FE87ED8783CF82
:1047100069E479E083EC9FE00E94310F43E0C3013C
:10472000B2010E941A416AE076E083EC9FE00E94A9
:10473000310F43E0C501B4010E941A416DE076E0FB
:1047400087CFCF92DF92EF92FF920F93CF936A01C0
:104750007B01C22F811126C00E94AD1E0E942A65D6
:104760002AE030E040E050E0011122C0C130E1F029
:10477000F7FE04C0CC24CA94DC2C7601A701960174
:10478000121613061406150624F421E030E040E06A
:1047900050E0CA01B901CF910F91FF90EF90DF90E7
:1047A000CF90089581E0D8CF24E630E040E050E09B
:1047B0000E942A67121613061406150624F021E03B
:1047C00030E040E050E01C141D041E041F040CF3F4
:1047D00050954095309521953F4F4F4F5F4FD9CF22
:1047E0008F929F92AF92BF92CF92DF92EF92FF9201
:1047F000CF93DF9380E00E94AD1E4B015C0181E00E
:104800000E94AD1E6B017C0180915B0F90915C0F4B
:10481000C0915D0FD0915E0F009711F1B0E0A0E064
:1048200080934F0F9093500FA093510FB093520F5E
:10483000209779F1CE01B0E0A0E08093530F9093E0
:10484000540FA093550FB093560FDF91CF91FF9067
:10485000EF90DF90CF90BF90AF909F908F90089592
:104860002BE734E14EEA5EE3C501B4010E9417660E
:1048700020E030E040E05FE30E9447640E942A6548
:1048800060934F0F7093500F8093510F9093520F7E
:10489000CFCF2EE135E84BEE5EE3C701B6010E94B3
:1048A000176620E030E040E05FE30E9447640E942A
:1048B0002A656093530F7093540F8093550F909314
:1048C000560FC3CFEF92FF920F931F930E94F023D6
:1048D000E0904F0FF090500F0091510F1091520F38
:1048E00023E236E043E654E066E674E082E00E94AC
:1048F000830FE090530FF090540F0091550F1091DB
:10490000560F28E236E043E654E066E674E082E0C3
:104910000E94830F1F910F91FF90EF900895CF9306
:10492000DF931F921F92CDB7DEB7803119F490E06C
:1049300080E056C08A31D9F38E32C8F7DB01E82F08
:10494000F0E08827E955FB4D8F4F0C944967D5243B
:10495000F5240A2520259724972497249724972423
:10496000972435254D255E2574258A25A125972474
:10497000B32597249724BB25D225E425FB251226B1
:10498000292697243B269724972443265A266426D3
:10499000972497249724972497249724972479265B
:1049A00083269D26B326E526CD26BE016F5F7F4F69
:1049B000CD010E943D0B892B09F4B9CF40917D0FA9
:1049C00050917E0F69817A814617570708F4AB0131
:1049D00090E080E00E949D080E94F01281E090E04B
:1049E0000F900F90DF91CF910895BE016F5F7F4FC1
:1049F000CD010E943D0B892B09F499CF60917B0F6B
:104A000070917C0F89819A81AC018617970700F716
:104A1000BC01DECFBE016F5F7F4FCD010E94580BFE
:104A2000892B09F484CF4091810F5091820F6981C5
:104A30007A814617570708F4AB0181E090E0CACFAE
:104A4000BE016F5F7F4FCD010E94580B892B09F487
:104A50006ECF60917F0F7091800F89819A81AC0138
:104A60008617970750F7BC01E8CFBE016F5F7F4FF5
:104A7000CD010E943D0B892B09F459CF89819A8180
:104A80009C01225331092F39374020F490936D0F48
:104A900080936C0F0E94DD12A1CFBE016F5F7F4F2C
:104AA000CD010E943D0B892B09F441CF89819FEFF5
:104AB000980F903278F780936E0FECCFBE016F5F46
:104AC0007F4FCD010E94580B892B09F430CF89818B
:104AD0009A819C012A5031092F3D3340D8F690939A
:104AE000700F80936F0FD6CFBE016F5F7F4FCD01E8
:104AF0000E943D0B892B09F41ACF89819A819C0170
:104B00002A5031092F37334128F69093720F809342
:104B1000710FC0CFBE016F5F7F4FCD010E943D0B73
:104B2000892B09F404CF89819A819C012A5031098B
:104B30002730374208F0AECF9093740F8093730FF5
:104B4000A9CFBE016F5F7F4FCD010E943D0B892B26
:104B500009F4EDCE89819FEF980F943108F09ACF38
:104B60008093750F97CF81E09C91913309F080E09D
:104B70008093760F8FCFBE016F5F7F4FCD010E9474
:104B80003D0B892B09F4D3CE89819A819C01225354
:104B900031092F39374008F07DCF9093620F809311
:104BA000610F78CFBE016F5F7F4FCD010E943D0B3B
:104BB000892B09F4BCCE89819FEF980F903208F0C1
:104BC00069CF8093630F66CFBE016F5F7F4FCD01CA
:104BD0000E94580B892B09F4AACE89819A819C01E5
:104BE0002A5031092F3D334008F054CF9093650F80
:104BF0008093640F4FCFBE016F5F7F4FCD010E9446
:104C00003D0B892B09F493CE89819A819C012A500E
:104C100031092F37334108F03DCF9093670F8093D0
:104C2000660F38CFBE016F5F7F4FCD010E943D0BF5
:104C3000892B09F47CCE89819A819C012A50310903
:104C40002730374208F026CF9093690F8093680F82
:104C500021CFBE016F5F7F4FCD010E943D0B892B9D
:104C600009F465CE89819FEF980F943108F012CF37
:104C700080936A0F0FCF81E09C91913309F080E01F
:104C800080936B0F07CFBE016F5F7F4FCD010E94F6
:104C90003D0B892B09F44BCE89819A819C012456C6
:104CA00031092D3A364208F0F5CE9093780F809373
:104CB000770FF0CE81E09C91913309F080E08093F2
:104CC00036020E9487128ACEBE016F5F7F4FCD01F0
:104CD0000E943D0B892B09F42ACE89819A81813D5E
:104CE00027E0920708F023CE90937A0F8093790FF4
:104CF000D1CE81E09C91913309F080E080935A0FEE
:104D00000E9427136BCEBE016F5F7F4FCD010E94C3
:104D10003D0B892B09F40BCE89819A81893843E1B7
:104D2000940710F088E893E190935C0F80935B0FF9
:104D30000E9427130E94622451CEBE016F5F7F4FF5
:104D4000CD010E943D0B892B09F4F1CD89819A8117
:104D5000893823E1920710F088E893E190935E0F81
:104D600080935D0FE5CFBE016F5F7F4FCD010E9445
:104D70003D0B892B09F4DBCD89819A81893C910512
:104D800010F088EC90E08530910510F485E090E01B
:104D900080935F0F0E948E09B3CFBE016F5F7F4F7C
:104DA000CD010E943D0B892B09F4C1CD89819A81E7
:104DB000893C910510F088EC90E08530910510F465
:104DC00085E090E08093600FE5CFBE016F5F7F4F7D
:104DD000CD010E943D0B892B09F4A9CD89819A81CF
:104DE0008330910508F0A3CD8093590F0E940313DF
:104DF000F5CD8F929F92AF92BF92CF92DF92EF92BA
:104E0000FF920F931F93CF93DF93CDB7DEB76A97CF
:104E10000FB6F894DEBF0FBECDBF80E30E948B0CAF
:104E20008CE20E948B0C81E30E948B0C8BE20E942F
:104E30008B0C80E10E948B0C8AE20E94810C8DE138
:104E40000E94810C89E10E94810C8BE10E94810CFF
:104E500087E10E94810C86E30E94950C87E30E9403
:104E6000950C88E30E94950C89E30E94950C8AE3D7
:104E70000E94950C8EE30E94950C8FE30E94950C86
:104E800080E40E94950C81E40E94950C82E40E94CB
:104E9000950C83E40E94950C84E40E94950C85E4B3
:104EA0000E94950C8EE10E94950C8FE10E94950C5A
:104EB00080E20E94950C81E20E94950C82E20E94A1
:104EC000950C83E20E94950C84E20E94950C85E289
:104ED0000E94950C82E10E94950C83E10E94950C42
:104EE00082E00E94950C83E00E94950C8FE00E9466
:104EF000950C8EE00E94950C84E10E94950C85E152
:104F00000E94950C86E10E94950C88E10E94950C08
:104F10008AE10E94950C8CE10E94950CE091D30FE0
:104F2000F091D40F82E08083E091CF0FF091D00F09
:104F30001082E091D10FF091D20F80E18083109226
:104F4000DB0FE091D70FF091D80F86E08083E091DE
:104F5000D50FF091D60F808180618083E091D50FCD
:104F6000F091D60F808188608083E091D50FF09119
:104F7000D60F808180688083E091D50FF091D60FA5
:104F800080818F7D808381E08093350214B714BEC9
:104F900080913502882331F06DE276E083EC9FE06A
:104FA0000E94310F612F70E090E080E04AE00E94A3
:104FB000BC3F0E94F83E1092C70E68E376E083EC97
:104FC0009FE00E94310F80E20E94B73F67E476E0E5
:104FD00083EC9FE00E94310F80E892E00E945F40E6
:104FE00080913502882321F086E299E00E94FE3EFE
:104FF00080913502882321F082E596E00E94FE3EF2
:1050000028E736E04CE756E062E876E082E00E946E
:105010002B1090E080E00E949A0E182F81E090E023
:105020000E949A0ED82E82E090E00E949A0EC82E1E
:1050300083E090E00E949A0EB82E153A61F586EF53
:105040008D0D8B3540F521E02C1528F18D2D8C0D23
:105050008B55B81220C0D0920002C0923602ED2CBF
:10506000F12C10E000E029EC34E046E856E063ED76
:1050700074E082E00E94830FE0903602F12C10E091
:1050800000E027ED34E046E856E063ED74E082E0AE
:105090000E94830F14C084E68093000281E0809315
:1050A0003602153A09F46FC40E94F80D2BE836E079
:1050B00046E856E063ED74E082E00E942B1080E148
:1050C00090E00E949A0EF82E89E190E00E949A0EDC
:1050D000A82E87EBF81286C48E010F5F1F4F480180
:1050E000A1E1CA2ED12CB02EE12EC6010E949A0E4B
:1050F000D4018D934D01BFEFCB1ADB0AE9E1CE1647
:10510000D10499F7C8010896D8012D918D01F20EAE
:105110008A179B07C9F7AF1065C48B2D9E2D0E947F
:10512000C708882309F45EC489819A81AB81BC8158
:1051300080937B0F90937C0FA0937D0FB0937E0F95
:105140008D819E81AF81B88580937F0F9093800F72
:10515000A093810FB093820F24EA36E043EF54E02E
:1051600063ED74E082E00E942B1080E290E00E94E8
:105170009A0EF82E87E390E00E949A0EA82EB5ECC6
:10518000FB1237C48E010F5F1F4F4801F1E2CF2E93
:10519000D12CB02EE12EC6010E949A0EF40181930B
:1051A0004F01FFEFCF1ADF0A2BE3C216D10499F7A4
:1051B000C8014A96D8012D918D01F20E8A179B07DE
:1051C000C9F7AF1016C48B2D9E2D0E94C6078823E9
:1051D00009F40FC48AE1EB2DFE2DA1E6BFE001909A
:1051E0000D928A95E1F724EA36E04EEE54E063ED45
:1051F00074E082E00E942B1088E390E00E949A0EF7
:10520000F82E80E490E00E949A0EA82EB2EBFB12DA
:10521000F7C38E010F5F1F4F4801E9E3CE2ED12C5B
:10522000B02EE12EC6010E949A0EF40181934F0127
:10523000FFEFCF1ADF0A20E4C216D10499F7C801A4
:105240000796D8012D918D01F20E8A179B07C9F799
:10525000AF10D6C38B2D9E2D0E947109882309F4AF
:10526000CFC387E0EB2DFE2DAAE5BFE001900D92A4
:105270008A95E1F724EA36E043E654E063ED74E012
:1052800082E00E942B1068E486E40E949C0E24EACF
:1052900036E081110BC062E480E40E949C0E8823FA
:1052A00009F4B5C30E94031324EB36E048EF54E041
:1052B00063ED74E082E00E942B1029EB36E04CE7AE
:1052C00056E062E876E082E00E942B1082E1EBE09B
:1052D000FFE0DF01282F1D922A95E9F7E9EFFEE0B4
:1052E000DF011D928A95E9F7EDE1FFE081E3DF013F
:1052F0001D928A95E9F78FB7F8941092C20B10921D
:10530000C30B8FBF0E94F023E0904F0FF090500F1F
:105310000091510F1091520F23E236E043E654E022
:1053200066E674E082E00E94830FE090530FF090F5
:10533000540F0091550F1091560F28E236E043E6C6
:1053400054E066E674E082E00E94830F1092880FBA
:1053500010928E0F1092870F10928D0F1092830F64
:105360001092840F1092850F1092860F1092890F61
:1053700010928A0F10928B0F10928C0F1092570F71
:105380001092580F1092DC0B1092DD0B2DEB36E0D3
:105390004CE756E062E876E082E00E942B10109223
:1053A0006C0E10926D0E10926E0E10926F0E109287
:1053B000700E1092710E1092720E1092730E109267
:1053C000650E1092640E1092580E1092590E1092A3
:1053D0005A0E10925B0E1092740E10925E0E109286
:1053E0005D0E1092EF0E1092660E1092670E1092E4
:1053F000680E1092690E11E010932F0210936B0E3D
:105400001092790E1092F00E1092750E1092760E88
:105410001092770E1092780E10926A0E0E947017FA
:1054200080E00E94364081E00E94364080915A0F11
:1054300081110FC01092880F1093870F1092830F65
:105440001092840F1092850F1092860F81E00E94B7
:10545000184021EC36E04CE756E062E876E082E066
:105460000E942B1064E084E10E94074D81E00E94BD
:10547000B13F8BE39FE10197F1F7809133118D7F6D
:105480008093331188600E94B13F8FEF80932E028A
:1054900080E00E94DA0B81E00E94DA0B82E00E9439
:1054A000DA0B83E00E94DA0B25EC36E04CE756E09D
:1054B00062E876E082E00E942B10809118119091B2
:1054C000191190619093191180931811809109110D
:1054D00090910A11906190930A1180930911809123
:1054E000FA109091FB1090619093FB108093FA104A
:1054F0008091EB109091EC1090619093EC10809360
:10550000EB108091DC109091DD1090619093DD1094
:105510008093DC108091CD109091CE10906190938B
:10552000CE108093CD108091BE109091BF109061ED
:105530009093BF108093BE108091AF109091B010E7
:1055400090619093B0108093AF108091A0109091D3
:10555000A11090619093A1108093A0108091911060
:1055600090919210906190939210809391108091FD
:105570008210909183109061909383108093821099
:105580008091731090917410906190937410809337
:1055900073108091641090916510906190936510E4
:1055A000809364100E94451B0E949604811101C0E3
:1055B00081E0809304020E9468040E9459040E94C2
:1055C0009604811180930402109104021093600EDE
:1055D0000E947F048093610E209103022093620E4B
:1055E0009091D00A9093630E1093E10A8093070282
:1055F000209306029093050228EC36E04CE756E033
:1056000062E876E082E00E942B1080910212909175
:105610000312906190930312809302128091F31110
:105620009091F41190619093F4118093F311809113
:10563000E4119091E51190619093E5118093E4114C
:105640008091D5119091D61190619093D61180934D
:10565000D5118091C6119091C71190619093C71197
:105660008093C6118091B7119091B8119061909379
:10567000B8118093B7118091A8119091A9119061F0
:105680009093A9118093A8118091991190919A11EA
:10569000906190939A118093991180918A119091C1
:1056A0008B11906190938B1180938A1180917B1163
:1056B00090917C11906190937C1180937B118091EB
:1056C0006C1190916D11906190936D1180936C119C
:1056D00080915D1190915E11906190935E11809325
:1056E0005D1180914E1190914F11906190934F11E7
:1056F00080934E1180913F11909140119061909351
:10570000401180933F11E2EDFAE08FE0DF011D923E
:105710008A95E9F7EAEFFAE086E0DF011D928A95C3
:10572000E9F721E539E04CE756E062E876E082E00F
:105730000E942B100AEA1FE05AE9C52E5FE0D52E21
:1057400061EBE62E62E0F62E7EEA872E7FE0972E52
:10575000F80111928F01D6011D921D921D921D928A
:105760006D0161E0F70181917F010E943F4C80163D
:10577000910671F72CEC36E04CE756E062E876E0F3
:1057800082E00E942B1060E08DE30E94CB4C0E94CF
:105790000240EBEAFAE0819391932AE0EB3CF207B6
:1057A000D1F79C0144E0220F331F4A95E1F7309373
:1057B000CD0A2093CC0A9093CA0E8093C90E109202
:1057C000CE0A80E090E0A0E8BFEB80933002909397
:1057D0003102A0933202B093330220ED36E04CE761
:1057E00056E062E876E082E00E942B108AB1807F6A
:1057F0008AB98BB18F608BB91092EC0A1092ED0AC6
:105800001092EE0A1092EF0A1092E80A1092E90A3A
:105810001092EA0A1092EB0A24ED36E04CE756E0CB
:1058200062E876E082E00E942B101092CB0E10927C
:10583000990F1092010B1092F00A1092F10A109237
:10584000F20A1092F30A1092F90A1092F50A1092D5
:10585000F60A1092F70A1092F80A1092F40A1092BF
:10586000980F0E94FC0429ED36E04CE756E062E810
:1058700076E082E00E942B108091600E9091610E84
:105880008150883008F080E08093C80E9093E20A3F
:105890000E943B182DED36E04CE756E062E876E0DA
:1058A00082E00E942B1010928F0E1092900E109298
:1058B000910E1092920E61E086E00E94CB4C8AB16C
:1058C000807F8AB98BB18F608BB921EE36E04CE7CF
:1058D00056E062E876E082E00E942B108091690039
:1058E00081608093690081E08CBBE89A80916900B7
:1058F00080618093690084E08CBBEA9A25EE36E0F3
:105900004CE756E062E876E082E00E942B1080913E
:10591000CB0E882309F482C00E94260D0E94390F05
:105920002AEE36E04CE756E062E876E082E00E943C
:105930002B10F894109280008AE08093810082E41A
:1059400090E0909389008093880082E080936F00BC
:1059500078942DEE36E04EEF56E062E876E06A96F7
:105960000FB6F894DEBF0FBECDBFDF91CF911F9170
:105970000F91FF90EF90DF90CF90BF90AF909F90EE
:105980008F900C942B1015EAE12EF12C00E010E022
:1059900028E936E046E856E063ED74E082E00E94D4
:1059A000830FED2CF12C10E000E029EC34E046E808
:1059B00056E063ED74E082E00E94830FEC2CF12C42
:1059C00010E000E027ED34E046E856E063ED74E0D7
:1059D00082E00E94830FEB2CF12C10E000E020EA23
:1059E00036E051CB0E94AF080E94420E2BEA36E00F
:1059F000B5CB0E9495070E94160E2BEA36E0F5CB38
:105A00000E9467090E946E0E2BEA36E035CC109298
:105A1000590F0E9403132BEA36E048CC0E94EC1089
:105A20007DCF8F929F92AF92BF92CF92DF92EF92F3
:105A3000FF928BEA92E00E94444080E00E94F216BE
:105A40004B015C0180E00E94AD1E6B017C01C50131
:105A5000B4010E946265A70196010E94B86443E008
:105A60000E941A418CE20E94B73F81E00E94F21628
:105A70004B015C0181E00E94AD1E6B017C01C50100
:105A8000B4010E946265A70196010E94B86443E0D8
:105A90000E941A4185EA92E00E9444408091500E93
:105AA0009091510E0E94954081EA92E00E944440FC
:105AB0006091C80E70E090E080E04AE00E94BC3F38
:105AC0008BE992E00E9444406091830E7091840EB5
:105AD0008091850E9091860E4AE00E94BC3F8EE335
