:020000040000FA
:100000000C94DA020C949B1E0C940B030C94641E4B
:100010000C940B030C940B030C940B030C940B0328
:100020000C940B030C940B030C940B030C940B0318
:100030000C940B030C9434100C940B030C94FF1AC7
:100040000C940B030C9420340C940B030C940B03B2
:100050000C940B030C940B030C940B030C94294B82
:100060000C940B030C943A150C9410150C940B0380
:100070000C940B030C940B030C940B030C940B03C8
:100080000C94F41A0C940B030C940B030C940B03B8
:100090000C940B030C940B030C940B030C940B03A8
:1000A0000C940B030C940B030C94CC1A0C940B03C0
:1000B0000C940B030C940B030C940B030C94A41AD8
:1000C0000C940B030C940B030C940B030C940B0378
:1000D0000C940B030C940B030C940B030C940B0368
:1000E0000C940B030C94BB180C9494260C941F4195
:1000F0000C9456410C9485420C94D2260C94EC40FE
:100100000C94B7030C9438280C949B400C94F22662
:100110000C94E5180C94F6180C9461280C94B542D4
:100120000C9424400C9453420C9471030C949E271D
:100130000C942A480C94B8270C9420480C94A241A3
:100140000C94AE060C9442480C9442400C94F21865
:100150000C94B0280C9455040C9415480C949B06F0
:100160000C9426280C9440280C94D4400C943942CA
:100170000C9483400C94D2060C94FF5D0C94D541F2
:100180000C9411480C9419480C9470410C9410076D
:100190000C94BF060C949D420C9476280C94F9188C
:1001A0000C94F0150C945B270C9464400C944C4810
:1001B0000C941D270C9487270C9439410C94E3066A
:1001C0000C94FF470C94EF410C9434480C948A41F2
:1001D0000C9446480C9450480C94CA280C94572808
:1001E0000C94CF270C9456040C9404040C94FA47F6
:1001F0000C944A270C9407420C944E030C94214211
:100200000C94F8270C943E480C94D0180C9404419C
:100210000C949A280C94A0400C940B190C941D4833
:100220000C9471270C9426480C94B0270C94BA4077
:100230000C940F280C945D030C949C180C946D4244
:100240000C9480280C9430480C94E2280C942103E0
:100250000C947F030C94E1270C9432270C94694092
:100260000C9407270C9451410C9438480C945C4032
:100270000C94BA416364696E6F70737578585B0053
:10028000205B27242720666F722068656C705D00F4
:100290006F6B006572726F723A20007C52504D3A5B
:1002A000007C4D3A007C46534D3A003C4D506F73F4
:1002B0003A00000020002300260029002C002F0017
:1002C000320000010000030106010901242420611D
:1002D0006C6C2C20246E2071756572792C20246E34
:1002E0003D76616C207365742C20244920696E660C
:1002F0006F2C203F20737461747573002434342094
:10030000636F6F726420756E69747320303D73740F
:1003100065707320313D6D6D20323D696E636800FC
:10032000243435206261636B6C617368206D696E83
:10033000207370656564206D6D2F6D696E002434C7
:1003400033206261636B6C617368206D6178207328
:1003500070656564206D6D2F6D696E0024343020EA
:100360006261636B6C617368206175746F2C20240B
:1003700034312D24343220582F5A20737465707311
:1003800000243332206A6F6720646563656C206DDA
:10039000696E2073746570732028303D6F6666291E
:1003A00000243330207370696E646C6520505052A5
:1003B0002C202433312062757A7A6572002432361B
:1003C00020582073746570732F6D6D2C2024323784
:1003D00020582064697220696E7665727400243238
:1003E000302D2432352058206D6F746F722F757345
:1003F0007465702F70697463682F6D61782F7261F6
:100400007069642F616363656C00243136205A2063
:1004100073746570732F6D6D2C20243137205A2032
:1004200064697220696E76657274002431302D24FF
:100430003135205A206D6F746F722F75737465702B
:100440002F70697463682F6D61782F7261706964B1
:100450002F616363656C0024322D24332073796E21
:10046000632066656564206D696E2F6D6178206D0F
:100470006D2F7265760024302D2431206173796EE2
:10048000632066656564206D696E2F6D6178206DEF
:100490006D2F6D696E002C454550524F4D5D005BD0
:1004A0004F50543A005B5645523A00000021002458
:1004B0000027002A002D0030003300010100000455
:1004C0000107010A0100000A0B02090C0D0E0807C2
:1004D0000304010000000000000000000000000014
:1004E000000000000000000000000000000000000C
:1004F00000121110000000000000000000000000C9
:100500000000000000000000000000010210202098
:100510000808102040102040800201020108040257
:1005200001010204081020408080402010080402CD
:100530000180040201804020100804020108040226
:10054000010102040810204080010204081020402C
:100550008000002200250028002B002E00310034EE
:100560000002010000050108010B01050505050752
:100570000508080808020202020A0A08080404041E
:10058000040101010101010101030303030303034A
:1005900003040707070C0C0C0C0C0C0C0C020202D9
:1005A0000206060606060606060B0B0B0B0B0B0BCC
:1005B0000B02FF5D11241FBECFEFD1E2DEBFCDBF26
:1005C00000E00CBF19E0A0E0B2E0E8E1F5ED00E0EA
:1005D0000BBF02C007900D92A63FB107D9F721E1EA
:1005E000A6EFB9E001C01D92A73EB207E1F712E005
:1005F000CAEDD2E000E006C021970109802FFE017C
:100600000E943563C93DD10780E00807A9F70E9421
:10061000884B0C948A6A0C940000811109C0609187
:10062000460F7091470F8091480F9091490F0895A0
:100630006091340F7091350F8091360F9091370F84
:100640000895AF92BF92CF92DF92EF92FF920F93F5
:100650001F93CF93DF936C017B018B01040F151F58
:10066000EB015E01AE18BF08C017D10759F06991C0
:10067000D601ED91FC910190F081E02DC601199514
:10068000892B79F7C501DF91CF911F910F91FF90D1
:10069000EF90DF90CF90BF90AF900895FC01538D05
:1006A000448D252F30E0842F90E0821B930B54174C
:1006B00010F0CF96089501970895FC01918D828DD9
:1006C000981761F0A28DAE0FBF2FB11D5D968C9172
:1006D000928D9F5F9F73928F90E008958FEF9FEFB1
:1006E0000895FC01918D828D981731F0828DE80F6D
:1006F000F11D858D90E008958FEF9FEF0895FC0127
:10070000918D228D892F90E0805C9F4F821B9109F3
:100710008F739927089585E69FE00E947F0321E06B
:10072000892B09F420E0822F0895FC01A48DA80FE5
:10073000B92FB11DA35ABF4F2C91848D90E0019623
:100740008F739927848FA689B7892C93A089B18943
:100750008C91837080648C93938D848D981306C0E4
:100760000288F389E02D80818F7D80830895EF9248
:10077000FF920F931F93CF93DF93EC0181E0888F5B
:100780009B8D8C8D98131AC0E889F989808185FF2B
:1007900015C09FB7F894EE89FF896083E889F989CD
:1007A00080818370806480839FBF81E090E0DF91CF
:1007B000CF911F910F91FF90EF900895F62E0B8D22
:1007C00010E00F5F1F4F0F731127E02E8C8D8E11DD
:1007D0000CC00FB607FCFACFE889F989808185FF44
:1007E000F5CFCE010E949503F1CFEB8DEC0FFD2FDD
:1007F000F11DE35AFF4FF0829FB7F8940B8FEA89FF
:10080000FB8980818062CFCFCF93DF93EC01888D0D
:100810008823B9F0AA89BB89E889F9898C9185FD7B
:1008200003C0808186FD0DC00FB607FCF7CF8C9109
:1008300085FFF2CF808185FFEDCFCE010E94950329
:10084000E9CFDF91CF91089580E090E0892B29F0E6
:100850000E948B0381110E94000080E090E0892BB0
:1008600049F080E090E0892B29F00E94000081117E
:100870000E94000080E090E0892B49F080E090E049
:10088000892B29F00E94000081110E94000080E065
:1008900090E0892B49F080E090E0892B29F00E94BC
:1008A000000081110C9400000895089590E080E00C
:1008B0000895809103018370823029F41092890A8F
:1008C0008091890A08958130D9F78093890AF8CFF9
:1008D0008091061090910710807299272091151031
:1008E00025FF08C0892B19F481E0809303028091D1
:1008F00003020895892BD9F310920302F8CF809157
:10090000421085FF04C082E08093880A06C080916F
:10091000331085FF05C01092880A8091880A0895D7
:100920008091241085FFF7CF81E0EECF8091BA103F
:1009300085FD1EC08091AB1085FD1CC080919C1070
:1009400085FD1AC080918D1085FD18C080917E10A4
:1009500085FD16C080916F1085FD14C080916010D8
:1009600085FD12C08091511085FD10C080E0089572
:1009700081E0089582E0089583E0089584E0089579
:1009800085E0089586E0089587E0089588E0089559
:1009900080E0E82FF0E0E35FF04F9081992341F091
:1009A00090539A3018F48093B90A08958F5FF1CF6D
:1009B0001092B90A08958091B90A90E0FC01E35FB2
:1009C000F04F208120532A30B0F0019748F0FC010D
:1009D000E35FF04F208120532A30B8F78093B90AA3
:1009E000E091B90AF0E0E35FF04F808180538A30F4
:1009F00010F00C94C8040895E9EFFEE08081918125
:100A000090932C0280932B028281938190932A02EF
:100A100080932902848195819093280280932702F4
:100A2000868197819093260280932502EFEDFEE068
:100A300083859485909324028093230285858093F7
:100A400022028685978590932102809320028089D7
:100A5000918990931F0280931E02828993899093BB
:100A60001D0280931C02848980931B0280819181E6
:100A700090931A02809319028281809318028381D5
:100A800094819093170280931602858196819093AA
:100A900015028093140287819085909313028093AE
:100AA000120281858093110285898093A00A828534
:100AB00080939F0A8689978990930202809301020E
:100AC0008091360280932D02A8EDBEE08C91809338
:100AD000100211968D919C91129790930F02809322
:100AE0000E0213968D919C91149790930D02809312
:100AF0000C0215968C91159790E090930B028093C1
:100B00000A0216968C9190E0909309028093080255
:100B1000808D918D90939E0A80939D0A8091D70E2F
:100B200080939C0A08958A3170F4E82FF0E0EE0F6C
:100B3000FF1FEF51FD4F0190F081E02D309719F02C
:100B40006083718308958550863160F4E82FF0E06A
:100B5000EE0FFF1FEB54FD4F0190F081E02D309719
:100B600009F060830895F8941092A50A1092A60ADD
:100B70001092A70A1092A80A1092A10A1092A20A33
:100B80001092A30A1092A40A789408950F931F93C9
:100B9000F8946091A50A7091A60A8091A70A909195
:100BA000A80A0091A10A1091A20A2091A30A3091EB
:100BB000A40A601B710B820B930B161617061806FE
:100BC0001906A4F40F5F1F4F2F4F3F4F0093A10A48
:100BD0001093A20A2093A30A3093A40A789461E0A8
:100BE00070E080E090E01F910F910895611571050C
:100BF0008105910589F001501109210931090093FE
:100C0000A10A1093A20A2093A30A3093A40A78940D
:100C10006FEF7FEFCB01E7CF7894E5CF0F931F9372
:100C2000F8946091A50A7091A60A8091A70A909104
:100C3000A80A78940091A10A1091A20A2091A30A0F
:100C40003091A40A601B710B820B930B1F910F91C3
:100C50000895E5E5F1E111828481958188279071FD
:100C600095838483E6E4F1E111828481958188276C
:100C7000907195838483E7E3F1E11182848195810A
:100C80008827907195838483E8E2F1E11182848161
:100C900095818827907195838483E9E1F1E1118240
:100CA00084819581882790719583848308958091AC
:100CB000910A81110FC08091920A81110BC080911D
:100CC000930A811107C081E09091940A911103C0A9
:100CD00080E0089581E008952FE0EBE8FAE0DC0180
:100CE00001900D922A95E1F7089548990EC049990F
:100CF0000EC08091550E9091560EA091570EB09156
:100D0000580E0196A11DB11D0DC04999F2CF8091D9
:100D1000550E9091560EA091570EB091580E019716
:100D2000A109B1098093550E9093560EA093570ECA
:100D3000B093580E0895ECE3F5E08491ECE9F5E00A
:100D4000E491F0E0EE0FFF1FEF5AFA4FA591B49136
:100D50009C91E82FE095E923EC930895ECE3F5E00E
:100D60008491ECE9F5E0E491F0E0EE0FFF1FEF5A1B
:100D7000FA4FA591B491EC91E82BEC930895EBE335
:100D8000F5E08491EBE9F5E0E491F0E0EE0FFF1F70
:100D9000EF5AFA4FA591B4919C91E82FE095E92381
:100DA000EC930895EBE3F5E08491EBE9F5E0E49151
:100DB000F0E0EE0FFF1FEF5AFA4FA591B491EC91BE
:100DC000E82BEC9308959091F40E992321F091E093
:100DD000811190E0892FE6E3F5E026E935E08823EC
:100DE00079F08491F9012491E22FF0E0EE0FFF1FDA
:100DF000EF5AFA4FA591B491EC91E82BEC9308953A
:100E00008491F9012491E22FF0E0EE0FFF1FEF5AD9
:100E1000FA4FA591B4919C91E82FE095E923EECF8C
:100E20009091E90E992321F091E0811190E0892FB2
:100E3000E7E3F5E027E935E0882379F08491F901CB
:100E40002491E22FF0E0EE0FFF1FEF5AFA4FA59129
:100E5000B491EC91E82BEC9308958491F9012491DD
:100E6000E22FF0E0EE0FFF1FEF5AFA4FA591B49179
:100E70009C91E82FE095E923EECFFC012FB7F89481
:100E800080917B0B90E0019666E070E00E94E0624A
:100E900090917C0B981779F0A0917B0B90E2A99F21
:100EA000D0011124A554B54F90E201900D929A956E
:100EB000E1F780937B0B2FBF08950F931F93CF9380
:100EC000C82F0E940D032091390E1216A4F424E0BD
:100ED000C29FF0011124E15EF14F00811181228156
:100EE00033810617170728073907B4F46083718325
:100EF0008283938311C0222379F024E0C29FF00102
:100F00001124E15EF14F008111812281338160174C
:100F100071078207930754F3CF911F910F910895A2
:100F2000EFE1FEE08091460F9091470FA091480FAE
:100F3000B091490F80839183A283B3838091340F52
:100F40009091350FA091360FB091370F8483958320
:100F5000A683B7830895CF92DF92EF92FF920F930B
:100F60001F936A017B018130B1F48091280F88239F
:100F700009F447C06091180F7091190F80911A0FF2
:100F800090911B0F20912A0F21111EC000E814E838
:100F90002EE130E021C080912B0F8823B9F16091C0
:100FA000240F7091250F8091260F9091270F20918B
:100FB000290F222359F300911C0F10911D0F20912E
:100FC0001E0F30911F0F08C00091200F1091210FAC
:100FD0002091220F3091230FC616D706E806F90696
:100FE0004CF0C701B601061717072807390714F494
:100FF000C901B8011F910F91FF90EF90DF90CF9042
:10100000089560E87BE781EE9FEFBCCF60E87BE767
:1010100081EE9FEFCCCF811109C06091010F7091DB
:10102000020F8091030F9091040F08956091070FB4
:101030007091080F8091090F90910A0F08950F93F6
:101040001F93CF93DF93CCE2DFE0811102C0CEE3A8
:10105000DFE00E940B08161617061806190674F032
:1010600081E0088519852A853B854C855D856E85DF
:101070007F85041715072607370709F080E0DF9101
:10108000CF911F910F9108958AE1EAE4F2E0AFED6C
:10109000BEE001900D928A95E1F70895FC018081F0
:1010A0009181C2978F399740F0F4828181508032CC
:1010B000D0F4838194810A978F3D9340A0F4858179
:1010C00096810A978F37934170F4878190850A97AC
:1010D0008730974240F481858150843120F481E04B
:1010E0009285923008F080E00895CF93DF93EC0171
:1010F0000E944E088823A1F0CE010B960E944E0854
:10110000882371F08E899F89845691098D3A964281
:1011100030F481E0288D398D213D374008F080E0A2
:10112000DF91CF910895CF93883008F080E0E82FC9
:10113000F0E0E55DFC4FC081C23008F0C0E024E083
:10114000C29FF0011124E750F14F42815381019079
:10115000F081E02DE417F50778F59A012F5F3F4FF6
:101160002E1B3F0BDB010E943D632AE0969587957D
:10117000779567952A95D1F79A01261B370BB90108
:10118000C1111CC04E1B5F0B4233510580F0CB01D7
:101190008E1B9F0B6AE070E00E94E062CB012AE0A8
:1011A000289FB001299F700D11246E0F7F1F90E0C2
:1011B00080E00E944C610CC0BF01E2CF90E080E073
:1011C0000E944C612AE037ED43E25CE30E94036237
:1011D000CF910895883008F080E0E82FF0E0E55DD9
:1011E000FC4F90819F3F31F060918B0E70918C0E7F
:1011F0000C94930860E070E0CB010895CF92DF92E9
:10120000EF92FF92CF93DF9380918A0E883008F09F
:1012100040C0823089F121E090E0813009F020E087
:10122000C22FD92F0E94EA086B017C01CD2BD9F087
:101230006091450E7091460E8091470E9091480E38
:101240006A3071058105910520F46CE370E080E05F
:1012500090E00E944C619B01AC01C701B6010E9465
:1012600003626B017C01C701B601DF91CF91FF9052
:10127000EF90DF90CF90089560918B0E70918C0E5F
:1012800080E0DF91CF91FF90EF90DF90CF900C94B2
:101290009308D0E0C0E0C6CFCF92DF92EF92FF92EA
:1012A0000F931F93CF93DF93811181E0C82FD0E07C
:1012B0006623E9F08BE08C9FF0018D9FF00D1124E7
:1012C000E152F14F6781708590E080E00E944C61AF
:1012D0008B01D82FC92FB8018D2F9C2FDF91CF9173
:1012E0001F910F91FF90EF90DF90CF9008950E9493
:1012F000FE086B017C0120E030E040E251E40E94F6
:101300009F6087FF06C0C12CD12C80E2E82E91E4BB
:10131000F92E8BE08C9FF0018D9FF00D1124E1528E
:10132000F14F6581768190E080E00E944C618B01F5
:10133000D82FC92F9B01482F592FB601C7010E94F2
:10134000FE61181644F28601DE2DCF2DC4CF46175C
:10135000570770F04115510559F0880F991F880FF4
:10136000991FFC01E750F14F7183608353834283DF
:101370000895E9EFFEE0A2E4B2E04D915D916D9138
:101380007C911397408351836283738314968D916C
:101390009D910D90BC91A02D84839583A683B783E6
:1013A0000895FC0182819381208131818217930706
:1013B00060F0892B51F0268137818481958128172F
:1013C000390718F081E0232B09F480E008954F924B
:1013D0005F926F927F928F929F92AF92BF92CF92C5
:1013E000DF92EF92FF920F931F93CF93DF93F82E2C
:1013F0008A01D62FC72F6091DE0E70E090E080E06A
:101400000E944C61762E872E982EA92E6091DD0EBB
:1014100070E090E080E00E944C61B62EC72ED82E7E
:10142000E92EEF2DF110E1E08BE0E89FF0011124AF
:10143000E152F14F6581768190E080E00E944C613D
:101440002B01682EF92E98014D2F5C2F672D782DDA
:10145000892D9A2D0E94FE61181624F4072D182D4F
:10146000D92DCA2D2B2D3C2D4D2D5E2DB8018D2F44
:101470009C2F0E94FE61181624F40B2D1C2DDD2DCF
:10148000CE2D20E030E040E85FE3B8018D2F9C2FA7
:101490000E949F6087FF04C000E010E0D0E8CFE327
:1014A0009201462D5F2DB8018D2F9C2F0E94FE6169
:1014B00018161CF48201D62DCF2DB8018D2F9C2F2C
:1014C000DF91CF911F910F91FF90EF90DF90CF9020
:1014D000BF90AF909F908F907F906F905F904F9054
:1014E000089587E0EBE3F2E0A8EDBEE001900D92F5
:1014F0008A95E1F70895FC0180818230B8F48181FA
:1015000092818938934190F4838194818938934101
:1015100068F425818BEF820F843C40F496818BEF39
:10152000890F843C18F481E0291708F480E00895BD
:101530008091DD0E853018F485E08093DD0E80917A
:10154000DD0E893C18F088EC8093DD0E8091DE0E74
:10155000853018F485E08093DE0E8091DE0E893CA4
:1015600018F088EC8093DE0E8091DD0E9091DE0EF7
:10157000891710F48093DE0E0895CF93DF93FC015A
:101580002481358133FF10C0EC010E941D4B2A815C
:101590003B81621B730B2E85F0E12F9F900111247C
:1015A00081E06217730708F480E0DF91CF9108951E
:1015B0001F93CF93DF93EC018C819D8180FD198275
:1015C0009C012F713327232B19F0807E9D838C8300
:1015D0008C819D8194FB112710F9162796FF04C07A
:1015E0009F7B9D838C8311E08C819D8191FD10C038
:1015F00011110BC0CE010E94BD0A182F8111C0C06D
:10160000812FDF91CF911F91089592609D838C83EC
:101610000E941D4BAB018A819B81FA01E81BF90BEB
:101620008C819D81112309F45DC085FD3EC02A8512
:1016300092FD06C0222321F094609D838C830BC011
:101640002E171F0619F010F0211107C082629D832A
:101650008C83598748875B834A838C819D818F71F6
:10166000992711E0892B31F28E819F81892B41F2DC
:101670008C819D8191708436910509F48AC008F0AF
:101680009AC08232910509F484C008F07BC0813091
:10169000910509F47EC0409709F47BC0CE010E94F9
:1016A000BD0A882309F4ACCF74C097FDD6CF86FD60
:1016B0000AC02C85A0E12A9F90011124E217F307AC
:1016C00060F28464BACF87FF0BC02D85A0E12A9F0A
:1016D000900111248868E217F30708F0AECFBDCF60
:1016E0002C85F4CF85FF12C02A852E171F0609F01E
:1016F00080F586FD03C029812F5F298397FD19821C
:101700008F7D806191609D838C8323C090FF0DC08D
:1017100097FD03C080619D838C838C819D819E7722
:101720009D838C835B834A8314C029812223F1F03B
:101730009C01207C3327232BA1F42B8540E1249F9F
:1017400090011124E217F30760F488859985892BAD
:1017500051F48C819D8192FF80CF9B7F9D838C83F0
:101760007CCF8160D0CF19861886F3CF91FFF1CF5F
:101770008F739D7F98609D838C8319861886D2CF46
:1017800010E072CF8134910521F08035910509F088
:1017900085CFEE81FF81309709F432CF1995CE01C4
:1017A0000E94BD0A882309F42BCF8C819D81977FED
:1017B0009D838C8325CF883E910559F338F4813C75
:1017C000910539F3803D910521F368CF8035A1E083
:1017D0009A07F9F2803D21E09207D9F280319140D9
:1017E00009F05CCFD6CF6EE270E08DE09FE00E9402
:1017F0003664009741F09C012D503F4081E090916C
:10180000B90A291708F080E00895E091B90AF0E0DC
:10181000E35FF04F808180538A3020F5E091160F0E
:1018200088E0E89FF0011124E55CFC4F8281938100
:101830000197D1F40E94F30B282F80E0211126C0DC
:10184000E82FF0E0E35FF04F9081992341F09E3262
:1018500031F090539A3008F42F5F8F5FF1CF81E021
:101860002230A0F480E0089520E090E0E22FF0E044
:10187000E35FF04F8081882331F080538A3008F491
:101880009F5F2F5FF3CF81E0923060F30895CF9395
:10189000DF930097A1F0FC012081222381F0EB016E
:1018A0000E94E05F61157105F1E08F07910538F442
:1018B0007983688381E090E0DF91CF91089590E093
:1018C00080E0FACF8F929F92AF92BF92EF92FF92F9
:1018D0000F931F93CF93DF93009709F467C0FC0128
:1018E0002081222309F462C08B01EC016EE270E0DA
:1018F0000E9436647C01892B71F4B801CE01DF911E
:10190000CF911F910F91FF90EF90BF90AF909F905C
:101910008F900C94470CCE010E94E05F4B015C015C
:10192000C70101960E94E05FF8EE8F16F3E09F0674
:10193000A104B104D8F597FD2BC06A30710581056B
:10194000910554F5F701218120532A3048F4228172
:10195000211106C0AAE0B0E09B01AC010E944C63DB
:1019600044E6489D9001499D300D1124620F731F7C
:10197000F8017183608381E090E0DF91CF911F9146
:101980000F91FF90EF90BF90AF909F908F90089530
:1019900060E070E0CB01D6CF64367105810591051A
:1019A000FCF263E670E080E090E0DACF90E080E067
:1019B000E4CF80E992E00C94D43E882319F08AE5C4
:1019C0000C943A3E88E5FCCFCF93DF93D82FC5E146
:1019D0008C9FC001112444E150E060E270E0815F1F
:1019E000954F0E942F64CD9FF0011124E15FF54FC8
:1019F000148ADF91CF910895EF92FF920F931F9376
:101A0000CF93DF93CDB7DEB7A0970FB6F894DEBFC4
:101A10000FBECDBFFE01339696E1DF011D929A9570
:101A2000E9F793E099838A836B83298F3A8F4B8FF1
:101A30005C8FED8EFE8E0F8F18A3CE0101960E9453
:101A40003D07A0960FB6F894DEBF0FBECDBFDF9165
:101A5000CF911F910F91FF90EF9008950C9437490B
:101A60009091340289130DC0E1EBF5E0E4919FEF12
:101A700090933402E230E1F038F4EE2381F0E1306B
:101A800089F060E00C94CA47E43049F110F1E53088
:101A9000C1F7909173009D7F90937300F2CF1092E5
:101AA0006E00EFCF90916F009D7F90936F00E9CF14
:101AB000909170009D7F9093700091E09093B000A2
:101AC0009091B100987F94609093B1001092B30010
:101AD000D8CF909171009D7F90937100D2CF90915B
:101AE00072009D7F90937200CCCFCF93DF93EC0177
:101AF00060E08E810E94CA4761E08E810E94CA47E1
:101B000060E08E810E94CA478BE891E00197F1F76F
:101B1000DF91CF910895CF93C82F61E00E9456487E
:101B200061E08C2FCF910C94CA47CF93C82F61E00E
:101B30000E94564860E08C2FCF910C94CA4762E017
:101B40000C9456488DE09FE0FC0101900020E9F7DD
:101B5000CF018E509F408830F0F441E0480F209133
:101B6000B90A30E02F5F3F4FE42FF0E02E173F0718
:101B700040F4E35FF04FDF0111975C9150834150D7
:101B8000F3CF235F304F40E3F90140839927FC01F5
:101B9000E35FF04F118208950E94853E20918B0EE5
:101BA00030918C0EA9014C5F5F4F481759072CF0FC
:101BB000245031098217930744F52091840AE22FBB
:101BC000F0E0EE0FFF1FEC59F54F4091850A509160
:101BD000860A60817181461B570B91838083840F35
:101BE000951F9093860A8093850A2F5F2F7020930C
:101BF000840A44E0969587954A95E1F790938C0E78
:101C000080938B0E81E08093870A08950F931F9332
:101C1000CF93DF93EB0109900020E9F72197C61BD2
:101C2000C53108F0C4E1D0E095E1899F800111241D
:101C3000015F154FAE01C8010E94146444E150E0F9
:101C40004C1B5D0B60E270E0C8018C0F9D1F0E9471
:101C50002F64F801148ADF91CF911F910F9108959D
:101C6000FF920F931F93CF93DF93CDB7DEB76597A6
:101C70000FB6F894DEBF0FBECDBF1091160F123015
:101C800008F44EC01150193108F018E1BE016F5F21
:101C90007F4F812F0E94943DBE016F5F7F4F80E098
:101CA0000E94060EFF24F394F10EBE016F5F7F4F7A
:101CB0008F2D0E94943DBE016F5F7F4F81E00E9497
:101CC000060E02E0010FBE016F5F7F4F802F0E9462
:101CD000943DBE016F5F7F4F82E00E94060E90919F
:101CE000170F913051F58091160F8117D9F0F81622
:101CF000D1F092E00817B9F08FEF80932E0261E3E4
:101D000074E083E00E94060E65960FB6F894DEBF7D
:101D10000FBECDBFDF91CF911F910F91FF9008951E
:101D200010E0B4CF90E08091B90A895F843120F748
:101D300090932E028093630AE2CF65E474E083E01F
:101D40000E94060E8FEF80932E02DECFCF92DF929D
:101D5000EF92FF920F931F93CF939091180E9111D2
:101D600055C0843008F052C0282F30E0F901E85DFA
:101D7000F04F9081992309F449C08D7FC1E009F0AB
:101D8000C0E0220F331F220F331FF901E85EF04F2E
:101D9000C080D180E280F3808C2F0E940D036C15EF
:101DA0007D058E059F0591F1C093100EC0920C0E1B
:101DB000D0920D0EE0920E0EF0920F0E81E0809305
:101DC000340E1092170E8093160E8BE0C89FF00110
:101DD0001124E152F14F6781708590E080E00E940C
:101DE0004C618B019C01B701A6018C2F0E94A84673
:101DF00080913502882351F09701860146EE57E025
:101E000068E574E08EE594E00E943047CF911F9121
:101E10000F91FF90EF90DF90CF9008951F93CF9395
:101E2000DF93CDB7DEB764970FB6F894DEBF0FBE71
:101E3000CDBF182FBE016F5F7F4F0E94E83F892BF7
:101E400089F084E20E943A3E612F70E090E080E0E9
:101E50004AE00E943F3E8DE30E943A3ECE01019649
:101E60000E94813D64960FB6F894DEBF0FBECDBFD1
:101E7000DF91CF911F910895CF93DF93C4E6D2E015
:101E800089910E940E0F82E0C138D807C9F7DF910F
:101E9000CF910895CF93DF93EC0183E992E00E9404
:101EA000B93ECE01DF91CF910C94813D1F93CF932A
:101EB000DF93EC01162F0E941C60181739F0612F78
:101EC000CE01DF91CF911F910C942460DF91CF91CF
:101ED0001F910895CF93C091360280910002C80FE0
:101EE000CB5565EA90E080E00E94560F60910002B9
:101EF00081E090E00E94560F6091360282E090E00F
:101F00000E94560F6C2F83E090E0CF910C94560FF7
:101F1000EF92FF921F93CF93DF938FEDE82E8EE029
:101F2000F82EF70115EC8191180F8EE0E93FF807C4
:101F3000D1F765EC80E290E00E94560FC1E2D0E05C
:101F4000F70161917F01CE010E94560F2196CB339C
:101F5000D105B1F7612F87E390E0DF91CF911F9119
:101F6000FF90EF900C94560FEF92FF921F93CF9338
:101F7000DF9389EFE82E8EE0F82EF70117EB8191C1
:101F8000180F8FE0E130F807D1F767EB80E190E0C0
:101F90000E94560FC1E1D0E0F70161917F01CE01AF
:101FA0000E94560F2196C931D105B1F7612F89E101
:101FB00090E0DF91CF911F91FF90EF900C94560F1E
:101FC000EF92FF921F93CF93DF9388EDE82E8EE080
:101FD000F82EF70112EB8191180F8EE0EF3DF80714
:101FE000D1F762EB88E390E00E94560FC9E3D0E09E
:101FF000F70161917F01CE010E94560F2196C034F6
:10200000D105B1F7612F80E490E0DF91CF911F916E
:10201000FF90EF900C94560F0C941C600F931F933D
:10202000CF93DF93062FC82FD0E0CE010E940C1073
:10203000182FCE0101960E940C10C82F802F90E01F
:102040000E940C10113D71F491ED9C0F89130AC090
:10205000C33040F4C093D70E81E0DF91CF911F9140
:102060000F91089580E0F9CF1F920F920FB60F9253
:1020700011240BB60F922F933F934F935F936F935F
:102080007F938F939F93AF93BF93EF93FF93809131
:102090009A0E90919B0EA0919C0EB0919D0E892B53
:1020A0008A2B8B2BE1F19091970EE091980EF09195
:1020B000990E80818927808380919A0E90919B0E42
:1020C000A0919C0EB0919D0E181619061A061B06BB
:1020D0009CF480919A0E90919B0EA0919C0EB091D1
:1020E0009D0E0197A109B10980939A0E90939B0EC2
:1020F000A0939C0EB0939D0EFF91EF91BF91AF9175
:102100009F918F917F916F915F914F913F912F910F
:102110000F900BBE0F900FBE0F901F9018958091DF
:1021200034020E94300DE8CFFB0101900020E9F756
:102130003197AF01461B570BDC01ED91FC910280FA
:10214000F381E02D19946115710511F00C94941030
:1021500090E080E008950F931F93CF938091D51066
:102160008D7F8093D51088600E94343E0FE01AE086
:10217000C0E0E091D810CE1790F1E150F0E0EB53C1
:10218000FF4E848980680E94343EB80185EC90E15E
:102190000E94A310CF5F0B5E1F4FC43051F7E09138
:1021A0002E02E430F0F48091630A9091D810E91780
:1021B00010F0EFEFE90FF0E0EB53FF4E9489890F39
:1021C00080680E94343E8091D510982F9260909341
:1021D000D5108A60CF911F910F910C94343EEC2F53
:1021E000CDCFCF911F910F9108952F923F924F9293
:1021F0005F926F927F928F929F92AF92BF92CF9297
:10220000DF92EF92FF920F931F93CF93DF93782E7D
:10221000622E84E0789EE0011124FE01E15EF14F20
:10222000208031804280538052014101840E951EEE
:10223000A61EB71E75016401211107C0B501A401D6
:10224000872D0E94AB076B017C01FE01E15EF14F1F
:10225000C082D182E282F382611008C08C149D0496
:10226000AE04BF0419F081E0F8018083C45DD14F52
:10227000B701A6014219530964097509888199813A
:10228000AA81BB81840F951FA61FB71F88839983DE
:10229000AA83BB832C143D044E045F0449F1809152
:1022A0003502882329F162E674E085E69FE00E940A
:1022B000A3108AE5711001C088E50E943A3E80E2D1
:1022C0000E943A3EC701B601DF91CF911F910F9155
:1022D000FF90EF90DF90CF90BF90AF909F908F9046
:1022E0007F906F905F904F903F902F900C949C4602
:1022F000DF91CF911F910F91FF90EF90DF90CF90E2
:10230000BF90AF909F908F907F906F905F904F9015
:102310003F902F900895AF92BF92CF92DF92EF92AD
:10232000FF920F931F93CF93DF93909135029923E0
:1023300009F449C0833009F446C067017801E90116
:102340008A015B0164E376E085E69FE00E94A310CA
:1023500066E774E085E69FE00E94A31062E376E002
:1023600085E69FE00E94A310B50185E69FE00E94EC
:10237000A31062E376E085E69FE00E94A310B80117
:1023800085E69FE00E94A3106EEF77E085E69FE070
:102390000E94A310BE0185E69FE00E94A31080E288
:1023A0000E943A3E4AE0C701B6010E943F3EDF91DB
:1023B000CF911F910F91FF90EF90DF90CF90BF9042
:1023C000AF900C947B3DDF91CF911F910F91FF90C7
:1023D000EF90DF90CF90BF90AF900895EF92FF9273
:1023E0000F931F93CF93DF93909135029923B1F10F
:1023F0008330A1F1E9018A017B0164E376E085E69F
:102400009FE00E94A31066E774E085E69FE00E94CB
:10241000A31062E376E085E69FE00E94A310B70177
:1024200085E69FE00E94A31062E376E085E69FE0E8
:102430000E94A310B80185E69FE00E94A3106EEFF2
:1024400077E085E69FE00E94A310CE01DF91CF9157
:102450001F910F91FF90EF900C94813DDF91CF91F0
:102460001F910F91FF90EF9008950F931F93CF93BB
:10247000DF93EC018B01FB01848195818075917064
:10248000409741F49E014BE754E06FE774E082E02F
:102490000E94EE11F801848182FF0CC09E0142E887
:1024A00054E06FE774E082E0DF91CF911F910F91CC
:1024B0000C94EE11DF91CF911F910F9108950F931E
:1024C0001F93CF93DF938C01EA01FC0184819581F6
:1024D00080759170409759F481E0FB0180839A01E7
:1024E0004BE754E06FE774E082E00E94EE11F801E0
:1024F000848182FF0CC09E0142E854E06FE774E0E3
:1025000082E0DF91CF911F910F910C94EE11DF913A
:10251000CF911F910F910895CF93C0918A0ACC2338
:10252000C9F08091CE0E811118C0C0919E0EC111CC
:1025300014C09091080E8091070E98130EC010924F
:102540008A0A27E834E041E954E064E974E082E073
:102550000E94EE118C2FCF910895C1E0FBCFAF9276
:10256000BF92CF92DF92EF92FF920F931F93CF9380
:10257000DF93CDB7DEB760970FB6F894DEBF0FBE1E
:10258000CDBF0E948C12882309F45DC066EA74E016
:1025900080E00E94060E40E150E060E270E084E5D9
:1025A0009FE00E942F6484E0EBEBF4E0A0E5BFE045
:1025B00001900D928A95E1F78091D70E813009F450
:1025C00040C08230E1F584E48093630F1092640F81
:1025D00080E59FE0892B59F084E1E0E5FFE0A4E28B
:1025E000BAE001900D928A95E1F71092380A82E0E4
:1025F0000E94E40C0E94E53C80E59FE0892B59F0A5
:1026000084E1E0E5FFE0AEE4BAE001900D928A9546
:10261000E1F71092620A8FEF80932E0260960FB658
:10262000F894DEBF0FBECDBFDF91CF911F910F9108
:10263000FF90EF90DF90CF90BF90AF90089583E52B
:10264000C3CF8DE4C1CF0091190ED0901A0E109116
:102650001B0E80918A0E883008F080E0E82FF0E0B1
:10266000E55DFC4F90819E012F5F3F4F59019F3FD9
:1026700009F0A7C060EC74E0C9010E94416431E038
:10268000D31609F4F1C082E0D81609F4F2C070EA5A
:10269000C72E74E0D72E8FEF800F34EAE32E34E09C
:1026A000F32E883050F4202F2150330BF901EE0F18
:1026B000FF1FE55EFC4FE080F18044E150E060E206
:1026C00070E080E59FE00E942F64F50101900020FA
:1026D000E9F7AF01415051094A195B0945315105EC
:1026E00010F044E150E084E190E0841B950B969556
:1026F0008795082FB501805B904F0E941464F70105
:1027000001900020E9F73197EE19FF09011101C08E
:1027100001E0402F50E0E417F50708F4AF01B701DE
:1027200080E59FE00E94146483E0F601A1E6BFE02B
:1027300001900D928A95E1F71092640F80E59FE079
:10274000009721F0BC0180E00E94060E112309F4DD
:1027500095C00AE5123008F093C024E0129FF00102
:102760001124E45DF14F1081F180E280D38044E1D7
:1027700050E060E270E086EF99E00E942F64DF9203
:10278000EF92FF921F931F920F9385ED94E09F931A
:102790008F931F9284E18F9386EF99E09F938F939D
:1027A0000E9457640FB6F894DEBF0FBECDBF97FFEF
:1027B0006CC090E080E08A50964F20E2FC012083BC
:1027C00067C0E2E0EE2EF12C823039F021E090E09B
:1027D000813009F020E0E22EF92E0E94EA08E1148F
:1027E000F104D9F420E030E040E05FE30E94336080
:1027F0000E941D617F936F9386EC94E09F938F936B
:102800001F9280E18F93BF92AF920E9457640FB6E0
:10281000F894DEBF0FBECDBF32CFEA94EF2809F0A7
:102820002ECF20E030E048EC52E40E94036220E02A
:1028300030E040E05FE30E9433600E941D61CB0105
:1028400064E670E00E94E0629F938F937F936F93A2
:102850008BEC94E09F938F931F9280E18F93BF92B4
:10286000AF920E945764D3CF68E9C62E64E0D62E9B
:1028700012CF5CE9C52E54E0D52E0DCF08E56DCF03
:1028800010E0F12CE12CD12C72CF843108F493CFDD
:102890008091D70E813069F0823049F484E48093CE
:1028A000090A10920A0A84E1E6EFF9E098CE83E57E
:1028B000F6CF8DE4F4CFEF92FF920F931F93CF9357
:1028C0000E946A0F90E080E00E940C10082F81E0C7
:1028D00090E00E940C10C82F82E090E00E940C1043
:1028E000182F83E090E00E940C10053A61F596EFF6
:1028F0009C0F9B3540F5123030F5C10FCB558C1332
:1029000022C0E0900002F12C10E000E021EE34E063
:1029100046EE54E06BEE74E082E00E948B11E09092
:102920003602F12C10E000E02FEE34E046EE54E0E9
:102930006BEE74E082E00E948B11CF911F910F919A
:10294000FF90EF90089524EF34E046EE54E06BEEF4
:1029500074E082E0CF911F910F91FF90EF900C9463
:10296000EE118FED9EE00E947508811102C00E9459
:1029700044080E94880F20E035E046E055E06BEE09
:1029800074E082E00C94EE1189EF9EE00E94D10980
:10299000811102C00E94B9090E94B40F20E035E005
:1029A0004BE055E06BEE74E082E00C94EE11CF93B7
:1029B0008091D70E833010F01092D70EC091D70EB1
:1029C000CF5261ED86E490E00E94560F6091D70EE1
:1029D00087E490E00E94560F6C2F88E490E00E94FC
:1029E000560F20E035E040E155E06BEE74E082E008
:1029F000CF910C94EE110E94980A88ED9EE00E94FF
:102A00007B0A811102C00E94710A0E94E00F20E03F
:102A100035E041E954E06BEE74E082E00C94EE1195
:102A20001F920F920FB60F9211240BB60F922F9395
:102A30003F934F935F936F937F938F939F93AF9346
:102A4000BF93EF93FF9385E69FE00E949503FF916C
:102A5000EF91BF91AF919F918F917F916F915F9116
:102A60004F913F912F910F900BBE0F900FBE0F9083
:102A70001F9018951F920F920FB60F9211240BB64C
:102A80000F922F938F939F93EF93FF93E091750F86
:102A9000F091760F8081E0917B0FF0917C0F82FDA9
:102AA0001DC0908180917E0F8F5F8F7320917F0F6B
:102AB000821741F0E0917E0FF0E0EB59F04F958FD7
:102AC00080937E0FFF91EF919F918F912F910F90A7
:102AD0000BBE0F900FBE0F901F9018958081F2CF04
:102AE000CF92DF92EF92FF920F931F93CF93DF93DA
:102AF0006C017C0187E0E80EF11CD0E0C0E0062FFD
:102B000010E0B8010C2E02C0759567950A94E2F7A3
:102B10006170F70181917F010E94CA472196C430FC
:102B2000D10579F7C601DF91CF911F910F91FF90E9
:102B3000EF90DF90CF900C94750DCF92DF92EF92D3
:102B4000FF920F931F93CF93DF93EC01F62E642F28
:102B50008C810E94CA478D818F3F19F060E00E94EE
:102B6000CA470F2D10E08F8584FF25C06E0187E0D6
:102B7000C80ED11CF12CE12CB8010E2C02C07595A9
:102B800067950A94E2F76170F60181916F010E94E6
:102B9000CA47FFEFEF1AFF0A88E0E816F10461F771
:102BA000CE01DF91CF911F910F91FF90EF90DF90B9
:102BB000CF900C94750DB80184E0759567958A9552
:102BC000E1F7CE010E9470156F2DCE01DF91CF91FC
:102BD0001F910F91FF90EF90DF90CF900C947015A4
:102BE00041E00E949D1581E090E008958A3170F4E3
:102BF000E82FF0E0EE0FFF1FEF51FD4F0190F08145
:102C0000E02D309719F080819181089585508631AB
:102C100070F4E82FF0E0EE0FFF1FEB54FD4F019032
:102C2000F081E02D309719F0808190E0089590E0D8
:102C300080E00895CF93C82F0E94F61528E0C29F28
:102C4000F0011124E55CFC4F2281338121303105F4
:102C5000F9F464E670E00E94E0629F938F937F93A3
:102C60006F938DEC94E09F938F931F9289E08F93E5
:102C70008DE09FE09F938F930E9457648DB79EB71E
:102C80000A960FB6F8949EBF0FBE8DBFCF910895E0
:102C900023303105C1F49F938F9389EC97E09F9384
:102CA0008F931F9289E08F938DE09FE09F938F9386
:102CB0000E9457648DB79EB708960FB6F8949EBFD2
:102CC0000FBE8DBFE3CF9F938F9389EC97E09F93C7
:102CD0008F931F9289E08F938DE09FE09F938F9356
:102CE0000E9457648DB79EB708960FB6F8949EBFA2
:102CF0000FBE8DBFCBCFCF92DF92EF92FF920F939B
:102D00001F93CF93DF9300D000D01F921F92CDB7B7
:102D1000DEB7D82E1091160F48E0149FF001112451
:102D2000E55CFC4F8281938182309105C9F5812F4A
:102D30000E94F615813009F418C1823009F422C1CD
:102D4000843009F421C1883009F420C1803109F4AC
:102D50001FC1803209F400C15FEFE6E0D51609F427
:102D60000FC1F0E0EB5EFC4F608170E0812F0E94AC
:102D700093058091160F0E941A160E94C804289687
:102D80000FB6F894DEBF0FBECDBFDF91CF911F917C
:102D90000F91FF90EF90DF90CF900895EF5FE1CF1C
:102DA0008330910551F4812F0E94F61561E070E0A7
:102DB000892BE1F270E060E0D9CFC090B90A2C2DE8
:102DC00030E0F901E35FF04F7F01108120ED210F2A
:102DD0002A30A8F6019709F094C00E94F30B082F3F
:102DE000F1E0882381F0DF1208C0193311F01F5F72
:102DF00001C010E3F7011083C2CF103311F011505E
:102E0000F9CF19E3F7CFDF1237C0193389F580E323
:102E1000F70180830E94A20D6EE270E08DE09FE0DA
:102E20000E943664009709F48DC0FC01318120EDC9
:102E3000230F2A3008F030E3FC01228140ED420FDD
:102E40004A3008F020E3EDE0FFE0E817F90758F515
:102E5000073070F5419150ED540F5A30B0F7A1E0B2
:102E6000B0E0AC0FBD1FA00FB11D4C930F5FEDCFB5
:102E70001F5FF7011083D0CF103399F40E94050C27
:102E8000882309F47CCFEC2DF0E0E35FF04F8081E4
:102E9000882321F081818083C394F5CF0E94DB04D5
:102EA000BBCF1150E6CF011103C080E3898301E05D
:102EB000CE010196FC01E00FF11D1082422F022E7F
:102EC000000C550B5F932F93432F032E000C550BD3
:102ED0005F933F939F938F9384E195E09F938F93AC
:102EE0001F9289E08F938DE09FE09F938F930E94C4
:102EF00057640E94DB040FB6F894DEBF0FBECDBF4F
:102F00003ECF51E0D51208C0193309F070CF80E3ED
:102F100080830E94A20D33CF103309F070CF0E943E
:102F2000050C882309F42BCFEC2DF0E0E35FF04F84
:102F30008081882321F081818083C394F5CF0E9412
:102F4000DB041DCF8DE09FE0FC0101900020E9F73C
:102F5000CF01019730E376CFF1E0DF1621F05FEF8C
:102F6000E5E0D51669F0E5E0FCCEE0E041E0D416FE
:102F700009F414CF8FEFD812F4CEEE2309F4F1CE7A
:102F8000E150EFCEE1E0F2CFE2E0F0CFE3E0EECFD0
:102F9000E4E0ECCFEEE9FEE010821282AEE3BFE0A7
:102FA00051961C925197ECE2FFE0118A14961D9203
:102FB0001D921D921C9217971482158216821782F9
:102FC00008951092070E1092080E1092CE0E1092D5
:102FD0008A0A0C94CA17EF92FF920F931F93809165
:102FE000090E90910A0E049709F46FC084E090E0F6
:102FF00090930A0E8093090E0E94E1178091010FB1
:103000009091020FA091030FB091040F18161906AA
:103010001A061B066CF08091070F9091080FA09183
:10302000090FB0910A0F181619061A061B06ECF4C0
:10303000E090010FF090020F0091030F1091040F28
:103040008091070F9091080FA091090FB0910A0F7E
:10305000E80EF91E0A1F1B1F2CE135E041E954E080
:1030600064E974E082E00E948B111092010F1092CB
:10307000020F1092030F1092040F1092070F10927C
:10308000080F1092090F10920A0F8091460F90912D
:10309000470FA091480FB091490F80934A0F90932A
:1030A0004B0FA0934C0FB0934D0F8091340F909124
:1030B000350FA091360FB091370F8093380F909352
:1030C000390FA0933A0FB0933B0F1F910F91FF90D0
:1030D000EF9008956091090E70910A0EE1E8F2E018
:1030E00049EA52E0208131816217730719F02530D7
:1030F000310529F4228133818217930731F0359607
:103100004E175F0779F70C94EB1790930A0E809394
:10311000090E0895883020F5E82FF0E08827EC5656
:10312000F74E8F4F0C9435639C18BB18D018E518D8
:10313000F218F618F9180B1962E275E080E00E94A7
:10314000060E6DE275E081E00E94060E61E375E017
:1031500082E00E94060E6BE375E083E00E94060E9B
:103160008091090E90910A0E892B09F074C081E0BC
:1031700090E00C946A1881E08093400E63E275E061
:1031800080E00E94060E61E475E081E00E94060E78
:103190006FE475E082E00E94060E66E575E0DDCF23
:1031A00081E080933F0E6CE575E080E00E94060EA2
:1031B00068E675E081E00E94060E6FE475E082E04B
:1031C0000E94060E65E775E0C8CF62E875E080E012
:1031D0000E94060E6AE875E081E00E94060E64E92E
:1031E00075E0D8CF6FE975E080E0B8CF64EA75E0AC
:1031F000FBCF6BEA75E080E00E94060E63EB75E0A2
:1032000081E00E94060E6DEB75E082E00E94060EE2
:1032100068EC75E0A2CF81E080933E0E10923D0EE7
:1032200010923C0E63ED75E080E00E94060E6EED9C
:1032300075E081E00E94060E6DEE75E082E00E946E
:10324000060E66E575E083E00E94060E81E090E0E0
:103250000E946A1885CF08958F929F92AF92BF9275
:10326000CF92DF92EF92FF92CF93C0919E0ECC232C
:1032700021F00E94CA171092CE0E8090460F9090B7
:10328000470FA090480FB090490F80924A0F90923C
:103290004B0FA0924C0FB0924D0FC090340FD090B6
:1032A000350FE090360FF090370FC092380FD09264
:1032B000390FE0923A0FF0923B0FCC2309F1809145
:1032C00035028823E9F067EF75E085E69FE00E940C
:1032D000A310C501B4010E94E03E61E176E085E6FD
:1032E0009FE00E94A310C701B601CF91FF90EF901D
:1032F000DF90CF90BF90AF909F908F900C949C46A2
:10330000CF91FF90EF90DF90CF90BF90AF909F90C4
:103310008F900895CF938091340E8823B9F0109246
:10332000340E1092170E1092160E0E94CA17C091FA
:10333000100E8C2F0E940D03ECE2FFE0C11102C0C1
:10334000EEE3FFE06487758786879787CF910895BE
:1033500080919E0E882329F081E09091A00E91111A
:1033600001C080E008958F929F92AF92BF92EF923A
:10337000FF920F931F93CF9349015A016115710575
:103380008105910561F1C1E01616170618061906A8
:103390000CF0C0E020914E0F2C17C1F02091460F89
:1033A0003091470F4091480F5091490F79018A01A0
:1033B000E60EF71E081F191F16161706180619061F
:1033C0000CF447C06FEF80E00E94FC0C6C2F80E093
:1033D0000E943743C0934E0F8C2F0E941007811418
:1033E0009104A104B104B9F1C1E0181419041A043C
:1033F0001B040CF0C0E080913C0F8C17C1F02091B1
:10340000340F3091350F4091360F5091370F8501B1
:103410007401E20EF31E041F151F6FEF1814190438
:103420001A041B040CF461E081E00E94FC0C6C2F78
:1034300081E00E943743C0933C0F8C2FCF911F91A6
:103440000F91FF90EF90BF90AF909F908F900C9452
:10345000E30661E0B8CFCF911F910F91FF90EF90FD
:10346000BF90AF909F908F900895CF92DF92EF9290
:10347000FF920F931F93CF93DF938A01D62FC72F0D
:10348000811181E09BE0899FF0011124E152F14F0D
:103490006581768190E080E00E944C616B017C0147
:1034A00020E030E040E85FE3B8018D2F9C2F0E94C0
:1034B0009F6087FF04C000E010E0D0E8CFE39601F2
:1034C000A701B8018D2F9C2F0E94FE6118161CF4D5
:1034D0008601DE2DCF2DB8018D2F9C2FDF91CF914E
:1034E0001F910F91FF90EF90DF90CF900895CF93B1
:1034F000CFB7F8949091950B9F5F93707091960B56
:103500007917F9F0A091950BE6E0EA9FD00111241C
:10351000A358B44F8C93A091950BEA9FD00111242E
:10352000A358B44F11966C938091950BE89FF001CE
:103530001124E358F44F22833383448355839093BB
:10354000950BCFBFCF9108951F920F920FB60F9298
:1035500011240BB60F922F933F934F935F936F936A
:103560007F938F939F93AF93BF93EF93FF930E94AB
:10357000AB10FF91EF91BF91AF919F918F917F9190
:103580006F915F914F913F912F910F900BBE0F90D4
:103590000FBE0F901F9018951F920F920FB60F92AB
:1035A00011240BB60F922F933F934F935F936F931A
:1035B0007F938F939F93AF93BF93EF93FF930E945B
:1035C000CC0DFF91EF91BF91AF919F918F917F9122
:1035D0006F915F914F913F912F910F900BBE0F9084
:1035E0000FBE0F901F9018951F920F920FB60F925B
:1035F0001124A8950F900FBE0F901F9018951F9241
:103600000F920FB60F9211240BB60F922F933F9388
:103610004F935F936F937F938F939F93AF93BF93DA
:10362000EF93FF930E9475068091550E9091560E70
:10363000A091570EB091580EFF91EF91BF91AF91AD
:103640009F918F917F916F915F914F913F912F91BA
:103650000F900BBE0F900FBE0F901F90189590E02B
:10366000FC01E559FA4FE491EE2389F0F0E0EE0F0A
:10367000FF1FEE54FD4FA591B4912C91855F9A4F99
:10368000FC018491282381E019F480E0089581E011
:1036900008958EE10E942F1B61E0811101C060E05E
:1036A00086EB90E10E94D80A8FE10E942F1B61E017
:1036B000811101C060E087EA90E10E94D80A80E2AF
:1036C0000E942F1B61E0811101C060E088E990E158
:1036D0000E94D80A81E20E942F1B61E0811101C083
:1036E00060E089E890E10E94D80A82E20E942F1BE4
:1036F00061E0811101C060E08AE790E10E94D80A90
:1037000083E20E942F1B61E0811101C060E08BE623
:1037100090E10E94D80A84E20E942F1B61E081118F
:1037200001C060E08CE590E10E94D80A85E20E9429
:103730002F1B61E0811101C060E08DE490E10E94E7
:10374000D80A6091060165FB662760F98EE390E177
:103750000E94D80A6091060166FB662760F98FE235
:1037600090E10E94D80A60910601661F6627661FD5
:1037700080E290E10E94D80A6CB16295617081E1AB
:1037800090E10E94D80A6CB165FB662760F982E07F
:1037900090E10C94D80A4F925F926F927F92AF9211
:1037A000BF92CF92DF92EF92FF920F931F93CF932E
:1037B000DF937C01142FFB018481958182FF96C1E8
:1037C000970142E854E06FE774E082E00E94EE1156
:1037D00011116EC28091060190915A1192959170CB
:1037E0008170DFEF98130EC08091060190914B110C
:1037F0009295917086958170D1E0981303C0C0E0D6
:10380000D0E001C0C1E08091060190913C119295F9
:10381000917082FB882780F9981350C2809106012D
:1038200090912D119295917083FB882780F99813C0
:1038300049C2CC2351F1DD2349F1D13009F06DC0EB
:1038400001E0C13009F402E0C02ED12CC601885D30
:10385000904F5C01FC0180818823B9F08C2F0E947D
:103860000D03CC0CDD1CCC0CDD1CF601E85EF04F2A
:103870004080518062807380D13009F054C064155B
:103880007505860597050CF456C0C1E08C2F0E9483
:103890000D032091340E222351F02091100EC213FB
:1038A00006C01092340E1092170E1092160EC130F0
:1038B00009F49CC02091290F2223A1F0C0901C0F75
:1038C000D0901D0FE0901E0FF0901F0FC61AD70A60
:1038D000E80AF90AC0921C0FD0921D0FE0921E0F49
:1038E000F0921F0F20912B0F2223A1F0C090240FE4
:1038F000D090250FE090260FF090270FC61AD70A18
:10390000E80AF90AC092240FD092250FE092260F00
:10391000F092270FEEE3FFE09BC003E0C13009F017
:1039200093CF00E091CFDF3F31F44616570668068B
:1039300079060CF0AACF970144E156E06FE774E0F6
:1039400082E00E94EE118091180E811140C0F501B5
:1039500080818823E1F1C1E000FDC0E0F601E85E6E
:10396000F04FC080D180E280F3808C2F0E940D0345
:103970006C157D058E059F0551F1C093100EC09208
:103980000C0ED0920D0EE0920E0EF0920F0E81E012
:103990008093340E8093170E1092160E60E08C2FD9
:1039A0000E944C098B019C01B701A6018C2F0E943B
:1039B000A84680913502882351F09701860146EE92
:1039C00057E064E176E08EE594E00E943047DF91B5
:1039D000CF911F910F91FF90EF90DF90CF90BF900C
:1039E000AF907F906F905F904F9008952091280F37
:1039F0002223A1F0C090180FD090190FE0901A0F59
:103A0000F0901B0FC61AD70AE80AF90AC092180FDD
:103A1000D092190FE0921A0FF0921B0F20912A0FEB
:103A20002223A1F0C090200FD090210FE090220F10
:103A3000F090230FC61AD70AE80AF90AC092200F9D
:103A4000D092210FE092220FF092230FECE2FFE0E0
:103A5000108611861286138614861586168617869A
:103A6000EC2FF0E0EE0FFF1FEE0FFF1FE45DF14FB4
:103A700010821182128213820E94B3058C2F0E9441
:103A80009B3EE12FF0E0EE0FFF1FE755FD4F208139
:103A900031814AE156E06FE774E082E00E94EE1166
:103AA00080913602882309F492CF0E9437496DE253
:103AB00070E080E090E00E94EB4A80E10E94300DCF
:103AC00060E570E080E090E00E94EB4ADF91CF91EA
:103AD0001F910F91FF90EF90DF90CF90BF90AF902C
:103AE0007F906F905F904F900C94374980759170E4
:103AF000409709F06CCF0E94284797018823C1F0B6
:103B000048E554E06FE774E082E00E94EE11812FF7
:103B1000DF91CF911F910F91FF90EF90DF90CF90A9
:103B2000BF90AF907F906F905F904F900C94A60ED7
:103B30004BE754E06FE774E082E00E94EE11C12F82
:103B4000D0E0FE01E85DF04F8081882329F11082EA
:103B5000CF54DD4F61E088810E94CA472FE136E0F3
:103B60004AE554E06FE774E082E00E94EE11809134
:103B70003602882309F42BCFDF91CF911F910F914B
:103B8000FF90EF90DF90CF90BF90AF907F906F90BD
:103B90005F904F900C942E0D812F8D7FF1F4C0908B
:103BA000340FD090350FE090360FF090370F11237F
:103BB00089F11230D1F48091280F8823E9F18091A6
:103BC000180F9091190FA0911A0FB0911B0F8C151F
:103BD0009D05AE05BF0584F1FACEC090460FD0908A
:103BE000470FE090480FF090490F113009F04CC09A
:103BF00080912B0F882301F18091240F9091250F44
:103C0000A091260FB091270F8C159D05AE05BF051D
:103C10009CF0DDCE80912A0F882371F08091200FD7
:103C20009091210FA091220FB091230FC816D906B1
:103C3000EA06FB060CF0CBCE81E08083FE01EE0F9E
:103C4000FF1FEE0FFF1FE85EF04FC082D182E282BD
:103C5000F38260E0FE01EF54FD4F80810E94CA476D
:103C600080913502882309F482CFCC0FDD1FC75520
:103C7000DD4F48815981970186016AE574E08FE73D
:103C800094E00E94304773CF1330B1F68091290F32
:103C9000882391F280911C0F90911D0FA0911E0F0F
:103CA000B0911F0FC816D906EA06FB062CF28FCE7C
:103CB000C1E0123009F4EACDC0E0E8CDD1E0C11195
:103CC000E5CDBBCDDFEFFBCF1F920F920FB60F926A
:103CD00011248F939F93AF93BF934A991EC04B9922
:103CE00013C08091A50A9091A60AA091A70AB0914D
:103CF000A80A0197A109B1098093A50A9093A60A81
:103D0000A093A70AB093A80ABF91AF919F918F91FA
:103D10000F900FBE0F901F9018954B99F5CF809183
:103D2000A50A9091A60AA091A70AB091A80A0196A7
:103D3000A11DB11DE1CF1F920F920FB60F9211245A
:103D40000BB60F922F933F934F935F936F937F9395
:103D50008F939F93AF93BF93EF93FF930E9475064A
:103D6000FF91EF91BF91AF919F918F917F916F9153
:103D70005F914F913F912F910F900BBE0F900FBE0F
:103D80000F901F901895CF92DF92EF92FF92CF93F2
:103D9000DF93811181E09BE0899FE0011124C152F2
:103DA000D14F6881798190E080E00E944C616B0185
:103DB0007C016A8170E090E080E00E944C619B0190
:103DC000AC01C701B6010E9403626B017C016B81EB
:103DD0007C8190E080E00E944C612AE037ED43E274
:103DE0005CE30E9403629B01AC01C701B6010E9423
:103DF000A460DF91CF91FF90EF90DF90CF90089576
:103E00004F925F926F927F928F929F92AF92BF92EA
:103E1000CF92DF92EF92FF920F931F93CF93DF9396
:103E2000CDB7DEB72C970FB6F894DEBF0FBECDBF6F
:103E300090919E0E992309F4A3C09091A00E99230E
:103E400009F48DC04091CA0E5091CB0E6091CC0EFA
:103E50007091CD0EA090C60EB090C70EC090C80E47
:103E6000D090C90EA986BA86CB86DC86A416B50684
:103E7000C606D70620F449875A876B877C87C98492
:103E8000DA84EB84FC84CD28CE28CF2841F4E12CC1
:103E9000F12C8701E394E986FA860B871C878090D2
:103EA000B20E9090B30EA090B40EB090B50E04E098
:103EB000809FF0011124EA53F14FC080D180E2804D
:103EC000F3800E94C31E2B013C0120E030E040E85B
:103ED0005FE30E949F6087FD53C0C501B401A70145
:103EE00096010E945F63C984DA84EB84FC845601E6
:103EF0006701E12CF12C8701A982BA82CB82DC8296
:103F0000ED82FE820F831887E12CF12C00E010E097
:103F10000E948C63B901CA010E944C6120E030E02C
:103F200040E752E40E940362A30192010E94A46050
:103F30002C960FB6F894DEBF0FBECDBFDF91CF91A8
:103F40001F910F91FF90EF90DF90CF90BF90AF90B7
:103F50009F908F907F906F905F904F900895A0906A
:103F6000A20EB090A30EC090A40ED090A50EA9866C
:103F7000BA86CB86DC86AB28AC28AD2809F08FCF7B
:103F800060E070E0CB01D4CFCF92DF92EF92FF924E
:103F9000CF93C82F0E94C31E6B017C018BE0C89F8A
:103FA000F0011124E152F14F618570E090E080E072
:103FB0000E944C6120E030E048E452E40E94036239
:103FC000A70196010E94036220E030E040E05FE339
:103FD0000E9433600E941D61611571058105910584
:103FE00021F461E070E080E090E0CF91FF90EF90ED
:103FF000DF90CF9008952F923F924F925F926F92F1
:104000007F928F929F92AF92BF92CF92DF92EF9268
:10401000FF920F931F93CF93DF93CDB7DEB72F9708
:104020000FB6F894DEBF0FBECDBF2091080E2F87CC
:104030001091070E211709F4C9C18091460F909184
:10404000470FA091480FB091490F8D839E83AF8396
:10405000B8872091340F3091350F4091360F509131
:10406000370F29873A874B875C873F85232E312C72
:1040700047E2429DC001439D900D1124DC01A956E9
:10408000B44F7D0196968C9196978823A1F19296D4
:104090008C91929780FF69C094966D917C9190E08D
:1040A00080E00E944C61F701648F758F868F978F37
:1040B00010A211A237E2329DF001339DF00D1124C0
:1040C000E956F44F82A180FD10C080859185A285BC
:1040D000B3858D839E83AF83B887248535854685D8
:1040E000578529873A874B875C873F853F5F3F70BD
:1040F0003F871313BACF115F1F7019834091080EC9
:104100004D8319861D86312C212C5981052F10E0F5
:1041100087E2809FF001819FF00D1124E956F44F52
:1041200086A1882309F452C189859D85A32DB22DCE
:10413000808F918FA28FB38F82A180FFA7C0148A36
:10414000158A168A178A108E118E128E138E198672
:104150001D86312C212C4D815981451709F436C11A
:10416000852F815F8F708983D0CF18964D905D9099
:104170006D907C901B972D813E814F815885421A0E
:10418000530A640A750A1C968D909D90AD90BC9060
:104190001F9789859A85AB85BC85881A990AAA0AD2
:1041A000BB0A7301620177FE07C0CC24DD247601CF
:1041B000C418D508E608F70889829A82AB82BC82C7
:1041C000B7FE0BC022273327A901281939094A094C
:1041D0005B0929833A834B835C8337E2329DC001BC
:1041E000339D900D1124AC014956544F5E874D8785
:1041F000B601C70129813A814B815C81C216D30681
:10420000E406F50620F469817A818B819C810E9405
:104210004C61AD85BE855C966D937D938D939C932B
:104220005F97B7E2B29DF001B39DF00D1124E956FE
:10423000F44F81E014141504160417040CF080E008
:1042400080A327E2229DF001239DF00D1124E95661
:10425000F44F81E0181419041A041B040CF080E0D8
:1042600081A337E2329DF001339DF00D1124E95610
:10427000F44F81E029813A814B815C81C216D306DB
:10428000E406F50608F080E083A314CFF3A0448C85
:10429000558C668C778C8F2D0E94C31E4B015C0160
:1042A000EF2DF110E1E09BE09E9FF0011124E1521F
:1042B000F14F618570E090E080E00E944C6120E069
:1042C00030E048E452E40E9403626B017C0120E08C
:1042D00030E0A901C501B4010E94FE6118160CF07E
:1042E00071C0A5019401C301B2010E94A4604B01F9
:1042F0005C0120E030E040E752E469857D85832D54
:10430000922D0E94A4602B013C01A7019601C701D8
:10431000B6010E943360A50194010E9403626B0103
:104320007C01A3019201C301B2010E9403629B01BF
:10433000AC01C701B6010E9433606B017C0120E033
:1043400030E0A9010E949F6087FF03C0C12CD12CDF
:104350007601C701B6010E94766220E030E040E7B6
:1043600052E40E9403626B017C01A7E2A09FF0016E
:10437000A19FF00D1124E956F44FB089B987218926
:104380002D87328823889B01AC016B2F7D85832D7F
:10439000922D0E949F6087FD04C0C986DD863E2C59
:1043A0002F2C37E2309FF001319FF00D1124E95698
:1043B000F44F89859D85A32DB22D848B958BA68B7B
:1043C000B78BC9CE812C912C540193CF2F960FB669
:1043D000F894DEBF0FBECDBFDF91CF911F910F913B
:1043E000FF90EF90DF90CF90BF90AF909F908F9015
:1043F0007F906F905F904F903F902F9008952F92F5
:104400003F924F925F926F927F928F929F92AF9264
:10441000BF92CF92DF92EF92FF920F931F93CF93B1
:10442000DF93CDB7DEB72E970FB6F894DEBF0FBE81
:10443000CDBF811146C04090CF0E5090D00E6090FD
:10444000D10E7090D20E14141504160417040CF03B
:1044500080C12FB6F8948090460F9090470FA0909F
:10446000480FB090490FC090340FD090350FE090B6
:10447000360FF090370F2091070E2983122F1F5F00
:104480001F700091080E101325C02FBE8FEF9FEFF5
:104490002E960FB6F894DEBF0FBECDBFDF91CF9141
:1044A0001F910F91FF90EF90DF90CF90BF90AF9052
:1044B0009F908F907F906F905F904F903F902F9044
:1044C00008954090D30E5090D40E6090D50E709009
:1044D000D60EB9CF49875A876B877C878D838981B0
:1044E000A7E28A9FC00111248956944F9E878D8729
:1044F00033243394DC0196963C92B501A40180E00C
:104500000E94AB074B015C01ED85FE85808691869C
:10451000A286B386B701A60181E00E94AB076B01BA
:104520007C01AD85BE851C96CD92DD92ED92FC920C
:104530001F9780E00E94C31E69837A838B839C83CC
:10454000C501B4010E944E6129813A814B815C8191
:104550000E94A460ED85FE856083718382839383CE
:1045600081E00E94C31E4B015C01C701B6010E949D
:104570004E61A50194010E94A460AD85BE8514968C
:104580006D937D938D939C93179789859A85AB85C1
:10459000BC85ED85FE85808B918BA28BB38BDF0173
:1045A000148A158A168A178A108E118E128E138E0F
:1045B000148E158E168E178E10A211A232A2ED81C6
:1045C0009396EC93939795965C924E929497109352
:1045D000070E0E94FB1F312E301A101728F4612F8E
:1045E000601B80E1382E360E80913502882309F455
:1045F000AFC0115F1F7027E2129FF0011124E9562E
:10460000F44F02A10170808D918DA28DB38D8983AD
:104610009A83AB83BC8384899589A689B7898D8366
:104620009E83AF83B88780899189A289B38989875E
:104630009A87AB87BC8784809580A680B7804080AE
:10464000518062807380C48CD58CE68CF78C13A16A
:1046500067E276E085E69FE00E94A31001117CC02E
:10466000A3E2B6E0BE87AD87C701B6010E941D6117
:104670006B017C016D857E8585E69FE00E94A3101D
:104680006EEF77E085E69FE00E94A310002309F417
:1046900068C08AE5111101C088E50E943A3E66E3D0
:1046A00076E085E69FE00E94A3104AE0C701B601CC
:1046B0000E943F3E60E476E085E69FE00E94A31002
:1046C00020E030E040E05FE369857A858B859C855A
:1046D0000E9433600E941661CB010E940A3F63E48E
:1046E00076E085E69FE00E94A31020E030E040E005
:1046F0005FE36D817E818F8198850E9433600E9487
:104700001661CB010E940A3F68E476E085E69FE0EF
:104710000E94A31020E030E040E05FE369817A81ED
:104720008B819C810E9433600E941661CB010E94A4
:104730000A3F6EE476E085E69FE00E94A310632DB9
:1047400070E090E080E04AE00E943F3E0E947B3DA6
:104750002FBE90E080E09CCEE1E9F4E0FE87ED879B
:1047600083CF63E679E085E69FE00E94A31043E0F3
:10477000C301B2010E94103F61E176E085E69FE04F
:104780000E94A31043E0C501B4010E94103F6BE3F7
:1047900076E087CFCF92DF92EF92FF920F93CF9385
:1047A0006A017B01C22F811126C00E94C31E0E9494
:1047B00016612AE030E040E050E0011122C0C13033
:1047C000E1F0F7FE04C0CC24CA94DC2C7601A701EA
:1047D0009601121613061406150624F421E030E0A3
:1047E00040E050E0CA01B901CF910F91FF90EF90E6
:1047F000DF90CF90089581E0D8CF24E630E040E00C
:1048000050E00E941663121613061406150624F0D3
:1048100021E030E040E050E01C141D041E041F04A1
:104820000CF350954095309521953F4F4F4F5F4F7A
:10483000D9CF3F924F925F926F927F928F929F92C9
:10484000AF92BF92CF92DF92EF92FF920F931F939E
:10485000CF93DF93CDB7DEB72E970FB6F894DEBFB8
:104860000FBECDBF8D874B015A01122F4090460FCE
:104870005090470F6090480F7090490F2091340F6F
:104880003091350F4091360F5091370F2D833E8375
:104890004F8358870E945D073D8531117BC0809111
:1048A000460F9091470FA091480FB091490F89830F
:1048B0009A83AB83BC834D8534E0439FF001112480
:1048C000E15EF14FC080D180E280F380D701C60164
:1048D00029813A814B815C81821B930BA40BB50B20
:1048E00089879A87AB87BC873324339418161906B7
:1048F0001A061B0664F081E029853A854B855C85A4
:10490000232B242B252B09F480E0382E31940E9490
:10491000A819D501BC91BE87811139C03320B9F1E6
:104920000B2FF4012081432D032C000C550B660B3B
:10493000770B8D850E94CA2397FF07C090958095BD
:10494000709561957F4F8F4F9F4F4B015C0132E017
:10495000880C991CAA1CBB1C3A95D1F7F1E03F12B8
:1049600026C029853A854B855C85281539054A0579
:104970005B056CF489819A81AB81BC81880E991E9C
:10498000AA1EBB1EC814D904EA04FB0494F5460110
:1049900057012FC02091340F3091350F4091360FC1
:1049A0005091370F29833A834B835C8384CF9FEFE9
:1049B0003912EDCF89859A85AB85BC85B095A095D8
:1049C000909581959F4FAF4FBF4F88159905AA05C8
:1049D000BB05ECF629813A814B815C8128193909A4
:1049E0004A095B0949015A018C149D04AE04BF04B5
:1049F00074F28091390E181624F589819A81AB8161
:104A0000BC8188169906AA06BB0614F44C015D0108
:104A10003D85311124C04E8524013501411133C03B
:104A2000B501A40180E00E94AB072B013C011111EC
:104A30002AC011E084149504A604B70421F510E0FF
:104A400022C0882329F329813A814B815C81281572
:104A500039054A055B05E4F649015A01D9CF5E855F
:104A6000511166C0B501A40181E00E94AB076D83BE
:104A70007E838F839887111106C011E086169706F2
:104A8000A806B906E1F280904A0F90904B0FA090D3
:104A90004C0FB0904D0F481459046A047B0491F5F3
:104AA0008091380F9091390FA0913A0FB0913B0F40
:104AB00089839A83AB83BC832D813E814F81588546
:104AC000281739074A075B07E9F48D850E940D0313
:104AD000C616D706E806F90609F448C03D85311127
:104AE0002CC04E8526013701411107C0B701A60130
:104AF00080E00E94AB072B013C0184149504A604BE
:104B0000B704A1F16E858D850E944C09812EAA24DF
:104B1000A39421E5C22E26E0D22E7B018C012D81AB
:104B20003E814F815885C301B2010E947B4335C04D
:104B30008D829E82AF82B886A6CF5E85511148C015
:104B4000B701A60181E00E94AB076D837E838F834E
:104B500098878D819E81AF81B88529813A814B816B
:104B60005C8182179307A407B50761F66E858D8572
:104B70000E944C096B017C0180913502882369F009
:104B800088248394A12C09811A812B813C81B30153
:104B9000A20181E596E00E94B84281E080933B0E3D
:104BA0002E960FB6F894DEBF0FBECDBFDF91CF912A
:104BB0001F910F91FF90EF90DF90CF90BF90AF903B
:104BC0009F908F907F906F905F904F903F9008954F
:104BD000CD82DE82EF82F886BCCF8F929F92AF9219
:104BE000BF92CF92DF92EF92FF92CF93DF9380E05C
:104BF0000E94C31E4B015C0181E00E94C31E6B0139
:104C00007C018091D90E9091DA0EC091DB0ED0918B
:104C1000DC0E009711F1B0E0A0E08093CF0E9093EE
:104C2000D00EA093D10EB093D20E209779F1CE0181
:104C3000B0E0A0E08093D30E9093D40EA093D50E55
:104C4000B093D60EDF91CF91FF90EF90DF90CF9091
:104C5000BF90AF909F908F9008952BE734E14EEA7C
:104C60005EE3C501B4010E94036220E030E040E051
:104C70005FE30E9433600E9416616093CF0E7093D1
:104C8000D00E8093D10E9093D20ECFCF2EE135E887
:104C90004BEE5EE3C701B6010E94036220E030E004
:104CA00040E05FE30E9433600E9416616093D30E80
:104CB0007093D40E8093D50E9093D60EC3CFEF92FF
:104CC000FF920F931F930E94ED25E090CF0EF0907E
:104CD000D00E0091D10E1091D20E25E536E041E9BB
:104CE00054E064E974E082E00E948B11E090D30EFE
:104CF000F090D40E0091D50E1091D60E2AE536E034
:104D000041E954E064E974E082E00E948B111F9154
:104D10000F91FF90EF900895CF93DF931F921F9212
:104D2000CDB7DEB7803119F490E080E056C08A310B
:104D3000D9F38E32C8F7DB01E82FF0E08827EC5575
:104D4000F94D8F4F0C943563D226F22607271D2785
:104D500094269426942694269426942632274A272D
:104D60005B27712787279E279426B02794269426B1
:104D7000B827CF27E127F8270F2826289426382898
:104D80009426942640285728612894269426942611
:104D90009426942694269426762880289A28B0284B
:104DA000E228CA28BE016F5F7F4FCD010E94470CE9
:104DB000892B09F4B9CF4091FB0E5091FC0E69810B
:104DC0007A814617570708F4AB0190E080E00E9413
:104DD000A7090E94C41481E090E00F900F90DF912A
:104DE000CF910895BE016F5F7F4FCD010E94470CA8
:104DF000892B09F499CF6091F90E7091FA0E89818F
:104E00009A81AC018617970700F7BC01DECFBE017F
:104E10006F5F7F4FCD010E94620C892B09F484CF14
:104E20004091FF0E5091000F69817A814617570714
:104E300008F4AB0181E090E0CACFBE016F5F7F4F05
:104E4000CD010E94620C892B09F46ECF6091FD0E9A
:104E50007091FE0E89819A81AC018617970750F7F1
:104E6000BC01E8CFBE016F5F7F4FCD010E94470CB0
:104E7000892B09F459CF89819A819C0122533109E8
:104E80002F39374020F49093EB0E8093EA0E0E9466
:104E9000B114A1CFBE016F5F7F4FCD010E94470CBF
:104EA000892B09F441CF89819FEF980F903278F7D1
:104EB0008093EC0EECCFBE016F5F7F4FCD010E945F
:104EC000620C892B09F430CF89819A819C012A5088
:104ED00031092F3D3340D8F69093EE0E8093ED0EBE
:104EE000D6CFBE016F5F7F4FCD010E94470C892B4B
:104EF00009F41ACF89819A819C012A5031092F37F0
:104F0000334128F69093F00E8093EF0EC0CFBE0190
:104F10006F5F7F4FCD010E94470C892B09F404CFAE
:104F200089819A819C012A5031092730374208F043
:104F3000AECF9093F20E8093F10EA9CFBE016F5FBA
:104F40007F4FCD010E94470C892B09F4EDCE89815A
:104F50009FEF980F943108F09ACF8093F30E97CF7C
:104F600081E09C91913309F080E08093F40E8FCF23
:104F7000BE016F5F7F4FCD010E94470C892B09F462
:104F8000D3CE89819A819C01225331092F39374030
:104F900008F07DCF9093E00E8093DF0E78CFBE01B6
:104FA0006F5F7F4FCD010E94470C892B09F4BCCE67
:104FB00089819FEF980F903208F069CF8093E10EBE
:104FC00066CFBE016F5F7F4FCD010E94620C892BBF
:104FD00009F4AACE89819A819C012A5031092F3D7A
:104FE000334008F054CF9093E30E8093E20E4FCFFE
:104FF000BE016F5F7F4FCD010E94470C892B09F4E2
:1050000093CE89819A819C012A5031092F373341EF
:1050100008F03DCF9093E50E8093E40E38CFBE01AB
:105020006F5F7F4FCD010E94470C892B09F47CCE26
:1050300089819A819C012A5031092730374208F032
:1050400026CF9093E70E8093E60E21CFBE016F5FCF
:105050007F4FCD010E94470C892B09F465CE8981D1
:105060009FEF980F943108F012CF8093E80E0FCF86
:1050700081E09C91913309F080E08093E90E07CFA5
:10508000BE016F5F7F4FCD010E94470C892B09F451
:105090004BCE89819A819C01245631092D3A3642A2
:1050A00008F0F5CE9093F60E8093F50EF0CE81E0E9
:1050B0009C91913309F080E0809336020E945B144A
:1050C0008ACEBE016F5F7F4FCD010E94470C892BB6
:1050D00009F42ACE89819A81813D27E0920708F060
:1050E00023CE9093F80E8093F70ED1CE81E09C9161
:1050F000913309F080E08093D80E0E94FB146BCEB0
:10510000BE016F5F7F4FCD010E94470C892B09F4D0
:105110000BCE89819A81893843E1940710F088E8A1
:1051200093E19093DA0E8093D90E0E94FB140E94B3
:105130005F2651CEBE016F5F7F4FCD010E94470CAD
:10514000892B09F4F1CD89819A81893823E192076D
:1051500010F088E893E19093DC0E8093DB0EE5CFAE
:10516000BE016F5F7F4FCD010E94470C892B09F470
:10517000DBCD89819A81893C910510F088EC90E023
:105180008530910510F485E090E08093DD0E0E945B
:10519000980AB3CFBE016F5F7F4FCD010E94470CCD
:1051A000892B09F4C1CD89819A81893C910510F040
:1051B00088EC90E08530910510F485E090E08093D4
:1051C000DE0EE5CFBE016F5F7F4FCD010E94470C21
:1051D000892B09F4A9CD89819A818330910508F042
:1051E000A3CD8093D70E0E94D714F5CD8F929F92B6
:1051F000AF92BF92CF92DF92EF92FF920F931F93E5
:10520000CF93DF93CDB7DEB76A970FB6F894DEBFC2
:105210000FBECDBF80E30E94950D8CE20E94950DDC
:1052200081E30E94950D8BE20E94950D80E10E9422
:10523000950D8AE20E948B0D8DE10E948B0D89E114
:105240000E948B0D8BE10E948B0D87E10E948B0DDC
:1052500086E30E949F0D87E30E949F0D88E30E94D2
:105260009F0D89E30E949F0D8AE30E949F0D8EE3AC
:105270000E949F0D8FE30E949F0D80E40E949F0D6E
:1052800081E40E949F0D82E40E949F0D83E40E94AE
:105290009F0D84E40E949F0D85E40E949F0D8EE186
:1052A0000E949F0D8FE10E949F0D80E20E949F0D42
:1052B00081E20E949F0D82E20E949F0D83E20E9484
:1052C0009F0D84E20E949F0D85E20E949F0D82E166
:1052D0000E949F0D83E10E949F0D82E00E949F0D1E
:1052E00083E00E949F0D8FE00E949F0D8EE00E9440
:1052F0009F0D84E10E949F0D85E10E949F0D86E134
:105300000E949F0D88E10E949F0D8AE10E949F0DDF
:105310008CE10E949F0DE091750FF091760F82E075
:105320008083E091710FF091720F1082E091730F02
:10533000F091740F80E1808310927D0FE091790FDE
:10534000F0917A0F86E08083E091770FF091780FEB
:10535000808180618083E091770FF091780F808168
:1053600088608083E091770FF091780F808180686A
:105370008083E091770FF091780F80818F7D80831B
:1053800081E0809335021092890E6FE576E085E624
:105390009FE00E94A31080E20E943A3E6EE676E013
:1053A00085E69FE00E94A31080E892E00E94D43E30
:1053B00080913502882321F08FE299E00E94813D9F
:1053C00080913502882321F089E796E00E94813D93
:1053D0002FE936E043EA56E069EA76E082E00E948F
:1053E000EE1190E080E00E940C10182F81E090E018
:1053F0000E940C10D82E82E090E00E940C10C82E63
:1054000083E090E00E940C10B82E153A61F586EF0B
:105410008D0D8B3540F521E02C1528F18D2D8C0D4F
:105420008B55B81220C0D0920002C0923602ED2CEB
:10543000F12C10E000E021EE34E04DEA56E06BEE96
:1054400074E082E00E948B11E0903602F12C10E0B3
:1054500000E02FEE34E04DEA56E06BEE74E082E0BF
:105460000E948B1114C084E68093000281E0809337
:105470003602153A09F483C40E946A0F22EB36E023
:105480004DEA56E06BEE74E082E00E94EE1180E19E
:1054900090E00E940C10F82E89E190E00E940C1020
:1054A000A82E87EBF8129AC48E010F5F1F4F480198
:1054B000A1E1CA2ED12CB02EE12EC6010E940C1003
:1054C000D4018D934D01BFEFCB1ADB0AE9E1CE1673
:1054D000D10499F7C8010896D8012D918D01F20EDB
:1054E0008A179B07C9F7AF1079C48B2D9E2D0E9498
:1054F000D109882309F472C489819A81AB81BC8166
:105500008093F90E9093FA0EA093FB0EB093FC0ECD
:105510008D819E81AF81B8858093FD0E9093FE0EA4
:10552000A093FF0EB093000F2BEC36E04BE055E05C
:105530006BEE74E082E00E94EE1180E290E00E9447
:105540000C10F82E87E390E00E940C10A82EB5EC0A
:10555000FB124BC48E010F5F1F4F4801F1E2CF2EAB
:10556000D12CB02EE12EC6010E940C10F4018193C3
:105570004F01FFEFCF1ADF0A2BE3C216D10499F7D0
:10558000C8014A96D8012D918D01F20EA817B907CE
:10559000C9F7AF102AC48B2D9E2D0E947508882351
:1055A00009F423C48AE1EB2DFE2DAFEDBEE001909E
:1055B0000D928A95E1F72BEC36E046E055E06BEE74
:1055C00074E082E00E94EE1188E390E00E940C10EB
:1055D000F82E80E490E00E940C10A82EB2EBFB1293
:1055E0000BC48E010F5F1F4F4801E9E3CE2ED12C73
:1055F000B02EE12EC6010E940C10F40181934F01E0
:10560000FFEFCF1ADF0A20E4C216D10499F7C801D0
:105610000796D8012D918D01F20EA817B907C9F789
:10562000AF10EAC38B2D9E2D0E947B0A882309F4BC
:10563000E3C387E0EB2DFE2DA8EDBEE001900D92B7
:105640008A95E1F72BEC36E041E954E06BEE74E02B
:1056500082E00E94EE1168E486E40E940E102BECBA
:1056600036E081110BC062E480E40E940E108823B2
:1056700009F4C9C30E94D7142BED36E040E155E090
:105680006BEE74E082E00E94EE1120EE36E043EA19
:1056900056E069EA76E082E00E94EE1182E1EEE3F4
:1056A000FFE0DF01282F1D922A95E9F7ECE2FFE0E9
:1056B000DF011D928A95E9F7EEE9FEE080E3DF0164
:1056C0001D928A95E9F78FB7F89410927B0B109290
:1056D0007C0B8FBF0E94ED25E090CF0EF090D00E96
:1056E0000091D10E1091D20E25E536E041E954E04B
:1056F00064E974E082E00E948B11E090D30EF09098
:10570000D40E0091D50E1091D60E2AE536E041E96F
:1057100054E064E974E082E00E948B111092060F5D
:1057200010920C0F1092050F10920B0F1092010F98
:105730001092020F1092030F1092040F1092070F95
:105740001092080F1092090F10920A0F1092950BE9
:105750001092960B24EE36E043EA56E069EA76E0D2
:1057600082E00E94EE1110922C0E10922D0E1092DB
:105770002E0E10922F0E1092300E1092310E1092AB
:10578000320E1092330E10921E0E10921D0E1092B9
:10579000110E1092120E1092130E1092140E1092FF
:1057A000340E1092170E1092160E10923B0E10929D
:1057B000270E1092280E1092290E10922A0E11E038
:1057C00010932F0210932B0E10923A0E1092390E56
:1057D0001092350E1092360E1092370E1092380E2F
:1057E0000E9490071092460F1092470F1092480F98
:1057F0001092490F10924A0F10924B0F10924C0FBB
:1058000010924D0F1092340F1092350F1092360FE8
:105810001092370F1092380F1092390F10923A0FE2
:1058200010923B0F8091D80E81110FC01092060F7D
:105830001093050F1092010F1092020F1092030F98
:105840001092040F81E00E949B3E28EE36E043EA6E
:1058500056E069EA76E082E00E94EE1164E084E1BD
:105860000E94924881E00E94343E8BE39FE10197C1
:10587000F1F78091D5108D7F8093D51088600E94BC
:10588000343E8FEF80932E0280E00E94E40C81E092
:105890000E94E40C82E00E94E40C83E00E94E40C8D
:1058A0002CEE36E043EA56E069EA76E082E00E94B8
:1058B000EE118091BA109091BB1090619093BB1043
:1058C0008093BA108091AB109091AC10906190933E
:1058D000AC108093AB1080919C1090919D109061C2
:1058E00090939D1080939C1080918D1090918E10BC
:1058F000906190938E1080938D1080917E10909186
:105900007F10906190937F1080937E1080916F1034
:105910009091701090619093701080936F108091AF
:10592000601090916110906190936110809360106D
:1059300080915110909152109061909352108093E9
:1059400051108091421090914310906190934310B8
:105950008093421080913310909134109061909315
:105960003410809333108091241090912510906111
:10597000909325108093241080911510909116100B
:10598000906190931610809315108091061090915D
:105990000710906190930710809306100E94491B96
:1059A0000E949604811101C081E0809304020E944C
:1059B00068040E9459040E94960481118093040295
:1059C000109104021093190E0E947F0480931A0E06
:1059D0002091030220931B0E9091890A90931C0E34
:1059E00010939A0A8093070220930602909305026F
:1059F0002FEE36E043EA56E069EA76E082E00E9464
:105A0000EE118091A4119091A51190619093A51130
:105A10008093A4118091951190919611906190932B
:105A200096118093951180918611909187119061C4
:105A300090938711809386118091771190917811BE
:105A40009061909378118093771180916811909173
:105A50006911906190936911809368118091591137
:105A600090915A11906190935A118093591180919D
:105A70004A1190914B11906190934B1180934A1170
:105A800080913B1190913C11906190933C118093D7
:105A90003B1180912C1190912D11906190932D11BB
:105AA00080932C1180911D1190911E119061909303
:105AB0001E1180931D1180910E1190910F11906114
:105AC00090930F1180930E118091FF10909100110F
:105AD0009061909300118093FF108091F01090914D
