:020000040000FA
:100000000C94E7020C94EE270C9418030C94B72779
:100010000C9418030C9418030C9418030C941803F4
:100020000C9418030C9418030C9418030C941803E4
:100030000C9418030C949A120C9418030C948727B0
:100040000C9418030C94403C0C9418030C94180363
:100050000C9418030C9418030C9418030C940F5A66
:100060000C9418030C9421180C94F7170C94180393
:100070000C9418030C9418030C9418030C94180394
:100080000C947C270C9418030C9418030C941803FC
:100090000C9418030C9418030C9418030C94180374
:1000A0000C9418030C9418030C9454270C94180304
:1000B0000C9418030C9418030C9418030C942C271C
:1000C0000C9418030C9418030C9418030C94180344
:1000D0000C9418030C9418030C9418030C94180334
:1000E0000C9418030C94DD3E0C94F7560C94321EBD
:1000F0000C9402570C9432570C9411040C94743FD6
:100100000C940C4F0C94F44E0C9412570C94D33F57
:100110000C9463040C9420570C94F43F0C94EE3E22
:100120000C94464E0C94F74C0C94764D0C945B4D0D
:100130000C94F4070C94801E0C94FB560C94911EA6
:100140000C94BB4C0C942E570C94C53E0C94085741
:100150000C94114D0C94BD070C9416570C94C44E7E
:100160000C94A23F0C940C570C94B34C0C94434049
:100170000C94C71E0C942E030C94C74D0C94114E76
:100180000C94F3560C94623F0C945B030C94AA4EAF
:100190000C9409400C94CB3F0C94DC560C94853E97
:1001A0000C9424570C944B3F0C94AD4D0C94F94D8A
:1001B0000C948D1E0C94904E0C9428570C94653E14
:1001C0000C94E14D0C948C030C948B3F0C940B6DB0
:1001D0000C94C04C0C94994C0C94B93F0C942D4049
:1001E0000C94273E0C94FF560C94C4030C941A3FB5
:1001F0000C945D400C94F24C0C94B03E0C946B1E2D
:100200000C94941E0C94D0070C941A570C942C4EFA
:100210000C94EA3F0C947E030C94043F0C94320837
:100220000C942B4D0C94904D0C947B4C0C94DC4E08
:100230000C949A3E0C94434D0C94433F0C94E1561D
:100240000C94D7180C945E4E0C94313F0C94E1073B
:100250000C9475400C94561E0C94784E0C94A84D3A
:100260000C9462040C94DA4C0C946A030C94050808
:100270000C9413406364696E6F70737578585B00FB
:10028000204A544700205744520020424F52002039
:100290004558540020504F5200205B2724272066E9
:1002A0006F722068656C705D006F6B006572726FB5
:1002B000723A20007C52504D3A007C4D3A007C4608
:1002C000534D3A003C4D506F733A0000002000231C
:1002D00000260029002C002F00320000010000033E
:1002E0000106010901242420616C6C2C20246E205D
:1002F00071756572792C20246E3D76616C20736572
:10030000742C20244920696E666F2C203F20737462
:10031000617475730024343420636F6F72642075C8
:100320006E69747320303D737465707320313D6D58
:100330006D20323D696E636800243435206261634C
:100340006B6C617368206D696E20737065656420E5
:100350006D6D2F6D696E00243433206261636B6CA8
:10036000617368206D6178207370656564206D6DC0
:100370002F6D696E00243430206261636B6C617391
:1003800068206175746F2C202434312D2434322080
:10039000582F5A20737465707300243332206A6FAB
:1003A0006720646563656C206D696E207374657089
:1003B000732028303D6F6666290024333020737027
:1003C000696E646C65205050522C202433312062B9
:1003D000757A7A65720024323620582073746570FD
:1003E000732F6D6D2C2024323720582064697220C1
:1003F000696E76657274002432302D2432352058AF
:10040000206D6F746F722F75737465702F706974BF
:1004100063682F6D61782F72617069642F61636307
:10042000656C00243136205A2073746570732F6D0B
:100430006D2C20243137205A2064697220696E7631
:10044000657274002431302D243135205A206D6FAF
:10045000746F722F75737465702F70697463682F71
:100460006D61782F72617069642F616363656C00E0
:1004700024322D24332073796E63206665656420F1
:100480006D696E2F6D6178206D6D2F726576002419
:10049000302D2431206173796E6320666565642098
:1004A0006D696E2F6D6178206D6D2F6D696E002CFA
:1004B000454550524F4D5D005B4F50543A005B56DE
:1004C00045523A0000002100240027002A002D0098
:1004D0003000330001010000040107010A0100009F
:1004E0000A0B02090C0D0E080703040100000000AE
:1004F00000000000000000000000000000000000FC
:1005000000000000000000000000121110000000B8
:1005100000000000000000000000000000000000DB
:1005200000000000010210202008081020401020C8
:1005300040800201020108040201010204081020A7
:1005400040808040201008040201800402018040A5
:10055000201008040201080402010102040810200E
:100560004080010204081020408000002200250085
:1005700028002B002E00310034000201000005018C
:1005800008010B0105050505070508080808020212
:1005900002020A0A0808040404040101010101011D
:1005A00001010303030303030303040707070C0C00
:1005B0000C0C0C0C0C0C02020202060606060606C7
:1005C00006060B0B0B0B0B0B0B0B02000B6D112418
:1005D0001FBECFEFD1E2DEBFCDBF00E00CBF1BE0FE
:1005E000A0E0B2E0E0E3F3EF00E00BBF02C0079051
:1005F0000D92A830B107D9F723E1A8E0BBE001C014
:100600001D92A33CB207E1F712E0C7EED2E000E092
:1006100006C021970109802FFE010E944172C63E4B
:10062000D10780E00807A9F70E946E5A0C949679CA
:100630000C940000811109C06091CE107091CF1010
:100640008091D0109091D11008956091D410709144
:10065000D5108091D6109091D7100895AF92BF9287
:10066000CF92DF92EF92FF920F931F93CF93DF937E
:100670006C017B018B01040F151FEB015E01AE18AD
:10068000BF08C017D10759F06991D601ED91FC91CF
:100690000190F081E02DC6011995892B79F7C501EC
:1006A000DF91CF911F910F91FF90EF90DF90CF904E
:1006B000BF90AF900895FC01538D448D252F30E0FD
:1006C000842F90E0821B930B541710F0CF9608955F
:1006D00001970895FC01918D828D981761F0A28D8C
:1006E000AE0FBF2FB11D5D968C91928D9F5F9F7352
:1006F000928F90E008958FEF9FEF0895FC01918D08
:10070000828D981731F0828DE80FF11D858D90E074
:1007100008958FEF9FEF0895FC01918D228D892F11
:1007200090E0805C9F4F821B91098F7399270895F9
:1007300089E291E10E948C0321E0892B09F420E0F9
:10074000822F0895FC01A48DA80FB92FB11DA35AC3
:10075000BF4F2C91848D90E001968F739927848FE1
:10076000A689B7892C93A089B1898C918370806404
:100770008C93938D848D981306C00288F389E02DA5
:1007800080818F7D80830895EF92FF920F931F9356
:10079000CF93DF93EC0181E0888F9B8D8C8D981334
:1007A0001AC0E889F989808185FF15C09FB7F89440
:1007B000EE89FF896083E889F9898081837080648C
:1007C00080839FBF81E090E0DF91CF911F910F91D7
:1007D000FF90EF900895F62E0B8D10E00F5F1F4FE6
:1007E0000F731127E02E8C8D8E110CC00FB607FCF5
:1007F000FACFE889F989808185FFF5CFCE010E9483
:10080000A203F1CFEB8DEC0FFD2FF11DE35AFF4F4B
:10081000F0829FB7F8940B8FEA89FB898081806210
:10082000CFCFCF93DF93EC01888D8823B9F0AA89CD
:10083000BB89E889F9898C9185FD03C0808186FD9B
:100840000DC00FB607FCF7CF8C9185FFF2CF8081EA
:1008500085FFEDCFCE010E94A203E9CFDF91CF91BA
:10086000089580E090E0892B29F00E94980381117F
:100870000E94000080E090E0892B49F080E090E049
:10088000892B29F00E94000081110E94000080E065
:1008900090E0892B49F080E090E0892B29F00E94BC
:1008A000000081110E94000080E090E0892B49F057
:1008B00080E090E0892B29F00E94000081110C94C7
:1008C00000000895089590E080E008958F929F922F
:1008D000AF92BF92CF92DF92EF92FF92C090FB1047
:1008E000D090FC10F12CE12CCC0CDD1CEE1CFF1C7C
:1008F000C114D104E104F10439F1A70196010E9469
:10090000227297FF04C06C0D7D1D8E1D9F1D0E94DD
:100910005A7020E030E044EB53E40E940F714B0129
:100920005C01C701B6010E945A709B01AC01C50170
:10093000B4010E94B06FFF90EF90DF90CF90BF9016
:10094000AF909F908F90089560E070E0CB01F3CF5F
:100950004F925F926F927F928F929F92AF92BF92CF
:10096000CF92DF92EF92FF924B015C017A01452B0F
:10097000A9F121503109B90190E080E00E9458703E
:1009800020E030E044EB53E40E940F712B013C0166
:10099000B70190E080E00E9458709B01AC01C30158
:1009A000B2010E94B06F6B017C01C501B4010E94CD
:1009B00066049B01AC01C701B6010E943E6F6B014A
:1009C0007C0120E030E044E353E40E940A711816F1
:1009D0004CF420E030E044EB53E4EDCFC12CD12CBB
:1009E0007601E3CF20E030E044E353ECC701B601E9
:1009F0000E94AB6F18165CF020E030E044EB53E44B
:100A0000C701B6010E943F6F6B017C01EBCFC701AC
:100A1000B601FF90EF90DF90CF90BF90AF909F9086
:100A20008F907F906F905F904F9008956091240C0D
:100A30007091250C8091260C9091270C089580913F
:100A400003018370823029F41092120C8091120CF1
:100A500008958130D9F78093120CF8CF8091CA1194
:100A60009091CB11807299272091D91125FF08C050
:100A7000892B19F481E08093140280911402089567
:100A8000892BD9F310921402F8CF8091061285FFBA
:100A900004C082E08093110C06C08091F71185FF9D
:100AA00005C01092110C8091110C08958091E811ED
:100AB00085FFF7CF81E0EECF80917E1285FD1EC0CD
:100AC00080916F1285FD1CC08091601285FD1AC057
:100AD0008091511285FD18C08091421285FD16C08B
:100AE0008091331285FD14C08091241285FD12C0BF
:100AF0008091151285FD10C080E0089581E0089571
:100B000082E0089583E0089584E0089585E00895E3
:100B100086E0089587E0089588E0089580E0E82F52
:100B2000F0E0E652FF4E9081992341F090539A30C5
:100B300018F48093480C08958F5FF1CF1092480C01
:100B400008958091480C90E0FC01E652FF4E208110
:100B500020532A30B0F0019748F0FC01E652FF4ED6
:100B6000208120532A30B8F78093480CE091480C3C
:100B7000F0E0E652FF4E808180538A3010F00C94F2
:100B80008E050895E6ECF0E18081918190933E021C
:100B900080933D028281938190933C0280933B023B
:100BA0008481958190933A0280933902868197815E
:100BB0009093380280933702E5EEF0E183859485C7
:100BC0009093360280933502858580933402868522
:100BD0009785909333028093320280899189909314
:100BE0003102809330028289938990932F028093FF
:100BF0002E02848980932D028081918190932C0212
:100C000080932B02828180932A0283819481909326
:100C100029028093280285819681909327028093F0
:100C200026028781908590932502809324028185F6
:100C300080932302858980932D0C828580932C0CD0
:100C400086899789909313028093120280914E02B5
:100C500080933F02AFEBB0E18C918093220211961A
:100C60008D919C911297909321028093200213966C
:100C70008D919C91149790931F0280931E0215965C
:100C80008C91159790E090931D0280931C0216960C
:100C90008C9190E090931B0280931A02808D918D2D
:100CA00090932B0C80932A0C80914D028093190213
:100CB00008958A3170F4E82FF0E0EE0FFF1FE7503F
:100CC000FD4F0190F081E02D309719F06083718322
:100CD00008958550863160F4E82FF0E0EE0FFF1F95
:100CE000E353FD4F0190F081E02D309709F06083D0
:100CF000089595E1899FD001112430E020E090E033
:100D0000FB014191BF01411101C040E2F901EA0F2D
:100D1000FB1FE856F44F40832F5F3F4F24313105CE
:100D200079F725E1289FF001299FF00D1124E8565D
:100D3000F44F148A0895F8948091320C9091330CFA
:100D4000A091340CB091350C80932E0C90932F0C05
:100D5000A093300CB093310C78940895F8941092CD
:100D6000320C1092330C1092340C1092350C1092FD
:100D70002E0C10922F0C1092300C1092310C789493
:100D800008950F931F93F8946091320C7091330C77
:100D90008091340C9091350C00912E0C10912F0CF9
:100DA0002091300C3091310C601B710B820B930B36
:100DB0001616170618061906A4F40F5F1F4F2F4FBB
:100DC0003F4F00932E0C10932F0C2093300C309338
:100DD000310C789461E070E080E090E01F910F9119
:100DE0000895611571058105910589F0015011097A
:100DF0002109310900932E0C10932F0C2093300CF5
:100E00003093310C78946FEF7FEFCB01E7CF78947C
:100E1000E5CF0F931F93F8946091320C7091330CCF
:100E20008091340C9091350C789400912E0C109197
:100E30002F0C2091300C3091310C601B710B820B08
:100E4000930B1F910F91089580911B0C81110FC07E
:100E500080911C0C81110BC080911D0C811107C069
:100E600081E090911E0C911103C080E0089581E013
:100E700008952FE0E5E1FCE0DC0101900D922A9558
:100E8000E1F7089580911D1390911E1325E096952A
:100E900087952A95E1F7817090910E1395FD8260F8
:100EA0009091FF1295FD84609091F01295FD8860FD
:100EB0009091E11295FD80610895FC011182848179
:100EC0009581882790719583848308952FB7F8942E
:100ED0006091D50F7091D60F8091D70F9091D80F58
:100EE0002FBF089548990EC049990EC08091D50F23
:100EF0009091D60FA091D70FB091D80F0196A11D58
:100F0000B11D0DC04999F2CF8091D50F9091D60FA8
:100F1000A091D70FB091D80F0197A109B109809383
:100F2000D50F9093D60FA093D70FB093D80F0895F5
:100F30000F931F93CF93DF93CFE5D0E1811102C0D0
:100F4000C1E7D0E10E941A03161617061806190603
:100F500074F081E0088519852A853B854C855D857F
:100F60006E857F85041715072607370709F080E08F
:100F7000DF91CF911F910F910895E5E5F5E0849100
:100F8000E5EBF5E0E491F0E0EE0FFF1FE659FA4FD4
:100F9000A591B4919C91E82FE095E923EC930895F5
:100FA000E5E5F5E08491E5EBF5E0E491F0E0EE0FA6
:100FB000FF1FE659FA4FA591B491EC91E82BEC9301
:100FC0000895E4E5F5E08491E4EBF5E0E491F0E0E8
:100FD000EE0FFF1FE659FA4FA591B4919C91E82FAF
:100FE000E095E923EC930895E4E5F5E08491E4EBE2
:100FF000F5E0E491F0E0EE0FFF1FE659FA4FA591FE
:10100000B491EC91E82BEC9308959091FA10992308
:1010100021F091E0811190E0892FEFE4F5E02FEAD3
:1010200035E0882379F08491F9012491E22FF0E0F2
:10103000EE0FFF1FE659FA4FA591B491EC91E82B02
:10104000EC9308958491F9012491E22FF0E0EE0FE2
:10105000FF1FE659FA4FA591B4919C91E82FE095B6
:10106000E923EECF9091EF10992321F091E08111C7
:1010700090E0892FE0E5F5E020EB35E0882379F07A
:101080008491F9012491E22FF0E0EE0FFF1FE65961
:10109000FA4FA591B491EC91E82BEC9308958491CB
:1010A000F9012491E22FF0E0EE0FFF1FE659FA4F0D
:1010B000A591B4919C91E82FE095E923EECFFC0136
:1010C0002FB7F89480910B0D90E0019666E070E0E8
:1010D0000E94EC7190910C0D981779F0A0910B0D76
:1010E00090E2A99FD0011124A55BB34F90E201903B
:1010F0000D929A95E1F780930B0D2FBF0895AF9253
:10110000BF92CF92DF92EF92FF920F931F93CF93F4
:10111000DF93811118C06091520B7091530B809135
:10112000540B9091550B611571058105910509F1DD
:10113000DF91CF911F910F91FF90EF90DF90CF90B3
:10114000BF90AF90089560914E0B70914F0B8091BE
:10115000500B9091510B611571058105910541F777
:1011600080910A0290910B02A0910C02B0910D02A5
:1011700008C080910E0290910F02A0911002B091D0
:1011800011020097A105B10521F481E090E0A0E0F3
:10119000B0E09C01AD0160E070E080E090E00FE124
:1011A0000E94F572EFE5AE2EF6E7BF2EC12CD12CD2
:1011B000E12CF12C00E010E00E949872A32FF42F94
:1011C000E52F622F7A2F8F2F9E2FB2CFEF92FF92B3
:1011D0001F93CF93DF9300D01F92CDB7DEB78091DE
:1011E0004F0290915002A0915102B0915202898316
:1011F0009A83AB83BC83CE0101967C0110E0812FE2
:101200000E941A0316161706180619069CF4812F59
:101210000E947F08611571058105910521F461E047
:1012200070E080E090E0D701ED91FC9164837583DC
:1012300086839783B2E0EB0EF11C113051F40F90CE
:101240000F900F900F90DF91CF911F91FF90EF9033
:10125000089511E0D4CF90E0FC01EC57FA4FE491EF
:10126000EE2389F0F0E0EE0FFF1FE553FD4FA5914F
:10127000B4912C918C5D9A4FFC018491282381E0DC
:1012800019F480E0089581E008958AE1E2E6F2E051
:10129000A5EEB0E101900D928A95E1F70895FC0169
:1012A00080819181C2978F399740F0F4828181507B
:1012B0008032D0F4838194810A978F3D9340A0F4CB
:1012C000858196810A978F37934170F48781908545
:1012D0000A978730974240F481858150843120F409
:1012E00081E09285923008F080E00895CF93DF93FB
:1012F000EC010E944F098823A1F0CE010B960E94B9
:101300004F09882371F08E899F89845691098D3AFF
:10131000964230F481E0288D398D213D374008F028
:1013200080E0DF91CF910895CF93883008F080E07E
:10133000E82FF0E0ED5BFC4FC081C23008F0C0E068
:1013400024E0C29FF0011124EA53FF4E42815381F1
:101350000190F081E02DE417F50778F59A012F5FF1
:101360003F4F2E1B3F0BDB010E9449722AE09695EE
:101370008795779567952A95D1F79A01261B370BA4
:10138000B901C1111CC04E1B5F0B4233510580F0E7
:10139000CB018E1B9F0B6AE070E00E94EC71CB01C9
:1013A0002AE0289FB001299F700D11246E0F7F1F26
:1013B00090E080E00E9458700CC0BF01E2CF90E046
:1013C00080E00E9458702AE037ED43E25CE30E941F
:1013D0000F71CF910895883008F080E0E82FF0E099
:1013E000ED5BFC4F90819F3F31F060911210709146
:1013F00013100C94940960E070E0CB010895CF9233
:10140000DF92EF92FF92CF93DF938091301088307C
:1014100008F040C0823089F121E090E0813009F08D
:1014200020E0C22FD92F0E94EB096B017C01CD2B4C
:10143000D9F06091C50F7091C60F8091C70F909140
:10144000C80F6A3071058105910520F46CE370E0E6
:1014500080E090E00E9458709B01AC01C701B6018A
:101460000E940F716B017C01C701B601DF91CF9122
:10147000FF90EF90DF90CF900895609112107091DF
:10148000131080E0DF91CF91FF90EF90DF90CF902D
:101490000C949409D0E0C0E0C6CF4617570770F00F
:1014A0004115510559F0880F991F880F991FFC01AC
:1014B000EA53FF4E71836083538342830895E6ECC1
:1014C000F0E1AAE5B2E04D915D916D917C911397A9
:1014D000408351836283738314968D919D910D9007
:1014E000BC91A02D84839583A683B7830895FC01C6
:1014F00082819381208131818217930760F0892B4B
:1015000051F026813781848195812817390718F099
:1015100081E0232B09F480E0089580914D02813011
:1015200031F0823011F484E4089583E508958DE468
:1015300008954F925F926F927F928F929F92AF9297
:10154000BF92CF92DF92EF92FF920F931F93CF93B0
:10155000DF93F82E8A01D62FC72F6091C51070E057
:1015600090E080E00E945870762E872E982EA92E4B
:101570006091C41070E090E080E00E945870B62E38
:10158000C72ED82EE92EEF2DF110E1E08BE0E89F79
:10159000F0011124EB51FF4E6581768190E080E0EF
:1015A0000E9458702B01682EF92E98014D2F5C2F48
:1015B000672D782D892D9A2D0E940A71181624F412
:1015C000072D182DD92DCA2D2B2D3C2D4D2D5E2DDF
:1015D000B8018D2F9C2F0E940A71181624F40B2D30
:1015E0001C2DDD2DCE2D20E030E040E85FE3B8017A
:1015F0008D2F9C2F0E94AB6F87FF04C000E010E08E
:10160000D0E8CFE39201462D5F2DB8018D2F9C2F9E
:101610000E940A7118161CF48201D62DCF2DB80134
:101620008D2F9C2FDF91CF911F910F91FF90EF9005
:10163000DF90CF90BF90AF909F908F907F906F90F2
:101640005F904F90089587E0E3E5F2E0AFEBB0E103
:1016500001900D928A95E1F70895FC018081823016
:10166000B8F4818192818938934190F48381948187
:101670008938934168F425818BEF820F843C40F4D4
:1016800096818BEF890F843C18F481E0291708F4C8
:1016900080E008958091C410853018F485E080932F
:1016A000C4108091C410893C18F088EC8093C41059
:1016B0008091C510853018F485E08093C510809125
:1016C000C510893C18F088EC8093C5108091C41037
:1016D0009091C510891710F48093C51008958091DA
:1016E000BF10882311F08BE408958DE208952F92A6
:1016F0003F924F925F926F927F928F929F92AF92A2
:10170000BF92CF92DF92EF92FF920F931F93CF93EE
:10171000DF9300D000D01F92CDB7DEB74B015C0144
:101720002D831701411141E08BE0489FF001112406
:10173000EB51FF4EA081B1812281838194819F83EF
:101740008E8381E0B7FC8FEFF6018083F801108271
:10175000118212821382F10110821182128213828D
:1017600081149104A104B10409F473C0109709F421
:1017700070C0222309F46DC08E819F81892B09F4EA
:1017800068C030E00E9449729B01AC01A4E6B0E061
:101790000E9458726B017C01C501B40197FF07C01C
:1017A00090958095709561957F4F8F4F9F4FA701C2
:1017B00096010E94007229833A834B835C832B013C
:1017C0003C012E813F81A8EEB3E00E9449724B019B
:1017D0005C0129813A814B815C810E94DC716983C3
:1017E0007A838B839C83A3019201C501B4010E947B
:1017F000DC71A70196010E94007289819A81AB81F8
:10180000BC81280F391F4A1F5B1F9D81923071F4E4
:10181000A0E1B7E20E945872685E7F408E4F9F4FF2
:1018200020E330EE43E050E00E940072CA01B901AB
:1018300028EE33E040E050E00E940072D8012D9382
:101840003D934D935C931397F10160837183828381
:10185000938327960FB6F894DEBF0FBECDBFDF91FE
:10186000CF911F910F91FF90EF90DF90CF90BF909D
:10187000AF909F908F907F906F905F904F903F9030
:101880002F900895CF93DF93FC012481358133FF9E
:1018900010C0EC010E94035A2A813B81621B730B2A
:1018A0002E85F0E12F9F9001112481E062177307CC
:1018B00008F480E0DF91CF9108951F93CF93DF93D9
:1018C000EC018C819D8180FD19829C012F71332751
:1018D000232B19F0807E9D838C838C819D8194FBCA
:1018E000112710F9162796FF04C09F7B9D838C83D8
:1018F00011E08C819D8191FD10C011110BC0CE01B2
:101900000E94420C182F8111C0C0812FDF91CF910E
:101910001F91089592609D838C830E94035AAB01AE
:101920008A819B81FA01E81BF90B8C819D8111232F
:1019300009F45DC085FD3EC02A8592FD06C02223C4
:1019400021F094609D838C830BC02E171F0619F025
:1019500010F0211107C082629D838C8359874887CC
:101960005B834A838C819D818F71992711E0892B3C
:1019700031F28E819F81892B41F28C819D81917002
:101980008436910509F48AC008F09AC08232910524
:1019900009F484C008F07BC08130910509F47EC051
:1019A000409709F47BC0CE010E94420C882309F4C1
:1019B000ACCF74C097FDD6CF86FD0AC02C85A0E1C0
:1019C0002A9F90011124E217F30760F28464BACFD2
:1019D00087FF0BC02D85A0E12A9F90011124886804
:1019E000E217F30708F0AECFBDCF2C85F4CF85FF0B
:1019F00012C02A852E171F0609F080F586FD03C048
:101A000029812F5F298397FD19828F7D80619160E5
:101A10009D838C8323C090FF0DC097FD03C0806120
:101A20009D838C838C819D819E779D838C835B833A
:101A30004A8314C029812223F1F09C01207C3327A2
:101A4000232BA1F42B8540E1249F90011124E21760
:101A5000F30760F488859985892B51F48C819D81E9
:101A600092FF80CF9B7F9D838C837CCF8160D0CF82
:101A700019861886F3CF91FFF1CF8F739D7F986001
:101A80009D838C8319861886D2CF10E072CF813463
:101A9000910521F08035910509F085CFEE81FF8118
:101AA000309709F432CF1995CE010E94420C882359
:101AB00009F42BCF8C819D81977F9D838C8325CFCB
:101AC000883E910559F338F4813C910539F3803D06
:101AD000910521F368CF8035A1E09A07F9F2803DA6
:101AE00021E09207D9F28031914009F05CCFD6CF46
:101AF0008EE10E942B0961E0811101C060E08AE75C
:101B000092E10E945D0C8FE10E942B0961E081113E
:101B100001C060E08BE692E10E945D0C80E20E94D1
:101B20002B0961E0811101C060E08CE592E10E9427
:101B30005D0C81E20E942B0961E0811101C060E02F
:101B40008DE492E10E945D0C82E20E942B0961E02B
:101B5000811101C060E08EE392E10E945D0C83E29E
:101B60000E942B0961E0811101C060E08FE292E1E7
:101B70000E945D0C84E20E942B0961E0811101C08A
:101B800060E080E292E10E945D0C85E20E942B09F8
:101B900061E0811101C060E081E192E10E945D0C91
:101BA0006091060165FB662760F982E092E10E9480
:101BB0005D0C6091060166FB662760F983EF91E199
:101BC0000E945D0C60910601661F6627661F84EE09
:101BD00091E10E945D0C6CB16295617085ED91E1BF
:101BE0000E945D0C6CB165FB662760F986EC91E1A3
:101BF0000C945D0C6EE270E08AED90E10E944273FD
:101C0000009741F09C012A5D304181E09091480CA1
:101C1000291708F080E00895E091480CF0E0E652C2
:101C2000FF4E808180538A3020F5E091E31088E0F8
:101C3000E89FF0011124ED5AFC4F828193810197B6
:101C4000D1F40E94FA0D282F80E0211126C0E82F40
:101C5000F0E0E652FF4E9081992341F09E3231F040
:101C600090539A3008F42F5F8F5FF1CF81E02230DC
:101C7000A0F480E0089520E090E0E22FF0E0E6524A
:101C8000FF4E8081882331F080538A3008F49F5FB3
:101C90002F5FF3CF81E0923060F30895CF93DF930D
:101CA0000097A1F0FC012081222381F0EB010E942A
:101CB000EC6E61157105F1E08F07910538F47983B9
:101CC000688381E090E0DF91CF91089590E080E01B
:101CD000FACF8F929F92AF92BF92EF92FF920F93A3
:101CE0001F93CF93DF93009709F467C0FC01208115
:101CF000222309F462C08B01EC016EE270E00E94C5
:101D000042737C01892B71F4B801CE01DF91CF9130
:101D10001F910F91FF90EF90BF90AF909F908F9089
:101D20000C944E0ECE010E94EC6E4B015C01C7017B
:101D300001960E94EC6EF8EE8F16F3E09F06A10468
:101D4000B104D8F597FD2BC06A3071058105910566
:101D500054F5F701218120532A3048F422812111C2
:101D600006C0AAE0B0E09B01AC010E94587244E6B4
:101D7000489D9001499D300D1124620F731FF80199
:101D80007183608381E090E0DF91CF911F910F918B
:101D9000FF90EF90BF90AF909F908F90089560E07C
:101DA00070E0CB01D6CF6436710581059105FCF258
:101DB00063E670E080E090E0DACF90E080E0E4CF8E
:101DC00089EA92E00C94AC4A882319F08AE50C94D5
:101DD000654A88E5FCCF68E270E080E090E00C9412
:101DE0001958CF93DF93D82FC5E18C9FC0011124E0
:101DF00044E150E060E270E08856944F0E943B73EB
:101E0000CD9FF0011124E856F44F148ADF91CF9151
:101E10000895EF92FF920F931F93CF93DF93CDB767
:101E2000DEB7A0970FB6F894DEBF0FBECDBFFE01A0
:101E3000339696E1DF011D929A95E9F793E0998335
:101E40008A836B83298F3A8F4B8F5C8FED8EFE8E4A
:101E50000F8F18A3CE0101960E945F08A0960FB6BF
:101E6000F894DEBF0FBECDBFDF91CF911F910F91D0
:101E7000FF90EF90089590914B0289130DC0EAEC0A
:101E8000F5E0E4919FEF90934B02E230E1F038F4FB
:101E9000EE2381F0E13089F060E00C94AC56E43040
:101EA00049F110F1E530C1F7909173009D7F909357
:101EB0007300F2CF10926E00EFCF90916F009D7F74
:101EC00090936F00E9CF909170009D7F9093700088
:101ED00091E09093B0009091B100987F94609093BE
:101EE000B1001092B300D8CF909171009D7F909374
:101EF0007100D2CF909172009D7F90937200CCCFF1
:101F0000CF93DF93EC0160E08E810E94AC5661E0DC
:101F10008E810E94AC5660E08E810E94AC568BE8A8
:101F200091E00197F1F7DF91CF91089580914E02F2
:101F30008823D9F068E270E080E090E00E941958B0
:101F40006DE270E080E090E00E94D15980E10E9453
:101F50003B0F60E570E080E090E00E94D15968E2BC
:101F600070E080E090E00C9419580895CF93C82F4A
:101F700061E00E94385761E08C2FCF910C94AC56F1
:101F8000CF93C82F61E00E94385760E08C2FCF912B
:101F90000C94AC5662E00C9438578AED90E1FC0149
:101FA00001900020E9F7CF018B5D90418830F0F47B
:101FB00041E0480F2091480C30E02F5F3F4FE42F65
:101FC000F0E02E173F0740F4E652FF4EDF01119775
:101FD0005C9150834150F3CF26523F4E40E3F901CC
:101FE00040839927FC01E652FF4E118208950E941A
:101FF0006A4A2091121030911310A9014C5F5F4F73
:10200000481759072CF0245031098217930744F5DB
:1020100020910D0CE22FF0E0EE0FFF1FE351F44F83
:1020200040910E0C50910F0C60817181461B570B33
:1020300091838083840F951F90930F0C80930E0CD7
:102040002F5F2F7020930D0C44E0969587954A954D
:10205000E1F7909313108093121081E08093100C9D
:1020600008950F931F93CF93DF93EB010990002006
:10207000E9F72197C61BC53108F0C4E1D0E095E12E
:10208000899F800111240856144FAE01C8010E9497
:10209000207344E150E04C1B5D0B60E270E0C8012E
:1020A0008C0F9D1F0E943B73F801148ADF91CF9122
:1020B0001F910F910895FF920F931F93CF93DF937A
:1020C000CDB7DEB765970FB6F894DEBF0FBECDBFB4
:1020D0001091E310123008F44EC01150193108F07D
:1020E00018E1BE016F5F7F4F812F0E94BF49BE0183
:1020F0006F5F7F4F80E00E943110FF24F394F10E58
:10210000BE016F5F7F4F8F2D0E94BF49BE016F5F81
:102110007F4F81E00E94311002E0010FBE016F5F2E
:102120007F4F802F0E94BF49BE016F5F7F4F82E0CB
:102130000E9431109091E410913051F58091E3109C
:102140008117D9F0F816D1F092E00817B9F08FEFA7
:102150008093400269E474E083E00E943110659648
:102160000FB6F894DEBF0FBECDBFDF91CF911F91A8
:102170000F91FF90089510E0B4CF90E08091480C4B
:10218000895F843120F7909340028093EC0BE2CF7B
:102190006DE574E083E00E9431108FEF8093400280
:1021A000DECF1F93CF93DF93CDB7DEB764970FB623
:1021B000F894DEBF0FBECDBF182FBE016F5F7F4FFB
:1021C0000E943F4C892B89F084E20E94654A612F6E
:1021D00070E090E080E04AE00E9452488DE30E9467
:1021E000654ACE0101960E943F4864960FB6F89466
:1021F000DEBF0FBECDBFDF91CF911F910895CF936A
:10220000DF93CCE7D2E089910E94D11082E0C939F6
:10221000D807C9F7DF91CF910895CF93DF93EC01F1
:102220008CEA92E00E942448CE01DF91CF910C9479
:102230003F4820914C0221110C943F4808951F9370
:10224000CF93DF93EC01162F0E94286F181739F0F7
:10225000612FCE01DF91CF911F910C94306FDF91F0
:10226000CF911F910895CF93C0914E0280910002AB
:10227000C80FCB5565EA90E080E00E941F11609185
:10228000000281E090E00E941F1160914E0282E006
:1022900090E00E941F116C2F83E090E0CF910C948E
:1022A0001F11EF92FF921F93CF93DF9385EEE82EDD
:1022B00080E1F82EF70115EC8191180F80E1EF3FD6
:1022C000F807D1F765EC80E290E00E941F11C1E2AF
:1022D000D0E0F70161917F01CE010E941F1121968C
:1022E000CB33D105B1F7612F87E390E0DF91CF9138
:1022F0001F91FF90EF900C941F11EF92FF921F938C
:10230000CF93DF9386ECE82E80E1F82EF70117EBF0
:102310008191180F80E1EE3CF807D1F767EB80E17F
:1023200090E00E941F11C1E1D0E0F70161917F01AF
:10233000CE010E941F112196C931D105B1F7612F3D
:1023400089E190E0DF91CF911F91FF90EF900C9485
:102350001F11EF92FF921F93CF93DF938FEBE82E25
:1023600080E1F82EF70112EB8191180F80E1E63C35
:10237000F807D1F762EB88E390E00E941F11C9E3F0
:10238000D0E0F70161917F01CE010E941F112196DB
:10239000C034D105B1F7612F80E490E0DF91CF9197
:1023A0001F91FF90EF900C941F110C94286F0F93C6
:1023B0001F93CF93DF93062FC82FD0E0CE010E944A
:1023C000D511182FCE0101960E94D511C82F802F4C
:1023D00090E00E94D511113D71F491ED9C0F89138D
:1023E0000AC0C33040F4C0934D0281E0DF91CF9129
:1023F0001F910F91089580E0F9CFAF92BF92CF92D5
:10240000DF92EF92FF920F931F93CF93DF93CDB79D
:10241000DEB72C970FB6F894DEBF0FBECDBF7C01A0
:10242000D42EC52EB62EA72EC901B80128EE33E052
:1024300040E050E00E9400729F938F937F936F93D0
:10244000AF92BF92CF92DF9280E794E09F938F93F9
:102450001F928CE08F939E012F5F3F4F69013F9346
:102460002F930E9463736EE270E0C6010E94427374
:102470000FB6F894DEBF0FBECDBF009711F1C8169E
:10248000D906F8F49601FC013197B9012E173F07E0
:1024900030F42F5F3F4FDB014C914033B1F386178F
:1024A000970711F461507109C616D70650F4FB0165
:1024B00001900020E9F7AF01461B570BC6010E94AF
:1024C0002973D6010D900020E9F711978D010C19A1
:1024D0001D0947E050E060E270E0C7010E943B73D5
:1024E00007301105F0F0F8013797EC0DFD1D87E07E
:1024F000D70101900D928A95E1F7D70117961C92AA
:102500002C960FB6F894DEBF0FBECDBFDF91CF91F2
:102510001F910F91FF90EF90DF90CF90BF90AF9001
:102520000895C701801B910BA801B60107960E9470
:102530002073E3CF1F920F920FB60F9211240BB6A8
:102540000F922F933F934F935F936F937F938F934C
:102550009F93AF93BF93EF93FF9380913E10909121
:102560003F10A0914010B0914110892B8A2B8B2BEA
:10257000E1F190913B10E0913C10F0913D10808191
:102580008927808380913E1090913F10A091401048
:10259000B0914110181619061A061B069CF480917A
:1025A0003E1090913F10A0914010B09141100197C2
:1025B000A109B10980933E1090933F10A093401061
:1025C000B0934110FF91EF91BF91AF919F918F9187
:1025D0007F916F915F914F913F912F910F900BBE23
:1025E0000F900FBE0F901F90189580914B020E9484
:1025F0003B0FE8CFFB0101900020E9F73197AF01D5
:10260000461B570BDC01ED91FC910280F381E02D1C
:1026100019946115710511F00C94FA1290E080E0A4
:1026200008950F931F93CF93809199128D7F80937C
:10263000991288600E945F4A08E91BE0C0E0E091BF
:102640009C12CE1790F1E150F0E0E757FD4E8489DF
:1026500080680E945F4AB80189E892E10E940913EC
:10266000CF5F0B5E1F4FC43051F7E0914002E43062
:10267000F0F48091EC0B90919C12E91710F0EFEFC1
:10268000E90FF0E0E757FD4E9489890F80680E94BA
:102690005F4A80919912982F9260909399128A6064
:1026A000CF911F910F910C945F4AEC2FCDCFCF911A
:1026B0001F910F910895AF92BF92CF92DF92EF9248
:1026C000FF920F931F93CF93DF9390914C02992326
:1026D00009F449C0833009F446C067017801E90173
:1026E0008A015B016EE476E089E291E10E940913C0
:1026F0006AE774E089E291E10E9409136CE476E0F4
:1027000089E291E10E940913B50189E291E10E94F9
:1027100009136CE476E089E291E10E940913B801A3
:1027200089E291E10E9409136BEA78E089E291E184
:102730000E940913BE0189E291E10E94091380E21F
:102740000E94654A4AE0C701B6010E945248DF91E3
:10275000CF911F910F91FF90EF90DF90CF90BF909E
:10276000AF900C941E48DF91CF911F910F91FF9075
:10277000EF90DF90CF90BF90AF900895EF92FF92CF
:102780000F931F9389E193E10E945D078AE093E133
:102790000E945D078BEF92E10E945D078CEE92E153
:1027A0000E945D078DED92E10E945D070E94420745
:1027B0008093140CE82EF12C10E000E02FE734E0B9
:1027C00043E854E067E874E082E00E945B131F91E5
:1027D0000F91FF90EF900895EF92FF920F931F9348
:1027E0002FB7F8944091CE105091CF106091D01037
:1027F0007091D1108091D4109091D510A091D610E5
:10280000B091D7101092CE101092CF101092D0101D
:102810001092D1101092D4101092D5101092D610A0
:102820001092D7102FBF14161506160617062CF097
:10283000181619061A061B067CF47A018B01E80E9D
:10284000F91E0A1F1B1F2AE834E040E954E063E93F
:1028500074E082E00E945B131F910F91FF90EF9054
:102860000895EF92FF920F931F93CF93DF93909170
:102870004C029923B1F18330A1F1E9018A017B0176
:102880006EE476E089E291E10E9409136AE774E060
:1028900089E291E10E9409136CE476E089E291E11A
:1028A0000E940913B70189E291E10E9409136CE4C7
:1028B00076E089E291E10E940913B80189E291E191
:1028C0000E9409136BEA78E089E291E10E94091302
:1028D000CE01DF91CF911F910F91FF90EF900C945B
:1028E0003F48DF91CF911F910F91FF90EF90089596
:1028F000CF92DF92EF92FF920F931F93CF93DF93CC
:10290000CDB7DEB72F970FB6F894DEBF0FBECDBFA1
:102910008C01C090E410D12CF12CE12CCC0CDD1CEE
:10292000EE1CFF1C80914A0C90E0B0E0A0E022E099
:10293000880F991FAA1FBB1F2A95D1F78C299D29A3
:10294000AE29BF29209131106C017D01C22A8091EE
:10295000470C90E0B0E0A0E033E0880F991FAA1F79
:10296000BB1F3A95D1F7C82AD92AEA2AFB2A8091B7
:10297000420C90E0B0E0A0E044E0880F991FAA1F4D
:10298000BB1F4A95D1F7C82AD92AEA2AFB2ACE01C9
:1029900001960E9439078D8190E0B0E0A0E055E0FB
:1029A000880F991FAA1FBB1F5A95D1F7C82AD92A89
:1029B000EA2AFB2A980147E954E067E874E082E0DC
:1029C0000E943114870176012CE934E047E954E094
:1029D00067E874E082E00E945B13E090E310F12C62
:1029E00010E000E020EA34E047E954E067E874E0F2
:1029F00082E00E945B13E090BD0FF090BE0F10E0EC
:102A000000E024EA34E047E954E067E874E082E05B
:102A10000E945B132F960FB6F894DEBF0FBECDBF9A
:102A2000DF91CF911F910F91FF90EF90DF90CF90AA
:102A3000089584E693E10E945D0785E593E10E9495
:102A40005D0786E493E10E945D0787E393E10E94BE
:102A50005D0788E293E10E945D0728EA34E041EBDC
:102A600054E067E874E082E00C9431140F931F93F4
:102A7000CF93DF93EC018B01FB01848195818075FD
:102A80009170409741F49E0141EB54E067E874E097
:102A900082E00E943114F801848182FF0CC09E0103
:102AA00045EB54E067E874E082E0DF91CF911F913D
:102AB0000F910C943114DF91CF911F910F910895D4
:102AC0000F931F93CF93DF938C01EA01FC01848164
:102AD000958180759170409759F481E0FB01808366
:102AE0009A0141EB54E067E874E082E00E943114FF
:102AF000F801848182FF0CC09E0145EB54E067E839
:102B000074E082E0DF91CF911F910F910C9431140A
:102B1000DF91CF911F910F910895CF93C091130C26
:102B2000CC23C9F08091B410811118C0C0918310DA
:102B3000C11114C09091980F8091970F98130EC0F7
:102B40001092130C2AEB34E040E954E063E974E09E
:102B500082E00E9431148C2FCF910895C1E0FBCF09
:102B60004F925F926F927F928F929F92AF92BF929D
:102B7000CF92DF92EF92FF920F931F93CF93DF9349
:102B8000CDB7DEB761970FB6F894DEBF0FBECDBFED
:102B90000E948D15882309F450C062ED74E080E036
:102BA0000E94311040E150E060E270E088E191E184
:102BB0000E943B7384E0E7EEF4E0A4E1B1E1019010
:102BC0000D928A95E1F70E948D0A809326110E944A
:102BD0006F0B809327111092281184E191E10097E7
:102BE00021F0BC0181E00E94790682E00E94F10E92
:102BF0000E94074984E191E1892B29F064E171E1A8
:102C000083E00E9479068FEF8093400261960FB6B1
:102C1000F894DEBF0FBECDBFDF91CF911F910F9112
:102C2000FF90EF90DF90CF90BF90AF909F908F90EC
:102C30007F906F905F904F9008950E941605162F19
:102C4000072F582E80913010883008F080E0E82F50
:102C5000F0E0ED5BFC4F90819F3F09F090C06CEE7F
:102C600074E08AE39BE00E944D7344EC54E0013031
:102C700031F04CEC54E0023011F448EC54E08FEFAA
:102C8000810F883008F0D2C0812F8150990BFC0150
:102C9000EE0FFF1FED5CFC4F8081918120E06AE325
:102CA0007BE00E94984884E191E1009721F0BC010B
:102CB00080E00E943110552009F4BBC091E01AE574
:102CC000812C912C5401951550F024E0529EF00176
:102CD0001124E65FFF4E80809180A280B3804090F7
:102CE0004D0240E150E060E270E089E29BE00E942A
:102CF0003B7384E0E1E0F5E0A5E2BBE001900D92DA
:102D00008A95E1F71093290BCE0101963C01411001
:102D100096C0B7FE90C08DE280932A0BB094A09429
:102D200090948094811C911CA11CB11CBF92AF9205
:102D30009F928F9286E095E09F938F931F9288E0F9
:102D40008F937F926F920E9463730FB6F894DEBFE9
:102D50000FBECDBF87E0F301ABE2BBE001900D9267
:102D60008A95E1F70E948D0A8093370B0E946F0BC2
:102D70008093380B1092390B65E27BE033CF92E001
:102D8000A92EB12C823039F021E090E0813009F099
:102D900020E0A22EB92E0E94EB09A114B104E9F49F
:102DA00020E030E040E05FE30E943F6F0E94297026
:102DB0007F936F9382EF94E09F938F931F9280E1B4
:102DC0008F938AE39BE09F938F930E9463730FB668
:102DD000F894DEBF0FBECDBF48CFAA94AB2809F050
:102DE00044CF20E030E048EC52E40E940F7120E034
:102DF00030E040E05FE30E943F6F0E942970CB010A
:102E000064E670E00E94EC719F938F937F936F93C1
:102E100087EF94E09F938F931F9280E18F938AE3D3
:102E20009BE09F938F930E946373D1CF80ED94E0DA
:102E300035CF18E54ACF80E280932A0B77CFCE01B9
:102E400041966C0108977C018E01035F1F4F242D72
:102E5000452DC501B4010E94770B09851A852B8584
:102E60003C854D855E856F857889C3010E94FD1183
:102E7000898987FD04C080E280932A0B6BCF8DE2A5
:102E8000FBCFEF92FF920F931F93CF930E943311CA
:102E900090E080E00E94D511082F81E090E00E9430
:102EA000D511C82F82E090E00E94D511182F83E041
:102EB00090E00E94D511053A61F596EF9C0F9B3585
:102EC00040F5123030F5C10FCB558C1322C0E09085
:102ED0000002F12C10E000E02CE035E041E155E08B
:102EE00066E175E082E00E945B13E0904E02F12CF7
:102EF00010E000E02AE135E041E155E066E175E0EF
:102F000082E00E945B13CF911F910F91FF90EF9091
:102F100008952FE135E041E155E066E175E082E09A
:102F2000CF911F910F91FF90EF900C94311485EE8B
:102F300090E10E947609811102C00E9445090E9419
:102F400051112BE235E041E355E066E175E082E0A6
:102F50000C94311486EC90E10E94770A811102C032
:102F60000E945F0A0E947D112BE235E046E355E0A6
:102F700066E175E082E00C943114CF9380914D02AC
:102F8000833018F081E080934D02C0914D02CF5202
:102F900061ED86E490E00E941F1160914D0287E48C
:102FA00090E00E941F116C2F88E490E00E941F1196
:102FB0002BE235E04BE355E066E175E082E0CF912E
:102FC0000C9431140E944A0B8FEB90E10E942D0B60
:102FD000811102C00E94230B0E94A9112BE235E04F
:102FE00040E954E066E175E082E00C9431141F92F0
:102FF0000F920FB60F9211240BB60F922F933F939F
:103000004F935F936F937F938F939F93AF93BF93F0
:10301000EF93FF9389E291E10E94A203FF91EF9168
:10302000BF91AF919F918F917F916F915F914F91E0
:103030003F912F910F900BBE0F900FBE0F901F90DE
:1030400018951F920F920FB60F9211240BB60F9284
:103050002F938F939F93EF93FF93E0913911F0910A
:103060003A118081E0913F11F091401182FD1DC025
:103070009081809142118F5F8F732091431182174D
:1030800041F0E0914211F0E0E75DFE4E958F8093B4
:103090004211FF91EF919F918F912F910F900BBE55
:1030A0000F900FBE0F901F9018958081F2CFCF9296
:1030B000DF92EF92FF920F931F93CF93DF936C01F8
:1030C0007C0187E0E80EF11CD0E0C0E0062F10E0A4
:1030D000B8010C2E02C0759567950A94E2F76170ED
:1030E000F70181917F010E94AC562196C430D10531
:1030F00079F7C601DF91CF911F910F91FF90EF906B
:10310000DF90CF900C94800FCF92DF92EF92FF92DE
:103110000F931F93CF93DF93EC01F62E642F8C81D6
:103120000E94AC568D818F3F19F060E00E94AC5632
:103130000F2D10E08F8584FF25C06E0187E0C80E3B
:10314000D11CF12CE12CB8010E2C02C075956795AD
:103150000A94E2F76170F60181916F010E94AC560A
:10316000FFEFEF1AFF0A88E0E816F10461F7CE01DD
:10317000DF91CF911F910F91FF90EF90DF90CF9053
:103180000C94800FB80184E0759567958A95E1F7F6
:10319000CE010E9457186F2DCE01DF91CF911F9164
:1031A0000F91FF90EF90DF90CF900C94571841E073
:1031B0000E94841881E090E008950F931F930E946D
:1031C000660700919C0F10919D0F20919E0F3091EA
:1031D0009F0F601B710B820B930B1F910F91089532
:1031E0000F931F93CF93DF930091430210914402FA
:1031F000C0914102D09142020E94DD189801AE01B7
:103200000E94A8049F772AE037ED43E25CE30E9426
:10321000AB6F881F8827881F8093A60FDF91CF91FF
:103220001F910F9108954F925F926F927F928F92AC
:103230009F92AF92BF92CF92DF92EF92FF920F9345
:103240001F93CF93DF930E948D15882309F451C0FB
:1032500062ED74E080E00E94311040E150E060E2F5
:1032600070E088E191E10E943B7384E0E7EEF4E0D6
:10327000A4E1B1E101900D928A95E1F70E948D0AD7
:10328000809326110E946F0B8093271110922811B2
:1032900084E191E1009721F0BC0181E00E94790670
:1032A0000E944E498FEF90E1009721F0BC0182E02F
:1032B0000E9431100E94074984E191E1892B29F095
:1032C00064E171E183E00E9479068FEF8093400210
:1032D000DF91CF911F910F91FF90EF90DF90CF90F2
:1032E000BF90AF909F908F907F906F905F904F9026
:1032F00008950E941605EB010E94DD180E946604E5
:103300004B015C010E9429708B0190E080E00E94DB
:1033100058709B01AC01C501B4010E943E6F20E0D2
:1033200030E048EC52E40E940F7120E030E040E0D1
:103330005FE30E943F6F0E9429706436710520F0A0
:103340000F5F1F4F70E060E0083681E0180710F053
:1033500010E000E07F936F931F930F938FE395E04E
:103360009F938F931F9288E08F938DE19BE09F93B3
:103370008F930E9463738DB79EB70A960FB6F89429
:103380009EBF0FBE8DBF44EC54E0D13031F04CEC09
:1033900054E0D23011F448EC54E08FEF8C0F8830B9
:1033A00008F07BC08C2F8150990BFC01EE0FFF1FA2
:1033B000ED5CFC4F8081918121E06DE17BE00E941A
:1033C000984884E191E1009721F0BC0180E00E94DF
:1033D000311000914302F0904402C09141021091DB
:1033E00042020E94DD18202F3F2D4C2F512F0E94AA
:1033F000A8044B015C012B013C01E89477F8C30160
:10340000B2010E942970D62FE72E20E030E048EC70
:1034100052E4C301B2010E940F7120E030E040E0AD
:103420005FE30E943F6F0E942970CB0164E670E069
:103430000E94EC71D82EC92E20E030E0A901C50110
:10344000B4010E940A7187FF2BC08DE2CF92DF92F8
:10345000EF92DF931F928F93FF920F931F93CF935F
:1034600089E495E09F938F931F9285E18F9388E085
:103470009BE09F938F930E94637368E07BE081E001
:103480000E9431100E944E498DB79EB740960FB6EC
:10349000F8949EBF0FBE8DBF05CF80ED94E08CCF1A
:1034A0008BE2D4CF8A3170F4E82FF0E0EE0FFF1FEB
:1034B000E750FD4F0190F081E02D309719F08081A9
:1034C000918108958550863170F4E82FF0E0EE0F79
:1034D000FF1FE353FD4F0190F081E02D309719F06D
:1034E000808190E0089590E080E00895CF93C82F08
:1034F0000E94521A28E0C29FF0011124ED5AFC4F9D
:103500002281338121303105F9F464E670E00E94B4
:10351000EC719F938F937F936F9389EF94E09F93C8
:103520008F931F9289E08F938AED90E19F938F9301
:103530000E9463738DB79EB70A960FB6F8949EBF2C
:103540000FBE8DBFCF91089523303105C1F49F93F5
:103550008F9381E598E09F938F931F9289E08F93DB
:103560008AED90E19F938F930E9463738DB79EB70E
:1035700008960FB6F8949EBF0FBE8DBFE3CF9F9302
:103580008F9381E598E09F938F931F9289E08F93AB
:103590008AED90E19F938F930E9463738DB79EB7DE
:1035A00008960FB6F8949EBF0FBE8DBFCBCF81E0BB
:1035B0008093E4108091E3100E94761A0E948E0599
:1035C0008EE595E00C947814CF92DF92EF92FF9203
:1035D0000F931F93CF93DF9300D000D01F921F92C1
:1035E000CDB7DEB7D82E1091E31048E0149FF0015C
:1035F0001124ED5AFC4F8281938182309105C9F5E7
:10360000812F0E94521A813009F418C1823009F4C6
:1036100022C1843009F421C1883009F420C18031ED
:1036200009F41FC1803209F400C15FEFE6E0D5164E
:1036300009F40FC1F0E0E35DFC4F608170E0812F81
:103640000E9459068091E3100E94761A0E948E050E
:1036500028960FB6F894DEBF0FBECDBFDF91CF9195
:103660001F910F91FF90EF90DF90CF900895EF5F43
:10367000E1CF8330910551F4812F0E94521A61E00D
:1036800070E0892BE1F270E060E0D9CFC090480C87
:103690002C2D30E0F901E652FF4E7F01108120ED24
:1036A000210F2A30A8F6019709F094C00E94FA0D64
:1036B000082FF1E0882381F0DF1208C0193311F0E0
:1036C0001F5F01C010E3F7011083C2CF103311F068
:1036D0001150F9CF19E3F7CFDF1237C0193389F54D
:1036E00080E3F70180830E94CD0F6EE270E08AEDE7
:1036F00090E10E944273009709F48DC0FC01318172
:1037000020ED230F2A3008F030E3FC01228140ED48
:10371000420F4A3008F020E3EAEDF0E1E817F9073C
:1037200058F5073070F5419150ED540F5A30B0F70D
:10373000A1E0B0E0AC0FBD1FA00FB11D4C930F5F17
:10374000EDCF1F5FF7011083D0CF103399F40E94A3
:103750000C0E882309F47CCFEC2DF0E0E652FF4EEE
:103760008081882321F081818083C394F5CF0E94DA
:10377000A105BBCF1150E6CF011103C080E38983BF
:1037800001E0CE010196FC01E00FF11D1082422FF5
:10379000022E000C550B5F932F93432F032E000C2A
:1037A000550B5F933F939F938F9383E695E09F9391
:1037B0008F931F9289E08F938AED90E19F938F936F
:1037C0000E9463730E94A1050FB6F894DEBF0FBE7E
:1037D000CDBF3ECF51E0D51208C0193309F070CFEC
:1037E00080E380830E94CD0F33CF103309F070CF78
:1037F0000E940C0E882309F42BCFEC2DF0E0E6524A
:10380000FF4E8081882321F081818083C394F5CF8E
:103810000E94A1051DCF8AED90E1FC0101900020DE
:10382000E9F7CF01019730E376CFF1E0DF1621F021
:103830005FEFE5E0D51669F0E5E0FCCEE0E041E0C1
:10384000D41609F414CF8FEFD812F4CEEE2309F476
:10385000F1CEE150EFCEE1E0F2CFE2E0F0CFE3E0F5
:10386000EECFE4E0ECCF8FB7F894E3E8F0E110821C
:1038700012821382A1E7B0E151961C925197EFE5B5
:10388000F0E1118A14961D921D921D921C921797B9
:1038900014821582168217828FBF08951092970F97
:1038A0001092980F1092B4101092130C0C94331CB9
:1038B00080918310882329F081E0909185109111E7
:1038C00001C080E00895EFE5F0E1811102C0E1E779
:1038D000F0E10FB607FC05C0648575858685978580
:1038E00008952FB7F89464857585868597852FBFD1
:1038F0000895EFE5F0E1811102C0E1E7F0E10FB6D4
:1039000007FC05C0448755876687778708958FB77A
:10391000F89444875587668777878FBF0895EFE5CA
:10392000F0E1811102C0E1E7F0E10FB607FC09C048
:103930004087518762877387448755876687778773
:1039400008958FB7F89440875187628773874487BB
:103950005587668777878FBF0895EFE5F0E181117E
:1039600002C0E1E7F0E10FB607FC05C06085718594
:103970008285938508952FB7F89460857185828537
:1039800093852FBF0895CF92DF92EF92FF920F930E
:103990001F93CF939091A90F911155C0843008F0D7
:1039A00052C0282F30E0F901EC56F44F9081992352
:1039B00009F449C08D7FC1E009F0C0E0220F331F38
:1039C000220F331FF901EC57F44FC080D180E28001
:1039D000F3808C2F0E94AD1C6C157D058E059F0514
:1039E00091F1C093AF0FC092AB0FD092AC0FE092A9
:1039F000AD0FF092AE0F81E08093BB0F1092BA0F23
:103A00008093B90F8BE0C89FF0011124EB51FF4E5A
:103A10006781708590E080E00E9458708B019C0166
:103A2000B701A6018C2F0E948F5380914C028823EE
:103A300051F09701860143E958E06BE675E081E7B4
:103A400095E00E941256CF911F910F91FF90EF9039
:103A5000DF90CF900895CF93DF9380E00E94AD1C5C
:103A6000C7E5D0E1688379838A839B8381E00E94E4
:103A7000AD1C6C837D838E839F83DF91CF910895EE
:103A80008F929F92AF92BF92CF92DF92EF92FF926E
:103A9000CF93CFB7F8940E94331C0E94EC1380E0C0
:103AA0000E94AD1C4B015C0181E00E94AD1C6B01CA
:103AB0007C01B501A40180E00E94791CB701A60138
:103AC00081E00E94791CCFBF1092B4101092551063
:103AD000109256101092B40F1092360C1092370CB0
:103AE0001092380C1092390CCF91FF90EF90DF902C
:103AF000CF90BF90AF909F908F900C942B1DCF9341
:103B0000823080F49091B50F981761F0C82F0E9411
:103B10008D15882349F0C093B50F0E949B0682E063
:103B20008093560BCF9108950E94401D0E949B06E2
:103B3000C093B50FF4CF1F93CF93DF93182F84E07A
:103B4000189FE0011124FE01E65FFF4E10821182F2
:103B500012821382812F0E94AD1CC95ADF4E6883E6
:103B600079838A839B838091B50F811304C010925F
:103B700056101092B40FDF91CF911F910C94AE06A6
:103B8000CF938091BB0F882399F01092BB0F1092B6
:103B9000BA0F1092B90F0E94331CC091AF0F8C2F37
:103BA0000E94AD1CAB01BC018C2FCF910C94791CF1
:103BB000CF9108958091BD0F9091BE0F0497D1F0E1
:103BC00084E090E09093BE0F8093BD0F0E944E1C46
:103BD0000E94EC1380E00E94AD1CAB01BC0180E0B0
:103BE0000E94791C81E00E94AD1CAB01BC0181E008
:103BF0000C94791C08956091BD0F7091BE0FE9E996
:103C0000F2E041EC52E0208131816217730719F034
:103C10002530310529F4228133818217930731F051
:103C200035964E175F0779F70C94DA1D9093BE0F07
:103C30008093BD0F0895EF92FF920F931F93CF9340
:103C4000883020F5E82FF0E08827E65DF14E8F4FB1
:103C50000C944172321E561E6B1E801E8D1E911ECC
:103C6000941EC71E65E775E080E00E94311060E891
:103C700075E081E00E94311064E875E082E00E9406
:103C800031106EE875E083E00E9431108091BD0F25
:103C90009091BE0F892B09F09AC081E090E0CF91FE
:103CA0001F910F91FF90EF900C94FB1D81E080938A
:103CB000A80F66E775E080E00E94311064E975E0C6
:103CC00081E00E94311062EA75E082E00E943110CA
:103CD00069EA75E0D8CF81E08093A70F6FEA75E0BD
:103CE00080E00E9431106BEB75E081E00E943110A2
:103CF00062EA75E082E00E94311068EC75E0C3CFA3
:103D000065ED75E080E00E9431106DED75E081E0B9
:103D10000E94311067EE75E0D8CF62EF75E080E069
:103D2000B3CF67EF75E0FBCFC1E0C093181081E01F
:103D300090E09093420280934102909344028093DA
:103D400043020E94660760939C0F70939D0F8093BF
:103D50009E0F90939F0F0E946607609314107093BC
:103D600015108093161090931710C09349020E946B
:103D7000F018E12CF12C8701E3942EEF35E040E0C0
:103D800056E066E076E082E00E945B137FCF81E040
:103D900080939B0F10929A0F1092990F6AE076E031
:103DA00080E00E94311065E176E081E00E943110F0
:103DB00064E276E082E00E94311069EA75E083E017
:103DC0000E94311081E090E00E94FB1D5FCFCF91F7
:103DD0001F910F91FF90EF9008952F923F924F9275
:103DE0005F926F927F928F929F92AF92BF92CF928B
:103DF000DF92EF92FF920F931F93CF93DF93CDB794
:103E0000DEB72C970FB6F894DEBF0FBECDBF809102
:103E10008510882309F4F8C08091B0109091B110FA
:103E2000A091B210B091B3104090AC105090AD1072
:103E30006090AE107090AF10481659066A067B0667
:103E400010F42C013D01411451046104710421F46A
:103E5000412C512C32014394A0909810B0909910AD
:103E6000C0909A10D0909B10A986BA86CB86DC862B
:103E70002091AC103091AD104091AE105091AF1028
:103E8000211531054105510509F4E5C0C601B5010B
:103E90000E946B7263015201E12CF12C870149826F
:103EA000BA826B82DC82ED82FE820F831887E12C5E
:103EB000F12C00E010E00E949872F22FE32F8F2F78
:103EC0009E2FA42FB52F0097A105B10521F481E005
:103ED00090E0A0E0B0E06C017D0100E010E098010E
:103EE0008983DA82AB83FC820D831E832F8338871C
:103EF0009C01AD0160E070E080E090E00FE10E9485
:103F0000F572AFE5AA2EB6E7BB2EC12CD12CE12C61
:103F1000F12C00E010E00E9498722093751030930D
:103F2000761040937710509378102091B010309114
:103F3000B1104091B2105091B310211531054105D7
:103F4000510509F491C069857A858B859C850E940D
:103F50006B72120151016301E12CF12C00E010E0C1
:103F60000E949872F22FE32F8F2F9E2FA42FB52F30
:103F70000097A105B10521F481E090E0A0E0B0E058
:103F80007C018D0120E030E0A9018983FA82AB83B6
:103F90001C832D833E834F8358879C01AD0160E0D5
:103FA00070E080E090E00FE10E94F572EFE5AE2E48
:103FB000F6E7BF2EC12CD12CE12CF12C00E010E053
:103FC0000E949872209363103093641040936510A0
:103FD000509366102C960FB6F894DEBF0FBECDBF7F
:103FE000DF91CF911F910F91FF90EF90DF90CF90D5
:103FF000BF90AF909F908F907F906F905F904F9009
:104000003F902F900C94E6084090881050908910B3
:1040100060908A1070908B104114510461047104F7
:1040200009F01ACF2C960FB6F894DEBF0FBECDBFA5
:10403000DF91CF911F910F91FF90EF90DF90CF9084
:10404000BF90AF909F908F907F906F905F904F90B8
:104050003F902F9008951092751010927610109244
:1040600077101092781061CF109263101092641044
:104070001092651010926610ADCF2F923F924F9222
:104080005F926F927F928F929F92AF92BF92CF92E8
:10409000DF92EF92FF920F931F93CF93DF93CDB7F1
:1040A000DEB768970FB6F894DEBF0FBECDBF698745
:1040B0007A878B879C8729013A012EA53FA548A9BD
:1040C00059A92D873E874F87588B672B682B692B03
:1040D00041F481E090E0A0E0B0E089879A87AB8767
:1040E000BC87411451046104710421F4412C512C0A
:1040F00032014394E114F1040105110521F4E12C8E
:10410000F12C8701E394A114B104C104D10421F47A
:10411000A12CB12C6501A3942D853E854F8558892E
:10412000232B242B252B41F481E090E0A0E0B0E08C
:104130008D879E87AF87B88B49825A826B827C823B
:10414000E414F5040605170520F4E982FA820B83CE
:104150001C83498A5A8A6B8A7C8AA414B504C604D3
:10416000D70420F4A98ABA8ACB8ADC8A09811A8109
:104170002B813C81041515052605370508F09AC1E9
:10418000C301B201A30192010E946B7259016A013D
:104190001B014C0169817A818B819C819B01AC015F
:1041A0000E946B72B22FA32FF42FE52F7B018C019D
:1041B0009501A601B101C401AB2EBA2ECF2EDE2E81
:1041C0000E940E7319014A01B62FA72FF82FE92F6D
:1041D0002D853E854F85588960E070E080E090E055
:1041E00001E00E94F57259016A017B018C01910185
:1041F000A4016B2F7A2F8F2F9E2F0E9498722D83F0
:104200003E834F83588789899A89AB89BC898415F5
:104210009505A605B70508F080C0C301B201A3014A
:1042200092010E946B722D8B3E8B4F8B588F1B011E
:104230004C0169897A898B899C899B01AC010E9418
:104240006B7259016A017B018C012D893E894F896E
:10425000588DB101C4010E940E7319014A01B62F95
:10426000A72FF82FE92F2D853E854F85588960E0CF
:1042700070E080E090E001E00E94F57259016A016F
:104280007B018C019101A4016B2F7A2F8F2F9E2F20
:104290000E949872F22FE32F8F2F9E2FA42FB52FFD
:1042A0004D815E816F817885480F591F6A1F7B1F82
:1042B00009851A852B853C854017510762077307CE
:1042C00008F4E1C029813A814B815C81CA01B901BE
:1042D0000E94DC716B017C0129853A854B855C85E8
:1042E0006D857E858F8598890E94DC719701860196
:1042F000060F171F281F391F80E090E0A0E0B0E4F0
:10430000081719072A073B0760F442E0B695A795FE
:10431000979587954A95D1F7F3CF80E090E0DC013F
:10432000BFCF40E050E0BA010097A105B105F9F018
:104330006C017D01C40ED51EE61EF71E76956795AD
:10434000579547950C151D052E053F0540F00C1996
:104350001D092E093F09480F591F6A1F7B1FE2E004
:10436000B695A79597958795EA95D1F7DDCF898181
:104370009A81AB81BC8184179507A607B70710F413
:10438000DB01CA0184159505A605B70510F42C01BB
:104390003D0189859A85AB85BC85B695A79597958E
:1043A00087958093901090939110A0939210B09362
:1043B00093108093941090939510A0939610B093BF
:1043C000971029853A854B855C852093881030931A
:1043D000891040938A1050938B1010928C10109279
:1043E0008D1010928E1010928F1040929C1050924F
:1043F0009D1060929E1070929F1089819A81AB816E
:10440000BC818093A0109093A110A093A210B093B0
:10441000A31009891A892B893C890093A410109351
:10442000A5102093A6103093A71080939810909316
:104430009910A0939A10B0939B102D853E854F85BF
:1044400058892093A8103093A9104093AA10509334
:10445000AB1068960FB6F894DEBF0FBECDBFDF91EC
:10446000CF911F910F91FF90EF90DF90CF90BF9071
:10447000AF909F908F907F906F905F904F903F9004
:104480002F900C94ED1E2D813E814F8158852093F5
:10449000901030939110409392105093931009858F
:1044A0001A852B853C85081B190B2A0B3B0BD90160
:1044B000C8017FCF1D821E821F821886A4CECF9294
:1044C000DF92EF92FF920F931F93CF93DF938A01B6
:1044D000D62FC72F811181E09BE0899FF001112425
:1044E000EB51FF4E6581768190E080E00E9458702C
:1044F0006B017C0120E030E040E85FE3B8018D2FE4
:104500009C2F0E94AB6F87FF04C000E010E0D0E852
:10451000CFE39601A701B8018D2F9C2F0E940A714D
:1045200018161CF48601DE2DCF2DB8018D2F9C2F7F
:10453000DF91CF911F910F91FF90EF90DF90CF907F
:1045400008950F931F93CF93C82F0E94AD1C209105
:1045500056101216A4F424E0C29FF0011124E95A67
:10456000FF4E00811181228133810617170728072A
:104570003907B4F4608371838283938311C022234B
:1045800079F024E0C29FF0011124E95AFF4E008126
:10459000118122813381601771078207930754F3D9
:1045A000CF911F910F910895CF92DF92EF92FF92DA
:1045B0000F931F93CF93DF93811181E0C82FD0E039
:1045C0006623E9F08BE08C9FF0018D9FF00D1124A4
:1045D000EB51FF4E6781708590E080E00E9458703B
:1045E0008B01D82FC92FB8018D2F9C2FDF91CF9130
:1045F0001F910F91FF90EF90DF90CF9008950E9450
:10460000FF096B017C0120E030E040E251E40E94B0
:10461000AB6F87FF06C0C12CD12C80E2E82E91E45D
:10462000F92E8BE08C9FF0018D9FF00D1124EB5142
:10463000FF4E6581768190E080E00E9458708B018A
:10464000D82FC92F9B01482F592FB601C7010E94AF
:104650000A71181644F28601DE2DCF2DC4CF4F9279
:104660005F926F927F92AF92BF92CF92DF92EF9262
:10467000FF920F931F93CF93DF937C01142FFB01C5
:104680008481958182FF14C1970145EB54E067E86E
:1046900074E082E00E9431141111E5C180911D1374
:1046A00085FD08C080910E13C1E085FD04C080E047
:1046B000C0E002C0CFEF81E09091FF1295FD1DC2D6
:1046C0009091F01295FD1DC2882331F1CC2321F188
:1046D000C13021F5D1E0813009F4D2E0CD2ED12CCA
:1046E00096012C56344F5901F90190819923A1F07C
:1046F0000E94AD1CCC0CDD1CCC0CDD1CF601EC5773
:10470000F44F4080518062807380C13061F4641541
:1047100075058605970574F0C1E0A9C1D3E0813025
:10472000E9F6D0E0DBCFCF3F29F4461657066806FE
:10473000790694F797014EE256E067E874E082E06C
:104740000E9431148091A90F811140C0F501808130
:104750008823E1F1C1E0D0FDC0E0F601EC57F44F51
:10476000C080D180E280F3808C2F0E94AD1C6C153C
:104770007D058E059F0551F1C093AF0FC092AB0F21
:10478000D092AC0FE092AD0FF092AE0F81E080932B
:10479000BB0F8093BA0F1092B90F60E08C2F0E946C
:1047A000D4228B019C01B701A6018C2F0E948F534C
:1047B00080914C02882351F09701860143E958E02B
:1047C0006EE276E081E795E00E941256DF91CF918C
:1047D0001F910F91FF90EF90DF90CF90BF90AF901F
:1047E0007F906F905F904F9008952091940B2223BB
:1047F000A1F0C090840BD090850BE090860BF090D8
:10480000870BC61AD70AE80AF90AC092840BD0921D
:10481000850BE092860BF092870B2091960B22235A
:10482000A1F0C0908C0BD0908D0BE0908E0BF0908F
:104830008F0BC61AD70AE80AF90AC0928C0BD092DD
:104840008D0BE0928E0BF0928F0B8C2F0E949E4A64
:10485000EC2FF0E0EE0FFF1FEE0FFF1FE65FFF4EA5
:1048600010821182128213820E94AE068C2F0E9447
:10487000804AE12FF0E0EE0FFF1FEF53FD4F208144
:10488000318144E356E067E874E082E00E9431142D
:10489000DF91CF911F910F91FF90EF90DF90CF901C
:1048A000BF90AF907F906F905F904F900C94960F59
:1048B00080759170409709F089CF8091E11297013E
:1048C00085FF18C04BE655E067E874E082E00E947F
:1048D0003114812FDF91CF911F910F91FF90EF90B5
:1048E000DF90CF90BF90AF907F906F905F904F9090
:1048F0000C94C31C41EB54E067E874E082E00E9432
:104900003114C12FD0E09E012C56344F5901F901CA
:104910008081882329F11082C753DD4F61E08881AF
:104920000E94AC5629E336E04DE655E067E874E0B6
:1049300082E00E94311480914E02882309F446CF10
:10494000DF91CF911F910F91FF90EF90DF90CF906B
:10495000BF90AF907F906F905F904F900C94EB0E54
:10496000812F8D7F09F046C081E00E94AD1C6B0154
:104970007C01112309F452C0123009F040C080912B
:10498000940B882371F08091840B9091850BA091FA
:10499000860BB091870B8C159D05AE05BF050CF0FD
:1049A00015CF81E0F5018083FE01EE0FFF1FEE0FB2
:1049B000FF1FEC57F44FC082D182E282F38260E0A5
:1049C000FE01E753FD4F80810E94AC5680914C025E
:1049D000882309F4B0CFCC0FDD1FCF53DD4F4881C2
:1049E0005981970186016DE675E087E894E00E94A1
:1049F0001256A1CF80E00E94AD1C6B017C011130EA
:104A000009F58091970B882361F28091900B90912A
:104A1000910BA091920BB091930BBDCF8091960B0F
:104A2000882309F4BECF80918C0B90918D0BA091BF
:104A30008E0BB0918F0BC816D906EA06FB060CF454
:104A4000B0CFC4CE133009F0ACCF8091950B882342
:104A500009F4A7CF8091880B9091890BA0918A0BC4
:104A6000B0918B0BE8CFC1E0123009F0C0E08C2F81
:104A70000E94AD1C2091BB0F222351F02091AF0F5B
:104A8000C21306C01092BB0F1092BA0F1092B90F4A
:104A9000C13009F4AACE2091950B2223A1F0C09039
:104AA000880BD090890BE0908A0BF0908B0BC61A84
:104AB000D70AE80AF90AC092880BD092890BE092D3
:104AC0008A0BF0928B0B2091970B222309F4BDCE19
:104AD000C090900BD090910BE090920BF090930BC4
:104AE000C61AD70AE80AF90AC092900BD092910B25
:104AF000E092920BF092930BA8CEC1E081110CCE04
:104B0000E7CDCFEFFBCFCF92DF92EF92FF920F93E3
:104B10001F936A017B018130B1F48091940B88234B
:104B200009F447C06091840B7091850B8091860BCE
:104B30009091870B2091960B21111EC000E814E87C
:104B40002EE130E021C08091970B8823B9F160916C
:104B5000900B7091910B8091920B9091930B2091FF
:104B6000950B222359F30091880B1091890B20910A
:104B70008A0B30918B0B08C000918C0B10918D0B20
:104B800020918E0B30918F0BC616D706E806F906DA
:104B90004CF0C701B601061717072807390714F4A8
:104BA000C901B8011F910F91FF90EF90DF90CF9056
:104BB000089560E87BE781EE9FEFBCCF60E87BE77C
:104BC00081EE9FEFCCCF7F928F929F92AF92BF9258
:104BD000CF92DF92EF92FF920F931F93CF93DF93C9
:104BE000411551056105710509F442C0722E94E02A
:104BF000899FE0011124FE01E95AFF4E80809180D7
:104C0000A280B3806A017B01C80CD91CEA1CFB1C82
:104C100021113CC0B701A6010E948325FE01E95A7B
:104C2000FF4E6083718382839383711008C0C61620
:104C3000D706E806F90619F081E0F8018083FE0145
:104C4000E65FFF4EC95ADF4E88819981AA81BB81F8
:104C500088199909AA09BB09408151816281738130
:104C6000840F951FA61FB71F80839183A283B383F0
:104C7000DF91CF911F910F91FF90EF90DF90CF9038
:104C8000BF90AF909F908F907F900895C701B6011D
:104C9000C5CF0F931F93CF93C82F0E94AD1CC11196
:104CA00027C02091970B222369F00091900B10915F
:104CB000910B2091920B3091930B06171707280741
:104CC0003907D1F12091950B2223D1F10091880B66
:104CD0001091890B20918A0B30918B0B06171707C7
:104CE0002807390769F586E4CF911F910F91089540
:104CF0002091940B222369F00091840B1091850B75
:104D00002091860B3091870B061717072807390764
:104D1000A9F02091960B222399F000918C0B109111
:104D20008D0B20918E0B30918F0B061717072807DC
:104D3000390731F48EE3D8CF82E4D6CF8CE3D4CFD9
:104D400080E2D2CF1F93CF93DF930E941605162FD8
:104D5000D72FC82F0E948D15809319108091301085
:104D600080931A1010931B10D0931C10C0931D1029
:104D700080E00E94AD1C60931E1070931F10809302
:104D800020109093211081E00E94AD1C60932210AE
:104D900070932310809324109093251080E00E943C
:104DA00049268093261081E00E944926809327108F
:104DB00080E090E0DC01C23050F484E0C89FF00154
:104DC0001124E65FFF4E80819181A281B38180939F
:104DD000281090932910A0932A10B0932B10809143
:104DE00012109091131090932D1080932C1080919D
:104DF000BF1080932E10DF91CF911F910895CF9314
:104E0000CFB7F8949091250D9F5F93707091260D08
:104E10007917F9F0A091250DE6E0EA9FD001112461
:104E2000A35FB24F8C93A091250DEA9FD00111246E
:104E3000A35FB24F11966C938091250DE89FF0010E
:104E40001124E35FF24F228333834483558390938D
:104E5000250DCFBFCF9108951F920F920FB60F92DD
:104E600011240BB60F922F933F934F935F936F9341
:104E70007F938F939F93AF93BF93EF93FF930E9482
:104E80001113FF91EF91BF91AF919F918F917F91FE
:104E90006F915F914F913F912F910F900BBE0F90AB
:104EA0000FBE0F901F9018951F920F920FB60F9282
:104EB00011240BB60F922F933F934F935F936F93F1
:104EC0007F938F939F93AF93BF93EF93FF930E9432
:104ED000F70FFF91EF91BF91AF919F918F917F91CC
:104EE0006F915F914F913F912F910F900BBE0F905B
:104EF0000FBE0F901F9018951F920F920FB60F9232
:104F00001124A8950F900FBE0F901F9018951F9217
:104F10000F920FB60F9211240BB60F922F933F935F
:104F20004F935F936F937F938F939F93AF93BF93B1
:104F3000EF93FF930E9472078091D50F9091D60F47
:104F4000A091D70FB091D80FFF91EF91BF91AF9182
:104F50009F918F917F916F915F914F913F912F9191
:104F60000F900BBE0F900FBE0F901F9018951F92C1
:104F70000F920FB60F9211248F939F93AF93BF930D
:104F80004A991EC04B9913C08091320C9091330CFA
:104F9000A091340CB091350C0197A109B10980930F
:104FA000320C9093330CA093340CB093350CBF911A
:104FB000AF919F918F910F900FBE0F901F901895FA
:104FC0004B99F5CF8091320C9091330CA091340C19
:104FD000B091350C0196A11DB11DE1CF1F920F922A
:104FE0000FB60F9211240BB60F922F933F934F934E
:104FF0005F936F937F938F939F93AF93BF93EF9341
:10500000FF930E947207FF91EF91BF91AF919F9123
:105010008F917F916F915F914F913F912F910F9061
:105020000BBE0F900FBE0F901F901895CF92DF927E
:10503000EF92FF92CF93DF93811181E09BE0899FF4
:10504000E0011124CB51DF4E6881798190E080E04E
:105050000E9458706B017C016A8170E090E080E0F2
:105060000E9458709B01AC01C701B6010E940F71EC
:105070006B017C016B817C8190E080E00E94587024
:105080002AE037ED43E25CE30E940F719B01AC0123
:10509000C701B6010E94B06FDF91CF91FF90EF90F2
:1050A000DF90CF9008954F925F926F927F928F9290
:1050B0009F92AF92BF92CF92DF92EF92FF920F93A7
:1050C0001F93CF93DF93CDB7DEB72C970FB6F8942D
:1050D000DEBF0FBECDBF90918310992309F4A3C00A
:1050E00090918510992309F48DC04091B010509192
:1050F000B1106091B2107091B310A090AC10B0904C
:10510000AD10C090AE10D090AF10A986BA86CB86F5
:10511000DC86A416B506C606D70620F449875A874A
:105120006B877C87C984DA84EB84FC84CD28CE2805
:10513000CF2841F4E12CF12C8701E394E986FA862B
:105140000B871C878090981090909910A0909A10CF
:10515000B0909B1004E0809FF0011124ED57FF4EAA
:10516000C1A4D2A4E3A4F4A40E9416282B013C01FC
:1051700020E030E040E85FE30E94AB6F87FD53C062
:10518000C501B401A70196010E946B72C984DA843B
:10519000EB84FC8456016701E12CF12C8701A98284
:1051A000BA82CB82DC82ED82FE820F831887E12CEB
:1051B000F12C00E010E00E949872B901CA010E942F
:1051C000587020E030E040E752E40E940F71A301E4
:1051D00092010E94B06F2C960FB6F894DEBF0FBEFE
:1051E000CDBFDF91CF911F910F91FF90EF90DF9096
:1051F000CF90BF90AF909F908F907F906F905F9077
:105200004F900895A0908810B0908910C0908A1097
:10521000D0908B10A986BA86CB86DC86AB28AC28CA
:10522000AD2809F08FCF60E070E0CB01D4CFCF92F2
:10523000DF92EF92FF92CF93C82F0E9416286B0146
:105240007C01C111C1E08BE0C89FF0011124EB513A
:10525000FF4E618570E090E080E00E94587020E091
:1052600030E048E452E40E940F71A70196010E94C9
:105270000F7120E030E040E05FE30E943F6F0E944A
:105280002970611571058105910521F461E070E0D7
:1052900080E090E0CF91FF90EF90DF90CF90089565
:1052A0002F923F924F925F926F927F928F929F9236
:1052B000AF92BF92CF92DF92EF92FF920F931F9324
:1052C000CF93DF93CDB7DEB72F970FB6F894DEBF3D
:1052D0000FBECDBF1091980FC090970FCD821C15B7
:1052E00009F4BAC180E00E94AD1C6E837F83888779
:1052F000998781E00E94AD1C6A877B878C879D8798
:1053000007E2212E312C029D7001039DF00C112427
:105310009701295D324F3A832983D90196968C9162
:105320009697882399F192968C91929780FF69C005
:1053300094966D917C9190E080E00E945870E98194
:10534000FA81648F758F868F978F10A211A2029DAC
:10535000F001039DF00D1124E95DF24F82A180FD63
:1053600010C0C084D184E284F384CE82DF82E886D8
:10537000F986C484D584E684F784CA86DB86EC8605
:10538000FD861F5F1F70DD80D112BBCF8D81815FD5
:105390008F708983E090980FED821E821A86312CDF
:1053A000212CF9800F2D10E027E2209FF001219F92
:1053B000F00D1124E95DF24F86A1882309F44CC158
:1053C0008E819A85A32DB22D808F918FA28FB38F5E
:1053D00082A180FFA1C0148A158A168A178A108EAE
:1053E000118E128E138E1E821A86312C212CCD80A6
:1053F000D980CD1409F430C18D2D815F8F708983E0
:10540000D0CFA981BA8118964D905D906D907C9017
:105410001B97CE80DF80E884F9844C185D086E0805
:105420007F081C968D919D910D90BC91A02D6C01D3
:105430007D012A853B854C855D85C21AD30AE40A25
:10544000F50AC982DA82EB82FC825301420177FEBF
:1054500007C088249924540184189508A608B70821
:10546000C980DA80EB80FC80F7FE08C0F094E094FD
:10547000D094C094C11CD11CE11CF11C029DA00160
:10548000039D500D1124495D524F5F874E87B40133
:10549000C5018C149D04AE04BF0410F4B601C7010D
:1054A0000E945870AE85BF855C966D937D938D93F9
:1054B0009C935F97029DF001039DF00D1124E95D1F
:1054C000F24F81E014141504160417040CF080E068
:1054D00080A3029DF001039DF00D1124E95DF24FC0
:1054E00081E029813A814B815C81121613061406F2
:1054F00015060CF080E081A3029DF001039DF00DE4
:105500001124E95DF24F81E08C149D04AE04BF04C8
:1055100008F080E083A31BCFF3A0448C558C668CED
:10552000778C8F2D0E9416284B015C01EF2DF11016
:10553000E1E03BE03E9FF0011124EB51FF4E61851D
:1055400070E090E080E00E94587020E030E048E495
:1055500052E40E940F716B017C0120E030E0A90150
:10556000C501B4010E940A7118160CF071C0A501A2
:105570009401C301B2010E94B06F4B015C0120E0B5
:1055800030E040E752E46E817A85832D922D0E94AF
:10559000B06F2B013C01A7019601C701B6010E9423
:1055A0003F6FA50194010E940F716B017C01A30163
:1055B0009201C301B2010E940F719B01AC01C701AE
:1055C000B6010E943F6F6B017C0120E030E0A90131
:1055D0000E94AB6F87FF03C0C12CD12C7601C7019D
:1055E000B6010E94827120E030E040E752E40E9460
:1055F0000F716B017C0147E2409FF001419FF00D6C
:105600001124E95DF24F50895E8381898A8732884F
:1056100023889601A7016E81782F832D922D0E94F9
:10562000AB6F87FD04C0CE82DA863E2C2F2C97E22A
:10563000909FF001919FF00D1124E95DF24F8E8152
:105640009A85A32DB22D848B958BA68BB78BCFCE4D
:10565000812C912C540193CF2F960FB6F894DEBF76
:105660000FBECDBFDF91CF911F910F91FF90EF90B3
:10567000DF90CF90BF90AF909F908F907F906F9072
:105680005F904F903F902F9008952F923F924F92AE
:105690005F926F927F928F929F92AF92BF92CF92C2
:1056A000DF92EF92FF920F931F93CF93DF93CDB7CB
:1056B000DEB72E970FB6F894DEBF0FBECDBF8111B7
:1056C00045C04090B5105090B6106090B7107090E3
:1056D000B81014141504160417040CF07AC1498785
:1056E0005A876B877C878D832FB6F89480E00E9461
:1056F000AD1C4B015C0181E00E94AD1C6B017C0183
:105700002091970F2983122F1F5F1F700091980F10
:10571000101325C02FBE8FEF9FEF2E960FB6F89473
:10572000DEBF0FBECDBFDF91CF911F910F91FF90D4
:10573000EF90DF90CF90BF90AF909F908F907F9031
:105740006F905F904F903F902F9008954090B910C8
:105750005090BA106090BB107090BC10BACF898185
:10576000A7E28A9FC0011124895D924F9E878D8791
:1057700033243394DC0196963C92B501A40180E079
:105780000E9483254B015C01ED85FE858086918614
:10579000A286B386B701A60181E00E9483256B0132
:1057A0007C01AD85BE851C96CD92DD92ED92FC927A
:1057B0001F9780E00E94162869837A838B839C83DD
:1057C000C501B4010E945A7029813A814B815C81E4
:1057D0000E94B06FED85FE85608371838283938321
:1057E00081E00E9416284B015C01C701B6010E94AE
:1057F0005A70A50194010E94B06FAD85BE851496C4
:105800006D937D938D939C93179789859A85AB852E
:10581000BC85ED85FE85808B918BA28BB38BDF01E0
:10582000148A158A168A178A108E118E128E138E7C
:10583000148E158E168E178E10A211A232A2ED8133
:105840009396EC93939795965C924E9294971093BF
:10585000970F0E945029312E301A101728F4612F0B
:10586000601B80E1382E360E80914C02882309F4AB
:10587000AFC0115F1F7027E2129FF0011124E95D94
:10588000F24F02A10170808D918DA28DB38D89831D
:105890009A83AB83BC8384899589A689B7898D83D4
:1058A0009E83AF83B88780899189A289B3898987CC
:1058B0009A87AB87BC8784809580A680B78040801C
:1058C000518062807380C48CD58CE68CF78C13A1D8
:1058D00061E476E089E291E10E94091301117CC044
:1058E000ADE3B6E0BE87AD87C701B6010E9429705F
:1058F0006B017C016D857E8589E291E10E9409132F
:105900006BEA78E089E291E10E940913002309F42F
:1059100068C08AE5111101C088E50E94654A60E50A
:1059200076E089E291E10E9409134AE0C701B601DD
:105930000E9452486DE576E089E291E10E940913E8
:1059400020E030E040E05FE369857A858B859C85C7
:105950000E943F6F0E942270CB010E94E24A60E6E3
:1059600076E089E291E10E94091320E030E040E016
:105970005FE36D817E818F8198850E943F6F0E94D9
:105980002270CB010E94E24A65E676E089E291E16D
:105990000E94091320E030E040E05FE369817A81F2
:1059A0008B819C810E943F6F0E942270CB010E94DC
:1059B000E24A6BE676E089E291E10E940913632DE9
:1059C00070E090E080E04AE00E9452480E941E4849
:1059D0002FBE90E080E0A1CEE0E9F4E0FE87ED8705
:1059E00083CF60E57AE089E291E10E94091343E008
:1059F000C301B2010E94674B65E576E089E291E15F
:105A00000E94091343E0C501B4010E94674B68E599
:105A100076E087CFCF92DF92EF92FF920F93CF93F2
:105A20006A017B01C22F811126C00E9416280E94A4
:105A300022702AE030E040E050E0011122C0C13085
:105A4000E1F0F7FE04C0CC24CA94DC2C7601A70157
:105A50009601121613061406150624F421E030E010
:105A600040E050E0CA01B901CF910F91FF90EF9053
:105A7000DF90CF90089581E0D8CF24E630E040E079
:105A800050E00E942272121613061406150624F026
:105A900021E030E040E050E01C141D041E041F040F
:105AA0000CF350954095309521953F4F4F4F5F4FE8
:105AB000D9CF8F929F92AF92BF92CF92DF92EF9207
:105AC000FF92CF93DF9380E00E9416284B015C0188
:105AD00081E00E9416286B017C018091C01090919A
