:020000040000FA
:100000000C94DA020C944E220C940B030C941722DD
:100010000C940B030C940B030C940B030C940B0328
:100020000C940B030C940B030C940B030C940B0318
:100030000C940B030C94BC0F0C940B030C944B21ED
:100040000C940B030C94E3370C940B030C940B03EC
:100050000C940B030C940B030C940B030C94155889
:100060000C940B030C94EB140C94C1140C940B0320
:100070000C940B030C940B030C940B030C940B03C8
:100080000C9440210C940B030C940B030C940B0365
:100090000C940B030C940B030C940B030C940B03A8
:1000A0000C940B030C940B030C9418210C940B036D
:1000B0000C940B030C940B030C940B030C94F02086
:1000C0000C940B030C940B030C940B030C940B0378
:1000D0000C940B030C940B030C940B030C940B0368
:1000E0000C940B030C94FD540C9421030C94F82AEB
:1000F0000C9405550C940E2A0C94484B0C94784A99
:100100000C94654B0C9471290C9497070C94334A0A
:100110000C947F4B0C947C4C0C94484C0C94CE2942
:100120000C94C44C0C94FB4A0C94C62A0C94710396
:100130000C94A01B0C94C21B0C94B02A0C94734A10
:100140000C9434550C9473070C94B14B0C941C55BF
:100150000C94AC4C0C94164C0C94304C0C94C94A36
:100160000C9487290C94944C0C94E34A0C940855F5
:100170000C9456040C94B7030C944E2A0C94924A97
:100180000C94E5290C94134B0C94FE4B0C94E25404
:100190000C94514A0C94604B0C9448290C942655AD
:1001A0000C94252A0C949D290C94F9540C94185500
:1001B0000C94BB070C94E8280C94C91B0C945D03A9
:1001C0000C94C61B0C94E02A0C9438550C947F03B5
:1001D0000C94E7540C946D2A0C94FC1B0C94624C08
:1001E0000C9486070C9433290C943C2A0C94E44B11
:1001F0000C94E66A0C94C94B0C94671B0C94550440
:100200000C9404040C9412550C9408290C94A11518
:100210000C94AA070C942A550C94AF4A0C94B51B65
:100220000C94E8070C9401550C941D290C94AA28F1
:100230000C94994B0C94F7290C948B1B0C94962AD4
:100240000C94C6290C940E550C94B4290C946B4A4A
:100250000C94562A0C942E550C944E030C942E4B51
:100260000C94AA4A0C94772A0C9460290C948C2A3A
:100270000C9420556364696E6F70737578585B00D9
:10028000205B27242720666F722068656C705D00F4
:100290006F6B006572726F723A20007C52504D3A5B
:1002A000007C4D3A007C46534D3A003C4D506F73F4
:1002B0003A00000020002300260029002C002F0017
:1002C000320000010000030106010901242420611D
:1002D0006C6C2C20246E2071756572792C20246E34
:1002E0003D76616C207365742C20244920696E660C
:1002F0006F2C203F20737461747573002434342094
:10030000636F6F726420756E69747320303D73740F
:1003100065707320313D6D6D20323D696E636800FC
:10032000243435206261636B6C617368206D696E83
:10033000207370656564206D6D2F6D696E002434C7
:1003400033206261636B6C617368206D6178207328
:1003500070656564206D6D2F6D696E0024343020EA
:100360006261636B6C617368206175746F2C20240B
:1003700034312D24343220582F5A20737465707311
:1003800000243332206A6F6720646563656C206DDA
:10039000696E2073746570732028303D6F6666291E
:1003A00000243330207370696E646C6520505052A5
:1003B0002C202433312062757A7A6572002432361B
:1003C00020582073746570732F6D6D2C2024323784
:1003D00020582064697220696E7665727400243238
:1003E000302D2432352058206D6F746F722F757345
:1003F0007465702F70697463682F6D61782F7261F6
:100400007069642F616363656C00243136205A2063
:1004100073746570732F6D6D2C20243137205A2032
:1004200064697220696E76657274002431302D24FF
:100430003135205A206D6F746F722F75737465702B
:100440002F70697463682F6D61782F7261706964B1
:100450002F616363656C0024322D24332073796E21
:10046000632066656564206D696E2F6D6178206D0F
:100470006D2F7265760024302D2431206173796EE2
:10048000632066656564206D696E2F6D6178206DEF
:100490006D2F6D696E002C454550524F4D5D005BD0
:1004A0004F50543A005B5645523A00000021002458
:1004B0000027002A002D0030003300010100000455
:1004C0000107010A0100000A0B02090C0D0E0807C2
:1004D0000304010000000000000000000000000014
:1004E000000000000000000000000000000000000C
:1004F00000121110000000000000000000000000C9
:100500000000000000000000000000010210202098
:100510000808102040102040800201020108040257
:1005200001010204081020408080402010080402CD
:100530000180040201804020100804020108040226
:10054000010102040810204080010204081020402C
:100550008000002200250028002B002E00310034EE
:100560000002010000050108010B01050505050752
:100570000508080808020202020A0A08080404041E
:10058000040101010101010101030303030303034A
:1005900003040707070C0C0C0C0C0C0C0C020202D9
:1005A0000206060606060606060B0B0B0B0B0B0BCC
:1005B0000B02E66A11241FBECFEFD1E2DEBFCDBF32
:1005C00000E00CBF1AE0A0E0B2E0E6EEFEEE00E0D4
:1005D0000BBF02C007900D92AC3EB107D9F723E1E3
:1005E000ACEEBAE001C01D92A83AB207E1F712E002
:1005F000CAEDD2E000E006C021970109802FFE017C
:100600000E941C70C93DD10780E00807A9F70E942D
:1006100074580C9471770C940000811109C060919A
:10062000B3107091B4108091B5109091B6100895E8
:100630006091B9107091BA108091BB109091BC106C
:100640000895AF92BF92CF92DF92EF92FF920F93F5
:100650001F93CF93DF936C017B018B01040F151F58
:10066000EB015E01AE18BF08C017D10759F06991C0
:10067000D601ED91FC910190F081E02DC601199514
:10068000892B79F7C501DF91CF911F910F91FF90D1
:10069000EF90DF90CF90BF90AF900895FC01538D05
:1006A000448D252F30E0842F90E0821B930B54174C
:1006B00010F0CF96089501970895FC01918D828DD9
:1006C000981761F0A28DAE0FBF2FB11D5D968C9172
:1006D000928D9F5F9F73928F90E008958FEF9FEFB1
:1006E0000895FC01918D828D981731F0828DE80F6D
:1006F000F11D858D90E008958FEF9FEF0895FC0127
:10070000918D228D892F90E0805C9F4F821B9109F3
:100710008F73992708958EE091E10E947F0321E075
:10072000892B09F420E0822F0895FC01A48DA80FE5
:10073000B92FB11DA35ABF4F2C91848D90E0019623
:100740008F739927848FA689B7892C93A089B18943
:100750008C91837080648C93938D848D981306C0E4
:100760000288F389E02D80818F7D80830895EF9248
:10077000FF920F931F93CF93DF93EC0181E0888F5B
:100780009B8D8C8D98131AC0E889F989808185FF2B
:1007900015C09FB7F894EE89FF896083E889F989CD
:1007A00080818370806480839FBF81E090E0DF91CF
:1007B000CF911F910F91FF90EF900895F62E0B8D22
:1007C00010E00F5F1F4F0F731127E02E8C8D8E11DD
:1007D0000CC00FB607FCFACFE889F989808185FF44
:1007E000F5CFCE010E949503F1CFEB8DEC0FFD2FDD
:1007F000F11DE35AFF4FF0829FB7F8940B8FEA89FF
:10080000FB8980818062CFCFCF93DF93EC01888D0D
:100810008823B9F0AA89BB89E889F9898C9185FD7B
:1008200003C0808186FD0DC00FB607FCF7CF8C9109
:1008300085FFF2CF808185FFEDCFCE010E94950329
:10084000E9CFDF91CF91089580E090E0892B29F0E6
:100850000E948B0381110E94000080E090E0892BB0
:1008600049F080E090E0892B29F00E94000081117E
:100870000E94000080E090E0892B49F080E090E049
:10088000892B29F00E94000081110E94000080E065
:1008900090E0892B49F080E090E0892B29F00E94BC
:1008A000000081110C9400000895089590E080E00C
:1008B00008958F929F92AF92BF92CF92DF92EF9264
:1008C000FF92C090E010D090E110F12CE12CCC0C04
:1008D000DD1CEE1CFF1CC114D104E104F10439F14C
:1008E000A70196010E94FD6F97FF04C06C0D7D1D4E
:1008F0008E1D9F1D0E94356E20E030E044EB53E4D6
:100900000E94EA6E4B015C01C701B6010E94356E80
:100910009B01AC01C501B4010E948B6DFF90EF906B
:10092000DF90CF90BF90AF909F908F90089560E040
:1009300070E0CB01F3CF4F925F926F927F928F92D4
:100940009F92AF92BF92CF92DF92EF92FF924B01B4
:100950005C017A01452BA9F121503109B90190E0E0
:1009600080E00E94336E20E030E044EB53E40E94CC
:10097000EA6E2B013C01B70190E080E00E94336EEB
:100980009B01AC01C301B2010E948B6D6B017C0124
:10099000C501B4010E9459049B01AC01C701B60115
:1009A0000E94196D6B017C0120E030E044E353E4C8
:1009B0000E94E56E18164CF420E030E044EB53E45E
:1009C000EDCFC12CD12C7601E3CF20E030E044E321
:1009D00053ECC701B6010E94866D18165CF020E04A
:1009E00030E044EB53E4C701B6010E941A6D6B017D
:1009F0007C01EBCFC701B601FF90EF90DF90CF9065
:100A0000BF90AF909F908F907F906F905F904F902E
:100A100008956091010C7091020C8091030C9091EB
:100A2000040C0895809103018370823029F41092A0
:100A3000EF0B8091EF0B08958130D9F78093EF0B86
:100A4000F8CF8091AF119091B011807299272091C9
:100A5000BE1125FF08C0892B19F481E080930402A0
:100A6000809104020895892BD9F310920402F8CFE3
:100A70008091EB1185FF04C082E08093EE0B06C0ED
:100A80008091DC1185FF05C01092EE0B8091EE0B7A
:100A900008958091CD1185FFF7CF81E0EECF809151
:100AA000631285FD1EC08091541285FD1CC080918B
:100AB000451285FD1AC08091361285FD18C08091BF
:100AC000271285FD16C08091181285FD14C08091F3
:100AD000091285FD12C08091FA1185FD10C080E0D9
:100AE000089581E0089582E0089583E0089584E008
:100AF000089585E0089586E0089587E0089588E0E8
:100B0000089580E0E82FF0E0E154FF4E90819923B2
:100B100041F090539A3018F48093270C08958F5F1A
:100B2000F1CF1092270C08958091270C90E0FC01E2
:100B3000E154FF4E208120532A30B0F0019748F055
:100B4000FC01E154FF4E208120532A30B8F78093F6
:100B5000270CE091270CF0E0E154FF4E8081805398
:100B60008A3010F00C9481050895EBEAF0E1808161
:100B7000918190932D0280932C0282819381909396
:100B80002B0280932A02848195819093290280937D
:100B90002802868197819093270280932602EAECAF
:100BA000F0E18385948590932502809324028585C6
:100BB0008093230286859785909322028093210259
:100BC000808991899093200280931F028289938962
:100BD00090931E0280931D02848980931C02808161
:100BE000918190931B0280931A0282818093190253
:100BF0008381948190931802809317028581968156
:100C00009093160280931502878190859093140229
:100C100080931302818580931202858980930B0C47
:100C2000828580930A0C868997899093030280932A
:100C3000020280913C0280932E02A4EAB0E18C91E2
:100C40008093110211968D919C91129790931002AE
:100C500080930F0213968D919C91149790930E029E
:100C600080930D0215968C91159790E090930C024D
:100C700080930B0216968C9190E090930A028093D9
:100C80000902808D918D9093090C8093080C8091BE
:100C9000A3108093070C08958A3170F4E82FF0E0D8
:100CA000EE0FFF1FE951FD4F0190F081E02D3097CD
:100CB00019F06083718308958550863160F4E82FC0
:100CC000F0E0EE0FFF1FE554FD4F0190F081E02DA5
:100CD000309709F060830895F8948091100C9091FA
:100CE000110CA091120CB091130C80930C0C9093EA
:100CF0000D0CA0930E0CB0930F0C78940895F894FB
:100D00001092100C1092110C1092120C1092130CE5
:100D100010920C0C10920D0C10920E0C10920F0CE5
:100D2000789408950F931F93F8946091100C70912C
:100D3000110C8091120C9091130C00910C0C1091DD
:100D40000D0C20910E0C30910F0C601B710B820B5F
:100D5000930B1616170618061906A4F40F5F1F4FFB
:100D60002F4F3F4F00930C0C10930D0C20930E0C43
:100D700030930F0C789461E070E080E090E01F9178
:100D80000F910895611571058105910589F0015054
:100D900011092109310900930C0C10930D0C2093BB
:100DA0000E0C30930F0C78946FEF7FEFCB01E7CFF1
:100DB0007894E5CF0F931F93F8946091100C709185
:100DC000110C8091120C9091130C789400910C0CE2
:100DD00010910D0C20910E0C30910F0C601B710BBB
:100DE000820B930B1F910F9108958091F80B811145
:100DF0000FC08091F90B81110BC08091FA0B81110A
:100E000007C081E09091FB0B911103C080E0089531
:100E100081E008952FE0E2EFFBE0DC0101900D920C
:100E20002A95E1F70895FC01118284819581882734
:100E300090719583848308952FB7F8946091B20FD1
:100E40007091B30F8091B40F9091B50F2FBF08959B
:100E500048990EC049990EC08091B20F9091B30F7E
:100E6000A091B40FB091B50F0196A11DB11D0DC099
:100E70004999F2CF8091B20F9091B30FA091B40F26
:100E8000B091B50F0197A109B1098093B20F90936A
:100E9000B30FA093B40FB093B50F08950F931F93A2
:100EA000CF93DF93CBE3D0E1811102C0CDE4D0E159
:100EB0000E940D03161617061806190674F081E035
:100EC000088519852A853B854C855D856E857F85DE
:100ED000041715072607370709F080E0DF91CF9147
:100EE0001F910F910895ECE3F5E08491ECE9F5E0B2
:100EF000E491F0E0EE0FFF1FEF5AFA4FA591B49185
:100F00009C91E82FE095E923EC930895ECE3F5E05C
:100F10008491ECE9F5E0E491F0E0EE0FFF1FEF5A69
:100F2000FA4FA591B491EC91E82BEC930895EBE383
:100F3000F5E08491EBE9F5E0E491F0E0EE0FFF1FBE
:100F4000EF5AFA4FA591B4919C91E82FE095E923CF
:100F5000EC930895EBE3F5E08491EBE9F5E0E4919F
:100F6000F0E0EE0FFF1FEF5AFA4FA591B491EC910C
:100F7000E82BEC9308959091DF10992321F091E0F4
:100F8000811190E0892FE6E3F5E026E935E088233A
:100F900079F08491F9012491E22FF0E0EE0FFF1F28
:100FA000EF5AFA4FA591B491EC91E82BEC93089588
:100FB0008491F9012491E22FF0E0EE0FFF1FEF5A28
:100FC000FA4FA591B4919C91E82FE095E923EECFDB
:100FD0009091D410992321F091E0811190E0892F14
:100FE000E7E3F5E027E935E0882379F08491F9011A
:100FF0002491E22FF0E0EE0FFF1FEF5AFA4FA59178
:10100000B491EC91E82BEC9308958491F90124912B
:10101000E22FF0E0EE0FFF1FEF5AFA4FA591B491C7
:101020009C91E82FE095E923EECFFC012FB7F894CF
:101030008091EA0C90E0019666E070E00E94C76F34
:101040009091EB0C981779F0A091EA0C90E2A99F8F
:10105000D0011124A65DB34F90E201900D929A95B4
:10106000E1F78093EA0C2FBF08958AE1E0E5F2E012
:10107000AAECB0E101900D928A95E1F70895FC0188
:1010800080819181C2978F399740F0F4828181509D
:101090008032D0F4838194810A978F3D9340A0F4ED
:1010A000858196810A978F37934170F48781908567
:1010B0000A978730974240F481858150843120F42B
:1010C00081E09285923008F080E00895CF93DF931D
:1010D000EC010E943F088823A1F0CE010B960E94EC
:1010E0003F08882371F08E899F89845691098D3A33
:1010F000964230F481E0288D398D213D374008F04B
:1011000080E0DF91CF910895CF93883008F080E0A0
:10111000E82FF0E0EF5CFC4FC081C23008F0C0E087
:1011200024E0C29FF0011124E555FF4E4281538116
:101130000190F081E02DE417F50778F59A012F5F13
:101140003F4F2E1B3F0BDB010E9424702AE0969537
:101150008795779567952A95D1F79A01261B370BC6
:10116000B901C1111CC04E1B5F0B4233510580F009
:10117000CB018E1B9F0B6AE070E00E94C76FCB0112
:101180002AE0289FB001299F700D11246E0F7F1F48
:1011900090E080E00E94336E0CC0BF01E2CF90E08F
:1011A00080E00E94336E2AE037ED43E25CE30E9468
:1011B000EA6ECF910895883008F080E0E82FF0E0E3
:1011C000EF5CFC4F90819F3F31F06091EF0F709189
:1011D000F00F0C94840860E070E0CB010895CF928A
:1011E000DF92EF92FF92CF93DF9380910C108830C3
:1011F00008F040C0823089F121E090E0813009F0B0
:1012000020E0C22FD92F0E94DB086B017C01CD2B7F
:10121000D9F06091A20F7091A30F8091A40F9091CB
:10122000A50F6A3071058105910520F46CE370E02B
:1012300080E090E00E94336E9B01AC01C701B601D3
:101240000E94EA6E6B017C01C701B601DF91CF916C
:10125000FF90EF90DF90CF9008956091EF0F709125
:10126000F00F80E0DF91CF91FF90EF90DF90CF9073
:101270000C948408D0E0C0E0C6CF4617570770F042
:101280004115510559F0880F991F880F991FFC01CE
:10129000E555FF4E71836083538342830895EBEAE3
:1012A000F0E1A8E4B2E04D915D916D917C911397CE
:1012B000408351836283738314968D919D910D9029
:1012C000BC91A02D84839583A683B7830895FC01E8
:1012D00082819381208131818217930760F0892B6D
:1012E00051F026813781848195812817390718F0BC
:1012F00081E0232B09F480E008958091A3108130D0
:1013000031F0823011F484E4089583E508958DE48A
:1013100008954F925F926F927F928F929F92AF92B9
:10132000BF92CF92DF92EF92FF920F931F93CF93D2
:10133000DF93F82E8A01D62FC72F6091AA1070E094
:1013400090E080E00E94336E762E872E982EA92E94
:101350006091A91070E090E080E00E94336EB62E9C
:10136000C72ED82EE92EEF2DF110E1E08BE0E89F9B
:10137000F0011124E653FF4E6581768190E080E014
:101380000E94336E2B01682EF92E98014D2F5C2F91
:10139000672D782D892D9A2D0E94E56E181624F45C
:1013A000072D182DD92DCA2D2B2D3C2D4D2D5E2D01
:1013B000B8018D2F9C2F0E94E56E181624F40B2D7A
:1013C0001C2DDD2DCE2D20E030E040E85FE3B8019C
:1013D0008D2F9C2F0E94866D87FF04C000E010E0D7
:1013E000D0E8CFE39201462D5F2DB8018D2F9C2FC1
:1013F0000E94E56E18161CF48201D62DCF2DB8017F
:101400008D2F9C2FDF91CF911F910F91FF90EF9027
:10141000DF90CF90BF90AF909F908F907F906F9014
:101420005F904F90089587E0E1E4F2E0A4EAB0E134
:1014300001900D928A95E1F70895FC018081823038
:10144000B8F4818192818938934190F483819481A9
:101450008938934168F425818BEF820F843C40F4F6
:1014600096818BEF890F843C18F481E0291708F4EA
:1014700080E008958091A910853018F485E080936C
:10148000A9108091A910893C18F088EC8093A910CC
:101490008091AA10853018F485E08093AA1080917D
:1014A000AA10893C18F088EC8093AA108091A910AA
:1014B0009091AA10891710F48093AA100895CF93E1
:1014C000DF93FC012481358133FF10C0EC010E94C1
:1014D00009582A813B81621B730B2E85F0E12F9FF7
:1014E0009001112481E06217730708F480E0DF9116
:1014F000CF9108951F93CF93DF93EC018C819D8151
:1015000080FD19829C012F713327232B19F0807ED7
:101510009D838C838C819D8194FB112710F9162764
:1015200096FF04C09F7B9D838C8311E08C819D81FD
:1015300091FD10C011110BC0CE010E945F0A182F3F
:101540008111C0C0812FDF91CF911F9108959260CA
:101550009D838C830E940958AB018A819B81FA018B
:10156000E81BF90B8C819D81112309F45DC085FD79
:101570003EC02A8592FD06C0222321F094609D83FF
:101580008C830BC02E171F0619F010F0211107C015
:1015900082629D838C83598748875B834A838C81D1
:1015A0009D818F71992711E0892B31F28E819F8166
:1015B000892B41F28C819D8191708436910509F4CB
:1015C0008AC008F09AC08232910509F484C008F0FC
:1015D0007BC08130910509F47EC0409709F47BC03F
:1015E000CE010E945F0A882309F4ACCF74C097FD36
:1015F000D6CF86FD0AC02C85A0E12A9F9001112438
:10160000E217F30760F28464BACF87FF0BC02D8521
:10161000A0E12A9F900111248868E217F30708F0DF
:10162000AECFBDCF2C85F4CF85FF12C02A852E17F3
:101630001F0609F080F586FD03C029812F5F2983ED
:1016400097FD19828F7D806191609D838C8323C07B
:1016500090FF0DC097FD03C080619D838C838C81BA
:101660009D819E779D838C835B834A8314C02981EF
:101670002223F1F09C01207C3327232BA1F42B851E
:1016800040E1249F90011124E217F30760F488855C
:101690009985892B51F48C819D8192FF80CF9B7F0E
:1016A0009D838C837CCF8160D0CF19861886F3CF41
:1016B00091FFF1CF8F739D7F98609D838C831986F6
:1016C0001886D2CF10E072CF8134910521F0803599
:1016D000910509F085CFEE81FF81309709F432CF73
:1016E0001995CE010E945F0A882309F42BCF8C81C3
:1016F0009D81977F9D838C8325CF883E910559F3EB
:1017000038F4813C910539F3803D910521F368CF90
:101710008035A1E09A07F9F2803D21E09207D9F2E5
:101720008031914009F05CCFD6CF6EE270E08FEB54
:1017300090E10E941D71009741F09C012F5B3041A8
:1017400081E09091270C291708F080E00895E0913E
:10175000270CF0E0E154FF4E808180538A3020F561
:10176000E091C81088E0E89FF0011124EF5BFC4F86
:10177000828193810197D1F40E94950B282F80E0FC
:10178000211126C0E82FF0E0E154FF4E908199230B
:1017900041F09E3231F090539A3008F42F5F8F5F02
:1017A000F1CF81E02230A0F480E0089520E090E0C5
:1017B000E22FF0E0E154FF4E8081882331F0805326
:1017C0008A3008F49F5F2F5FF3CF81E0923060F39F
:1017D0000895CF93DF930097A1F0FC01208122238D
:1017E00081F0EB010E94C76C61157105F1E08F0774
:1017F000910538F47983688381E090E0DF91CF919F
:10180000089590E080E0FACF8F929F92AF92BF92BE
:10181000EF92FF920F931F93CF93DF93009709F4FA
:1018200067C0FC012081222309F462C08B01EC0116
:101830006EE270E00E941D717C01892B71F4B80189
:10184000CE01DF91CF911F910F91FF90EF90BF904C
:10185000AF909F908F900C94E90BCE010E94C76CC3
:101860004B015C01C70101960E94C76CF8EE8F1610
:10187000F3E09F06A104B104D8F597FD2BC06A30B0
:1018800071058105910554F5F701218120532A3016
:1018900048F42281211106C0AAE0B0E09B01AC010E
:1018A0000E94337044E6489D9001499D300D1124FB
:1018B000620F731FF8017183608381E090E0DF9114
:1018C000CF911F910F91FF90EF90BF90AF909F909D
:1018D0008F90089560E070E0CB01D6CF643671053B
:1018E00081059105FCF263E670E080E090E0DACFDC
:1018F00090E080E0E4CF80E992E00C946448882393
:1019000019F08AE50C94BC4788E5FCCF68E270E0EA
:1019100080E090E00C941F56CF93DF93D82FC5E161
:101920008C9FC001112444E150E060E270E08B58CC
:10193000944F0E941671CD9FF0011124EB58F44F83
:10194000148ADF91CF910895EF92FF920F931F9326
:10195000CF93DF93CDB7DEB7A0970FB6F894DEBF75
:101960000FBECDBFFE01339696E1DF011D929A9521
:10197000E9F793E099838A836B83298F3A8F4B8FA2
:101980005C8FED8EFE8E0F8F18A3CE0101960E9404
:101990001508A0960FB6F894DEBF0FBECDBFDF913D
:1019A000CF911F910F91FF90EF900895CF930E94D8
:1019B0005F54C82F0E9455548111C2600E944A543E
:1019C0008111C4600E943F548111C8600E94375445
:1019D0008111C0618C2FCF91089590913A028913A3
:1019E0000DC0E1EBF5E0E4919FEF90933A02E23015
:1019F000E1F038F4EE2381F0E13089F060E00C94FE
:101A0000B254E43049F110F1E530C1F79091730020
:101A10009D7F90937300F2CF10926E00EFCF909164
:101A20006F009D7F90936F00E9CF909170009D7F34
:101A30009093700091E09093B0009091B100987FE6
:101A400094609093B1001092B300D8CF9091710040
:101A50009D7F90937100D2CF909172009D7F909363
:101A60007200CCCFCF93DF93EC0160E08E810E94B7
:101A7000B25461E08E810E94B25460E08E810E9477
:101A8000B2548BE891E00197F1F7DF91CF9108957F
:101A900080913C028823D9F068E270E080E090E019
:101AA0000E941F566DE270E080E090E00E94D757E0
:101AB00080E10E94ED0C60E570E080E090E00E9423
:101AC000D75768E270E080E090E00C941F560895CC
:101AD000CF93C82F61E00E943E5561E08C2FCF91DB
:101AE0000C94B254CF93C82F61E00E943E5560E041
:101AF0008C2FCF910C94B25462E00C943E558FEB36
:101B000090E1FC0101900020E9F7CF01805C904159
:101B10008830F0F441E0480F2091270C30E02F5F2F
:101B20003F4FE42FF0E02E173F0740F4E154FF4E03
:101B3000DF0111975C9150834150F3CF21543F4E08
:101B400040E3F90140839927FC01E154FF4E1182E3
:101B500008950E9407482091EF0F3091F00FA901DE
:101B60004C5F5F4F481759072CF0245031098217FA
:101B7000930744F52091EA0BE22FF0E0EE0FFF1FF0
:101B8000E653F44F4091EB0B5091EC0B6081718167
:101B9000461B570B91838083840F951F9093EC0B0A
:101BA0008093EB0B2F5F2F702093EA0B44E0969508
:101BB00087954A95E1F79093F00F8093EF0F81E0BE
:101BC0008093ED0B089595E1899FD0011124AB58C6
:101BD000B44F24E1FB0101900D922A95E1F7989F03
:101BE000F0011124EB58F44F148A08950F931F93BA
:101BF000CF93DF93EB0109900020E9F72197C61BF3
:101C0000C53108F0C4E1D0E095E1899F800111243D
:101C10000B58144FAE01C8010E94FB7044E150E024
:101C20004C1B5D0B60E270E0C8018C0F9D1F0E9491
:101C30001671F801148ADF91CF911F910F910895C9
:101C4000FF920F931F93CF93DF93CDB7DEB76597C6
:101C50000FB6F894DEBF0FBECDBF1091C810123082
:101C600008F44EC01150193108F018E1BE016F5F41
:101C70007F4F812F0E941647BE016F5F7F4F80E02C
:101C80000E94F60DFF24F394F10EBE016F5F7F4FAB
:101C90008F2D0E941647BE016F5F7F4F81E00E942B
:101CA000F60D02E0010FBE016F5F7F4F802F0E9493
:101CB0001647BE016F5F7F4F82E00E94F60D909144
:101CC000C910913051F58091C8108117D9F0F816DC
:101CD000D1F092E00817B9F08FEF80932F0267E3FD
:101CE00074E083E00E94F60D65960FB6F894DEBFAF
:101CF0000FBECDBFDF91CF911F910F91FF9008953F
:101D000010E0B4CF90E08091270C895F843120F7F8
:101D100090932F028093C90BE2CF6BE474E083E0D1
:101D20000E94F60D8FEF80932F02DECF1F93CF938B
:101D3000DF93CDB7DEB764970FB6F894DEBF0FBE62
:101D4000CDBF182FBE016F5F7F4F0E94F749892BCF
:101D500089F084E20E94BC47612F70E090E080E04F
:101D60004AE00E94C1478DE30E94BC47CE01019624
:101D70000E94234664960FB6F894DEBF0FBECDBF17
:101D8000DF91CF911F910895CF93DF93CAE6D2E000
:101D900089910E94960E82E0C738D807C9F7DF9173
:101DA000CF910895CF93DF93EC0183E992E00E94F5
:101DB0004948CE01DF91CF910C9423461F93CF93D6
:101DC000DF93EC01162F0E94036D181739F0612F75
:101DD000CE01DF91CF911F910C940B6DDF91CF91CC
:101DE0001F910895CF93C0913C0280910002C80FCB
:101DF000CB5565EA90E080E00E94DE0E6091000223
:101E000081E090E00E94DE0E60913C0282E090E072
:101E10000E94DE0E6C2F83E090E0CF910C94DE0EDA
:101E2000EF92FF921F93CF93DF938AECE82E80E12D
:101E3000F82EF70115EC8191180F80E1E43EF807C8
:101E4000D1F765EC80E290E00E94DE0EC1E2D0E0C6
:101E5000F70161917F01CE010E94DE0E2196CB3306
:101E6000D105B1F7612F87E390E0DF91CF911F910A
:101E7000FF90EF900C94DE0EEF92FF921F93CF93A2
:101E8000DF938BEAE82E80E1F82EF70117EB8191C2
:101E9000180F80E1E33BF807D1F767EB80E190E0B2
:101EA0000E94DE0EC1E1D0E0F70161917F01CE0119
:101EB0000E94DE0E2196C931D105B1F7612F89E16B
:101EC00090E0DF91CF911F91FF90EF900C94DE0E88
:101ED000EF92FF921F93CF93DF9384EAE82E80E185
:101EE000F82EF70112EB8191180F80E1EB3AF80719
:101EF000D1F762EB88E390E00E94DE0EC9E3D0E008
:101F0000F70161917F01CE010E94DE0E2196C0345F
:101F1000D105B1F7612F80E490E0DF91CF911F915F
:101F2000FF90EF900C94DE0E0C94036D0F931F93B3
:101F3000CF93DF93062FC82FD0E0CE010E94940FDD
:101F4000182FCE0101960E94940FC82F802F90E089
:101F50000E94940F113D71F491ED9C0F89130AC0FA
:101F6000C33040F4C093A31081E0DF91CF911F9163
:101F70000F91089580E0F9CF1F920F920FB60F9244
:101F800011240BB60F922F933F934F935F936F9350
:101F90007F938F939F93AF93BF93EF93FF93809122
:101FA0001A1090911B10A0911C10B0911D10892B3C
:101FB0008A2B8B2BE1F190911710E0911810F09182
:101FC000191080818927808380911A1090911B10AD
:101FD000A0911C10B0911D10181619061A061B06A8
:101FE0009CF480911A1090911B10A0911C10B0913C
:101FF0001D100197A109B10980931A1090931B102D
:10200000A0931C10B0931D10FF91EF91BF91AF9161
:102010009F918F917F916F915F914F913F912F9100
:102020000F900BBE0F900FBE0F901F9018958091D0
:102030003A020E94ED0CE8CFFB0101900020E9F785
:102040003197AF01461B570BDC01ED91FC910280EB
:10205000F381E02D19946115710511F00C941C1099
:1020600090E080E008950F931F93CF9380917E12AC
:102070008D7F80937E1288600E94B64705E71BE043
:10208000C0E0E0918112CE1790F1E150F0E0E2590A
:10209000FD4E848980680E94B647B8018EE692E1C1
:1020A0000E942B10CF5F0B5E1F4FC43051F7E091A1
:1020B0002F02E430F0F48091C90B90918112E9175E
:1020C00010F0EFEFE90FF0E0E259FD4E9489890F2F
:1020D00080680E94B64780917E12982F92609093FC
:1020E0007E128A60CF911F910F910C94B647EC2F0E
:1020F000CDCFCF911F910F910895AF92BF92CF9204
:10210000DF92EF92FF920F931F93CF93DF93909103
:102110003B02992309F449C0833009F446C06701A2
:102120007801E9018A015B0163E376E08EE091E1E9
:102130000E942B106EE574E08EE091E10E942B105E
:1021400061E376E08EE091E10E942B10B5018EE014
:1021500091E10E942B1061E376E08EE091E10E9414
:102160002B10B8018EE091E10E942B1061E878E01D
:102170008EE091E10E942B10BE018EE091E10E9461
:102180002B1080E20E94BC474AE0C701B6010E94C2
:10219000C147DF91CF911F910F91FF90EF90DF909A
:1021A000CF90BF90AF900C941D46DF91CF911F91BF
:1021B0000F91FF90EF90DF90CF90BF90AF90089578
:1021C000EF92FF920F931F938EEF92E10E941307FD
:1021D0008FEE92E10E94130780EE92E10E941307B6
:1021E00081ED92E10E94130782EC92E10E941307B5
:1021F0000E94D60C8093F10BE82EF12C10E000E049
:1022000023E634E047E654E06BE674E082E00E94A7
:102210007D101F910F91FF90EF900895EF92FF9224
:102220000F931F932FB7F8944091B3105091B410AF
:102230006091B5107091B6108091B9109091BA105C
:10224000A091BB10B091BC101092B3101092B410BA
:102250001092B5101092B6101092B9101092BA10D8
:102260001092BB101092BC102FBF14161506160644
:1022700017062CF0181619061A061B067CF47A01AC
:102280008B01E80EF91E0A1F1B1F2EE634E044E7FF
:1022900054E067E774E082E00E947D101F910F9187
:1022A000FF90EF900895EF92FF920F931F93CF93BB
:1022B000DF9390913B029923B1F18330A1F1E901C1
:1022C0008A017B0163E376E08EE091E10E942B10AE
:1022D0006EE574E08EE091E10E942B1061E376E000
:1022E0008EE091E10E942B10B7018EE091E10E94F7
:1022F0002B1061E376E08EE091E10E942B10B80193
:102300008EE091E10E942B1061E878E08EE091E18F
:102310000E942B10CE01DF91CF911F910F91FF9062
:10232000EF900C942346DF91CF911F910F91FF9076
:10233000EF900895CF92DF92EF92FF920F931F9349
:10234000CF93DF93CDB7DEB72F970FB6F894DEBFEC
:102350000FBECDBF8C01C090C910D12CF12CE12C47
:10236000CC0CDD1CEE1CFF1C8091290C90E0B0E031
:10237000A0E022E0880F991FAA1FBB1F2A95D1F762
:102380008C299D29AE29BF2920910D106C017D015A
:10239000C22A8091260C90E0B0E0A0E033E0880FE4
:1023A000991FAA1FBB1F3A95D1F7C82AD92AEA2A32
:1023B000FB2A8091210C90E0B0E0A0E044E0880F7F
:1023C000991FAA1FBB1F4A95D1F7C82AD92AEA2A02
:1023D000FB2ACE0101960E940A078D8190E0B0E0B1
:1023E000A0E055E0880F991FAA1FBB1F5A95D1F78F
:1023F000C82AD92AEA2AFB2A98014BE754E06BE65F
:1024000074E082E00E9453118701760120E834E0F5
:102410004BE754E06BE674E082E00E947D10E090B0
:10242000C810F12C10E000E024E834E04BE754E061
:102430006BE674E082E00E947D10E0909A0FF090CD
:102440009B0F10E000E028E834E04BE754E06BE637
:1024500074E082E00E947D102F960FB6F894DEBFE4
:102460000FBECDBFDF91CF911F910F91FF90EF90E5
:10247000DF90CF90089589E493E10E9413078AE3E7
:1024800093E10E9413078BE293E10E9413078CE112
:1024900093E10E9413078DE093E10E9413072CE85B
:1024A00034E045E954E06BE674E082E00C945311AB
:1024B0000F931F93CF93DF93EC018B01FB0184817A
:1024C000958180759170409741F49E0145E954E0F3
:1024D0006BE674E082E00E945311F801848182FF70
:1024E0000CC09E0149E954E06BE674E082E0DF91A4
:1024F000CF911F910F910C945311DF91CF911F91A8
:102500000F9108950F931F93CF93DF938C01EA01EE
:10251000FC018481958180759170409759F481E028
:10252000FB0180839A0145E954E06BE674E082E0A8
:102530000E945311F801848182FF0CC09E0149E979
:1025400054E06BE674E082E0DF91CF911F910F9130
:102550000C945311DF91CF911F910F910895CF9358
:10256000C091F00BCC23C9F080919010811118C05C
:10257000C0915F10C11114C09091770F8091760FB8
:1025800098130EC01092F00B2EE934E044E754E0AB
:1025900067E774E082E00E9453118C2FCF91089579
:1025A000C1E0FBCFFF920F931F93CF93DF930E9465
:1025B000AF128823D9F166EB74E080E00E94F60D3B
:1025C00040E150E060E270E08DEF90E10E94167112
:1025D00084E0EBECF4E0A9EFB0E101900D928A9574
:1025E000E1F70E947D0980930C1110920D1189EF83
:1025F00090E1009721F0BC0181E00E94E30D82E0B0
:102600000E948C0C0E94CD4589EF90E1892B29F026
:1026100069EF70E183E00E94E30D8FEF80932F025A
:10262000DF91CF911F910F91FF9008950E940905AE
:10263000D62FF72EC82F80910C10883008F080E03C
:10264000E82FF0E0EF5CFC4F90819F3F09F06CC0F9
:1026500060ED74E08EE19BE00E94287191E048EA11
:1026600054E0F91639F0E2E040EB54E0FE1202C00B
:102670004CEA54E08FEF8D0F883008F0B7C02D2F53
:102680002150330BF901EE0FFF1FEF5DFC4F8081EE
:10269000918120E06EE17BE00E94364689EF90E177
:1026A000009721F0BC0180E00E94F60DCC2309F4D4
:1026B000A0C0DAE5C23008F09EC034E0C39FF0014C
:1026C0001124E951F04FC08111810281F38044E16E
:1026D00050E060E270E089E09BE00E941671FF929A
:1026E0000F931F93CF931F92DF9385EE94E09F93F8
:1026F0008F931F9284E18F9389E09BE09F938F9348
:102700000E943E71EDB7FEB73C960FB6F894FEBF3F
:102710000FBEEDBF97FF74C090E080E0875F944FDD
:1027200020E2FC0120836FC002E010E0823039F02B
:1027300021E090E0813009F020E0022F192F0E9463
:10274000DB080115110509F520E030E040E05FE30A
:102750000E941A6D0E94046E7F936F9386ED94E041
:102760009F938F931F9280E18F938EE19BE09F93C5
:102770008F930E943E712DB73EB7285F3F4F0FB633
:10278000F8943EBF0FBE2DBF69CF0130110509F08F
:1027900065CF20E030E048EC52E40E94EA6E20E091
:1027A00030E040E05FE30E941A6D0E94046ECB01AE
:1027B00064E670E00E94C76F9F938F937F936F933F
:1027C0008BED94E09F938F931F9280E18F938EE126
:1027D0009BE09F938F930E943E718DB79EB70A96A0
:1027E0000FB6F8949EBF0FBE8DBF38CF84EB94E038
:1027F00050CFD8E562CFC0E010E000E0F12C67CF09
:10280000843108F48BCF0E947D0980931C0B1092B9
:102810001D0B69E07BE0F0CEEF92FF920F931F93C8
:10282000CF930E94F20E90E080E00E94940F082F58
:1028300081E090E00E94940FC82F82E090E00E9417
:10284000940F182F83E090E00E94940F053A61F5F1
:1028500096EF9C0F9B3540F5123030F5C10FCB55EC
:102860008C1322C0E0900002F12C10E000E021EF78
:1028700034E046EF54E06BEF74E082E00E947D109C
:10288000E0903C02F12C10E000E02FEF34E046EF46
:1028900054E06BEF74E082E00E947D10CF911F91B5
:1028A0000F91FF90EF90089524E035E046EF54E05B
:1028B0006BEF74E082E0CF911F910F91FF90EF904A
:1028C0000C9453118AEC90E10E946608811102C0B9
:1028D0000E9435080E94100F20E135E046E155E0E6
:1028E0006BEF74E082E00C9453118BEA90E10E944C
:1028F0006709811102C00E944F090E943C0F20E12C
:1029000035E04BE155E06BEF74E082E00C9453113D
:10291000CF938091A310833010F01092A310C09138
:10292000A310CF5261ED86E490E00E94DE0E60912C
:10293000A31087E490E00E94DE0E6C2F88E490E004
:102940000E94DE0E20E135E040E255E06BEF74E0DE
:1029500082E0CF910C9453110E943A0A84EA90E1EC
:102960000E941D0A811102C00E94130A0E94680F72
:1029700020E135E044E754E06BEF74E082E00C9432
:1029800053111F920F920FB60F9211240BB60F9294
:102990002F933F934F935F936F937F938F939F9367
:1029A000AF93BF93EF93FF938EE091E10E94950365
:1029B000FF91EF91BF91AF919F918F917F916F9117
:1029C0005F914F913F912F910F900BBE0F900FBED3
:1029D0000F901F9018951F920F920FB60F9211240F
:1029E0000BB60F922F938F939F93EF93FF93E091EA
:1029F0001E11F0911F118081E0912411F091251199
:102A000082FD1DC09081809127118F5F8F7320916F
:102A10002811821741F0E0912711F0E0E25FFE4EAD
:102A2000958F80932711FF91EF919F918F912F9117
:102A30000F900BBE0F900FBE0F901F9018958081C6
:102A4000F2CFCF92DF92EF92FF920F931F93CF932B
:102A5000DF936C017C0187E0E80EF11CD0E0C0E060
:102A6000062F10E0B8010C2E02C0759567950A94E8
:102A7000E2F76170F70181917F010E94B2542196C3
:102A8000C430D10579F7C601DF91CF911F910F9125
:102A9000FF90EF90DF90CF900C94320DCF92DF92A9
:102AA000EF92FF920F931F93CF93DF93EC01F62EDB
:102AB000642F8C810E94B2548D818F3F19F060E0A9
:102AC0000E94B2540F2D10E08F8584FF25C06E0147
:102AD00087E0C80ED11CF12CE12CB8010E2C02C0ED
:102AE000759567950A94E2F76170F60181916F011F
:102AF0000E94B254FFEFEF1AFF0A88E0E816F104D3
:102B000061F7CE01DF91CF911F910F91FF90EF9070
:102B1000DF90CF900C94320DB80184E075956795E5
:102B20008A95E1F7CE010E9421156F2DCE01DF912C
:102B3000CF911F910F91FF90EF90DF90CF900C9469
:102B4000211541E00E944E1581E090E008950F9319
:102B50001F930E941C0700917B0F10917C0F209106
:102B60007D0F30917E0F601B710B820B930B1F91B9
:102B70000F9108950F931F93CF93DF93009132022B
:102B800010913302C0913002D09131020E94A715FA
:102B90009801AE010E949B049F772AE037ED43E243
:102BA0005CE30E94866D881F8827881F8093850FAD
:102BB000DF91CF911F910F9108954F925F926F9285
:102BC0007F928F929F92AF92BF92CF92DF92EF92BD
:102BD000FF920F931F93CF93DF930E94AF1288232E
:102BE00009F44DC066EB74E080E00E94F60D40E110
:102BF00050E060E270E08DEF90E10E94167184E099
:102C0000EBECF4E0A9EFB0E101900D928A95E1F7C9
:102C10000E947D0980930C1110920D1189EF90E1B3
:102C2000009721F0BC0181E00E94E30D0E94A546BF
:102C300084EE90E1009721F0BC0182E00E94F60D45
:102C40000E94CD4589EF90E1892B29F069EF70E171
:102C500083E00E94E30D8FEF80932F02DF91CF91ED
:102C60001F910F91FF90EF90DF90CF90BF90AF90AA
:102C70009F908F907F906F905F904F9008950E94EB
:102C80000905EB010E94A7150E9459044B015C0144
:102C90000E94046E8B0190E080E00E94336E9B01E5
:102CA000AC01C501B4010E94196D20E030E048EC90
:102CB00052E40E94EA6E20E030E040E05FE30E94D0
:102CC0001A6D0E94046E6436710520F00F5F1F4F6D
:102CD00070E060E0083681E0180710F010E000E0D6
:102CE0007F936F931F930F9384E295E09F938F934D
:102CF0001F9288E08F9381E09BE09F938F930E94C7
:102D00003E718DB79EB70A960FB6F8949EBF0FBE60
:102D10008DBF48EA54E0D13031F040EB54E0D2307E
:102D200011F44CEA54E08FEF8C0F883008F07BC030
:102D30008C2F8150990BFC01EE0FFF1FEF5DFC4FB4
:102D40008081918121E061E07BE00E94364689EF3D
:102D500090E1009721F0BC0180E00E94F60D009107
:102D60003202F0903302C0913002109131020E9481
:102D7000A715202F3F2D4C2F512F0E949B044B0154
:102D80005C012B013C01E89477F8C301B2010E9479
:102D9000046ED62FE72E20E030E048EC52E4C30169
:102DA000B2010E94EA6E20E030E040E05FE30E9462
:102DB0001A6D0E94046ECB0164E670E00E94C76F3A
:102DC000D82EC92E20E030E0A901C501B4010E942F
:102DD000E56E87FF2BC08DE2CF92DF92EF92DF93FB
:102DE0001F928F93FF920F931F93CF938EE295E0E4
:102DF0009F938F931F9285E18F938CEE9AE09F9320
:102E00008F930E943E716CEE7AE081E00E94F60D95
:102E10000E94A5468DB79EB740960FB6F8949EBF08
:102E20000FBE8DBF05CF84EB94E08CCF8BE2D4CF67
:102E30008A3170F4E82FF0E0EE0FFF1FE951FD4FEB
:102E40000190F081E02D309719F0808191810895F3
:102E50008550863170F4E82FF0E0EE0FFF1FE55447
:102E6000FD4F0190F081E02D309719F0808190E0C6
:102E7000089590E080E00895CF93C82F0E9418171E
:102E800028E0C29FF0011124EF5BFC4F22813381C7
:102E900021303105F9F464E670E00E94C76F9F931A
:102EA0008F937F936F938DED94E09F938F931F92F9
:102EB00089E08F938FEB90E19F938F930E943E71F7
:102EC0008DB79EB70A960FB6F8949EBF0FBE8DBF02
:102ED000CF91089523303105C1F49F938F9387E2FA
:102EE00098E09F938F931F9289E08F938FEB90E1EF
:102EF0009F938F930E943E718DB79EB708960FB631
:102F0000F8949EBF0FBE8DBFE3CF9F938F9387E250
:102F100098E09F938F931F9289E08F938FEB90E1BE
:102F20009F938F930E943E718DB79EB708960FB600
:102F3000F8949EBF0FBE8DBFCBCF81E08093C910A8
:102F40008091C8100E943C170E94810583E495E09F
:102F50000C949A11CF92DF92EF92FF920F931F93EE
:102F6000CF93DF9300D000D01F921F92CDB7DEB772
:102F7000D82E1091C81048E0149FF0011124EF5B87
:102F8000FC4F8281938182309105C9F5812F0E9487
:102F90001817813009F418C1823009F422C1843035
:102FA00009F421C1883009F420C1803109F41FC11E
:102FB000803209F400C15FEFE6E0D51609F40FC1D5
:102FC000F0E0E55EFC4F608170E0812F0E944C06CE
:102FD0008091C8100E943C170E94810528960FB668
:102FE000F894DEBF0FBECDBFDF91CF911F910F913F
:102FF000FF90EF90DF90CF900895EF5FE1CF8330A7
:10300000910551F4812F0E94181761E070E0892B1F
:10301000E1F270E060E0D9CFC090270C2C2D30E0B9
:10302000F901E154FF4E7F01108120ED210F2A307C
:10303000A8F6019709F094C00E94950B082FF1E0C3
:10304000882381F0DF1208C0193311F01F5F01C01F
:1030500010E3F7011083C2CF103311F01150F9CFF4
:1030600019E3F7CFDF1237C0193389F580E3F70191
:1030700080830E947F0D6EE270E08FEB90E10E94F2
:103080001D71009709F48DC0FC01318120ED230FE3
:103090002A3008F030E3FC01228140ED420F4A3033
:1030A00008F020E3EFEBF0E1E817F90758F50730F7
:1030B00070F5419150ED540F5A30B0F7A1E0B0E0F7
:1030C000AC0FBD1FA00FB11D4C930F5FEDCF1F5F65
:1030D000F7011083D0CF103399F40E94A70B8823F7
:1030E00009F47CCFEC2DF0E0E154FF4E8081882381
:1030F00021F081818083C394F5CF0E949405BBCFDA
:103100001150E6CF011103C080E3898301E0CE01B5
:103110000196FC01E00FF11D1082422F022E000CDF
:10312000550B5F932F93432F032E000C550B5F938A
:103130003F939F938F9388E495E09F938F931F9283
:1031400089E08F938FEB90E19F938F930E943E7164
:103150000E9494050FB6F894DEBF0FBECDBF3ECFE0
:1031600051E0D51208C0193309F070CF80E3808395
:103170000E947F0D33CF103309F070CF0E94A70B50
:10318000882309F42BCFEC2DF0E0E154FF4E808131
:10319000882321F081818083C394F5CF0E94940518
:1031A0001DCF8FEB90E1FC0101900020E9F7CF01EA
:1031B000019730E376CFF1E0DF1621F05FEFE5E035
:1031C000D51669F0E5E0FCCEE0E041E0D41609F464
:1031D00014CF8FEFD812F4CEEE2309F4F1CEE150E4
:1031E000EFCEE1E0F2CFE2E0F0CFE3E0EECFE4E0DB
:1031F000ECCF8FB7F894EFE5F0E1108212821382E2
:10320000ADE4B0E151961C925197EBE3F0E1118AE5
:1032100014961D921D921D921C921797148215826E
:10322000168217828FBF08951092760F1092770F33
:10323000109290101092F00B0C94F91880915F107E
:10324000882329F081E090916110911101C080E004
:1032500008954F925F926F927F928F929F92AF925A
:10326000BF92EF92FF920F931F93CF9349015A01A0
:1032700027013801611571058105910571F1C1E0E2
:1032800016161706180619060CF0C0E020915D10FE
:103290002C17C1F0209155103091561040915710C5
:1032A0005091581079018A01E60EF71E081F191F68
:1032B00016161706180619060CF44FC06FEF80E0BB
:1032C0000E94A40CA30192016C2F80E00E94C74CC5
:1032D000C0935D108C2F0E94E80781149104A10413
:1032E000B104E9F1C1E0181419041A041B040CF02C
:1032F000C0E080914B108C17C1F0209143103091A9
:103300004410409145105091461085017401E20E21
:10331000F31E041F151F6FEF181419041A041B0461
:103320000CF461E081E00E94A40CA30192016C2FD7
:1033300081E00E94C74CC0934B108C2FCF911F91FE
:103340000F91FF90EF90BF90AF909F908F907F90E4
:103350006F905F904F900C94BB0761E0B0CFCF911E
:103360001F910F91FF90EF90BF90AF909F908F9023
:103370007F906F905F904F900895EBE3F0E18111A3
:1033800002C0EDE4F0E10FB607FC05C06485758569
:103390008685978508952FB7F89464857585868509
:1033A00097852FBF0895EBE3F0E1811102C0EDE4B2
:1033B000F0E10FB607FC05C044875587668777871D
:1033C00008958FB7F89444875587668777878FBFAE
:1033D0000895EBE3F0E1811102C0EDE4F0E10FB6F6
:1033E00007FC09C0408751876287738744875587E8
:1033F0006687778708958FB7F894408751876287EB
:10340000738744875587668777878FBF0895EBE377
:10341000F0E1811102C0EDE4F0E10FB607FC05C058
:10342000608571858285938508952FB7F8946085AE
:103430007185828593852FBF0895CF92DF92EF9299
:10344000FF920F931F93CF939091880F911155C0C6
:10345000843008F052C0282F30E0F901EF58F44FC3
:103460009081992309F449C08D7FC1E009F0C0E043
:10347000220F331F220F331FF901EF59F44FC08081
:10348000D180E280F3808C2F0E94071A6C157D0595
:103490008E059F0591F1C0938E0FC0928A0FD09236
:1034A0008B0FE0928C0FF0928D0F81E08093980F3C
:1034B0001092970F8093960F8BE0C89FF001112414
:1034C000E653FF4E6781708590E080E00E94336E86
:1034D0008B019C01B701A6018C2F0E946451809141
:1034E0003B02882351F09701860149E658E060E5E8
:1034F00075E086E595E00E94E753CF911F910F910B
:10350000FF90EF90DF90CF900895CF93DF9380E00E
:103510000E94071AC3E3D0E1688379838A839B837F
:1035200081E00E94071A6C837D838E839F83DF91E5
:10353000CF9108958F929F92AF92BF92CF92DF92D8
:10354000EF92FF92CF93CFB7F8940E94F9180E94A0
:103550000E1180E00E94071A4B015C0181E00E947D
:10356000071A6B017C01B501A40180E00E94D31908
:10357000B701A60181E00E94D319CFBF109290102D
:1035800010923110109232101092180C1092140CEC
:103590001092150C1092160C1092170CCF91FF90F0
:1035A000EF90DF90CF90BF90AF909F908F900C9452
:1035B000851ACF93823080F49091330B981761F085
:1035C000C82F0E94AF12882349F0C093330B0E948A
:1035D0006C0682E08093320BCF9108950E949A1A74
:1035E0000E946C06C093330BF4CFCF938091980F59
:1035F000882399F01092980F1092970F1092960FBF
:103600000E94F918C0918E0F8C2F0E94071AAB01EF
:10361000BC018C2FCF910C94D319CF910895809138
:103620009A0F90919B0F0497D1F084E090E09093D3
:103630009B0F80939A0F0E9414190E940E1180E034
:103640000E94071AAB01BC0180E00E94D31981E0FF
:103650000E94071AAB01BC0181E00C94D3190895B4
:1036600060919A0F70919B0FE7E8F2E04FEA52E009
:10367000208131816217730719F02530310529F453
:10368000228133818217930731F035964E175F07F9
:1036900079F70C940F1B90939B0F80939A0F0895CA
:1036A000EF92FF920F931F93CF93883020F5E82F6E
:1036B000F0E08827E15AF44E8F4F0C941C70671B82
:1036C0008B1BA01BB51BC21BC61BC91BFC1B6AE5C1
:1036D00075E080E00E94F60D65E675E081E00E94ED
:1036E000F60D69E675E082E00E94F60D63E775E08D
:1036F00083E00E94F60D80919A0F90919B0F892B89
:1037000009F09AC081E090E0CF911F910F91FF9056
:10371000EF900C94301B81E08093870F6BE575E090
:1037200080E00E94F60D69E775E081E00E94F60DE9
:1037300067E875E082E00E94F60D6EE875E0D8CF8C
:1037400081E08093860F64E975E080E00E94F60DC9
:1037500060EA75E081E00E94F60D67E875E082E0BE
:103760000E94F60D6DEA75E0C3CF6AEB75E080E06C
:103770000E94F60D62EC75E081E00E94F60D6CECA3
:1037800075E0D8CF67ED75E080E0B3CF6CED75E004
:10379000FBCFC1E0C093F50F81E090E09093310240
:1037A0008093300290933302809332020E941C0770
:1037B00060937B0F70937C0F80937D0F90937E0FAF
:1037C0000E941C076093F10F7093F20F8093F30F28
:1037D0009093F40FC09338020E94BA15E12CF12C9B
:1037E0008701E39423EE35E045EE55E06BEE75E09E
:1037F00082E00E947D107FCF81E080937A0F10924B
:10380000790F1092780F6FEE75E080E00E94F60D50
:103810006AEF75E081E00E94F60D69E076E082E0F3
:103820000E94F60D6EE875E083E00E94F60D81E0DF
:1038300090E00E94301B5FCFCF911F910F91FF90BE
:10384000EF900895CF92DF92EF92FF920F931F9324
:10385000CF93DF938A01D62FC72F811181E09BE0A0
:10386000899FF0011124E653FF4E6581768190E037
:1038700080E00E94336E6B017C0120E030E040E884
:103880005FE3B8018D2F9C2F0E94866D87FF04C0D7
:1038900000E010E0D0E8CFE39601A701B8018D2F3A
:1038A0009C2F0E94E56E18161CF48601DE2DCF2D8C
:1038B000B8018D2F9C2FDF91CF911F910F91FF9019
:1038C000EF90DF90CF9008950F931F93CF93C82F61
:1038D0000E94071A209132101216A4F424E0C29F0D
:1038E000F0011124ED5CFF4E0081118122813381B2
:1038F0000617170728073907B4F46083718382839A
:10390000938311C0222379F024E0C29FF001112497
:10391000ED5CFF4E008111812281338160177107B8
:103920008207930754F3CF911F910F910895CF927F
:10393000DF92EF92FF920F931F93CF93DF9381114A
:1039400081E0C82FD0E06623E9F08BE08C9FF00186
:103950008D9FF00D1124E653FF4E6781708590E036
:1039600080E00E94336E8B01D82FC92FB8018D2FB4
:103970009C2FDF91CF911F910F91FF90EF90DF90DF
:10398000CF9008950E94EF086B017C0120E030E0A9
:1039900040E251E40E94866D87FF06C0C12CD12C05
:1039A00080E2E82E91E4F92E8BE08C9FF0018D9F50
:1039B000F00D1124E653FF4E6581768190E080E0A2
:1039C0000E94336E8B01D82FC92F9B01482F592F8E
:1039D000B601C7010E94E56E181644F28601DE2D7D
:1039E000CF2DC4CF4F925F926F927F92AF92BF92D2
:1039F000CF92DF92EF92FF920F931F93CF93DF93BB
:103A00007C01142FFB018481958182FF15C19701F0
:103A100049E954E06BE674E082E00E945311111111
:103A2000EAC10E945F54CFEF811108C00E94555433
:103A3000C1E0811103C0D0E0C0E001C0D1E00E942C
:103A40004A54811122C20E943F54811122C2DD23B7
:103A500039F1CC2329F1C13029F501E0D13009F445
:103A600002E0C02ED12CC6018F58944F5C01FC019E
:103A700080818823A9F08D2F0E94071ACC0CDD1CB1
:103A8000CC0CDD1CF601EF59F44F40805180628070
:103A90007380C13061F4641575058605970574F06F
:103AA000C1E0ADC103E0D130E1F600E0DACFCF3FB5
:103AB00029F4461657066806790694F7970143E1FC
:103AC00056E06BE674E082E00E9453118091880F0B
:103AD000811140C0F50180818823E1F1C1E000FD42
:103AE000C0E0F601EF59F44FC080D180E280F3804E
:103AF0008C2F0E94071A6C157D058E059F0551F1CC
:103B0000C0938E0FC0928A0FD0928B0FE0928C0FD1
:103B1000F0928D0F81E08093980F8093970F109211
:103B2000960F60E08C2F0E94971C8B019C01B701BF
:103B3000A6018C2F0E94645180913B02882351F092
:103B40009701860149E658E063E176E086E595E075
:103B50000E94E753DF91CF911F910F91FF90EF905B
:103B6000DF90CF90BF90AF907F906F905F904F901D
:103B700008952091710B2223A1F0C090610BD09089
:103B8000620BE090630BF090640BC61AD70AE80A48
:103B9000F90AC092610BD092620BE092630BF09233
:103BA000640B2091730B2223A1F0C090690BD0907D
:103BB0006A0BE0906B0BF0906C0BC61AD70AE80A00
:103BC000F90AC092690BD0926A0BE0926B0BF092EB
:103BD0006C0B8C2F0E943B48EC2FF0E0EE0FFF1F88
:103BE000EE0FFF1FE951F04F1082118212821382F3
:103BF0000E947F068C2F0E941D48E12FF0E0EE0FFF
:103C0000FF1FE155FD4F2081318149E156E06BE610
:103C100074E082E00E945311DF91CF911F910F91C8
:103C2000FF90EF90DF90CF90BF90AF907F906F901C
:103C30005F904F900C94480D80759170409709F0FB
:103C400089CF0E94375497018823C1F040E555E0A1
:103C50006BE674E082E00E945311812FDF91CF91D7
:103C60001F910F91FF90EF90DF90CF90BF90AF909A
:103C70007F906F905F904F900C941D1A45E954E02F
:103C80006BE674E082E00E945311C12FD0E0CE01B8
:103C90008F58944F5C01FC018081882329F11082A8
:103CA000C954DD4F61E088810E94B2542EE136E0B4
:103CB00042E555E06BE674E082E00E94531180918A
:103CC0003C02882309F446CFDF91CF911F910F91D9
:103CD000FF90EF90DF90CF90BF90AF907F906F906C
:103CE0005F904F900C94860C812F8D7FD9F481E0EA
:103CF0000E94071A6B017C01112371F11230B9F493
:103D00008091710B8823D1F18091610B9091620BAE
:103D1000A091630BB091640B8C159D05AE05BF059A
:103D20006CF118CF80E00E94071A6B017C01113002
:103D300009F04DC08091740B882301F180916D0BC7
:103D400090916E0BA0916F0BB091700B8C159D052F
:103D5000AE05BF059CF0FECE8091730B882371F0F9
:103D60008091690B90916A0BA0916B0BB0916C0BD9
:103D7000C816D906EA06FB060CF0ECCE81E0F50188
:103D80008083FE01EE0FFF1FEE0FFF1FEF59F44F70
:103D9000C082D182E282F38260E0FE01E954FD4FED
:103DA00080810E94B25480913B02882309F487CF1E
:103DB000CC0FDD1FC155DD4F488159819701860128
:103DC00062E575E08BE694E00E94E75378CF13300C
:103DD000A9F68091720B882389F28091650B9091EE
:103DE000660BA091670BB091680BC816D906EA065E
:103DF000FB0624F2AFCEC1E0123009F0C0E08C2FF8
:103E00000E94071A2091980F222351F020918E0FC3
:103E1000C21306C01092980F1092970F1092960F2F
:103E2000C13009F4A6CE2091720B2223A1F0C090DC
:103E3000650BD090660BE090670BF090680BC61A8C
:103E4000D70AE80AF90AC092650BD092660BE09295
:103E5000670BF092680B2091740B222309F4B9CE02
:103E6000C0906D0BD0906E0BE0906F0BF090700BCC
:103E7000C61AD70AE80AF90AC0926D0BD0926E0BE7
:103E8000E0926F0BF092700BA4CEC1E0D11108CE7E
:103E9000E2CDCFEFFBCFCF92DF92EF92FF920F9365
:103EA0001F936A017B018130B1F48091710B8823EB
:103EB00009F447C06091610B7091620B8091630BB4
:103EC0009091640B2091730B21111EC000E814E83F
:103ED0002EE130E021C08091740B8823B9F160910C
:103EE0006D0B70916E0B80916F0B9091700B209108
:103EF000720B222359F30091650B1091660B2091F0
:103F0000670B3091680B08C00091690B10916A0B28
:103F100020916B0B30916C0BC616D706E806F9069C
:103F20004CF0C701B601061717072807390714F424
:103F3000C901B8011F910F91FF90EF90DF90CF90D2
:103F4000089560E87BE781EE9FEFBCCF60E87BE7F8
:103F500081EE9FEFCCCF7F928F929F92AF92BF92D4
:103F6000CF92DF92EF92FF920F931F93CF93DF9345
:103F7000411551056105710509F442C0722E94E0A6
:103F8000899FE0011124FE01ED5CFF4E808091804D
:103F9000A280B3806A017B01C80CD91CEA1CFB1CFF
:103FA00021113CC0B701A6010E944B1FFE01ED5C30
:103FB000FF4E6083718382839383711008C0C6169D
:103FC000D706E806F90619F081E0F8018083FE01C2
:103FD000E951F04FCD5CDF4E88819981AA81BB8188
:103FE00088199909AA09BB094081518162817381AD
:103FF000840F951FA61FB71F80839183A283B3836D
:10400000DF91CF911F910F91FF90EF90DF90CF90B4
:10401000BF90AF909F908F907F900895C701B60199
:10402000C5CF0F931F93CF93C82F0E94071AC111BA
:1040300027C02091740B222369F000916D0B109121
:104040006E0B20916F0B3091700B06171707280726
:104050003907D1F12091720B2223D1F10091650B28
:104060001091660B2091670B3091680B06171707AC
:104070002807390769F586E4CF911F910F910895BC
:104080002091710B222369F00091610B1091620B5A
:104090002091630B3091640B061717072807390727
:1040A000A9F02091730B222399F00091690B1091D4
:1040B0006A0B20916B0B30916C0B061717072807C2
:1040C000390731F48EE3D8CF82E4D6CF8CE3D4CF56
:1040D00080E2D2CF1F93CF93DF930E940905162F62
:1040E000D72FC82F0E94AF128093F60F80910C102B
:1040F0008093F70F1093F80FD093F90FC093FA0F36
:1041000080E00E94071A6093FB0F7093FC0F80936E
:10411000FD0F9093FE0F81E00E94071A6093FF0F3E
:1041200070930010809301109093021080E00E9421
:1041300011208093031081E00E94112080930410CD
:1041400080E090E0DC01C23050F484E0C89FF001D0
:104150001124E951F04F80819181A281B381809334
:10416000051090930610A0930710B093081080914B
:10417000EF0F9091F00F90930A1080930910DF9148
:10418000CF911F910895CF93CFB7F8949091040DDC
:104190009F5F93707091050D7917F9F0A091040D50
:1041A000E6E0EA9FD0011124A451B34F8C93A09173
:1041B000040DEA9FD0011124A451B34F11966C93C2
:1041C0008091040DE89FF0011124E451F34F228304
:1041D0003383448355839093040DCFBFCF910895CB
:1041E0001F920F920FB60F9211240BB60F922F93BE
:1041F0003F934F935F936F937F938F939F93AF936F
:10420000BF93EF93FF930E943310FF91EF91BF9103
:10421000AF919F918F917F916F915F914F913F915E
:104220002F910F900BBE0F900FBE0F901F901895FF
:104230001F920F920FB60F9211240BB60F922F936D
:104240003F934F935F936F937F938F939F93AF931E
:10425000BF93EF93FF930E94A90DFF91EF91BF9140
:10426000AF919F918F917F916F915F914F913F910E
:104270002F910F900BBE0F900FBE0F901F901895AF
:104280001F920F920FB60F921124A8950F900FBE98
:104290000F901F9018951F920F920FB60F92112436
:1042A0000BB60F922F933F934F935F936F937F9330
:1042B0008F939F93AF93BF93EF93FF930E94280731
:1042C0008091B20F9091B30FA091B40FB091B50F40
:1042D000FF91EF91BF91AF919F918F917F916F91DE
:1042E0005F914F913F912F910F900BBE0F900FBE9A
:1042F0000F901F90189590E0FC01E559FA4FE4915A
:10430000EE2389F0F0E0EE0FFF1FEE54FD4FA59174
:10431000B4912C91855F9A4FFC018491282381E010
:1043200019F480E0089581E008958EE10E947B21D8
:1043300061E0811101C060E08FE592E10E947A0A9C
:104340008FE10E947B2161E0811101C060E080E586
:1043500092E10E947A0A80E20E947B2161E0811151
:1043600001C060E081E492E10E947A0A81E20E9449
:104370007B2161E0811101C060E082E392E10E9453
:104380007A0A82E20E947B2161E0811101C060E033
:1043900083E292E10E947A0A83E20E947B2161E03B
:1043A000811101C060E084E192E10E947A0A84E216
:1043B0000E947B2161E0811101C060E085E092E113
:1043C0000E947A0A85E20E947B2161E0811101C08E
:1043D00060E086EF91E10E947A0A6091060165FB38
:1043E000662760F987EE91E10E947A0A60910601E2
:1043F00066FB662760F988ED91E10E947A0A609178
:104400000601661F6627661F89EC91E10E947A0A01
:104410006CB1629561708AEB91E10E947A0A6CB18D
:1044200065FB662760F98BEA91E10C947A0A1F928A
:104430000F920FB60F9211248F939F93AF93BF9358
:104440004A991EC04B9913C08091100C9091110C89
:10445000A091120CB091130C0197A109B10980939E
:10446000100C9093110CA093120CB093130CBF91ED
:10447000AF919F918F910F900FBE0F901F90189545
:104480004B99F5CF8091100C9091110CA091120CCA
:10449000B091130C0196A11DB11DE1CF1F920F9297
:1044A0000FB60F9211240BB60F922F933F934F9399
:1044B0005F936F937F938F939F93AF93BF93EF938C
:1044C000FF930E942807FF91EF91BF91AF919F91B9
:1044D0008F917F916F915F914F913F912F910F90AD
:1044E0000BBE0F900FBE0F901F901895CF92DF92CA
:1044F000EF92FF92CF93DF93811181E09BE0899F40
:10450000E0011124C653DF4E6881798190E080E09C
:104510000E94336E6B017C016A8170E090E080E064
:104520000E94336E9B01AC01C701B6010E94EA6E86
:104530006B017C016B817C8190E080E00E94336E96
:104540002AE037ED43E25CE30E94EA6E9B01AC0196
:10455000C701B6010E948B6DDF91CF91FF90EF9064
:10456000DF90CF9008954F925F926F927F928F92DB
:104570009F92AF92BF92CF92DF92EF92FF920F93F2
:104580001F93CF93DF93CDB7DEB72C970FB6F89478
:10459000DEBF0FBECDBF90916110992309F48DC08D
:1045A00040918C1050918D1060918E1070918F10F1
:1045B000A0908810B0908910C0908A10D0908B1075
:1045C000A986BA86CB86DC86A416B506C606D706AB
:1045D00020F449875A876B877C87C984DA84EB8407
:1045E000FC84CD28CE28CF2841F4E12CF12C870182
:1045F000E394E986FA860B871C878090741090906C
:104600007510A0907610B090771004E0809FF001B4
:104610001124E15AFF4EC1A4D2A4E3A4F4A40E9441
:1046200076222B013C0120E030E040E85FE30E946D
:10463000866D87FD53C0C501B401A70196010E9494
:104640004670C984DA84EB84FC8456016701E12C4E
:10465000F12C8701A982BA82CB82DC82ED82FE82B4
:104660000F831887E12CF12C00E010E00E9473709A
:10467000B901CA010E94336E20E030E040E752E405
:104680000E94EA6EA30192010E948B6D2C960FB6D8
:10469000F894DEBF0FBECDBFDF91CF911F910F9178
:1046A000FF90EF90DF90CF90BF90AF909F908F9052
:1046B0007F906F905F904F900895A0906410B0909D
:1046C0006510C0906610D0906710A986BA86CB8618
:1046D000DC86AB28AC28AD2809F08FCF60E070E015
:1046E000CB01D4CFCF92DF92EF92FF92CF93C82F1E
:1046F00080915F10811108C06091AA1070E090E075
:1047000080E00E94336E33C08C2F0E94B3226B0175
:104710007C0120E030E040E85FE30E94E56E87FF27
:1047200028C08C2F0E9476226B017C0120E030E0B3
:1047300040E85FE30E94E56E87FDDECF6091781070
:104740007091791080917A1090917B1061157105AC
:104750008105910589F20E94336E20E030E040E748
:1047600052E40E94EA6EA70196010E948B6D6B01D4
:104770007C01C701B601CF91FF90EF90DF90CF9001
:104780000895CF92DF92EF92FF92CF93C82F0E94AD
:1047900076226B017C01C111C1E08BE0C89FF00162
:1047A0001124E653FF4E618570E090E080E00E94A6
:1047B000336E20E030E048E452E40E94EA6EA70144
:1047C00096010E94EA6E20E030E040E05FE30E9444
:1047D0001A6D0E94046E611571058105910521F421
:1047E00061E070E080E090E0CF91FF90EF90DF908B
:1047F000CF9008952F923F924F925F926F927F9247
:104800008F929F92AF92BF92CF92DF92EF92FF92E0
:104810000F931F93CF93DF93CDB7DEB72F970FB6CC
:10482000F894DEBF0FBECDBF1091770FC090760F0A
:10483000CD821C1509F4BAC180E00E94071A6E836C
:104840007F838887998781E00E94071A6A877B8720
:104850008C879D8707E2212E312C029D7001039DDC
:10486000F00C112497012A5F324F3A832983D90132
:1048700096968C919697882399F192968C9192971F
:1048800080FF69C094966D917C9190E080E00E94D9
:10489000336EE981FA81648F758F868F978F10A2AE
:1048A00011A2029DF001039DF00D1124EA5FF24F69
:1048B00082A180FD10C0C084D184E284F384CE82C2
:1048C000DF82E886F986C484D584E684F784CA86C4
:1048D000DB86EC86FD861F5F1F70DD80D112BBCFAB
:1048E0008D81815F8F708983E090770FED821E82CA
:1048F0001A86312C212CF9800F2D10E027E2209F01
:10490000F001219FF00D1124EA5FF24F86A1882368
:1049100009F44CC18E819A85A32DB22D808F918F81
:10492000A28FB38F82A180FFA1C0148A158A168A34
:10493000178A108E118E128E138E1E821A86312CBB
:10494000212CCD80D980CD1409F430C18D2D815F0B
:104950008F708983D0CFA981BA8118964D905D90D0
:104960006D907C901B97CE80DF80E884F9844C1892
:104970005D086E087F081C968D919D910D90BC91ED
:10498000A02D6C017D012A853B854C855D85C21A71
:10499000D30AE40AF50AC982DA82EB82FC82530167
:1049A000420177FE07C08824992454018418950891
:1049B000A608B708C980DA80EB80FC80F7FE08C043
:1049C000F094E094D094C094C11CD11CE11CF11C63
:1049D000029DA001039D500D11244A5F524F5F8735
:1049E0004E87B401C5018C149D04AE04BF0410F4BD
:1049F000B601C7010E94336EAE85BF855C966D938C
:104A00007D938D939C935F97029DF001039DF00D24
:104A10001124EA5FF24F81E0141415041604170400
:104A20000CF080E080A3029DF001039DF00D1124A5
:104A3000EA5FF24F81E029813A814B815C81121655
:104A40001306140615060CF080E081A3029DF00108
:104A5000039DF00D1124EA5FF24F81E08C149D0458
:104A6000AE04BF0408F080E083A31BCFF3A0448C06
:104A7000558C668C778C8F2D0E9476224B015C01C1
:104A8000EF2DF110E1E03BE03E9FF0011124E653F1
:104A9000FF4E618570E090E080E00E94336E20E080
:104AA00030E048E452E40E94EA6E6B017C0120E0B1
:104AB00030E0A901C501B4010E94E56E18160CF0A2
:104AC00071C0A5019401C301B2010E948B6D4B011D
:104AD0005C0120E030E040E752E46E817A85832D6E
:104AE000922D0E948B6D2B013C01A7019601C701FD
:104AF000B6010E941A6DA50194010E94EA6E6B0135
:104B00007C01A3019201C301B2010E94EA6E9B01E4
:104B1000AC01C701B6010E941A6D6B017C0120E057
:104B200030E0A9010E94866D87FF03C0C12CD12C03
:104B30007601C701B6010E945D6F20E030E040E7DA
:104B400052E40E94EA6E6B017C0147E2409FF00153
:104B5000419FF00D1124EA5FF24F50895E838189F5
:104B60008A87328823889601A7016E81782F832D4A
:104B7000922D0E94866D87FD04C0CE82DA863E2C7F
:104B80002F2C97E2909FF001919FF00D1124EA5F86
:104B9000F24F8E819A85A32DB22D848B958BA68B97
:104BA000B78BCFCE812C912C540193CF2F960FB67B
:104BB000F894DEBF0FBECDBFDF91CF911F910F9153
:104BC000FF90EF90DF90CF90BF90AF909F908F902D
:104BD0007F906F905F904F903F902F9008952F920D
:104BE0003F924F925F926F927F928F929F92AF927D
:104BF000BF92CF92DF92EF92FF920F931F93CF93CA
:104C0000DF93CDB7DEB72E970FB6F894DEBF0FBE99
:104C1000CDBF811145C04090991050909A1060907E
:104C20009B1070909C1014141504160417040CF0BB
:104C30007AC149875A876B877C878D832FB6F89412
:104C400080E00E94071A4B015C0181E00E94071A74
:104C50006B017C012091760F2983122F1F5F1F703B
:104C60000091770F101325C02FBE8FEF9FEF2E9668
:104C70000FB6F894DEBF0FBECDBFDF91CF911F916D
:104C80000F91FF90EF90DF90CF90BF90AF909F90EB
:104C90008F907F906F905F904F903F902F900895EE
:104CA00040909D1050909E1060909F107090A010AA
:104CB000BACF8981A7E28A9FC00111248A5F924FEF
:104CC0009E878D8733243394DC0196963C92B50100
:104CD000A40180E00E944B1F4B015C01ED85FE8525
:104CE00080869186A286B386B701A60181E00E94E4
:104CF0004B1F6B017C01AD85BE851C96CD92DD926C
:104D0000ED92FC921F9780E00E94762269837A835D
:104D10008B839C83C501B4010E94356E29813A8141
:104D20004B815C810E948B6DED85FE856083718374
:104D30008283938381E00E9476224B015C01C7014C
:104D4000B6010E94356EA50194010E948B6DAD8560
:104D5000BE8514966D937D938D939C93179789854B
:104D60009A85AB85BC85ED85FE85808B918BA28B6A
:104D7000B38BDF01148A158A168A178A108E118E5A
:104D8000128E138E148E158E168E178E10A211A2EF
:104D900032A2ED819396EC93939795965C924E9206
:104DA00094971093760F0E94FA23312E301A101721
:104DB00028F4612F601B80E1382E360E80913B0273
:104DC000882309F4AFC0115F1F7027E2129FF00122
:104DD0001124EA5FF24F02A10170808D918DA28DA6
:104DE000B38D89839A83AB83BC8384899589A68993
:104DF000B7898D839E83AF83B88780899189A28983
:104E0000B38989879A87AB87BC8784809580A68081
:104E1000B7804080518062807380C48CD58CE68CD2
:104E2000F78C13A166E276E08EE091E10E942B10F0
:104E300001117CC0A2E2B6E0BE87AD87C701B60112
:104E40000E94046E6B017C016D857E858EE091E190
:104E50000E942B1061E878E08EE091E10E942B1017
:104E6000002309F468C08AE5111101C088E50E9499
:104E7000BC4765E376E08EE091E10E942B104AE0AA
:104E8000C701B6010E94C14762E476E08EE091E17D
:104E90000E942B1020E030E040E05FE369857A85D6
:104EA0008B859C850E941A6D0E94FD6DCB010E942E
:104EB0009A4865E476E08EE091E10E942B1020E0B4
:104EC00030E040E05FE36D817E818F8198850E94B4
:104ED0001A6D0E94FD6DCB010E949A486AE476E04B
:104EE0008EE091E10E942B1020E030E040E05FE393
:104EF00069817A818B819C810E941A6D0E94FD6D6F
:104F0000CB010E949A4860E576E08EE091E10E9434
:104F10002B10632D70E090E080E04AE00E94C147D2
:104F20000E941D462FBE90E080E0A1CEE4E7F4E0B1
:104F3000FE87ED8783CF65E37AE08EE091E10E9402
:104F40002B1043E0C301B2010E941F496AE376E0DF
:104F50008EE091E10E942B1043E0C501B4010E9454
:104F60001F496DE376E087CFCF92DF92EF92FF92F9
:104F70000F93CF936A017B01C22F811126C00E943B
:104F800076220E94FD6D2AE030E040E050E0011101
:104F900022C0C130E1F0F7FE04C0CC24CA94DC2C5E
:104FA0007601A7019601121613061406150624F4BD
:104FB00021E030E040E050E0CA01B901CF910F910B
:104FC000FF90EF90DF90CF90089581E0D8CF24E656
:104FD00030E040E050E00E94FD6F12161306140608
:104FE000150624F021E030E040E050E01C141D04E0
:104FF0001E041F040CF350954095309521953F4FAA
:105000004F4F5F4FD9CF8F929F92AF92BF92CF9267
:10501000DF92EF92FF92CF93DF9380E00E9476229F
:105020004B015C0181E00E9476226B017C01809142
:10503000A5109091A610C091A710D091A81000972C
:1050400011F1B0E0A0E08093991090939A10A09392
:105050009B10B0939C10209779F1CE01B0E0A0E0B6
:1050600080939D1090939E10A0939F10B093A010DA
:10507000DF91CF91FF90EF90DF90CF90BF90AF90F6
:105080009F908F9008952BE734E14EEA5EE3C501CF
:10509000B4010E94EA6E20E030E040E05FE30E944D
:1050A0001A6D0E94FD6D6093991070939A10809311
:1050B0009B1090939C10CFCF2EE135E84BEE5EE332
:1050C000C701B6010E94EA6E20E030E040E05FE3F5
:1050D0000E941A6D0E94FD6D60939D1070939E104A
:1050E00080939F109093A010C3CFEF92FF920F93E5
:1050F0001F930E940328E0909910F0909A1000915D
:105100009B1010919C1023E536E044E754E067E7DC
:1051100074E082E00E947D10E0909D10F0909E105F
:1051200000919F101091A01028E536E044E754E06C
:1051300067E774E082E00E947D101F910F91FF905D
:10514000EF900895CF93DF931F921F92CDB7DEB7F4
:10515000803119F490E080E056C08A31D9F38E3264
:10516000C8F7DB01E82FF0E08827E654F74D8F4FB2
:105170000C941C70E82808291D293329AA28AA287C
:10518000AA28AA28AA28AA28482960297129872993
:105190009D29B429AA28C629AA28AA28CE29E52902
:1051A000F7290E2A252A3C2AAA284E2AAA28AA2804
:1051B000562A6D2A772AAA28AA28AA28AA28AA281D
:1051C000AA28AA288C2A962AB02AC62AF82AE02ACF
:1051D000BE016F5F7F4FCD010E94E90B892B09F45F
:1051E000B9CF4091AD105091AE1069817A814617C8
:1051F000570708F4AB0190E080E00E943D090E944F
:10520000751481E090E00F900F90DF91CF91089599
:10521000BE016F5F7F4FCD010E94E90B892B09F41E
:1052200099CF6091AB107091AC1089819A81AC01DB
:105230008617970700F7BC01DECFBE016F5F7F4F77
:10524000CD010E94040C892B09F484CF4091B11048
:105250005091B21069817A814617570708F4AB0163
:1052600081E090E0CACFBE016F5F7F4FCD010E9409
:10527000040C892B09F46ECF6091AF107091B010BF
:1052800089819A81AC018617970750F7BC01E8CF56
:10529000BE016F5F7F4FCD010E94E90B892B09F49E
:1052A00059CF89819A819C01225331092F39374086
:1052B00020F49093D6108093D5100E946214A1CF51
:1052C000BE016F5F7F4FCD010E94E90B892B09F46E
:1052D00041CF89819FEF980F903278F78093D71054
:1052E000ECCFBE016F5F7F4FCD010E94040C892B74
:1052F00009F430CF89819A819C012A5031092F3DD0
:105300003340D8F69093D9108093D810D6CFBE01F1
:105310006F5F7F4FCD010E94E90B892B09F41ACFF3
:1053200089819A819C012A5031092F37334128F60F
:105330009093DB108093DA10C0CFBE016F5F7F4F78
:10534000CD010E94E90B892B09F404CF89819A8150
:105350009C012A5031092730374208F0AECF909394
:10536000DD108093DC10A9CFBE016F5F7F4FCD01B0
:105370000E94E90B892B09F4EDCE89819FEF980FEC
:10538000943108F09ACF8093DE1097CF81E09C9102
:10539000913309F080E08093DF108FCFBE016F5F03
:1053A0007F4FCD010E94E90B892B09F4D3CE89816F
:1053B0009A819C01225331092F39374008F07DCF63
:1053C0009093CB108093CA1078CFBE016F5F7F4F50
:1053D000CD010E94E90B892B09F4BCCE89819FEF96
:1053E000980F903208F069CF8093CC1066CFBE0141
:1053F0006F5F7F4FCD010E94040C892B09F4AACE68
:1054000089819A819C012A5031092F3D334008F04F
:1054100054CF9093CE108093CD104FCFBE016F5FCD
:105420007F4FCD010E94E90B892B09F493CE89812E
:105430009A819C012A5031092F37334108F03DCF22
:105440009093D0108093CF1038CFBE016F5F7F4F05
:10545000CD010E94E90B892B09F47CCE89819A81C8
:105460009C012A5031092730374208F026CF90930B
:10547000D2108093D11021CFBE016F5F7F4FCD013D
:105480000E94E90B892B09F465CE89819FEF980F63
:10549000943108F012CF8093D3100FCF81E09C910C
:1054A000913309F080E08093D41007CFBE016F5F85
:1054B0007F4FCD010E94E90B892B09F44BCE8981E6
:1054C0009A819C01245631092D3A364208F0F5CED6
:1054D0009093E1108093E010F0CE81E09C919133A5
:1054E00009F080E080933C020E940C148ACEBE0139
:1054F0006F5F7F4FCD010E94E90B892B09F42ACE03
:1055000089819A81813D27E0920708F023CE90930C
:10551000E3108093E210D1CE81E09C91913309F0A9
:1055200080E08093A4100E94AC146BCEBE016F5F2C
:105530007F4FCD010E94E90B892B09F40BCE8981A5
:105540009A81893843E1940710F088E893E19093B9
:10555000A6108093A5100E94AC140E94752851CE0D
:10556000BE016F5F7F4FCD010E94E90B892B09F4CB
:10557000F1CD89819A81893823E1920710F088E87A
:1055800093E19093A8108093A710E5CFBE016F5FC1
:105590007F4FCD010E94E90B892B09F4DBCD898176
:1055A0009A81893C910510F088EC90E08530910556
:1055B00010F485E090E08093A9100E943A0AB3CFDE
:1055C000BE016F5F7F4FCD010E94E90B892B09F46B
:1055D000C1CD89819A81893C910510F088EC90E0D9
:1055E0008530910510F485E090E08093AA10E5CF16
:1055F000BE016F5F7F4FCD010E94E90B892B09F43B
:10560000A9CD89819A818330910508F0A3CD80933B
:10561000A3100E948814F5CD8F929F92AF92BF92F3
:10562000CF92DF92EF92FF920F931F93CF93DF936E
:10563000CDB7DEB76A970FB6F894DEBF0FBECDBF09
:1056400080E30E94720D8CE20E94720D81E30E9441
:10565000720D8BE20E94720D80E10E94720D8AE24F
:105660000E94680D8DE10E94680D89E10E94680D1D
:105670008BE10E94680D87E10E94680D86E30E941D
:105680007C0D87E30E947C0D88E30E947C0D89E3FA
:105690000E947C0D8AE30E947C0D8EE30E947C0DAB
:1056A0008FE30E947C0D80E40E947C0D81E40E94C7
:1056B0007C0D82E40E947C0D83E40E947C0D84E4D6
:1056C0000E947C0D85E40E947C0D8EE10E947C0D81
:1056D0008FE10E947C0D80E20E947C0D81E20E949D
:1056E0007C0D82E20E947C0D83E20E947C0D84E2AC
:1056F0000E947C0D85E20E947C0D82E10E947C0D5F
:1057000083E10E947C0D82E00E947C0D83E00E9478
:105710007C0D8FE00E947C0D8EE00E947C0D84E168
:105720000E947C0D85E10E947C0D86E10E947C0D2B
:1057300088E10E947C0D8AE10E947C0D8CE10E9430
:105740007C0D88E20E947C0DE0911E11F0911F11EA
:1057500082E08083E0911A11F0911B111082E09198
:105760001C11F0911D1180E1808310922611E091AF
:105770002211F091231186E08083E0912011F091B5
:105780002111808180618083E0912011F0912111AD
:10579000808188608083E0912011F09121118081C7
:1057A00080688083E0912011F091211180818F7DAC
:1057B000808381E080933B0214B714BE80913B024A
:1057C000882331F06DE576E08EE091E10E942B10A8
:1057D000612F70E090E080E04AE00E94C1470E94A3
:1057E0001D461092E60F68E676E08EE091E10E9499
:1057F0002B1080E20E94BC4767E776E08EE091E1E3
:105800000E942B1080E892E00E94644880913B0245
:10581000882321F080E09AE00E94234680913B0299
:10582000882321F082E896E00E94234628EA36E0A9
:105830004CEA56E062EB76E082E00E94531190E081
:1058400080E00E94940F182F81E090E00E94940F56
:10585000D82E82E090E00E94940FC82E83E090E062
:105860000E94940FB82E153A61F586EF8D0D8B3599
:1058700040F521E02C1528F18D2D8C0D8B55B8129B
:1058800020C0D0920002C0923C02ED2CF12C10E01E
:1058900000E021EF34E046EB56E06BEF74E082E08D
:1058A0000E947D10E0903C02F12C10E000E02FEF10
:1058B00034E046EB56E06BEF74E082E00E947D102E
:1058C00014C084E68093000281E080933C02153A84
:1058D00009F482C40E94F20E2BEB36E046EB56E050
:1058E0006BEF74E082E00E94531180E190E00E942F
:1058F000940FF82E89E190E00E94940FA82E87EB78
:10590000F81299C48E010F5F1F4F4801A1E1CA2E02
:10591000D12CB02EE12EC6010E94940FD4018D939C
:105920004D01BFEFCB1ADB0AE9E1CE16D10499F79E
:10593000C8010896D8012D918D01F20EA817B9075C
:10594000C9F7AF1078C48B2D9E2D0E94670988235C
:1059500009F471C489819A81AB81BC818093AB10B9
:105960009093AC10A093AD10B093AE108D819E813A
:10597000AF81B8858093AF109093B010A093B11011
:10598000B093B21024ED36E04BE155E06BEF74E0DC
:1059900082E00E94531180E290E00E94940FF82E62
:1059A00087E390E00E94940FA82EB5ECFB124AC446
:1059B0008E010F5F1F4F4801F1E2CF2ED12CB02E88
:1059C000E12EC6010E94940FF40181934F01FFEF75
:1059D000CF1ADF0A2BE3C216D10499F7C8014A9601
:1059E000D8012D918D01F20E8A179B07C9F7AF10D0
:1059F00029C48B2D9E2D0E946608882309F422C499
:105A00008AE1EB2DFE2DAAECB0E101900D928A9572
:105A1000E1F724ED36E046E155E06BEF74E082E01B
:105A20000E94531188E390E00E94940FF82E80E4C6
:105A300090E00E94940FA82EB2EBFB120AC48E01D4
:105A40000F5F1F4F4801E9E3CE2ED12CB02EE12E7F
:105A5000C6010E94940FF40181934F01FFEFCF1A0A
:105A6000DF0A20E4C216D10499F7C8010796D801CD
:105A70002D918D01F20EA817B907C9F7AF10E9C330
:105A80008B2D9E2D0E941D0A882309F4E2C387E016
:105A9000EB2DFE2DA4EAB0E101900D928A95E1F77D
:105AA00024ED36E044E754E06BEF74E082E00E94BE
:105AB000531168E486E40E94960F24ED36E08111CC
:105AC0000BC062E480E40E94960F882309F4C8C3E7
:105AD0000E94881424EE36E040E255E06BEF74E05B
