:020000040000FA
:100000000C943C010C9400120C946D010C94C911D9
:100010000C946D010C946D010C946D010C946D01A8
:100020000C946D010C946D010C946D010C946D0198
:100030000C946D010C945A0E0C946D010C94B40F39
:100040000C946D010C94EC0F0C946D010C946D01EB
:100050000C946D010C946D010C946D010C94100EB8
:100060000C946D010C94230F0C94F90E0C946D01FB
:100070000C946D010C946D010C946D010C946D0148
:100080000C94A90F0C946D010C946D010C946D01EE
:100090000C946D010C946D010C946D010C946D0128
:1000A0000C946D010C946D010C94810F0C946D01F6
:1000B0000C946D010C946D010C946D010C94590F0E
:1000C0000C946D010C946D010C946D010C946D01F8
:1000D0000C946D010C946D010C946D010C946D01E8
:1000E0000C946D010C94640A0C94C2010C94C5012B
:1000F0000C94A1040C949F010C94EB010C94CF017F
:100100000C94F5010C94BE010C94CB010C94F101FC
:100110000C947E040C94D5010C9439050C94A40124
:100120000C94AF040C94D9010C948D040C943D12E2
:100130000C94E7040C948A050C94B6010C945104B9
:100140000C94DD010C94E3010C94BA010C948B0522
:100150000C94E701000020002300260029002C0059
:100160002F00320000010000030106010901000018
:100170002100240027002A002D0030003300010157
:100180000000040107010A0100000A0B02090C0D1E
:100190000E0807030401000000000000000000003A
:1001A000000000000000000000000000000000004F
:1001B000000000001211100000000000000000000C
:1001C000000000000000000000000000000001022C
:1001D0001020200808102040102040800201020159
:1001E0000804020101020408102040808040201011
:1001F000080402018004020180402010080402016A
:1002000008040201010204081020408001020408D1
:100210001020408000002200250028002B002E0026
:100220003100340002010000050108010B01050541
:100230000505070508080808020202020A0A08085C
:10024000040404040101010101010101030303038A
:1002500003030303040707070C0C0C0C0C0C0C0C19
:100260000202020206060606060606060B0B0B0B2A
:100270000B0B0B0B02003D1211241FBECFEFD1E27E
:10028000DEBFCDBF00E00CBF14E0A0E0B2E0EAEFBB
:10029000F6E400E00BBF02C007900D92AC34B1074A
:1002A000D9F727E0ACE4B4E001C01D92AF3BB20740
:1002B000E1F711E0CCE3D1E000E006C021970109AD
:1002C000802FFE010E94E01FCB33D10780E008079A
:1002D000A9F70E941E140C947B230C940000282F75
:1002E00030E0F901E857FE4F9491F901E253FE4FD7
:1002F0004491225D3D4FF9012491222309F435C038
:10030000992311F191509231F8F4E92FF0E0882708
:10031000E357FE4F8F4F0C94E01FBE01C2019F01B7
:10032000B601BA01A401C501CB01CF01D501D901A4
:10033000DD01E301E701A401EB01F101F501809189
:1003400080008F7780938000E22FF0E0EE0FFF1F98
:10035000EC5EFD4FA591B4918FB7F894EC916111CB
:1003600048C040954E234C938FBF089580918000E4
:100370008F7DE8CF80918000877FE4CF84B58F7731
:1003800084BDE2CF84B58F7DFBCF8091B0008F77A5
:100390008093B000D9CF8091B0008F7DF9CF80914C
:1003A00090008F7780939000CFCF809190008F7DC9
:1003B000F9CF80919000877FF5CF8091A0008F7753
:1003C0008093A000C1CF8091A0008F7DF9CF809154
:1003D000A000877FF5CF809120018F778093200147
:1003E000B3CF809120018F7DF9CF80912001877F4D
:1003F000F5CF4E2BB8CFCF93DF9390E0FC01E253C3
:10040000FE4F2491825D9D4FFC0184918823C9F0A9
:1004100090E0880F991FFC01E259FE4FA591B4911D
:10042000FC01EC5EFD4FC591D49161110DC09FB7E9
:10043000F8948C91209582238C938881282328839B
:100440009FBFDF91CF910895623051F49FB7F89428
:100450003C91822F809583238C93E8812E2BEFCFC4
:100460008FB7F894EC912E2B2C938FBFEACFCF93BC
:1004700080910902803121F08F3F61F1CF91089581
:10048000E4E7F2E0C491C7FDF9CF61E080E10E94AA
:10049000FB01CC2309F4F1C0C23009F006C1809100
:1004A000B100887F83608093B10083E68093B300BE
:1004B00088EC90E0A0E0B0E08093690590936A0535
:1004C000A0936B05B0936C0580917000826080935F
:1004D0007000D4CF80E180930902E4E7F2E0C49198
:1004E0008C2FCF3F59F2C23009F468C060F4CC239E
:1004F00079F1C13009F444C087FDC0CF61E080E1EB
:100500000E94FB01C9CFC43009F499C008F478C037
:10051000C53091F7109220011092210180912101A4
:100520008860809321018091210181608093210165
:10053000EEE3F2E0E491F0E0EE0FFF1FEC5EFD4F22
:1005400085919491EEEDF1E0E491E09355059DCF16
:1005500014BC15BC84B5826084BD85B5816085BD41
:10056000EEE3F2E0E491F0E0EE0FFF1FEC5EFD4FF2
:1005700085919491EEEDF1E0E491E0935C0585CFF7
:100580001092800010928100809181008860809399
:10059000810080918100816080938100EEE3F2E030
:1005A000E491F0E0EE0FFF1FEC5EFD4F859194911A
:1005B000EEEDF1E0E491E0935B0567CF1092B000BF
:1005C0001092B1008091B00082608093B000809161
:1005D000B10081608093B100EEE3F2E0E491F0E0DD
:1005E000EE0FFF1FEC5EFD4F8591949190935A059D
:1005F00080935905EEEDF1E0E491E093580545CF85
:1006000010929000109291008091910088608093E8
:10061000910080919100816080939100EEE3F2E07F
:10062000E491F0E0EE0FFF1FEC5EFD4F8591949199
:10063000EEEDF1E0E491E0935705C3E026CF109290
:10064000A0001092A1008091A10088608093A10079
:100650008091A10081608093A100EEE3F2E0E4913B
:10066000F0E0EE0FFF1FEC5EFD4F85919491EEEDF3
:10067000F1E0E491E093560508CF85B5887F83606B
:1006800085BD81E387BD88EC90E0A0E0B0E0809379
:10069000710590937205A0937305B09374058091D2
:1006A0006E00826080936E00E9CEC130F1F48091DB
:1006B0008100887F8160809381008FE79CE0909328
:1006C00089008093880088EC90E0A0E0B0E08093FF
:1006D0006D0590936E05A0936F05B09370058091A2
:1006E0006F00826080936F00C9CEC330F1F48091B7
:1006F0009100887F8160809391008FE79CE09093C8
:1007000099008093980088EC90E0A0E0B0E080939E
:10071000650590936605A0936705B0936805809181
:100720007100826080937100A9CEC430F1F4809191
:10073000A100887F81608093A1008FE79CE0909367
:10074000A9008093A80088EC90E0A0E0B0E080933E
:10075000610590936205A0936305B0936405809151
:10076000720082608093720089CEC530F1F480916E
:100770002101887F8160809321018FE79CE0909325
:1007800029018093280188EC90E0A0E0B0E08093FC
:100790005D0590935E05A0935F05B0936005809121
:1007A000730082608093730069CEC23091F034F49C
:1007B000CC2369F0C13009F061CE7FCFC43009F499
:1007C000BCCF0CF49ACFC53009F058CED6CF8FE706
:1007D00059CF8FE76BCE3FB7F89480915105909138
:1007E0005205A0915305B091540526B5A89B05C0AC
:1007F0002F3F19F00196A11DB11D3FBFBA2FA92FA0
:10080000982F8827BC01CD01620F711D811D911D9C
:1008100042E0660F771F881F991F4A95D1F7089508
:100820008F929F92AF92BF92CF92DF92EF92FF9200
:100830000E94EB034B015C0184E6C82ED12CE12C15
:10084000F12C0E94EB03681979098A099B09683E1B
:10085000734081059105A8F321E0C21AD108E1088F
:10086000F10888EE880E83E0981EA11CB11CC1140B
:10087000D104E104F10429F7FF90EF90DF90CF90CD
:10088000BF90AF909F908F9008952FB7F89460918C
:100890004D0570914E0580914F05909150052FBFE9
:1008A0000895AF92BF92CF92DF92EF92FF920F9393
:1008B0001F93CF93DF936C017B018B01040F151FF6
:1008C000EB015E01AE18BF08C017D10759F069915E
:1008D000D601ED91FC910190F081E02DC6011995B2
:1008E000892B79F7C501DF91CF911F910F91FF906F
:1008F000EF90DF90CF90BF90AF900895FC01538DA3
:10090000448D252F30E0842F90E0821B930B5417E9
:1009100010F0CF96089501970895FC01918D828D76
:10092000981761F0A28DAE0FBF2FB11D5D968C910F
:10093000928D9F5F9F73928F90E008958FEF9FEF4E
:100940000895FC01918D828D981731F0828DE80F0A
:10095000F11D858D90E008958FEF9FEF0895FC01C4
:10096000918D228D892F90E0805C9F4F821B910991
:100970008F739927089585E795E00E94AF0421E0E1
:10098000892B09F420E0822F0895FC01A48DA80F83
:10099000B92FB11DA35ABF4F2C91848D90E00196C1
:1009A0008F739927848FA689B7892C93A089B189E1
:1009B0008C91837080648C93938D848D981306C082
:1009C0000288F389E02D80818F7D80830895EF92E6
:1009D000FF920F931F93CF93DF93EC0181E0888FF9
:1009E0009B8D8C8D98131AC0E889F989808185FFC9
:1009F00015C09FB7F894EE89FF896083E889F9896B
:100A000080818370806480839FBF81E090E0DF916C
:100A1000CF911F910F91FF90EF900895F62E0B8DBF
:100A200010E00F5F1F4F0F731127E02E8C8D8E117A
:100A30000CC00FB607FCFACFE889F989808185FFE1
:100A4000F5CFCE010E94C504F1CFEB8DEC0FFD2F49
:100A5000F11DE35AFF4FF0829FB7F8940B8FEA899C
:100A6000FB8980818062CFCF682F85E795E00C9469
:100A7000E704CF93DF93EC01888D8823B9F0AA892E
:100A8000BB89E889F9898C9185FD03C0808186FD49
:100A90000DC00FB607FCF7CF8C9185FFF2CF808198
:100AA00085FFEDCFCE010E94C504E9CFDF91CF9144
:100AB000089580E090E0892B29F00E94BB04811109
:100AC0000E94000080E090E0892B49F080E090E0F7
:100AD000892B29F00E94000081110E94000080E013
:100AE00090E0892B49F080E090E0892B29F00E946A
:100AF000000081110E94000080E090E0892B49F005
:100B000080E090E0892B29F00E94000081110C9474
:100B100000000895089590E080E008958091030119
:100B20008370823029F41092BB048091BB04089535
:100B30008130D9F78093BB04F8CF8091160690914D
:100B40001706807299272091250625FF08C0892B5A
:100B500019F481E080930002809100020895892BAE
:100B6000D9F310920002F8CF8091520685FF04C09D
:100B700082E08093660406C08091430685FF05C02D
:100B8000109266048091660408958091340685FF72
:100B9000F9CF81E0EECF8091CA0685FD1EC080911D
:100BA000BB0685FD1CC08091AC0685FD1AC08091F6
:100BB0009D0685FD18C080918E0685FD16C080912A
:100BC0007F0685FD14C08091700685FD12C080915E
:100BD000610685FD10C080E0089581E0089582E0FF
:100BE000089583E0089584E0089585E0089586E0FF
:100BF000089587E0089588E0089580917B00877FBD
:100C000080937B0087E480937C0080917A008064ED
:100C100080937A0080917A0086FDFCCF80917800E5
:100C2000909179002091420530914305AC01421B1F
:100C3000530B141615065CF42091420530914305C0
:100C4000AC01421B530B4630510554F408952091DA
:100C5000420530914305281B390B263031053CF005
:100C6000909343058093420581E080936504089545
:100C7000CF93DF93FC012481358133FF10C0EC0159
:100C80000E9445042A813B81621B730B2E85F0E193
:100C90002F9F9001112481E06217730708F480E010
:100CA000DF91CF9108951F93CF93DF93EC018C8157
:100CB0009D8180FD19829C012F713327232B19F010
:100CC000807E9D838C838C819D8194FB112710F9FC
:100CD000162796FF04C09F7B9D838C8311E08C8137
:100CE0009D8191FD10C011110BC0CE010E943806EC
:100CF000182F8111C0C0812FDF91CF911F910895CE
:100D000092609D838C830E944504AB018A819B8104
:100D1000FA01E81BF90B8C819D81112309F45DC058
:100D200085FD3EC02A8592FD06C0222321F09460F5
:100D30009D838C830BC02E171F0619F010F0211114
:100D400007C082629D838C83598748875B834A836F
:100D50008C819D818F71992711E0892B31F28E81D1
:100D60009F81892B41F28C819D8191708436910500
:100D700009F48AC008F09AC08232910509F484C04F
:100D800008F07BC08130910509F47EC0409709F4DA
:100D90007BC0CE010E943806882309F4ACCF74C012
:100DA00097FDD6CF86FD0AC02C85A0E12A9F900131
:100DB0001124E217F30760F28464BACF87FF0BC0F7
:100DC0002D85A0E12A9F900111248868E217F3077E
:100DD00008F0AECFBDCF2C85F4CF85FF12C02A8599
:100DE0002E171F0609F080F586FD03C029812F5FAD
:100DF000298397FD19828F7D806191609D838C830B
:100E000023C090FF0DC097FD03C080619D838C833C
:100E10008C819D819E779D838C835B834A8314C0E4
:100E200029812223F1F09C01207C3327232BA1F47C
:100E30002B8540E1249F90011124E217F30760F411
:100E400088859985892B51F48C819D8192FF80CF73
:100E50009B7F9D838C837CCF8160D0CF1986188641
:100E6000F3CF91FFF1CF8F739D7F98609D838C832B
:100E700019861886D2CF10E072CF8134910521F007
:100E80008035910509F085CFEE81FF81309709F417
:100E900032CF1995CE010E943806882309F42BCF52
:100EA0008C819D81977F9D838C8325CF883E910582
:100EB00059F338F4813C910539F3803D910521F3D4
:100EC00068CF8035A1E09A07F9F2803D21E09207D2
:100ED000D9F28031914009F05CCFD6CF489910C04B
:100EE000499910C010922E0580913D0590913E05C4
:100EF000A0913F05B09140050196A11DB11D10C004
:100F00004999F0CF81E080932E0580913D05909125
:100F10003E05A0913F05B09140050197A109B10997
:100F200080933D0590933E05A0933F05B093400507
:100F300008952091420530914305A4E6B0E00E9457
:100F4000E81F9B01AC018AE0569547953795279598
:100F50008A95D1F7A091060230E0B0E00E94E81F28
:100F600024E630E040E050E00E94BE1F2A30310508
:100F70004105510520F42AE030E040E050E0CA018C
:100F8000B9010E94AF1E20E030E048E453E40E9423
:100F90003D1F20E030E040E752E40E940E1E0E9418
:100FA000801E693823E172078105910520F068E809
:100FB00073E180E090E0643671058105910520F4CD
:100FC00064E670E080E090E00895CF93C82F0E941F
:100FD00099079B01AC01CC2381F0AAE0B0E00E940C
:100FE000F71F9B01AC01213583EC38074105510502
:100FF00020F020E533EC40E050E0A4E1B0E00E94B6
:10100000F71F28EE33E040E050E00E94BE1F21159C
:1010100031054105510521F421E030E040E050E088
:10102000CA01B901CF91089594E0899FF00111247C
:10103000E650FB4F1082118212821382F8941092B4
:10104000CA041092CB041092CC041092CD041092DA
:10105000C6041092C7041092C8041092C904789470
:1010600008950F931F93E2EDF4E0811102C0E6EEC4
:10107000F4E0008511852285338544855585668594
:1010800077850417150726073707B1F481110BC0C0
:101090006091EE047091EF048091F0049091F1045E
:1010A0001F910F9108956091DA047091DB04809193
:1010B000DC049091DD04F4CF811109C06091F20449
:1010C0007091F3048091F4049091F504E9CF60915C
:1010D000DE047091DF048091E0049091E104E0CFA0
:1010E00090E0FC01E25DFD4FE491EE2389F0F0E039
:1010F000EE0FFF1FEC5AFE4FA591B4912C91825335
:101100009E4FFC018491282381E019F480E008952A
:1011100081E008958EE10E94700861E0811101C0B4
:1011200060E086EC96E00E9453068FE10E94700812
:1011300061E0811101C060E087EB96E00E945306F8
:1011400080E20E94700861E0811101C060E088EADD
:1011500096E00E94530681E20E94700861E08111CE
:1011600001C060E089E996E00E94530682E20E9495
:10117000700861E0811101C060E08AE896E00E9499
:10118000530683E20E94700861E0811101C060E0B3
:101190008BE796E00E94530684E20E94700861E0AB
:1011A000811101C060E08CE696E00E94530685E262
:1011B0000E94700861E0811101C060E08DE596E059
:1011C0000E9453066091060165FB662760F98EE474
:1011D00096E00E9453066091060166FB662760F95F
:1011E0008FE396E00E94530660910601661F662712
:1011F000661F80E396E00E9453066CB162956170B1
:1012000081E296E00E9453066CB165FB662760F9A7
:1012100082E196E00C945306CF93C82F61E00E94C0
:10122000FB0161E08C2FCF910C946F01CF93C82FFD
:1012300061E00E94FB0160E08C2FCF910C946F0164
:1012400062E00C94FB01CF93DF93EC0160E08E81B0
:101250000E946F0161E08E810E946F0160E08E81CB
:101260000E946F018BE891E00197F1F7DF91CF9138
:101270000895CF92DF92EF92FF920F931F93CF9337
:10128000DF936C017C0187E0E80EF11CD0E0C0E048
:10129000062F10E0B8010C2E02C0759567950A94D0
:1012A000E2F76170F70181917F010E946F01219641
:1012B000C430D10579F7C601DF91CF911F910F910D
:1012C000FF90EF90DF90CF900C942309CF92DF92A4
:1012D000EF92FF920F931F93CF93DF93EC01F62EC3
:1012E000642F8C810E946F018D818F3F19F060E027
:1012F0000E946F010F2D10E08F8584FF25C06E01C5
:1013000087E0C80ED11CF12CE12CB8010E2C02C0D4
:10131000759567950A94E2F76170F60181916F0106
:101320000E946F01FFEFEF1AFF0A88E0E816F10450
:1013300061F7CE01DF91CF911F910F91FF90EF9058
:10134000DF90CF900C942309B80184E075956795E0
:101350008A95E1F7CE010E9439096F2DCE01DF9108
:10136000CF911F910F91FF90EF90DF90CF900C9451
:10137000390940E0682F85ED96E00C946609CF931B
:10138000DF93613029F09091E40698609093E40631
:101390006093E8061092E90690E49093EA06809341
:1013A000EB06805C8093EC0661E08091D9060E9498
:1013B000FB018091DA068F3F19F061E00E94FB018A
:1013C00061E08091DB060E94FB01C5EDD6E09E0145
:1013D000255D36408091E40684FD0BC084E090E0FA
:1013E00021962817390744F461E08E810E94FB01A1
:1013F000EECF88E090E0F4CF8BE39DE00197F1F72A
:1014000060E08091D9060E946F0160E08091DB0668
:101410000E946F018091DA068F3F19F060E00E9410
:101420006F018091E40684FD39C063E085ED96E0AC
:101430000E943909CBE4D6E4CE010197F1F763E0CD
:1014400085ED96E00E9439092197F1F763E085ED7B
:1014500096E00E94390983E592E00197F1F762E096
:1014600085ED96E00E9439098091E40680620E9431
:10147000B90984E08093E5068CE00E94B90981E017
:101480000E94B9098BE39FE10197F1F782E0809315
:10149000E60686E0DF91CF910C94B90980620E9444
:1014A000B9098BE496E40197F1F78091E406806234
:1014B0000E94B90983E592E00197F1F78091E40673
:1014C00080620E94B909D0CF41E00E94660981E0A4
:1014D00090E00895FB0101900020E9F73197AF01FA
:1014E000461B570BDC01ED91FC910280F381E02D4E
:1014F00019948F929F92AF92BF920F931F93CF93A5
:10150000DF93CDB7DEB7A1970FB6F894DEBF0FBE5D
:10151000CDBF19A2423008F44AE08E010F5D1F4F83
:10152000842E912CB12CA12CA50194010E94BE1FE8
:10153000E62FB901CA01EA3004F5E05DD801EE9367
:101540008D01232B242B252B79F790E080E0109739
:1015500029F0BD0185E795E00E946A0AA1960FB6C1
:10156000F894DEBF0FBECDBFDF91CF911F910F91D9
:10157000BF90AF909F908F900895E95CDFCFCF939D
:10158000DF93D0E0C0E0009731F0BC0185E795E043
:101590000E946A0AEC0165E472E085E795E00E942A
:1015A0006A0A8C0F9D1FDF91CF9108956115710517
:1015B00011F00C946A0A90E080E00895EF92FF9297
:1015C0000F931F93CF93DF9320910A022223A1F15F
:1015D000EA018B017C016FE472E085E795E00E94EF
:1015E000D60A68E472E085E795E00E94D60A6DE4C9
:1015F00072E085E795E00E94D60AB70185E795E09D
:101600000E94D60A6DE472E085E795E00E94D60A52
:10161000B80185E795E00E94D60A6FED73E085E793
:1016200095E00E94D60ACE01DF91CF911F910F91D4
:10163000FF90EF900C94BF0ADF91CF911F910F9113
:10164000FF90EF900895AC0161E572E086E592E0CD
:101650000C94DE0AEF92FF920F931F93CF93DF93C8
:101660008C017B01C42FFB01848195818075917071
:10167000409729F5A80169E572E086E592E00E94AD
:10168000DE0AD0E0FE01E454FB4F908181E091112D
:1016900080E08083FE01ED5EFD4F808191111CC0D2
:1016A00060E00E946F01CC0FDD1FC55FDD4F4881F8
:1016B00059816DE572E086E592E00E94DE0AF7014D
:1016C000848182FF0FC0C801DF91CF911F910F91DC
:1016D000FF90EF900C94230B61E00E946F0141E6B4
:1016E00052E0E7CFDF91CF911F910F91FF90EF90E4
:1016F00008950F931F93CF93DF93EC018B01FB01B0
:101700008481958180759170409739F4AE0169E5C7
:1017100072E086E592E00E94DE0AF801848182FF91
:1017200007C0CE01DF91CF911F910F910C94230B35
:10173000DF91CF911F910F9108950F931F93CF9336
:10174000DF938C01EA01FC018481958180759170A1
:10175000409749F481E0FB01808369E572E086E50A
:1017600092E00E94DE0AF801848182FF07C0CE0168
:10177000DF91CF911F910F910C94230BDF91CF91AB
:101780001F910F910895AF92BF92CF92DF92EF9287
:10179000FF920F931F93CF93DF93E0910A02EE2302
:1017A00009F44AC068017901EA018B015C016FE428
:1017B00072E085E795E00E94D60A68E472E085E76A
:1017C00095E00E94D60A6DE472E085E795E00E94FC
:1017D000D60AB50185E795E00E94D60A6DE472E06D
:1017E00085E795E00E94D60AB80185E795E00E945A
:1017F000D60A6FED73E085E795E00E94D60ABE0138
:1018000085E795E00E94D60A80E20E9434054AE00E
:10181000C701B6010E94790A65E472E085E795E0A8
:10182000DF91CF911F910F91FF90EF90DF90CF90BC
:10183000BF90AF900C946A0ADF91CF911F910F91E6
:10184000FF90EF90DF90CF90BF90AF9008950F93EF
:101850001F93CF9307E614E0C0E0E091E806CE17AF
:10186000B0F0E150F0E0EB52F94F848980680E94BB
:10187000B909B80185ED96E00E94D60ACF5F0B5EEC
:101880001F4FC43051F7CF911F910F910895EC2F46
:10189000E9CFCF93DF93D82FC5E18C9FC0011124EE
:1018A00044E150E089599B4F0E948920CD9FF0016F
:1018B0001124E959FB4F148ADF91CF910895CF92FB
:1018C000DF92EF92FF920F931F93CF93DF936C0100
:1018D0007B018A01E90190E080E00E94F81DF60199
:1018E000808381E090E00E94F81DF701808382E010
:1018F00090E00E94F81DF801808383E090E00E9450
:10190000F81D8883DF91CF911F910F91FF90EF9089
:10191000DF90CF900895FF920F931F93CF93DF93A3
:10192000EC01F62E08811981C8010E94F81DF816F5
:1019300021F06F2DC8010E94001ECE01DF91CF91D2
:101940001F910F91FF9008951F93CF93DF931F92E4
:101950001F92CDB7DEB71091050280910602180FD5
:101960001B551A82198265EACE0101960E948B0CE2
:101970006091060281E090E09A838983CE0101960E
:101980000E948B0C6091050282E090E09A8389832B
:10199000CE0101960E948B0C83E090E09A838983AC
:1019A000612FCE0101960E948B0C0F900F90DF915A
:1019B000CF911F9108957F928F929F92AF92BF9285
:1019C000CF92DF92EF92FF920F931F93CF93DF930B
:1019D000CDB7DEB765970FB6F894DEBF0FBECDBFAB
:1019E00068E772E080E00E94490C80911B05882323
:1019F00009F46BC067E872E080E00E94490C9091A6
:101A0000080280911805882309F458C080E21F92CB
:101A10009F931F928F9380E992E09F938F931F92E1
:101A200085E18F938E010F5F1F4F1F930F930E94CD
:101A30009820B80181E00E94490C0FB6F894DEBFEF
:101A40000FBECDBF8091070281113AC088E692E0B7
:101A5000209118052130B9F120E29F938F931F92B6
:101A60002F9381EA92E09F938F931F9285E18F934A
:101A70001F930F930E949820B80182E00E94490CA6
:101A80006EEA72E083E00E94490C0FB6F894DEBF64
:101A90000FBECDBF65960FB6F894DEBF0FBECDBFAB
:101AA000DF91CF911F910F91FF90EF90DF90CF903A
:101AB000BF90AF909F908F907F9008958EE3A7CFB7
:101AC00085E692E0C5CF2EE3C8CFF091CE04E09139
:101AD000CF041091D00420914205309143054091EC
:101AE0000602A4E6B0E00E94E81FDC01CB012AE078
:101AF000B695A795979587952A95D1F7489FC001E8
:101B0000112464E670E00E94AA1F7B018CE692E03B
:101B1000E13031F084E792E0E23011F480E792E0C6
:101B20001F924F939F938F931F92FF938CEB92E0A2
:101B30009F938F931F9285E18F938CE494E09F9302
:101B40008F930E9498206CE474E081E00E94490C1D
:101B50000FB6F894DEBF0FBECDBF8AE5111101C0EC
:101B600088E5FF24123008F056C094E0199FF00178
:101B70001124E650FB4F9081218132814381FF92F5
:101B8000EF924F933F932F939F931F928F938AECE3
:101B900092E09F938F931F9285E1F82EFF920CE4C1
:101BA00014E01F930F930E949820B80182E00E94D6
:101BB000490CA090200590902105809022057090FE
:101BC000230581E00E943108E62ED72EC82EB92EBB
:101BD00080E00E9431087F928F929F92AF92BF92D5
:101BE000CF92DF92EF929F938F937F936F938DEDC0
:101BF00092E09F938F931F92FF921F930F930E94E7
:101C000098200FB6F894DEBF0FBECDBFB80183E0B9
:101C10000E94490C3FCF90E020E030E040E0AFCFA1
:101C20001F920F920FB60F9211242F933F938F9311
:101C30009F93AF93BF9380914D0590914E05A091D6
:101C40004F05B091500530914C0523E0230F2D37FF
:101C500058F50196A11DB11D20934C0580934D05AB
:101C600090934E05A0934F05B09350058091510578
:101C700090915205A0915305B09154050196A11D74
:101C8000B11D8093510590935205A0935305B093D5
:101C90005405BF91AF919F918F913F912F910F90DC
:101CA0000FBE0F901F90189526E8230F0296A11DD6
:101CB000B11DD2CF1F920F920FB60F9211240BB607
:101CC0000F922F933F934F935F936F937F938F93D5
:101CD0009F93AF93BF93EF93FF938091690590918A
:101CE0006A05A0916B05B0916C05892B8A2B8B2B13
:101CF000E1F190915805E0915905F0915A058081E4
:101D0000892780838091690590916A05A0916B0570
:101D1000B0916C05181619061A061B069CF48091E2
:101D2000690590916A05A0916B05B0916C050197CA
:101D3000A109B1098093690590936A05A0936B0589
:101D4000B0936C05FF91EF91BF91AF919F918F91EF
:101D50007F916F915F914F913F912F910F900BBEAB
:101D60000F900FBE0F901F90189580910902E4E725
:101D7000F2E0E4919FEF90930902E230E9F040F441
:101D8000EE2389F0E13091F060E00E946F01DACF3C
:101D9000E43049F110F1E530B9F7909173009D7F7F
:101DA00090937300F1CF10926E00EECF90916F0080
:101DB0009D7F90936F00E8CF909170009D7F9093EE
:101DC000700091E09093B0009091B100987F946082
:101DD0009093B1001092B300D7CF909171009D7F86
:101DE00090937100D1CF909172009D7F909372007B
:101DF000CBCF1F920F920FB60F9211240BB60F92FA
:101E00002F933F934F935F936F937F938F939F9302
:101E1000AF93BF93EF93FF9385E795E00E94C504CE
:101E2000FF91EF91BF91AF919F918F917F916F91B2
:101E30005F914F913F912F910F900BBE0F900FBE6E
:101E40000F901F9018951F920F920FB60F921124AA
:101E50000BB60F922F938F939F93EF93FF93E09185
:101E60008505F09186058081E0918B05F0918C05C8
:101E700082FD1DC0908180918E058F5F8F732091B0
:101E80008F05821741F0E0918E05F0E0EB58FA4F94
:101E9000958F80938E05FF91EF919F918F912F9158
:101EA0000F900BBE0F900FBE0F901F901895808162
:101EB000F2CF1F920F920FB60F9211240BB60F9212
:101EC0002F933F934F935F936F937F938F939F9342
:101ED000AF93BF93EF93FF930E94270CFF91EF9175
:101EE000BF91AF919F918F917F916F915F914F9132
:101EF0003F912F910F900BBE0F900FBE0F901F9030
:101F000018951F920F920FB60F9211240BB60F92D5
:101F10002F933F934F935F936F937F938F939F93F1
:101F2000AF93BF93EF93FF930E94FD05FF91EF9155
:101F3000BF91AF919F918F917F916F915F914F91E1
:101F40003F912F910F900BBE0F900FBE0F901F90DF
:101F500018951F920F920FB60F921124A8950F900B
:101F60000FBE0F901F9018951F920F920FB60F92F1
:101F700011240BB60F922F933F934F935F936F9360
:101F80007F938F939F93AF93BF93EF93FF930E94A1
:101F90006E0780913D0590913E05A0913F05B0915F
:101FA00040058093340590933505A0933605B09392
:101FB0003705FF91EF91BF91AF919F918F917F91E5
:101FC0006F915F914F913F912F910F900BBE0F90AA
:101FD0000FBE0F901F9018951F920F920FB60F9281
:101FE00011240BB60F92CF92DF92EF92FF920F93D4
:101FF0001F932F933F934F935F936F937F938F9391
:102000009F93AF93BF93CF93DF93EF93FF93F89496
:102010008091610490916204A0916304B091640482
:102020000196A11DB11D8093610490936204A09359
:102030006304B09364048091F704882309F466C0B4
:102040008091EA049091EB04A091EC04B091ED042E
:10205000892B8A2B8B2B09F459C00091EE04109127
:10206000EF042091F0043091F1044091F20450917A
:10207000F3046091F4047091F50404171507260722
:10208000370709F443C081E004171507260737070F
:102090000CF080E09091F6048917D1F08093F6045B
:1020A000EAEFF1E08AE592E0041715072607370703
:1020B0000CF0B3C0A491FC018491E82FF0E0EE0F86
:1020C000FF1FEC5EFD4FC591D491E881EA2BE883B8
:1020D0008091E6049091E704A091E804B091E904AE
:1020E000C090EA04D090EB04E090EC04F090ED0492
:1020F0008C0D9D1DAE1DBF1DB7FD9FC08093E604D6
:102100009093E704A093E804B093E9048091E3047A
:10211000882309F466C08091D6049091D704A091D9
:10212000D804B091D904892B8A2B8B2B09F459C080
:102130000091DA041091DB042091DC043091DD047D
:102140004091DE045091DF046091E0047091E1045D
:10215000041715072607370709F443C081E0041761
:102160001507260737070CF080E09091E2048917E5
:10217000D1F08093E204E9EFF1E089E592E0041701
:102180001507260737070CF0A6C0A491FC0184911F
:10219000E82FF0E0EE0FFF1FEC5EFD4FC591D491EC
:1021A000E881EA2BE8838091D2049091D304A09136
:1021B000D404B091D504C090D604D090D704E09058
:1021C000D804F090D9048C0D9D1DAE1DBF1DB7FD28
:1021D00092C08093D2049093D304A093D404B0937C
:1021E000D5047894FF91EF91DF91CF91BF91AF919A
:1021F0009F918F917F916F915F914F913F912F911F
:102200001F910F91FF90EF90DF90CF900F900BBE3A
:102210000F900FBE0F901F901895A491FC01849110
:10222000E82FF0E0EE0FFF1FEC5EFD4FC591D4915B
:102230008881EA2FE095E8234ACFB0588093E604DE
:102240009093E704A093E804B093E904AEEFB1E003
:10225000FD01F4908EE592E0FC01C491EC2FF0E0DA
:10226000EE0FFF1FEC5EFD4FC591D491E881FE2A71
:10227000F882C090EE04D090EF04E090F004F0906B
:10228000F10404171507260737070CF541E050E065
:1022900060E070E04C0D5D1D6E1D7F1D4093EE04EF
:1022A0005093EF046093F0047093F104FD01A49146
:1022B000FC018491E82FF0E0EE0FFF1FEC5EFD4F74
:1022C000C591D4918881A095A823A8831FCF4FEFF3
:1022D0005FEFBA01DFCFA491FC018491E82FF0E019
:1022E000EE0FFF1FEC5EFD4FC591D4918881EA2F60
:1022F000E095E82357CFB0588093D2049093D3044D
:10230000A093D404B093D504AFEFB1E0FD01F490F5
:102310008FE592E0FC01C491EC2FF0E0EE0FFF1F7F
:10232000EC5EFD4FC591D491E881FE2AF882C09001
:10233000DA04D090DB04E090DC04F090DD040417B4
:102340001507260737070CF541E050E060E070E024
:102350004C0D5D1D6E1D7F1D4093DA045093DB0410
:102360006093DC047093DD04FD01A491FC01849171
:10237000E82FF0E0EE0FFF1FEC5EFD4FC591D4910A
:102380008881A095A823A8832CCF4FEF5FEFBA01D7
:10239000DFCF1F920F920FB60F9211248F939F934E
:1023A000AF93BF934A991EC04B9913C08091CA0442
:1023B0009091CB04A091CC04B091CD040197A109D8
:1023C000B1098093CA049093CB04A093CC04B0933A
:1023D000CD04BF91AF919F918F910F900FBE0F9041
:1023E0001F9018954B99F5CF8091CA049091CB041A
:1023F000A091CC04B091CD040196A11DB11DE1CFF7
:102400001F920F920FB60F9211240BB60F922F93BB
:102410003F934F935F936F937F938F939F93AF936C
:10242000BF93EF93FF930E946E07FF91EF91BF91CF
:10243000AF919F918F917F916F915F914F913F915C
:102440002F910F900BBE0F900FBE0F901F901895FD
:10245000FC01108213821282158214821782168266
:102460001186108682E382878FE1838785E28487E5
:102470008CE085878EE386870895E5E7F5E0138293
:10248000128288EE93E0A0E0B0E084839583A68377
:10249000B7838BE292E09183808385EC90E095870F
:1024A000848784EC90E09787868780EC90E0918B1E
:1024B000808B81EC90E0938B828B82EC90E0958B0B
:1024C000848B86EC90E0978B868B118E128E138E08
:1024D000148E86EC96E00E94281262E08EE10E9443
:1024E000FB01E6ECF6E0848195819061958384831D
:1024F00087EB96E00E94281262E08FE10E94FB01C8
:10250000E7EBF6E08481958190619583848388EA86
:1025100096E00E94281262E080E20E94FB01E8EA55
:10252000F6E08481958190619583848389E996E0C2
:102530000E94281262E081E20E94FB01E9E9F6E0D4
:10254000848195819061958384838AE896E00E94D6
:10255000281262E082E20E94FB01EAE8F6E0848150
:1025600095819061958384838BE796E00E94281281
:1025700062E083E20E94FB01EBE7F6E08481958153
:102580009061958384838CE696E00E94281262E035
:1025900084E20E94FB01ECE6F6E084819581906183
:1025A000958384838DE596E00E94281262E085E29F
:1025B0000E94FB01EDE5F6E08481958190619583B1
:1025C00084838EE496E00E94281262E083E40E94F5
:1025D000FB01EEE4F6E0848195819061958384832C
:1025E0008FE396E00E94281262E084E40E94FB01DF
:1025F000EFE3F6E08481958190619583848380E3A5
:1026000096E00E94281262E085E40E94FB01E0E36C
:10261000F6E08481958190619583848381E296E0E0
:102620000E94281262E082E00E94FB01E1E2F6E0F3
:102630008481958190619583848382E196E00E94F4
:10264000281262E083E00E94FB01E2E1F6E084816F
:102650009581906195838483E5EDF6E01382128283
:102660008DE392E09183808388E084838FEF85837C
:1026700089E086838AE087838BE080878CE081878E
:102680008DE082871386148615861686178661E08C
:1026900080E10E94BF0980EB97E00E94281262E06F
:1026A00089E30E94FB01E0EBF7E084819581906172
:1026B0009583848381EA97E00E94281262E088E390
:1026C0000E94FB01E1EAF7E08481958190619583A6
:1026D000848382E997E00E94281262E087E30E94E7
:1026E000FB01E2E9F7E08481958190619583848321
:1026F00083E897E00E94281262E086E30E94FB01D3
:10270000E3E8F7E08481958190619583848384E791
:1027100097E00E94281262E08AE30E94FB01E4E74E
:10272000F7E08481958190619583848385E697E0C5
:102730000E94281262E08EE30E94FB01E5E6F7E0CA
:102740008481958190619583848386E597E00E94DA
:10275000281262E08FE30E94FB01E6E5F7E0848146
:10276000958190619583848387E497E00E94281285
:1027700062E080E40E94FB01E7E4F7E08481958158
:1027800090619583848388E397E00E94281262E039
:1027900081E40E94FB01E8E3F7E084819581906188
:1027A0009583848389E297E00E94281262E082E4A4
:1027B0000E94FB01E9E2F7E08481958190619583B5
:1027C00084838AE197E00E94281262E086E10E94F9
:1027D000FB01EAE1F7E08481958190619583848330
:1027E0008BE097E00E94281262E088E10E94FB01E2
:1027F000EBE0F7E0848195819061958384838CEF91
:1028000096E00E94281262E08AE10E94FB01ECEF50
:10281000F6E0848195819061958384838DEE96E0C6
:102820000E94281262E08CE10E94FB01EDEEF6E0CE
:10283000848195819061958384830895CF93DF93FC
:10284000CDB7DEB72D970FB6F894DEBF0FBECDBF64
:10285000789484B5826084BD84B5816084BD85B57B
:10286000826085BD85B5816085BD80916E00816087
:1028700080936E001092810080918100826080932D
:10288000810080918100816080938100809180002F
:102890008160809380008091B10084608093B1005A
:1028A0008091B00081608093B0008091910082603F
:1028B000809391008091910081608093910080913C
:1028C00090008160809390008091A100826080934D
:1028D000A1008091A10081608093A1008091A0005F
:1028E00081608093A000809121018260809321010A
:1028F000809121018160809321018091200181607C
:102900008093200180917A00846080937A00809186
:102910007A00826080937A0080917A00816080934F
:102920007A0080917A00806880937A001092C100CA
:1029300080E30E9416098CE20E94160981E30E943E
:1029400016098BE20E94160980E10E9416098AE2AC
:102950000E940C098DE10E940C0989E10E940C097A
:102960008BE10E940C0987E10E940C0986E30E941A
:10297000200987E30E94200988E30E94200989E357
:102980000E9420098AE30E9420098EE30E94200908
:102990008FE30E94200980E40E94200981E40E94C4
:1029A000200982E40E94200983E40E94200984E433
:1029B0000E94200985E40E9420098EE10E942009DE
:1029C0008FE10E94200980E20E94200981E20E949A
:1029D000200982E20E94200983E20E94200984E209
:1029E0000E94200985E20E94200982E10E942009BC
:1029F00083E10E94200982E00E94200983E00E9476
:102A000020098FE00E9420098EE00E94200984E1C5
:102A10000E94200985E10E94200986E10E94200988
:102A200088E10E9420098AE10E9420098CE10E942D
:102A30002009E0918505F091860582E08083E09190
:102A40008105F09182051082E0918305F091840563
:102A500080E1808310928D05E0918905F0918A05CF
:102A600086E08083E0918705F09188058081806110
:102A70008083E0918705F09188058081886080835C
:102A8000E0918705F0918805808180688083E091DE
:102A90008705F091880580818F7D808381E0809318
:102AA0000A0287E492E00E94BF0A80910A0288230A
:102AB00021F087E093E00E94BF0A9E012F5F3F4F05
:102AC000AE014A5F5F4FBE01695F7F4FCE0108963E
:102AD0000E945F0C2885253A59F50F8186EF800FFB
:102AE0008B3530F58E81823018F5982F900F9B55DD
:102AF000398139131DC0009306028093050210E04E
:102B000030E020E04AE253E06FE273E084E393E0D8
:102B10000E94C30B0091050210E030E020E048E382
:102B200053E06FE273E084E393E00E94C30B13C0B1
:102B300084E68093060281E080930502253A09F439
:102B4000FBC30E94A40C4DE353E06FE273E084E307
:102B500093E00E94DE0A84E1E6EEF4E0DF01E82E75
:102B60001D92EA94E9F7E2EDF4E0DF011D928A9507
:102B7000E9F71092FA041092FB041092FC041092F0
:102B8000FD041092FE041092FF04109200051092B2
:102B9000010510920305109202051092C1041092D3
:102BA000C2041092C3041092C404F89410928000DE
:102BB0008AE08093810082E490E090938900809382
:102BC000880082E080936F00789464E084E10E9442
:102BD000BF0981E00E94B9098BE39FE10197F1F7FA
:102BE00007E614E044E150E060E270E0C8010E94B2
:102BF0008220F801148A0B5E1F4FF4E00B3B1F0785
:102C000089F78091CA069091CB0690619093CB068C
:102C10008093CA068091BB069091BC069061909308
:102C2000BC068093BB068091AC069091AD06906186
:102C30009093AD068093AC0680919D0690919E0680
:102C4000906190939E0680939D0680918E06909150
:102C50008F06906190938F0680938E0680917F06F9
:102C60009091800690619093800680937F0680917A
:102C70007006909171069061909371068093700632
:102C800080916106909162069061909362068093B4
:102C9000610680915206909153069061909353067D
:102CA00080935206809143069091440690619093E0
:102CB00044068093430680913406909135069061D6
:102CC00090933506809334068091250690912606D0
:102CD0009061909326068093250680911606909128
:102CE0001706906190931706809316060E948A0833
:102CF0000E94CB05811101C081E0809301020E94F6
:102D00009D050E948E050E94CB05811180930102D2
:102D1000109101021093CE040E94B4058093CF0459
:102D2000209100022093D0049091BB049093D10491
:102D30001093C00480930402209303029093020234
:102D40008091B4079091B50790619093B5078093F7
:102D5000B4078091A5079091A60790619093A6076C
:102D60008093A50780919607909197079061909323
:102D700097078093960780918707909188079061C5
:102D800090938807809387078091780790917907BF
:102D9000906190937907809378078091690790916B
:102DA0006A07906190936A078093690780915A0738
:102DB00090915B07906190935B0780935A07809195
:102DC0004B0790914C07906190934C0780934B0771
:102DD00080913C0790913D07906190933D078093CF
:102DE0003C0780912D0790912E07906190932E07BC
:102DF00080932D0780911E0790911F0790619093FB
:102E00001F0780931E0780910F0790911007906114
:102E10009093100780930F0780910007909101070E
:102E2000906190930107809300078091F106909143
:102E3000F20690619093F2068093F106E4E0F5E0EB
:102E40008FE0DF011D928A95E9F7E3E1F5E085E087
:102E5000DF011D928A95E9F71092BC0461E08DE1D3
:102E60000E946F011092BD0461E089E10E946F0130
:102E70001092BE0461E08BE10E946F011092BF04CA
:102E800061E087E10E946F0160E08DE30E94FB0139
:102E90000E94FD052091420530914305A4E6B0E073
:102EA0000E94E81F2AE096958795779567952A9561
:102EB000D1F7609341058AB1807F8AB98BB18F6069
:102EC0008BB91092CA041092CB041092CC041092C9
:102ED000CD041092C6041092C7041092C804109238
:102EE000C90410921B051092180580910602809368
:102EF0000802809105028093070210922D0510921E
:102F00002C0510922E0510922F051092300510926C
:102F1000310510923205109233051092340510924B
:102F2000350510923605109237051092380510922B
:102F3000390510923A0510923B0510923C0561E06C
:102F400086E00E94FB018AB1807F8AB98BB18F60D5
:102F50008BB98091690081608093690081E08CBBAE
:102F6000E89A8091690080618093690084E08CBB5D
:102F7000EA9A0E94DB0C0E94270C46E553E068E6C3
:102F800073E08DE693E00E94DE0A992493947C9985
:102F900053C08091C50481114FC09092C5048091A7
:102FA000EE049091EF04A091F004B091F1048093AD
:102FB000F2049093F304A093F404B093F504809189
:102FC000DA049091DB04A091DC04B091DD048093DD
:102FD000DE049093DF04A093E004B093E104109228
:102FE000F7041092E3041092EA041092EB0410929A
:102FF000EC041092ED041092D6041092D7041092B3
:10300000D8041092D90461E086E00E94FB0160E0E0
:1030100086E00E946F0105E010E061E080E10E941F
:103020006F010E94100460E080E10E946F010E9425
:1030300010040150110989F785E0E3E1F5E01192F0
:103040008A95E9F76FB163FB662760F980EB97E03B
:103050000E9453066FB162FB662760F981EA97E030
:103060000E9453066FB16695617082E997E00E94F5
:1030700053066FB1617083E897E00E9453066FB109
:103080006295617084E797E00E94530660910601A3
:10309000617085E697E00E9453066091060166958F
:1030A000617086E597E00E9453066091060162FB1D
:1030B000662760F987E497E00E9453066091060155
:1030C00063FB662760F988E397E00E9453066091EE
:1030D00006016295617089E297E00E94530660B133
:1030E00061708AE197E00E94530660B162FB662737
:1030F00060F98BE097E00E94530660B162956170C1
:103100008CEF96E00E94530660B166FB662760F97B
:103110008DEE96E00E94530641E753E063E175E0CF
:1031200080EB97E00E949D0B46E753E064E175E079
:1031300081EA97E00E949D0B4CE753E065E175E062
:1031400082E997E00E949D0B4FE753E066E175E04E
:1031500083E897E00E949D0B44E853E067E175E047
:1031600084E797E00E949D0B65E677E08BE893E0AB
:103170000E94790B66E577E080E993E00E94790B85
:1031800067E477E085E993E00E94790B68E377E0F4
:103190008AE993E00E94790B69E277E08FE993E096
:1031A0000E94790B40E06AE177E085EA93E00E94B3
:1031B0002A0B41E06BE077E08AEA93E00E942A0B59
:1031C00042E06CEF76E08FEA93E00E942A0B43E046
:1031D0006DEE76E084EB93E00E942A0B8091B407B9
:1031E00085FB882780F9809304058091A50785FBDE
:1031F000882780F9809305058091960785FB8827AD
:1032000080F9809306058091870785FB882780F9E0
:1032100080930705809178079091790785FB222795
:1032200020F9209308058076992721E080369105C2
:1032300009F020E0209309058091690785FB882724
:1032400080F980930A0580915A0785FB882780F9C9
:1032500080930B0580914B0785FB882780F980932D
:103260000C0580913C0785FB882780F980930D052C
:1032700080912D0785FB882780F980930E0580912A
:103280001E0785FB882780F980930F0580910F0723
:1032900085FB882780F9809310058091000785FBC6
:1032A000882780F9809311058091F10685FB882796
:1032B00080F9809312050E948A080E94CB05811133
:1032C00080930102F09001020E94B405E82E8091E3
:1032D000C0048F1509F10F2D10E030E020E08FEFD2
:1032E0008F0D43EF52E0883050F44F2D4150550B75
:1032F000FA01EE0FFF1FE95EFD4F408151816AEB3D
:1033000073E086E592E00E94C30B80910502811173
:103310000E943702F092C00480910402E81609F47A
:1033200040C051E0E51699F182E044E752E0E8122E
:1033300030C040E752E02DC005EA10E020E030E068
:103340004AE453E06FE273E084E393E00E94C30B2E
:103350000F8110E030E020E04AE253E06FE273E0DA
:1033600084E393E00E94C30B0E8110E030E020E084
:1033700048E353E06FE273E084E393E00E94C30B01
:10338000098110E030E020E042E553E0CACB4CE692
:1033900052E06FEB73E086E592E00E94DE0AE09275
:1033A0000402F092CE04E092CF040E949D05F82E14
:1033B0008093D0040E948E058093D10480910302F3
:1033C000F816A9F00CB1007310E030E020E045EFF2
:1033D00052E0FF2011F047EF52E063EC73E086E526
:1033E00092E00E94C30B8091D004809303028091ED
:1033F000D104909102028917B1F049EF52E0811196
:1034000002C040E053E000910301037010E030E09F
:1034100020E068EC73E086E592E00E94C30B8091A7
:10342000D104809302028091C5048111D6C12091FC
:103430000B0580910C0590910D05B0900E05309113
:103440000A053111C6C311E0211101C010E0882422
:103450008394811106C081E0911101C080E0882E23
:10346000819401E0111101C000E0E02E77247394F3
:10347000811001C0712CF72C112339F080910305C4
:10348000811103C081E00E941408772031F08091FF
:103490000205811102C00E941408E0920305F09217
:1034A0000205111103C0882009F4A8C00E94450438
:1034B000C090C104D090C204E090C304F090C40452
:1034C0009B01AC012C193D094E095F0969017A0184
:1034D00034E1C316D104E104F10408F48FC0609311
:1034E000C1047093C2048093C3049093C4048B2DD1
:1034F0000E94E5076B017C018B2D0E94E5071B01F3
:103500002C01002309F43FC081E00E9431086A8742
:103510007B878C879D87A12F110FBB0BA70196017D
:103520000E940220EA84FB840C851D856E0D7F1DA0
:10353000801F911F6093DE047093DF048093E0048A
:103540009093E1049092E3040E9499079B01AC01DF
:1035500060E070E080E090E00FE10E946920AFE55C
:10356000AA2EB6E7BB2EC12CD12CE12CF12C00E009
:1035700010E00E940C202093D6043093D70440938F
:10358000D8045093D9047720C9F180E00E94310813
:103590006B017C01A82D880CBB0BA20191010E943C
:1035A0000220C60ED71EE81EF91EC092F204D09269
:1035B000F304E092F404F092F5049092F7040E9470
:1035C00099079B01AC0160E070E080E090E00FE1C2
:1035D0000E946920EFE5AE2EF6E7BF2EC12CD12C5C
:1035E000E12CF12C00E010E00E940C202093EA0472
:1035F0003093EB044093EC045093ED04F8948091E5
:10360000CA049091CB04A091CC04B091CD047894DD
:103610004091C6045091C7046091C8047091C904D8
:103620007C018D01E41AF50A060B170BA80197011E
:103630008093C6049093C704A093C804B093C904B0
:10364000211531054105510509F4C7C08090D0040A
:103650008091D104FF24F394909103058F1421F0FD
:10366000811004C0909102059111B7C0412C512CDA
:1036700032014394121613061406150624F044244E
:103680004A94542C320190910E05992309F4D1C02B
:10369000A4E1B0E00E94F71F2B013C0104E0809EF2
:1036A000F0011124E650FB4F80819181A281B3810A
:1036B000840D951DA61DB71D80839183A283B383BE
:1036C000882D0E9431089B01AC01240D351D461D3B
:1036D000571D2A873B874C875D87B6EE2B2EB4E0BB
:1036E0003B2E882021F0A2ED2A2EA4E03A2E8A85D6
:1036F0009B85AC85BD85F10184879587A687B787B3
:10370000918A0E9499079B01AC0160E070E080E023
:1037100090E00FE10E946920EFE5AE2EF6E7BF2EA4
:10372000C12CD12CE12CF12C00E010E00E940C20E7
:10373000D10114962C93149715963C9315971696D1
:103740004C93169717965C9380910A02882309F48C
:1037500044C077FE08C07094609450944094411C1B
:10376000511C611C711C6EEC73E085E795E00E94B2
:10377000D60A18E581101AE5812F0E94340562EE01
:1037800073E085E795E00E94D60A4AE0C301B201E2
:103790000E94790A80E20E943405812F0E9434053C
:1037A000EA84FB840C851D8517FF4DC08DE20E94C5
:1037B00034056A857B858C859D859095809570956F
:1037C00061957F4F8F4F9F4F4AE00E94790A65E4D1
:1037D00072E085E795E00E946A0A8091090595E00C
:1037E000E3E1F5E0DE01119601900D929A95E1F783
:1037F00090911B0591112FC1882359F180911A05D1
:10380000811129C090921A0590921B0510921805FB
:10381000809106028093080280910502809307023E
:1038200047EE53E06CEE73E086E592E00E94DE0A1C
:1038300012C0813009F032CF29013A01440C551CE5
:10384000661C771C2BCF4AE06A857B858C859D851D
:10385000BCCF10921A05C0903D05D0903E05E09077
:103860003F05F0904005C0923405D0923505E092B6
:103870003605F09237050E9445042B013C018091EA
:10388000280590912905A0912A05B0912B05930157
:103890008201081B190B2A0B3B0BD901C801883E7A
:1038A0009340A105B10508F45FC080912405909173
:1038B0002505A0912605B0912705A7019601281B93
:1038C000390B4A0B5B0BACE3B0E00E94F71F28EB0F
:1038D0003BE040E050E00E94BE1F89019A01009346
:1038E0002005109321052093220530932305009392
:1038F0003005109331052093320530933305C09283
:103900002405D0922505E0922605F09227054092E5
:1039100028055092290560922A0570922B05809106
:103920001C0590911D05A0911E05B0911F0508175B
:1039300019072A073B07C1F042E054E066E074E053
:103940008AE094E00E94C30B8091200590912105AC
:10395000A0912205B091230580931C0590931D052D
:10396000A0931E05B0931F050E94450400914805D1
:103970001091490520914A0530914B05601B710B50
:10398000820B930B643671058105910508F43FC0E5
:103990000E94FD052091420530914305A4E6B0E068
:1039A0000E94E81FDC01CB012AE0B695A795979508
:1039B00087952A95D1F7209141052817F1F080933A
:1039C00041052091420530914305A4E6B0E00E94F4
:1039D000E81F8B019C018AE036952795179507957E
:1039E0008A95D1F71127222733274FE054E063E16E
:1039F00074E086E592E00E94C30B0E944504609348
:103A000048057093490580934A0590934B050E94A1
:103A1000DB0C0E944504009144051091450520915E
:103A2000460530914705601B710B820B930B603587
:103A300071058105910560F00E94270C0E944504E4
:103A40006093440570934505809346059093470520
:103A50000E9459059CCA882359F08091190581114B
:103A6000FACE9092190510921B0545EB52E0DACE82
:103A700089813A812B819C814D81109219054423C3
:103A800009F469C080910802853608F084E68A301E
:103A900008F48AE08093060281E090910702911178
:103AA00001C080E0809305020E94A40C9E012A5F61
:103AB0003F4FAE01495F5F4FBE01685F7F4FCE0150
:103AC00009960E945F0C8985853AE1F5988586EF15
:103AD000890F8B35B8F58F818230A0F5890F8B5512
:103AE0009E8198132FC00091060210E030E020E084
:103AF0004AE253E061EF73E084E393E00E94C30B7A
:103B00000091050210E030E020E048E353E061EF6F
:103B100073E084E393E00E94C30B10921B05809135
:103B2000070281110E9437020091080210E030E084
:103B300020E04AE253E06CEE73E086E592E00E94FA
:103B4000C30B89CE46EF53E061EF73E084E393E06B
:103B50000E94DE0AE2CF882339F08091180588237D
:103B600029F1815080931805332311F180911805B4
:103B7000811102C090921805222341F09092070211
:103B8000992309F468CE1092070265CE992309F4AF
:103B900062CE809118058111F6CF809108028B309A
:103BA00008F459CE85508093080255CE3111E2CFEA
:103BB000222361F3809118058111E0CF80910802E2
:103BC000843618F48B5F80930802992309F443CE5E
:103BD000E4CF1FEF882309F43ECCFF24F39477242D
:103BE000739488248394EE24E39401E01FEF46CC81
:103BF000F999FECF92BD81BDF89A992780B50895B5
:103C0000262FF999FECF1FBA92BD81BD20BD0FB6F8
:103C1000F894FA9AF99A0FBE019608950E94221E0E
:103C20000C94031F0E94FC1E58F00E94F51E40F0E9
:103C300029F45F3F29F00C94EC1E51110C94371FAE
:103C40000C94F21E0E94141F68F39923B1F35523BC
:103C500091F3951B550BBB27AA276217730784079F
:103C600038F09F5F5F4F220F331F441FAA1FA9F335
:103C700035D00E2E3AF0E0E832D091505040E69523
:103C8000001CCAF72BD0FE2F29D0660F771F881F84
:103C9000BB1F261737074807AB07B0E809F0BB0B77
:103CA000802DBF01FF2793585F4F3AF09E3F51058B
:103CB00078F00C94EC1E0C94371F5F3FE4F3983EB1
:103CC000D4F3869577956795B795F7959F5FC9F774
:103CD000880F911D9695879597F90895E1E0660FF5
:103CE000771F881FBB1F621773078407BA0720F06E
:103CF000621B730B840BBA0BEE1F88F7E0950895D7
:103D00000E941C1F88F09F5798F0B92F9927B75130
:103D1000B0F0E1F0660F771F881F991F1AF0BA956F
:103D2000C9F714C0B13091F00E94361FB1E0089578
:103D30000C94361F672F782F8827B85F39F0B93F6A
:103D4000CCF3869577956795B395D9F73EF4909522
:103D50008095709561957F4F8F4F9F4F0895E894A0
:103D600009C097FB3EF490958095709561957F4FC3
:103D70008F4F9F4F9923A9F0F92F96E9BB27939571
:103D8000F695879577956795B795F111F8CFFAF481
:103D9000BB0F11F460FF1BC06F5F7F4F8F4F9F4FB2
:103DA00016C0882311F096E911C0772321F09EE810
:103DB000872F762F05C0662371F096E8862F70E076
:103DC00060E02AF09A95660F771F881FDAF7880F50
:103DD0009695879597F9089597F99F6780E870E021
:103DE00060E008959FEF80EC089500240A94161671
:103DF000170618060906089500240A9412161306D9
:103E0000140605060895092E0394000C11F4882366
:103E100052F0BB0F40F4BF2B11F460FF04C06F5F82
:103E20007F4F8F4F9F4F089557FD9058440F551F58
:103E300059F05F3F71F04795880F97FB991F61F02C
:103E40009F3F79F087950895121613061406551FA3
:103E5000F2CF4695F1DF08C0161617061806991F0F
:103E6000F1CF86957105610508940895E894BB2704
:103E700066277727CB0197F908950E94501F0C946D
:103E8000031F0E94F51E38F00E94FC1E20F09523AF
:103E900011F00C94EC1E0C94F21E11240C94371F9C
:103EA0000E94141F70F3959FC1F3950F50E0551FAA
:103EB000629FF001729FBB27F00DB11D639FAA277F
:103EC000F00DB11DAA1F649F6627B00DA11D661FCE
:103ED000829F2227B00DA11D621F739FB00DA11DEF
:103EE000621F839FA00D611D221F749F3327A00DA9
:103EF000611D231F849F600D211D822F762F6A2F45
:103F000011249F5750409AF0F1F088234AF0EE0FA9
:103F1000FF1FBB1F661F771F881F91505040A9F7D6
:103F20009E3F510580F00C94EC1E0C94371F5F3FB0
:103F3000E4F3983ED4F3869577956795B795F79512
:103F4000E7959F5FC1F7FE2B880F911D969587958A
:103F500097F90895AA1BBB1B51E107C0AA1FBB1FFD
:103F6000A617B70710F0A61BB70B881F991F5A9505
:103F7000A9F780959095BC01CD010895A1E21A2E74
:103F8000AA1BBB1BFD010DC0AA1FBB1FEE1FFF1FFD
:103F9000A217B307E407F50720F0A21BB30BE40B4D
:103FA000F50B661F771F881F991F1A9469F7609594
:103FB0007095809590959B01AC01BD01CF0108954E
:103FC000EE0FFF1F881F8BBF0790F691E02D19940D
:103FD000A29FB001B39FC001A39F700D811D11244A
:103FE000911DB29F700D811D1124911D08950E9495
:103FF000E81FA59F900DB49F900DA49F800D911D6B
:1040000011240895B7FF0C94F71F0E94F71F821B1D
:10401000930B0895689401C0E8948F929F92CF9378
:10402000DF930E941820DF91CF919F908F90089589
:1040300088249924F401E401B0E49F93AA279A15F7
:104040008B049C04ED05FE05CF05D007A10798F46D
:10405000AD2FDC2FCF2FFE2FE92D982C892E982FF6
:10406000872F762F652F542F432F322F2227B850BA
:1040700031F7BF9127C01B2EBF91BB27220F331FE3
:10408000441F551F661F771F881F991F881C991C86
:10409000EE1FFF1FCC1FDD1FAA1FBB1F8A149B042E
:1040A000EC05FD05CE05DF05A007B10748F08A182D
:1040B0009B08EC09FD09CE09DF09A00BB10B2160BB
:1040C0001A94E1F62EF49401AF01BE01CD01000C6B
:1040D0000895002E083090F0982F872F762F652FA7
:1040E000542F432F322F22270850F4CF220F331F93
:1040F000441F551F661F771F881F991F0A95B2F727
:10410000002D0895DC0101C06D9341505040E0F74F
:104110000895FB01DC014150504048F001900D92A0
:104120000020C9F701C01D9241505040E0F70895AA
:104130000F931F93CF93DF93CDB7DEB72E970FB6B4
:10414000F894DEBF0FBECDBF0E891F89888D998D73
:1041500026E02C831A83098397FF02C080E090E851
:1041600001979E838D83AE01445E5F4F6A8D7B8D88
:10417000CE0101960E94D5204D815E8157FD0AC077
:104180002F813885421753070CF49A01020F131F31
:10419000F80110822E960FB6F894DEBF0FBECDBF89
:1041A000DF91CF911F910F9108952F923F924F92DF
:1041B0005F926F927F928F929F92AF92BF92CF92B7
:1041C000DF92EF92FF920F931F93CF93DF9300D074
:1041D00000D000D01F921F92CDB7DEB77C013B010B
:1041E0008A01FC0117821682838181FFDDC1CE0125
:1041F00001965C01F7019381F30193FD859193FF93
:1042000081913F01882309F453C1853239F493FD2C
:10421000859193FF81913F01853229F4B70190E0A8
:104220000E94ED22E7CF912C212C312CFFE1F315D8
:1042300038F08B3211F190F4803209F1833229F198
:1042400037FC3CC020ED280F2A3050F536FE20C048
:104250008AE0989E200D1124922E06C08D3291F096
:10426000803371F7689430F8F30193FD859193FFE3
:1042700081913F018111DACF21C0689431F86894AF
:1042800032F8F2CF689433F8EFCF689434F8ECCF7B
:10429000EAE02E9E200D1124222E689435F8E4CFFA
:1042A0008E3229F436FC04C1689436F8DDCF8C36A2
:1042B00019F4689437F8D8CF8836B1F2982F9F7DDB
:1042C00095549330E0F08336A1F18337C1F1833503
:1042D00009F063C02801F2E04F0E511CF801C080C4
:1042E000D180692D70E036FC02C06FEF7FEFC60110
:1042F0000E94D7224C01689437F882010AC00C5FF3
:104300001F4FFFE3F98388248394912C6501E8947F
:1043100037F833FE2DC0522C8114910471F55520CD
:1043200009F468CFB70180E290E00E94ED225A9430
:10433000F6CFF801808189830E5F1F4FE4CF2801FB
:10434000F2E04F0E511CF801C080D180692D70E061
:1043500036FC02C06FEF7FEFC6010E94E2224C01E3
:104360008201D5CFB70180E290E00E94ED222A942D
:104370002814190409F0B0F7CECFF60137FC859167
:1043800037FE81916F01B70190E00E94ED2251103C
:104390005A94F1E08F1A9108BFCF843619F089360C
:1043A00009F077C0F80137FE6BC0608171818281AE
:1043B00093810C5F1F4FF32DFF763F2E97FF09C0AF
:1043C00090958095709561957F4F8F4F9F4F689422
:1043D00037F82AE030E0A5010E941D23C82ECA1834
:1043E0008C2C432C36FE0CC0E89440F8C91440F4E1
:1043F00034FE05C032FC03C0F32DFE7E4F2E892C07
:1044000044FEAAC0FE01EC0DF11D8081803309F04D
:104410009CC0242D297E422E842D8870582E43FC6A
:10442000AAC040FEA4C09C2C821418F42C0C922C20
:10443000981844FEA6C0B70180E390E00E94ED22E8
:1044400042FE09C088E790E041FE02C088E590E0A6
:10445000B7010E94ED22C91408F49FC0CA94D12C60
:104460009FEFC91AD90ACA0CDB1CF60182916F01B1
:10447000B70190E00E94ED22AC14BD04B1F74FCF1C
:1044800060817181072E000C880B990B0E5F1F4F06
:1044900092CFD32CE894D4F82AE030E08537E1F1CC
:1044A000232D297FD22E8F36A9F1F0F4883551F1D2
:1044B000F701868197812B960FB6F894DEBF0FBE69
:1044C000CDBFDF91CF911F910F91FF90EF90DF90C3
:1044D000CF90BF90AF909F908F907F906F905F90A4
:1044E0004F903F902F900895803749F0883701F71B
:1044F000D4FE02C06894D2F820E130E00DC0689488
:10450000D4F8F6CF34FE03C0822F8660D82E20E187
:1045100032E002C028E030E0F801D7FE0FC0608131
:104520007181828193810C5F1F4FA5010E941D2321
:10453000C82ECA183D2CE89437F852CF608171819B
:1045400090E080E00E5F1F4FF0CF42FC02C08394EA
:1045500063CF8394839460CF842D867809F45CCFF5
:10456000F6CFB70180E290E00E94ED22839482149E
:10457000C0F3512C5ECF522C5818821408F459CF36
:10458000F8CF842D867809F466CF8BE241FE80E275
:1045900047FC8DE2B70190E05CCFB70180E390E08B
:1045A0000E94ED229A9457CF8FEF9FEF84CFFC01AA
:1045B0000590615070400110D8F7809590958E0F4E
:1045C0009F1F0895FC016150704001900110D8F7C1
:1045D000809590958E0F9F1F08950F931F93CF93F3
:1045E000DF93182F092FEB018B8181FD09C01FEF8D
:1045F0000FEF812F902FDF91CF911F910F91089591
:1046000082FF14C02E813F818C819D81281739073C
:104610003CF4E881F981CF01019699838883108366
:104620008E819F8101969F838E83E3CFE885F985F4
:10463000812F1995892BA1F3DACFFA01AA27283007
:1046400051F1203181F1E8946F936E7F6E5F7F4F5F
:104650008F4F9F4FAF4FB1E03ED0B4E03CD0670FDB
:10466000781F891F9A1FA11D680F791F8A1F911D2E
:10467000A11D6A0F711D811D911DA11D20D009F47E
:1046800068943F912AE0269F11243019305D3193C0
:10469000DEF6CF010895462F4770405D4193B3E0A9
:1046A0000FD0C9F7F6CF462F4F70405D4A3318F050
:1046B000495D31FD4052419302D0A9F7EACFB4E001
:1046C000A6959795879577956795BA95C9F70097B9
:1046D0006105710508959B01AC010A2E069457955A
:1046E000479537952795BA95C9F7620F731F841FB1
:1046F000951FA01D0895F894FFCF0101FFFFFF0152
:10470000640164FF01A503AA03AF03B4031D191BD1
:104710001717041D0422042904310436043D0445FE
:104720000400000000E70451047E043905AF048D45
:1047300004A10400000000640A51048B058A050DE1
:104740000A00494E464F005D205B00484F4C440034
:1047500055490042544E004C494D006F6666004F6B
:104760004E004F46460045787400496E74004D6116
:104770006E00454C5320416C6578412056322E31F5
:104780000053455454494E475300256346656564BC
:10479000206D61783A202575252500256342757ABC
:1047A0007A65723A20257300486C6453656C3D63EA
:1047B000616E63656C004D3A2575202573204D7838
:1047C0003A2575004D504720256320252B6C642029
:1047D000463A2575252500583A252B6C64205A3A0F
:1047E000252B6C642052504D3A256C75003F0058C3
:1047F000005A00302E30316D6D0078317374657061
:1048000000454C5320416C6578412056322E3120B2
:1048100053746167652032205374617274696E67E6
:104820002E2E2E0066656564004C4F4144004346C1
:10483000470062757A7A0064656661756C747320EE
:104840006E657700626164207261770073756D0038
:1048500053746167652032206A6F672072656164F6
:104860007900494E495400535953004C6566740011
:10487000526967687400557000446F776E00536525
:104880006C656374004A6F794C004A6F7952004A34
:104890006F7955004A6F7944005261706964004C29
:1048A000696D4C004C696D46004C696D52004C6955
:1048B0006D5265004D4F44450053554200415849E3
:1048C00053005343414C45005B494E464F5D205BCE
:1048D0004D4F545D205B4A4F475D2000737470203C
:1048E000006F70656E004D454E55005341564500B2
:1048F000766572696679206661696C0076616C0024
:1049000052504D005350444C0070637400504F544B
:10491000004173796E630053796E63005468726569
:104920006164004368616D66657200436F6E650087
:104930005370686572650044697669646572004702
:0649400072696E640000C4
:020000040003F7
:10E000000D9489F10D94B2F10D94B2F10D94B2F129
:10E010000D94B2F10D94B2F10D94B2F10D94B2F1F0
:10E020000D94B2F10D94B2F10D94B2F10D94B2F1E0
:10E030000D94B2F10D94B2F10D94B2F10D94B2F1D0
:10E040000D94B2F10D94B2F10D94B2F10D94B2F1C0
:10E050000D94B2F10D94B2F10D94B2F10D94B2F1B0
:10E060000D94B2F10D94B2F10D94B2F10D94B2F1A0
:10E070000D94B2F10D94B2F10D94B2F10D94B2F190
:10E080000D94B2F10D94B2F10D94B2F10D94B2F180
:10E090000D94B2F10D94B2F10D94B2F10D94B2F170
:10E0A0000D94B2F10D94B2F10D94B2F10D94B2F160
:10E0B0000D94B2F10D94B2F10D94B2F10D94B2F150
:10E0C0000D94B2F10D94B2F10D94B2F10D94B2F140
:10E0D0000D94B2F10D94B2F10D94B2F10D94B2F130
:10E0E0000D94B2F141546D656761323536300041AF
:10E0F000726475696E6F206578706C6F72657220DE
:10E1000073746B3530305632206279204D4C530099
:10E11000426F6F746C6F616465723E004875683F52
:10E1200000436F6D70696C6564206F6E203D200048
:10E130004350552054797065202020203D20005FF9
:10E140005F4156525F415243485F5F3D2000415658
:10E1500052204C696243205665723D20004743437C
:10E160002056657273696F6E203D20004350552024
:10E1700049442020202020203D20004C6F7720663D
:10E18000757365202020203D20004869676820665F
:10E190007573652020203D200045787420667573D6
:10E1A00065202020203D20004C6F636B2066757336
:10E1B000652020203D20004D617220203720323024
:10E1C000313300312E362E3800342E332E350056A2
:10E1D00023202020414444522020206F7020636F70
:10E1E00064652020202020696E73747275637469E1
:10E1F0006F6E2061646472202020496E74657272B3
:10E20000757074006E6F20766563746F7200726A49
:10E210006D702020006A6D70200057686174207056
:10E220006F72743A00506F7274206E6F7420737541
:10E2300070706F72746564004D7573742062652030
:10E2400061206C6574746572002000577269747483
:10E25000696E672045450052656164696E672045B7
:10E26000450045452065727220636E743D00504F35
:10E27000525400303D5A65726F2061646472003FF1
:10E280003D43505520737461747300403D454550C3
:10E29000524F4D207465737400423D426C696E6B41
:10E2A000204C454400453D44756D70204545505215
:10E2B0004F4D00463D44756D7020464C415348001B
:10E2C000483D48656C70004C3D4C69737420492F83
:10E2D0004F20506F72747300513D51756974005234
:10E2E0003D44756D702052414D00563D73686F7707
:10E2F00020696E7465727275707420566563746FF0
:10E30000727300593D506F727420626C696E6B00BD
:10E310002A0011241FBECFEFD1E2DEBFCDBF01E046
:10E320000CBF12E0A0E0B2E0EEE1FDEF03E00BBFB6
:10E3300002C007900D92A030B107D9F712E0A0E01B
:10E34000B2E001C01D92AE30B107E1F70F9460F367
:10E350000D948DFE01E20EBF0FEF0DBF11241FBE05
:10E360000D9460F30D9400F020E030E040ED57E0B4
:10E3700005C0FA013197F1F72F5F3F4F2817390792
:10E38000C0F308959C01260F311DC901A0E0B0E043
:10E390002F5F3F4FABBFFC018791882361F08093D3
:10E3A000C6008091C00086FFFCCF8091C0008064D1
:10E3B0008093C000EACF08958DE08093C6008091DD
:10E3C000C00086FFFCCF8091C00080648093C000B5
:10E3D0008AE08093C6008091C00086FFFCCF8091C8
:10E3E000C00080648093C00008950F94C2F10F9420
:10E3F000DCF10895FC019081992359F09093C600B7
:10E400008091C00086FFFCCF8091C0008064809323
:10E41000C0003196992379F70895282F982F929567
:10E420009F70892F805D8A3308F0895F8093C600D2
:10E430008091C00086FFFCCF8091C00080648093F3
:10E44000C000822F8F70982F905D9A3308F0995FEB
:10E450009093C6008091C00086FFFCCF8091C000E1
:10E4600080648093C00008959C01FB01853691056E
:10E470001CF46330710594F0C90164E670E00F94F8
:10E480002EFE605D7F4F6093C6008091C00086FFC6
:10E49000FCCF8091C00080648093C0002B30310598
:10E4A00014F43297B4F0C90164E670E00F942EFEC4
:10E4B0006AE070E00F942EFE605D7F4F6093C600AF
:10E4C0008091C00086FFFCCF8091C0008064809363
:10E4D000C000C9016AE070E00F942EFEC0968093E0
:10E4E000C6008091C00086FFFCCF8091C000806490
:10E4F0008093C00008951F93182F8EE692EE60E07F
:10E500000F94C2F11093C6008091C00086FFFCCF2B
:10E510008091C00080648093C0000F94DCF11F9153
:10E5200008952F923F924F925F926F927F928F92B7
:10E530009F92AF92BF92CF92DF92EF92FF920F9392
:10E540001F93DF93CF93CDB7DEB762970FB6F894E2
:10E55000DEBF0FBECDBF382E622ECA01DB015C01CB
:10E560006D01772420E2222E2E010894411C511CBB
:10E570008BC081E0A81680E0B80681E0C80680E084
:10E58000D80628F0C601AA27BB270F940DF2BB2797
:10E59000AD2D9C2D8B2D0F940DF28A2D0F940DF225
:10E5A0002092C6008091C00086FFFCCF8091C00001
:10E5B00080648093C0009DE29093C6008091C0006B
:10E5C00086FFFCCF8091C00080648093C0002092C1
:10E5D000C6008091C00086FFFCCF8091C00080649F
:10E5E0008093C00019828601750188249924A1E0D6
:10E5F0003A1651F03A1620F0B2E03B1661F409C029
:10E600000BBFF701779007C0C7010F9477FE782EF4
:10E6100002C0F7017080872D0F940DF22092C60082
:10E620008091C00086FFFCCF8091C0008064809301
:10E63000C000872D8052F401EF70F0708F3520F408
:10E64000E40DF51D708204C0E40DF51D8EE280839B
:10E650000894E11CF11C011D111D0894811C911CE2
:10E6600090E18916910409F0C2CF80E190E0A0E02A
:10E67000B0E0A80EB91ECA1EDB1E198AC2010F9493
:10E68000FAF10F94DCF16A94662009F072CF629679
:10E690000FB6F894DEBF0FBECDBFCF91DF911F91B3
:10E6A0000F91FF90EF90DF90CF90BF90AF909F9031
:10E6B0008F907F906F905F904F903F902F90089534
:10E6C0002F923F924F925F926F927F928F929F9282
:10E6D000AF92BF92CF92DF92EF92FF920F931F9370
:10E6E000DF93CF93CDB7DEB7CD53D1400FB6F894BB
:10E6F000DEBF0FBECDBF01E20EBF0FEF0DBF94B75F
:10E70000F894A89514BE80916000886180936000A1
:10E7100010926000789493FF05C0E0910002F091A0
:10E7200001021995279A2F9A8091C00082608093E8
:10E73000C00080E18093C40088E18093C1000000A4
:10E74000EE24FF24870144E0A42EB12CCC24DD2448
:10E7500024C0C5010197F1F70894E11CF11C011DCB
:10E76000111D21E2E2162EE4F20620E0020720E06D
:10E77000120718F031E0C32ED12CC801B70127ECE5
:10E780003BE140E050E00F9441FE611571058105C9
:10E79000910519F485B1805885B98091C00087FD35
:10E7A00003C0C114D104A9F2A6014F5F5F4FC25E3E
:10E7B000DE4F59834883CE51D140C25EDE4F8881FF
:10E7C0009981CE51D140019711F00D9410FEC05D9A
:10E7D000DE4F19821882C053D14060E0C15DDE4F28
:10E7E0001882CF52D14088249924C35DDE4F19820C
:10E7F0001882CD52D140C05EDE4F188219821A8233
:10E800001B82C052D140CE5CDE4F188219821A8220
:10E810001B82C253D140EE24FF2487010BBFF701B6
:10E8200007911691C45CDE4F19830883CC53D14005
:10E830000D940BFEC25EDE4F28813981CE51D1404E
:10E840002130310509F52091C600C25EDE4F1982E4
:10E850001882CE51D14022C02F5F3F4F4F4F5F4FA4
:10E86000213082E138078AE7480780E0580780F0C6
:10E87000C45CDE4FE881F981CC53D140EF5FFF4F9C
:10E8800019F0EE27FF27099420E030E040E050E047
:10E890008091C00087FFE0CF2091C600C35DDE4FAE
:10E8A00048815981CD52D1404F5F5F4FC35DDE4FEC
:10E8B00059834883CD52D140213209F063C64A3092
:10E8C000510508F05FC60894811C911C53E0851621
:10E8D000910409F059C600E010E018C081E280936D
:10E8E000C6008091C00086FFFCCF8091C00080648C
:10E8F0008093C0002F5F3F4F2931310579F70F9486
:10E90000DCF10F5F1F4F0530110519F020E030E0FA
:10E91000E5CF10920A0210920B0210920C02109294
:10E920000D02109206021092070210920802109235
:10E930000902109202021092030210920402109235
:10E9400005028FEE90EE60E00F94F5F180E191EE1C
:10E9500060E00F94C2F18091C00087FFFCCF9091DE
:10E96000C600903608F09F759032B8F09093C600BC
:10E970008091C00086FFFCCF8091C00080648093AE
:10E98000C000A0E2A093C6008091C00086FFFCCF2B
:10E990008091C00080648093C000983409F4D7C18E
:10E9A0009934B8F4923409F459C1933458F490333B
:10E9B00019F1903308F4E3C59F33A1F1903409F0C5
:10E9C000DEC5BDC0953409F470C1963409F0D7C5D1
:10E9D00098C1923509F42BC2933538F49C3409F46C
:10E9E000F5C1913509F0CBC518C2963509F445C279
:10E9F000993509F0C4C567C483E792EE62E00F94CD
:10EA0000F5F110920602109207021092080210927D
:10EA1000090210920A0210920B0210920C0210923C
:10EA20000D0213C18FE792EE62E00F94F5F18FEEC5
:10EA300090EE60E00F94F5F181E291EE60E00F94CA
:10EA4000C2F187EB91EE60E00F94F5F180E391EE77
:10EA500060E00F94C2F184EE90EE60E00F94F5F167
:10EA60008FE391EE60E00F94C2F186E090E061E008
:10EA700070E00F9434F20F94DCF18DE591EE60E0DC
:10EA80000F94C2F189EC91EE60E00F94F5F18EE401
:10EA900091EE60E00F94C2F183EC91EE60E00F9490
:10EAA000F5F18CE691EE60E00F94C2F18EE10F94E7
:10EAB0000DF288E90F940DF281E00F940DF20F949E
:10EAC000DCF18BE791EE60E00F94C2F119E0E0E039
:10EAD000F0E010935700E4918E2F0F940DF20F94F5
:10EAE000DCF18AE891EE60E00F94C2F1E3E0F0E03F
:10EAF00010935700E4918E2F0F940DF20F94DCF1D8
:10EB000089E991EE60E00F94C2F1E2E0F0E0109349
:10EB10005700E4918E2F0F940DF20F94DCF188EAE8
:10EB200091EE60E00F94C2F1E1E0F0E01093570045
:10EB30001491812F0F940DF20F94DCF107CF8BE825
:10EB400092EE62E00F94F5F18BE492EE60E00F94A8
:10EB5000F5F10F94DCF100E010E019C0C8016F2D51
:10EB60000F947FFEFF2031F489E492EE60E00F9471
:10EB7000C2F10BC0F092C6008091C00086FFFCCFAE
:10EB80008091C00080648093C0000F5F1F4FC80158
:10EB900081519F41A0E0B0E0ABBFFC01F790BAE229
:10EBA000FB1621F0E2E000301E07C1F60F94DCF105
:10EBB0000F94DCF187E592EE60E00F94F5F10F948D
:10EBC000DCF1CC24DD2400E010E01EC0C8010F946D
:10EBD00077FEF82E882331F489E492EE60E00F94FA
:10EBE000C2F10BC08093C6008091C00086FFFCCFAD
:10EBF0008091C00080648093C000FE1419F00894D6
:10EC0000C11CD11C0F5F1F4FC80181519F41A0E063
:10EC1000B0E0ABBFFC01E790FAE2EF1621F022E092
:10EC20000030120799F60F94DCF10F94DCF182E6C4
:10EC300092EE60E00F94C2F1C60161E070E00F94C3
:10EC400034F20F94DCF10F94DCF110920202109276
:10EC50000302109204021092050278CE89E992EE26
:10EC600062E00F94F5F1279A2F9A16C02F9880E052
:10EC700090E0E0EDF7E03197F1F7019684369105E9
:10EC8000C1F72F9A80E090E0E0EDF7E03197F1F7DF
:10EC9000019684369105C1F78091C00087FFE6CFC9
:10ECA0008091C00087FFFCCF64C485EA92EE62E0E9
:10ECB0000F94F5F140910202509103026091040219
:10ECC0007091050281E020E10F9491F2809102029F
:10ECD00090910302A0910402B091050280509F4FD1
:10ECE000AF4FBF4F8093020290930302A0930402A0
:10ECF000B093050280509041A040B04008F426CE69
:10ED0000A4CF83EB92EE62E00F94F5F140910602FE
:10ED100050910702609108027091090280E020E1A1
:10ED20000F9491F28091060290910702A09108023F
:10ED3000B091090280509F4FAF4FBF4F80930602A2
:10ED400090930702A0930802B0930902FFCD80ECD4
:10ED500092EE62E00F94F5F183E792EE60E00F949B
:10ED6000F5F18FE792EE60E00F94F5F18BE892EE0B
:10ED700060E00F94F5F189E992EE60E00F94F5F10F
:10ED800085EA92EE60E00F94F5F183EB92EE60E09D
:10ED90000F94F5F180EC92EE60E00F94F5F187ECC2
:10EDA00092EE60E00F94F5F188ED92EE60E00F9442
:10EDB000F5F18FED92EE60E00F94F5F18AEE92EEB0
:10EDC00060E00F94F5F183E093EEBDCD87EC92EE19
:10EDD00062E00F94F5F181E40F947BF282E40F94EA
:10EDE0007BF283E40F947BF284E40F947BF285E45E
:10EDF0000F947BF286E40F947BF287E40F947BF20E
:10EE000088E40F947BF28AE40F947BF28BE40F94F6
:10EE10007BF28CE40F947BF299CD88ED92EE62E068
:10EE20000F94F5F1772473948824992409C48FED05
:10EE300092EE62E00F94F5F140910A0250910B02BC
:10EE400060910C0270910D0282E020E10F9491F22A
:10EE500080910A0290910B02A0910C02B0910D02D8
:10EE600080509F4FAF4FBF4F80930A0290930B0289
:10EE7000A0930C02B0930D0269CD8AEE92EE62E08F
:10EE80000F94F5F184EE90EE60E00F94F5F18FECC5
:10EE900091EE60E00F94F5F1662477244301CC5D98
:10EEA000DE4F19821882C452D140D401C301B695F5
:10EEB000A79597958795CA5DDE4F88839983AA8326
:10EEC000BB83C652D140CC5DDE4FA881B981C4520C
:10EED000D1401196CC5DDE4FB983A883C452D14096
:10EEE000CD0162E070E00F9434F2B0E2B093C6005E
:10EEF0008091C00086FFFCCF8091C0008064809329
:10EF0000C000EDE2E093C6008091C00086FFFCCF18
:10EF10008091C00080648093C000F0E2F093C6004E
:10EF20008091C00086FFFCCF8091C00080648093F8
:10EF3000C000CA5DDE4FE880F9800A811B81C6529D
:10EF4000D140BB27A12F902F8F2D0F940DF2CA5DBA
:10EF5000DE4F8881C652D1400F940DF2B0E2FB2EF5
:10EF6000F092C6008091C00086FFFCCF8091C00067
:10EF700080648093C0000DE30093C6008091C000C0
:10EF800086FFFCCF8091C00080648093C00010E2B7
:10EF90001093C6008091C00086FFFCCF8091C00016
:10EFA00080648093C0008BBEF3012791C65DDE4F65
:10EFB0002883CA52D140A22EBB24CC24DD2408943D
:10EFC000611C711C811C911C8BBEF3018791282E42
:10EFD0003324442455240894611C711C811C911C09
:10EFE0008BBEF3013791C55DDE4F3883CB52D140E4
:10EFF0000894611C711C811C911C8BBEF30147910C
:10F00000C45DDE4F4883CC52D140ADEFEA2EAFEF66
:10F01000FA2EAFEF0A2FAFEF1A2F6E0C7F1C801E57
:10F02000911E142D032DF22CEE24EA0CFB1C0C1D5A
:10F030001D1D0F940DF220E22093C6008091C000A8
:10F0400086FFFCCF8091C00080648093C000C65DC5
:10F05000DE4F8881CA52D1400F940DF230E23093D6
:10F06000C6008091C00086FFFCCF8091C000806404
:10F070008093C000C45DDE4F8881CC52D1400F9494
:10F080000DF240E24093C6008091C00086FFFCCFA5
:10F090008091C00080648093C000C55DDE4F888190
:10F0A000CB52D1400F940DF250E25093C6008091A4
:10F0B000C00086FFFCCF8091C00080648093C000B8
:10F0C0008FEFE8168FEFF80680E0080780E018075A
:10F0D00031F484E092EE60E00F94C2F1DFC0D80119
:10F0E000C7018070907CA070B0708050904CA040A0
:10F0F000B040D1F52FEF3FE340E050E0E222F322B1
:10F1000004231523CA5DDE4FA880B980CA80DB8046
:10F11000C652D140AE0CBF1CC01ED11EAA0CBB1CD7
:10F12000CC1CDD1C8EE092EE60E00F94C2F1BB2798
:10F13000A12F902F8F2D0F940DF28E2D0F940DF285
:10F1400030E23093C6008091C00086FFFCCF8091F2
:10F15000C00080648093C0004EE34093C60080915D
:10F16000C00086FFFCCF87C08EE09EEFA0E0B0E03D
:10F17000E822F9220A231B239CE0E91694E9F90608
:10F1800090E0090790E0190709F088C0C45DDE4FE0
