:020000040000FA
:100000000C94B4020C9460300C94E5020C942930EA
:100010000C94E5020C94E5020C94E5020C94E502C4
:100020000C94E5020C94E5020C94E5020C94E502B4
:100030000C94E5020C94252E0C94E5020C94402FB0
:100040000C94E5020C94702F0C94E5020C94E502DC
:100050000C94E5020C94E5020C94E5020C94DB2D63
:100060000C94E5020C94AF2E0C94852E0C94E502B2
:100070000C94E5020C94E5020C94E5020C94E50264
:100080000C94352F0C94E5020C94E5020C94E502D7
:100090000C94E5020C94E5020C94E5020C94E50244
:1000A0000C94E5020C94E5020C940D2F0C94E502DF
:1000B0000C94E5020C94E5020C94E5020C94E52EF8
:1000C0000C94E5020C94E5020C94E5020C94E50214
:1000D0000C94E5020C94E5020C94E5020C94E50204
:1000E0000C94E5020C94A1420C94A2030C94AA0374
:1000F0000C9496120C94EF120C940E130C945B1447
:100100000C94700C0C9498060C94F9410C94524287
:100110000C94A0220C94AD420C9431220C94C20396
:100120000C94C1140C949D300C94940C0C94E8061F
:100130000C9440130C94F4120C94AC410C94B8122F
:100140000C94810C0C9429140C9460410C94DE13D3
:100150000C9496420C9473140C94A6030C940E14F5
:100160000C945D0C0C94E9410C94A50C0C94874103
:100170000C9418420C94C5060C948D140C9498039E
:100180000C9465220C94C4130C94D4410C947812F2
:100190000C9487030C94B0120C9492030C944D4170
:1001A0000C94A7140C94F1420C9474410C949B078A
:1001B0000C9403420C942E070C947A220C9428136E
:1001C0000C9473130C948B030C94AA130C948F034C
:1001D0000C9458130C9471030C94F6060C948D1324
:1001E0000C94D7120C9481420C9477420C94BD125B
:1001F0000C94F6130C94D20C0C948B220C94B40334
:100200000C9487220C9467420C94EC070C94BE0368
:100210000C949C030C94C5420C9428420C943541D8
:100220000C94D9140C9450220C94A5130C94B00384
:100230000C9443140C946C030C94B8030C941E1788
:100240000C94D4060C9488400C94D9420C949D4193
:100250000C94C0410C94ED070C943D420C948E22FA
:100260000C9483036364696E6F70737578585B00D8
:10027000205B27242720666F722068656C705D0004
:100280006F6B006572726F723A20007C52504D3A6B
:10029000007C4D3A007C46534D3A003C4D506F7304
:1002A0003A00000020002300260029002C002F0027
:1002B000320000010000030106010901242420612D
:1002C0006C6C2C20246E2071756572792C20246E44
:1002D0003D76616C207365742C20244920696E661C
:1002E0006F2C203F207374617475730024343420A4
:1002F000636F6F726420756E69747320303D737420
:1003000065707320313D6D6D20323D696E6368000C
:10031000243433206261636B6C617368206175748F
:100320006F207370656564206D6D2F6D696E00249C
:100330003430206261636B6C617368206175746F27
:100340002C202434312D24343220582F5A20737419
:1003500065707300243330207370696E646C65209F
:100360005050522C202433312062757A7A65720005
:1003700024323620582073746570732F6D6D2C20D5
:1003800024323720582064697220696E7665727451
:10039000002432302D2432352058206D6F746F7256
:1003A0002F75737465702F70697463682F6D617831
:1003B0002F72617069642F616363656C002431364C
:1003C000205A2073746570732F6D6D2C2024313783
:1003D000205A2064697220696E7665727400243137
:1003E000302D243135205A206D6F746F722F757344
:1003F0007465702F70697463682F6D61782F7261F6
:100400007069642F616363656C0024322D2433208E
:1004100073796E632066656564206D696E2F6D610A
:1004200078206D6D2F7265760024302D2431206187
:1004300073796E632066656564206D696E2F6D61EA
:1004400078206D6D2F6D696E002C454550524F4DD3
:100450005D005B4F50543A005B5645523A00000035
:100460002100240027002A002D0030003300010164
:100470000000040107010A0100000A0B02090C0D2B
:100480000E08070304010000000000000000000047
:10049000000000000000000000000000000000005C
:1004A0000000000012111000000000000000000019
:1004B0000000000000000000000000000000010239
:1004C0001020200808102040102040800201020166
:1004D000080402010102040810204080804020101E
:1004E0000804020180040201804020100804020177
:1004F00008040201010204081020408001020408DF
:100500001020408000002200250028002B002E0033
:100510003100340002010000050108010B0105054E
:100520000505070508080808020202020A0A080869
:100530000404040401010101010101010303030397
:1005400003030303040707070C0C0C0C0C0C0C0C26
:100550000202020206060606060606060B0B0B0B37
:100560000B0B0B0B02009D3011241FBECFEFD1E20D
:10057000DEBFCDBF00E00CBF18E0A0E0B2E0E2E1DA
:10058000FDE900E00BBF02C007900D92AC3CB10743
:10059000D9F72EE0ACECB8E001C01D92A03EB20746
:1005A000E1F712E0C4EBD2E000E006C021970109B8
:1005B000802FFE010E941747C33BD10780E0080748
:1005C000A9F70E947E320C94874E0C940000809113
:1005D0007B00877F80937B0087E480937C00809101
:1005E0007A00806480937A0080917A0086FDFCCF47
:1005F00080917800909179000895CF92DF92EF92E8
:10060000FF92813019F53091240C2091220C8091B9
:100610001D0C90911E0CA0911F0CB091200CE5E1D7
:10062000FCE0181619061A061B060CF5C080D180CE
:10063000E280F3801C141D041E041F04C4F0311159
:1006400014C080839183A283B38311C03091230CA3
:100650002091210C8091190C90911A0CA0911B0CE7
:10066000B0911C0CE1E1FCE0DCCF6213EACFFF901B
:10067000EF90DF90CF900895282F30E0F901E858EF
:10068000FB4F9491F901E254FB4F4491225E3A4FA3
:10069000F9012491222309F435C0992311F19150D5
:1006A0009231F8F4E92FF0E08827E65AFC4F8F4F9B
:1006B0000C9417478B038F036C0383038703710329
:1006C000920398039C03A203A603AA03B003B403F6
:1006D0007103B803BE03C203809180008F778093BB
:1006E0008000E22FF0E0EE0FFF1FEC5FFA4FA591C4
:1006F000B4918FB7F894EC91611148C040954E23A6
:100700004C938FBF0895809180008F7DE8CF8091BA
:100710008000877FE4CF84B58F7784BDE2CF84B536
:100720008F7DFBCF8091B0008F778093B000D9CFC1
:100730008091B0008F7DF9CF809190008F7780936A
:100740009000CFCF809190008F7DF9CF8091900065
:10075000877FF5CF8091A0008F778093A000C1CFD5
:100760008091A0008F7DF9CF8091A000877FF5CF89
:10077000809120018F7780932001B3CF8091200159
:100780008F7DF9CF80912001877FF5CF4E2BB8CF99
:10079000CF93DF9390E0FC01E254FB4F2491825E03
:1007A0009A4FFC0184918823C9F090E0880F991F2B
:1007B000FC01E25AFB4FA591B491FC01EC5FFA4FAA
:1007C000C591D49161110DC09FB7F8948C9120957B
:1007D00082238C938881282328839FBFDF91CF9128
:1007E0000895623051F49FB7F8943C91822F809520
:1007F00083238C93E8812E2BEFCF8FB7F894EC9165
:100800002E2B2C938FBFEACFCF9380913202803171
:1008100021F08F3F61F1CF910895E4E6F5E0C491B6
:10082000C7FDF9CF61E080E10E94C803CC2309F441
:10083000F1C0C23009F006C18091B100887F8360A9
:100840008093B10083E68093B30088EC90E0A0E051
:10085000B0E08093050C9093060CA093070CB09326
:10086000080C80917000826080937000D4CF80E18A
:1008700080933202E4E6F5E0C4918C2FCF3F59F229
:10088000C23009F468C060F4CC2379F1C13009F4B6
:1008900044C087FDC0CF61E080E10E94C803C9CF9A
:1008A000C43009F499C008F478C0C53091F71092AB
:1008B0002001109221018091210188608093210103
:1008C00080912101816080932101EEE2F5E0E491C5
:1008D000F0E0EE0FFF1FEC5FFA4F85919491EEEC84
:1008E000F4E0E491E093F10B9DCF14BC15BC84B50A
:1008F000826084BD85B5816085BDEEE2F5E0E4915E
:10090000F0E0EE0FFF1FEC5FFA4F85919491EEEC53
:10091000F4E0E491E093F80B85CF10928000109200
:1009200081008091810088608093810080918100A6
:10093000816080938100EEE2F5E0E491F0E0EE0F5B
:10094000FF1FEC5FFA4F85919491EEECF4E0E49197
:10095000E093F70B67CF1092B0001092B100809136
:10096000B00082608093B0008091B100816080937C
:10097000B100EEE2F5E0E491F0E0EE0FFF1FEC5F76
:10098000FA4F859194919093F60B8093F50BEEECD2
:10099000F4E0E491E093F40B45CF109290001092B4
:1009A00091008091910088608093910080919100E6
:1009B000816080939100EEE2F5E0E491F0E0EE0FCB
:1009C000FF1FEC5FFA4F85919491EEECF4E0E49117
:1009D000E093F30BC3E026CF1092A0001092A10089
:1009E0008091A10088608093A1008091A100816026
:1009F0008093A100EEE2F5E0E491F0E0EE0FFF1F3E
:100A0000EC5FFA4F85919491EEECF4E0E491E09381
:100A1000F20B08CF85B5887F836085BD81E387BDF4
:100A200088EC90E0A0E0B0E080930D0C90930E0C69
:100A3000A0930F0CB093100C80916E008260809395
:100A40006E00E9CEC130F1F480918100887F816031
:100A5000809381008FE79CE09093890080938800C9
:100A600088EC90E0A0E0B0E08093090C90930A0C31
:100A7000A0930B0CB0930C0C80916F00826080935C
:100A80006F00C9CEC330F1F480919100887F8160FE
:100A9000809391008FE79CE0909399008093980059
:100AA00088EC90E0A0E0B0E08093010C9093020C01
:100AB000A093030CB093040C80917100826080932A
:100AC0007100A9CEC430F1F48091A100887F8160CB
:100AD0008093A1008FE79CE09093A9008093A800E9
:100AE00088EC90E0A0E0B0E08093FD0B9093FE0BCB
:100AF000A093FF0BB093000C8091720082608093F2
:100B0000720089CEC530F1F480912101887F816027
:100B1000809321018FE79CE0909329018093280125
:100B200088EC90E0A0E0B0E08093F90B9093FA0B92
:100B3000A093FB0BB093FC0B8091730082608093B9
:100B4000730069CEC23091F034F4CC2369F0C13027
:100B500009F061CE7FCFC43009F4BCCF0CF49ACF3A
:100B6000C53009F058CED6CF8FE759CF8FE76BCE7F
:100B70003FB7F8948091ED0B9091EE0BA091EF0BA5
:100B8000B091F00B26B5A89B05C02F3F19F0019638
:100B9000A11DB11D3FBFBA2FA92F982F8827BC01D7
:100BA000CD01620F711D811D911D42E0660F771FFF
:100BB000881F991F4A95D1F708958F929F92AF92FF
:100BC000BF92CF92DF92EF92FF924B015C010E94A5
:100BD000B8056B017C010E94B8056C197D098E096E
:100BE0009F09683E734081059105A8F321E0821AB0
:100BF0009108A108B10888EEC80E83E0D81EE11C58
:100C0000F11C81149104A104B10429F7FF90EF9025
:100C1000DF90CF90BF90AF909F908F9008952FB7A7
:100C2000F8946091E90B7091EA0B8091EB0B909135
:100C3000EC0B2FBF08958F929F92AF92BF92CF92ED
:100C4000DF92EF92FF920F931F93CF93DF93CAE54A
:100C5000DBE0811102C0CEE6DBE09A01AB0160E08F
:100C600070E080E090E00FE10E94F847EFE5AE2EE3
:100C7000F6E7BF2EC12CD12CE12CF12C00E010E0C6
:100C80000E949B472C833D834E835F83DF91CF91EE
:100C90001F910F91FF90EF90DF90CF90BF90AF909A
:100CA0009F908F9008959091320289130DC0E4E6D1
:100CB000F5E0E4919FEF90933202E230E1F038F4F6
:100CC000EE2381F0E13089F060E00C943C03E430E5
:100CD00049F110F1E530C1F7909173009D7F909339
:100CE0007300F2CF10926E00EFCF90916F009D7F56
:100CF00090936F00E9CF909170009D7F909370006A
:100D000091E09093B0009091B100987F946090939F
:100D1000B1001092B300D8CF909171009D7F909355
:100D20007100D2CF909172009D7F90937200CCCFD2
:100D3000AF92BF92CF92DF92EF92FF920F931F93E9
:100D4000CF93DF936C017B018B01040F151FEB0127
:100D50005E01AE18BF08C017D10759F06991D601DE
:100D6000ED91FC910190F081E02DC6011995892B40
:100D700079F7C501DF91CF911F910F91FF90EF900F
:100D8000DF90CF90BF90AF900895FC01538D448DBC
:100D9000252F30E0842F90E0821B930B541710F026
:100DA000CF96089501970895FC01918D828D981733
:100DB00061F0A28DAE0FBF2FB11D5D968C91928D0B
:100DC0009F5F9F73928F90E008958FEF9FEF08953C
:100DD000FC01918D828D981731F0828DE80FF11D05
:100DE000858D90E008958FEF9FEF0895FC01918D20
:100DF000228D892F90E0805C9F4F821B91098F7319
:100E00009927089586E99CE00E94F60621E0892B47
:100E100009F420E0822F0895FC01A48DA80FB92FBA
:100E2000B11DA35ABF4F2C91848D90E001968F7312
:100E30009927848FA689B7892C93A089B1898C9131
:100E4000837080648C93938D848D981306C0028880
:100E5000F389E02D80818F7D80830895EF92FF924A
:100E60000F931F93CF93DF93EC0181E0888F9B8DCD
:100E70008C8D98131AC0E889F989808185FF15C087
:100E80009FB7F894EE89FF896083E889F9898081AA
:100E90008370806480839FBF81E090E0DF91CF9179
:100EA0001F910F91FF90EF900895F62E0B8D10E09B
:100EB0000F5F1F4F0F731127E02E8C8D8E110CC00A
:100EC0000FB607FCFACFE889F989808185FFF5CF55
:100ED000CE010E940C07F1CFEB8DEC0FFD2FF11D21
:100EE000E35AFF4FF0829FB7F8940B8FEA89FB8992
:100EF00080818062CFCF682F86E99CE00C942E071A
:100F00000F931F93CF93DF938C01D0E0C0E0F801E3
:100F1000EC0FFD1F6491662341F086E99CE00E947E
:100F20002E07892B11F02196F2CFCE01DF91CF91C0
:100F30001F910F910895CF93DF93EC01888D882343
:100F4000B9F0AA89BB89E889F9898C9185FD03C02C
:100F5000808186FD0DC00FB607FCF7CF8C9185FF11
:100F6000F2CF808185FFEDCFCE010E940C07E9CF43
:100F7000DF91CF91089580E090E0892B29F00E94C5
:100F8000020781110E94000080E090E0892B49F067
:100F900080E090E0892B29F00E94000081110E94DE
:100FA000000080E090E0892B49F080E090E0892B00
:100FB00029F00E94000081110E94000080E090E072
:100FC000892B49F080E090E0892B29F00E940000F5
:100FD00081110C9400000895089590E080E0089538
:100FE000809103018370823029F410925F0980910F
:100FF0005F0908958130D9F780935F09F8CF809118
:10100000370D9091380D807299272091460D25FF5C
:1010100008C0892B19F481E08093030280910302B8
:101020000895892BD9F310920302F8CF8091730DA4
:1010300085FF04C082E080935E0906C08091640D44
:1010400085FF05C010925E0980915E090895809128
:10105000550D85FFF7CF81E0EECF8091EB0D85FD3B
:101060001EC08091DC0D85FD1CC08091CD0D85FDDD
:101070001AC08091BE0D85FD18C08091AF0D85FD11
:1010800016C08091A00D85FD14C08091910D85FD45
:1010900012C08091820D85FD10C080E0089581E02E
:1010A000089582E0089583E0089584E0089585E03E
:1010B000089586E0089587E0089588E008950E94E5
:1010C000E7022091DC0B3091DD0BA9014C5F5F4FF3
:1010D000481759072CF0245031098217930744F51B
:1010E00020915A09E22FF0E0EE0FFF1FE65CF64F69
:1010F00040915B0950915C0960817181461B570BDF
:1011000091838083840F951F90935C0980935B0982
:101110002F5F2F7020935A0944E0969587954A9542
:10112000E1F79093DD0B8093DC0B81E080935D0908
:1011300008950C94040480E0E82FF0E0E45BF34FA2
:101140009081992341F090539A3018F48093790953
:1011500008958F5FF1CF10927909089580917909F0
:1011600090E0FC01E45BF34F208120532A30B0F083
:10117000019748F0FC01E45BF34F208120532A30B3
:10118000B8F780937909E0917909F0E0E45BF34FD7
:10119000808180538A3010F00C949B080895E4E419
:1011A000FCE08081918190932B0280932A028281BE
:1011B0009381909329028093280284819581909352
:1011C000270280932602868197819093250280933F
:1011D0002402ECE2FCE083859485909323028093C3
:1011E000220285858093210286859785909320022F
:1011F00080931F028089918990931E0280931D0223
:101200008289938990931C0280931B028489809326
:101210001A02808191819093190280931802828131
:101220008093170283819481909316028093150214
:101230008581968190931402809313028781908513
:101240009093120280931102818580931002858908
:10125000809368098285809367098689978990932E
:101260000202809301028091340280932C02E5E215
:10127000FCE08081809366098181928190930F02C6
:1012800080930E028381948190930D0280930C02CF
:101290008581968190930B0280930A02809133029C
:1012A000809309020895883170F4E82FF0E0EE0F82
:1012B000FF1FEC52FD4F0190F081E02D309719F0A7
:1012C0006083718308958550843160F4E82FF0E0E5
:1012D000EE0FFF1FE455FD4F0190F081E02D309798
:1012E00009F060830895883170F4E82FF0E0EE0F84
:1012F000FF1FEC52FD4F0190F081E02D309719F067
:101300008081918108958550843170F4E82FF0E058
:10131000EE0FFF1FE455FD4F0190F081E02D309757
:1013200019F0808190E0089590E080E00895F894AD
:101330001092430B1092440B1092450B1092460BE7
:1013400010923F0B1092400B1092410B1092420BE7
:1013500078940895CF92DF92EF92FF920F931F93AC
:10136000F8940091430B1091440B2091450B309160
:10137000460B789440913F0B5091400B6091410B8C
:101380007091420B68017901C41AD50AE60AF70A7E
:10139000C701B60100933F0B1093400B2093410B04
:1013A0003093420B1F910F91FF90EF90DF90CF9001
:1013B0000895E6E8FEE01182848195818827907186
:1013C00095838483E7E7FEE01182848195818827F5
:1013D000907195838483E8E6FEE011828481958193
:1013E0008827907195838483E9E5FEE011828481EA
:1013F00095818827907195838483EAE4FEE01182C9
:101400008481958188279071958384830895809144
:10141000510B81110FC08091520B81110BC0809133
:10142000530B811107C081E09091540B911103C0BF
:1014300080E0089581E00895CF93DF93FC0124813B
:10144000358133FF10C0EC010E940F062A813B81D9
:10145000621B730B2E85F0E12F9F9001112481E018
:101460006217730708F480E0DF91CF9108951F930E
:10147000CF93DF93EC018C819D8180FD19829C01CB
:101480002F713327232B19F0807E9D838C838C81D1
:101490009D8194FB112710F9162796FF04C09F7BAE
:1014A0009D838C8311E08C819D8191FD10C0111171
:1014B0000BC0CE010E941C0A182F8111C0C0812FC1
:1014C000DF91CF911F91089592609D838C830E943C
:1014D0000F06AB018A819B81FA01E81BF90B8C8115
:1014E0009D81112309F45DC085FD3EC02A8592FDD2
:1014F00006C0222321F094609D838C830BC02E179D
:101500001F0619F010F0211107C082629D838C83A1
:10151000598748875B834A838C819D818F71992786
:1015200011E0892B31F28E819F81892B41F28C81D0
:101530009D8191708436910509F48AC008F09AC0A3
:101540008232910509F484C008F07BC08130910596
:1015500009F47EC0409709F47BC0CE010E941C0AAA
:10156000882309F4ACCF74C097FDD6CF86FD0AC09E
:101570002C85A0E12A9F90011124E217F30760F265
:101580008464BACF87FF0BC02D85A0E12A9F90010C
:1015900011248868E217F30708F0AECFBDCF2C8581
:1015A000F4CF85FF12C02A852E171F0609F080F59B
:1015B00086FD03C029812F5F298397FD19828F7DC6
:1015C000806191609D838C8323C090FF0DC097FD47
:1015D00003C080619D838C838C819D819E779D83D8
:1015E0008C835B834A8314C029812223F1F09C0100
:1015F000207C3327232BA1F42B8540E1249F9001ED
:101600001124E217F30760F488859985892B51F43A
:101610008C819D8192FF80CF9B7F9D838C837CCF2B
:101620008160D0CF19861886F3CF91FFF1CF8F73E9
:101630009D7F98609D838C8319861886D2CF10E099
:1016400072CF8134910521F08035910509F085CF65
:10165000EE81FF81309709F432CF1995CE010E94B7
:101660001C0A882309F42BCF8C819D81977F9D8351
:101670008C8325CF883E910559F338F4813C910540
:1016800039F3803D910521F368CF8035A1E09A07B9
:10169000F9F2803D21E09207D9F28031914009F0C2
:1016A0005CCFD6CF48990EC049990EC08091A60B49
:1016B0009091A70BA091A80BB091A90B0196A11D29
:1016C000B11D0DC04999F2CF8091A60B9091A70B47
:1016D000A091A80BB091A90B0197A109B109809322
:1016E000A60B9093A70BA093A80BB093A90B0895FA
:1016F000AF92BF92CF92DF92EF92FF920F931F9320
:10170000CF93DF93B82EEB016A017901F801A88825
:10171000488559856A857B858C859D85AE85BF8585
:10172000481759076A077B0779F111E048175907ED
:101730006A077B070CF010E0A11649F0188B812F87
:101740001995612F80E0B11081E00E94FD0288812F
:101750009981AA81BB814C815D816E817F81840FDB
:10176000951FA61FB71FB7FD13C088839983AA834F
:10177000BB83DF91CF911F910F91FF90EF90DF908E
:10178000CF90BF90AF9008958A2D19951A2DDFCF75
:10179000B05888839983AA83BB83F6011995B11049
:1017A00029C08091110C9091120CA091130CB09152
:1017B000140C23E23CE0E1E1FCE041E25CE01816BD
:1017C00019061A061B062CF188859985AA85BB8502
:1017D00041E050E060E070E0111103C04FEF5FEFB7
:1017E000BA01840F951FA61FB71F88879987AA87FC
:1017F000BB8727C08091150C9091160CA091170CF7
:10180000B091180C24E23CE0E5E1FCE042E25CE04F
:10181000D6CF80819181A281B3810197A109B109BD
:1018200080839183A283B38380819181A281B381DC
:10183000892B8A2B8B2B29F4FA01108381E0F90183
:101840008083F701DF91CF911F910F91FF90EF906F
:10185000DF90CF90BF90AF9019940F931F93882380
:1018600059F08091150C9091160CA091170CB09125
:10187000180CEAE5FBE00AC08091110C9091120C63
:10188000A091130CB091140CEEE6FBE018161906AB
:101890001A061B0674F081E00085118522853385C8
:1018A000448555856685778504171507260737070C
:1018B00009F080E01F910F910895EFEEF4E084911C
:1018C000EFE4F5E0E491F0E0EE0FFF1FEC5FFA4F7C
:1018D000A591B4919C91E82FE095E923EC930895AC
:1018E000EFEEF4E08491EFE4F5E0E491F0E0EE0F48
:1018F000FF1FEC5FFA4FA591B491EC91E82BEC93AC
:101900000895EEEEF4E08491EEE4F5E0E491F0E089
:10191000EE0FFF1FEC5FFA4FA591B4919C91E82F59
:10192000E095E923EC930895EEEEF4E08491EEE483
:10193000F5E0E491F0E0EE0FFF1FEC5FFA4FA591A8
:10194000B491EC91E82BEC9308959091410C99237C
:1019500021F091E0811190E0892FE9EEF4E029E493
:1019600035E0882379F08491F9012491E22FF0E0A9
:10197000EE0FFF1FEC5FFA4FA591B491EC91E82BAD
:10198000EC9308958491F9012491E22FF0E0EE0F99
:10199000FF1FEC5FFA4FA591B4919C91E82FE09561
:1019A000E923EECF9091360C992321F091E081113B
:1019B00090E0892FEAEEF4E02AE435E0882379F01C
:1019C0008491F9012491E22FF0E0EE0FFF1FEC5F0C
:1019D000FA4FA591B491EC91E82BEC930895849182
:1019E000F9012491E22FF0E0EE0FFF1FEC5FFA4FB8
:1019F000A591B4919C91E82FE095E923EECF109248
:101A00002E0B10922F0B1092300B08950F931F93F3
:101A1000CF93DF93041715072607370731F1C1E08D
:101A200040175107620773070CF0C0E0D82F6C2FE6
:101A300081110FC080E00E94FD02EEE6FBE0C08B4A
:101A40008C2FD1110CC0DF91CF911F910F910C946D
:101A5000D20C81E00E94FD02EAE5FBE0F0CFDF91CD
:101A6000CF911F910F910C94A50CDF91CF911F91F5
:101A70000F91089580918C0B8823D1F010928C0BDC
:101A800010923D0B10923C0B8091360B811111C0CE
:101A90008091760B9091770BA091780BB091790B98
:101AA000EEE6FBE084879587A687B78781E0818B88
:101AB00008958091620B9091630BA091640BB0919B
:101AC000650BEAE5FBE0EECFCF93C82F0E942D0C0B
:101AD0008823A9F0C1110AC06091760B7091770B31
:101AE0008091780B9091790BCF9108956091620B62
:101AF0007091630B8091640B9091650BF5CFC111D0
:101B000009C060917A0B70917B0B80917C0B909156
:101B10007D0BEACF6091660B7091670B8091680B2B
:101B20009091690BE1CF823010F40C94640D60E069
:101B300070E0CB010895CF92DF92EF92FF920F9366
:101B40001F936A017B018130B1F48091670C882377
:101B500009F447C06091570C7091580C8091590C52
:101B600090915A0C2091690C21111EC000E814E8D4
:101B70002EE130E021C080916A0C8823B9F1609198
:101B8000630C7091640C8091650C9091660C2091AF
:101B9000680C222359F300915B0C10915C0C20918E
:101BA0005D0C30915E0C08C000915F0C1091600CD0
:101BB0002091610C3091620CC616D706E806F90632
:101BC0004CF0C701B601061717072807390714F4A8
:101BD000C901B8011F910F91FF90EF90DF90CF9056
:101BE000089560E87BE781EE9FEFBCCF60E87BE77C
:101BF00081EE9FEFCCCF81110EC06093210C81E06C
:101C00008093230C1092110C1092120C1092130C52
:101C10001092140C08956093220C81E08093240CA0
:101C20001092150C1092160C1092170C1092180CA2
:101C3000089590E0FC01E25EFA4FE491EE2389F012
:101C4000F0E0EE0FFF1FEE55FD4FA591B4912C91E2
:101C500082549B4FFC018491282381E019F480E099
:101C6000089581E008958091060190914F0E892793
:101C70008295817008958EE10E94190E61E08111B4
:101C800001C060E087EE9DE00E94370A8FE10E946C
:101C9000190E61E0811101C060E088ED9DE00E94B5
:101CA000370A80E20E94190E61E0811101C060E0F4
:101CB00089EC9DE00E94370A81E20E94190E61E0E2
:101CC000811101C060E08AEB9DE00E94370A82E248
:101CD0000E94190E61E0811101C060E08BEA9DE075
:101CE0000E94370A83E20E94190E61E0811101C04F
:101CF00060E08CE99DE00E94370A84E20E94190EA0
:101D000061E0811101C060E08DE89DE00E94370A2A
:101D100085E20E94190E61E0811101C060E08EE74A
:101D20009DE00E94370A6091060165FB662760F915
:101D30008FE69DE00E94370A6091060166FB6627E8
:101D400060F980E69DE00E94370A60910601661FF7
:101D50006627661F81E59DE00E94370A6CB1629597
:101D6000617082E49DE00E94370A6CB165FB6627D2
:101D700060F983E39DE00C94370ACF93C82F61E0AC
:101D80000E94C80361E08C2FCF910C943C03CF9349
:101D9000C82F61E00E94C80360E08C2FCF910C94A3
:101DA0003C0362E00C94C803CF92DF92EF92FF9263
:101DB000CF93DF93811181E09BE0899FE0011124A3
:101DC000C45DD34F6881798190E080E00E948945AD
:101DD0006B017C016A8170E090E080E00E9489459F
:101DE0009B01AC01C701B6010E9440466B017C011A
:101DF0006B817C8190E080E00E9489452AE037ED8C
:101E000043E25CE30E9440469B01AC01C701B6017E
:101E10000E94E144DF91CF91FF90EF90DF90CF904F
:101E200008958F929F92AF92BF92CF92DF92EF92DE
:101E3000FF92CF93DF9380E00E94D40E4B015C01B0
:101E400081E00E94D40E6B017C018091260C909160
:101E5000270CC091280CD091290C009711F1B0E00B
:101E6000A0E08093190C90931A0CA0931B0CB093D4
:101E70001C0C209779F1CE01B0E0A0E080931D0CFE
:101E800090931E0CA0931F0CB093200CDF91CF9168
:101E9000FF90EF90DF90CF90BF90AF909F908F908A
:101EA00008952BE734E14EEA5EE3C501B4010E94D8
:101EB000404620E030E040E05FE30E9470440E9432
:101EC00053456093190C70931A0C80931B0C9093DC
:101ED0001C0CCFCF2EE135E84BEE5EE3C701B60117
:101EE0000E94404620E030E040E05FE30E94704402
:101EF0000E94534560931D0C70931E0C80931F0C21
:101F00009093200CC3CFCF92DF92EF92FF92CF93AA
:101F1000C82F6A017B0120E030E040E85FE3CB019D
:101F2000B6010E94DC4487FF06C0C12CD12C80E89A
:101F3000E82E8FE3F82E8C2F0E94D40E9B01AC016B
:101F4000C701B6010E94404620E030E040E752E47D
:101F50000E94E1440E945A45611571058105910571
:101F600021F461E070E080E090E0CF91FF90EF908D
:101F7000DF90CF900895BF92CF92DF92EF92FF92C1
:101F80000F931F93CF93DF93F82EEA01162F072F9D
:101F900020E030E040E85FE3BE01812F902F0E94F7
:101FA000DC4487FF04C0C0E0D0E010E80FE38BE022
:101FB000F89EF0011124E45DF34F6581768190E095
:101FC00080E00E948945B62EC72ED82EE92E9E01AC
:101FD000412F502F0E94DC4487FF04C0CB2DDC2D05
:101FE0001D2D0E2DAE01612F702F8F2DDF91CF9102
:101FF0001F910F91FF90EF90DF90CF90BF900C94C6
:10200000830F8F929F92AF92BF92CF92DF92EF9207
:10201000FF920F931F93CF93C82F81114AC0C09096
:10202000190CD0901A0CE0901B0CF0901C0C6091D5
:102030002A0C70912B0C90E080E00E948945AB0146
:10204000BC018C2F0E94830F4B015C01CC23D1F18A
:10205000E5E1FCE01C141D041E041F04D4F11092E1
:102060006A0B80E00E94A50C8091620B9091630B3B
:10207000A091640BB091650B0AE51BE0F801848721
:102080009587A687B787B501A4018C2F0E941B06F0
:1020900081E0F801818BC0930402CF911F910F91D1
:1020A000FF90EF90DF90CF90BF90AF909F908F9078
:1020B0000895C0901D0CD0901E0CE0901F0CF09065
:1020C000200CB5CFE1E1FCE01C141D041E041F042C
:1020D0007CF480819181A281B381181619061A06B9
:1020E0001B0624F0C082D182E282F382C111B7CFF5
:1020F00010927E0B80E00E94D20C8091760B909122
:10210000770BA091780BB091790B0EE61BE0B6CF60
:1021100088E1E5E4F2E0ACE2BCE001900D928A9542
:10212000E1F70895FC0180819181C2978F39974032
:10213000F0F4828181508032D0F4838194810A97B7
:102140008F3D9340A0F4858196810A978F37934104
:1021500070F4878190850A978730974240F4818593
:102160008150843120F481E09285923008F080E043
:102170000895CF93DF93EC010E949210882379F0A9
:10218000CE010B960E949210882349F02E893F8938
:102190002456310981E02D3A364208F080E0DF9183
:1021A000CF910895CF93883008F080E0E82FF0E0D9
:1021B000E65EFC4FC081C23008F0C0E024E0C29F60
:1021C000F0011124EC5BF34F428153810190F081C7
:1021D000E02DE417F50778F59A012F5F3F4F2E1B8E
:1021E0003F0BDB010E941F472AE096958795779564
:1021F00067952A95D1F79A01261B370BB901C111B2
:102200001CC04E1B5F0B4233510580F0CB018E1B6F
:102210009F0B6AE070E00E94C246CB012AE0289F33
:10222000B001299F700D11246E0F7F1F90E080E098
:102230000E9489450CC0BF01E2CF90E080E00E947F
:1022400089452AE037ED43E25CE30E944046CF91A6
:102250000895883008F080E0E82FF0E0E65EFC4F5B
:1022600090819F3F31F06091DC0B7091DD0B0C94FD
:10227000D21060E070E0CB010895BF92CF92DF9260
:10228000EF92FF920F931F93CF93DF93B82E81119C
:1022900081E0E82EF12C6623F1F08BE08E9DF001B9
:1022A0008F9DF00D1124E45DF34F6781708590E000
:1022B00080E00E9489456B017C01A601B7018B2D4E
:1022C000DF91CF911F910F91FF90EF90DF90CF9012
:1022D000BF900C94830F8091DB0B883008F062C0B4
:1022E000823049F121E090E0813009F020E0C22EF7
:1022F000D92E0E9429118B01D82FC92FCD2829F161
:102300006091960B7091970B8091980B9091990B1F
:102310006A3071058105910520F46CE370E080E07E
:1023200090E00E9489459B01AC01B8018D2F9C2F44
:102330000E94404607C06091DC0B7091DD0B80E08D
:102340000E94D2108B01D82FC92F20E030E040E24C
:1023500051E4B8018D2F9C2F0E94DC4487FF04C0FC
:1023600000E010E0D0E2C1E48BE08E9DF0018F9D93
:10237000F00D1124E45DF34F6581768190E080E0FB
:102380000E9489456B017C019B01AC01B8018D2F36
:102390009C2F0E943B4618160CF48FCF6801ED2E3F
:1023A000FC2E8BCFD12CC12CA4CF4617570770F031
:1023B0004115510559F0880F991F880F991FFC018D
:1023C000EC5BF34F71836083538342830895E4E4AD
:1023D000FCE0ADE3B2E04D915D916D917C9113977E
:1023E000408351836283738314968D919D910D90E8
:1023F000BC91A02D84839583A683B7830895FC01A7
:1024000082819381208131818217930760F0892B2B
:1024100051F026813781848195812817390718F07A
:1024200081E0232B09F480E0089587E0E6E3F2E001
:10243000A5E2BCE001900D928A95E1F708959C0118
:10244000CB0164E670E00E94C2469F938F937F9316
:102450006F9387E096E09F938F931F9284E18F9311
:102460003F932F930E9454488DB79EB70A960FB69C
:10247000F8949EBF0FBE8DBF0895CF93DF938D322A
:1024800008F097C2EB01E82FF0E08827E55BFD4EEE
:102490008F4F0C94174778129612B012B812D914B5
:1024A000D914D914D914D914D914BD12D712EF12D2
:1024B000F4120E13281358134013D914D91473139C
:1024C0008D13A513AA13C413DE130E14F613D91417
:1024D000D91429144314D914D914D914D914D914DA
:1024E000D914D914D9145B1473148D14A714C114FE
:1024F0008091450C8F938091440C8F938AE997E0EB
:102500009F938F931F9284E18F93DF936F930E9429
:1025100054488DB79EB708960FB6F8949EBF0FBE6D
:102520008DBF81E090E0DF91CF9108958091470CBD
:102530008F938091460C8F938AE997E09F938F93B6
:102540001F9284E18F93DF936F930E9454488DB75D
:102550009EB708960FB6F8949EBF0FBE8DBFE1CF11
:102560006091480C7091490CCE010E941F12D9CF86
:1025700060914A0C70914B0CF7CF8091380C8F937F
:102580008091370C8F938AE997E09F938F931F92E6
:1025900084E18F93DF936F930E9454488DB79EB769
:1025A00008960FB6F8949EBF0FBE8DBFBACF80912C
:1025B000390C1F928F938AE997E09F938F931F9214
:1025C00084E18F93DF936F930E9454488DB79EB739
:1025D00008960FB6F8949EBF0FBE8DBFA2CF609134
:1025E0003A0C70913B0CC0CF80913D0C8F93809141
:1025F0003C0C8F938AE997E09F938F931F9284E11D
:102600008F93DF936F930E9454488DB79EB70896BF
:102610000FB6F8949EBF0FBE8DBF83CF80913F0C45
:102620008F9380913E0C8F938AE997E09F938F93CD
:102630001F9284E18F93DF936F930E9454488DB76C
:102640009EB708960FB6F8949EBF0FBE8DBF69CF98
:102650008091400C1F928F938AE997E09F938F930C
:102660001F9284E18F93DF936F930E9454488DB73C
:102670009EB708960FB6F8949EBF0FBE8DBF51CF80
:102680008091410C1F928F938AE997E09F938F93DB
:102690001F9284E18F93DF936F930E9454488DB70C
:1026A0009EB708960FB6F8949EBF0FBE8DBF39CF68
:1026B00081E00E94D40E9F938F937F936F9388E065
:1026C00094E09F938F931F9284E18F93DF93CF9336
:1026D0000E9454488DB79EB70A960FB6F8949EBFD5
:1026E0000FBE8DBF1ECF80912D0C8F9380912C0C2F
:1026F0008F938AE997E09F938F931F9284E18F9342
:10270000DF936F930E9454488DB79EB708960FB61B
:10271000F8949EBF0FBE8DBF04CF80912E0C1F92E8
:102720008F938AE997E09F938F931F9284E18F9311
:10273000DF936F930E9454488DB79EB708960FB6EB
:10274000F8949EBF0FBE8DBFECCE60912F0C7091A0
:10275000300C0ACF8091320C8F938091310C8F9383
:102760008AE997E09F938F931F9284E18F93DF9381
:102770006F930E9454488DB79EB708960FB6F89491
:102780009EBF0FBE8DBFCDCE8091340C8F938091B4
:10279000330C8F938AE997E09F938F931F9284E184
:1027A0008F93DF936F930E9454488DB79EB708961E
:1027B0000FB6F8949EBF0FBE8DBFB3CE8091350C7F
:1027C0001F928F938AE997E09F938F931F9284E1E2
:1027D0008F93DF936F930E9454488DB79EB70896EE
:1027E0000FB6F8949EBF0FBE8DBF9BCE8091360C66
:1027F0001F928F938AE997E09F938F931F9284E1B2
:102800008F93DF936F930E9454488DB79EB70896BD
:102810000FB6F8949EBF0FBE8DBF83CE80E00E949E
:10282000D40E9F938F937F936F9388E094E09F9350
:102830008F931F9284E18F93DF93CF930E9454482C
:102840008DB79EB70A960FB6F8949EBF0FBE8DBF88
:1028500068CE8091430C8F938091420C8F938AE9CC
:1028600097E09F938F931F9284E18F93DF936F93F1
:102870000E9454488DB79EB708960FB6F8949EBF35
:102880000FBE8DBF4ECE809134021F928F938AE986
:1028900097E09F938F931F9284E18F93DF936F93C1
:1028A0000E9454488DB79EB708960FB6F8949EBF05
:1028B0000FBE8DBF36CE8091250C1F928F938AE973
:1028C00097E09F938F931F9284E18F93DF936F9391
:1028D0000E9454488DB79EB708960FB6F8949EBFD5
:1028E0000FBE8DBF1ECE8091270C8F938091260C3A
:1028F0008F938AE997E09F938F931F9284E18F9340
:10290000DF936F930E9454488DB79EB708960FB619
:10291000F8949EBF0FBE8DBF04CE8091290C8F937B
:102920008091280C8F938AE997E09F938F931F9251
:1029300084E18F93DF936F930E9454488DB79EB7C5
:1029400008960FB6F8949EBF0FBE8DBFEACD80915A
:102950002B0C8F9380912A0C8F938AE997E09F9399
:102960008F931F9284E18F93DF936F930E9454485B
:102970008DB79EB708960FB6F8949EBF0FBE8DBF59
:10298000D0CD809133021F928F938AE997E09F9375
:102990008F931F9284E18F93DF936F930E9454482B
:1029A0008DB79EB708960FB6F8949EBF0FBE8DBF29
:1029B000B8CD90E080E0B7CDCF93C82F0E947309C7
:1029C00028E0C29FF0011124EE5DFC4F228133818B
:1029D00021303105F9F464E670E00E94C2469F930D
:1029E0008F937F936F9387E096E09F938F931F92CF
:1029F00089E08F938CE49CE09F938F930E945448CE
:102A00008DB79EB70A960FB6F8949EBF0FBE8DBFC6
:102A1000CF91089523303105C1F49F938F938AE9B4
:102A200097E09F938F931F9289E08F938CE49CE0B3
:102A30009F938F930E9454488DB79EB708960FB608
:102A4000F8949EBF0FBE8DBFE3CF9F938F938AE90B
:102A500097E09F938F931F9289E08F938CE49CE083
:102A60009F938F930E9454488DB79EB708960FB6D8
:102A7000F8949EBF0FBE8DBFCBCFBF92CF92DF9297
:102A8000EF92FF920F931F93CF93DF93CDB7DEB7F3
:102A90002C970FB6F894DEBF0FBECDBFD82EC62E32
:102AA000B72E8091560C9E012F5F3F4F790138E081
:102AB000D39E800111248130E9F58091550CD81204
:102AC00039C04BE050E06CE47CE0C7010E9445480F
:102AD0001C868091550CD81609F46DC080E2FF92D7
:102AE000EF92F801EE5DFC4F91819F9390819F934F
:102AF0001F928F9384E194E09F938F931F9285E1BF
:102B00008F93BF92CF920E9454480FB6F894DEBFC5
:102B10000FBECDBF2C960FB6F894DEBF0FBECDBF53
:102B2000DF91CF911F910F91FF90EF90DF90CF90A9
:102B3000BF9008958D2D0E947309F801EE5DFC4F42
:102B40002281338121303105C9F464E670E00E94AE
:102B5000C2469F938F937F936F9387E096E09F93F6
:102B60008F931F928CE08F93FF92EF920E945448B4
:102B70000FB6F894DEBF0FBECDBFABCF233031050B
:102B8000A9F4892B81F480E194E09F938F938BE1EA
:102B900094E09F938F931F928CE08F93FF92EF921C
:102BA0000E945448E5CF8DE094E0EFCF9F938F9340
:102BB0008AE997E0EECF8EE392CFCF93DF93EC01DB
:102BC00060E08E810E943C0361E08E810E943C03A4
:102BD00060E08E810E943C038BE891E00197F1F761
:102BE000DF91CF910895CF92DF92EF92FF920F93F2
:102BF0001F93CF93DF936C017C0187E0E80EF11CFB
:102C0000D0E0C0E0062F10E0B8010C2E02C0759590
:102C100067950A94E2F76170F70181917F010E9444
:102C20003C032196C430D10579F7C601DF91CF91DD
:102C30001F910F91FF90EF90DF90CF900C94DD15D6
:102C4000CF92DF92EF92FF920F931F93CF93DF9378
:102C5000EC01F62E642F8C810E943C038D818F3F06
:102C600019F060E00E943C030F2D10E08F8584FF77
:102C700025C06E0187E0C80ED11CF12CE12CB801F3
:102C80000E2C02C0759567950A94E2F76170F60103
:102C900081916F010E943C03FFEFEF1AFF0A88E069
:102CA000E816F10461F7CE01DF91CF911F910F91EA
:102CB000FF90EF90DF90CF900C94DD15B80184E089
:102CC000759567958A95E1F7CE010E94F3156F2DF2
:102CD000CE01DF91CF911F910F91FF90EF90DF9088
:102CE000CF900C94F31540E0682F86EF9DE00C9494
:102CF0002016CF93DF93613029F09091050E9860F4
:102D00009093050E6093090E10920A0E90E4909332
:102D10000B0E80930C0E805C80930D0E61E0809111
:102D2000FA0D0E94C8038091FB0D8F3F19F061E0FE
:102D30000E94C80361E08091FC0D0E94C803C6EFA9
:102D4000DDE09E01265F3D408091050E84FD0BC0B5
:102D500084E090E021962817390744F461E08E81E1
:102D60000E94C803EECF88E090E0F4CF8BE39DE0B3
:102D70000197F1F760E08091FA0D0E943C0360E05A
:102D80008091FC0D0E943C038091FB0D8F3F19F058
:102D900060E00E943C038091050E84FD39C063E031
:102DA00086EF9DE00E94F315CBE4D6E4CE010197B7
:102DB000F1F763E086EF9DE00E94F3152197F1F7AC
:102DC00063E086EF9DE00E94F31583E592E00197B2
:102DD000F1F762E086EF9DE00E94F3158091050E09
:102DE00080620E94731684E08093060E8CE00E943D
:102DF000731681E00E9473168BE39FE10197F1F750
:102E000082E08093070E86E0DF91CF910C947316D9
:102E100080620E9473168BE496E40197F1F780912B
:102E2000050E80620E94731683E592E00197F1F728
:102E30008091050E80620E947316D0CF41E00E94FF
:102E4000201681E090E008956EE270E08CE49CE052
:102E50000E943348009741F09C012C543C4081E093
:102E600090917909291708F080E00895E091790997
:102E7000F0E0E45BF34F808180538A3020F5E091ED
:102E8000550C88E0E89FF0011124EE5DFC4F828133
:102E900093810197D1F40E942417282F80E02111FB
:102EA00026C0E82FF0E0E45BF34F9081992341F0D6
:102EB0009E3231F090539A3008F42F5F8F5FF1CF3C
:102EC00081E02230A0F480E0089520E090E0E22F3D
:102ED000F0E0E45BF34F8081882331F080538A3047
:102EE00008F49F5F2F5FF3CF81E0923060F3089585
:102EF000CF93DF930097A1F0FC012081222381F082
:102F0000EB010E941D4461157105F1E08F079105E9
:102F100038F47983688381E090E0DF91CF91089560
:102F200090E080E0FACF8F929F92AF92BF92EF92A3
:102F3000FF920F931F93CF93DF93009709F467C01D
:102F4000FC012081222309F462C08B01EC016EE2B6
:102F500070E00E9433487C01892B71F4B801CE01E6
:102F6000DF91CF911F910F91FF90EF90BF90AF90A5
:102F70009F908F900C947817CE010E941D444B01B6
:102F80005C01C70101960E941D44F8EE8F16F3E024
:102F90009F06A104B104D8F597FD2BC06A307105D6
:102FA0008105910554F5F701218120532A3048F419
:102FB0002281211106C0AAE0B0E09B01AC010E9471
:102FC0002E4744E6489D9001499D300D1124620F23
:102FD000731FF8017183608381E090E0DF91CF91EE
:102FE0001F910F91FF90EF90BF90AF909F908F90A7
:102FF000089560E070E0CB01D6CF6436710581059D
:103000009105FCF263E670E080E090E0DACF90E0BA
:1030100080E0E4CFCF93DF93D82FC5E18C9FC00130
:10302000112444E150E060E270E08B51974F0E9420
:103030002C48CD9FF0011124EB51F74F148ADF91FA
:10304000CF910895FB0101900020E9F73197AF017E
:10305000461B570BDC01ED91FC910280F381E02DC2
:1030600019948F929F92AF92BF920F931F93CF9319
:10307000DF93CDB7DEB7A1970FB6F894DEBF0FBED2
:10308000CDBF19A2423008F44AE08E010F5D1F4FF8
:10309000842E912CB12CA12CA50194010E94D6461E
:1030A000E62FB901CA01EA3004F5E05DD801EE93DC
:1030B0008D01232B242B252B79F790E080E01097AE
:1030C00029F0BD0186E99CE00E942218A1960FB666
:1030D000F894DEBF0FBECDBFDF91CF911F910F914E
:1030E000BF90AF909F908F900895E95CDFCFCF9213
:1030F000DF92EF92FF92CF93DF9397FF19C06B019E
:103100007C018DE20E947B07EC0166277727CB01CB
:103110006C197D098E099F094AE00E9431188C0FB5
:103120009D1FDF91CF91FF90EF90DF90CF9008959A
:103130004AE0DF91CF91FF90EF90DF90CF900C9419
:103140003118CF93DF93D0E0C0E0009731F0BC019D
:1031500086E99CE00E942218EC016EE174E086E9A9
:103160009CE00E9422188C0F9D1FDF91CF91089543
:103170001F93CF93DF93CDB7DEB764970FB6F89464
:10318000DEBF0FBECDBF182FBE016F5F7F4F0E9405
:103190003D12892B89F084E20E947B07612F70E049
:1031A00090E080E04AE00E9431188DE30E947B07A6
:1031B000CE0101960E94A11864960FB6F894DEBF66
:1031C0000FBECDBFDF91CF911F910895CF93DF93B5
:1031D000CDE5D2E089910E94B81882E0C837D807BF
:1031E000C9F7DF91CF910895CF93DF93EC0183E886
:1031F00092E00E948007CE01DF91CF910C94A1183C
:10320000CF93DF930E948007EC016EE174E086E9C2
:103210009CE00E9422188C0F9D1FDF91CF91089592
:1032200080E892E00C9400194F925F926F927F9227
:103230008F929F92AF92BF92CF92DF92EF92FF92C6
:103240000F931F93CF936B017C01742EAC019B01F4
:103250000E94AD4661E274E0811126C0460157012B
:10326000E894B7F82FEF3FEF4FE75FE7C501B401F0
:103270000E94AD4681110CC02FEF3FEF4FE75FE793
:10328000C501B4010E94DC4465E274E0181664F0E4
:103290002FEF3FEF4FE75FE4C701B6010E943B46C7
:1032A0001816ACF469E274E086E99CE0CF911F91B6
:1032B0000F91FF90EF90DF90CF90BF90AF909F90D5
:1032C0008F907F906F905F904F900C9422182FEF0B
:1032D0003FEF4FE75FECC701B6010E94DC4487FD7A
:1032E000E1CF20E030E0A901C701B6010E94DC4433
:1032F00010E000E087FF08C08DE20E947B078C0190
:10330000F7FAF094F7F8F094C0E060E070E080E045
:103310009FE37C1641F020E030E040E251E40E945F
:10332000E144CF5FF6CFA70196010E9470442B01C4
:103330003C010E945A454B015C014AE00E94311851
:103340007C01E00EF11ECC23B1F1C501B4010E9455
:1033500089459B01AC01C301B2010E946F444B013E
:103360005C018EE20E947B07E80EF91EC15018F145
:1033700020E030E040E251E4C501B4010E94404643
:103380002B013C010E945A454B01B12CA12C4AE073
:10339000C501B4010E943118E80EF91EC501B4013F
:1033A0000E9489459B01AC01C301B2010E946F4498
:1033B0004B015C01DBCFC701CF911F910F91FF90B3
:1033C000EF90DF90CF90BF90AF909F908F907F90C5
:1033D0006F905F904F9008958F929F92AF92BF929F
:1033E000CF92DF92EF92FF928BE992E00E948007EA
:1033F00080E00E94640D4B015C0180E00E94D40ECD
:103400006B017C01C501B4010E948B45A7019601A7
:103410000E94E14443E00E9414198CE20E947B0761
:1034200081E00E94640D4B015C0181E00E94D40E9A
:103430006B017C01C501B4010E948B45A701960177
:103440000E94E14443E00E94141985E992E00E9441
:10345000800760917C0970917D09072E000C880B14
:10346000990B0E94771881E992E00E948007609191
:10347000DB0B70E090E080E04AE00E9431188BE8BE
:1034800092E00E9480076091960B7091970B80915B
:10349000980B9091990B4AE00E9431188EE30E949C
:1034A0007B076EE174E086E99CE0FF90EF90DF908F
:1034B000CF90BF90AF909F908F900C942218611581
:1034C000710511F00C94221890E080E00895EF92BD
:1034D000FF920F931F93CF93DF9320913502222306
:1034E000A1F1EA018B017C0164E374E086E99CE0D0
:1034F0000E945F1A6DE274E086E99CE00E945F1A08
:1035000062E374E086E99CE00E945F1AB70186E9F5
:103510009CE00E945F1A62E374E086E99CE00E94EE
:103520005F1AB80186E99CE00E945F1A63EB77E0BE
:1035300086E99CE00E945F1ACE01DF91CF911F9136
:103540000F91FF90EF900C94A118DF91CF911F91F4
:103550000F91FF90EF9008950F931F93CF93DF93F8
:10356000EC018B01FB0184819581807591704097FE
:1035700039F4AE0166E374E08AE394E00E94671ACE
:10358000F801848182FF0BC0AE016DE374E08AE331
:1035900094E0DF91CF911F910F910C94671ADF9106
:1035A000CF911F910F9108950F931F93CF93DF93A6
:1035B0008C01EA01FC0184819581807591704097AE
:1035C00049F481E0FB01808366E374E08AE394E0E0
:1035D0000E94671AF801848182FF0BC0AE016DE37F
:1035E00074E08AE394E0DF91CF911F910F910C94E6
:1035F000671ADF91CF911F910F910895AF92BF92FB
:10360000CF92DF92EF92FF920F931F93CF93DF93AE
:10361000E0913502EE2309F44AC068017901EA011C
:103620008B015C0164E374E086E99CE00E945F1A10
:103630006DE274E086E99CE00E945F1A62E374E048
:1036400086E99CE00E945F1AB50186E99CE00E9431
:103650005F1A62E374E086E99CE00E945F1AB80199
:1036600086E99CE00E945F1A63EB77E086E99CE0C4
:103670000E945F1ABE0186E99CE00E945F1A80E208
:103680000E947B074AE0C701B6010E9431186EE133
:1036900074E086E99CE0DF91CF911F910F91FF903C
:1036A000EF90DF90CF90BF90AF900C942218DF91F5
:1036B000CF911F910F91FF90EF90DF90CF90BF902F
:1036C000AF9008950F931F938091110C9091120C5D
:1036D000A091130CB091140C181619061A061B06AB
:1036E0006CF08091150C9091160CA091170CB09174
:1036F000180C181619061A061B06E4F40091110C92
:103700001091120C2091130C3091140C8091150C17
:103710009091160CA091170CB091180C080F191F5E
:103720002A1F3B1F42E454E068E474E08BE494E019
:103730000E94FE1A1092110C1092120C1092130C8F
:103740001092140C1092150C1092160C1092170C6B
:103750001092180C1F910F91089580917C099091FF
:103760007D090497F1F184E090E090937D098093C6
:103770007C090E94FF0C0E94621B8091760B909145
:10378000770BA091780BB091790B80937A0B909383
:103790007B0BA0937C0BB0937D0B8091620B90917F
:1037A000630BA091640BB091650B8093660B9093B3
:1037B000670BA093680BB093690B10927F0B10926C
:1037C0006B0B1092720B1092730B1092740B109281
:1037D000750B10925E0B10925F0B1092600B1092A3
:1037E000610B089560917C0970917D09E8E7F2E032
:1037F00040EA52E0208131816217730719F02530C9
:10380000310529F4228133818217930731F03596EF
:103810004E175F0779F70C94AD1B90937D09809349
:103820007C0908950F931F930E94110F0091190CAA
:1038300010911A0C20911B0C30911C0C4FE454E099
:1038400068E474E08BE494E00E94FE1A00911D0C81
:1038500010911E0C20911F0C3091200C44E554E077
:1038600068E474E08BE494E00E94FE1A1F910F91CB
:1038700008958F929F92AF92BF92CF92DF92EF9274
:10388000FF920F931F93CF93DF936C017B01EA01AB
:10389000590164E374E086E99CE00E945F1A6DE2DE
:1038A00074E086E99CE00E945F1A62E374E086E9B6
:1038B0009CE00E945F1AB60186E99CE00E945F1AB4
:1038C00062E374E086E99CE00E945F1AB70186E932
:1038D0009CE00E945F1A63EB77E086E99CE00E941F
:1038E0005F1ABE0186E99CE00E945F1A80E20E9496
:1038F0007B07C501B8010E9477186EE174E086E984
:103900009CE0DF91CF911F910F91FF90EF90DF909E
:10391000CF90BF90AF909F908F900C942218CF9231
:10392000DF92EF92FF920F931F93CF9390913E0BF4
:10393000911161C0843008F05EC0282F30E0F90199
:10394000E959F34F9081992309F455C08D7FC1E067
:1039500009F0C0E0220F331F220F331FF901E95A8B
:10396000F34FC080D180E280F3808C2F0E94930DB2
:103970006C157D058E059F05F1F1C093360BC09245
:10398000320BD092330BE092340BF092350B81E086
:1039900080938C0B10923D0B80933C0B8C2F0E94DC
:1039A000930DAB01BC01970186018C2F0E94060D7F
:1039B000EAE5FBE0C11102C0EEE6FBE0C486D58675
:1039C000E686F78681E0818B61E08C2F0E943D11B5
:1039D000AB01BC018C2F0E941B068091350288230D
:1039E00051F09701860149E554E06DE574E083E606
:1039F00094E00E94391CCF911F910F91FF90EF909E
:103A0000DF90CF9008954F925F926F927F929F9236
:103A1000AF92BF92CF92DF92EF92FF920F931F93DC
:103A2000CF93DF937C01B42EFB018481958182FFCB
:103A300065C1A7016DE374E08AE394E00E94671A10
:103A4000B1104AC28091060190918B0E92959170AF
:103A50008170CFEF98134DC08091060190917C0E3C
:103A60009295917086958170981342C080E0C0E075
:103A70009091060120916D0E2295217092FB99275D
:103A800090F9291374C29091060120915E0E22953F
:103A9000217093FB992790F929136DC2882331F186
:103AA000CC2321F1C13039F5D2E0813009F0D1E0E9
:103AB0000D2F10E098012959334F6901F9019081C8
:103AC0009923A1F00E94930D000F111F000F111FE9
:103AD000F801E95AF34F4080518062807380C13011
:103AE00079F464157505860597058CF0C1E0F8C179
:103AF000C1E081E0BDCFD0E08130D1F2D3E0D8CFBA
:103B0000CF3F29F446165706680679067CF7A701C9
:103B100067E674E08AE394E00E94671A80913E0BA6
:103B2000811155C0F6018081882309F450C0C1E09D
:103B3000D0FDC0E0F801E95AF34FC080D180E280A7
:103B4000F3808C2F0E94930D6C157D058E059F05CB
:103B5000F1F1C093360BC092320BD092330BE0924E
:103B6000340BF092350B81E080938C0B80933D0BEE
:103B700010923C0B8C2F0E94930DAB01BC0197015E
:103B800086018C2F0E94060DEEE6FBE0CC2311F09F
:103B9000EAE5FBE0C486D586E686F78681E0818B80
:103BA00060E08C2F0E943D11AB01BC018C2F0E9464
:103BB0001B0680913502882351F09701860149E563
:103BC00054E067E674E083E694E00E94391CDF91DC
:103BD000CF911F910F91FF90EF90DF90CF90BF900A
:103BE000AF909F907F906F905F904F90089520913D
:103BF000670C2223A1F00091570C1091580C2091D2
:103C0000590C30915A0C061B170B280B390B0093DB
:103C1000570C1093580C2093590C30935A0C209148
:103C2000690C2223A1F000915F0C1091600C20918F
:103C3000610C3091620C061B170B280B390B00939B
:103C40005F0C1093600C2093610C3093620CEAE5DA
:103C5000FBE010861186128613861486158616865A
:103C60001786EC2FF0E0EE0FFF1FEE0FFF1FEE5751
:103C7000F44F10821182128213820E949709EEE69D
:103C8000FBE0CC2311F0EAE5FBE060898C2F0E9479
:103C9000FB0DEB2DF0E0EE0FFF1FE056FD4F4081D6
:103CA00051816DE674E08AE394E00E94671A809186
:103CB0003402882309F48BCF0E9404046DE270E083
:103CC00080E090E00E94DD0580E10E94530660E5FF
:103CD00070E080E090E00E94DD05DF91CF911F91C0
:103CE0000F91FF90EF90DF90CF90BF90AF909F909B
:103CF0007F906F905F904F900C940404807591704A
:103D0000409709F064CF0E94330EA7018823C1F0C9
:103D10006DE574E08AE394E00E94671A8B2DDF91D1
:103D2000CF911F910F91FF90EF90DF90CF90BF90B8
:103D3000AF909F907F906F905F904F900C948F1CEE
:103D400066E374E08AE394E00E94671ACB2DD0E02A
:103D50008E010959134FF801A080AA2029F1108281
:103D6000C855DD4F61E088810E943C0342E754E082
:103D70006FE574E08AE394E00E94671A8091340250
:103D8000882309F424CFDF91CF911F910F91FF90E9
:103D9000EF90DF90CF90BF90AF909F907F906F900B
:103DA0005F904F900C9499089B2CE89491F8911097
:103DB0001CC081E00E94640D6B017C01BB2079F185
:103DC000F2E0BF1217C08091670C8823D1F1809177
:103DD000570C9091580CA091590CB0915A0C8C151D
:103DE0009D05AE05BF056CF1F2CE80E00E94640D2A
:103DF0006B017C0121E0B21259C080916A0C8823CA
:103E000001F18091630C9091640CA091650CB091CC
:103E1000660C8C159D05AE05BF059CF0D8CE809133
:103E2000690C882371F080915F0C9091600CA091D7
:103E3000610CB091620CC816D906EA06FB060CF0BC
:103E4000C6CE81E0F8018083FE01EE0FFF1FEE0F6A
:103E5000FF1FE95AF34FC082D182E282F38260E011
:103E6000FE01E855FD4F80810E943C03EEE6FBE039
:103E7000911004C0AA24A394EAE5FBE060898A2D8E
:103E80000E94FB0D80913502882309F477CFCC0F77
:103E9000DD1FC056DD4F48815981970186016FE5CE
:103EA00074E08AE394E00E94391C68CF33E0B312D7
:103EB000C8CF8091680C882321F280915B0C90918F
:103EC0005C0CA0915D0CB0915E0CC816D906EA0698
:103ED000FB060CF4B6CF7BCEC1E0F2E0BF12C0E02F
:103EE0008C2F0E94930D20918C0B222351F0209156
:103EF000360BC21306C010928C0B10923D0B109221
:103F00003C0BC13009F473CE2091680C2223A1F040
:103F100000915B0C10915C0C20915D0C30915E0C5B
:103F2000061B170B280B390B00935B0C10935C0CD2
:103F300020935D0C30935E0C20916A0C2223A1F03B
:103F40000091630C1091640C2091650C3091660C0B
:103F5000061B170B280B390B0093630C1093640C92
:103F60002093650C3093660CEEE6FBE072CEC1E068
:103F70008111BCCD97CDCFEFFBCF0F931F93CF9384
:103F80008091060E8D7F8093060E88600E947316C6
:103F900005EE18E0C0E0E091090ECE1790F1E15077
:103FA000F0E0EA50F24F848980680E947316B801ED
:103FB00086EF9DE00E945F1ACF5F0B5E1F4FC430FB
:103FC00051F7E0912D02E430F0F48091390990919D
:103FD000090EE91710F0EFEFE90FF0E0EA50F24FA9
:103FE0009489890F80680E9473168091060E982F1D
:103FF00092609093060E8A60CF911F910F910C945E
:104000007316EC2FCDCFCF911F910F9108958CE4B3
:104010009CE0FC0101900020E9F7CF018D549C4009
:104020008830F0F441E0480F2091790930E02F5FAB
:104030003F4FE42FF0E02E173F0740F4E45BF34FCF
:10404000DF0111975C9150834150F3CF245B334FD4
:1040500040E3F90140839927FC01E45BF34F1182AF
:104060000895CF92DF92EF92FF920F931F93CF9319
:10407000DF9300D000D01F921F92CDB7DEB7D82EAD
:104080001091550C48E0149FF0011124EE5DFC4F97
:104090008281938182309105C1F5812F0E9473093D
:1040A000813009F417C1823009F421C1843009F448
:1040B00020C1883009F41FC1803109F41EC180324B
:1040C00009F4FFC05FEFE6E0D51609F40EC1F0E099
:1040D000EC5FFC4F608170E0812F0E945309812FBB
:1040E0000E94DC140E949B0828960FB6F894DEBF4D
:1040F0000FBECDBFDF91CF911F910F91FF90EF9039
:10410000DF90CF900895EF5FE2CF8330910551F4B7
:10411000812F0E94730961E070E0892BE9F270E061
:1041200060E0DACFC09079092C2D30E0F901E45B32
:10413000F34F7F01108120ED210F2A30A8F601975F
:1041400009F094C00E942417082FF1E0882381F021
:10415000DF1208C0193311F01F5F01C010E3F7012F
:104160001083C2CF103311F01150F9CF19E3F7CFFC
:10417000DF1237C0193389F580E3F70180830E948D
:1041800007206EE270E08CE49CE00E9433480097C8
:1041900009F48DC0FC01318120ED230F2A3008F095
:1041A00030E3FC01228140ED420F4A3008F020E369
:1041B000ECE4FCE0E817F90758F5073070F5419199
:1041C00050ED540F5A30B0F7A1E0B0E0AC0FBD1F76
:1041D000A00FB11D4C930F5FEDCF1F5FF701108350
:1041E000D0CF103399F40E943617882309F47CCF7E
:1041F000EC2DF0E0E45BF34F8081882321F0818196
:104200008083C394F5CF0E94AE08BBCF1150E6CF98
:10421000011103C080E3898301E0CE010196FC0116
:10422000E00FF11D1082422F022E000C550B5F9300
:104230002F93432F032E000C550B5F933F939F93B7
:104240008F9386E794E09F938F931F9289E08F93DB
:104250008CE49CE09F938F930E9454480E94AE0888
:104260000FB6F894DEBF0FBECDBF3ECF51E0D512E2
:1042700008C0193309F070CF80E380830E940720C3
:1042800033CF103309F070CF0E943617882309F41A
:104290002BCFEC2DF0E0E45BF34F8081882321F0FD
:1042A00081818083C394F5CF0E94AE081DCF8CE43A
:1042B0009CE0FC0101900020E9F7CF01019730E379
:1042C00076CFF1E0DF1621F05FEFE5E0D51669F07B
:1042D000E5E0FDCEE0E041E0D41609F414CF8FEF25
:1042E000D812F5CEEE2309F4F2CEE150F0CEE1E0A3
:1042F000F2CFE2E0F0CFE3E0EECFE4E0ECCF0F93DB
:104300001F93CF93DF93EB0109900020E9F72197EA
:10431000C61BC53108F0C4E1D0E095E1899F80015A
:1043200011240B51174FAE01C8010E94114844E1FE
:1043300050E04C1B5D0B60E270E0C8018C0F9D1FCC
:104340000E942C48F801148ADF91CF911F910F91A0
:104350000895FF920F931F93CF93DF93CDB7DEB7EE
:1043600065970FB6F894DEBF0FBECDBF1091550C08
:10437000123008F44EC01150173108F016E1BE019A
:104380006F5F7F4F812F0E943D15BE016F5F7F4F92
:1043900080E00E947F21FF24F394F10EBE016F5F45
:1043A0007F4F8F2D0E943D15BE016F5F7F4F81E0D3
:1043B0000E947F2102E0010FBE016F5F7F4F802FBF
:1043C0000E943D15BE016F5F7F4F82E00E947F21FA
:1043D0009091560C913051F58091550C8117D9F080
:1043E000F816D1F092E00817B9F08FEF80932D0204
:1043F0006EE774E083E00E947F2165960FB6F89423
:10440000DEBF0FBECDBFDF91CF911F910F91FF9007
:10441000089510E0B4CF90E080917909895F8431EC
:1044200020F790932D0280933909E2CF62E974E07E
:1044300083E00E947F218FEF80932D02DECF8830B2
:1044400020F5E82FF0E08827E75DFD4D8F4F0C94B5
:1044500017473122502265227A2287228B228E2210
:10446000A02265EA74E080E00E947F2160EB74E0A6
:1044700081E00E947F2164EB74E082E00E947F2152
:104480006EEB74E083E00E947F2180917C09909123
:104490007D09892B09F074C081E090E00C94F21B37
:1044A00081E08093910B66EA74E080E00E947F21B6
:1044B00064EC74E081E00E947F2162ED74E082E0B0
:1044C0000E947F2169ED74E0DDCF81E08093900B45
:1044D0006FED74E080E00E947F216BEE74E081E07C
:1044E0000E947F2162ED74E082E00E947F2168EFEC
:1044F00074E0C8CF65E075E080E00E947F216DE048
:1045000075E081E00E947F2167E175E0D8CF62E22B
:1045100075E080E0B8CF67E275E0FBCF6EE275E052
:1045200080E00E947F2166E375E081E00E947F21A8
:1045300060E475E082E00E947F216BE475E0A2CF29
:1045400081E080938F0B10928E0B10928D0B66E59D
:1045500075E080E00E947F2161E675E081E00E94C5
:104560007F2160E775E082E00E947F2169ED74E0C1
:1045700083E00E947F2181E090E00E94F21B85CFC2
:1045800008951F93CF93DF93EC01162F0E94594497
:10459000181739F0612FCE01DF91CF911F910C9444
:1045A0006144DF91CF911F910895CF93C091340260
:1045B00080910002C80FCB5565EA90E080E00E9430
:1045C000C1226091000281E090E00E94C1226091CE
:1045D000340282E090E00E94C1226C2F83E090E0E0
:1045E000CF910C94C122EF92FF921F93CF93DF9350
:1045F0008CE2E82E8CE0F82EF70115EC8191180F73
:104600008CE0E434F807D1F765EC80E290E00E949A
:10461000C122C1E2D0E0F70161917F01CE010E9489
:10462000C1222196C933D105B1F7612F87E390E00C
:10463000DF91CF911F91FF90EF900C94C1228CE2FB
:104640009CE00E94B910811102C00E9488100E9453
:10465000F3224AE755E060E875E085E895E00C94C0
:10466000671AEF92FF921F93CF93DF9384E4E82EB3
:104670008CE0F82EF70117EB8191180F8CE0EC34E9
:10468000F807D1F767EB80E190E00E94C122C1E119
:10469000D0E0F70161917F01CE010E94C1222196F5
:1046A000C931D105B1F7612F89E190E0DF91CF9158
:1046B0001F91FF90EF900C94C12284E49CE00E9433
:1046C000FF11811102C00E94E7110E9431234AE7C5
:1046D00055E069E875E085E895E00C94671ACF939A
:1046E00080913302833018F081E080933302C091CF
:1046F0003302CF5261ED80E490E00E94C1226091CC
:10470000330281E490E00E94C1226C2F82E490E0A9
:104710000E94C1224AE755E06EE875E085E895E021
:10472000CF910C94671AEF92FF921F93CF93DF9370
:1047300085E2E82E8CE0F82EF70111EB8191180F3D
:104740008CE0EC32F807D1F761EB88E390E00E944F
:10475000C122C9E3D0E0F70161917F01CE010E943F
:10476000C1222196C034D105B1F7612F8FE390E0CB
:10477000DF91CF911F91FF90EF900C94C122809117
:10478000250C8230B0F48091260C9091270C89384A
:10479000934178F48091280C9091290C89389341A9
:1047A00040F480912A0C90912B0C0597843C910544
:1047B00010F00E9415120E9493234AE755E068E426
:1047C00074E085E895E00C94671A0C9459440F93B3
:1047D0001F93CF930E94D52290E080E00E94E523B2
:1047E000082F81E090E00E94E523C82F82E090E04E
:1047F0000E94E523182F83E090E00E94E523053A0C
:1048000041F596EF9C0F9B3520F5123010F5C10F46
:10481000CB558C131EC00091000210E030E020E068
:1048200042E955E067E975E085E895E00E94FE1AE7
:104830000091340210E030E020E04CE955E067E9F7
:1048400075E085E895E00E94FE1ACF911F910F91C7
:10485000089541EA55E067E975E085E895E0CF9174
:104860001F910F910C94671A2F923F924F925F9273
:104870006F927F928F929F92AF92BF92CF92DF9270
:10488000EF92FF920F931F93CF93DF93CDB7DEB7D5
:104890006A970FB6F894DEBF0FBECDBF1C01162F6E
:1048A00029013A01209133022E8B21114EC0202F75
:1048B000002E000C330B862F062E000C990B77FE72
:1048C00039C03F930F937094609450944094411C6E
:1048D000511C611C711C7F926F925F924F929F934B
:1048E0006F938DEA95E09F938F931F928BE08F9348
:1048F0003F922F920E9454480FB6F894DEBF0FBE2D
:10490000CDBF6A960FB6F894DEBF0FBECDBFDF9164
:10491000CF911F910F91FF90EF90DF90CF90BF90BC
:10492000AF909F908F907F906F905F904F903F904F
:104930002F9008953F930F937F924F935F924F92E2
:104940009F936F9388EB95E0CECF81E090E0683540
:1049500011F490E080E02BE0289FF001299FF00DFA
:104960001124E45DF34FA081B1812281A380B48042
:1049700077FCE3C0411451046104710409F4E0C000
:10498000E1E0ED8B109709F4DDC0222309F4DAC0D1
:10499000A114B10409F4D6C030E00E941F479B0166
:1049A000AC01A4E6B0E00E942E476B017C01C3017C
:1049B000B20197FF07C090958095709561957F4FE4
:1049C0008F4F9F4FA70196010E94D64629016F8BFA
:1049D000788F898F9A8F9501A8EEB3E00E941F47C8
:1049E0004B015C0192010E94B2462B013C012F89D0
:1049F000388D498D5A8DC501B4010E94B246A70178
:104A000096010E94D646240D351D461D571D8E89E0
:104A1000823071F4A0E1B7E20E942E47685E7F40C9
:104A20008E4F9F4F20E330EE43E050E00E94D64689
:104A3000CA01B90128EE33E040E050E00E94D646BA
:104A40009F938F937F936F935F934F933F932F9396
:104A500083EC95E09F938F931F928CE08F93DE0100
:104A600011966D01BF93AF930E9454486EE270E0BF
:104A7000C6010E9433480FB6F894DEBF0FBECDBF0B
:104A8000009711F1C816D906F8F49601FC01319788
:104A9000B9012E173F0730F42F5F3F4FDB014C91D8
:104AA0004033B1F38617970711F461507109C616A8
:104AB000D70650F4FB0101900020E9F7AF01461B37
:104AC000570BC6010E941A48F60101900020E9F731
:104AD00031977F01EC18FD085E01FDE0AF0EB11CBF
:104AE00047E050E060E270E0C5010E942C4827E0FA
:104AF000E216F10480F1F7013797EC0DFD1D87E018
:104B0000D50101900D928A95E1F7D1011C93BD89E1
:104B10008DE2BF3F09F080E2F1018183D10112965D
:104B200087E0F50101900D928A95E1F7D101199680
:104B30000C9319971A961C92E4CEFFEFFD8B22CFAF
:104B400091E09D8B20E030E040E050E060E070E0DC
:104B500080E090E075CFC5018E199F09A701B601CD
:104B600007960E941148D1CF8F929F92AF92BF9229
:104B7000CF92DF92EF92FF920F931F9380E00E94FB
:104B8000640D4B015C0181E00E94640D6B017C01AE
:104B900080E00E94640D20916A0C222371F0009144
:104BA000630C1091640C2091650C3091660C061713
:104BB00017072807390709F472C02091680C2223CF
:104BC00009F46FC000915B0C10915C0C20915D0C9E
:104BD00030915E0C061717072807390709F061C0E6
:104BE00006E4A501940168E58BE89CE00E9434246A
:104BF00081E00E94640D2091670C222371F00091E6
:104C0000570C1091580C2091590C30915A0C0617E2
:104C100017072807390709F446C02091690C222399
:104C200009F443C000915F0C1091600C2091610C5D
:104C30003091620C0617170728073907B1F50EE304
:104C4000A70196016AE580E89CE00E94342480E890
:104C50009CE09F938F938BE89CE09F938F938DECC8
:104C600095E09F938F931F9285E18F938BE69CE055
:104C70009F938F930E9454488DB79EB70A960FB6A4
:104C8000F8949EBF0FBE8DBF1F910F91FF90EF90C4
:104C9000DF90CF90BF90AF909F908F90089502E4E7
:104CA000A0CF00E29ECF0CE3CBCF00E2C9CFAF9202
:104CB000BF92CF92DF92EF92FF920F931F93CF9309
:104CC000DF93CDB7DEB760970FB6F894DEBF0FBEA7
:104CD000CDBF80917B09882309F454C060EE75E054
:104CE00080E00E947F2140E150E060E270E08FE6CA
:104CF0009CE00E942C4884E0E5EFF5E0ABE6BCE0E8
:104D000001900D928A95E1F7809133028130C1F1D3
:104D10008230A1F584E480937E0C10927F0C84E1B4
:104D2000EBE6FCE0AAEFB8E001900D928A95E1F77E
:104D300010920E0982E00E940A180E94B42584E1B4
:104D4000EBE6FCE0A4E2B9E001900D928A95E1F770
:104D5000109238098FEF80932D0260960FB6F89469
:104D6000DEBF0FBECDBFDF91CF911F910F91FF909E
:104D7000EF90DF90CF90BF90AF90089583E5CBCFB9
:104D80008DE4C9CF0091470BD090480B1091490B8F
:104D90008091DB0B883008F080E0E82FF0E0E65EE1
:104DA000FC4F90819E012F5F3F4F59019F3F09F0BB
:104DB000A4C06AEF75E0C9010E943E4831E0D316F5
:104DC00009F4EEC082E0D81609F4EFC07AEDC72EE0
:104DD00075E0D72E8FEF800F3EEDE32E35E0F32EFA
:104DE000883050F4202F2150330BF901EE0FFF1FB4
:104DF000E65FFC4FE080F18044E150E060E270E06B
:104E00008BE69CE00E942C48F50101900020E9F718
:104E1000AF01415051094A195B094531510510F064
:104E200044E150E084E190E0841B950B96958795D2
:104E3000082FB5018559934F0E941148F701019041
:104E40000020E9F73197EE19FF09011101C001E0D7
:104E5000402F50E0E417F50708F4AF01B7018BE6E7
:104E60009CE00E94114883E0F601ACE7BCE00190B1
:104E70000D928A95E1F710927F0C6BE67CE080E062
:104E80000E947F21112309F495C00AE5123008F031
:104E900093C024E0129FF0011124EE57F44F1081CB
:104EA000F180E280D38044E150E060E270E08CEC7D
:104EB00098E00E942C48DF92EF92FF921F931F927E
:104EC0000F938FE096E09F938F931F9284E18F93CF
:104ED0008CEC98E09F938F930E9454480FB6F894FF
:104EE000DEBF0FBECDBF97FF6CC090E080E0845363
:104EF000974F20E2FC01208367C0E2E0EE2EF12C08
:104F0000823039F021E090E0813009F020E0E22E9B
:104F1000F92E0E942911E114F104D9F420E030E0C7
:104F200040E05FE30E9470440E945A457F936F9374
:104F300080E096E09F938F931F9280E18F93BF92C2
:104F4000AF920E9454480FB6F894DEBF0FBECDBF9B
:104F500035CFEA94EF2809F031CF20E030E048EC7B
:104F600052E40E94404620E030E040E05FE30E94CF
:104F700070440E945A45CB0164E670E00E94C2462C
:104F80009F938F937F936F9385E096E09F938F938A
:104F90001F9280E18F93BF92AF920E945448D3CF6B
:104FA00062EDC62E65E0D62E15CF56EDC52E55E026
:104FB000D52E10CF08E56DCF10E0F12CE12CD12CCF
:104FC00072CF843108F493CF80913302813069F03D
:104FD000823049F484E48093DF081092E00884E191
:104FE000ECECF8E09FCE83E5F6CF8DE4F4CF8F9222
:104FF0009F92AF92BF92CF92DF92EF92FF920F9368
:105000001F93CF93DF93CDB7DEB768970FB6F894B1
:10501000DEBF0FBECDBF80E30E94C70E8CE20E94B0
:10502000C70E81E30E94C70E8BE20E94C70E80E18B
:105030000E94C70E8AE20E94BD0E8DE10E94BD0E45
:1050400089E10E94BD0E8BE10E94BD0E87E10E94A6
:10505000BD0E86E30E94D10E87E30E94D10E88E345
:105060000E94D10E89E30E94D10E8AE30E94D10EE4
:105070008EE30E94D10E8FE30E94D10E80E40E9445
:10508000D10E81E40E94D10E82E40E94D10E83E40D
:105090000E94D10E84E40E94D10E85E40E94D10EBC
:1050A0008EE10E94D10E8FE10E94D10E80E20E941B
:1050B000D10E81E20E94D10E82E20E94D10E83E2E3
:1050C0000E94D10E84E20E94D10E85E20E94D10E90
:1050D00082E10E94D10E83E10E94D10E82E00E9403
:1050E000D10E83E00E94D10E8FE00E94D10E8EE09F
:1050F0000E94D10E84E10E94D10E85E10E94D10E62
:1051000086E10E94D10E88E10E94D10E8AE10E94C0
:10511000D10E8CE10E94D10EE091A60CF091A70C6B
:1051200082E08083E091A20CF091A30C1082E091C8
:10513000A40CF091A50C80E180831092AE0CE0915C
:10514000AA0CF091AB0C86E08083E091A80CF09162
:10515000A90C808180618083E091A80CF091A90C5A
:10516000808188608083E091A80CF091A90C8081F7
:1051700080688083E091A80CF091A90C80818F7DDC
:10518000808381E0809335021092DA0B6BE176E048
:1051900086E99CE00E945F1A80E20E947B076AE237
:1051A00076E086E99CE00E945F1A80E792E00E9428
:1051B000001980913502882321F080E294E00E945A
:1051C000A11880913502882321F085E396E00E94A2
:1051D000A1184BE556E06FE576E085E696E00E9483
:1051E000671A90E080E00E94E523182F81E090E0AC
:1051F0000E94E523F82E82E090E00E94E523E82E4D
:1052000083E090E00E94E523D82E153A51F586EF11
:105210008F0D8B3530F521E02E1518F18F2D8E0D69
:105220008B55D8121EC0F0920002E09234020F2D6E
:1052300010E030E020E042E955E069E676E085E8FC
:1052400095E00E94FE1A0091340210E030E020E068
:105250004CE955E069E676E085E895E00E94FE1AA3
:1052600013C084E68093000281E080933402153AF3
:1052700009F456C40E94D5224EE656E069E676E06F
:1052800085E895E00E94671A80E190E00E94E5239E
:10529000F82E89E190E00E94E523882E87EBF81232
:1052A0006AC48E010F5F1F4F5801F1E1CF2ED12C40
:1052B000902EE12EC6010E94E523D5018D935D015C
:1052C000BFEFCB1ADB0AE9E1CE16D10499F7C8018A
:1052D0000896D8012D918D01F20EA817B907C9F7CC
:1052E0008F1049C4892D9E2D0E94FF11882309F437
:1052F00042C489819A81AB81BC818093440C909394
:10530000450CA093460CB093470C8D819E81AF81D4
:10531000B8858093480C9093490CA0934A0CB093A5
:105320004B0C47E856E069E875E085E895E00E9497
:10533000671A80E290E00E94E523F82E87E390E070
:105340000E94E523A82EB5ECFB121CC48E010F5F52
:105350001F4F4801E1E2CE2ED12CB02EE12EC60126
:105360000E94E523F40181934F01FFEFCF1ADF0A7A
:1053700029E3C216D10499F7C8014896D8012D91A6
:105380008D01F20EA817B907C9F7AF10FBC38B2D1B
:105390009E2D0E94B910882309F4F4C388E1EB2DF7
:1053A000FE2DACE2BCE001900D928A95E1F747E852
:1053B00056E060E875E085E895E00E94671A88E3AA
:1053C00090E00E94E523F82E8FE390E00E94E52311
:1053D000882EB1EBFB12DDC38E010F5F1F4F58010A
:1053E00079E3C72ED12C902EE12EC6010E94E52331
:1053F000F50181935F01FFEFCF1ADF0A20E4C216A7
:10540000D10499F7C8010796D8012D918D01F20EAC
:105410008A179B07C9F78F10BCC38981823008F0B7
:10542000B8C38A819B818938934108F0B2C38C81CB
:105430009D818938934108F0ACC38E819F81059787
:10544000843C910508F0A5C387E0E92DFE2DA5E277
:10545000BCE001900D928A95E1F747E856E068E4D8
:1054600074E085E895E00E94671A80E490E00E946D
:10547000E523082F81E490E00E94E523182F82E4C1
:1054800090E00E94E523013D09F08AC391ED910F60
:10549000891386C3133008F083C31093330247E89F
:1054A00056E06EE875E085E895E00E94671A47E9E6
:1054B00056E06FE576E085E696E00E94671A84E1A3
:1054C000EEE6FBE0DF01282F1D922A95E9F7EAE5D9
:1054D000FBE0DF011D928A95E9F70E94110F009110
:1054E000190C10911A0C20911B0C30911C0C4FE4DC
:1054F00054E068E474E08BE494E00E94FE1A0091AA
:105500001D0C10911E0C20911F0C3091200C44E5B5
:1055100054E068E474E08BE494E00E94FE1A109278
:10552000210C1092220C1092230C1092240C109239
:10553000110C1092120C1092130C1092140C109269
:10554000150C1092160C1092170C1092180C4BE9B7
:1055500056E06FE576E085E696E00E94671A1092C5
:10556000820B1092830B1092840B1092850B109279
:10557000860B1092870B1092880B1092890B109259
:105580008B0B10928A0B1092370B1092380B1092E3
:10559000390B10923A0B10928C0B10923D0B10921B
:1055A0003C0B1092760B1092770B1092780B1092A6
:1055B000790B10927A0B10927B0B10927C0B10924D
:1055C0007D0B1092620B1092630B1092640B109281
:1055D000650B1092660B1092670B1092680B10927D
:1055E000690B8091250C811110C01092210C81E073
:1055F0008093230C1092110C1092120C1092130C29
:105600001092140C60E00E94FB0D4FE956E06FE52C
:1056100076E085E696E00E94671A64E084E10E94E5
:10562000791681E00E9473168BE39FE10197F1F7F1
:105630008091060E8D7F8093060E88600E947316FF
:105640008FEF80932D0280E00E940A1881E00E9473
:105650000A1882E00E940A1883E00E940A1843EAAE
:1056600056E06FE576E085E696E00E94671A809145
:10567000EB0D9091EC0D90619093EC0D8093EB0D00
:105680008091DC0D9091DD0D90619093DD0D809304
:10569000DC0D8091CD0D9091CE0D90619093CE0D4B
:1056A0008093CD0D8091BE0D9091BF0D9061909330
:1056B000BF0D8093BE0D8091AF0D9091B00D9061A4
:1056C0009093B00D8093AF0D8091A00D9091A10D9E
:1056D00090619093A10D8093A00D8091910D909178
:1056E000920D90619093920D8093910D8091820D17
:1056F0009091830D90619093830D8093820D8091A2
:10570000730D9091740D90619093740D8093730D4F
:105710008091640D9091650D90619093650D8093DB
:10572000640D8091550D9091560D90619093560D9A
:105730008093550D8091460D9091470D9061909307
:10574000470D8093460D8091370D9091380D9061F3
:105750009093380D8093370D0E943B0E0E942D08C8
:10576000811101C081E0809305020E94FF070E9421
:10577000F0070E942D088111809305021091050207
:105780001093470B0E9416088093480B2091030248
:105790002093490B90915F0990934A0B10936409F1
:1057A00080930802209307029093060246EA56E08F
:1057B0006FE576E085E696E00E94671A8091D50E47
:1057C0009091D60E90619093D60E8093D50E8091D5
:1057D000C60E9091C70E90619093C70E8093C60E2F
:1057E0008091B70E9091B80E90619093B80E80930F
:1057F000B70E8091A80E9091A90E90619093A90E7A
:105800008093A80E8091990E90919A0E906190933A
:105810009A0E8093990E80918A0E90918B0E9061D2
:1058200090938B0E80938A0E80917B0E90917C0ECC
:10583000906190937C0E80937B0E80916C0E909182
:105840006D0E906190936D0E80936C0E80915D0E45
:1058500090915E0E906190935E0E80935D0E8091AC
:105860004E0E90914F0E906190934F0E80934E0E7E
:1058700080913F0E9091400E90619093400E8093E6
:105880003F0E8091300E9091310E90619093310EC9
:105890008093300E8091210E9091220E9061909312
:1058A000220E8093210E8091120E9091130E906122
:1058B0009093130E8093120EEBE4FBE08FE0DF0178
:1058C0001D928A95E9F7E3E7F9E086E0DF011D9292
:1058D0008A95E9F74AEA56E06FE576E085E696E0D4
:1058E0000E94671A07E61CE057E5C52E5CE0D52E3E
:1058F00068EAE62E62E0F62EF80111928F01D601D9
:105900001D921D921D921D926D0161E0F701819122
:105910007F010E943C03FCE00B361F0769F74EEA4B
:1059200056E06FE576E085E696E00E94671A60E053
:105930008DE30E94C8030E94E702EAE3F9E0819345
:10594000919329E0EA35F207D1F79C0144E0220F58
:10595000331F4A95E1F730935C0920935B099093DC
:10596000DD0B8093DC0B10925D0980E090E0A0E8F5
:10597000BFEB80932E0290932F02A0933002B0933E
:10598000310242EB56E06FE576E085E696E00E9454
:10599000671A8AB1807F8AB98BB18F608BB91092F8
:1059A000430B1092440B1092450B1092460B109231
:1059B0003F0B1092400B1092410B1092420B46EBA2
:1059C00056E06FE576E085E696E00E94671A109251
:1059D000DE0B1092560C10927A09109269091092FF
:1059E0006A0910926B0910926C0910927209109258
:1059F0006E0910926F09109270091092710910923D
:105A00006D091092550C0E94CF084BEB56E06FE5E4
:105A100076E085E696E00E94671A8091470B9091A8
:105A2000480B8150883008F080E08093DB0B909326
:105A300065090E941F224FEB56E06FE576E085E690
:105A400096E00E94671A1092A20B1092A30B10927C
:105A5000A40B1092A50B61E086E00E94C8038AB1F6
:105A6000807F8AB98BB18F608BB943EC56E06FE5CC
:105A700076E085E696E00E94671A80916900816071
:105A80008093690081E08CBBE89A80916900806115
:105A90008093690084E08CBBEA9A47EC56E06FE59E
:105AA00076E085E696E00E94671A8091DE0B8823F7
:105AB00009F47EC00E94A9210E94BD1F4CEC56E053
:105AC0006FE576E085E696E00E94671AF8941092FA
:105AD00080008AE08093810082E490E090938900C6
