:020000040000FA
:100000000C9460020C94CA280C9491020C949328CE
:100010000C9491020C9491020C9491020C94910214
:100020000C9491020C9491020C9491020C94910204
:100030000C9491020C945B250C9491020C947626FE
:100040000C9491020C94A6260C9491020C949102AB
:100050000C9491020C9491020C9491020C94112531
:100060000C9491020C94E5250C94BB250C94910200
:100070000C9491020C9491020C9491020C949102B4
:100080000C946B260C9491020C9491020C949102A6
:100090000C9491020C9491020C9491020C94910294
:1000A0000C9491020C9491020C9443260C949102AE
:1000B0000C9491020C9491020C9491020C941B26C6
:1000C0000C9491020C9491020C9491020C94910264
:1000D0000C9491020C9491020C9491020C94910254
:1000E0000C9491020C942F030C94001E0C94C70FD7
:1000F0000C94F4020C94870F0C94D3100C942107E9
:100100000C9438110C9467100C94E60F0C949539EC
:100110000C9409030C94DE020C94A50F0C94CC0FE4
:100120000C94E71D0C94EE1D0C94911D0C94FF0291
:100130000C94F5380C942C390C94D0060C942B03A9
:100140000C9405030C94FA050C940F030C94AA3933
:100150000C942B060C94B4100C94FC020C94AF136A
:100160000C9413030C9422070C9403100C94B01DF0
:100170000C94EE390C94A5380C9482100C94371022
:100180000C9404390C9425030C9441390C94090601
:100190000C948D380C941D060C94BF0F0C94BF3931
:1001A0000C941D030C9480390C941D110C94FE0FBB
:1001B0000C94DF380C949C100C9421030C94F802DE
:1001C0000C9405110C94F9370C9452110C94ED1009
:1001D0000C944F100C9463060C94B9100C94B8381E
:1001E0000C945B390C94EB1D0C94CD050C94C51D3F
:1001F0000C94D9390C9417030C941D100C94DA1D2F
:100200000C94D9020C94F0020C9470390C94CF39F0
:100210000C946A110C9407290C9451390C941839D8
:100220000C94CC386364696E6F70737578585B009A
:10023000205B27242720666F722068656C705D0044
:100240006F6B006572726F723A20007C52504D3AAB
:10025000007C4D3A007C46534D3A003C4D506F7344
:100260003A00000020002300260029002C002F0067
:10027000320000010000030106010901242420616D
:100280006C6C2C20246E2071756572792C20246E84
:100290003D76616C207365742C20244920696E665C
:1002A0006F2C203F207374617475730024333020E9
:1002B0007370696E646C65205050522C2024333169
:1002C0002062757A7A657200243236205820737461
:1002D0006570732F6D6D2C2024323720582064698F
:1002E0007220696E76657274002432302D243235A6
:1002F0002058206D6F746F722F75737465702F7036
:10030000697463682F6D61782F72617069642F6101
:100310006363656C00243136205A207374657073F2
:100320002F6D6D2C20243137205A2064697220698A
:100330006E76657274002431302D243135205A20B8
:100340006D6F746F722F75737465702F706974633D
:10035000682F6D61782F72617069642F61636365C6
:100360006C0024322D24332073796E63206665651A
:1003700064206D696E2F6D6178206D6D2F726576CA
:100380000024302D2431206173796E632066656509
:1003900064206D696E2F6D6178206D6D2F6D696EB3
:1003A000002C454550524F4D5D005B4F50543A0074
:1003B0005B5645523A0000002100240027002A0025
:1003C0002D003000330001010000040107010A0183
:1003D00000000A0B02090C0D0E08070304010000BF
:1003E000000000000000000000000000000000000D
:1003F00000000000000000000000000012111000CA
:1004000000000000000000000000000000000000EC
:100410000000000000000102102020080810204009
:1004200010204080020102010804020101020408B8
:100430001020408080402010080402018004020146
:10044000804020100804020108040201010204088F
:10045000102040800102040810204080000022008B
:10046000250028002B002E0031003400020100007E
:10047000050108010B010505050507050808080821
:10048000020202020A0A080804040404010101012C
:100490000101010103030303030303030407070727
:1004A0000C0C0C0C0C0C0C0C0202020206060606CC
:1004B000060606060B0B0B0B0B0B0B0B020007299A
:1004C00011241FBECFEFD1E2DEBFCDBF00E00CBFD5
:1004D00017E0A0E0B2E0ECE5FAE800E00BBF02C0F4
:1004E00007900D92A83BB107D9F72DE0A8EBB7E034
:1004F00001C01D92AF37B207E1F712E0C0E6D2E0CB
:1005000000E006C021970109802FFE010E94CE3D28
:10051000CF35D10780E00807A9F70E94E82A0C949C
:100520002C450C94000080917B00877F80937B009A
:1005300087E480937C0080917A00806480937A00C5
:1005400080917A0086FDFCCF8091780090917900AF
:100550000895282F30E0F901E053FC4F9491F90100
:10056000EA5EFB4F44912A583B4FF9012491222324
:1005700009F435C0992311F191509231F8F4E92F23
:10058000F0E08827E953FD4F8F4F0C94CE3DF802E1
:10059000FC02D902F002F402DE02FF0205030903A5
:1005A0000F03130317031D032103DE0225032B038F
:1005B0002F03809180008F7780938000E22FF0E0FE
:1005C000EE0FFF1FE45AFB4FA591B4918FB7F8943B
:1005D000EC91611148C040954E234C938FBF089514
:1005E000809180008F7DE8CF80918000877FE4CF6D
:1005F00084B58F7784BDE2CF84B58F7DFBCF8091AA
:10060000B0008F778093B000D9CF8091B0008F7DFC
:10061000F9CF809190008F7780939000CFCF809119
:1006200090008F7DF9CF80919000877FF5CF8091EA
:10063000A0008F778093A000C1CF8091A0008F7D14
:10064000F9CF8091A000877FF5CF809120018F772F
:1006500080932001B3CF809120018F7DF9CF8091CD
:100660002001877FF5CF4E2BB8CFCF93DF9390E05B
:10067000FC01EA5EFB4F24918A589B4FFC01849158
:100680008823C9F090E0880F991FFC01EA54FC4FC1
:10069000A591B491FC01E45AFB4FC591D49161112D
:1006A0000DC09FB7F8948C91209582238C938881FC
:1006B000282328839FBFDF91CF910895623051F4A2
:1006C0009FB7F8943C91822F809583238C93E88187
:1006D0002E2BEFCF8FB7F894EC912E2B2C938FBF4E
:1006E000EACFCF9380912A02803121F08F3F61F1D0
:1006F000CF910895ECEBF4E0C491C7FDF9CF61E030
:1007000080E10E943503CC2309F4F1C0C23009F026
:1007100006C18091B100887F83608093B10083E639
:100720008093B30088EC90E0A0E0B0E08093FE0AF4
:100730009093FF0AA093000BB093010B809170007F
:10074000826080937000D4CF80E180932A02ECEB2A
:10075000F4E0C4918C2FCF3F59F2C23009F468C045
:1007600060F4CC2379F1C13009F444C087FDC0CFD7
:1007700061E080E10E943503C9CFC43009F499C01B
:1007800008F478C0C53091F7109220011092210131
:1007900080912101886080932101809121018160F5
:1007A00080932101E6E8F4E0E491F0E0EE0FFF1F12
:1007B000E45AFB4F85919491E6E2F4E0E491E093F2
:1007C000EA0A9DCF14BC15BC84B5826084BD85B592
:1007D000816085BDE6E8F4E0E491F0E0EE0FFF1FF4
:1007E000E45AFB4F85919491E6E2F4E0E491E093C2
:1007F000F10A85CF109280001092810080918100D3
:100800008860809381008091810081608093810065
:10081000E6E8F4E0E491F0E0EE0FFF1FE45AFB4F4E
:1008200085919491E6E2F4E0E491E093F00A67CFD9
:100830001092B0001092B1008091B000826080935D
:10084000B0008091B10081608093B100E6E8F4E0EF
:10085000E491F0E0EE0FFF1FE45AFB4F8591949175
:100860009093EF0A8093EE0AE6E2F4E0E491E093DD
:10087000ED0A45CF10929000109291008091910066
:1008800088608093910080919100816080939100B5
:10089000E6E8F4E0E491F0E0EE0FFF1FE45AFB4FCE
:1008A00085919491E6E2F4E0E491E093EC0AC3E0F0
:1008B00026CF1092A0001092A1008091A100886024
:1008C0008093A1008091A10081608093A100E6E85F
:1008D000F4E0E491F0E0EE0FFF1FE45AFB4F859146
:1008E0009491E6E2F4E0E491E093EB0A08CF85B559
:1008F000887F836085BD81E387BD88EC90E0A0E0C0
:10090000B0E08093060B9093070BA093080BB09375
:10091000090B80916E00826080936E00E9CEC13039
:10092000F1F480918100887F8160809381008FE75E
:100930009CE0909389008093880088EC90E0A0E090
:10094000B0E08093020B9093030BA093040BB09341
:10095000050B80916F00826080936F00C9CEC33019
:10096000F1F480919100887F8160809391008FE7FE
:100970009CE0909399008093980088EC90E0A0E030
:10098000B0E08093FA0A9093FB0AA093FC0AB0931C
:10099000FD0A80917100826080937100A9CEC430FD
:1009A000F1F48091A100887F81608093A1008FE79E
:1009B0009CE09093A9008093A80088EC90E0A0E0D0
:1009C000B0E08093F60A9093F70AA093F80AB093E8
:1009D000F90A8091720082608093720089CEC530DE
:1009E000F1F480912101887F8160809321018FE75C
:1009F0009CE0909329018093280188EC90E0A0E08E
:100A0000B0E08093F20A9093F30AA093F40AB093B3
:100A1000F50A8091730082608093730069CEC230C2
:100A200091F034F4CC2369F0C13009F061CE7FCF6E
:100A3000C43009F4BCCF0CF49ACFC53009F058CEBD
:100A4000D6CF8FE759CF8FE76BCE3FB7F894809121
:100A5000E60A9091E70AA091E80AB091E90A26B562
:100A6000A89B05C02F3F19F00196A11DB11D3FBFE6
:100A7000BA2FA92F982F8827BC01CD01620F711DB5
:100A8000811D911D42E0660F771F881F991F4A95AF
:100A9000D1F708958F929F92AF92BF92CF92DF923B
:100AA000EF92FF924B015C010E9425056B017C01D6
:100AB0000E9425056C197D098E099F09683E7340C7
:100AC00081059105A8F321E0821A9108A108B108D7
:100AD00088EEC80E83E0D81EE11CF11C811491043D
:100AE000A104B10429F7FF90EF90DF90CF90BF9061
:100AF000AF909F908F9008952FB7F8946091E20A7D
:100B00007091E30A8091E40A9091E50A2FBF08955D
:100B100090912A0289130DC0ECEBF4E0E4919FEF71
:100B200090932A02E230E1F038F4EE2381F0E130D4
:100B300089F060E00C94A902E43049F110F1E5304D
:100B4000C1F7909173009D7F90937300F2CF109244
:100B50006E00EFCF90916F009D7F90936F00E9CF73
:100B6000909170009D7F9093700091E09093B00001
:100B70009091B100987F94609093B1001092B3006F
:100B8000D8CF909171009D7F90937100D2CF9091BA
:100B900072009D7F90937200CCCFAF92BF92CF92A4
:100BA000DF92EF92FF920F931F93CF93DF936C012D
:100BB0007B018B01040F151FEB015E01AE18BF080E
:100BC000C017D10759F06991D601ED91FC910190C0
:100BD000F081E02DC6011995892B79F7C501DF91C8
:100BE000CF911F910F91FF90EF90DF90CF90BF902A
:100BF000AF900895FC01538D448D252F30E0842F54
:100C000090E0821B930B541710F0CF960895019734
:100C10000895FC01918D828D981761F0A28DAE0F21
:100C2000BF2FB11D5D968C91928D9F5F9F73928FA8
:100C300090E008958FEF9FEF0895FC01918D828DD4
:100C4000981731F0828DE80FF11D858D90E00895A1
:100C50008FEF9FEF0895FC01918D228D892F90E0F9
:100C6000805C9F4F821B91098F739927089585E3BC
:100C70009BE00E942B0621E0892B09F420E0822FC3
:100C80000895FC01A48DA80FB92FB11DA35ABF4F21
:100C90002C91848D90E001968F739927848FA6897B
:100CA000B7892C93A089B1898C91837080648C93CF
:100CB000938D848D981306C00288F389E02D80817E
:100CC0008F7D80830895EF92FF920F931F93CF93B0
:100CD000DF93EC0181E0888F9B8D8C8D98131AC077
:100CE000E889F989808185FF15C09FB7F894EE895E
:100CF000FF896083E889F9898081837080648083BB
:100D00009FBF81E090E0DF91CF911F910F91FF9005
:100D1000EF900895F62E0B8D10E00F5F1F4F0F73AD
:100D20001127E02E8C8D8E110CC00FB607FCFACF68
:100D3000E889F989808185FFF5CFCE010E944106BF
:100D4000F1CFEB8DEC0FFD2FF11DE35AFF4FF08239
:100D50009FB7F8940B8FEA89FB8980818062CFCF9F
:100D6000682F85E39BE00C9463060F931F93CF934A
:100D7000DF938C01D0E0C0E0F801EC0FFD1F64911F
:100D8000662341F085E39BE00E946306892B11F006
:100D90002196F2CFCE01DF91CF911F910F9108954F
:100DA000CF93DF93EC01888D8823B9F0AA89BB89A2
:100DB000E889F9898C9185FD03C0808186FD0DC08D
:100DC0000FB607FCF7CF8C9185FFF2CF808185FFAE
:100DD000EDCFCE010E944106E9CFDF91CF9108957A
:100DE00080E090E0892B29F00E94370681110E9453
:100DF000000080E090E0892B49F080E090E0892BB2
:100E000029F00E94000081110E94000080E090E023
:100E1000892B49F080E090E0892B29F00E940000A6
:100E200081110E94000080E090E0892B49F080E071
:100E300090E0892B29F00E94000081110C940000A1
:100E40000895089590E080E00895809103018370F3
:100E5000823029F410925F0880915F0808958130F4
:100E6000D9F780935F08F8CF8091D60B9091D70B7C
:100E7000807299272091E50B25FF08C0892B19F472
:100E800081E080930302809103020895892BD9F3B6
:100E900010920302F8CF8091120C85FF04C082E00B
:100EA00080935E0806C08091030C85FF05C01092F8
:100EB0005E0880915E0808958091F40B85FFF7CF5E
:100EC00081E0EECF80918A0C85FD1EC080917B0C65
:100ED00085FD1CC080916C0C85FD1AC080915D0C55
:100EE00085FD18C080914E0C85FD16C080913F0C89
:100EF00085FD14C08091300C85FD12C08091210CBD
:100F000085FD10C080E0089581E0089582E0089595
:100F100083E0089584E0089585E0089586E00895CB
:100F200087E0089588E008950E9493022091D60AF0
:100F30003091D70AA9014C5F5F4F481759072CF031
:100F4000245031098217930744F520915A08E22F63
:100F5000F0E0EE0FFF1FE65CF74F40915B08509109
:100F60005C0860817181461B570B91838083840FDD
:100F7000951F90935C0880935B082F5F2F702093E0
:100F80005A0844E0969587954A95E1F79093D70AD9
:100F90008093D60A81E080935D0808950C947103D4
:100FA00080E0E82FF0E0E65DF44F9081992341F076
:100FB00090539A3018F48093740808958F5FF1CF9E
:100FC0001092740808958091740890E0FC01E65D29
:100FD000F44F208120532A30B0F0019748F0FC01F3
:100FE000E65DF44F208120532A30B8F780937408CF
:100FF000E0917408F0E0E65DF44F808180538A3020
:1010000010F00C94D0070895E2E2FBE0808191811A
:1010100090932302809322028281938190932102F4
:10102000809320028481958190931F0280931E02F9
:101030008681978190931D0280931C02EAE0FBE079
:101040008385948590931B0280931A0285858093F3
:1010500019028685978590931802809317028089DC
:1010600091899093160280931502828993899093B7
:1010700014028093130284898093120280819181EB
:101080009093110280931002828180930F028381DA
:10109000948190930E0280930D02858196819093A6
:1010A0000C0280930B028781908590930A028093B3
:1010B000090281858093080285898093630882856F
:1010C0008093620886899789909302028093010237
:1010D00080912B02809324020895813170F4E82FCF
:1010E000F0E0EE0FFF1FEB54FD4F0190F081E02D7B
:1010F000309719F060837183089585508F3060F4C4
:10110000E82FF0E0EE0FFF1FE956FD4F0190F08150
:10111000E02D309709F060830895813170F4E82F55
:10112000F0E0EE0FFF1FEB54FD4F0190F081E02D3A
:10113000309719F080819181089585508F3070F437
:10114000E82FF0E0EE0FFF1FE956FD4F0190F08110
:10115000E02D309719F0808190E0089590E080E0D4
:101160000895F89410923D0A10923E0A10923F0A98
:101170001092400A1092390A10923A0A10923B0AD1
:1011800010923C0A78940895CF92DF92EF92FF92EA
:101190000F931F93F89400913D0A10913E0A2091FD
:1011A0003F0A3091400A78944091390A50913A0AA6
:1011B00060913B0A70913C0A68017901C41AD50A12
:1011C000E60AF70AC701B6010093390A10933A0AF2
:1011D00020933B0A30933C0A1F910F91FF90EF90B0
:1011E000DF90CF900895E5E2FDE011828481958142
:1011F0008827907195838483E6E1FDE011828481E4
:1012000095818827907195838483E7E0FDE01182C2
:10121000848195818827907195838483E8EFFCE031
:101220001182848195818827907195838483E9EE6A
:10123000FCE0118284819581882790719583848355
:10124000089580914B0A81110FC080914C0A811141
:101250000BC080914D0A811107C081E090914E0A28
:10126000911103C080E0089581E00895CF93DF934A
:10127000FC012481358133FF10C0EC010E947C0504
:101280002A813B81621B730B2E85F0E12F9F900119
:10129000112481E06217730708F480E0DF91CF9199
:1012A00008951F93CF93DF93EC018C819D8180FD86
:1012B00019829C012F713327232B19F0807E9D8387
:1012C0008C838C819D8194FB112710F9162796FF42
:1012D00004C09F7B9D838C8311E08C819D8191FD57
:1012E00010C011110BC0CE010E943609182F8111B8
:1012F000C0C0812FDF91CF911F91089592609D838F
:101300008C830E947C05AB018A819B81FA01E81BDA
:10131000F90B8C819D81112309F45DC085FD3EC0D0
:101320002A8592FD06C0222321F094609D838C8340
:101330000BC02E171F0619F010F0211107C0826292
:101340009D838C83598748875B834A838C819D81E9
:101350008F71992711E0892B31F28E819F81892B22
:1013600041F28C819D8191708436910509F48AC087
:1013700008F09AC08232910509F484C008F07BC05D
:101380008130910509F47EC0409709F47BC0CE01FD
:101390000E943609882309F4ACCF74C097FDD6CFDC
:1013A00086FD0AC02C85A0E12A9F90011124E21736
:1013B000F30760F28464BACF87FF0BC02D85A0E1EC
:1013C0002A9F900111248868E217F30708F0AECF36
:1013D000BDCF2C85F4CF85FF12C02A852E171F069E
:1013E00009F080F586FD03C029812F5F298397FDD1
:1013F00019828F7D806191609D838C8323C090FFD3
:101400000DC097FD03C080619D838C838C819D817D
:101410009E779D838C835B834A8314C0298122231A
:10142000F1F09C01207C3327232BA1F42B8540E194
:10143000249F90011124E217F30760F488859985B1
:10144000892B51F48C819D8192FF80CF9B7F9D835E
:101450008C837CCF8160D0CF19861886F3CF91FF23
:10146000F1CF8F739D7F98609D838C83198618863A
:10147000D2CF10E072CF8134910521F080359105F3
:1014800009F085CFEE81FF81309709F432CF1995AD
:10149000CE010E943609882309F42BCF8C819D81CF
:1014A000977F9D838C8325CF883E910559F338F42F
:1014B000813C910539F3803D910521F368CF80355A
:1014C000A1E09A07F9F2803D21E09207D9F280313C
:1014D000914009F05CCFD6CF48990EC049990EC013
:1014E0008091A00A9091A10AA091A20AB091A30AAA
:1014F0000196A11DB11D0DC04999F2CF8091A00A9E
:101500009091A10AA091A20AB091A30A0197A10902
:10151000B1098093A00A9093A10AA093A20AB09364
:10152000A30A08950F931F93E4E5FAE0811102C026
:10153000E8E6FAE081E0008511852285338544855F
:10154000558566857785041715072607370709F03F
:1015500080E01F910F9108951092280A1092290A95
:1015600010922A0A08958091860A8823D1F0109259
:10157000860A1092370A1092360A8091300A811139
:1015800011C08091700A9091710AA091720AB09175
:10159000730AE8E6FAE084879587A687B78781E033
:1015A000818B089580915C0A90915D0AA0915E0AFA
:1015B000B0915F0AE4E5FAE0EECFCF93C82F0E9426
:1015C000920A8823A9F0C1110AC06091700A709133
:1015D000710A8091720A9091730ACF910895609177
:1015E0005C0A70915D0A80915E0A90915F0AF5CF66
:1015F000C11109C06091740A7091750A8091760AD0
:101600009091770AEACF6091600A7091610A8091A7
:10161000620A9091630AE1CF823010F40C94DD0AE3
:1016200060E070E0CB010895CF92DF92EF92FF92DD
:101630000F931F936A017B018130B1F48091E10720
:10164000882309F447C06091D1077091D207809137
:10165000D3079091D4072091E30721111EC000E821
:1016600014E82EE130E021C08091E4078823B9F12D
:101670006091DD077091DE078091DF079091E007B0
:101680002091E207222359F30091D5071091D60744
:101690002091D7073091D80708C00091D907109141
:1016A000DA072091DB073091DC07C616D706E8067B
:1016B000F9064CF0C701B6010617170728073907C6
:1016C00014F4C901B8011F910F91FF90EF90DF90C2
:1016D000CF90089560E87BE781EE9FEFBCCF60E894
:1016E0007BE781EE9FEFCCCF90E0FC01EA58FB4F07
:1016F000E491EE2389F0F0E0EE0FFF1FEE59FD4F6D
:10170000A591B4912C918A5E9B4FFC018491282372
:1017100081E019F480E0089581E008958091060148
:101720009091EE0C89278295817008958EE10E9438
:10173000740B61E0811101C060E086E89CE00E94CA
:1017400051098FE10E94740B61E0811101C060E0DA
:1017500087E79CE00E94510980E20E94740B61E0DF
:10176000811101C060E088E69CE00E94510981E29D
:101770000E94740B61E0811101C060E089E59CE08A
:101780000E94510982E20E94740B61E0811101C044
:1017900060E08AE49CE00E94510983E20E94740B9D
:1017A00061E0811101C060E08BE39CE00E9451097F
:1017B00084E20E94740B61E0811101C060E08CE260
:1017C0009CE00E94510985E20E94740B61E0811146
:1017D00001C060E08DE19CE00E945109609106012A
:1017E00065FB662760F98EE09CE00E9451096091DC
:1017F000060166FB662760F98FEF9BE00E945109A6
:1018000060910601661F6627661F80EF9BE00E94BD
:1018100051096CB16295617081EE9BE00E945109A3
:101820006CB165FB662760F982ED9BE00C94510971
:10183000CF93C82F61E00E94350361E08C2FCF91D8
:101840000C94A902CF93C82F61E00E94350360E099
:101850008C2FCF910C94A90262E00C9435038091F7
:101860007608909177080497E1F184E090E09093F6
:101870007708809376080E94AC0A8091700A909154
:10188000710AA091720AB091730A8093740A9093BE
:10189000750AA093760AB093770A80915C0A9091BA
:1018A0005D0AA0915E0AB0915F0A8093600A9093EE
:1018B000610AA093620AB093630A1092790A1092A7
:1018C000650A10926C0A10926D0A10926E0A1092BC
:1018D0006F0A1092580A1092590A10925A0A1092DE
:1018E0005B0A08956091760870917708E3E6F2E06C
:1018F0004BE852E0208131816217730719F02530DF
:10190000310529F4228133818217930731F035960E
:101910004E175F0779F70C942F0C909377088093FC
:1019200076080895CF92DF92EF92FF92CF93DF93E4
:10193000811181E09BE0899FE0011124C65FD44FB3
:101940006881798190E080E00E94403C6B017C01DD
:101950006A8170E090E080E00E94403C9B01AC0115
:10196000C701B6010E94F73C6B017C016B817C8151
:1019700090E080E00E94403C2AE037ED43E25CE3E7
:101980000E94F73C9B01AC01C701B6010E94983B45
:10199000DF91CF91FF90EF90DF90CF900895BF92AD
:1019A000CF92DF92EF92FF920F931F93CF93DF932B
:1019B000F82EEA01162F072F20E030E040E85FE321
:1019C000BE01812F902F0E94933B87FF04C0C0E08F
:1019D000D0E010E80FE38BE0F89EF0011124E65F01
:1019E000F44F6581768190E080E00E94403CB62E05
:1019F000C72ED82EE92E9E01412F502F0E94933BD7
:101A000087FF04C0CB2DDC2D1D2D0E2D20E030E0F6
:101A100040E85FE3BE01812F902F0E94933B87FF38
:101A200004C0C0E0D0E010E80FE38F2D0E94920CBC
:101A30009E01412F502F0E94F73C20E030E040E70C
:101A400052E40E94983B0E94113C6115710581058A
:101A5000910521F461E070E080E090E0DF91CF91AA
:101A60001F910F91FF90EF90DF90CF90BF9008955E
:101A700088E1E5E3F2E0AAE0BBE001900D928A95EF
:101A8000E1F70895FC0180819181C2978F399740D9
:101A9000F0F4828181508032D0F4838194810A975E
:101AA0008F3D9340A0F4858196810A978F379341AB
:101AB00070F4878190850A978730974240F481853A
:101AC0008150843120F481E09285923008F080E0EA
:101AD0000895CF93DF93EC010E94420D882379F0A3
:101AE000CE010B960E94420D882349F02E893F8932
:101AF0002456310981E02D3A364208F080E0DF912A
:101B0000CF910895CF93883008F080E0E82FF0E07F
:101B1000E351FD4FC081C23008F0C0E024E0C29F15
:101B2000F0011124EE5DF44F428153810190F08168
:101B3000E02DE417F50778F59A012F5F3F4F2E1B34
:101B40003F0BDB010E94D63D2AE09695879577955D
:101B500067952A95D1F79A01261B370BB901C11158
:101B60001CC04E1B5F0B4233510580F0CB018E1B16
:101B70009F0B6AE070E00E94793DCB012AE0289F2C
:101B8000B001299F700D11246E0F7F1F90E080E03F
:101B90000E94403C0CC0BF01E2CF90E080E00E9478
:101BA000403C2AE037ED43E25CE30E94F73CCF91F2
:101BB0000895883008F080E0E82FF0E0E351FD4F11
:101BC00090819F3F31F06091D60A7091D70A0C94B2
:101BD000820D60E070E0CB010895BF92CF92DF925A
:101BE000EF92FF920F931F93CF93DF93B82E811143
:101BF00081E0E82EF12C662309F442C08BE08E9D33
:101C0000F0018F9DF00D1124E65FF44F6781708520
:101C100090E080E00E94403C6B017C0120E030E0DD
:101C200040E85FE3B601C7010E94933B87FF06C00F
:101C3000C12CD12C80E8E82E9FE3F92E8B2D0E9439
:101C4000920C9601A7010E94F73C20E030E040E7AB
:101C500052E40E94983B0E94113C61157105810578
:101C6000910521F461E070E080E090E0DF91CF9198
:101C70001F910F91FF90EF90DF90CF90BF9008954C
:101C80008091D50A883008F062C0823049F121E0A5
:101C900090E0813009F020E0C22ED92E0E94D90DAB
:101CA0008B01D82FC92FCD2829F16091900A70910E
:101CB000910A8091920A9091930A6A307105810588
:101CC000910520F46CE370E080E090E00E94403CDD
:101CD0009B01AC01B8018D2F9C2F0E94F73C07C0DF
:101CE0006091D60A7091D70A80E00E94820D8B0124
:101CF000D82FC92F20E030E040E251E4B8018D2F09
:101D00009C2F0E94933B87FF04C000E010E0D0E2CC
:101D1000C1E48BE08E9DF0018F9DF00D1124E65FF4
:101D2000F44F6581768190E080E00E94403C6B0139
:101D30007C019B01AC01B8018D2F9C2F0E94F23CCD
:101D400018160CF46BCF6801ED2EFC2E67CFD12C4A
:101D5000C12CA4CF4617570770F04115510559F013
:101D6000880F991F880F991FFC01EE5DF44F718356
:101D70006083538342830895E2E2FBE0ADE2B2E088
:101D80004D915D916D917C91139740835183628356
:101D9000738314968D919D910D90BC91A02D848399
:101DA0009583A683B7830895FC0182819381208166
:101DB00031818217930760F0892B51F0268137819A
:101DC000848195812817390718F081E0232B09F4C5
:101DD00080E00895CF92DF92EF92FF920F931F93CE
:101DE000E62F062E000CFF0B57FF2AC069017A016F
:101DF0000027112798010C191D092E093F093F934F
:101E00002F931F930F93FF936F9323EB33E03F9335
:101E10002F931F922AE02F939F938F930E94F93E56
:101E20002DB73EB7245F3F4F0FB6F8943EBF0FBEAD
:101E30002DBF1F910F91FF90EF90DF90CF900895ED
:101E40005F934F933F932F93FF936F932CEB33E06C
:101E50003F932F931F922AE02F939F938F930E947B
:101E6000F93E2DB73EB7245F3F4F0FB6F8943EBF03
:101E70000FBE2DBFDECF9C01CB0164E670E00E9457
:101E8000793D9F938F937F936F938AE695E09F931D
:101E90008F931F9284E18F933F932F930E94F93E7B
:101EA0008DB79EB70A960FB6F8949EBF0FBE8DBF32
:101EB0000895CF93DF93803208F00CC2EB01E82F36
:101EC000F0E08827E959F04F8F4F0C94CE3D870FF3
:101ED000A50FBF0FC70F6A116A116A116A116A1143
:101EE0006A11CC0FE60FFE0F03101D10371067109C
:101EF0004F106A116A1182109C10B410B910D310DF
:101F0000ED101D1105116A116A11381152118091DD
:101F1000230B8F938091220B8F938FE896E09F93F2
:101F20008F931F9284E18F93DF936F930E94F93E0A
:101F30008DB79EB708960FB6F8949EBF0FBE8DBFA3
:101F400081E090E0DF91CF9108958091250B8F93F0
:101F50008091240B8F938FE896E09F938F931F922D
:101F600084E18F93DF936F930E94F93E8DB79EB704
:101F700008960FB6F8949EBF0FBE8DBFE1CF60915B
:101F8000260B7091270BCE010E943B0FD9CF609199
:101F9000280B7091290BF7CF8091160B8F938091AE
:101FA000150B8F938FE896E09F938F931F9284E198
:101FB0008F93DF936F930E94F93E8DB79EB708967B
:101FC0000FB6F8949EBF0FBE8DBFBACF8091170B8E
:101FD0001F928F938FE896E09F938F931F9284E1D7
:101FE0008F93DF936F930E94F93E8DB79EB708964B
:101FF0000FB6F8949EBF0FBE8DBFA2CF6091180B95
:102000007091190BC0CF80911B0B8F9380911A0B8D
:102010008F938FE896E09F938F931F9284E18F9325
:10202000DF936F930E94F93E8DB79EB708960FB667
:10203000F8949EBF0FBE8DBF83CF80911D0B8F93F1
:1020400080911C0B8F938FE896E09F938F931F9244
:1020500084E18F93DF936F930E94F93E8DB79EB713
:1020600008960FB6F8949EBF0FBE8DBF69CF8091C2
:102070001E0B1F928F938FE896E09F938F931F9272
:1020800084E18F93DF936F930E94F93E8DB79EB7E3
:1020900008960FB6F8949EBF0FBE8DBF51CF8091AA
:1020A0001F0B1F928F938FE896E09F938F931F9241
:1020B00084E18F93DF936F930E94F93E8DB79EB7B3
:1020C00008960FB6F8949EBF0FBE8DBF39CF81E042
:1020D0000E94920C9F938F937F936F9385EC93E074
:1020E0009F938F931F9284E18F93DF93CF930E94EE
:1020F000F93E8DB79EB70A960FB6F8949EBF0FBEF5
:102100008DBF1ECF80910B0B8F9380910A0B8F9305
:102110008FE896E09F938F931F9284E18F93DF93D4
:102120006F930E94F93E8DB79EB708960FB6F8944C
:102130009EBF0FBE8DBF04CF80910C0B1F928F935B
:102140008FE896E09F938F931F9284E18F93DF93A4
:102150006F930E94F93E8DB79EB708960FB6F8941C
:102160009EBF0FBE8DBFECCE60910D0B70910E0B1C
:102170000ACF8091100B8F9380910F0B8F938FE874
:1021800096E09F938F931F9284E18F93DF936F93D9
:102190000E94F93E8DB79EB708960FB6F8949EBF81
:1021A0000FBE8DBFCDCE8091120B8F938091110BFE
:1021B0008F938FE896E09F938F931F9284E18F9384
:1021C000DF936F930E94F93E8DB79EB708960FB6C6
:1021D000F8949EBF0FBE8DBFB3CE8091130B1F929C
:1021E0008F938FE896E09F938F931F9284E18F9354
:1021F000DF936F930E94F93E8DB79EB708960FB696
:10220000F8949EBF0FBE8DBF9BCE8091140B1F9282
:102210008F938FE896E09F938F931F9284E18F9323
:10222000DF936F930E94F93E8DB79EB708960FB665
:10223000F8949EBF0FBE8DBF83CE80E00E94920CAB
:102240009F938F937F936F9385EC93E09F938F93EE
:102250001F9284E18F93DF93CF930E94F93E8DB755
:102260009EB70A960FB6F8949EBF0FBE8DBF68CE7C
:102270008091210B8F938091200B8F938FE896E0B4
:102280009F938F931F9284E18F93DF936F930E94AC
:10229000F93E8DB79EB708960FB6F8949EBF0FBE55
:1022A0008DBF4ECE80912B021F928F938FE896E0C8
:1022B0009F938F931F9284E18F93DF936F930E947C
:1022C000F93E8DB79EB708960FB6F8949EBF0FBE25
:1022D0008DBF36CE90E080E035CECF93C82F0E94E0
:1022E0008D0828E0C29FF0011124EB50FD4F2281A0
:1022F000338121303105F9F464E670E00E94793DC4
:102300009F938F937F936F938AE695E09F938F932C
:102310001F9289E08F938AE29BE09F938F930E94A4
:10232000F93E8DB79EB70A960FB6F8949EBF0FBEC2
:102330008DBFCF91089523303105C1F49F938F93C2
:102340008FE896E09F938F931F9289E08F938AE2A4
:102350009BE09F938F930E94F93E8DB79EB708969E
:102360000FB6F8949EBF0FBE8DBFE3CF9F938F93A0
:102370008FE896E09F938F931F9289E08F938AE274
:102380009BE09F938F930E94F93E8DB79EB708966E
:102390000FB6F8949EBF0FBE8DBFCBCFBF92CF922A
:1023A000DF92EF92FF920F931F93CF93DF93CDB7FE
:1023B000DEB72C970FB6F894DEBF0FBECDBFD82E78
:1023C000C62EB72E8091340B9E012F5F3F4F7901AF
:1023D00038E0D39E800111248130E9F58091330BE0
:1023E000D81239C04BE050E06AE27BE0C7010E949E
:1023F000EA3E1C868091330BD81609F46DC080E24A
:10240000FF92EF92F801EB50FD4F91819F939081E5
:102410009F931F928F9381ED93E09F938F931F92D1
:1024200085E18F93BF92CF920E94F93E0FB6F89448
:10243000DEBF0FBECDBF2C960FB6F894DEBF0FBE29
:10244000CDBFDF91CF911F910F91FF90EF90DF9063
:10245000CF90BF9008958D2D0E948D08F801EB500C
:10246000FD4F2281338121303105C9F464E670E0EB
:102470000E94793D9F938F937F936F938AE695E0B7
:102480009F938F931F928CE08F93FF92EF920E9405
:10249000F93E0FB6F894DEBF0FBECDBFABCF2330F1
:1024A0003105A9F4892B81F48DEC93E09F938F93F0
:1024B00081E895E09F938F931F928CE08F93FF921A
:1024C000EF920E94F93EE5CF8AEC93E0EFCF9F9325
:1024D0008F938FE896E0EECF8EE392CFCF93DF938A
:1024E000EC0160E08E810E94A90261E08E810E9471
:1024F000A90260E08E810E94A9028BE891E0019719
:10250000F1F7DF91CF910895CF92DF92EF92FF9292
:102510000F931F93CF93DF936C017C0187E0E80E4C
:10252000F11CD0E0C0E0062F10E0B8010C2E02C074
:10253000759567950A94E2F76170F70181917F01C3
:102540000E94A9022196C430D10579F7C601DF9116
:10255000CF911F910F91FF90EF90DF90CF900C944F
:102560006E12CF92DF92EF92FF920F931F93CF9351
:10257000DF93EC01F62E642F8C810E94A9028D81DD
:102580008F3F19F060E00E94A9020F2D10E08F85A7
:1025900084FF25C06E0187E0C80ED11CF12CE12C10
:1025A000B8010E2C02C0759567950A94E2F7617028
:1025B000F60181916F010E94A902FFEFEF1AFF0A55
:1025C00088E0E816F10461F7CE01DF91CF911F9109
:1025D0000F91FF90EF90DF90CF900C946E12B801A6
:1025E00084E0759567958A95E1F7CE010E94841283
:1025F0006F2DCE01DF91CF911F910F91FF90EF9042
:10260000DF90CF900C94841240E0682F85E99CE025
:102610000C94B112CF93DF93613029F09091A40C08
:1026200098609093A40C6093A80C1092A90C90E46D
:102630009093AA0C8093AB0C805C8093AC0C61E00F
:102640008091990C0E94350380919A0C8F3F19F06C
:1026500061E00E94350361E080919B0C0E9435038C
:10266000C5E9DCE09E0125593C408091A40C84FD25
:102670000BC084E090E021962817390744F461E00C
:102680008E810E943503EECF88E090E0F4CF8BE39B
:102690009DE00197F1F760E08091990C0E94A902FA
:1026A00060E080919B0C0E94A90280919A0C8F3F60
:1026B00019F060E00E94A9028091A40C84FD39C049
:1026C00063E085E99CE00E948412CBE4D6E4CE016D
:1026D0000197F1F763E085E99CE00E94841221975D
:1026E000F1F763E085E99CE00E94841283E592E0C3
:1026F0000197F1F762E085E99CE00E9484128091E5
:10270000A40C80620E94041384E08093A50C8CE0EA
:102710000E94041381E00E9404138BE39FE1019760
:10272000F1F782E08093A60C86E0DF91CF910C94C4
:10273000041380620E9404138BE496E40197F1F77E
:102740008091A40C80620E94041383E592E00197BB
:10275000F1F78091A40C80620E940413D0CF41E075
:102760000E94B11281E090E008956EE270E08AE28A
:102770009BE00E94D83E009741F09C012A523B40CA
:1027800081E090917408291708F080E00895E091A5
:102790007408F0E0E65DF44F808180538A3020F5C4
:1027A000E091330B88E0E89FF0011124EB50FD4FDE
:1027B000828193810197D1F40E94B513282F80E084
:1027C000211126C0E82FF0E0E65DF44F90819923B7
:1027D00041F09E3231F090539A3008F42F5F8F5FB2
:1027E000F1CF81E02230A0F480E0089520E090E075
:1027F000E22FF0E0E65DF44F8081882331F08053D2
:102800008A3008F49F5F2F5FF3CF81E0923060F34E
:102810000895CF93DF930097A1F0FC01208122233C
:1028200081F0EB010E94D43A61157105F1E08F0748
:10283000910538F47983688381E090E0DF91CF914E
:10284000089590E080E0FACF8F929F92AF92BF926E
:10285000EF92FF920F931F93CF93DF93009709F4AA
:1028600067C0FC012081222309F462C08B01EC01C6
:102870006EE270E00E94D83E7C01892B71F4B801B1
:10288000CE01DF91CF911F910F91FF90EF90BF90FC
:10289000AF909F908F900C940914CE010E94D43A6F
:1028A0004B015C01C70101960E94D43AF8EE8F16E5
:1028B000F3E09F06A104B104D8F597FD2BC06A3060
:1028C00071058105910554F5F701218120532A30C6
:1028D00048F42281211106C0AAE0B0E09B01AC01BE
:1028E0000E94E53D44E6489D9001499D300D11242C
:1028F000620F731FF8017183608381E090E0DF91C4
:10290000CF911F910F91FF90EF90BF90AF909F904C
:102910008F90089560E070E0CB01D6CF64367105EA
:1029200081059105FCF263E670E080E090E0DACF8B
:1029300090E080E0E4CFFB0101900020E9F73197BF
:10294000AF01461B570BDC01ED91FC910280F38136
:10295000E02D19948F929F92AF92BF920F931F9385
:10296000CF93DF93CDB7DEB7A1970FB6F894DEBF54
:102970000FBECDBF19A2423008F44AE08E010F5DB0
:102980001F4F842E912CB12CA12CA50194010E94E3
:102990008D3DE62FB901CA01EA3004F5E05DD801AA
:1029A000EE938D01232B242B252B79F790E080E0EB
:1029B000109729F0BD0185E39BE00E949B14A1962E
:1029C0000FB6F894DEBF0FBECDBFDF91CF911F9140
:1029D0000F91BF90AF909F908F900895E95CDFCFEB
:1029E000CF92DF92EF92FF92CF93DF9397FF19C0C0
:1029F0006B017C018DE20E94B006EC01662777270F
:102A0000CB016C197D098E099F094AE00E94AA1426
:102A10008C0F9D1FDF91CF91FF90EF90DF90CF90B3
:102A200008954AE0DF91CF91FF90EF90DF90CF9033
:102A30000C94AA14CF93DF93D0E0C0E0009731F05C
:102A4000BC0185E39BE00E949B14EC016BED73E0FD
:102A500085E39BE00E949B148C0F9D1FDF91CF911B
:102A600008951F93CF93DF93CDB7DEB764970FB66A
:102A7000F894DEBF0FBECDBF182FBE016F5F7F4F32
:102A80000E94590F892B89F084E20E94B006612FC1
:102A900070E090E080E04AE00E94AA148DE30E947A
:102AA000B006CE0101960E941A1564960FB6F894EE
:102AB000DEBF0FBECDBFDF91CF911F910895CF93A1
:102AC000DF93CDE4D2E089910E94311582E0C336D4
:102AD000D807C9F7DF91CF910895CF93DF93EC0129
:102AE00083E492E00E94B506CE01DF91CF910C9471
:102AF0001A15CF93DF930E94B506EC016BED73E0DE
:102B000085E39BE00E949B148C0F9D1FDF91CF916A
:102B1000089580E492E00C9479154F925F926F9241
:102B20007F928F929F92AF92BF92CF92DF92EF925D
:102B3000FF920F931F93CF936B017C01742EAC0116
:102B40009B010E94643D6EED73E0811126C0460139
:102B50005701E894B7F82FEF3FEF4FE75FE7C50164
:102B6000B4010E94643D81110CC02FEF3FEF4FE78D
:102B70005FE7C501B4010E94933B62EE73E0181653
:102B800064F02FEF3FEF4FE75FE4C701B6010E940B
:102B9000F23C1816ACF466EE73E085E39BE0CF914F
:102BA0001F910F91FF90EF90DF90CF90BF90AF906B
:102BB0009F908F907F906F905F904F900C949B149C
:102BC0002FEF3FEF4FE75FECC701B6010E94933B49
:102BD00087FDE1CF20E030E0A901C701B6010E94E6
:102BE000933B10E000E087FF08C08DE20E94B00632
:102BF0008C01F7FAF094F7F8F094C0E060E070E030
:102C000080E09FE37C1641F020E030E040E251E4B8
:102C10000E94983BCF5FF6CFA70196010E94273B09
:102C20002B013C010E94113C4B015C014AE00E94D7
:102C3000AA147C01E00EF11ECC23B1F1C501B40150
:102C40000E94403C9B01AC01C301B2010E94263BA3
:102C50004B015C018EE20E94B006E80EF91EC150E5
:102C600018F120E030E040E251E4C501B4010E94D7
:102C7000F73C2B013C010E94113C4B01B12CA12CD3
:102C80004AE0C501B4010E94AA14E80EF91EC5016C
:102C9000B4010E94403C9B01AC01C301B2010E94FF
:102CA000263B4B015C01DBCFC701CF911F910F91F8
:102CB000FF90EF90DF90CF90BF90AF909F908F905C
:102CC0007F906F905F904F9008958F929F92AF92F8
:102CD000BF92CF92DF92EF92FF928BE592E00E943B
:102CE000B50680E00E94DD0A4B015C0180E00E9495
:102CF000920C6B017C01C501B4010E94423CA7010A
:102D000096010E94983B43E00E948D158CE20E9440
:102D1000B00681E00E94DD0A4B015C0181E00E9467
:102D2000920C6B017C01C501B4010E94423CA701D9
:102D300096010E94983B43E00E948D1585E592E044
:102D40000E94B5066091760870917708072E000CF6
:102D5000880B990B0E94F01481E592E00E94B50661
:102D60006091D50A70E090E080E04AE00E94AA14E9
:102D70008BE492E00E94B5066091900A7091910AEE
:102D80008091920A9091930A4AE00E94AA148EE3DD
:102D90000E94B0066BED73E085E39BE0FF90EF903F
:102DA000DF90CF90BF90AF909F908F900C949B142A
:102DB0006115710511F00C949B1490E080E008956A
:102DC000EF92FF920F931F93CF93DF9320912C02EA
:102DD0002223A1F1EA018B017C0161EF73E085E31D
:102DE0009BE00E94D8166AEE73E085E39BE00E94A8
:102DF000D8166FEE73E085E39BE00E94D816B7010A
:102E000085E39BE00E94D8166FEE73E085E39BE0BC
:102E10000E94D816B80185E39BE00E94D8166DEA9F
:102E200076E085E39BE00E94D816CE01DF91CF913A
:102E30001F910F91FF90EF900C941A15DF91CF9195
:102E40001F910F91FF90EF9008950F931F93CF93D1
:102E5000DF93EC018B01FB0184819581807591707A
:102E6000409739F4AE0163EF73E087EF93E00E947F
:102E7000E016F801848182FF0BC0AE016AEF73E0B7
:102E800087EF93E0DF91CF911F910F910C94E016A3
:102E9000DF91CF911F910F9108950F931F93CF93BF
:102EA000DF938C01EA01FC0184819581807591702A
:102EB000409749F481E0FB01808363EF73E087EF83
:102EC00093E00E94E016F801848182FF0BC0AE01FE
:102ED0006AEF73E087EF93E0DF91CF911F910F913D
:102EE0000C94E016DF91CF911F910F910895AF924E
:102EF000BF92CF92DF92EF92FF920F931F93CF93E7
:102F0000DF93E0912C02EE2309F44AC068017901B5
:102F1000EA018B015C0161EF73E085E39BE00E94B5
:102F2000D8166AEE73E085E39BE00E94D8166FEE38
:102F300073E085E39BE00E94D816B50185E39BE032
:102F40000E94D8166FEE73E085E39BE00E94D816CE
:102F5000B80185E39BE00E94D8166DEA76E085E330
:102F60009BE00E94D816BE0185E39BE00E94D81624
:102F700080E20E94B0064AE0C701B6010E94AA148E
:102F80006BED73E085E39BE0DF91CF911F910F9193
:102F9000FF90EF90DF90CF90BF90AF900C949B1478
:102FA000DF91CF911F910F91FF90EF90DF90CF9025
:102FB000BF90AF9008954F925F926F927F928F92E1
:102FC0009F92AF92BF92CF92DF92EF92FF920F93B8
:102FD0001F93CF93DF939091380A911168C084308A
:102FE00008F065C0282F30E0F901EF51F84F9081CB
:102FF000992309F45CC08D7F11E009F010E0220FE5
:10300000331F220F331FF901EF52F84F40805180D8
:1030100062807380812F0E940C0B641575058605F4
:10302000970509F444C01093300A40922C0A50923C
:103030002D0A60922E0A70922F0A81E08093860AF0
:103040001092370A8093360AC4E5DAE0111102C003
:10305000C8E6DAE04C865D866E867F8681E0898BE5
:1030600061E0812F0E94ED0D9B01AC0160E070E0FA
:1030700080E090E00FE10E94AF3EEFE5AE2EF6E774
:10308000BF2EC12CD12CE12CF12C00E010E00E94CD
:10309000523E2C833D834E835F83930182014FEF29
:1030A00053E063E074E089E094E00E947717DF91D9
:1030B000CF911F910F91FF90EF90DF90CF90BF9035
:1030C000AF909F908F907F906F905F904F900895FA
:1030D0004F925F926F927F928F929F92AF92BF9228
:1030E000CF92DF92EF92FF920F931F93CF93DF93D4
:1030F0006C01F42EFB018481958182FFB4C1A6018D
:103100006AEF73E087EF93E00E94E016F11088C247
:103110008091060190912A0D929591708170CFEF68
:1031200098130EC08091060190911B0D929591709D
:1031300086958170C1E0981303C0D0E0C0E001C063
:10314000D1E08091060190910C0D9295917082FBD7
:10315000882780F998136BC2809106019091FD0C2D
:103160009295917083FB882780F9981364C2DD23C0
:1031700061F1CC2359F1C13009F06FC0EE24E39422
:10318000D13011F4B2E0EB2E0E2D10E0C8018F51BA
:10319000984F5C01FC0180818823B9F08D2F0E943B
:1031A0000C0B000F111F000F111FF801EF52F84F09
:1031B0004080518062807380C13009F055C0641531
:1031C0007505860597050CF457C0D1E08D2F0E9438
:1031D0000C0B2091860A222351F02091300AD21341
:1031E00006C01092860A1092370A1092360AD13021
:1031F00009F4BBC02091E2072223A1F00091D5077A
:103200001091D6072091D7073091D807061B170BCE
:10321000280B390B0093D5071093D6072093D707B7
:103220003093D8072091E4072223A1F00091DD0715
:103230001091DE072091DF073091E007061B170B86
:10324000280B390B0093DD071093DE072093DF076F
:103250003093E007E8E6FAE0BAC013E0E12ED1309F
:1032600009F092CFE12C90CFCF3F31F446165706AC
:10327000680679060CF0A9CFA6016DE074E087EF2F
:1032800093E00E94E0168091380A81115DC0F5013B
:103290008081882309F458C0FF24F394E0FCF12CCA
:1032A000F801EF52F84F40805180628073808F2D7B
:1032B0000E940C0B641575058605970509F444C03A
:1032C000F092300A40922C0A50922D0A60922E0AF7
:1032D00070922F0A81E08093860A8093370A1092B9
:1032E000360AC4E5DAE0F11002C0C8E6DAE04C863E
:1032F0005D866E867F8681E0898B60E08F2D0E94DF
:10330000ED0D9B01AC0160E070E080E090E00FE12A
:103310000E94AF3EEFE5AE2EF6E7BF2EC12CD12CBA
:10332000E12CF12C00E010E00E94523E2C833D8302
:103330004E835F83930182014FEF53E06DE074E0B1
:1033400089E094E00E947717DF91CF911F910F9150
:10335000FF90EF90DF90CF90BF90AF909F908F90B5
:103360007F906F905F904F9008952091E107222306
:10337000A1F00091D1071091D2072091D30730918D
:10338000D407061B170B280B390B0093D10710939A
:10339000D2072093D3073093D4072091E307222349
:1033A000A1F00091D9071091DA072091DB07309145
:1033B000DC07061B170B280B390B0093D90710935A
:1033C000DA072093DB073093DC07E4E5FAE01086A8
:1033D0001186128613861486158616861786ED2F9B
:1033E000F0E0EE0FFF1FEE0FFF1FE458F54F1082C5
:1033F0001182128213820E94B108EF2DF0E0EE0FCD
:10340000FF1FE557FD4F4081518163E174E087EF75
:1034100093E00E94E01680912B02882309F494CF58
:103420000E9471036DE270E080E090E00E944A0526
:1034300080E10E94880560E570E080E090E00E94F5
:103440004A05DF91CF911F910F91FF90EF90DF9090
:10345000CF90BF90AF909F908F907F906F905F9034
:103460004F900C94710380759170409709F06CCF68
:103470000E948E0BA6018823C9F063E074E087EFF9
:1034800093E00E94E0168F2DDF91CF911F910F9155
:10349000FF90EF90DF90CF90BF90AF909F908F9074
:1034A0007F906F905F904F900C94DB1763EF73E009
:1034B00087EF93E00E94E016CF2DD0E08E010F51F0
:1034C000184FF8018081882331F11082CD56DD4FED
:1034D00061E088810E94A90248E154E065E074E05F
:1034E00087EF93E00E94E01680912B02882309F475
:1034F0002BCFDF91CF911F910F91FF90EF90DF9035
:10350000CF90BF90AF909F908F907F906F905F9083
:103510004F900C94CE078F2D8D7FE1F481E00E94B7
:10352000DD0A4B015C01FF2079F1F2E0FF1217C0C8
:103530008091E1078823D1F18091D1079091D20742
:10354000A091D307B091D40788159905AA05BB05AA
:103550006CF1FACE80E00E94DD0A4B015C0181E053
:10356000F81249C08091E407882301F18091DD07BA
:103570009091DE07A091DF07B091E00788159905CB
:10358000AA05BB059CF0E0CE8091E307882371F08B
:103590008091D9079091DA07A091DB07B091DC0701
:1035A00088169906AA06BB060CF0CECE81E0F8017B
:1035B0008083FE01EE0FFF1FEE0FFF1FEF52F84F4B
:1035C00080829182A282B382FE01ED56FD4F60E0BF
:1035D00080810E94A902FE01EE0FFF1FE557FD4FFB
:1035E000408151819501840165E074E087EF93E0AB
:1035F0000E94771779CF93E0F912D8CF8091E20734
:103600008823A1F28091D5079091D607A091D70782
:10361000B091D80788169906AA06BB063CF294CE4C
:10362000D1E0F2E0FF1609F4D1CDD0E0CFCDC1E07A
:10363000D111CCCDA0CDCFEFFBCF0F931F93CF9364
:103640008091A50C8D7F8093A50C88600E94041347
:1036500005EE17E0C0E0E091A80CCE1790F1E15024
:10366000F0E0EB56F34F848980680E940413B801A0
:1036700085E99CE00E94D816CF5F0B5E1F4FC430D7
:1036800051F7E0912502E430F0F4809139089091EF
:10369000A80CE91710F0EFEFE90FF0E0EB56F34F4D
:1036A0009489890F80680E9404138091A50C982F3B
:1036B00092609093A50C8A60CF911F910F910C940A
:1036C0000413EC2FCDCFCF911F910F9108958AE273
:1036D0009BE0FC0101900020E9F7CF018B529B4059
:1036E0008830F0F441E0480F2091740830E02F5FFB
:1036F0003F4FE42FF0E02E173F0740F4E65DF44F14
:10370000DF0111975C9150834150F3CF265D344F18
:1037100040E3F90140839927FC01E65DF44F1182F3
:103720000895CF92DF92EF92FF920F931F93CF9362
:10373000DF9300D000D01F921F92CDB7DEB7D82EF6
:103740001091330B48E0149FF0011124EB50FD4F12
:103750008281938182309105C1F5812F0E948D086D
:10376000813009F417C1823009F421C1843009F491
:1037700020C1883009F41FC1803109F41EC1803294
:1037800009F4FFC05FEFE6E0D51609F40EC1F0E0E2
:10379000E952FD4F608170E0812F0E946D08812FFA
:1037A0000E946D110E94D00728960FB6F894DEBFD4
:1037B0000FBECDBFDF91CF911F910F91FF90EF9082
:1037C000DF90CF900895EF5FE2CF8330910551F401
:1037D000812F0E948D0861E070E0892BE9F270E092
:1037E00060E0DACFC09074082C2D30E0F901E65D7E
:1037F000F44F7F01108120ED210F2A30A8F60197A8
:1038000009F094C00E94B513082FF1E0882381F0DD
:10381000DF1208C0193311F01F5F01C010E3F70178
:103820001083C2CF103311F01150F9CF19E3F7CF45
:10383000DF1237C0193389F580E3F70180830E94D6
:10384000671B6EE270E08AE29BE00E94D83E009720
:1038500009F48DC0FC01318120ED230F2A3008F0DE
:1038600030E3FC01228140ED420F4A3008F020E3B2
:10387000EAE2FBE0E817F90758F5073070F54191E7
:1038800050ED540F5A30B0F7A1E0B0E0AC0FBD1FBF
:10389000A00FB11D4C930F5FEDCF1F5FF701108399
:1038A000D0CF103399F40E94C713882309F47CCF3A
:1038B000EC2DF0E0E65DF44F8081882321F08181DA
:1038C0008083C394F5CF0E94E307BBCF1150E6CFAE
:1038D000011103C080E3898301E0CE010196FC0160
:1038E000E00FF11D1082422F022E000C550B5F934A
:1038F0002F93432F032E000C550B5F933F939F9301
:103900008F938CE194E09F938F931F9289E08F9324
:103910008AE29BE09F938F930E94F93E0E94E30707
:103920000FB6F894DEBF0FBECDBF3ECF51E0D5122B
:1039300008C0193309F070CF80E380830E94671BB1
:1039400033CF103309F070CF0E94C713882309F4D6
:103950002BCFEC2DF0E0E65DF44F8081882321F041
:1039600081818083C394F5CF0E94E3071DCF8AE253
:103970009BE0FC0101900020E9F7CF01019730E3C3
:1039800076CFF1E0DF1621F05FEFE5E0D51669F0C4
:10399000E5E0FDCEE0E041E0D41609F414CF8FEF6E
:1039A000D812F5CEEE2309F4F2CEE150F0CEE1E0EC
:1039B000F2CFE2E0F0CFE3E0EECFE4E0ECCF0F9324
:1039C0001F93CF93DF93EB0109900020E9F7219734
:1039D000C61BC53108F0C4E1D0E095E1899F8001A4
:1039E00011240B51184FAE01C8010E94C83E44E19A
:1039F00050E04C1B5D0B60E270E0C8018C0F9D1F16
:103A00000E94D13EF801148ADF91CF911F910F914E
:103A10000895FF920F931F93CF93DF93CDB7DEB737
:103A200065970FB6F894DEBF0FBECDBF1091330B74
:103A3000123008F44EC01150123108F011E1BE01ED
:103A40006F5F7F4F812F0E94CE11BE016F5F7F4F4E
:103A500080E00E94DF1CFF24F394F10EBE016F5F33
:103A60007F4F8F2D0E94CE11BE016F5F7F4F81E08F
:103A70000E94DF1C02E0010FBE016F5F7F4F802FAD
:103A80000E94CE11BE016F5F7F4F82E00E94DF1C5B
:103A90009091340B913051F58091330B8117D9F00F
:103AA000F816D1F092E00817B9F08FEF8093250255
:103AB00064E274E083E00E94DF1C65960FB6F89420
:103AC000DEBF0FBECDBFDF91CF911F910F91FF9051
:103AD000089510E0B4CF90E080917408895F84313C
:103AE00020F79093250280933908E2CF68E374E0D1
:103AF00083E00E94DF1C8FEF80932502DECF8830A9
:103B000020F5E82FF0E08827E757F24E8F4F0C940E
:103B1000CE3D911DB01DC51DDA1DE71DEB1DEE1D2F
:103B2000001E6BE474E080E00E94DF1C66E574E038
:103B300081E00E94DF1C6AE574E082E00E94DF1CE5
:103B400064E674E083E00E94DF1C80917608909127
:103B50007708892B09F074C081E090E00C94720C16
:103B600081E080938B0A6CE474E080E00E94DF1CAB
:103B70006AE674E081E00E94DF1C68E774E082E09E
:103B80000E94DF1C6FE774E0DDCF81E080938A0A3A
:103B900065E874E080E00E94DF1C61E974E081E088
:103BA0000E94DF1C68E774E082E00E94DF1C6EE97F
:103BB00074E0C8CF6BEA74E080E00E94DF1C63EB26
:103BC00074E081E00E94DF1C6DEB74E0D8CF68ECFC
:103BD00074E080E0B8CF6DEC74E0FBCF64ED74E08E
:103BE00080E00E94DF1C6CED74E081E00E94DF1C2D
:103BF00066EE74E082E00E94DF1C61EF74E0A2CF09
:103C000081E08093890A1092880A1092870A6CEFEB
:103C100074E080E00E94DF1C67E075E081E00E94B4
:103C2000DF1C66E175E082E00E94DF1C6FE774E054
:103C300083E00E94DF1C81E090E00E94720C85CF3F
:103C400008951F93CF93DF93EC01162F0E94103B32
:103C5000181739F0612FCE01DF91CF911F910C948D
:103C6000183BDF91CF911F910895CF93C0912B0204
:103C700080910002C80FCB5565EA90E080E00E9479
:103C8000211E6091000281E090E00E94211E60915F
:103C90002B0282E090E00E94211E6C2F83E090E0D6
:103CA000CF910C94211EEF92FF921F93CF93DF933D
:103CB0008AE0E82E8BE0F82EF70115EC8191180FC1
:103CC0008BE0E232F807D1F765EC80E290E00E94E9
:103CD000211EC1E2D0E0F70161917F01CE010E9477
:103CE000211E2196C933D105B1F7612F87E390E0FA
:103CF000DF91CF911F91FF90EF900C94211E8AE0ED
:103D00009BE00E94690D811102C00E94380D0E9443
:103D1000531E40E255E066E275E08BE295E00C94BC
:103D2000E016EF92FF921F93CF93DF9382E2E82E8B
:103D30008BE0F82EF70117EB8191180F8BE0EA3238
:103D4000F807D1F767EB80E190E00E94211EC1E106
:103D5000D0E0F70161917F01CE010E94211E2196E2
:103D6000C931D105B1F7612F89E190E0DF91CF91A1
:103D70001F91FF90EF900C94211E82E29BE00E9425
:103D8000D40E811102C00E94BC0E0E94911E40E21E
:103D900055E06FE275E08BE295E00C94E0160C9430
:103DA000103B0F931F93CF930E94351E90E080E04D
:103DB0000E94CF1E082F81E090E00E94CF1EC82FE6
:103DC00082E090E00E94CF1E182F83E090E00E94D6
:103DD000CF1E053A41F596EF9C0F9B3520F512302A
:103DE00010F5C10FCB558C131EC00091000210E0DE
:103DF00030E020E044E355E069E375E08BE295E0D4
:103E00000E94771700912B0210E030E020E04EE393
:103E100055E069E375E08BE295E00E947717CF915A
:103E20001F910F91089543E455E069E375E08BE23B
:103E300095E0CF911F910F910C94E016AF92BF9235
:103E4000CF92DF92EF92FF920F931F93CF93DF9366
:103E5000CDB7DEB7E4970FB6F894DEBF0FBECDBF87
:103E60000091410AD090420A1091430A8091D50AEC
:103E7000883008F080E0E82FF0E0E351FD4F9081BA
:103E80009E012F5F3F4F59019F3F09F0E3C06DE551
:103E900075E0C9010E94E33E31E0D31609F42DC15B
:103EA00082E0D81609F42EC177E5C72E75E0D72E2B
:103EB0008FEF800F3BE5E32E35E0F32E883050F492
:103EC000202F2150330BF901EE0FFF1FE352FD4F5E
:103ED000E080F18044E150E060E270E088EB97E040
:103EE0000E94D13EF50101900020E9F7AF01415059
:103EF00051094A195B094531510510F044E150E080
:103F000084E190E0841B950B96958795082FB50169
:103F10008854984F0E94C83EF70101900020E9F7AD
:103F20003197EE19FF09011101C001E0402F50E067
:103F3000E417F50708F4AF01B70188EB97E00E949A
:103F4000C83E83E0F601A9ECB7E001900D928A9596
:103F5000E1F71092CC0768EB77E080E00E94DF1C6D
:103F6000112309F4D4C08AE5123008F0D2C024E04D
:103F7000129FF0011124E458F54F90812181328184
:103F800043814F933F932F939F931F928F9382E789
:103F900095E09F938F931F9280E18F938E010F5E28
:103FA0001F4F1F930F930E94F93EB80181E00E94BA
:103FB000DF1C44E150E060E270E08FE098E00E9496
:103FC000D13E1092230880E00E94DD0A9B01AC01E3
:103FD000065E1F4F68E5C8010E94EA0E81E00E945C
:103FE000DD0A9B01AC017E0181E2E80EF11C6AE56D
:103FF000C7010E94EA0EFF92EF921F930F938EE784
:1040000095E09F938F931F9285E18F9388EB97E0C4
:104010009F938F930E94F93E68EB77E083E00E94C4
:10402000DF1C8FEF809325020FB6F894DEBF0FBE22
:10403000CDBFE4960FB6F894DEBF0FBECDBFDF91C3
:10404000CF911F910F91FF90EF90DF90CF90BF9095
:10405000AF900895E2E0EE2EF12C823039F021E0AD
:1040600090E0813009F020E0E22EF92E0E94D90D77
:10407000E114F104D9F420E030E040E05FE30E9475
:10408000273B0E94113C7F936F9383E695E09F93BB
:104090008F931F9280E18F93BF92AF920E94F93E5F
:1040A0000FB6F894DEBF0FBECDBFF6CEEA94EF2870
:1040B00009F0F2CE20E030E048EC52E40E94F73CF8
:1040C00020E030E040E05FE30E94273B0E94113C8B
:1040D000CB0164E670E00E94793D9F938F937F93BC
:1040E0006F9388E695E09F938F931F9280E18F9363
:1040F000BF92AF920E94F93ED3CF6FE4C62E65E027
:10410000D62ED6CE53E5C52E55E0D52ED1CE88E598
:104110002ECF90E020E030E040E033CF8F929F92AE
:10412000AF92BF92CF92DF92EF92FF920F931F93C5
:10413000CF93DF93CDB7DEB768970FB6F894DEBFA5
:104140000FBECDBF80E30E94220C8CE20E94220CA5
:1041500081E30E94220C8BE20E94220C80E10E94EB
:10416000220C8AE20E94180C8DE10E94180C89E151
:104170000E94180C8BE10E94180C87E10E94180C19
:1041800086E30E942C0C87E30E942C0C88E30E949B
:104190002C0C89E30E942C0C8AE30E942C0C8EE3E9
:1041A0000E942C0C8FE30E942C0C80E40E942C0CAB
:1041B00081E40E942C0C82E40E942C0C83E40E9477
:1041C0002C0C84E40E942C0C85E40E942C0C8EE1C3
:1041D0000E942C0C8FE10E942C0C80E20E942C0C7F
:1041E00081E20E942C0C82E20E942C0C83E20E944D
:1041F0002C0C84E20E942C0C85E20E942C0C82E1A3
:104200000E942C0C83E10E942C0C82E00E942C0C5A
:1042100083E00E942C0C8FE00E942C0C8EE00E9408
:104220002C0C84E10E942C0C85E10E942C0C86E170
:104230000E942C0C88E10E942C0C8AE10E942C0C1C
:104240008CE10E942C0CE091450BF091460B82E032
:104250008083E091410BF091420B1082E091430B7F
:10426000F091440B80E1808310924D0BE091490B5B
:10427000F0914A0B86E08083E091470BF091480B68
:10428000808180618083E091470BF091480B8081B1
:1042900088608083E091470BF091480B80818068B3
:1042A0008083E091470BF091480B80818F7D808364
:1042B00081E080932C021092D40A64E875E085E3D3
:1042C0009BE00E94D81680E20E94B00663E975E088
:1042D00085E39BE00E94D81680E392E00E94791566
:1042E00080912C02882321F08DED93E00E941A1515
:1042F00080912C02882321F08EE995E00E941A1506
:1043000090E080E00E94CF1E182F81E090E00E9494
:10431000CF1EF82E82E090E00E94CF1EE82E83E0B0
:1043200090E00E94CF1ED82E153A51F586EF8F0DE2
:104330008B3530F521E02E1518F18F2D8E0D8B5514
:10434000D8121EC0F0920002E0922B020F2D10E056
:1043500030E020E044E355E064EC75E08BE295E06A
:104360000E94771700912B0210E030E020E04EE32E
:1043700055E064EC75E08BE295E00E94771713C07E
:1043800084E68093000281E080932B02153A09F4C1
:104390000CC30E94351E49EC55E064EC75E08BE2DD
:1043A00095E00E94E01680E190E00E94CF1EF82E7A
:1043B00089E190E00E94CF1EA82E87EBF81220C35F
:1043C0008E010F5F1F4F4801A1E1CA2ED12CB02EE4
:1043D000E12EC6010E94CF1ED4018D934D01BFEF87
:1043E000CB1ADB0AE9E1CE16D10499F7C801089689
:1043F000D8012D918D01F20E8A179B07C9F7AF10D6
:10440000FFC28B2D9E2D0E94D40E882309F4F8C282
:1044100089819A81AB81BC818093220B9093230B7D
:10442000A093240BB093250B8D819E81AF81B8851D
:104430008093260B9093270BA093280BB093290B06
:1044400042EE55E06FE275E08BE295E00E94E016E7
:1044500080E290E00E94CF1EF82E87E390E00E9459
:10446000CF1EA82EB5ECFB12D2C28E010F5F1F4FDC
:104470004801F1E2CF2ED12CB02EE12EC6010E94D0
:10448000CF1EF40181934F01FFEFCF1ADF0A29E31A
:10449000C216D10499F7C8014896D8012D918D0113
:1044A000F20E8A179B07C9F7AF10B1C28B2D9E2D54
:1044B0000E94690D882309F4AAC288E1EB2DFE2D24
:1044C000AAE0BBE001900D928A95E1F742EE55E03B
:1044D00066E275E08BE295E00E94E01684E1E8E692
:1044E000FAE0DF01282F1D922A95E9F7E4E5FAE0CA
:1044F000DF011D928A95E9F710927C0A10927D0ADD
:1045000010927E0A10927F0A1092800A1092810AFD
:104510001092820A1092830A1092850A1092840ADD
:104520001092310A1092320A1092330A1092340A11
:104530001092860A1092370A1092360AF894109256
:1045400080008AE08093810082E490E0909389006B
:104550008093880082E080936F00789464E084E127
:104560000E940A1381E00E9404138BE39FE10197EC
:10457000F1F78091A50C8D7F8093A50C88600E9437
:1045800004138FEF8093250205EE17E0E9E3EE2E8A
:10459000E8E0FE2E44E150E060E270E0C8010E94D5
:1045A000D13EF801148A0B5E1F4FE016F10691F719
:1045B00080918A0C90918B0C906190938B0C8093DE
:1045C0008A0C80917B0C90917C0C906190937C0C78
:1045D00080937B0C80916C0C90916D0C906190930A
:1045E0006D0C80936C0C80915D0C90915E0C9061D1
:1045F00090935E0C80935D0C80914E0C90914F0CCB
:10460000906190934F0C80934E0C80913F0C909151
:10461000400C90619093400C80933F0C8091300C43
:104620009091310C90619093310C8093300C80917B
:10463000210C9091220C90619093220C8093210C7C
:104640008091120C9091130C90619093130C8093B5
:10465000120C8091030C9091040C90619093040CC7
:104660008093030C8091F40B9091F50B90619093E3
:10467000F50B8093F40B8091E50B9091E60B906124
:104680009093E60B8093E50B8091D60B9091D70B1E
:1046900090619093D70B8093D60B0E94960B0E944B
:1046A0006207811101C081E0809304020E943407F7
:1046B0000E9425070E9462078111809304021091D5
:1046C00004021093410A0E944B078093420A2091F2
:1046D00003022093430A90915F089093440A109339
:1046E0006008809307022093060290930502809150
:1046F000740D9091750D90619093750D8093740D6C
:104700008091650D9091660D90619093660D8093F8
:10471000650D8091560D9091570D90619093570DB6
:104720008093560D8091470D9091480D9061909324
:10473000480D8093470D8091380D9091390D90610F
:104740009093390D8093380D8091290D90912A0D09
:10475000906190932A0D8093290D80911A0D90916C
:104760001B0D906190931B0D80931A0D80910B0D82
:1047700090910C0D906190930C0D80930B0D809196
:10478000FC0C9091FD0C90619093FD0C8093FC0CBF
:104790008091ED0C9091EE0C90619093EE0C8093D3
:1047A000ED0C8091DE0C9091DF0C90619093DF0C0A
:1047B0008093DE0C8091CF0C9091D00C90619093FF
:1047C000D00C8093CF0C8091C00C9091C10C906163
:1047D0009093C10C8093C00C8091B10C9091B20C5D
:1047E00090619093B20C8093B10CE5E4FAE08FE015
:1047F000DF011D928A95E9F7EEE6F8E086E0DF0139
:104800001D928A95E9F701EE17E051EDC52E57E0AC
:10481000D52E63E9E62E62E0F62E75EE872E77E060
:10482000972EF80111928F01D6011D921D921D92B3
:104830001D926D0161E0F70181917F010E94A90243
:104840008016910671F760E08DE30E9435030E94A7
:104850009302EAE3F8E08193919328E0EA35F207C6
:10486000D1F79C0144E0220F331F4A95E1F73093C2
:104870005C0820935B089093D70A8093D60A109225
:104880005D0880E090E0A0E8BFEB80932602909363
:104890002702A0932802B09329028AB1807F8AB9A7
:1048A0008BB18F608BB910923D0A10923E0A109224
:1048B0003F0A1092400A1092390A10923A0A109256
:1048C0003B0A10923C0A1092D80A1092340B1092B4
:1048D000750810926408109265081092660810928C
:1048E000670810926D081092690810926A08109279
:1048F0006B0810926C08109268081092330B0E949B
:1049000004088091410A9091420A8150883008F051
:1049100080E08093D50A909361080E947F1D1092D9
:104920009C0A10929D0A10929E0A10929F0A61E0C2
:1049300086E00E9435038AB1807F8AB98BB18F608F
:104940008BB98091690081608093690081E08CBBA4
:10495000E89A8091690080618093690084E08CBB53
:10496000EA9A8091D80A882309F458C00E94091D48
:104970000E941D1B42EF55E063E076E088E096E080
:104980000E94E01668960FB6F894DEBF0FBECDBF4A
:10499000DF91CF911F910F91FF90EF90DF90CF901B
:1049A000BF90AF909F908F90089505EA10E020E0AF
:1049B00030E046ED55E064EC75E08BE295E00E9456
:1049C00077170F2D10E030E020E044E355E064EC71
:1049D00075E08BE295E00E9477170E2D10E030E035
:1049E00020E04EE355E064EC75E08BE295E00E9438
:1049F00077170D2D10E030E020E04EED55E0B9CCFA
:104A00000E94BC0E0E94911E49EE55E01BCD0E94F3
:104A1000380D0E94531E49EE55E05ACD0E941E1FCC
:104A2000A7CF1F920F920FB60F9211242F933F938F
:104A30008F939F93AF93BF938091E20A9091E30A83
:104A4000A091E40AB091E50A3091E10A23E0230F36
:104A50002D3758F50196A11DB11D2093E10A8093D1
:104A6000E20A9093E30AA093E40AB093E50A8091E6
:104A7000E60A9091E70AA091E80AB091E90A019646
:104A8000A11DB11D8093E60A9093E70AA093E80A5E
:104A9000B093E90ABF91AF919F918F913F912F9170
:104AA0000F900FBE0F901F90189526E8230F0296C7
:104AB000A11DB11DD2CF1F920F920FB60F921124DC
:104AC0000BB60F922F933F934F935F936F937F9308
:104AD0008F939F93AF93BF93EF93FF938091FE0AC1
:104AE0009091FF0AA091000BB091010B892B8A2BAA
:104AF0008B2BE1F19091ED0AE091EE0AF091EF0A33
:104B00008081892780838091FE0A9091FF0AA0917D
:104B1000000BB091010B181619061A061B069CF41F
:104B20008091FE0A9091FF0AA091000BB091010BB9
:104B30000197A109B1098093FE0A9093FF0AA093FF
:104B4000000BB093010BFF91EF91BF91AF919F913B
:104B50008F917F916F915F914F913F912F910F9026
:104B60000BBE0F900FBE0F901F90189580912A02D8
:104B70000E948805E8CF1F920F920FB60F92112462
:104B80000BB60F922F933F934F935F936F937F9347
:104B90008F939F93AF93BF93EF93FF9385E39BE036
:104BA0000E944106FF91EF91BF91AF919F918F912C
:104BB0007F916F915F914F913F912F910F900BBE1D
:104BC0000F900FBE0F901F9018951F920F920FB667
:104BD0000F9211240BB60F922F938F939F93EF9305
:104BE000FF93E091450BF091460B8081E0914B0BD8
:104BF000F0914C0B82FD1DC0908180914E0B8F5F18
:104C00008F7320914F0B821741F0E0914E0BF0E033
:104C1000EB5CF44F958F80934E0BFF91EF919F913A
:104C20008F912F910F900BBE0F900FBE0F901F9082
:104C300018958081F2CF1F920F920FB60F92112418
:104C40000BB60F922F933F934F935F936F937F9386
:104C50008F939F93AF93BF93EF93FF930E941D1B7E
:104C6000FF91EF91BF91AF919F918F917F916F9144
:104C70005F914F913F912F910F900BBE0F900FBE00
:104C80000F901F9018951F920F920FB60F9211243C
:104C90000BB60F922F933F934F935F936F937F9336
:104CA0008F939F93AF93BF93EF93FF930E949407CB
:104CB000FF91EF91BF91AF919F918F917F916F91F4
:104CC0005F914F913F912F910F900BBE0F900FBEB0
:104CD0000F901F9018951F920F920FB60F921124EC
:104CE000A8950F900FBE0F901F9018951F920F92CE
:104CF0000FB60F9211240BB60F922F933F934F9341
:104D00005F936F937F938F939F93AF93BF93EF9333
:104D1000FF930E946C0A8091A00A9091A10AA09131
:104D2000A20AB091A30AFF91EF91BF91AF919F9119
:104D30008F917F916F915F914F913F912F910F9044
:104D40000BBE0F900FBE0F901F9018951F920F92E1
:104D50000FB60F9211240BB60F92CF92DF92EF9203
:104D6000FF920F931F932F933F934F935F936F93F4
:104D70007F938F939F93AF93BF93CF93DF93EF93E3
:104D8000FF93F8948091CD079091CE07A091CF0723
:104D9000B091D0070196A11DB11D8093CD079093CE
:104DA000CE07A093CF07B093D0078091790A8823CC
:104DB00009F46EC080916C0A90916D0AA0916E0A00
:104DC000B0916F0A892B8A2B8B2B09F461C000915B
:104DD000700A1091710A2091720A3091730A409101
:104DE000740A5091750A6091760A7091770A0417D7
:104DF00015072607370709F44BC0A1E0041715076C
:104E0000260737070CF0A0E08091780AA81711F167
:104E1000A093780A8091140B882339F0A1E004173D
:104E20001507260737070CF4A0E0E2E4F4E082EA75
:104E300094E0AA2309F4BBC0A491FC018491E82F5B
:104E4000F0E0EE0FFF1FE45AFB4FC591D491E881CB
:104E5000EA2BE8838091680A9091690AA0916A0A16
:104E6000B0916B0AC0906C0AD0906D0AE0906E0A07
:104E7000F0906F0A8C0D9D1DAE1DBF1DB7FDA7C024
:104E80008093680A9093690AA0936A0AB0936B0AA8
:104E90008091650A882309F46EC08091580A909128
:104EA000590AA0915A0AB0915B0A892B8A2B8B2B45
:104EB00009F461C000915C0A10915D0A20915E0ABC
:104EC00030915F0A4091600A5091610A6091620AD4
:104ED0007091630A041715072607370709F44BC0BA
:104EE000A1E004171507260737070CF0A0E0809112
:104EF000640AA81711F1A093640A80911F0B8823FC
:104F000039F0A1E004171507260737070CF4A0E0D5
:104F1000E1E4F4E081EA94E0AA2309F4A6C0A491B4
:104F2000FC018491E82FF0E0EE0FFF1FE45AFB4FE5
:104F3000C591D491E881EA2BE8838091540A90913D
:104F4000550AA091560AB091570AC090580AD090BD
:104F5000590AE0905A0AF0905B0A8C0D9D1DAE1D17
:104F6000BF1DB7FD92C08093540A9093550AA09339
:104F7000560AB093570A7894FF91EF91DF91CF9141
:104F8000BF91AF919F918F917F916F915F914F9161
:104F90003F912F911F910F91FF90EF90DF90CF9055
:104FA0000F900BBE0F900FBE0F901F901895A491FD
:104FB000FC018491E82FF0E0EE0FFF1FE45AFB4F55
:104FC000C591D4918881EA2FE095E82342CFB0586B
:104FD0008093680A9093690AA0936A0AB0936B0A57
:104FE000A6E4B4E0FD01F49086EA94E0FC01C491EB
:104FF000EC2FF0E0EE0FFF1FE45AFB4FC591D49168
:10500000E881FE2AF882C090700AD090710AE09080
:10501000720AF090730A04171507260737070CF574
:1050200041E050E060E070E04C0D5D1D6E1D7F1DA5
:105030004093700A5093710A6093720A7093730AD6
:10504000FD01A491FC018491E82FF0E0EE0FFF1F19
:10505000E45AFB4FC591D4918881A095A823A883D9
:1050600017CF4FEF5FEFBA01DFCFA491FC0184911E
:10507000E82FF0E0EE0FFF1FE45AFB4FC591D491EB
:105080008881EA2FE095E82357CFB0588093540ADF
:105090009093550AA093560AB093570AA7E4B4E038
:1050A000FD01F49087EA94E0FC01C491EC2FF0E05C
:1050B000EE0FFF1FE45AFB4FC591D491E881FE2A01
:1050C000F882C0905C0AD0905D0AE0905E0AF09091
:1050D0005F0A04171507260737070CF541E050E073
:1050E00060E070E04C0D5D1D6E1D7F1D40935C0AFD
:1050F00050935D0A60935E0A70935F0AFD01A4916C
:10510000FC018491E82FF0E0EE0FFF1FE45AFB4F03
:10511000C591D4918881A095A823A8832CCF4FEF67
:105120005FEFBA01DFCF1F920F920FB60F921124DB
:105130008F939F93AF93BF934A991EC04B9913C00F
:1051400080913D0A90913E0AA0913F0AB091400A99
:105150000197A109B10980933D0A90933E0AA0935B
:105160003F0AB093400ABF91AF919F918F910F90EA
:105170000FBE0F901F9018954B99F5CF80913D0A67
:1051800090913E0AA0913F0AB091400A0196A11D5C
:10519000B11DE1CF1F920F920FB60F9211240BB6E3
:1051A0000F922F933F934F935F936F937F938F93C0
:1051B0009F93AF93BF93EF93FF930E946C0AFF916D
:1051C000EF91BF91AF919F918F917F916F915F917F
:1051D0004F913F912F910F900BBE0F900FBE0F90EC
:1051E0001F901895FC01108213821282158214827E
:1051F000178216821186108682E382878FE1838769
:1052000085E284878CE085878EE386870895E5E3D1
:10521000FBE01382128288EE93E0A0E0B0E084838A
:105220009583A683B78389E993E09183808385EC96
:1052300090E09587848784EC90E09787868780EC60
:1052400090E0918B808B81EC90E0938B828B82EC51
:1052500090E0958B848B86EC90E0978B868B118EFB
:10526000128E138E148E86E89CE00E94F22862E073
:105270008EE10E943503E6E8FCE08481958190612F
:105280009583848387E79CE00E94F22862E08FE1A7
:105290000E943503E7E7FCE0848195819061958366
:1052A000848388E69CE00E94F22862E080E20E940B
:1052B0003503E8E6FCE084819581906195838483E1
:1052C00089E59CE00E94F22862E081E20E943503B9
:1052D000E9E5FCE0848195819061958384838AE48B
:1052E0009CE00E94F22862E082E20E943503EAE438
:1052F000FCE0848195819061958384838BE39CE0BD
:105300000E94F22862E083E20E943503EBE3FCE0B6
:10531000848195819061958384838CE29CE00E94D6
:10532000F22862E084E20E943503ECE2FCE0848132
:1053300095819061958384838DE19CE00E94F228A1
:1053400062E085E20E943503EDE1FCE08481958115
:105350009061958384838EE09CE00E94F22862E055
:1053600083E40E943503EEE0FCE084819581906146
:10537000958384838FEF9BE00E94F22862E084E4AF
:105380000E943503EFEFFBE0848195819061958366
:10539000848380EF9BE00E94F22862E085E40E9413
:1053A0003503E0EFFBE084819581906195838483F0
:1053B00081EE9BE00E94F22862E082E00E943503C9
:1053C000E1EEFBE08481958190619583848382ED99
:1053D0009BE00E94F22862E083E00E943503E2ED48
:1053E000FBE084819581906195838483E5E9FCE00D
:1053F000138212828BEA93E09183808388E0848316
:105400008FEF858389E086838AE087838BE08087BE
:105410008CE081878DE08287138614861586168638
:10542000178661E080E10E940A1380E79DE00E94F8
:10543000F22862E089E30E943503E0E7FDE0848121
:10544000958190619583848381E69DE00E94F22896
:1054500062E088E30E943503E1E6FDE08481958106
:1054600090619583848382E59DE00E94F22862E04A
:1054700087E30E943503E2E5FDE084819581906138
:105480009583848383E49DE00E94F22862E086E3B2
:105490000E943503E3E4FDE084819581906195836A
:1054A000848384E39DE00E94F22862E08AE30E9404
:1054B0003503E4E3FDE084819581906195838483E5
:1054C00085E29DE00E94F22862E08EE30E943503AF
:1054D000E5E2FDE08481958190619583848386E196
:1054E0009DE00E94F22862E08FE30E943503E6E12E
:1054F000FDE08481958190619583848387E09DE0C0
:105500000E94F22862E080E40E943503E7E0FDE0BB
:105510008481958190619583848388EF9CE00E94CB
:10552000F22862E081E40E943503E8EFFCE0848128
:10553000958190619583848389EE9CE00E94F22896
:1055400062E082E40E943503E9EEFCE0848195810B
:105550009061958384838AED9CE00E94F22862E04A
:1055600086E10E943503EAEDFCE08481958190613B
:10557000958384838BEC9CE00E94F22862E088E1B2
:105580000E943503EBECFCE084819581906195836A
:1055900084838CEB9CE00E94F22862E08AE10E9406
:1055A0003503ECEBFCE084819581906195838483E5
:1055B0008DEA9CE00E94F22862E08CE10E943503B3
:1055C000EDEAFCE084819581906195838483089560
:1055D000CF93DF93CDB7DEB7CA55D1090FB6F89494
:1055E000DEBF0FBECDBF789484B5826084BD84B524
:1055F000816084BD85B5826085BD85B5816085BDCE
:1056000080916E00816080936E0010928100809185
:10561000810082608093810080918100816080930D
:105620008100809180008160809380008091B10032
:1056300084608093B1008091B00081608093B0005D
:1056400080919100826080939100809191008160AF
:105650008093910080919000816080939000809170
:10566000A10082608093A1008091A100816080935D
:10567000A1008091A00081608093A0008091210111
:1056800082608093210180912101816080932101BA
:105690008091200181608093200180917A00846054
:1056A00080937A0080917A00826080937A00809162
:1056B0007A00816080937A0080917A00806880937C
:1056C0007A001092C1000E948E208E010F5F1F4F42
:1056D00018019E01285D3F4F3DA72CA7AE01465DF6
:1056E0005F4F5FA74EA77C992AC08091380A81112D
:1056F00026C051E05093380A0E942F0C61E086E0EA
:105700000E94350360E086E00E94A90205E010E0F7
:1057100061E080E10E94A90264E670E080E090E030
:105720000E944A0560E080E10E94A90264E670E000
:1057300080E090E00E944A050150110949F786E097
:10574000AEE6B8E01D928A95E9F710922B0A6FB188
:1057500063FB662760F980E79DE00E9451096FB105
:1057600062FB662760F981E69DE00E9451096FB1F6
:105770006695617082E59DE00E9451096FB161708C
:1057800083E49DE00E9451096FB16295617084E3EA
:105790009DE00E94510960910601617085E29DE0E3
:1057A0000E945109609106016695617086E19DE055
:1057B0000E9451096091060162FB662760F987E04B
:1057C0009DE00E9451096091060163FB662760F924
:1057D00088EF9CE00E94510960910601629561701A
:1057E00089EE9CE00E94510960B161708AED9CE0F5
:1057F0000E94510960B162FB662760F98BEC9CE066
:105800000E94510960B1629561708CEB9CE00E942E
:10581000510960B166FB662760F98DEA9CE00E9441
:1058200051094EE156E06EE678E080E79DE00E9487
:105830004D1743E256E06FE678E081E69DE00E9476
:105840004D1749E256E060E778E082E59DE00E946E
:105850004D174CE256E061E778E083E49DE00E945A
:105860004D1741E356E062E778E084E39DE00E9453
:105870004D1765E27DE088E396E00E94251766E11A
:105880007DE08DE396E00E94251767E07DE082E4ED
:1058900096E00E94251768EF7CE087E496E00E947E
:1058A00025178091290D90912A0D80759170409750
:1058B000C1F080911A0D90911B0D807591704097E9
:1058C00081F080910B0D90910C0D80759170409737
:1058D00041F08091FC0C9091FD0C80759170409787
:1058E00019F4B1E0B0932B0A8091ED0C9091EE0C7D
:1058F000807591704097C1F48091DE0C85FD21C0C8
:105900008091CF0C85FD00C18091C00C85FDFEC04B
:105910008091B10C85FDFCC04CE456E063EF73E070
:1059200087EF93E00E94E0168091ED0C82FF15C096
:105930004CE456E06AEF73E087EF93E00E94E016D4
:105940000CC010E04CE456E063E074E087EF93E0B5
:105950000E94E016812F0E94DB1740E06AED7CE098
:1059600082E596E00E94681841E06BEC7CE087E5F8
:1059700096E00E94681842E06CEB7CE08CE596E0D3
:105980000E94681843E06DEA7CE081E696E00E94A0
:1059900068188091740D85FB882780F98093450AEB
:1059A0008091650D85FB882780F98093460A809158
:1059B000560D85FB882780F98093470A8091470D13
:1059C00085FB882780F98093480A8091380D909153
:1059D000390D85FB222720F92093490A80769927E3
:1059E00021E08036910509F020E020934A0A909149
:1059F000060180912A0D829581709170892780938C
:105A00004B0A9091060180911B0D829581709695AD
:105A10009170892780934C0A9091060180910C0D1A
:105A20008295817092FB992790F9892780934D0A7E
:105A3000909106018091FD0C8295817093FB9927CE
:105A400090F9892780934E0A0E948E0B80934F0A0B
:105A50008091DE0C85FB882780F98093500A809125
:105A6000CF0C85FB882780F98093510A8091C00C68
:105A700085FB882780F98093520A8091B10C85FBC1
:105A8000882780F98093530A0E94960B0E94620730
:105A9000811180930402F09004020E944B07E82ECB
:105AA000809160088F1509F10F2D10E030E020E0A3
:105AB0008FEF8F0D4BE555E0883050F44F2D41505E
:105AC000550BFA01EE0FFF1FE352FD4F408151814C
:105AD00061E574E087EF93E00E94771780912B02D5
