:020000040000FA
:100000000C944C010C9414140C947D010C94DD138D
:100010000C947D010C947D010C947D010C947D0168
:100020000C947D010C947D010C947D010C947D0158
:100030000C947D010C946E100C947D010C94C811ED
:100040000C947D010C9400120C947D010C947D01A4
:100050000C947D010C947D010C947D010C94241072
:100060000C947D010C9437110C940D110C947D01AE
:100070000C947D010C947D010C947D010C947D0108
:100080000C94BD110C947D010C947D010C947D01A8
:100090000C947D010C947D010C947D010C947D01E8
:1000A0000C947D010C947D010C9495110C947D01B0
:1000B0000C947D010C947D010C947D010C946D11C8
:1000C0000C947D010C947D010C947D010C947D01B8
:1000D0000C947D010C947D010C947D010C947D01A8
:1000E0000C947D010C94CE010C94F3010C945114EA
:1000F0000C949B050C9405020C94AF010C942C0EEF
:100100000C94E5010C94520E0C94400E0C94C60114
:100110000C94390E0C94E9010C94440B0C94F701E7
:100120000C94B4010C948E040C94D2010C944905E7
:100130000C94DF010C94020E0C94B1040C94E30DAA
:100140000C9461040C94DB010C949D040C94FB0151
:100150000C94D5010C949A050C94CA010C94BF041C
:100160000C94ED010C9401020C94F7040C94170EFE
:100170000C943D0E000020002300260029002C00D6
:100180002F003200000100000301060109010000F8
:100190002100240027002A002D0030003300010137
:1001A0000000040107010A0100000A0B02090C0DFE
:1001B0000E0807030401000000000000000000001A
:1001C000000000000000000000000000000000002F
:1001D00000000000121110000000000000000000EC
:1001E000000000000000000000000000000001020C
:1001F0001020200808102040102040800201020139
:1002000008040201010204081020408080402010F0
:100210000804020180040201804020100804020149
:1002200008040201010204081020408001020408B1
:100230001020408000002200250028002B002E0006
:100240003100340002010000050108010B01050521
:100250000505070508080808020202020A0A08083C
:10026000040404040101010101010101030303036A
:1002700003030303040707070C0C0C0C0C0C0C0CF9
:100280000202020206060606060606060B0B0B0B0A
:100290000B0B0B0B0200511411241FBECFEFD1E248
:1002A000DEBFCDBF00E00CBF15E0A0E0B2E0ECEC9B
:1002B000F2E500E00BBF02C007900D92A238B10733
:1002C000D9F72AE0A2E8B5E001C01D92A13CB2072F
:1002D000E1F711E0CCE4D1E000E006C0219701098C
:1002E000802FFE010E947125CB34D10780E00807E2
:1002F000A9F70E9432160C9464290C940000282F50
:1003000030E0F901E855FE4F9491F901E251FE4FBA
:100310004491225B3D4FF9012491222309F435C019
:10032000992311F191509231F8F4E92FF0E08827E8
:10033000E356FE4F8F4F0C947125CE01D201AF01D1
:10034000C601CA01B401D501DB01DF01E501E90104
:10035000ED01F301F701B401FB01010205028091F7
:1003600080008F7780938000E22FF0E0EE0FFF1F78
:10037000EC5CFD4FA591B4918FB7F894EC916111AD
:1003800048C040954E234C938FBF089580918000C4
:100390008F7DE8CF80918000877FE4CF84B58F7711
:1003A00084BDE2CF84B58F7DFBCF8091B0008F7785
:1003B0008093B000D9CF8091B0008F7DF9CF80912C
:1003C00090008F7780939000CFCF809190008F7DA9
:1003D000F9CF80919000877FF5CF8091A0008F7733
:1003E0008093A000C1CF8091A0008F7DF9CF809134
:1003F000A000877FF5CF809120018F778093200127
:10040000B3CF809120018F7DF9CF80912001877F2C
:10041000F5CF4E2BB8CFCF93DF9390E0FC01E251A4
:10042000FE4F2491825B9D4FFC0184918823C9F08B
:1004300090E0880F991FFC01E257FE4FA591B491FF
:10044000FC01EC5CFD4FC591D49161110DC09FB7CB
:10045000F8948C91209582238C938881282328837B
:100460009FBFDF91CF910895623051F49FB7F89408
:100470003C91822F809583238C93E8812E2BEFCFA4
:100480008FB7F894EC912E2B2C938FBFEACFCF939C
:1004900080910902803121F08F3F61F1CF91089561
:1004A000E4E9F2E0C491C7FDF9CF61E080E10E9488
:1004B0000B02CC2309F4F1C0C23009F006C18091CF
:1004C000B100887F83608093B10083E68093B3009E
:1004D00088EC90E0A0E0B0E080936B0890936C080B
:1004E000A0936D08B0936E08809170008260809335
:1004F0007000D4CF80E180930902E4E9F2E0C49176
:100500008C2FCF3F59F2C23009F468C060F4CC237D
:1005100079F1C13009F444C087FDC0CF61E080E1CA
:100520000E940B02C9CFC43009F499C008F478C006
:10053000C53091F710922001109221018091210184
:100540008860809321018091210181608093210145
:10055000EEE5F2E0E491F0E0EE0FFF1FEC5CFD4F02
:1005600085919491EEEFF1E0E491E09357089DCFEF
:1005700014BC15BC84B5826084BD85B5816085BD21
:10058000EEE5F2E0E491F0E0EE0FFF1FEC5CFD4FD2
:1005900085919491EEEFF1E0E491E0935E0885CFD0
:1005A0001092800010928100809181008860809379
:1005B000810080918100816080938100EEE5F2E00E
:1005C000E491F0E0EE0FFF1FEC5CFD4F85919491FC
:1005D000EEEFF1E0E491E0935D0867CF1092B00098
:1005E0001092B1008091B00082608093B000809141
:1005F000B10081608093B100EEE5F2E0E491F0E0BB
:10060000EE0FFF1FEC5CFD4F8591949190935C0879
:1006100080935B08EEEFF1E0E491E0935A0845CF58
:1006200010929000109291008091910088608093C8
:10063000910080919100816080939100EEE5F2E05D
:10064000E491F0E0EE0FFF1FEC5CFD4F859194917B
:10065000EEEFF1E0E491E0935908C3E026CF109269
:10066000A0001092A1008091A10088608093A10059
:100670008091A10081608093A100EEE5F2E0E49119
:10068000F0E0EE0FFF1FEC5CFD4F85919491EEEFD3
:10069000F1E0E491E093580808CF85B5887F836046
:1006A00085BD81E387BD88EC90E0A0E0B0E0809359
:1006B000730890937408A0937508B093760880919E
:1006C0006E00826080936E00E9CEC130F1F48091BB
:1006D0008100887F8160809381008FE79CE0909308
:1006E00089008093880088EC90E0A0E0B0E08093DF
:1006F0006F0890937008A0937108B093720880916E
:100700006F00826080936F00C9CEC330F1F4809196
:100710009100887F8160809391008FE79CE09093A7
:1007200099008093980088EC90E0A0E0B0E080937E
:10073000670890936808A0936908B0936A0880914D
:100740007100826080937100A9CEC430F1F4809171
:10075000A100887F81608093A1008FE79CE0909347
:10076000A9008093A80088EC90E0A0E0B0E080931E
:10077000630890936408A0936508B093660880911D
:10078000720082608093720089CEC530F1F480914E
:100790002101887F8160809321018FE79CE0909305
:1007A00029018093280188EC90E0A0E0B0E08093DC
:1007B0005F0890936008A0936108B09362088091ED
:1007C000730082608093730069CEC23091F034F47C
:1007D000CC2369F0C13009F061CE7FCFC43009F479
:1007E000BCCF0CF49ACFC53009F058CED6CF8FE7E6
:1007F00059CF8FE76BCE3FB7F89480915308909113
:100800005408A0915508B091560826B5A89B05C07C
:100810002F3F19F00196A11DB11D3FBFBA2FA92F7F
:10082000982F8827BC01CD01620F711D811D911D7C
:1008300042E0660F771F881F991F4A95D1F70895E8
:100840008F929F92AF92BF92CF92DF92EF92FF92E0
:100850000E94FB034B015C0184E6C82ED12CE12CE5
:10086000F12C0E94FB03681979098A099B09683EEB
:10087000734081059105A8F321E0C21AD108E1086F
:10088000F10888EE880E83E0981EA11CB11CC114EB
:10089000D104E104F10429F7FF90EF90DF90CF90AD
:1008A000BF90AF909F908F9008952FB7F89460916C
:1008B0004F087091500880915108909152082FBFB5
:1008C0000895AF92BF92CF92DF92EF92FF920F9373
:1008D0001F93CF93DF936C017B018B01040F151FD6
:1008E000EB015E01AE18BF08C017D10759F069913E
:1008F000D601ED91FC910190F081E02DC601199592
:10090000892B79F7C501DF91CF911F910F91FF904E
:10091000EF90DF90CF90BF90AF900895FC01538D82
:10092000448D252F30E0842F90E0821B930B5417C9
:1009300010F0CF96089501970895FC01918D828D56
:10094000981761F0A28DAE0FBF2FB11D5D968C91EF
:10095000928D9F5F9F73928F90E008958FEF9FEF2E
:100960000895FC01918D828D981731F0828DE80FEA
:10097000F11D858D90E008958FEF9FEF0895FC01A4
:10098000918D228D892F90E0805C9F4F821B910971
:100990008F739927089587E798E00E94BF0421E0AC
:1009A000892B09F420E0822F0895FC01A48DA80F63
:1009B000B92FB11DA35ABF4F2C91848D90E00196A1
:1009C0008F739927848FA689B7892C93A089B189C1
:1009D0008C91837080648C93938D848D981306C062
:1009E0000288F389E02D80818F7D80830895EF92C6
:1009F000FF920F931F93CF93DF93EC0181E0888FD9
:100A00009B8D8C8D98131AC0E889F989808185FFA8
:100A100015C09FB7F894EE89FF896083E889F9894A
:100A200080818370806480839FBF81E090E0DF914C
:100A3000CF911F910F91FF90EF900895F62E0B8D9F
:100A400010E00F5F1F4F0F731127E02E8C8D8E115A
:100A50000CC00FB607FCFACFE889F989808185FFC1
:100A6000F5CFCE010E94D504F1CFEB8DEC0FFD2F19
:100A7000F11DE35AFF4FF0829FB7F8940B8FEA897C
:100A8000FB8980818062CFCF682F87E798E00C9444
:100A9000F704CF93DF93EC01888D8823B9F0AA89FE
:100AA000BB89E889F9898C9185FD03C0808186FD29
:100AB0000DC00FB607FCF7CF8C9185FFF2CF808178
:100AC00085FFEDCFCE010E94D504E9CFDF91CF9114
:100AD000089580E090E0892B29F00E94CB048111D9
:100AE0000E94000080E090E0892B49F080E090E0D7
:100AF000892B29F00E94000081110E94000080E0F3
:100B000090E0892B49F080E090E0892B29F00E9449
:100B1000000081110E94000080E090E0892B49F0E4
:100B200080E090E0892B29F00E94000081110C9454
:100B300000000895089590E080E0089580910301F9
:100B40008370823029F41092F1058091F1050895A7
:100B50008130D9F78093F105F8CF809118099091F1
:100B60001909807299272091270925FF08C0892B30
:100B700019F481E080930002809100020895892B8E
:100B8000D9F310920002F8CF8091540985FF04C078
:100B900082E080939C0506C08091450985FF05C0D1
:100BA00010929C0580919C0508958091360985FFDF
:100BB000F9CF81E0EECF8091CC0985FD1EC08091F8
:100BC000BD0985FD1CC08091AE0985FD1AC08091CC
:100BD0009F0985FD18C08091900985FD16C0809100
:100BE000810985FD14C08091720985FD12C0809134
:100BF000630985FD10C080E0089581E0089582E0DA
:100C0000089583E0089584E0089585E0089586E0DE
:100C1000089587E0089588E0089580917B00877F9C
:100C200080937B0087E480937C0080917A008064CD
:100C300080937A0080917A0086FDFCCF80917800C5
:100C4000909179002091440830914508AC01421BF5
:100C5000530B141615065CF4209144083091450896
:100C6000AC01421B530B4630510554F408952091BA
:100C7000440830914508281B390B263031053CF0DB
:100C8000909345088093440881E080939B050895E4
:100C9000CF93DF93FC012481358133FF10C0EC0139
:100CA0000E9455042A813B81621B730B2E85F0E163
:100CB0002F9F9001112481E06217730708F480E0F0
:100CC000DF91CF9108951F93CF93DF93EC018C8137
:100CD0009D8180FD19829C012F713327232B19F0F0
:100CE000807E9D838C838C819D8194FB112710F9DC
:100CF000162796FF04C09F7B9D838C8311E08C8117
:100D00009D8191FD10C011110BC0CE010E944806BB
:100D1000182F8111C0C0812FDF91CF911F910895AD
:100D200092609D838C830E945504AB018A819B81D4
:100D3000FA01E81BF90B8C819D81112309F45DC038
:100D400085FD3EC02A8592FD06C0222321F09460D5
:100D50009D838C830BC02E171F0619F010F02111F4
:100D600007C082629D838C83598748875B834A834F
:100D70008C819D818F71992711E0892B31F28E81B1
:100D80009F81892B41F28C819D81917084369105E0
:100D900009F48AC008F09AC08232910509F484C02F
:100DA00008F07BC08130910509F47EC0409709F4BA
:100DB0007BC0CE010E944806882309F4ACCF74C0E2
:100DC00097FDD6CF86FD0AC02C85A0E12A9F900111
:100DD0001124E217F30760F28464BACF87FF0BC0D7
:100DE0002D85A0E12A9F900111248868E217F3075E
:100DF00008F0AECFBDCF2C85F4CF85FF12C02A8579
:100E00002E171F0609F080F586FD03C029812F5F8C
:100E1000298397FD19828F7D806191609D838C83EA
:100E200023C090FF0DC097FD03C080619D838C831C
:100E30008C819D819E779D838C835B834A8314C0C4
:100E400029812223F1F09C01207C3327232BA1F45C
:100E50002B8540E1249F90011124E217F30760F4F1
:100E600088859985892B51F48C819D8192FF80CF53
:100E70009B7F9D838C837CCF8160D0CF1986188621
:100E8000F3CF91FFF1CF8F739D7F98609D838C830B
:100E900019861886D2CF10E072CF8134910521F0E7
:100EA0008035910509F085CFEE81FF81309709F4F7
:100EB00032CF1995CE010E944806882309F42BCF22
:100EC0008C819D81977F9D838C8325CF883E910562
:100ED00059F338F4813C910539F3803D910521F3B4
:100EE00068CF8035A1E09A07F9F2803D21E09207B2
:100EF000D9F28031914009F05CCFD6CF489910C02B
:100F0000499910C01092300880913F089091400894
:100F1000A0914108B09142080196A11DB11D10C0D9
:100F20004999F0CF81E08093300880913F089091FB
:100F30004008A0914108B09142080197A109B10968
:100F400080933F0890934008A0934108B0934208D3
:100F500008951092BA071092BB071092BC0708952B
:100F60002091440830914508A4E6B0E00E9479251C
:100F70009B01AC018AE056954795379527958A9550
:100F8000D1F7A091060230E0B0E00E94792524E676
:100F900030E040E050E00E944F252A303105410505
:100FA000510520F42AE030E040E050E0CA01B901E8
:100FB0000E941C2420E030E048E453E40E94CE2448
:100FC00020E030E040E752E40E9474230E94ED23C9
:100FD000693823E172078105910520F068E873E123
:100FE00080E090E0643671058105910520F464E6A7
:100FF00070E080E090E00895CF93C82F0E94B00782
:101000009B01AC01CC2381F0AAE0B0E00E948825CE
:101010009B01AC01213583EC38074105510520F0D7
:1010200020E533EC40E050E0A4E1B0E00E948825E8
:1010300028EE33E040E050E00E944F2521153105B5
:101040004105510521F421E030E040E050E0CA01C3
:10105000B901CF91089594E0899FF0011124EA50DD
:10106000F84F1082118212821382F8941092C607F0
:101070001092C7071092C8071092C9071092C207B2
:101080001092C3071092C4071092C5077894089570
:101090000F931F93EEECF7E0811102C0E2EEF7E050
:1010A000008511852285338544855585668577853C
:1010B0000417150726073707B1F481110BC060919B
:1010C000EA077091EB078091EC079091ED071F9173
:1010D0000F9108956091D6077091D7078091D80736
:1010E0009091D907F4CF811109C06091EE077091FA
:1010F000EF078091F0079091F107E9CF6091DA074F
:101100007091DB078091DC079091DD07E0CFCF92F3
:10111000DF92EF92FF920F931F936A017B01813060
:10112000B1F480910206882309F447C06091F2056A
:101130007091F3058091F4059091F50520910406D6
:1011400021111EC000E814E82EE130E021C080919A
:1011500005068823B9F16091FE057091FF05809125
:1011600000069091010620910306222359F3009175
:10117000F6051091F7052091F8053091F90508C0A2
:101180000091FA051091FB052091FC053091FD05B9
:10119000C616D706E806F9064CF0C701B6010617D1
:1011A00017072807390714F4C901B8011F910F91D7
:1011B000FF90EF90DF90CF90089560E87BE781EE9D
:1011C0009FEFBCCF60E87BE781EE9FEFCCCF8091B3
:1011D000050281110C944702089590E0FC01E25B46
:1011E000FD4FE491EE2389F0F0E0EE0FFF1FEC5885
:1011F000FE4FA591B4912C9182519E4FFC01849198
:10120000282381E019F480E0089581E008958EE1BB
:101210000E94ED0861E0811101C060E088EC99E076
:101220000E9463068FE10E94ED0861E0811101C018
:1012300060E089EB99E00E94630680E20E94ED087D
:1012400061E0811101C060E08AEA99E00E946306D2
:1012500081E20E94ED0861E0811101C060E08BE94C
:1012600099E00E94630682E20E94ED0861E081112C
:1012700001C060E08CE899E00E94630683E20E946E
:10128000ED0861E0811101C060E08DE799E00E9406
:10129000630684E20E94ED0861E0811101C060E014
:1012A0008EE699E00E94630685E20E94ED0861E007
:1012B000811101C060E08FE599E00E9463066091B2
:1012C000060165FB662760F980E599E00E946306E8
:1012D0006091060166FB662760F981E499E00E944F
:1012E000630660910601661F6627661F82E399E028
:1012F0000E9463066CB16295617083E299E00E947E
:1013000063066CB165FB662760F984E199E00C9493
:101310006306CF93C82F61E00E940B0261E08C2F1F
:10132000CF910C947F01CF93C82F61E00E940B02F4
:1013300060E08C2FCF910C947F0162E00C940B0243
:1013400080910806909109060497E1F184E090E00D
:1013500090930906809308060E94A9078091EA07E6
:101360009091EB07A091EC07B091ED078093EE0709
:101370009093EF07A093F007B093F1078091D60701
:101380009091D707A091D807B091D9078093DA0739
:101390009093DB07A093DC07B093DD071092F3076F
:1013A0001092DF071092E6071092E7071092E80705
:1013B0001092E9071092D2071092D3071092D40727
:1013C0001092D50708956091080670910906EBE028
:1013D000F2E043E352E0208131816217730719F094
:1013E0002530310529F4228133818217930731F0AA
:1013F00035964E175F0779F70C94A009909309066C
:10140000809308060895CF93DF93EC0160E08E810E
:101410000E947F0161E08E810E947F0160E08E81E9
:101420000E947F018BE891E00197F1F7DF91CF9166
:101430000895CF92DF92EF92FF920F931F93CF9375
:10144000DF936C017C0187E0E80EF11CD0E0C0E086
:10145000062F10E0B8010C2E02C0759567950A940E
:10146000E2F76170F70181917F010E947F0121966F
:10147000C430D10579F7C601DF91CF911F910F914B
:10148000FF90EF90DF90CF900C94030ACF92DF9201
:10149000EF92FF920F931F93CF93DF93EC01F62E01
:1014A000642F8C810E947F018D818F3F19F060E055
:1014B0000E947F010F2D10E08F8584FF25C06E01F3
:1014C00087E0C80ED11CF12CE12CB8010E2C02C013
:1014D000759567950A94E2F76170F60181916F0145
:1014E0000E947F01FFEFEF1AFF0A88E0E816F1047F
:1014F00061F7CE01DF91CF911F910F91FF90EF9097
:10150000DF90CF900C94030AB80184E0759567953D
:101510008A95E1F7CE010E94190A6F2DCE01DF9165
:10152000CF911F910F91FF90EF90DF90CF900C948F
:10153000190A40E0682F87ED99E00C94460ACF9392
:10154000DF93613029F09091E60998609093E60965
:101550006093EA091092EB0990E49093EC09809370
:10156000ED09805C8093EE0961E08091DB090E94C7
:101570000B028091DC098F3F19F061E00E940B02A1
:1015800061E08091DD090E940B02C7EDD9E09E0168
:10159000275D39408091E60984FD0BC084E090E02E
:1015A00021962817390744F461E08E810E940B02CE
:1015B000EECF88E090E0F4CF8BE39DE00197F1F768
:1015C00060E08091DB090E947F0160E08091DD098D
:1015D0000E947F018091DC098F3F19F060E00E943A
:1015E0007F018091E60984FD39C063E087ED99E0D1
:1015F0000E94190ACBE4D6E4CE010197F1F763E02B
:1016000087ED99E00E94190A2197F1F763E087EDD1
:1016100099E00E94190A83E592E00197F1F762E0F0
:1016200087ED99E00E94190A8091E60980620E9484
:10163000990A84E08093E7098CE00E94990A81E08E
:101640000E94990A8BE39FE10197F1F782E0809372
:10165000E80986E0DF91CF910C94990A80620E949C
:10166000990A8BE496E40197F1F78091E60980628C
:101670000E94990A83E592E00197F1F78091E609CB
:1016800080620E94990AD0CF41E00E94460A81E020
:1016900090E00895FB0101900020E9F73197AF0138
:1016A000461B570BDC01ED91FC910280F381E02D8C
:1016B00019948F929F92AF92BF920F931F93CF93E3
:1016C000DF93CDB7DEB7A1970FB6F894DEBF0FBE9C
:1016D000CDBF19A2423008F44AE08E010F5D1F4FC2
:1016E000842E912CB12CA12CA50194010E944F2590
:1016F000E62FB901CA01EA3004F5E05DD801EE93A6
:101700008D01232B242B252B79F790E080E0109777
:1017100029F0BD0187E798E00E944A0BA1960FB619
:10172000F894DEBF0FBECDBFDF91CF911F910F9117
:10173000BF90AF909F908F900895E95CDFCFCF93DB
:10174000DF93BC0187E798E00E944A0BEC016DE64D
:1017500072E087E798E00E944A0B8C0F9D1FDF9193
:10176000CF9108956115710511F00C944A0B90E02A
:1017700080E00895EF92FF920F931F93CF93DF9332
:1017800020910A022223A1F1EA018B017C0167E783
:1017900072E087E798E00E94B20B60E772E087E7AB
:1017A00098E00E94B20B65E772E087E798E00E943C
:1017B000B20BB70187E798E00E94B20B65E772E0D1
:1017C00087E798E00E94B20BB80187E798E00E9493
:1017D000B20B65EE74E087E798E00E94B20BCE0191
:1017E000DF91CF911F910F91FF90EF900C949F0B81
:1017F000DF91CF911F910F91FF90EF900895AC0171
:1018000069E772E08EE792E00C94BA0B0F931F9396
:10181000CF93DF93EC018B01FB018481958180756F
:101820009170409739F4AE0161E872E08EE792E082
:101830000E94BA0BF801848182FF07C0CE01DF91BC
:10184000CF911F910F910C94FF0BDF91CF911F91BE
:101850000F9108950F931F93CF93DF938C01EA01AB
:10186000FC018481958180759170409749F481E0F5
:10187000FB01808361E872E08EE792E00E94BA0B80
:10188000F801848182FF07C0CE01DF91CF911F91C3
:101890000F910C94FF0BDF91CF911F910F91089541
:1018A000AF92BF92CF92DF92EF92FF920F931F936E
:1018B000CF93DF93E0910A02EE2309F44AC0680156
:1018C0007901EA018B015C0167E772E087E798E044
:1018D0000E94B20B60E772E087E798E00E94B20BCB
:1018E00065E772E087E798E00E94B20BB50187E7F1
:1018F00098E00E94B20B65E772E087E798E00E94EB
:10190000B20BB80187E798E00E94B20B65EE74E075
:1019100087E798E00E94B20BBE0187E798E00E943B
:10192000B20B80E20E9444054AE0C701B6010E9462
:10193000590B6DE672E087E798E0DF91CF911F9138
:101940000F91FF90EF90DF90CF90BF90AF900C94ED
:101950004A0BDF91CF911F910F91FF90EF90DF9095
:10196000CF90BF90AF9008957F928F929F92AF9249
:10197000BF92CF92DF92EF92FF920F931F93CF937C
:10198000DF937C016B01742EFB018481958180754E
:101990009170409709F094C0A70161E872E08EE76A
:1019A00092E00E94BA0BC72DD0E08E010E5F194F56
:1019B000F8018081882391F01082C55CDD4F61E0E1
:1019C00088810E947F0145E852E069E872E08EE775
:1019D00092E00E94BA0B0E94E70872C0872D8D7FAB
:1019E00009F041C081E00E9448084B015C0177206A
:1019F00009F453C0F2E07F123BC0809102068823B5
:101A000071F08091F2059091F305A091F405B091E9
:101A1000F50588159905AA05BB050CF051C081E0B4
:101A2000F8018083FE01EE0FFF1FEE0FFF1FEE5047
:101A3000FA4F80829182A282B382FE01E55CFD4F63
:101A400060E080810E947F01CC0FDD1FCD5CDD4F07
:101A5000488159819501840169E872E08EE792E03E
:101A60000E94500CB8CF80E00E9448084B015C01F6
:101A700081E0781239C080910506882381F2809137
:101A8000FE059091FF05A0910006B0910106881512
:101A90009905AA05BB051CF213C080910406882392
:101AA00009F4BDCF8091FA059091FB05A091FC054A
:101AB000B091FD0588169906AA06BB060CF4AFCFB7
:101AC000F601848182FF27C0C701DF91CF911F916A
:101AD0000F91FF90EF90DF90CF90BF90AF909F90CD
:101AE0008F907F900C94FF0BE3E07E1298CF809153
:101AF0000306882309F493CF8091F6059091F705AA
:101B0000A091F805B091F90588169906AA06BB06BA
:101B10000CF485CFD5CFDF91CF911F910F91FF901E
:101B2000EF90DF90CF90BF90AF909F908F907F907D
:101B300008950F931F93CF930DE915E0C0E0E09156
:101B4000EA09CE17B0F0E150F0E0E952F64F84898F
:101B500080680E94990AB80187ED99E00E94B20B53
:101B6000CF5F0B5E1F4FC43051F7CF911F910F9184
:101B70000895EC2FE9CFCF93DF93D82FC5E18C9F49
:101B8000C001112444E150E083569A4F0E9472260E
:101B9000CD9FF0011124E356FA4F148ADF91CF91C3
:101BA0000895883020F5E82FF0E08827E552F24FBD
:101BB0008F4F0C947125E30D020E170E2C0E390E6B
:101BC0003D0E400E520E6DE872E080E00E94BB0DAB
:101BD00068E972E081E00E94BB0D6CE972E082E08E
:101BE0000E94BB0D66EA72E083E00E94BB0D80910B
:101BF000080690910906892B09F074C081E090E0F5
:101C00000C94E30981E0809304086EE872E080E0C0
:101C10000E94BB0D6CEA72E081E00E94BB0D6AEB92
:101C200072E082E00E94BB0D61EC72E0DDCF81E0EA
:101C30008093030867EC72E080E00E94BB0D63EDC7
:101C400072E081E00E94BB0D6AEB72E082E00E94CC
:101C5000BB0D60EE72E0C8CF6DEE72E080E00E94D6
:101C6000BB0D65EF72E081E00E94BB0D6FEF72E08B
:101C7000D8CF6AE073E080E0B8CF6FE073E0FBCFCD
:101C800066E173E080E00E94BB0D6EE173E081E0ED
:101C90000E94BB0D68E273E082E00E94BB0D63E32B
:101CA00073E0A2CF81E080930208109201081092A5
:101CB00000086EE373E080E00E94BB0D69E473E00E
:101CC00081E00E94BB0D68E573E082E00E94BB0DDD
:101CD00061EC72E083E00E94BB0D81E090E00E9425
:101CE000E30985CF08957F928F929F92AF92BF9222
:101CF000CF92DF92EF92FF920F931F93CF93DF93D8
:101D0000CDB7DEB765970FB6F894DEBF0FBECDBF77
:101D100065E773E080E00E94BB0D80911D08882379
:101D200009F46BC064E873E080E00E94BB0D909101
:101D3000080280911A08882309F458C080E21F9293
:101D40009F931F928F938DE893E09F938F931F92A1
:101D500085E18F938E010F5F1F4F1F930F930E949A
:101D60008126B80181E00E94BB0D0FB6F894DEBF5A
:101D70000FBECDBF8091070281113AC085E693E086
:101D800020911A082130B9F120E29F938F931F927E
:101D90002F938EE993E09F938F931F9285E18F930A
:101DA0001F930F930E948126B80182E00E94BB0D11
:101DB0006BEA73E083E00E94BB0D0FB6F894DEBFC0
:101DC0000FBECDBF65960FB6F894DEBF0FBECDBF78
:101DD000DF91CF911F910F91FF90EF90DF90CF9007
:101DE000BF90AF909F908F907F9008958EE3A7CF84
:101DF00082E693E0C5CF2EE3C8CFF091CA07E09109
:101E0000CB071091CC0720914408309145084091B0
:101E10000602A4E6B0E00E947925DC01CB012AE0AD
:101E2000B695A795979587952A95D1F7489FC001B4
:101E3000112464E670E00E943B257B0189E693E073
:101E4000E13031F081E793E0E23011F48DE693E088
:101E50001F924F939F938F931F92FF9389EB93E071
:101E60009F938F931F9285E18F9382E895E09F93D4
:101E70008F930E94812662E875E081E00E94BB0D8D
:101E80000FB6F894DEBF0FBECDBF8AE5111101C0B9
:101E900088E5FF24123008F056C094E0199FF00145
:101EA0001124EA50F84F9081218132814381FF92C1
:101EB000EF924F933F932F939F931F928F9387ECB3
:101EC00093E09F938F931F9285E1F82EFF9202E893
:101ED00015E01F930F930E948126B80182E00E94B3
:101EE000BB0DA09022089090230880902408709049
:101EF000250881E00E944808E62ED72EC82EB92E6C
:101F000080E00E9448087F928F929F92AF92BF928A
:101F1000CF92DF92EF929F938F937F936F938AED8F
:101F200093E09F938F931F92FF921F930F930E94B2
:101F300081260FB6F894DEBF0FBECDBFB80183E097
:101F40000E94BB0D3FCF90E020E030E040E0AFCFFB
:101F5000CF92DF92EF92FF920F931F93CF93DF9375
:101F60006C017B018A01E90190E080E00E94592325
:101F7000F601808381E090E00E945923F70180837D
:101F800082E090E00E945923F801808383E090E092
:101F90000E9459238883DF91CF911F910F91FF9069
:101FA000EF90DF90CF900895FF920F931F93CF9300
:101FB000DF93EC01F62E08811981C8010E94592394
:101FC000F81621F06F2DC8010E946123CE01DF9128
:101FD000CF911F910F91FF9008951F93CF93DF939F
:101FE0001F921F92CDB7DEB71091050280910602B5
:101FF000180F1B551A82198265EACE0101960E94BC
:10200000D40F6091060281E090E09A838983CE012B
:1020100001960E94D40F6091050282E090E09A83BD
:102020008983CE0101960E94D40F83E090E09A83C9
:102030008983612FCE0101960E94D40F0F900F90DB
:10204000DF91CF911F9108951F920F920FB60F92BB
:1020500011242F933F938F939F93AF93BF938091BE
:102060004F0890915008A0915108B09152083091BA
:102070004E0823E0230F2D3758F50196A11DB11D01
:1020800020934E0880934F0890935008A0935108D6
:10209000B09352088091530890915408A09155082C
:1020A000B09156080196A11DB11D809353089093DD
:1020B0005408A0935508B0935608BF91AF919F91D3
:1020C0008F913F912F910F900FBE0F901F901895F9
:1020D00026E8230F0296A11DB11DD2CF1F920F92A9
:1020E0000FB60F9211240BB60F922F933F934F937D
:1020F0005F936F937F938F939F93AF93BF93EF9370
:10210000FF9380916B0890916C08A0916D08B0913D
:102110006E08892B8A2B8B2BE1F190915A08E09164
:102120005B08F0915C0880818927808380916B082F
:1021300090916C08A0916D08B0916E081816190660
:102140001A061B069CF480916B0890916C08A09174
:102150006D08B0916E080197A109B10980936B08D1
:1021600090936C08A0936D08B0936E08FF91EF9167
:10217000BF91AF919F918F917F916F915F914F919F
:102180003F912F910F900BBE0F900FBE0F901F909D
:10219000189580910902E4E9F2E0E4919FEF9093B1
:1021A0000902E230E9F040F4EE2389F0E13091F0E9
:1021B00060E00E947F01DACFE43049F110F1E530B0
:1021C000B9F7909173009D7F90937300F1CF1092B7
:1021D0006E00EECF90916F009D7F90936F00E8CFDF
:1021E000909170009D7F9093700091E09093B0006B
:1021F0009091B100987F94609093B1001092B300D9
:10220000D7CF909171009D7F90937100D1CF909125
:1022100072009D7F90937200CBCF1F920F920FB6EA
:102220000F9211240BB60F922F933F934F935F930E
:102230006F937F938F939F93AF93BF93EF93FF938E
:1022400087E798E00E94D504FF91EF91BF91AF918D
:102250009F918F917F916F915F914F913F912F91BE
:102260000F900BBE0F900FBE0F901F9018951F92EE
:102270000F920FB60F9211240BB60F922F938F93DC
:102280009F93EF93FF93E0918708F09188088081F6
:10229000E0918D08F0918E0882FD1DC090818091A3
:1022A00090088F5F8F7320919108821741F0E09121
:1022B0009008F0E0E958F74F958F80939008FF91D0
:1022C000EF919F918F912F910F900BBE0F900FBEAA
:1022D0000F901F9018958081F2CF1F920F920FB62A
:1022E0000F9211240BB60F922F933F934F935F934E
:1022F0006F937F938F939F93AF93BF93EF93FF93CE
:102300000E94990DFF91EF91BF91AF919F918F9195
:102310007F916F915F914F913F912F910F900BBEE5
:102320000F900FBE0F901F9018951F920F920FB62F
:102330000F9211240BB60F922F933F934F935F93FD
:102340006F937F938F939F93AF93BF93EF93FF937D
:102350000E940D06FF91EF91BF91AF919F918F91D8
:102360007F916F915F914F913F912F910F900BBE95
:102370000F900FBE0F901F9018951F920F920FB6DF
:102380000F921124A8950F900FBE0F901F901895D3
:102390001F920F920FB60F9211240BB60F922F932C
:1023A0003F934F935F936F937F938F939F93AF93DD
:1023B000BF93EF93FF930E947E0780913F08909117
:1023C0004008A0914108B09142088093360890934C
:1023D0003708A0933808B0933908FF91EF91BF9167
:1023E000AF919F918F917F916F915F914F913F91AD
:1023F0002F910F900BBE0F900FBE0F901F9018954E
:102400001F920F920FB60F9211240BB60F92CF921C
:10241000DF92EF92FF920F931F932F933F934F936F
:102420005F936F937F938F939F93AF93BF93CF935C
:10243000DF93EF93FF93F89480919705909198051F
:10244000A0919905B0919A050196A11DB11D8093A7
:10245000970590939805A0939905B0939A0580915C
:10246000F307882309F466C08091E6079091E70797
:10247000A091E807B091E907892B8A2B8B2B09F4EF
:1024800059C00091EA071091EB072091EC073091B9
:10249000ED074091EE075091EF076091F0077091C2
:1024A000F107041715072607370709F443C081E031
:1024B00004171507260737070CF080E09091F20704
:1024C0008917D1F08093F207EAE1F2E08AE792E01F
:1024D00004171507260737070CF0B3C0A491FC01B9
:1024E0008491E82FF0E0EE0FFF1FEC5CFD4FC591EB
:1024F000D491E881EA2BE8838091E2079091E30789
:10250000A091E407B091E507C090E607D090E707F7
:10251000E090E807F090E9078C0D9D1DAE1DBF1DF2
:10252000B7FD9FC08093E2079093E307A093E40771
:10253000B093E5078091DF07882309F466C0809196
:10254000D2079091D307A091D407B091D507892BDA
:102550008A2B8B2B09F459C00091D6071091D7070D
:102560002091D8073091D9074091DA075091DB07C5
:102570006091DC077091DD07041715072607370700
:1025800009F443C081E004171507260737070CF04C
:1025900080E09091DE078917D1F08093DE07E9E1B2
:1025A000F2E089E792E004171507260737070CF0D9
:1025B000A6C0A491FC018491E82FF0E0EE0FFF1F6C
:1025C000EC5CFD4FC591D491E881EA2BE8838091C2
:1025D000CE079091CF07A091D007B091D107C090BE
:1025E000D207D090D307E090D407F090D5078C0D98
:1025F0009D1DAE1DBF1DB7FD92C08093CE07909369
:10260000CF07A093D007B093D1077894FF91EF91B3
:10261000DF91CF91BF91AF919F918F917F916F91FA
:102620005F914F913F912F911F910F91FF90EF90EC
:10263000DF90CF900F900BBE0F900FBE0F901F90AA
:102640001895A491FC018491E82FF0E0EE0FFF1F94
:10265000EC5CFD4FC591D4918881EA2FE095E82389
:102660004ACFB0588093E2079093E307A093E40722
:10267000B093E507AEE1B2E0FD01F4908EE792E0A1
:10268000FC01C491EC2FF0E0EE0FFF1FEC5CFD4F5E
:10269000C591D491E881FE2AF882C090EA07D090D3
:1026A000EB07E090EC07F090ED07041715072607FD
:1026B00037070CF541E050E060E070E04C0D5D1D27
:1026C0006E1D7F1D4093EA075093EB076093EC0764
:1026D0007093ED07FD01A491FC018491E82FF0E0D7
:1026E000EE0FFF1FEC5CFD4FC591D4918881A09542
:1026F000A823A8831FCF4FEF5FEFBA01DFCFA491CC
:10270000FC018491E82FF0E0EE0FFF1FEC5CFD4F21
:10271000C591D4918881EA2FE095E82357CFB0582E
:102720008093CE079093CF07A093D007B093D107A3
:10273000AFE1B2E0FD01F4908FE792E0FC01C491BB
:10274000EC2FF0E0EE0FFF1FEC5CFD4FC591D49134
:10275000E881FE2AF882C090D607D090D707E09093
:10276000D807F090D90704171507260737070CF587
:1027700041E050E060E070E04C0D5D1D6E1D7F1D7E
:102780004093D6075093D7076093D8077093D90723
:10279000FD01A491FC018491E82FF0E0EE0FFF1FF2
:1027A000EC5CFD4FC591D4918881A095A823A883A6
:1027B0002CCF4FEF5FEFBA01DFCF1F920F920FB612
:1027C0000F9211248F939F93AF93BF934A991EC08A
:1027D0004B9913C08091C6079091C707A091C80775
:1027E000B091C9070197A109B1098093C6079093D9
:1027F000C707A093C807B093C907BF91AF919F9136
:102800008F910F900FBE0F901F9018954B99F5CF99
:102810008091C6079091C707A091C807B091C907DA
:102820000196A11DB11DE1CF1F920F920FB60F921D
:1028300011240BB60F922F933F934F935F936F9397
:102840007F938F939F93AF93BF93EF93FF930E94D8
:102850007E07FF91EF91BF91AF919F918F917F91F3
:102860006F915F914F913F912F910F900BBE0F9001
:102870000FBE0F901F901895FC01108213821282D8
:1028800015821482178216821186108682E382874F
:102890008FE1838785E284878CE085878EE3868756
:1028A0000895E7E7F8E01382128288EE93E0A0E053
:1028B000B0E084839583A683B78383E592E0918318
:1028C000808385EC90E09587848784EC90E09787FF
:1028D000868780EC90E0918B808B81EC90E0938BED
:1028E000828B82EC90E0958B848B86EC90E0978BCA
:1028F000868B118E128E138E148E88EC99E00E94B6
:102900003C1462E08EE10E940B02E8ECF9E0848165
:10291000958190619583848389EB99E00E943C14B2
:1029200062E08FE10E940B02E9EBF9E0848195817E
:102930009061958384838AEA99E00E943C1462E066
:1029400080E20E940B02EAEAF9E0848195819061BD
:10295000958384838BE999E00E943C1462E081E2D4
:102960000E940B02EBE9F9E08481958190619583E7
:1029700084838CE899E00E943C1462E082E20E9429
:102980000B02ECE8F9E08481958190619583848362
:102990008DE799E00E943C1462E083E20E940B0202
:1029A000EDE7F9E0848195819061958384838EE6DB
:1029B00099E00E943C1462E084E20E940B02EEE681
:1029C000F9E0848195819061958384838FE599E016
:1029D0000E943C1462E085E20E940B02EFE5F9E000
:1029E0008481958190619583848380E599E00E943C
:1029F0003C1462E083E40E940B02E0E5F9E084818C
:102A0000958190619583848381E499E00E943C14D0
:102A100062E084E40E940B02E1E4F9E084819581A4
:102A200090619583848382E399E00E943C1462E084
:102A300085E40E940B02E2E3F9E0848195819061D4
:102A40009583848383E299E00E943C1462E082E0F3
:102A50000E940B02E3E2F9E0848195819061958305
:102A6000848384E199E00E943C1462E083E00E9448
:102A70000B02E4E1F9E08481958190619583848380
:102A8000E7EDF9E01382128285E692E0918380837C
:102A900088E084838FEF858389E086838AE087835B
:102AA0008BE080878CE081878DE082871386148697
:102AB00015861686178661E080E10E949F0A82EBE8
:102AC0009AE00E943C1462E089E30E940B02E2EB70
:102AD000FAE08481958190619583848383EA9AE00A
:102AE0000E943C1462E088E30E940B02E3EAFAE0F1
:102AF0008481958190619583848384E99AE00E9422
:102B00003C1462E087E30E940B02E4E9FAE084816E
:102B1000958190619583848385E89AE00E943C14B6
:102B200062E086E30E940B02E5E8FAE08481958189
:102B300090619583848386E79AE00E943C1462E06A
:102B40008AE30E940B02E6E7FAE0848195819061B6
:102B50009583848387E69AE00E943C1462E08EE3CA
:102B60000E940B02E7E6FAE08481958190619583EB
:102B7000848388E59AE00E943C1462E08FE30E941F
:102B80000B02E8E5FAE08481958190619583848366
:102B900089E49AE00E943C1462E080E40E940B0207
:102BA000E9E4FAE0848195819061958384838AE3E6
:102BB0009AE00E943C1462E081E40E940B02EAE386
:102BC000FAE0848195819061958384838BE29AE019
:102BD0000E943C1462E082E40E940B02EBE2FAE005
:102BE000848195819061958384838CE19AE00E9431
:102BF0003C1462E086E10E940B02ECE1FAE0848181
:102C000095819061958384838DE09AE00E943C14C5
:102C100062E088E10E940B02EDE0FAE08481958198
:102C20009061958384838EEF99E00E943C1462E06A
:102C30008AE10E940B02EEEFF9E0848195819061B8
:102C4000958384838FEE99E00E943C1462E08CE1CE
:102C50000E940B02EFEEF9E08481958190619583EB
:102C600084830895CF93DF93CDB7DEB7C454D109E1
:102C70000FB6F894DEBF0FBECDBF789484B58260E6
:102C800084BD84B5816084BD85B5826085BD85B510
:102C9000816085BD80916E00816080936E0010928E
:102CA0008100809181008260809381008091810009
:102CB000816080938100809180008160809380009A
:102CC0008091B10084608093B1008091B0008160F8
:102CD0008093B000809191008260809391008091F8
:102CE0009100816080939100809190008160809339
:102CF00090008091A10082608093A1008091A1004A
:102D000081608093A1008091A00081608093A000E9
:102D10008091210182608093210180912101816055
:102D20008093210180912001816080932001809116
:102D30007A00846080937A0080917A008260809328
:102D40007A0080917A00816080937A0080917A0085
:102D5000806880937A001092C10080E30E949309FA
:102D60008CE20E94930981E30E9493098BE20E9406
:102D7000930980E10E9493098AE20E9489098DE10A
:102D80000E94890989E10E9489098BE10E948909D1
:102D900087E10E94890986E30E949D0987E30E94DA
:102DA0009D0988E30E949D0989E30E949D098AE3A9
:102DB0000E949D098EE30E949D098FE30E949D0958
:102DC00080E40E949D0981E40E949D0982E40E94A2
:102DD0009D0983E40E949D0984E40E949D0985E485
:102DE0000E949D098EE10E949D098FE10E949D092C
:102DF00080E20E949D0981E20E949D0982E20E9478
:102E00009D0983E20E949D0984E20E949D0985E25A
:102E10000E949D0982E10E949D0983E10E949D0913
:102E200082E00E949D0983E00E949D098FE00E943C
:102E30009D098EE00E949D0984E10E949D0985E123
:102E40000E949D0986E10E949D0988E10E949D09DA
:102E50008AE10E949D098CE10E949D09E09187080A
:102E6000F091880882E08083E0918308F0918408E3
:102E70001082E0918508F091860880E180831092AD
:102E80008F08E0918B08F0918C0886E08083E091B8
:102E90008908F0918A08808180618083E0918908A7
:102EA000F0918A08808188608083E0918908F091A0
:102EB0008A08808180688083E0918908F0918A087F
:102EC00080818F7D808381E080930A028FE692E08B
:102ED0000E949F0B80910A02882321F084E094E0F5
:102EE0000E949F0B9E012F5F3F4FAE014A5E5F4FD6
:102EF000BE01655E7F4FCE0180960E94A80F39818A
:102F00008E890B8D28A1253A41F596EF900F9B35C0
:102F100020F5823010F5982F900F9B5539131DC066
:102F2000009306028093050210E030E020E04AE2C0
:102F300054E06FE274E084E394E00E94500C00914E
:102F4000050210E030E020E048E354E06FE274E076
:102F500084E394E00E94500C13C084E68093060240
:102F600081E080930502253A09F4E1C30E94ED0F48
:102F70004DE354E06FE274E084E394E00E94BA0B06
:102F800084E1E2EEF7E0DF01E82E1D92EA94E9F732
:102F9000EEECF7E0DF011D928A95E9F71092F60753
:102FA0001092F7071092F8071092F9071092FA079B
:102FB0001092FB071092FC071092FD071092FF077A
:102FC0001092FE071092BD071092BE071092BF0725
:102FD0001092C007F894109280008AE080938100DC
:102FE00082E490E0909389008093880082E080934F
:102FF0006F00789464E084E10E949F0A81E00E945F
:10300000990A8BE39FE10197F1F70DE915E061EF74
:10301000E62E65E0F62E44E150E060E270E0C80183
:103020000E946B26F801148A0B5E1F4FE016F10612
:1030300091F78091CC099091CD0990619093CD0941
:103040008093CC098091BD099091BE0990619093C5
:10305000BE098093BD098091AE099091AF0990613E
:103060009093AF098093AE0980919F099091A00938
:1030700090619093A00980939F098091900990910D
:1030800091099061909391098093900980918109B1
:103090009091820990619093820980938109809137
:1030A00072099091730990619093730980937209EA
:1030B0008091630990916409906190936409809371
:1030C0006309809154099091550990619093550935
:1030D000809354098091450990914609906190939D
:1030E000460980934509809136099091370990618E
:1030F0009093370980933609809127099091280988
:1031000090619093280980932709809118099091E4
:103110001909906190931909809318090E94070971
:103120000E94DB05811101C081E0809301020E94B1
:10313000AD050E949E050E94DB058111809301026E
:10314000109101021093CA070E94C4058093CB0717
:10315000209100022093CC079091F1059093CD0728
:1031600010930606809304022093030290930202B8
:103170008091B60A9091B70A90619093B70A8093B4
:10318000B60A8091A70A9091A80A90619093A80A24
:103190008093A70A8091980A9091990A90619093E0
:1031A000990A8093980A8091890A90918A0A90617D
:1031B00090938A0A8093890A80917A0A90917B0A77
:1031C000906190937B0A80937A0A80916B0A909128
:1031D0006C0A906190936C0A80936B0A80915C0AF0
:1031E00090915D0A906190935D0A80935C0A809152
:1031F0004D0A90914E0A906190934E0A80934D0A29
:1032000080913E0A90913F0A906190933F0A80938B
:103210003E0A80912F0A9091300A90619093300A73
:1032200080932F0A8091200A9091210A90619093B7
:10323000210A8093200A8091110A9091120A9061CC
:103240009093120A8093110A8091020A9091030AC6
:1032500090619093030A8093020A8091F309909100
:10326000F40990619093F4098093F309E6E0F8E0A3
:103270008FE0DF011D928A95E9F7E5E1F8E085E04E
:10328000DF011D928A95E9F702E016E032EFC32EC6
:1032900035E0D32E4BE3E42E42E0F42E56E0A52E8B
:1032A00056E0B52EF80111928F01D6011D921D92A4
:1032B0001D921D926D0161E0F70181917F010E94D5
:1032C0007F01A016B10671F760E08DE30E940B024A
:1032D0000E940D062091440830914508A4E6B0E014
:1032E0000E9479252AE096958795779567952A9586
:1032F000D1F7609343088AB1807F8AB98BB18F6020
:103300008BB91092C6071092C7071092C807109287
:10331000C9071092C2071092C3071092C4071092F7
:10332000C50710921D0810921A088091060280931A
:10333000080280910502809307028091CA0790914C
:10334000CB078150883008F080E080930508909387
:1033500007060E94D10D10922F0810922E0810928D
:1033600030081092310810923208109233081092EF
:1033700034081092350810923608109237081092CF
:1033800038081092390810923A0810923B081092AF
:103390003C0810923D0810923E0861E086E00E94D1
:1033A0000B028AB1807F8AB98BB18F608BB9809113
:1033B000690081608093690081E08CBBE89A80910C
:1033C000690080618093690084E08CBBEA9A0E9466
:1033D000730E0E94990D46E554E067E674E08CE6B2
:1033E00094E00E94BA0B7C9922C08091C1078111A0
:1033F0001EC081E08093C1070E94A00961E086E0C1
:103400000E940B0260E086E00E947F0105E010E070
:1034100061E080E10E947F010E94200460E080E181
:103420000E947F010E9420040150110989F785E064
:10343000A5E1B8E01D928A95E9F76FB163FB6627B5
:1034400060F982EB9AE00E9463066FB162FB662727
:1034500060F983EA9AE00E9463066FB16695617035
:1034600084E99AE00E9463066FB1617085E89AE092
:103470000E9463066FB16295617086E79AE00E94D0
:10348000630660910601617087E69AE00E94630618
:10349000609106016695617088E59AE00E94630676
:1034A0006091060162FB662760F989E49AE00E9458
:1034B00063066091060163FB662760F98AE39AE080
:1034C0000E94630660910601629561708BE29AE04A
:1034D0000E94630660B161708CE19AE00E9463060D
:1034E00060B162FB662760F98DE09AE00E94630696
:1034F00060B1629561708EEF99E00E94630660B1E1
:1035000066FB662760F98FEE99E00E94630640E74C
:1035100054E065E178E082EB9AE00E942A0C45E7EE
:1035200054E066E178E083EA9AE00E942A0C4BE7D7
:1035300054E067E178E084E99AE00E942A0C4EE7C3
:1035400054E068E178E085E89AE00E942A0C43E8BC
:1035500054E069E178E086E79AE00E942A0C67E689
:103560007AE08AE894E00E94060C68E57AE08FE849
:1035700094E00E94060C69E47AE084E994E00E94F9
:10358000060C6AE37AE089E994E00E94060C6BE29B
:103590007AE08EE994E00E94060C40E06CE17AE06B
:1035A00084EA94E00E94B40C41E06DE07AE089EA9C
:1035B00094E00E94B40C42E06EEF79E08EEA94E071
:1035C0000E94B40C43E06FEE79E083EB94E00E943C
:1035D000B40C8091B60A85FB882780F98093060891
:1035E0008091A70A85FB882780F98093070880913E
:1035F000980A85FB882780F9809308088091890ABA
:1036000085FB882780F98093090880917A0A909138
:103610007B0A85FB222720F920930A0880769927C8
:1036200021E08036910509F020E020930B0880917D
:103630006B0A85FB882780F980930C0880915C0ACF
:1036400085FB882780F980930D0880914D0A85FBC2
:10365000882780F980930E0880913E0A85FB882791
:1036600080F980930F0880912F0A85FB882780F9C5
:10367000809310088091200A85FB882780F9809329
:1036800011088091110A85FB882780F98093120820
:103690008091020A85FB882780F980931308809126
:1036A000F30985FB882780F9809314080E94070995
:1036B0000E94DB05811180930102F09001020E94BB
:1036C000C405E82E809106068F1509F10F2D10E034
:1036D00030E020E08FEF8F0D40EF53E0883050F462
:1036E0004F2D4150550BFA01EE0FFF1FE15CFD4FCE
:1036F0004081518163E972E08EE792E00E94500CB4
:103700008091050281110E944702F0920606809185
:103710000402E81609F440C051E0E51699F182E090
:1037200041E753E0E81230C04DE653E02DC005EA12
:1037300010E020E030E04AE454E06FE274E084E31B
:1037400094E00E94500C0B8D10E030E020E04AE243
:1037500054E06FE274E084E394E00E94500C0E8920
:1037600010E030E020E048E354E06FE274E084E3EE
:1037700094E00E94500C098110E030E020E042E526
:1037800054E0E4CB49E653E069EB74E08EE792E065
:103790000E94BA0BE0920402F092CA07E092CB07B3
:1037A0000E94AD05F82E8093CC070E949E05809361
:1037B000CD0780910302F816A9F00CB1007310E058
:1037C00030E020E042EF53E0FF2011F044EF53E0FF
:1037D0006DEB74E08EE792E00E94500C8091CC0774
:1037E000809303028091CD07909102028917B1F076
:1037F00046EF53E0811102C04DEF53E00091030109
:10380000037010E030E020E062EC74E08EE792E0BC
:103810000E94500C8091CD07809302028091C107D5
:10382000811145C00091CA07F090CB0701500830C4
:1038300008F000E080910508801739F1813089F0A7
:1038400090F0823009F4BAC2873079F410920208FD
:10385000109201080E94A90790E080E00E94E3090D
:1038600004C0109204080E94A90700930508802F45
:103870000E94D10D10E030E020E048EC54E063E914
:1038800072E08CEC94E00E94500C80910706F816D0
:1038900071F0F09207060F2D10E030E020E040EDCF
:1038A00054E069EB74E08CEC94E00E94500CA09121
:1038B0000806B09109062496BFAFAEAF24971497BF
:1038C00009F466C4E090EA07F090EB070091EC077A
:1038D0001091ED07EEAAFFAA08AF19AF0091D60725
:1038E0001091D7072091D8073091D9070AAF1BAFA5
:1038F0002CAF3DAF1091BA0725961FAF2597809149
:10390000BC07882351F18091EE079091EF07A091B9
:10391000F007B091F1072EA93FA948AD59AD28177E
:1039200039074A075B0709F004C48091DA079091D0
:10393000DB07A091DC07B091DD07EAACFBAC0CAD76
:103940001DADE816F9060A071B0709F0F2C310922D
:10395000BC071092F3071092DF078091BB072596F2
:10396000FFAC25978F15C1F0082F10E01DA70CA7FD
:103970004BE19801429F8001439F100D1124065F87
:10398000194FD8015A968C9181111BC2C901019619
:103990008F7099278093BB0724964EAD5FAD249717
:1039A0004130510509F0C5C38091BC078111C1C3E5
:1039B0009091BB078091BA079813BBC38091C10750
:1039C0008111B7C38FE0E6E0F8E0DE0111960190C7
:1039D0000D928A95E1F720910D0880910E08909143
:1039E0000F08B090100830910C08311153C611E047
:1039F000211101C010E099249394811106C081E047
:103A0000911101C080E0982E919401E0111101C044
:103A100000E0E02E88248394911001C0812CF82CC2
:103A2000112339F08091FF07811103C081E00E94CA
:103A30002B08882031F08091FE07811102C00E947E
:103A40002B08E092FF07F092FE07111103C09920A6
:103A500009F4B5C00E945504C090BD07D090BE07C0
:103A6000E090BF07F090C0079B01AC012C193D0905
:103A70004E095F0969017A0134E1C316D104E104FA
:103A8000F10408F49CC06093BD077093BE07809357
:103A9000BF079093C0078B2D0E94FC076B017C0130
:103AA0008B2D0E94FC072B013C01002309F445C02B
:103AB00081E00E9448086CA37DA38EA39FA3A12F41
:103AC000110FBB0BA70196010E949325ECA0FDA04E
:103AD0000EA11FA1E60EF71E081F191FB801A701AE
:103AE00081E00E9487086093DA077093DB07809378
:103AF000DC079093DD0781E08093DF070E94B00729
:103B00009B01AC0160E070E080E090E00FE10E947A
:103B10005226AFE5AA2EB6E7BB2EC12CD12CE12C44
:103B2000F12C00E010E00E94F5252093D20730939D
:103B3000D3074093D4075093D507882009F43FC09A
:103B400080E00E9448086B017C01A92D990CBB0BF9
:103B5000A30192010E949325AB01BC014C0D5D1D98
:103B60006E1D7F1D80E00E9487086093EE077093B2
:103B7000EF078093F0079093F10781E08093F307BC
:103B80000E94B0079B01AC0160E070E080E090E033
:103B90000FE10E945226EFE5AE2EF6E7BF2EC12CB4
:103BA000D12CE12CF12C00E010E00E94F5252093AF
:103BB000E6073093E7074093E8075093E907F89446
:103BC0008091C6079091C707A091C807B091C90717
:103BD00078944091C2075091C3076091C4077091D7
:103BE000C5077C018D01E41AF50A060B170BA80125
:103BF00097018093C2079093C307A093C407B09323
:103C0000C507211531054105510509F492C290906F
:103C1000CC079091CD078FE0E6E0F8E0DE01119649
:103C200001900D928A95E1F7FF24F3948091FF07AC
:103C30009F1421F0911004C08091FE07811179C278
:103C4000412C512C3201439412161306140615060A
:103C500024F044244A94542C320180911008882383
:103C600009F4E1C2A4E1B0E00E9488252B013C01E7
:103C700004E0909EF0011124EA50F84F8081918178
:103C8000A281B381840D951DA61DB71D80839183EC
:103C9000A283B38311E060E070E0CB01191518F046
:103CA000892D0E944808AB01BC01440D551D661DBD
:103CB000771D892D0E9487086CA37DA38EA39FA3E7
:103CC000B2EE2B2EB7E03B2E992021F0AEEC2A2E3F
:103CD000A7E03A2E2CA13DA14EA15FA1D1011C96D7
:103CE0002D933D934D935C931F9781E051968C9358
:103CF0000E94B0079B01AC0160E070E080E090E0C2
:103D00000FE10E945226EFE5AE2EF6E7BF2EC12C42
:103D1000D12CE12CF12C00E010E00E94F525F101FE
:103D2000248335834683578380910A02882309F4CC
:103D300000C277FE08C07094609450944094411C77
:103D4000511C611C711C64ED74E087E798E00E94CF
:103D5000B20B18E591101AE5812F0E94440568EE18
:103D600074E087E798E00E94B20B4AE0C301B20119
:103D70000E94590B80E20E944405812F0E94440555
:103D8000ECA0FDA00EA11FA117FF57C28DE20E945B
:103D900044056CA17DA18EA19FA190958095709501
:103DA00061957F4F8F4F9F4F4AE00E94590B6DE600
:103DB00072E087E798E00E944A0BBBC110920308AB
:103DC00052CD20E030E048E453E4F8016081718195
:103DD000828193810E94CE240E94E6234B015C01E4
:103DE00020E030E048E453E4D80114966D917D91D1
:103DF0008D919C9117970E94CE240E94E6236B011F
:103E00007C01B501A40180E00E9487084B015C01A0
:103E1000B701A60181E00E94870822966CAF7DAFB2
:103E20008EAF9FAF229724013501EEA8FFA808AD01
:103E300019AD4E185F08600A710A77FE08C07094C9
:103E4000609450944094411C511C611C711C22963A
:103E50000CAD1DAD2EAD3FAD22978AAD9BADACAD87
:103E6000BDAD081B190B2A0B3B0B0CA31DA32EA3E6
:103E70003FA337FF0BC030952095109501951F4F3C
:103E80002F4F3F4F0CA31DA32EA33FA3ECA0FDA0DB
:103E90000EA11FA1EAAAFBAA0CAB1DABE414F5040A
:103EA0000605170508F4B4C1EF28E02AE12A09F451
:103EB00028C12BE10CA51DA5209FF001219FF00D2D
:103EC0001124E65FF94FC084D184E284F38420E0BA
:103ED00030E040E85FE3C701B6010E946F2387FF2F
:103EE00006C0C12CD12C18ECE12E12E4F12E20E0FA
:103EF00030E048E453E4C701B6010E94CE2420E03C
:103F000030E040E752E40E9474230E94ED236938B8
:103F100033E173078105910520F068E873E180E0E3
:103F200090E068A779A78AA79BA7643671058105E9
:103F3000910540F484E690E0A0E0B0E088A799A75E
:103F4000AAA7BBA78092EE079092EF07A092F00776
:103F5000B092F1072296ECACFDAC0EAD1FAD2297EE
:103F6000E092DA07F092DB070093DC071093DD079D
:103F70000EA91FA928AD39AD081519052A053B055D
:103F800009F44BC1E8A4F9A40AA51BA5A80197014F
:103F900083017201110FEE08FE2C8701EEA6FFA629
:103FA00008AB19AB52016301EEA4FE2C0E2D1E2DA1
:103FB00060E070E080E090E00E949B25EAA8FBA80A
:103FC0000CA91DA957016801E12CF12C00E010E0BB
:103FD0000E94F525822E932EA42EB52E81149104D5
:103FE000A104B10421F4812C912C540183949401F7
:103FF000A50160E070E080E090E00FE10E945226B1
:10400000EFE5AE2EF6E7BF2EC12CD12CE12CF12C22
:1040100000E010E00E94F5252093E6073093E707C3
:104020004093E8075093E90781E08093F3070AADD6
:104030001BAD2CAD3DAD22968CAD9DADAEADBFADF3
:104040002297081719072A073B0709F4E9C0E8A4D3
:10405000F9A40AA51BA5170128018CA19DA1AEA159
:10406000BFA1BB0F880B982FDC01ACA0BDA0CEA0D8
:10407000DFA0E82EF82E082F182F9101A20160E092
:1040800070E080E090E00E949B25EAA8FBA80CA9C4
:104090001DA957016801E12CF12C00E010E00E94FD
:1040A000F525822E932EA42EB52E81149104A10401
:1040B000B10421F4812C912C540183949401A50125
:1040C00060E070E080E090E00FE10E9452261FE582
:1040D000A12E06E7B02EC12CD12CE12CF12C00E052
:1040E00010E00E94F5252093D2073093D307409328
:1040F000D4075093D50781E08093DF0781E0809358
:10410000BC072BE10CA51DA5209FF001219FF00D00
:104110001124E65FF94F128E8091BB0790E0019663
:104120008F7099278093BB078091BC07882309F47F
:10413000E6CB80910508823009F4A4C0873009F4E9
:10414000C0C0813029F580910408882309F180914D
:10415000220890912308A0912408B09125086DEEC3
:1041600074E00097A105B10581F040913F0850919E
:10417000400860914108709142084A3E53496440AA
:10418000710508F460C06DEF74E083E00E94BB0D20
:104190008FE0E6E0F8E0DE01119601900D928A953D
:1041A000E1F780910B0895E0E5E1F8E0DE01569635
:1041B00001900D929A95E1F795E0FE017696DE0169
:1041C0005B9601900D929A95E1F790911D089111DF
:1041D000A0C1882309F49AC080911C08811198C05D
:1041E00081E080931C0880931D0810921A0880912A
:1041F000060280930802809105028093070241E243
:1042000055E066E275E08EE792E00E94BA0B80C04E
:104210004AAA5BAA6CAA7DAA4CCE1092F30707CFDC
:104220001092DF076BCF913009F022CD29013A01BE
:10423000440C551C661C771C1BCD4AE06CA17DA16B
:104240008EA19FA1B2CDBF93AF939F938F938CE02C
:1042500095E09F938F931F9285E18F9321E030E04B
:104260002C0F3D1F3F932F930E948126BE016F5F4D
:104270007F4F82E00E94BB0D0FB6F894DEBF0FBEE9
:10428000CDBF86CF80910308882309F481CF809128
:1042900025088F93809124088F93809123088F9312
:1042A000809122088F938CE095E09F938F931F92CB
:1042B00085E18F9381E090E08C0F9D1F9F938F93FA
:1042C000D3CF80910208882309F462CF809101083E
:1042D000882309F45DCF1F9285E08F9380910008B9
:1042E0001F928F9385E195E09F938F931F9285E1B5
:1042F0008F93E1E0F0E0EC0FFD1FFF93EF930E943E
:104300008126BE016F5F7F4F83E0B4CF10921C08FF
:10431000C0903F08D0904008E0904108F0904208DB
:10432000C0923608D0923708E0923808F0923908E7
:104330000E9455044B015C0180912A0890912B0842
:10434000A0912C08B0912D08A5019401281B390BD0
:104350004A0B5B0BDA01C901883E9340A105B10508
:1043600008F45FC08091260890912708A091280842
:10437000B0912908A7019601281B390B4A0B5B0B4A
:10438000ACE3B0E00E94882528EB3BE040E050E041
:104390000E944F2589019A01009322081093230857
:1043A0002093240830932508009332081093330893
:1043B0002093340830933508C0922608D0922708FD
:1043C000E0922808F092290880922A0890922B08FF
:1043D000A0922C08B0922D0880911E0890911F0881
:1043E000A0912008B0912108081719072A073B0758
:1043F000C1F040ED54E06CE375E080E495E00E948C
:10440000500C8091220890912308A0912408B0912B
:10441000250880931E0890931F08A0932008B0934E
:1044200021080E94550400914A0810914B082091E0
:104430004C0830914D08601B710B820B930B643656
:1044400071058105910508F43FC00E940D06209179
:10445000440830914508A4E6B0E00E947925DC01CB
:10446000CB012AE0B695A795979587952A95D1F720
:10447000209143082817F1F08093430820914408C5
:1044800030914508A4E6B0E00E9479258B019C019B
:104490008AE036952795179507958A95D1F71127C4
:1044A0002227332745E455E069E475E08EE792E082
:1044B0000E94500C0E94550460934A0870934B0868
:1044C00080934C0890934D080E94730E0E945504EF
:1044D00000914608109147082091480830914908FA
:1044E000601B710B820B930B603571058105910583
:1044F00060F00E94990D0E945504609346087093E5
:10450000470880934808909349080E9469050C94D5
:10451000F319882361F080911B088111F9CE81E0A5
:1045200080931B0810921D0842EB53E06ACE8E89DF
:104530003F89288D998D4A8D10921B08442309F4D8
:1045400069C080910802853608F084E68A3008F454
:104550008AE08093060281E090910702911101C0E8
:1045600080E0809305020E94ED0F9E01205E3F4F88
:10457000AE014F5D5F4FBE016E5D7F4FCE018396F2
:104580000E94A80F8BA1853AE1F59AA186EF890FC9
:104590008B35B8F589A18230A0F5890F8B5598A18C
:1045A00098132FC00091060210E030E020E04AE2AC
:1045B00054E06BE275E084E394E00E94500C0091BB
:1045C000050210E030E020E048E354E06BE275E0E3
:1045D00084E394E00E94500C10921D088091070221
:1045E00081110E9447020091080210E030E020E0B3
:1045F0004AE254E066E275E08EE792E00E94500CD9
:1046000087CE40E355E06BE275E084E394E00E94DE
:10461000BA0BE2CF882339F080911A08882339F148
:10462000815080931A08332321F180911A08811157
:1046300003C081E080931A08222349F081E080932F
:104640000702992309F464CE1092070261CE9923E0
:1046500009F45ECE80911A088111F6CF809108028C
:104660008B3008F455CE85508093080251CE31111D
:10467000E0CF222361F380911A088111DFCF80916E
:104680000802843618F48B5F80930802992309F49A
:104690003FCEE4CF1FEF882309F4B1C9FF24F39480
:1046A0008824839499249394EE24E39401E01FEFEB
:1046B000B9C9F999FECF92BD81BDF89A992780B505
:1046C0000895262FF999FECF1FBA92BD81BD20BD56
:1046D0000FB6F894FA9AF99A0FBE019608950E94BF
:1046E000592408F481E008950E9488230C949424AE
:1046F0000E948D2458F00E94862440F029F45F3FE8
:1047000029F00C947D2451110C94C8240C9483241A
:104710000E94A52468F39923B1F3552391F3951BC7
:10472000550BBB27AA2762177307840738F09F5FD2
:104730005F4F220F331F441FAA1FA9F335D00E2E3F
:104740003AF0E0E832D091505040E695001CCAF7AC
:104750002BD0FE2F29D0660F771F881FBB1F26176F
:1047600037074807AB07B0E809F0BB0B802DBF0146
:10477000FF2793585F4F3AF09E3F510578F00C9415
:104780007D240C94C8245F3FE4F3983ED4F38695CF
:1047900077956795B795F7959F5FC9F7880F911D36
:1047A0009695879597F90895E1E0660F771F881F22
:1047B000BB1F621773078407BA0720F0621B730BD5
:1047C000840BBA0BEE1F88F7E09508950E94ED2345
:1047D0006894B1110C94C82408950E94AD2488F007
:1047E0009F5798F0B92F9927B751B0F0E1F0660FB5
:1047F000771F881F991F1AF0BA95C9F714C0B130F6
:1048000091F00E94C724B1E008950C94C724672F4B
:10481000782F8827B85F39F0B93FCCF38695779524
:104820006795B395D9F73EF490958095709561950D
:104830007F4F8F4F9F4F0895E89409C097FB3EF438
:1048400090958095709561957F4F8F4F9F4F9923DD
:10485000A9F0F92F96E9BB279395F695879577955B
:104860006795B795F111F8CFFAF4BB0F11F460FF1B
:104870001BC06F5F7F4F8F4F9F4F16C0882311F073
:1048800096E911C0772321F09EE8872F762F05C087
:10489000662371F096E8862F70E060E02AF09A9522
:1048A000660F771F881FDAF7880F9695879597F917
:1048B0000895990F0008550FAA0BE0E8FEEF1616B1
:1048C0001706E807F907C0F012161306E407F50704
:1048D00098F0621B730B840B950B39F40A2661F078
:1048E000232B242B252B21F408950A2609F4A1401B
:1048F000A6958FEF811D811D089597F99F6780E828
:1049000070E060E008959FEF80EC089500240A9421
:104910001616170618060906089500240A9412169A
:104920001306140605060895092E0394000C11F4CD
:10493000882352F0BB0F40F4BF2B11F460FF04C07A
:104940006F5F7F4F8F4F9F4F089557FD9058440FD3
:10495000551F59F05F3F71F04795880F97FB991FDE
:1049600061F09F3F79F0879508951216130614069B
:10497000551FF2CF4695F1DF08C016161706180628
:10498000991FF1CF86957105610508940895E89403
:10499000BB2766277727CB0197F908950E94E1246A
:1049A0000C9494240E94862438F00E948D2420F0D8
:1049B000952311F00C947D240C94832411240C94E1
:1049C000C8240E94A52470F3959FC1F3950F50E071
:1049D000551F629FF001729FBB27F00DB11D639FB1
:1049E000AA27F00DB11DAA1F649F6627B00DA11D57
:1049F000661F829F2227B00DA11D621F739FB00DFD
:104A0000A11D621F839FA00D611D221F749F33276C
:104A1000A00D611D231F849F600D211D822F762F05
:104A20006A2F11249F5750409AF0F1F088234AF0E2
:104A3000EE0FFF1FBB1F661F771F881F915050404E
:104A4000A9F79E3F510580F00C947D240C94C82456
:104A50005F3FE4F3983ED4F3869577956795B795D5
:104A6000F795E7959F5FC1F7FE2B880F911D9695EF
:104A7000879597F90895AA1BBB1B51E107C0AA1F90
:104A8000BB1FA617B70710F0A61BB70B881F991FEF
:104A90005A95A9F780959095BC01CD010895A1E2A2
:104AA0001A2EAA1BBB1BFD010DC0AA1FBB1FEE1FA8
:104AB000FF1FA217B307E407F50720F0A21BB30BF3
:104AC000E40BF50B661F771F881F991F1A9469F76F
:104AD00060957095809590959B01AC01BD01CF01CB
:104AE0000895EE0FFF1F881F8BBF0790F691E02DF2
:104AF0001994A29FB001B39FC001A39F700D811DA7
:104B00001124911DB29F700D811D1124911D0895D6
:104B10000E947925A59F900DB49F900DA49F800DB4
:104B2000911D11240895B7FF0C9488250E948825B3
:104B3000821B930B0895DF93CF931F930F939A9D3E
:104B4000F02D219FF00D8B9DF00D8A9DE02DF10D34
:104B5000039FF00D029FE00DF11D4E9DE00DF11D34
:104B60005E9DF00D4F9DF00D7F936F93BF92AF92BE
:104B70005F934F93D5010E9479258B01AC01D7013A
:104B80000E947925EB01E80FF91FD6010E94EA2562
:104B90002F913F91D6010E947925C60FD71FE81F9C
:104BA000F91FAF91BF910E94EA252F913F910E947A
:104BB0007925C60FD71FE81FF91FD6010E94792556
:104BC000E60FF71F9801BE01CF010F911F91CF9102
:104BD000DF9108950E947925460F571FC81FD91FDE
:104BE00008F431960895689401C0E8948F929F92DA
:104BF000CF93DF930E940126DF91CF919F908F90FA
:104C0000089588249924F401E401B0E49F93AA272D
:104C10009A158B049C04ED05FE05CF05D007A1076E
:104C200098F4AD2FDC2FCF2FFE2FE92D982C892E55
:104C3000982F872F762F652F542F432F322F22271F
:104C4000B85031F7BF9127C01B2EBF91BB27220F51
:104C5000331F441F551F661F771F881F991F881C0D
:104C6000991CEE1FFF1FCC1FDD1FAA1FBB1F8A143C
:104C70009B04EC05FD05CE05DF05A007B10748F054
:104C80008A189B08EC09FD09CE09DF09A00BB10BBE
:104C900021601A94E1F62EF49401AF01BE01CD011A
:104CA000000C0895002E083090F0982F872F762F53
:104CB000652F542F432F322F22270850F4CF220F75
:104CC000331F441F551F661F771F881F991F0A95A2
:104CD000B2F7002D0895DC0101C06D9341505040A2
:104CE000E0F70895FB01DC014150504048F001908D
:104CF0000D920020C9F701C01D9241505040E0F7CD
:104D000008950F931F93CF93DF93CDB7DEB72E9700
:104D10000FB6F894DEBF0FBECDBF0E891F89888DF8
:104D2000998D26E02C831A83098397FF02C080E0C7
:104D300090E801979E838D83AE01445E5F4F6A8D3C
:104D40007B8DCE0101960E94BE264D815E8157FD6E
:104D50000AC02F813885421753070CF49A01020FBD
:104D6000131FF80110822E960FB6F894DEBF0FBE07
:104D7000CDBFDF91CF911F910F9108952F923F9258
:104D80004F925F926F927F928F929F92AF92BF925B
:104D9000CF92DF92EF92FF920F931F93CF93DF9307
:104DA00000D000D000D01F921F92CDB7DEB77C019B
:104DB0003B018A01FC0117821682838181FFDDC1DC
:104DC000CE0101965C01F7019381F30193FD85917A
:104DD00093FF81913F01882309F453C1853239F44F
:104DE00093FD859193FF81913F01853229F4B701AD
:104DF00090E00E94D628E7CF912C212C312CFFE1A6
:104E0000F31538F08B3211F190F4803209F18332CE
:104E100029F137FC3CC020ED280F2A3050F536FE32
:104E200020C08AE0989E200D1124922E06C08D325B
:104E300091F0803371F7689430F8F30193FD859118
:104E400093FF81913F018111DACF21C0689431F83D
:104E5000689432F8F2CF689433F8EFCF689434F85E
:104E6000ECCFEAE02E9E200D1124222E689435F816
:104E7000E4CF8E3229F436FC04C1689436F8DDCFD5
:104E80008C3619F4689437F8D8CF8836B1F2982F59
:104E90009F7D95549330E0F08336A1F18337C1F1C3
:104EA000833509F063C02801F2E04F0E511CF80170
:104EB000C080D180692D70E036FC02C06FEF7FEFBB
:104EC000C6010E94C0284C01689437F882010AC0CC
:104ED0000C5F1F4FFFE3F98388248394912C6501B5
:104EE000E89437F833FE2DC0522C8114910471F5EB
:104EF000552009F468CFB70180E290E00E94D628DF
:104F00005A94F6CFF801808189830E5F1F4FE4CF5A
:104F10002801F2E04F0E511CF801C080D180692DAC
:104F200070E036FC02C06FEF7FEFC6010E94CB2815
:104F30004C018201D5CFB70180E290E00E94D628D3
:104F40002A942814190409F0B0F7CECFF60137FCE3
:104F5000859137FE81916F01B70190E00E94D628BC
:104F600051105A94F1E08F1A9108BFCF843619F08E
:104F7000893609F077C0F80137FE6BC06081718116
:104F8000828193810C5F1F4FF32DFF763F2E97FF99
:104F900009C090958095709561957F4F8F4F9F4F79
:104FA000689437F82AE030E0A5010E940629C82E4F
:104FB000CA188C2C432C36FE0CC0E89440F8C91457
:104FC00040F434FE05C032FC03C0F32DFE7E4F2EAC
:104FD000892C44FEAAC0FE01EC0DF11D80818033B6
:104FE00009F09CC0242D297E422E842D8870582ED5
:104FF00043FCAAC040FEA4C09C2C821418F42C0CC4
:10500000922C981844FEA6C0B70180E390E00E945D
:10501000D62842FE09C088E790E041FE02C088E53C
:1050200090E0B7010E94D628C91408F49FC0CA9422
:10503000D12C9FEFC91AD90ACA0CDB1CF601829148
:105040006F01B70190E00E94D628AC14BD04B1F7FF
:105050004FCF60817181072E000C880B990B0E5F7A
:105060001F4F92CFD32CE894D4F82AE030E0853754
:10507000E1F1232D297FD22E8F36A9F1F0F4883566
:1050800051F1F701868197812B960FB6F894DEBF18
:105090000FBECDBFDF91CF911F910F91FF90EF9089
:1050A000DF90CF90BF90AF909F908F907F906F9048
:1050B0005F904F903F902F900895803749F0883748
:1050C00001F7D4FE02C06894D2F820E130E00DC0B0
:1050D0006894D4F8F6CF34FE03C0822F8660D82EB1
:1050E00020E132E002C028E030E0F801D7FE0FC036
:1050F00060817181828193810C5F1F4FA5010E94A5
:105100000629C82ECA183D2CE89437F852CF608182
:10511000718190E080E00E5F1F4FF0CF42FC02C033
:10512000839463CF8394839460CF842D867809F42D
:105130005CCFF6CFB70180E290E00E94D62883943E
:105140008214C0F3512C5ECF522C5818821408F4EC
:1051500059CFF8CF842D867809F466CF8BE241FED3
:1051600080E247FC8DE2B70190E05CCFB70180E3BD
:1051700090E00E94D6289A9457CF8FEF9FEF84CF6C
:10518000FC010590615070400110D8F78095909512
:105190008E0F9F1F0895FC01615070400190011017
:1051A000D8F7809590958E0F9F1F08950F931F93AA
:1051B000CF93DF93182F092FEB018B8181FD09C05D
:1051C0001FEF0FEF812F902FDF91CF911F910F9144
:1051D000089582FF14C02E813F818C819D81281704
:1051E00039073CF4E881F981CF01019699838883DE
:1051F00010838E819F8101969F838E83E3CFE88504
:10520000F985812F1995892BA1F3DACFFA01AA2705
:10521000283051F1203181F1E8946F936E7F6E5FF9
:105220007F4F8F4F9F4FAF4FB1E03ED0B4E03CD0A7
:10523000670F781F891F9A1FA11D680F791F8A1F8A
:10524000911DA11D6A0F711D811D911DA11D20D0F1
:1052500009F468943F912AE0269F11243019305DAB
:105260003193DEF6CF010895462F4770405D41939C
:10527000B3E00FD0C9F7F6CF462F4F70405D4A33E9
:1052800018F0495D31FD4052419302D0A9F7EACFB1
:10529000B4E0A6959795879577956795BA95C9F7E0
:1052A00000976105710508959B01AC010A2E0694D3
:1052B0005795479537952795BA95C9F7620F731F8C
:1052C000841F951FA01D0895F894FFCF0101FFFFD3
:1052D000FF01640164FF0100000100000100020001
:1052E00001020003000203000200030100000004A9
:1052F000050004000504000000060400010007A4E6
:1053000004A904AE04B3041D191B174D0553055819
:10531000055F0567056C0573057B0500000000F758
:105320000461048E044905BF049D04B1040000001B
:1053300000440B61049B059A050D0A00494E464F37
:10534000005D205B00484F4C440055490042544EDC
:10535000006F6666004C494D004153594E43204D45
:105360004F4445004D414E00583A20202020205AFD
:105370003A00466565643A00466565642F72657655
:105380003A20302E310052504D3A203000526561A3
:10539000647900544852454144204D4F44450050E3
:1053A000697463683A20312E306D6D0053656C6509
:1053B0006374207069746368004348414D464552E8
:1053C00000416E676C653A2034350044657074683E
:1053D0003A20312E3000434F4E450053504845523D
:1053E0004500444956494445520050617274733A2D
:1053F00020333600416E676C653A20302E30005005
:105400006172743A20302F3336004752494E44209F
:105410004D4F44450044657074683A20302E303159
:10542000306D6D005061737365733A2035004F4ED7
:10543000004F46460045787400496E74004D616E19
:1054400000454C5320416C6578412056322E310086
:1054500053455454494E47530025634665656420BF
:105460006D61783A202575252500256342757A7A85
:1054700065723A20257300486C6453656C3D636126
:105480006E63656C004D3A2575202573204D783A82
:105490002575004D504720256320252B6C64204640
:1054A0003A2575252500583A252B6C64205A3A2553
:1054B0002B6C642052504D3A256C75003F0058000B
:1054C0005A00302E30316D6D007831737465700084
:1054D000454C5320416C6578412056322E31205383
:1054E0007461676520322E3264205374617274696E
:1054F0006E672E2E2E0066656564004C4F41440099
:105500004346470062757A7A0064656661756C741B
:1055100073206E6577006261642072617700737535
:105520006D00537461676520322E326420726561AC
:10553000647900494E495400535953004C656674D0
:1055400000526967687400557000446F776E0053AD
:10555000656C656374004A6F794C004A6F7952003C
:105560004A6F7955004A6F7944005261706964004E
:105570004C696D4C004C696D46004C696D52004C95
:10558000696D5265005355420041584953005343D9
:10559000414C45006964780046534D0076616C00CB
:1055A0005B494E464F5D205B4D4F545D205B4A4F3B
:1055B000475D200073747020005370696E646C65E1
:1055C0002073746F70706564004672657120746F2B
:1055D0006F2068696768210052504D3A20256C752C
:1055E00000506173733A2025642F2564006F706545
:1055F0006E004D454E550053415645007665726923
:105600006679206661696C0052504D005350444CDD
:105610000070637400504F54004173796E630053FF
:10562000796E6300546872656164004368616D66F9
:10563000657200436F6E6500537068657265004463
:0E564000697669646572004772696E640000E5
:020000040003F7
:10E000000D9489F10D94B2F10D94B2F10D94B2F129
:10E010000D94B2F10D94B2F10D94B2F10D94B2F1F0
:10E020000D94B2F10D94B2F10D94B2F10D94B2F1E0
:10E030000D94B2F10D94B2F10D94B2F10D94B2F1D0
:10E040000D94B2F10D94B2F10D94B2F10D94B2F1C0
:10E050000D94B2F10D94B2F10D94B2F10D94B2F1B0
:10E060000D94B2F10D94B2F10D94B2F10D94B2F1A0
:10E070000D94B2F10D94B2F10D94B2F10D94B2F190
:10E080000D94B2F10D94B2F10D94B2F10D94B2F180
:10E090000D94B2F10D94B2F10D94B2F10D94B2F170
:10E0A0000D94B2F10D94B2F10D94B2F10D94B2F160
:10E0B0000D94B2F10D94B2F10D94B2F10D94B2F150
:10E0C0000D94B2F10D94B2F10D94B2F10D94B2F140
:10E0D0000D94B2F10D94B2F10D94B2F10D94B2F130
:10E0E0000D94B2F141546D656761323536300041AF
:10E0F000726475696E6F206578706C6F72657220DE
:10E1000073746B3530305632206279204D4C530099
:10E11000426F6F746C6F616465723E004875683F52
:10E1200000436F6D70696C6564206F6E203D200048
:10E130004350552054797065202020203D20005FF9
:10E140005F4156525F415243485F5F3D2000415658
:10E1500052204C696243205665723D20004743437C
:10E160002056657273696F6E203D20004350552024
:10E1700049442020202020203D20004C6F7720663D
:10E18000757365202020203D20004869676820665F
:10E190007573652020203D200045787420667573D6
:10E1A00065202020203D20004C6F636B2066757336
:10E1B000652020203D20004D617220203720323024
:10E1C000313300312E362E3800342E332E350056A2
:10E1D00023202020414444522020206F7020636F70
:10E1E00064652020202020696E73747275637469E1
:10E1F0006F6E2061646472202020496E74657272B3
:10E20000757074006E6F20766563746F7200726A49
:10E210006D702020006A6D70200057686174207056
:10E220006F72743A00506F7274206E6F7420737541
:10E2300070706F72746564004D7573742062652030
:10E2400061206C6574746572002000577269747483
:10E25000696E672045450052656164696E672045B7
:10E26000450045452065727220636E743D00504F35
:10E27000525400303D5A65726F2061646472003FF1
:10E280003D43505520737461747300403D454550C3
:10E29000524F4D207465737400423D426C696E6B41
:10E2A000204C454400453D44756D70204545505215
:10E2B0004F4D00463D44756D7020464C415348001B
:10E2C000483D48656C70004C3D4C69737420492F83
:10E2D0004F20506F72747300513D51756974005234
:10E2E0003D44756D702052414D00563D73686F7707
:10E2F00020696E7465727275707420566563746FF0
:10E30000727300593D506F727420626C696E6B00BD
:10E310002A0011241FBECFEFD1E2DEBFCDBF01E046
:10E320000CBF12E0A0E0B2E0EEE1FDEF03E00BBFB6
:10E3300002C007900D92A030B107D9F712E0A0E01B
:10E34000B2E001C01D92AE30B107E1F70F9460F367
:10E350000D948DFE01E20EBF0FEF0DBF11241FBE05
:10E360000D9460F30D9400F020E030E040ED57E0B4
:10E3700005C0FA013197F1F72F5F3F4F2817390792
:10E38000C0F308959C01260F311DC901A0E0B0E043
:10E390002F5F3F4FABBFFC018791882361F08093D3
:10E3A000C6008091C00086FFFCCF8091C0008064D1
:10E3B0008093C000EACF08958DE08093C6008091DD
:10E3C000C00086FFFCCF8091C00080648093C000B5
:10E3D0008AE08093C6008091C00086FFFCCF8091C8
:10E3E000C00080648093C00008950F94C2F10F9420
:10E3F000DCF10895FC019081992359F09093C600B7
:10E400008091C00086FFFCCF8091C0008064809323
:10E41000C0003196992379F70895282F982F929567
:10E420009F70892F805D8A3308F0895F8093C600D2
:10E430008091C00086FFFCCF8091C00080648093F3
:10E44000C000822F8F70982F905D9A3308F0995FEB
:10E450009093C6008091C00086FFFCCF8091C000E1
:10E4600080648093C00008959C01FB01853691056E
:10E470001CF46330710594F0C90164E670E00F94F8
