:100000000C94DA020C94AA440C940B030C947344E1
:100010000C940B030C940B030C940B030C940B0328
:100020000C940B030C940B030C940B030C940B0318
:100030000C940B030C9409420C940B030C94244372
:100040000C940B030C9454430C940B030C940B036F
:100050000C940B030C940B030C940B030C94BF41F6
:100060000C940B030C9493420C9469420C940B0374
:100070000C940B030C940B030C940B030C940B03C8
:100080000C9419430C940B030C940B030C940B036A
:100090000C940B030C940B030C940B030C940B03A8
:1000A0000C940B030C940B030C94F1420C940B0373
:1000B0000C940B030C940B030C940B030C94C9428B
:1000C0000C940B030C940B030C940B030C940B0378
:1000D0000C940B030C940B030C940B030C940B0368
:1000E0000C940B030C945C560C94E7440C94A254AF
:1000F0000C94CC340C944F040C9437040C943B04B3
:100100000C9416550C940F0D0C94741A0C946A559B
:100110000C94BD1C0C94D8550C94891B0C94D51CC4
:100120000C9446080C942D070C942E560C94C01B6E
:100130000C9445550C94E3550C9453040C94020410
:100140000C94EB1A0C94F1060C94B41A0C94200441
:100150000C94A61B0C9422350C94DA1B0C944107CA
:100160000C9414040C9433040C94891C0C94A11B5F
:100170000C945A550C94C3530C943B550C94003575
:100180000C9446560C947F550C9449040C94B91A5F
:100190000C9429040C941E070C942D040C94251C1B
:1001A0000C9402550C94DA0C0C94DF540C94FD035F
:1001B0000C94EB0C0C940A1C0C9477540C941804BB
:1001C0000C9441040C94ED1C0C94051D0C94B95531
:1001D0000C9415350C94C9540C94F01A0C940A1B09
:1001E0000C94C3550C9445040C946F1B0C94293546
:1001F0000C942B550C94D31A0C943B350C94EB3483
:100200000C94AC1A0C94921A0C9423040C94EE5493
:100210000C943C1B0C94A9550C9426350C943C0D65
:100220000C944F070C94F6550C94A31C0C94945505
:100230000C94571C0C94FE0C0C9487070C941A56C3
:100240000C948F540C944A1F0C94241B0C94711C16
:100250000C9445080C94B6540C94F4070C94C70CF9
:100260000C94F21B0C941C040C9402560C943F1C2E
:100270000C94541B6364696E6F70737578585B00DF
:10028000205B27242720666F722068656C705D00F4
:100290006F6B006572726F723A20007C52504D3A5B
:1002A000007C4D3A007C46534D3A003C4D506F73F4
:1002B0003A00000020002300260029002C002F0017
:1002C000320000010000030106010901242420611D
:1002D0006C6C2C20246E2071756572792C20246E34
:1002E0003D76616C207365742C20244920696E660C
:1002F0006F2C203F20737461747573002434342094
:10030000636F6F726420756E69747320303D73740F
:1003100065707320313D6D6D20323D696E636800FC
:10032000243435206261636B6C617368206D696E83
:10033000207370656564206D6D2F6D696E002434C7
:1003400033206261636B6C617368206D6178207328
:1003500070656564206D6D2F6D696E0024343020EA
:100360006261636B6C617368206175746F2C20240B
:1003700034312D24343220582F5A20737465707311
:1003800000243332206A6F6720646563656C206DDA
:10039000696E2073746570732028303D6F6666291E
:1003A00000243330207370696E646C6520505052A5
:1003B0002C202433312062757A7A6572002432361B
:1003C00020582073746570732F6D6D2C2024323784
:1003D00020582064697220696E7665727400243238
:1003E000302D2432352058206D6F746F722F757345
:1003F0007465702F70697463682F6D61782F7261F6
:100400007069642F616363656C00243136205A2063
:1004100073746570732F6D6D2C20243137205A2032
:1004200064697220696E76657274002431302D24FF
:100430003135205A206D6F746F722F75737465702B
:100440002F70697463682F6D61782F7261706964B1
:100450002F616363656C0024322D24332073796E21
:10046000632066656564206D696E2F6D6178206D0F
:100470006D2F7265760024302D2431206173796EE2
:10048000632066656564206D696E2F6D6178206DEF
:100490006D2F6D696E002C454550524F4D5D005BD0
:1004A0004F50543A005B5645523A00000021002458
:1004B0000027002A002D0030003300010100000455
:1004C0000107010A0100000A0B02090C0D0E0807C2
:1004D0000304010000000000000000000000000014
:1004E000000000000000000000000000000000000C
:1004F00000121110000000000000000000000000C9
:100500000000000000000000000000010210202098
:100510000808102040102040800201020108040257
:1005200001010204081020408080402010080402CD
:100530000180040201804020100804020108040226
:10054000010102040810204080010204081020402C
:100550008000002200250028002B002E00310034EE
:100560000002010000050108010B01050505050752
:100570000508080808020202020A0A08080404041E
:10058000040101010101010101030303030303034A
:1005900003040707070C0C0C0C0C0C0C0C020202D9
:1005A0000206060606060606060B0B0B0B0B0B0BCC
:1005B0000B02E74411241FBECFEFD1E2DEBFCDBF57
:1005C00000E00CBF16E0A0E0B2E0EAE4F5EC00E0E9
:1005D0000BBF02C007900D92AA3EB107D9F72EE0DB
:1005E000AAEEB6E001C01D92AC36B207E1F712E008
:1005F000CAEDD2E000E006C021970109802FFE017C
:100600000E944E5BC93DD10780E00807A9F70E9410
:10061000C8460C94A3620C94000080917B00877FF5
:1006200080937B0087E480937C0080917A008064D3
:1006300080937A0080917A0086FDFCCF80917800CB
:1006400090917900089581110EC01092D10B81E034
:100650008093D00B1092CC0B1092CD0B1092CE0B3E
:100660001092CF0B08951092D70B81E08093D60B98
:100670001092D20B1092D30B1092D40B1092D50B78
:100680000895CF92DF92EF92FF920F931F93CF9333
:10069000DF938A01D62FC72F811181E09BE0899FCC
:1006A000F0011124E655F44F6581768190E080E0F9
:1006B0000E9465596B017C0120E030E040E85FE377
:1006C000B8018D2F9C2F0E94B85887FF04C000E00E
:1006D00010E0D0E8CFE39601A701B8018D2F9C2F41
:1006E0000E94175A18161CF48601DE2DCF2DB80172
:1006F0008D2F9C2FDF91CF911F910F91FF90EF9045
:10070000DF90CF9008950F931F938091510B882312
:1007100009F43FC04091590B50915A0B60915B0B0B
:1007200070915C0B00915D0B10915E0B20915F0B43
:100730003091600B8091530B8823A9F08091610B5D
:100740009091620BA091630BB091640B81159F4F48
:10075000AF4FBF4F40F081E004171507260737075A
:10076000A8F080E013C00417150726073707C8F75D
:100770008091610B9091620BA091630BB091640B1F
:1007800084179507A607B70730F482E01F910F91F1
:1007900008958FEFFBCF81E0F9CF282F30E0F901EA
:1007A000EB53FB4F9491F901E55FFA4F44912559C2
:1007B0003A4FF9012491222309F435C0992311F10C
:1007C00091509231F8F4E92FF0E08827E551FC4F81
:1007D0008F4F0C944E5B1C042004FD03140418047A
:1007E0000204230429042D04330437043B04410488
:1007F0004504020449044F045304809180008F771C
:1008000080938000E22FF0E0EE0FFF1FEF5AFA4FC7
:10081000A591B4918FB7F894EC91611148C04095BF
:100820004E234C938FBF0895809180008F7DE8CF39
:1008300080918000877FE4CF84B58F7784BDE2CF3D
:1008400084B58F7DFBCF8091B0008F778093B0000F
:10085000D9CF8091B0008F7DF9CF809190008F77B4
:1008600080939000CFCF809190008F7DF9CF8091C1
:100870009000877FF5CF8091A0008F778093A000B4
:10088000C1CF8091A0008F7DF9CF8091A000877F9C
:10089000F5CF809120018F7780932001B3CF809195
:1008A00020018F7DF9CF80912001877FF5CF4E2BDE
:1008B000B8CFCF93DF9390E0FC01E55FFA4F24912E
:1008C00085599A4FFC0184918823C9F090E0880FE4
:1008D000991FFC01E555FB4FA591B491FC01EF5A1E
:1008E000FA4FC591D49161110DC09FB7F8948C91C6
:1008F000209582238C938881282328839FBFDF91B2
:10090000CF910895623051F49FB7F8943C91822FB3
:10091000809583238C93E8812E2BEFCF8FB7F894AB
:10092000EC912E2B2C938FBFEACFCF938091340282
:10093000803121F08F3F61F1CF910895E1EBF5E037
:10094000C491C7FDF9CF61E080E10E945904CC2336
:1009500009F4F1C0C23009F006C18091B100887F6E
:1009600083608093B10083E68093B30088EC90E0CD
:10097000A0E0B0E08093040B9093050BA093060BCE
:10098000B093070B80917000826080937000D4CF89
:1009900080E180933402E1EBF5E0C4918C2FCF3FEE
:1009A00059F2C23009F468C060F4CC2379F1C13047
:1009B00009F444C087FDC0CF61E080E10E94590482
:1009C000C9CFC43009F499C008F478C0C53091F794
:1009D0001092200110922101809121018860809362
:1009E000210180912101816080932101EBE7F5E0F5
:1009F000E491F0E0EE0FFF1FEF5AFA4F85919491CA
:100A0000EBE1F5E0E491E093F00A9DCF14BC15BC56
:100A100084B5826084BD85B5816085BDEBE7F5E076
:100A2000E491F0E0EE0FFF1FEF5AFA4F8591949199
:100A3000EBE1F5E0E491E093F70A85CF10928000B6
:100A40001092810080918100886080938100809164
:100A50008100816080938100EBE7F5E0E491F0E0B4
:100A6000EE0FFF1FEF5AFA4F85919491EBE1F5E0FD
:100A7000E491E093F60A67CF1092B0001092B100B3
:100A80008091B00082608093B0008091B10081605D
:100A90008093B100EBE7F5E0E491F0E0EE0FFF1F8B
:100AA000EF5AFA4F859194919093F50A8093F40A46
:100AB000EBE1F5E0E491E093F30A45CF109290006A
:100AC00010929100809191008860809391008091B4
:100AD0009100816080939100EBE7F5E0E491F0E014
:100AE000EE0FFF1FEF5AFA4F85919491EBE1F5E07D
:100AF000E491E093F20AC3E026CF1092A000109296
:100B0000A1008091A10088608093A1008091A10044
:100B100081608093A100EBE7F5E0E491F0E0EE0F57
:100B2000FF1FEF5AFA4F85919491EBE1F5E0E491C4
:100B3000E093F10A08CF85B5887F836085BD81E3A6
:100B400087BD88EC90E0A0E0B0E080930C0B909320
:100B50000D0BA0930E0BB0930F0B80916E00826073
:100B600080936E00E9CEC130F1F480918100887FDE
:100B70008160809381008FE79CE09093890080934F
:100B8000880088EC90E0A0E0B0E08093080B9093A0
:100B9000090BA0930A0BB0930B0B80916F0082603E
:100BA00080936F00C9CEC330F1F480919100887FAB
:100BB0008160809391008FE79CE0909399008093EF
:100BC000980088EC90E0A0E0B0E08093000B909358
:100BD000010BA093020BB093030B80917100826014
:100BE00080937100A9CEC430F1F48091A100887F78
:100BF00081608093A1008FE79CE09093A90080938F
:100C0000A80088EC90E0A0E0B0E08093FC0A90930C
:100C1000FD0AA093FE0AB093FF0A809172008260E1
:100C20008093720089CEC530F1F480912101887FD4
:100C30008160809321018FE79CE09093290180934C
:100C4000280188EC90E0A0E0B0E08093F80A90934F
:100C5000F90AA093FA0AB093FB0A809173008260AC
:100C60008093730069CEC23091F034F4CC2369F0E4
:100C7000C13009F061CE7FCFC43009F4BCCF0CF491
:100C80009ACFC53009F058CED6CF8FE759CF8FE72E
:100C90006BCE3FB7F8948091EC0A9091ED0AA09149
:100CA000EE0AB091EF0A26B5A89B05C02F3F19F0B8
:100CB0000196A11DB11D3FBFBA2FA92F982F8827DC
:100CC000BC01CD01620F711D811D911D42E0660FB7
:100CD000771F881F991F4A95D1F708958F929F9289
:100CE000AF92BF92CF92DF92EF92FF924B015C01E5
:100CF0000E9449066B017C010E9449066C197D091E
:100D00008E099F09683E734081059105A8F321E093
:100D1000821A9108A108B10888EEC80E83E0D81E97
:100D2000E11CF11C81149104A104B10429F7FF9086
:100D3000EF90DF90CF90BF90AF909F908F900895ED
:100D40002FB7F8946091E80A7091E90A8091EA0A55
:100D50009091EB0A2FBF08959091340289130DC032
:100D6000E1EBF5E0E4919FEF90933402E230E1F0A3
:100D700038F4EE2381F0E13089F060E00C94CD038B
:100D8000E43049F110F1E530C1F7909173009D7F97
:100D900090937300F2CF10926E00EFCF90916F009E
:100DA0009D7F90936F00E9CF909170009D7F90930D
:100DB000700091E09093B0009091B100987F9460A2
:100DC0009093B1001092B300D8CF909171009D7FA5
:100DD00090937100D2CF909172009D7F909372009A
:100DE000CCCFAF92BF92CF92DF92EF92FF920F9350
:100DF0001F93CF93DF936C017B018B01040F151FB1
:100E0000EB015E01AE18BF08C017D10759F0699118
:100E1000D601ED91FC910190F081E02DC60119956C
:100E2000892B79F7C501DF91CF911F910F91FF9029
:100E3000EF90DF90CF90BF90AF900895FC01538D5D
:100E4000448D252F30E0842F90E0821B930B5417A4
:100E500010F0CF96089501970895FC01918D828D31
:100E6000981761F0A28DAE0FBF2FB11D5D968C91CA
:100E7000928D9F5F9F73928F90E008958FEF9FEF09
:100E80000895FC01918D828D981731F0828DE80FC5
:100E9000F11D858D90E008958FEF9FEF0895FC017F
:100EA000918D228D892F90E0805C9F4F821B91094C
:100EB0008F739927089582E29CE00E944F0721E0FA
:100EC000892B09F420E0822F0895FC01A48DA80F3E
:100ED000B92FB11DA35ABF4F2C91848D90E001967C
:100EE0008F739927848FA689B7892C93A089B1899C
:100EF0008C91837080648C93938D848D981306C03D
:100F00000288F389E02D80818F7D80830895EF92A0
:100F1000FF920F931F93CF93DF93EC0181E0888FB3
:100F20009B8D8C8D98131AC0E889F989808185FF83
:100F300015C09FB7F894EE89FF896083E889F98925
:100F400080818370806480839FBF81E090E0DF9127
:100F5000CF911F910F91FF90EF900895F62E0B8D7A
:100F600010E00F5F1F4F0F731127E02E8C8D8E1135
:100F70000CC00FB607FCFACFE889F989808185FF9C
:100F8000F5CFCE010E946507F1CFEB8DEC0FFD2F61
:100F9000F11DE35AFF4FF0829FB7F8940B8FEA8957
:100FA000FB8980818062CFCF0F931F93CF93DF9314
:100FB0008C01D0E0C0E0F801EC0FFD1F64916623C6
:100FC00041F082E29CE00E948707892B11F0219674
:100FD000F2CFCE01DF91CF911F910F910895682F2D
:100FE00082E29CE00C948707CF93DF93EC01888D1D
:100FF0008823B9F0AA89BB89E889F9898C9185FD94
:1010000003C0808186FD0DC00FB607FCF7CF8C9121
:1010100085FFF2CF808185FFEDCFCE010E9465076D
:10102000E9CFDF91CF91089580E090E0892B29F0FE
:101030000E945B0781110E94000080E090E0892BF4
:1010400049F080E090E0892B29F00E940000811196
:101050000E94000080E090E0892B49F080E090E061
:10106000892B29F00E94000081110E94000080E07D
:1010700090E0892B49F080E090E0892B29F00E94D4
:10108000000081110C9400000895089590E080E024
:101090000895809103018370823029F41092BC0777
:1010A0008091BC0708958130D9F78093BC07F8CFB1
:1010B0008091C30C9091C40C807299272091D20C1E
:1010C00025FF08C0892B19F481E0809303028091E9
:1010D00003020895892BD9F310920302F8CF80916F
:1010E000FF0C85FF04C082E08093BB0706C080919F
:1010F000F00C85FF05C01092BB078091BB070895D7
:101100008091E10C85FFF7CF81E0EECF8091770DE4
:1011100085FD1EC08091680D85FD1CC08091590D14
:1011200085FD1AC080914A0D85FD18C080913B0D48
:1011300085FD16C080912C0D85FD14C080911D0D7C
:1011400085FD12C080910E0D85FD10C080E00895D0
:1011500081E0089582E0089583E0089584E0089591
:1011600085E0089586E0089587E0089588E0089571
:101170000E940D032091B9073091BA07A9014C5F75
:101180005F4F481759072CF02450310982179307F5
:1011900044F52091B507E22FF0E0EE0FFF1FEB566C
:1011A000F84F4091B6075091B70760817181461B97
:1011B000570B91838083840F951F9093B70780937B
:1011C000B6072F5F2F702093B50744E0969587955B
:1011D0004A95E1F79093BA078093B90781E080932D
:1011E000B80708950C94950480E0E82FF0E0E852E9
:1011F000F44F9081992341F090539A3018F48093E2
:10120000EC0708958F5FF1CF1092EC07089580915D
:10121000EC0790E0FC01E852F44F208120532A3083
:10122000B0F0019748F0FC01E852F44F20812053C0
:101230002A30B8F78093EC07E091EC07F0E0E85231
:10124000F44F808180538A3010F00C94F408089594
:10125000E4ECFBE08081918190932C0280932B023F
:101260008281938190932A028093290284819581BF
:10127000909328028093270286819781909326027B
:1012800080932502EAEAFBE083859485909324020B
:10129000809323028585809322028685978590938B
:1012A0002102809320028089918990931F0280936C
:1012B0001E028289938990931D0280931C02848967
:1012C00080931B028081918190931A02809319026E
:1012D0008281809318028381948190931702809376
:1012E000160285819681909315028093140287815E
:1012F000908590931302809312028185809311024E
:1013000085898093D30782858093D20786899789C0
:1013100090930202809301028091350280932D0206
:10132000A3EABBE08C918093100211968D919C9161
:10133000129790930F0280930E0213968D919C91B9
:10134000149790930D0280930C0215968C9115972B
:1013500090E090930B0280930A0216968C9190E095
:101360009093090280930802808D918D9093D1070C
:101370008093D0078091A20B8093CF0708958A3184
:1013800070F4E82FF0E0EE0FFF1FE851FD4F0190E1
:10139000F081E02D309719F06083718308958550B6
:1013A000863160F4E82FF0E0EE0FFF1FE454FD4FAC
:1013B0000190F081E02D309709F0608308958A3123
:1013C00070F4E82FF0E0EE0FFF1FE851FD4F0190A1
:1013D000F081E02D309719F080819181089585503A
:1013E000863170F4E82FF0E0EE0FFF1FE454FD4F5C
:1013F0000190F081E02D309719F0808190E0089500
:1014000090E080E00895F8948091D8079091D907F2
:10141000A091DA07B091DB078093D4079093D507AA
:10142000A093D607B093D70778940895F8941092B4
:10143000D8071092D9071092DA071092DB071092A2
:10144000D4071092D5071092D6071092D707789438
:1014500008950F931F93F8946091D8077091D9075E
:101460008091DA079091DB070091D4071091D5079E
:101470002091D6073091D707601B710B820B930B1D
:101480001616170618061906A4F40F5F1F4F2F4FE4
:101490003F4F0093D4071093D5072093D60730937E
:1014A000D707789461E070E080E090E01F910F91A1
:1014B0000895611571058105910589F001501109A3
:1014C000210931090093D4071093D5072093D6073B
:1014D0003093D70778946FEF7FEFCB01E7CF789405
:1014E000E5CF0F931F93F8946091D8077091D907B7
:1014F0008091DA079091DB0778940091D4071091DE
:10150000D5072091D6073091D707601B710B820B4E
:10151000930B1F910F910895E2E1FEE01182848107
:1015200095818827907195838483E3E0FEE01182A2
:10153000848195818827907195838483E4EFFDE011
:101540001182848195818827907195838483E5EE4B
:10155000FDE0118284819581882790719583848331
:10156000E6EDFDE011828481958188279071958355
:10157000848308958091C40781110FC08091C507AD
:1015800081110BC08091C607811107C081E0909145
:10159000C707911103C080E0089581E008952FE00E
:1015A000EEEBF7E0DC0101900D922A95E1F708954A
:1015B000CF93DF93FC012481358133FF10C0EC0110
:1015C0000E94A0062A813B81621B730B2E85F0E1ED
:1015D0002F9F9001112481E06217730708F480E0C7
:1015E000DF91CF9108951F93CF93DF93EC018C810E
:1015F0009D8180FD19829C012F713327232B19F0C7
:10160000807E9D838C838C819D8194FB112710F9B2
:10161000162796FF04C09F7B9D838C8311E08C81ED
:101620009D8191FD10C011110BC0CE010E94D80AFE
:10163000182F8111C0C0812FDF91CF911F91089584
:1016400092609D838C830E94A006AB018A819B815E
:10165000FA01E81BF90B8C819D81112309F45DC00F
:1016600085FD3EC02A8592FD06C0222321F09460AC
:101670009D838C830BC02E171F0619F010F02111CB
:1016800007C082629D838C83598748875B834A8326
:101690008C819D818F71992711E0892B31F28E8188
:1016A0009F81892B41F28C819D81917084369105B7
:1016B00009F48AC008F09AC08232910509F484C006
:1016C00008F07BC08130910509F47EC0409709F491
:1016D0007BC0CE010E94D80A882309F4ACCF74C025
:1016E00097FDD6CF86FD0AC02C85A0E12A9F9001E8
:1016F0001124E217F30760F28464BACF87FF0BC0AE
:101700002D85A0E12A9F900111248868E217F30734
:1017100008F0AECFBDCF2C85F4CF85FF12C02A854F
:101720002E171F0609F080F586FD03C029812F5F63
:10173000298397FD19828F7D806191609D838C83C1
:1017400023C090FF0DC097FD03C080619D838C83F3
:101750008C819D819E779D838C835B834A8314C09B
:1017600029812223F1F09C01207C3327232BA1F433
:101770002B8540E1249F90011124E217F30760F4C8
:1017800088859985892B51F48C819D8192FF80CF2A
:101790009B7F9D838C837CCF8160D0CF19861886F8
:1017A000F3CF91FFF1CF8F739D7F98609D838C83E2
:1017B00019861886D2CF10E072CF8134910521F0BE
:1017C0008035910509F085CFEE81FF81309709F4CE
:1017D00032CF1995CE010E94D80A882309F42BCF65
:1017E0008C819D81977F9D838C8325CF883E910539
:1017F00059F338F4813C910539F3803D910521F38B
:1018000068CF8035A1E09A07F9F2803D21E0920788
:10181000D9F28031914009F05CCFD6CF48990EC003
:1018200049990EC08091A70A9091A80AA091A90A8F
:10183000B091AA0A0196A11DB11D0DC04999F2CF20
:101840008091A70A9091A80AA091A90AB091AA0A2A
:101850000197A109B1098093A70A9093A80AA093C0
:10186000A90AB093AA0A08958FB7F894E1E5FBE0BE
:1018700010821282AFE3BBE051961C925197EDE2C9
:10188000FBE0118A14961D921D921D921C921797CF
:1018900014821582168217828FBF08958091510B92
:1018A000882329F081E09091530B911101C080E0D1
:1018B0000895EDE2FBE0811102C0EFE3FBE00FB61B
:1018C00007FC05C0648575858685978508952FB7C3
:1018D000F89464857585868597852FBF0895EDE218
:1018E000FBE0811102C0EFE3FBE00FB607FC05C08F
:1018F000448755876687778708958FB7F89444871C
:101900005587668777878FBF0895EDE2FBE08111E9
:1019100002C0EFE3FBE00FB607FC09C04087518728
:1019200062877387448755876687778708958FB75F
:10193000F894408751876287738744875587668705
:1019400077878FBF0895CF93C82F40E050E0BA014A
:101950000E94850C40E050E0BA018C2FCF910C948E
:101960006F0CEDE2FBE0811102C0EFE3FBE00FB68C
:1019700007FC05C0608571858285938508952FB722
:10198000F89460857185828593852FBF0895ECE377
:10199000F5E08491ECE9F5E0E491F0E0EE0FFF1F53
:1019A000EF5AFA4FA591B4919C91E82FE095E92365
:1019B000EC930895ECE3F5E08491ECE9F5E0E49133
:1019C000F0E0EE0FFF1FEF5AFA4FA591B491EC91A2
:1019D000E82BEC930895EBE3F5E08491EBE9F5E077
:1019E000E491F0E0EE0FFF1FEF5AFA4FA591B4918A
:1019F0009C91E82FE095E923EC930895EBE3F5E063
:101A00008491EBE9F5E0E491F0E0EE0FFF1FEF5A6F
:101A1000FA4FA591B491EC91E82BEC930895909135
:101A2000BF0B992321F091E0811190E0892FE6E32B
:101A3000F5E026E935E0882379F08491F9012491D5
:101A4000E22FF0E0EE0FFF1FEF5AFA4FA591B4918D
:101A5000EC91E82BEC9308958491F9012491E22F05
:101A6000F0E0EE0FFF1FEF5AFA4FA591B4919C9151
:101A7000E82FE095E923EECF9091B40B992321F064
:101A800091E0811190E0892FE7E3F5E027E935E067
:101A9000882379F08491F9012491E22FF0E0EE0F90
:101AA000FF1FEF5AFA4FA591B491EC91E82BEC93FC
:101AB00008958491F9012491E22FF0E0EE0FFF1FC9
:101AC000EF5AFA4FA591B4919C91E82FE095E92344
:101AD000EECF2FB7F8948091EE0790E0019666E084
:101AE00070E00E94F95A9091EF07981721F09091B9
:101AF000EE078093EE072FBF08951092620A1092AE
:101B0000630A1092810B1092BD070C94340C8091E3
:101B1000BD07882391F08091810B81110DC08091C8
:101B2000510B811109C02091630A9091620A291317
:101B300003C01092BD07089581E008950F931F938D
:101B4000CF93C82F0E94B10C2091240B1216A4F43D
:101B500024E0C29FF0011124EB5DF44F008111815C
:101B6000228133810617170728073907B4F46083E9
:101B700071838283938311C0222379F024E0C29F72
:101B8000F0011124EB5DF44F00811181228133813A
:101B9000601771078207930754F3CF911F910F913C
:101BA0000895CF93DF9380E00E94B10CC5E2DBE0A3
:101BB000688379838A839B8381E00E94B10C6C8364
:101BC0007D838E839F83DF91CF910895CF93809102
:101BD000880A882399F01092880A1092720A10924B
:101BE000710A0E94340CC0916B0A8C2F0E94B10CB8
:101BF000AB01BC018C2FCF910C946F0CCF91089549
:101C0000CF92DF92EF92FF920F931F936A017B01B5
:101C10008130B1F48091F30B882309F447C06091BF
:101C2000E30B7091E40B8091E50B9091E60B209112
:101C3000F50B21111EC000E814E82EE130E021C0B0
:101C40008091F60B8823B9F16091EF0B7091F00B46
:101C50008091F10B9091F20B2091F40B222359F318
:101C60000091E70B1091E80B2091E90B3091EA0B02
:101C700008C00091EB0B1091EC0B2091ED0B309113
:101C8000EE0BC616D706E806F9064CF0C701B601FA
:101C9000061717072807390714F4C901B8011F915F
:101CA0000F91FF90EF90DF90CF90089560E87BE771
:101CB00081EE9FEFBCCF60E87BE781EE9FEFCCCF5A
:101CC0004F925F926F927F92AF92BF92CF92DF92CC
:101CD000EF92FF920F931F93CF93DF93411551051E
:101CE00061057105E1F15801122F94E0899FE0012F
:101CF0001124FE01EB5DF44F4080518062807380BF
:101D00006A017B01C40CD51CE61CF71C211136C0EE
:101D1000B701A6010E94000EFE01EB5DF44F608347
:101D2000718382839383111108C0C616D706E80613
:101D3000F90619F021E0F5012083C058D54F641948
:101D4000750986099709C880D980EA80FB80C60E8C
:101D5000D71EE81EF91EC882D982EA82FB82DF9173
:101D6000CF911F910F91FF90EF90DF90CF90BF9098
:101D7000AF907F906F905F904F900895C701B6012C
:101D8000CBCF811109C06091CC0B7091CD0B8091AC
:101D9000CE0B9091CF0B08956091D20B7091D30B25
:101DA0008091D40B9091D50B08950F931F93CF93EF
:101DB000DF93CDE2DBE0811102C0CFE3DBE00E94E4
:101DC000C10E161617061806190674F081E008856C
:101DD00019852A853B854C855D856E857F85041731
:101DE00015072607370709F080E0DF91CF911F9193
:101DF0000F9108958FB7F8944091CC0B5091CD0B73
:101E00006091CE0B7091CF0B4091D20B5091D30BC0
:101E10006091D40B7091D50B1092CC0B1092CD0B1E
:101E20001092CE0B1092CF0B1092D20B1092D30BBC
:101E30001092D40B1092D50B8FBF08958F929F9262
:101E4000AF92BF92CF92DF92EF92FF92CF93CFB734
:101E5000F8940E94340C0E94FA0E80E00E94B10CAB
:101E60004B015C0181E00E94B10C6B017C01B5016A
:101E7000A40180E00E946F0CB701A60181E00E94DE
:101E80006F0CCFBF1092810BCF91FF90EF90DF903E
:101E9000CF90BF90AF909F908F9008958091510BFD
:101EA00081110C941E0F80E00E94B10CAB01BC01AB
:101EB00080E00E946F0C81E00E94B10CAB01BC017C
:101EC00081E00C946F0C0E941E0F1092230B109255
:101ED000240B10928D0A1092890A10928A0A10928D
:101EE0008B0A10928C0A0C94D10DCF93823080F41F
:101EF00090917F0A981761F0C82F0E94870D882360
:101F000049F0C0937F0A0E94030A82E080937E0A10
:101F1000CF9108950E94630F0E94030AC0937F0A25
:101F2000F4CF9FB7F8948091F0078F5F8370209172
:101F3000F107281741F02091F0072091F007209138
:101F4000F0078093F0079FBF0895CF92DF92EF9242
:101F5000FF92813041F57091D60B9091D70B209173
:101F60009E0B30919F0B4091A00B5091A10BE2ED85
:101F7000FBE0121613061406150634F5C080D18056
:101F8000E280F3801C141D041E041F04ECF0711188
:101F900019C02083318342835383FF90EF90DF90F9
:101FA000CF900C94910F7091D00B9091D10B209108
:101FB0009A0B30919B0B40919C0B50919D0BECEC3C
:101FC000FBE0D7CF6913E5CFFF90EF90DF90CF9084
:101FD000089590E0FC01E559FA4FE491EE2389F071
:101FE000F0E0EE0FFF1FEE54FD4FA591B4912C9140
:101FF000855F9A4FFC018491282381E019F480E0E9
:10200000089581E00895883309F453C068F5863156
:1020100009F472C0B0F4833009F476C050F4823011
:1020200009F470C00E94E90F91E0811140C090E076
:102030003EC08E3009F46AC08F30A1F79091030141
:1020400035C08C3109F45CC038F4883109F456C0CD
:102050008A3141F790B138C0863339F1873311F7AF
:102060009FB19695917023C08034A1F150F48A33CA
:1020700051F120F18E3359F18F33A1F69091060181
:10208000F0CF833469F138F4813439F1823451F678
:102090009091060119C0843449F1853419F6909164
:1020A0000601991F9927991F02C09FB19170892F2E
:1020B00008959FB192FB992790F9F9CF9FB193FBB7
:1020C000992790F9F4CF9FB192959170F0CF9091AC
:1020D0000601ECCF90910601EDCF90910601EFCF74
:1020E0009091060195FB992790F9E1CF9091060117
:1020F00096FB992790F9DBCF90B1D8CF90B1DACF8A
:1021000090B1F6CF9CB1E0CF9CB1ECCF90910301A0
:10211000A8CF8EE10E94E90F61E0811101C060E06B
:1021200083E79DE00E94F30A8FE10E94E90F61E0DE
:10213000811101C060E084E69DE00E94F30A80E224
:102140000E94E90F61E0811101C060E085E59DE03A
:102150000E94F30A81E20E94E90F61E0811101C04F
:1021600060E086E49DE00E94F30A82E20E94E90FAB
:1021700061E0811101C060E087E39DE00E94F30A05
:1021800083E20E94E90F61E0811101C060E088E212
:102190009DE00E94F30A84E20E94E90F61E0811150
:1021A00001C060E089E19DE00E94F30A85E20E949F
:1021B000E90F61E0811101C060E08AE09DE00E94CA
:1021C000F30A83E40E940310682F8BEF9CE00E94C7
:1021D000F30A84E40E940310682F8CEE9CE00E94B6
:1021E000F30A85E40E940310682F8DED9CE00E94A5
:1021F000F30A82E00E940310682F8EEC9CE00E949C
:10220000F30A83E00E940310682F8FEB9CE00C948C
:10221000F30ACF93C82F61E00E94590461E08C2F2C
:10222000CF910C94CD03CF93C82F61E00E94590445
:1022300060E08C2FCF910C94CD0362E00C94590494
:102240008091640A9091650A0497D1F084E090E04F
:102250009093650A8093640A0E947D0D0E94FA0E95
:1022600080E00E94B10CAB01BC0180E00E946F0CC9
:1022700081E00E94B10CAB01BC0181E00C946F0CB9
:1022800008956091640A7091650AE0E9F2E048EB14
:1022900052E0208131816217730719F02530310532
:1022A00029F4228133818217930731F035964E1736
:1022B0005F0779F70C9420119093650A8093640A64
:1022C0000895CF92DF92EF92FF92CF93DF93811127
:1022D00081E09BE0899FE0011124C655D44F6881BD
:1022E000798190E080E00E9465596B017C016A81F0
:1022F00070E090E080E00E9465599B01AC01C7014D
:10230000B6010E941C5A6B017C016B817C8190E0BC
:1023100080E00E9465592AE037ED43E25CE30E94C9
:102320001C5A9B01AC01C701B6010E94BD58DF9148
:10233000CF91FF90EF90DF90CF9008954F925F92F2
:102340006F927F928F929F92AF92BF92CF92DF92C5
:10235000EF92FF920F931F93CF93DF93CDB7DEB72A
:102360002C970FB6F894DEBF0FBECDBF9091510BE6
:10237000992309F4A3C09091530B992309F48DC0BC
:1023800040917D0B50917E0B60917F0B7091800B83
:10239000A090790BB0907A0BC0907B0BD0907C0B07
:1023A000A986BA86CB86DC86A416B506C606D706ED
:1023B00020F449875A876B877C87C984DA84EB8449
:1023C000FC84CD28CE28CF2841F4E12CF12C8701C4
:1023D000E394E986FA860B871C878090650B9090C2
:1023E000660BA090670BB090680B04E0809FF00133
:1023F0001124E758F44FC080D180E280F3800E941E
:1024000061112B013C0120E030E040E85FE30E94D5
:10241000B85887FD53C0C501B401A70196010E94B9
:10242000785BC984DA84EB84FC8456016701E12C73
:10243000F12C8701A982BA82CB82DC82ED82FE82F6
:102440000F831887E12CF12C00E010E00E94A55BBF
:10245000B901CA010E94655920E030E040E752E42A
:102460000E941C5AA30192010E94BD582C960FB6DF
:10247000F894DEBF0FBECDBFDF91CF911F910F91BA
:10248000FF90EF90DF90CF90BF90AF909F908F9094
:102490007F906F905F904F900895A090550BB090F3
:1024A000560BC090570BD090580BA986BA86CB8696
:1024B000DC86AB28AC28AD2809F08FCF60E070E057
:1024C000CB01D4CFCF92DF92EF92FF92CF93C82F60
:1024D0000E9461116B017C01C111C1E08BE0C89FBA
:1024E000F0011124E655F44F618570E090E080E042
:1024F0000E94655920E030E048E452E40E941C5AF2
:10250000A70196010E941C5A20E030E040E05FE302
:102510000E944C580E94365961157105810591053C
:1025200021F461E070E080E090E0CF91FF90EF90C7
:10253000DF90CF900895CF92DF92EF92FF920F93AA
:10254000CF936A017B01C22F811126C00E946111C5
:102550000E942F592AE030E040E050E0011122C0F3
:10256000C130E1F0F7FE04C0CC24CA94DC2C760123
:10257000A7019601121613061406150624F421E08D
:1025800030E040E050E0CA01B901CF910F91FF90D7
:10259000EF90DF90CF90089581E0D8CF24E630E02F
:1025A00040E050E00E942F5B121613061406150639
:1025B00024F021E030E040E050E01C141D041E0433
:1025C0001F040CF350954095309521953F4F4F4F88
:1025D0005F4FD9CF8F929F92AF92BF92CF92DF92EF
:1025E000EF92FF92CF93DF9380E00E9461114B0145
:1025F0005C0181E00E9461116B017C018091A40B60
:102600009091A50BC091A60BD091A70B009711F14B
:10261000B0E0A0E080939A0B90939B0BA0939C0B4F
:10262000B0939D0B209779F1CE01B0E0A0E08093AC
:102630009E0B90939F0BA093A00BB093A10BDF91E7
:10264000CF91FF90EF90DF90CF90BF90AF909F9091
:102650008F9008952BE734E14EEA5EE3C501B401A3
:102660000E941C5A20E030E040E05FE30E944C589A
:102670000E942F5960939A0B70939B0B80939C0B35
:1026800090939D0BCFCF2EE135E84BEE5EE3C70173
:10269000B6010E941C5A20E030E040E05FE30E9457
:1026A0004C580E942F5960939E0B70939F0B809300
:1026B000A00B9093A10BC3CFCF92DF92EF92FF922A
:1026C000CF93C82F6A017B0120E030E040E85FE350
:1026D000CB01B6010E94B85887FF06C0C12CD12C8F
:1026E00080E8E82E8FE3F82E8C2F0E9461119B0169
:1026F000AC01C701B6010E941C5A20E030E040E75F
:1027000052E40E94BD580E94365961157105810539
:10271000910521F461E070E080E090E0CF91FF90BE
:10272000EF90DF90CF9008952F923F924F925F925B
:102730006F927F928F929F92AF92BF92CF92DF92D1
:10274000EF92FF920F931F93CF93DF93CDB7DEB736
:1027500060970FB6F894DEBF0FBECDBF8091530BCC
:10276000882309F45DC180917D0B90917E0BA0912F
:102770007F0BB091800B4090790B50907A0B60905A
:102780007B0B70907C0B481659066A067B0610F48A
:102790002C013D01411451046104710421F4412CC8
:1027A000512C32014394A090650BB090660BC09001
:1027B000670BD090680BAD86BE86CF86D88A2091F5
:1027C000790B30917A0B40917B0B50917C0B21154A
:1027D00031054105510509F44AC1C601B5010E9400
:1027E000785B63015201E12CF12C87014D82BE829E
:1027F0006F82D886E986FA860B871C87E12CF12C3C
:1028000000E010E00E94A55B822E932EA42EB52E30
:1028100081149104A104B10421F4812C912C540160
:1028200083949401A50160E070E080E090E00FE106
:102830000E94025CEFE5AE2EF6E7BF2EC12CD12C34
:10284000E12CF12C00E010E00E94A55B2093430BEB
:102850003093440B4093450B5093460B20917D0BD6
:1028600030917E0B40917F0B5091800B21153105EB
:102870004105510509F404C16D857E858F859889D0
:102880000E94785B120151016301E12CF12C00E000
:1028900010E00E94A55B822E932EA42EB52E8114EB
:1028A0009104A104B10421F4812C912C540183944E
:1028B0009401A50160E070E080E090E00FE10E94EB
:1028C000025C1FE5A12E06E7B02EC12CD12CE12C15
:1028D000F12C00E010E00E94A55B2093310B3093B7
:1028E000320B4093330B5093340B8091360290910E
:1028F0003702A0913802B091390289839A83AB8361
:10290000BC838E010F5F1F4F4801312C832D0E9425
:10291000C10E16161706180619060CF077C060913E
:10292000A90B70E090E080E00E946559AB01BC010A
:10293000832D0E945C13611571058105910521F4B9
:1029400061E070E080E090E09B01AC0160E070E04D
:1029500080E090E00FE10E94025CAFE5AA2EB6E7AE
:10296000BB2EC12CD12CE12CF12C00E010E00E94F8
:10297000A55B29013A016091A80B70E090E080E02E
:102980000E946559AB01BC01832D0E945C13611547
:1029900071058105910521F461E070E080E090E02F
:1029A0009B01AC0160E070E080E090E00FE10E94EC
:1029B000025CEFE5AE2EF6E7BF2EC12CD12CE12C48
:1029C000F12C00E010E00E94A55BC901DA01F401DE
:1029D00020813181F90144815581668177814415D7
:1029E00055056605770520F4448255826682778214
:1029F000F901448155816681778184179507A6077F
:102A0000B70720F484839583A683B783F2E08F0E03
:102A1000911CAA24A3943A1489F03324339476CFDA
:102A20004090550B5090560B6090570B7090580B80
:102A3000411451046104710409F0B5CE60960FB6DB
:102A4000F894DEBF0FBECDBFDF91CF911F910F91E4
:102A5000FF90EF90DF90CF90BF90AF909F908F90BE
:102A60007F906F905F904F903F902F9008951092BD
:102A7000430B1092440B1092450B1092460BEECE76
:102A80001092310B1092320B1092330B1092340BC8
:102A90002CCF2F923F924F925F926F927F928F92A4
:102AA0009F92AF92BF92CF92DF92EF92FF920F93DD
:102AB0001F93CF93DF93CDB7DEB768970FB6F89427
:102AC000DEBF0FBECDBF69877A878B879C872901C0
:102AD0003A012EA53FA548A959A92D873E874F87C2
:102AE000588B672B682B692B41F481E090E0A0E0C4
:102AF000B0E089879A87AB87BC8741145104610491
:102B0000710421F4412C512C32014394E114F1045D
:102B10000105110521F4E12CF12C8701E394A114A6
:102B2000B104C104D10421F4A12CB12C6501A394FA
:102B30002D853E854F855889232B242B252B41F449
:102B400081E090E0A0E0B0E08D879E87AF87B88BF2
:102B500049825A826B827C82E414F50406051705CB
:102B600020F4E982FA820B831C83498A5A8A6B8A91
:102B70007C8AA414B504C604D70420F4A98ABA8AAE
:102B8000CB8ADC8A09811A812B813C8104151505C9
:102B90002605370508F09AC1C301B201A3019201CD
:102BA0000E94785B59016A011B014C0169817A819D
:102BB0008B819C819B01AC010E94785BB22FA32F7B
:102BC000F42FE52F7B018C019501A601B101C40111
:102BD000AB2EBA2ECF2EDE2E0E941B5C19014A01AD
:102BE000B62FA72FF82FE92F2D853E854F855889C1
:102BF00060E070E080E090E001E00E94025C59013A
:102C00006A017B018C019101A4016B2F7A2F8F2F18
:102C10009E2F0E94A55B2D833E834F835887898911
:102C20009A89AB89BC8984159505A605B70508F076
:102C300080C0C301B201A30192010E94785B2D8B79
:102C40003E8B4F8B588F1B014C0169897A898B8988
:102C50009C899B01AC010E94785B59016A017B0150
:102C60008C012D893E894F89588DB101C4010E9484
:102C70001B5C19014A01B62FA72FF82FE92F2D85CC
:102C80003E854F85588960E070E080E090E001E08B
:102C90000E94025C59016A017B018C019101A4012F
:102CA0006B2F7A2F8F2F9E2F0E94A55BF22FE32F81
:102CB0008F2F9E2FA42FB52F4D815E816F81788538
:102CC000480F591F6A1F7B1F09851A852B853C8574
:102CD000401751076207730708F4E1C029813A8160
:102CE0004B815C81CA01B9010E94E95A6B017C01E8
:102CF00029853A854B855C856D857E858F8598898C
:102D00000E94E95A97018601060F171F281F391FD5
:102D100080E090E0A0E0B0E4081719072A073B071D
:102D200060F442E0B695A795979587954A95D1F7B7
:102D3000F3CF80E090E0DC01BFCF40E050E0BA018B
:102D40000097A105B105F9F06C017D01C40ED51EF7
:102D5000E61EF71E76956795579547950C151D0548
:102D60002E053F0540F00C191D092E093F09480F9B
:102D7000591F6A1F7B1FE2E0B695A7959795879527
:102D8000EA95D1F7DDCF89819A81AB81BC81841727
:102D90009507A607B70710F4DB01CA01841595054E
:102DA000A605B70510F42C013D0189859A85AB85F0
:102DB000BC85B695A7959795879580935D0B909365
:102DC0005E0BA0935F0BB093600B8093610B9093AD
:102DD000620BA093630BB093640B29853A854B85F6
:102DE0005C852093550B3093560B4093570B5093B3
:102DF000580B1092590B10925A0B10925B0B1092B9
:102E00005C0B4092690B50926A0B60926B0B709254
:102E10006C0B89819A81AB81BC8180936D0B9093FF
:102E20006E0BA0936F0BB093700B09891A892B89D5
:102E30003C890093710B1093720B2093730B3093AA
:102E4000740B8093650B9093660BA093670BB09304
:102E5000680B2D853E854F8558892093750B3093DF
:102E6000760B4093770B5093780B68960FB6F894D7
:102E7000DEBF0FBECDBFDF91CF911F910F91FF90AD
:102E8000EF90DF90CF90BF90AF909F908F907F900A
:102E90006F905F904F903F902F900C9494132D81E2
:102EA0003E814F81588520935D0B30935E0B40939C
:102EB0005F0B5093600B09851A852B853C85081B99
:102EC000190B2A0B3B0BD901C8017FCF1D821E8233
:102ED0001F821886A4CECF92DF92EF92FF92CF93FB
:102EE000C82F6A017B0120E030E040E85EE3CB01BF
:102EF000B6010E94B85887FD1AC020E030E040E8D3
:102F00005FE3C701B6010E94B85887FF06C0C12C15
:102F1000D12C80E8E82E8FE3F82EB701A6018C2F84
:102F2000CF91FF90EF90DF90CF900C945C1361E015
:102F300070E080E090E0CF91FF90EF90DF90CF9035
:102F400008958AE1E9E5F2E0AAEABBE001900D927A
:102F50008A95E1F70895FC0180819181C2978F39AC
:102F60009740F0F4828181508032D0F48381948143
:102F70000A978F3D9340A0F4858196810A978F37F9
:102F8000934170F4878190850A978730974240F487
:102F900081858150843120F481E09285923008F05F
:102FA00080E00895CF93DF93EC010E94AB17882354
:102FB000A1F0CE010B960E94AB17882371F08E8989
:102FC0009F89845691098D3A964230F481E0288D8C
:102FD000398D213D374008F080E0DF91CF91089591
:102FE000CF93883008F080E0E82FF0E0EE5DFC4FF2
:102FF000C081C23008F0C0E024E0C29FF00111247B
:10300000EC53F44F428153810190F081E02DE4179D
:10301000F50778F59A012F5F3F4F2E1B3F0BDB0121
:103020000E94565B2AE096958795779567952A9535
:10303000D1F79A01261B370BB901C1111CC04E1BD9
:103040005F0B4233510580F0CB018E1B9F0B6AE072
:1030500070E00E94F95ACB012AE0289FB001299F15
:10306000700D11246E0F7F1F90E080E00E94655963
:103070000CC0BF01E2CF90E080E00E9465592AE0D9
:1030800037ED43E25CE30E941C5ACF9108958830EB
:1030900008F080E0E82FF0E0EE5DFC4F90819F3F6C
:1030A00031F06091B9077091BA070C94F01760E0A5
:1030B00070E0CB010895CF92DF92EF92FF92CF9311
:1030C000DF938091DC0A883008F040C0823089F1BB
:1030D00021E090E0813009F020E0C22FD92F0E943A
:1030E00047186B017C01CD2BD9F06091970A709144
:1030F000980A8091990A90919A0A6A30710581051F
:10310000910520F46CE370E080E090E00E94655946
:103110009B01AC01C701B6010E941C5A6B017C01E6
:10312000C701B601DF91CF91FF90EF90DF90CF9074
:1031300008956091B9077091BA0780E0DF91CF914F
:10314000FF90EF90DF90CF900C94F017D0E0C0E0AC
:10315000C6CFCF92DF92EF92FF920F931F93CF9340
:10316000DF93811181E0C82FD0E06623E9F08BE086
:103170008C9FF0018D9FF00D1124E655F44F67816F
:10318000708590E080E00E9465598B01D82FC92F8F
:10319000B8018D2F9C2FDF91CF911F910F91FF9040
:1031A000EF90DF90CF9008950E945B186B017C0137
:1031B00020E030E040E251E40E94B85887FF06C0AA
:1031C000C12CD12C80E2E82E91E4F92E8BE08C9F6B
:1031D000F0018D9FF00D1124E655F44F6581768145
:1031E00090E080E00E9465598B01D82FC92F9B0188
:1031F000482F592FB601C7010E94175A181644F2DA
:103200008601DE2DCF2DC4CF4617570770F041152C
:10321000510559F0880F991F880F991FFC01EC5335
:10322000F44F71836083538342830895E4ECFBE0A1
:10323000A1E5B2E04D915D916D917C911397408332
:1032400051836283738314968D919D910D90BC91EF
:10325000A02D84839583A683B7830895FC01828182
:103260009381208131818217930760F0892B51F07F
:1032700026813781848195812817390718F081E0EC
:10328000232B09F480E008954F925F926F927F9212
:103290008F929F92AF92BF92CF92DF92EF92FF9266
:1032A0000F931F93CF93DF93F82E8A01D62FC72F4A
:1032B0006091A90B70E090E080E00E946559762E45
:1032C000872E982EA92E6091A80B70E090E080E0E8
:1032D0000E946559B62EC72ED82EE92EEF2DF1107B
:1032E000E1E08BE0E89FF0011124E655F44F6581A1
:1032F000768190E080E00E9465592B01682EF92EBE
:1033000098014D2F5C2F672D782D892D9A2D0E94C5
:10331000175A181624F4072D182DD92DCA2D2B2D28
:103320003C2D4D2D5E2DB8018D2F9C2F0E94175ADC
:10333000181624F40B2D1C2DDD2DCE2D20E030E0B1
:1033400040E85FE3B8018D2F9C2F0E94B85887FF9B
:1033500004C000E010E0D0E8CFE39201462D5F2DDD
:10336000B8018D2F9C2F0E94175A18161CF4820149
:10337000D62DCF2DB8018D2F9C2FDF91CF911F918E
:103380000F91FF90EF90DF90CF90BF90AF909F9004
:103390008F907F906F905F904F90089587E0EAE460
:1033A000F2E0A3EABBE001900D928A95E1F708955F
:1033B000FC0180818230B8F4818192818938934107
:1033C00090F4838194818938934168F425818BEF4F
:1033D000820F843C40F496818BEF890F843C18F473
:1033E00081E0291708F480E008958091A80B8530CA
:1033F00018F485E08093A80B8091A80B893C18F005
:1034000088EC8093A80B8091A90B853018F485E097
:103410008093A90B8091A90B893C18F088EC8093CC
:10342000A90B8091A80B9091A90B891710F4809398
:10343000A90B08959C01CB0164E670E00E94F95A43
:103440009F938F937F936F9383EA95E09F938F93DE
:103450001F9284E18F933F932F930E94705C8DB7EE
:103460009EB70A960FB6F8949EBF0FBE8DBF089503
:10347000CF93DF938E3208F0C8C2EB01E82FF0E063
:103480008827EA5BF54E8F4F0C944E5B741A921AA4
:10349000AC1AB41A051D051D051D051D051D051DCC
:1034A000B91AD31AEB1AF01A0A1B241B541B3C1B23
:1034B000051D051D6F1B891BA11BA61BC01BDA1B4D
:1034C0000A1CF21B051D051D251C3F1C571C051D54
:1034D000051D051D051D051D051D051D711C891CEE
:1034E000A31CBD1CED1CD51C8091C50B8F93809136
:1034F000C40B8F9384ED95E09F938F931F9284E18B
:103500008F93DF936F930E94705C8DB79EB7089680
:103510000FB6F8949EBF0FBE8DBF81E090E0DF91A3
:10352000CF9108958091C70B8F938091C60B8F9395
:1035300084ED95E09F938F931F9284E18F93DF93A7
:103540006F930E94705C8DB79EB708960FB6F89483
:103550009EBF0FBE8DBFE1CF6091C80B7091C90BAC
:10356000CE010E941A1AD9CF6091CA0B7091CB0B71
:10357000F7CF8091B60B8F938091B50B8F9384ED2D
:1035800095E09F938F931F9284E18F93DF936F93C6
:103590000E94705C8DB79EB708960FB6F8949EBFD8
:1035A0000FBE8DBFBACF8091B70B1F928F9384ED62
:1035B00095E09F938F931F9284E18F93DF936F9396
:1035C0000E94705C8DB79EB708960FB6F8949EBFA8
:1035D0000FBE8DBFA2CF6091B80B7091B90BC0CF59
:1035E0008091BB0B8F938091BA0B8F9384ED95E004
:1035F0009F938F931F9284E18F93DF936F930E9429
:10360000705C8DB79EB708960FB6F8949EBF0FBE3C
:103610008DBF83CF8091BD0B8F938091BC0B8F9317
:1036200084ED95E09F938F931F9284E18F93DF93B6
:103630006F930E94705C8DB79EB708960FB6F89492
:103640009EBF0FBE8DBF69CF8091BE0B1F928F931F
:1036500084ED95E09F938F931F9284E18F93DF9386
:103660006F930E94705C8DB79EB708960FB6F89462
:103670009EBF0FBE8DBF51CF8091BF0B1F928F9306
:1036800084ED95E09F938F931F9284E18F93DF9356
:103690006F930E94705C8DB79EB708960FB6F89432
:1036A0009EBF0FBE8DBF39CF81E00E9461119F93F5
:1036B0008F937F936F9380E294E09F938F931F92F9
:1036C00084E18F93DF93CF930E94705C8DB79EB798
:1036D0000A960FB6F8949EBF0FBE8DBF1ECF809185
:1036E000AB0B8F938091AA0B8F9384ED95E09F9302
:1036F0008F931F9284E18F93DF936F930E94705C8E
:103700008DB79EB708960FB6F8949EBF0FBE8DBFBB
:1037100004CF8091AC0B1F928F9384ED95E09F9323
:103720008F931F9284E18F93DF936F930E94705C5D
:103730008DB79EB708960FB6F8949EBF0FBE8DBF8B
:10374000ECCE6091AD0B7091AE0B0ACF8091B00BB7
:103750008F938091AF0B8F9384ED95E09F938F9320
:103760001F9284E18F93DF936F930E94705C8DB7FB
:103770009EB708960FB6F8949EBF0FBE8DBFCDCEF4
:103780008091B20B8F938091B10B8F9384ED95E074
:103790009F938F931F9284E18F93DF936F930E9487
:1037A000705C8DB79EB708960FB6F8949EBF0FBE9B
:1037B0008DBFB3CE8091B30B1F928F9384ED95E0B4
:1037C0009F938F931F9284E18F93DF936F930E9457
:1037D000705C8DB79EB708960FB6F8949EBF0FBE6B
:1037E0008DBF9BCE8091B40B1F928F9384ED95E09B
:1037F0009F938F931F9284E18F93DF936F930E9427
:10380000705C8DB79EB708960FB6F8949EBF0FBE3A
:103810008DBF83CE80E00E9461119F938F937F9331
:103820006F9380E294E09F938F931F9284E18F9334
:10383000DF93CF930E94705C8DB79EB70A960FB648
:10384000F8949EBF0FBE8DBF68CE8091C10B8F9341
:103850008091C00B8F9384ED95E09F938F931F927F
:1038600084E18F93DF936F930E94705C8DB79EB756
:1038700008960FB6F8949EBF0FBE8DBF4ECE8091B6
:1038800035021F928F9384ED95E09F938F931F9243
:1038900084E18F93DF936F930E94705C8DB79EB726
:1038A00008960FB6F8949EBF0FBE8DBF36CE80919E
:1038B000C30B8F938091C20B8F9384ED95E09F9300
:1038C0008F931F9284E18F93DF936F930E94705CBC
:1038D0008DB79EB708960FB6F8949EBF0FBE8DBFEA
:1038E0001CCE8091A30B1F928F9384ED95E09F9344
:1038F0008F931F9284E18F93DF936F930E94705C8C
:103900008DB79EB708960FB6F8949EBF0FBE8DBFB9
:1039100004CE8091A50B8F938091A40B8F9384ED9F
:1039200095E09F938F931F9284E18F93DF936F9322
:103930000E94705C8DB79EB708960FB6F8949EBF34
:103940000FBE8DBFEACD8091A70B8F938091A60B00
:103950008F9384ED95E09F938F931F9284E18F93D3
:10396000DF936F930E94705C8DB79EB708960FB679
:10397000F8949EBF0FBE8DBFD0CD8091A80B1F9233
:103980008F9384ED95E09F938F931F9284E18F93A3
:10399000DF936F930E94705C8DB79EB708960FB649
:1039A000F8949EBF0FBE8DBFB8CD8091A90B1F921A
:1039B0008F9384ED95E09F938F931F9284E18F9373
:1039C000DF936F930E94705C8DB79EB708960FB619
:1039D000F8949EBF0FBE8DBFA0CD8091A20B1F9209
:1039E0008F9384ED95E09F938F931F9284E18F9343
:1039F000DF936F930E94705C8DB79EB708960FB6E9
:103A0000F8949EBF0FBE8DBF88CD90E080E087CD3B
:103A1000CF93C82F0E94DF0928E0C29FF001112434
:103A2000E65DFC4F2281338121303105F9F464E6F3
:103A300070E00E94F95A9F938F937F936F9383EA6C
:103A400095E09F938F931F9289E08F9388ED9BE081
:103A50009F938F930E94705C8DB79EB70A960FB6A6
:103A6000F8949EBF0FBE8DBFCF91089523303105CE
:103A7000C1F49F938F9384ED95E09F938F931F9252
:103A800089E08F9388ED9BE09F938F930E94705CF9
:103A90008DB79EB708960FB6F8949EBF0FBE8DBF28
:103AA000E3CF9F938F9384ED95E09F938F931F9225
:103AB00089E08F9388ED9BE09F938F930E94705CC9
:103AC0008DB79EB708960FB6F8949EBF0FBE8DBFF8
:103AD000CBCFBF92CF92DF92EF92FF920F931F93C3
:103AE000CF93DF93CDB7DEB72C970FB6F894DEBF38
:103AF0000FBECDBFD82EC62EB72E8091E20B9E01F1
:103B00002F5F3F4F790138E0D39E8001112481302F
:103B1000E9F58091E10BD81239C04BE050E068ED37
:103B20007BE0C7010E94615C1C868091E10BD81686
:103B300009F46DC080E2FF92EF92F801E65DFC4F60
:103B400091819F9390819F931F928F938CE294E039
:103B50009F938F931F9285E18F93BF92CF920E9484
:103B6000705C0FB6F894DEBF0FBECDBF2C960FB6BB
:103B7000F894DEBF0FBECDBFDF91CF911F910F91A3
:103B8000FF90EF90DF90CF90BF9008958D2D0E9411
:103B9000DF09F801E65DFC4F2281338121303105D8
:103BA000C9F464E670E00E94F95A9F938F937F9363
:103BB0006F9383EA95E09F938F931F928CE08F938E
:103BC000FF92EF920E94705C0FB6F894DEBF0FBEBA
:103BD000CDBFABCF23303105A9F4892B81F488E226
:103BE00094E09F938F9383E394E09F938F931F922E
:103BF0008CE08F93FF92EF920E94705CE5CF85E29C
:103C000094E0EFCF9F938F9384ED95E0EECF8EE31A
:103C100092CFCF93DF93EC0160E08E810E94CD03C1
:103C200061E08E810E94CD0360E08E810E94CD0311
:103C30008BE891E00197F1F7DF91CF910895CF9252
:103C4000DF92EF92FF920F931F93CF93DF936C015C
:103C50007C0187E0E80EF11CD0E0C0E0062F10E008
:103C6000B8010C2E02C0759567950A94E2F7617051
:103C7000F70181917F010E94CD032196C430D105C7
:103C800079F7C601DF91CF911F910F91FF90EF90CF
:103C9000DF90CF900C94091ECF92DF92EF92FF92AB
:103CA0000F931F93CF93DF93EC01F62E642F8C813B
:103CB0000E94CD038D818F3F19F060E00E94CD03FB
:103CC0000F2D10E08F8584FF25C06E0187E0C80EA0
:103CD000D11CF12CE12CB8010E2C02C07595679512
:103CE0000A94E2F76170F60181916F010E94CD03A1
:103CF000FFEFEF1AFF0A88E0E816F10461F7CE0142
:103D0000DF91CF911F910F91FF90EF90DF90CF90B7
:103D10000C94091EB80184E0759567958A95E1F7C2
:103D2000CE010E941F1E6F2DCE01DF91CF911F91FA
:103D30000F91FF90EF90DF90CF900C941F1E40E00A
:103D4000682F82E89DE00C944C1ECF93DF93613086
:103D500029F09091910D98609093910D6093950D3D
:103D60001092960D90E49093970D8093980D805C3F
:103D70008093990D61E08091860D0E945904809195
:103D8000870D8F3F19F061E00E94590461E0809136
:103D9000880D0E945904C2E8DDE09E0122583D4092
:103DA0008091910D84FD0BC084E090E0219628174E
:103DB000390744F461E08E810E945904EECF88E017
:103DC00090E0F4CF8BE39DE00197F1F760E0809104
:103DD000860D0E94CD0360E08091880D0E94CD0386
:103DE0008091870D8F3F19F060E00E94CD03809194
:103DF000910D84FD39C063E082E89DE00E941F1EA2
:103E0000CBE4D6E4CE010197F1F763E082E89DE0D0
:103E10000E941F1E2197F1F763E082E89DE00E9457
:103E20001F1E83E592E00197F1F762E082E89DE0D2
:103E30000E941F1E8091910D80620E949F1E84E04F
:103E40008093920D8CE00E949F1E81E00E949F1E35
:103E50008BE39FE10197F1F782E08093930D86E079
:103E6000DF91CF910C949F1E80620E949F1E8BE475
:103E700096E40197F1F78091910D80620E949F1E58
:103E800083E592E00197F1F78091910D80620E94A5
:103E90009F1ED0CF41E00E944C1E81E090E008952B
:103EA000CF93DF93D82FC5E18C9FC001112444E14B
:103EB00050E060E270E0805C984F0E94485CCD9FCB
:103EC000F0011124E05CF84F148ADF91CF9108953E
:103ED000EF92FF920F931F93CF93DF93CDB7DEB78F
:103EE000A0970FB6F894DEBF0FBECDBFFE0133968C
:103EF00096E1DF011D929A95E9F793E099838A8311
:103F00006B83298F3A8F4B8F5C8FED8EFE8E0F8FD8
:103F100018A3CE0101960E94690DA0960FB6F894E1
:103F2000DEBF0FBECDBFDF91CF911F910F91FF90EC
:103F3000EF9008952F923F924F925F926F927F92EF
:103F40008F929F92AF92BF92CF92DF92EF92FF92A9
:103F50000F931F93CF93DF93CDB7DEB7A4970FB620
:103F6000F894DEBF0FBECDBFA82E6B014A01190128
:103F7000DB015096BC90509718968D919D910D90B5
:103F8000BC91A02DFB014485558566857785481732
:103F900059076A077B0709F463C0D60118968D910B
:103FA0009D910D90BC91A02D89A39AA3ABA3BCA316
:103FB000F601448455846684778484159505A605A6
:103FC000B70509F46FC0BB24B39489A19AA1ABA132
:103FD000BCA184159505A605B7050CF0B12CD6013A
:103FE00050968C9150978B1509F45CC05096BC92FA
:103FF0008B2DF80119956B2D80E0A11081E00E94B6
:10400000A50FD6011C96ED90FD900D911C911F9768
:1040100018962D913D914D915C911B9789A19AA184
:10402000ABA1BCA161E084159505A605B7050CF010
:104030006FEF8A2D0E94681FF60180819181A28115
:10404000B3814481558166817781840F951FA61FB6
:10405000B71FB7FD2BC080839183A283B38309C0B0
:104060008A2D0E94C10E16161706180619060CF4A2
:1040700094CFA4960FB6F894DEBF0FBECDBFDF91EC
:10408000CF911F910F91FF90EF90DF90CF90BF9055
:10409000AF909F908F907F906F905F904F903F90E8
:1040A0002F9008958B2DF8011995C6CFB0588083B5
:1040B0009183A283B383F4011995A1102BC0809141
:1040C000CC0B9091CD0BA091CE0BB091CF0B20EDEE
:1040D0003BE0ECECFBE041ED5BE0181619061A063C
:1040E0001B063CF1F60180859185A285B38541E0F0
:1040F00050E060E070E0B11003C04FEF5FEFBA0135
:10410000840F951FA61FB71FF60180879187A2878E
:10411000B38727C08091D20B9091D30BA091D40B81
:10412000B091D50B26ED3BE0E2EDFBE047ED5BE027
:10413000D4CF80819181A281B3810197A109B10976
:1041400080839183A283B38380819181A281B38193
:10415000892B8A2B8B2B29F4DA01BC9281E0F9019F
:104160008083F10119958091510B882309F481CF47
:104170008091540BA8127DCF8091650B9091660BB6
:10418000A091670BB091680B892B8A2B8B2B61F464
:1041900081E090E0A0E0B0E08093650B9093660B27
:1041A000A093670BB093680B0E948303182F809134
:1041B000590B90915A0BA0915B0BB0915C0B01963F
:1041C000A11DB11D8093590B90935A0BA0935B0BCB
:1041D000B0935C0B40915D0B50915E0B60915F0B57
:1041E0007091600B481759076A077B0708F447C0AE
:1041F0008090650B9090660BA090670BB090680B59
:104200006091750B7091760B8091770B9091780B84
:104210003EE0660F771F881F991F3A95D1F7A501D9
:1042200094010E940D5B211531054105510521F4D2
:1042300021E030E040E050E0820E931EA41EB51E47
:104240008092650B9092660BA092670BB092680B00
:104250008091690B90916A0BA0916B0BB0916C0BE4
:1042600088159905AA05BB0508F05BC08093650B0E
:104270009093660BA093670BB093680B52C040916C
:10428000610B5091620B6091630B7091640B481746
:1042900059076A077B0708F044C08090650B90902F
:1042A000660BA090670BB090680B6091750B7091D6
:1042B000760B8091770B9091780B2EE0660F771F2D
:1042C000881F991F2A95D1F7A50194010E940D5BC3
:1042D000211531054105510521F421E030E040E090
:1042E00050E08091710B9091720BA091730BB09183
:1042F000740B2C013D01420E531E641E751E4814A2
:1043000059046A047B0408F0B1CF821A930AA40A04
:10431000B50A8092650B9092660BA092670BB092E3
:10432000680B0E9494130E948303082F111186C00A
:10433000882309F49ECEFE0133968EE1DF011D92A3
:104340008A95E9F781E089838091540B8A834091B3
:10435000590B50915A0B60915B0B70915C0B4D8324
:104360005E836F8378874091650B5091660B6091F7
:10437000670B7091680B49875A876B877C874091E0
:10438000690B50916A0B60916B0B70916C0B4D87B0
:104390005E876F87788B0E94B10C698F7A8F8B8FC5
:1043A0009C8FCE0101960E94690D023009F061CE0A
:1043B000FE0133968EE1DF011D928A95E9F70983AC
:1043C0008091540B8A834091590B50915A0B609104
:1043D0005B0B70915C0B4D835E836F83788740919C
:1043E000650B5091660B6091670B7091680B498764
:1043F0005A876B877C874091610B5091620B60916B
:10440000630B7091640B498B5A8B6B8B7C8B409147
:10441000550B5091560B6091570B7091580B4D8B6B
:104420005E8B6F8B788F0E94B10C698F7A8F8B8F28
:104430009C8FCE0101960E94690D1BCE123008F0B0
:1044400018CEB3CF8F929F92AF92BF92EF92FF920E
:104450000F931F93CF9349015A016115710581058F
:10446000910561F1C1E016161706180619060CF041
:10447000C0E020914F0B2C17C1F02091470B3091D9
:10448000480B4091490B50914A0B79018A01E60E85
:10449000F71E081F191F16161706180619060CF422
:1044A00047C06FEF80E00E94681F6C2F80E00E9481
:1044B000A50FC0934F0B8C2F0E943C0D81149104CB
:1044C000A104B104B9F1C1E0181419041A041B04C1
:1044D0000CF0C0E080913D0B8C17C1F02091350BA2
:1044E0003091360B4091370B5091380B8501740198
:1044F000E20EF31E041F151F6FEF181419041A049F
:104500001B040CF461E081E00E94681F6C2F81E0C5
:104510000E94A50FC0933D0B8C2FCF911F910F913F
:10452000FF90EF90BF90AF909F908F900C940F0DE5
:1045300061E0B8CFCF911F910F91FF90EF90BF90A6
:10454000AF909F908F9008952F923F924F925F92DD
:104550006F927F928F929F92AF92BF92CF92DF9293
:10456000EF92FF920F931F93CF93DF93CDB7DEB7F8
:1045700066970FB6F894DEBF0FBECDBF9E8B8D8BB6
:104580003FB6F8942091470B3091480B4091490B6E
:1045900050914A0B2093130730931407409315074B
:1045A00050931607C090350BD090360BE090370B28
:1045B000F090380BC0921707D0921807E0921907B5
:1045C000F0921A07DC018D909D90AD90BC901397EE
:1045D00080921B0790921C07A0921D07B0921E07A5
:1045E00014964D905D906D907C90179740921F07A8
:1045F0005092200760922107709222071092510B6F
:1046000054966C9154976093520B1092530B1092E6
:10461000790B10927A0B10927B0B10927C0B1092FC
:104620007D0B10927E0B10927F0B1092800B60FF1F
:10463000EAC056964D905C905797712C612C4114AE
:1046400051046104710409F4B9C25596FC90ECEC74
:10465000FBE0FF2011F0E2EDFBE080819181A2817F
:10466000B381181619061A061B0654F040825182AF
:1046700062827382A301920160E08F2D0E94910FEC
:104680000FE31BE0FF2011F00DE21BE0F801108AA0
:1046900080E0F110AAC00E943C0D8F2D0E94B10C49
:1046A000AB01BC018F2D0E946F0C81E0D8015196A7
:1046B0008C93F1109DC04092790B50927A0B6092CE
:1046C0007B0B70927C0B10922F0740922B0750921D
:1046D0002C0760922D0770922E0710912F07E12F63
:1046E0001111E1E0BBE0EB9FF0011124E655F44F1E
:1046F0006581768190E080E00E946559D62EE72E94
:10470000F82E092FED89FE899084A184B284C38498
:10471000292D3A2D4B2D5C2D0E94B85887FD03C0E2
:10472000D92C75010C2D4D2D5E2D6F2D702F812FE5
:104730000E946B1769837A838B839C836093300715
:10474000709331078093320790933307AD89BE8908
:104750001C964D915D916D917C911F97812F0E94C8
:104760006B176D837E838F83988760933407709374
:1047700035078093360790933707ED89FE89408986
:10478000518962897389812F0E946B175B016C01CB
:10479000A0923807B0923907C0923A07D0923B07EF
:1047A000812F0E94621260933C0770933D078093B3
:1047B0003E0790933F071093540B21E02093510B39
:1047C0009F938F937F936F93ED80FE800F81188569
:1047D00029813A814B815C81C301B2010E94491554
:1047E0000F900F900F900F90E9C10E940F0D55CFC1
:1047F00040927D0B50927E0B60927F0B7092800BEB
:1048000080932F0762CFD501C401821B930BA40BA9
:10481000B50B89839A83AB83BC83D301C2018C1906
:104820009D09AE09BF098D839E83AF83B887E98058
:10483000FA800B811C81E986FA860B871C8717FF9B
:104840000CC010950095F094E094E11CF11C011D42
:10485000111DE986FA860B871C8789859A85AB85A9
:10486000BC858093230790932407A0932507B093DA
:104870002607ED80FE800F811885ED86FE860F8766
:10488000188B17FF0CC010950095F094E094E11C74
:10489000F11C011D111DED86FE860F87188B8D857D
:1048A0009E85AF85B8898093270790932807A093AA
:1048B0002907B0932A07E984FA840B851C85E98AC5
:1048C000FA8A0B8B1C8BE816F9060A071B0720F4E3
:1048D000898B9A8BAB8BBC8B89899A89AB89BC8974
:1048E00080932B0790932C07A0932D07B0932E074E
:1048F000892B8A2B8B2B09F461C162FF7EC12D812C
:104900003E814F81588569817A818B819C810E948B
:10491000222280924B0B90924C0BA0924D0BB092A6
:104920004E0B4092390B50923A0B60923B0B7092B7
:104930003C0BE980FA800B811C81EF28E02AE12AF8
:1049400019F081E08093500B0D811E812F813885F5
:10495000012B022B032B19F081E080933E0B11E019
:1049600029853A854B855C858D859E85AF85B8897F
:10497000281739074A075B0708F010E010932F0744
:104980009BE0199FF0011124E655F44F6581768173
:1049900090E080E00E9465596B017C01AD89BE8981
:1049A00018968C90189719969C9019971A96AC9017
:1049B0001A971B96BC909401A5010E94B85887FDD8
:1049C00002C064017501A601B701812F0E946B1717
:1049D0004B015C018092300790923107A092320720
:1049E000B0923307ED89FE894485558566857785C4
:1049F000812F0E946B176B017C01C114D104E1046B
:104A0000F10421F4C12CD12C7601C394812F0E9492
:104A100062122B013C0140923C0750923D0760928C
:104A20003E0770923F0781E08093530B29853A85BA
:104A30004B855C852093790B30937A0B40937B0BED
:104A400050937C0B8D859E85AF85B88980937D0BB7
:104A500090937E0BA0937F0BB093800B1093540B1D
:104A60004092750B5092760B6092770B7092780B98
:104A70008092690B90926A0BA0926B0BB0926C0BB8
:104A8000C0926D0BD0926E0BE0926F0BF092700B98
:104A9000C092650BD092660BE092670BF092680BA8
:104AA00081E090E0A0E0B0E08093710B9093720BF6
:104AB000A093730BB093740B1092590B10925A0B76
:104AC00010925B0B10925C0B8FEF9FEFDC018093D9
:104AD000550B9093560BA093570BB093580B8EEF3A
:104AE0009FEFAFEFBFEF8093610B9093620BA093AA
:104AF000630BB093640B411451046104710409F415
:104B000077C0C814D904EA04FB0408F071C0C501D9
:104B1000B401A50194010E94785B5901042F252E50
:104B20004B018D839983C701B601A70196010E94AD
:104B3000785BA22FF32F6A017B01E82F192F9501D3
:104B4000402F522DB4018D819981AA2EBF2E0E2F98
:104B50000E941B5C49014D835983B62FA72FF82F64
:104B6000E92F9201A30160E070E080E090E001E0B5
:104B70000E94025C59016A017B018C0194014D8104
:104B800059816B2F7A2F8F2F9E2F0E94A55BF22FBA
:104B9000E32F8F2F9E2FA42FB52F0097A105B105CE
:104BA00039F180935D0B90935E0BA0935F0BB093F4
:104BB000600B81E08093510B0E9494133FBE669678
:104BC0000FB6F894DEBF0FBECDBFDF91CF911F911E
:104BD0000F91FF90EF90DF90CF90BF90AF909F909C
:104BE0008F907F906F905F904F903F902F9008959F
:104BF00081E090E0A0E0B0E0D4CFE980FA800B81C2
:104C00001C81E114F1040105110529F1DD24D3947F
:104C10001E141F04100611060CF0D12C80914F0BAE
:104C20008D1581F089819A81AB81BC8161E0181674
:104C300019061A061B060CF06FEF8501740180E05F
:104C40000E94681F6D2D80E00E94A50FD0924F0B2F
:104C50008D2D0E943C0DED80FE800F811885E114A2
:104C6000F1040105110569F1DD24D3941E141F041C
:104C7000100611060CF0D12C80913D0B8D15C1F062
:104C80002091350B3091360B4091370B5091380BFA
:104C90008D819E81AF81B88561E0181619061A06CC
:104CA0001B060CF06FEF8301720181E00E94681F08
:104CB0006D2D81E00E94A50FD0923D0B8D2D0E949D
:104CC0000F0D80924B0B90924C0BA0924D0BB0921B
:104CD0004E0B4092390B50923A0B60923B0B709204
:104CE0003C0BE984FA840B851C85E092790BF092E9
:104CF0007A0B00937B0B10937C0B0D851E852F8503
:104D0000388900937D0B10937E0B20937F0B30939B
:104D1000800B11E029853A854B855C858D859E85C4
:104D2000AF85B889281739074A075B0708F010E0F4
:104D300010932F07812F0E94C10E61157105810507
:104D4000910581F029893A894B895C89620F731F2B
:104D5000841F951F60932B0770932C0780932D075A
:104D600090932E079BE0199FF0011124E655F44F14
:104D70006581768190E080E00E9465595B016C015D
:104D8000AD89BE8918964C90189719965C90199722
:104D90001A966C901A971B967C909201A3010E9420
:104DA000B85887FD02C052016301A501B601812FE9
:104DB0000E946B172B013C01409230075092310743
:104DC0006092320770923307AD89BE891C964D916F
:104DD0005D916D917C911F97812F0E946B17698760
:104DE0007A878B879C87609334077093350780930D
:104DF000360790933707ED89FE894089518962898A
:104E00007389812F0E946B175B016C01A092380798
:104E1000B0923907C0923A07D0923B07812F0E9487
:104E200062129B01AC0160933C0730933D07809375
:104E30003E0750933F0789819A81AB81BC81892BC2
:104E40008A2B8B2B19F081E08093500B8D819E81F2
:104E5000AF81B885892B8A2B8B2B19F081E0809349
:104E60003E0B1093540B81E08093510B60912B0704
:104E700070912C0780912D0790912E075F934F938F
:104E80003F932F93E984FA840B851C85A30192013B
:104E9000A5CC2F923F924F925F926F927F928F920A
:104EA0009F92AF92BF92CF92DF92EF92FF920F93B9
:104EB0001F93CF93DF93CDB7DEB72F970FB6F8943C
:104EC000DEBF0FBECDBF2B013C0149015A01E98273
:104ED000FA820B831C83CD8680E00E94B10C6B01AB
:104EE0007C0181E00E94B10C930182010C191D0923
:104EF0002E093F09013040E11407210531050CF46A
:104F000028C12601370150E1550E611C711C950125
:104F10008401061B170B280B390B013040E11407E5
:104F2000210531050CF422C14B015C0150E1950EC5
:104F3000A11CB11CC414D504E604F70431F46815AF
:104F400079058A059B0509F48AC2930182010C192F
:104F50001D092E093F0937FF07C030952095109590
:104F600001951F4F2F4F3F4F75016401C61AD70A95
:104F7000E80AF90AD701C601B7FF07C0B095A095A6
:104F8000909581959F4FAF4FBF4F41E049870817DC
:104F900019072A073B0708F0198649815A816B8156
:104FA0007C8189850E944103EEE8FBE02CE0DF0173
:104FB0001D922A95E9F74092820B5092830B6092E2
:104FC000840B7092850B8092860B9092870BA09237
:104FD000880BB092890B60938A0B70938B0B809334
:104FE0008C0B90938D0B8D8482E0811086E08093F2
:104FF000960B8091510B882309F46DC08091520B60
:1050000081FF69C08091960B82FF05C08091530B90
:10501000882309F460C02FB6F89480E00E94B10C98
:105020006B017C0181E00E94B10C0091820B109118
:10503000830B2091840B3091850B480159018C180A
:105040009D08AE08BF0889829A82AB82BC8280909C
:10505000860B9090870BA090880BB090890B861AD6
:10506000970AA80AB90A49805A806B807C8077FE2B
:1050700008C07094609450944094411C511C611C71
:10508000711C75016401B7FE07C0CC24DD247601D4
:10509000C818D908EA08FB084D825E826F827886BC
:1050A0004C145D046E047F0420F4CD82DE82EF8216
:1050B000F8868091530B882309F477C281E04C1461
:1050C0005D046E047F0408F080E09091540B891712
:1050D00009F4C7C12FBE8091510B882309F495C1F3
:1050E0009D8491108DC180E00E949E11B62EC72E26
:1050F000D82EE92E81E00E949E11F62E072F182F40
:105100009983262F372F482F592F6B2D7C2D8D2DCE
:105110009E2D0E94175A18161CF4FB2C8601E9825A
:10512000EFB6F8940E94340C4F2D502F612F7981E7
:1051300089850E94410360938E0B70938F0B80933F
:10514000900B9093910B82E89BE00E94A422EFBE0B
:1051500033C00115104F2F4F3F4F0CF0D8CE260112
:105160003701B0E15B1A61087108D1CE0115104F0B
:105170002F4F3F4F0CF0DECE4B015C01B0E19B1A8C
:10518000A108B108D7CE1092510B1092530B109278
:10519000500B10923E0B1092430B1092440B109246
:1051A000450B1092460B1092310B1092320B10925D
:1051B000330B1092340B2FBE81E08093810B2F961E
:1051C0000FB6F894DEBF0FBECDBFDF91CF911F9118
:1051D0000F91FF90EF90DF90CF90BF90AF909F9096
:1051E0008F907F906F905F904F903F902F90089599
:1051F0001092790B10927A0B10927B0B10927C0B11
:105200001092500B1092430B1092440B1092450BCE
:105210001092460B66C110927D0B10927E0B10927D
:105220007F0B1092800B10923E0B1092310B10925C
:10523000320B1092330B1092340B63C1232B242BAF
:10524000252B41F091E09093500B89288A288B28D8
:1052500051F354C11092500B1092430B1092440B17
:105260001092450B1092460BF0CF8090590B909006
:105270005A0BA0905B0BB0905C0B89829A82AB8238
:10528000BC822D813E814F815885820E931EA41EC3
:10529000B51E89869A86AB86BC868092550B909205
:1052A000560BA092570BB092580B4092790B50922C
:1052B0007A0B60927B0B70927C0BC0927D0BD0922C
:1052C0007E0BE0927F0BF092800B8D848092540BCA
:1052D00089809A80AB80BC8080925D0B90925E0B3F
:1052E000A0925F0BB092600B4090750B5090760BC4
:1052F0006090770B7090780B411451046104710435
:1053000009F46DC0C090710BD090720BE090730BDC
:10531000F090740B2091650B3091660B4091670BF8
:105320005091680BC216D306E406F50608F054C087
:10533000CA01B9010E94785B59014D87352E4B0196
:105340008F879E87C701B601A70196010E94785BEF
:10535000F22FE32F6A017B018C0195014D85532DBE
:10536000B4018F859E85AF2EBE2E0E941B5C2E87BA
:105370003D874A01B62FA72FF82FE92F9201A301ED
:1053800060E070E080E090E001E00E94025C590182
:105390006A017B018C012E853D85A4016B2F7A2F3C
:1053A0008F2F9E2F0E94A55B29013A018D809E8040
:1053B000AF80B884481459046A047B0480F0898063
:1053C0009A80AB80BC808092610B9092620BA0921D
:1053D000630BB092640BE6C0412C512C32018985DD
:1053E0009A85AB85BC8584199509A609B709809370
:1053F000610B9093620BA093630BB093640BD2C0CC
:10540000F12C00E010E019828BCE89842BE0829E83
:10541000F0011124E655F44F6581768190E080E03B
:105420000E9465596B017C0120E030E040E85FE3B9
:105430000E94B85887FD06C0C12CD12C80E8E82E08
:105440008FE3F82EC0928E0BD0928F0BE092900BD0
:10545000F092910B82E89BE00E94A422ADCE80E006
:10546000AECE2D813E814F815885232B242B252BB9
:1054700009F489CEA501940169817A818B819C818F
:105480000E9422224091820B5091830B6091840BE9
:105490007091850B80E00E946F0C4091860B5091BB
:1054A000870B6091880B7091890B81E00E946F0CD3
:1054B0008091530B29813A814B815C81882309F4C7
:1054C000BDCE232B242B252B09F492CE4092790BB1
:1054D00050927A0B60927B0B70927C0B91E09093D0
:1054E000500B89288A288B2809F495CEC0927D0B11
:1054F000D0927E0BE0927F0BF092800B91E0909324
:105500003E0B31E03D874C145D046E047F0408F0CF
:105510001D86882309F4A9CE8D844BE0849EF0017A
:105520001124E655F44F6581768190E080E00E9479
:105530006559B62E072F182F998330908A0B8090CB
:105540008B0B90908C0BA0908D0B232D382D492D1B
:105550005A2D0E94B85887FD03C0B32C8401A9823C
:105560004B2D502F612F79818D850E946B17609391
:10557000690B70936A0B80936B0B90936C0B40924A
:10558000790B50927A0B60927B0B70927C0BC092DD
:105590007D0BD0927E0BE0927F0BF092800B9D846E
:1055A0009092540B0E94941306CE8D819E81AF8100
:1055B000B885892B8A2B8B2B09F05CCFFCCD4F92C1
:1055C0005F926F927F928F929F92AF92BF92CF9293
:1055D000DF92EF92FF920F931F93CF93DF9300D050
:1055E00000D000D01F92CDB7DEB7898780E00E943F
:1055F000B10C69837A838B839C8381E00E94B10C18
:105600002B013C0189850E949E0D298580E0211196
:1056100081E00E94B10C4B015C01498534E0439F5D
:10562000F0011124EB5DF44FC080D180E280F38063
:10563000D701C60188199909AA09BB098D839E83E0
:10564000AF83B887181619061A061B060CF456C045
:1056500091E09A872D813E814F815885232B242B01
:10566000252B09F41A863A8531953A870E944E0C0B
:1056700010911A0B81113FC05A855523E1F1012F7A
:105680002091220B452F550F550B660B770B898503
:105690000E949B1297FF07C0909580957095619529
:1056A0007F4F8F4F9F4FAB01BC0182E0440F551FCE
:1056B000661F771F8A95D1F7413082E05807610550
:1056C000710524F040E052E060E070E09A8591308E
:1056D000C1F48D819E81AF81B88584179507A60797
:1056E000B7074CF4480D591D6A1D7B1DC416D5061D
:1056F000E606F70634F5B701A60123C041E04A8764
:10570000B5CF9A859F3FB9F78D819E81AF81B885CE
:10571000B095A095909581959F4FAF4FBF4F84173F
:105720009507A607B7073CF7D501C401841B950B65
:10573000A60BB70BAC01BD014C155D056E057F05D1
:10574000D4F28091240B181644F4481559056A05C3
:105750007B0554F4B501A40107C0882329F0841601
:105760009506A606B706B4F3DB01CA0188199909A4
:10577000AA09BB09813020E19207A105B1050CF40B
:105780006DC0B501A401505F6F4F7F4F89858111B6
:1057900071C0111179C00E94000E69837A838B83D6
:1057A0009C8380E00E94590C29813A814B815C8165
:1057B000621773078407950709F07CC081E00E9497
:1057C000590C641575058605970509F073C0898520
:1057D0000E94B10CC616D706E806F90679F080914A
:1057E0001A0B3985311155C081115FC0B701A6016F
:1057F0000E94000E69837A838B839C8380E00E94E1
:10580000590C29813A814B815C81621773078407A7
:10581000950709F04FC081E00E94590C6415750589
:105820008605970509F046C081E08093230B2A96F0
:105830000FB6F894DEBF0FBECDBFDF91CF911F91A1
:105840000F91FF90EF90DF90CF90BF90AF909F901F
:105850008F907F906F905F904F9008958115904F3B
:10586000AF4FBF4F0CF092CFB501A4015051610969
:1058700071098CCF2A013B01111193CF81E00E9465
:10588000000E2B013C018DCF49835A836B837C83AF
:1058900088CF260137018111B1CFB701A60181E080
:1058A0000E94000E2B013C01A9CFC982DA82EB8253
:1058B000FC82A4CF60911A0B89850E94A918CC2480
:1058C000C3947B018C01A301920169817A818B8150
:1058D0009C810E9449278111A7CFA9CF4F925F9247
:1058E0006F927F929F92AF92BF92CF92DF92EF9290
:1058F000FF920F931F93CF93DF93CDB7DEB76897D7
:105900000FB6F894DEBF0FBECDBFF82EB42EC52E55
:10591000D62EE72E2801390180E00E94B10C962E88
:10592000A72E8C0181E00E94B10C21E02F1568F1B7
:10593000FF2041F06B2D7C2D8D2D9E2DB92CCA2C76
:10594000D02EE12E2091510B21111FC0FE0139965E
:1059500020E1DF011D922A95E9F7B982CA82DB8234
:10596000EC826D837E838F839887B301A2018F2D94
:105970000E94410369877A878B879C87CE010196B5
:105980000E94A42281E08093810B68960FB6F89460
:10599000DEBF0FBECDBFDF91CF911F910F91FF9062
:1059A000EF90DF90CF90BF90AF909F907F906F90DF
:1059B0005F904F900895CF92DF92EF92FF920F93F6
:1059C0001F93CF939091730A911146C0843008F0D1
:1059D00043C0282F30E0F901ED50F44F9081992316
:1059E000D9F18D7FC1E009F0C0E0220F331F220FF3
:1059F000331FF901ED51F44FC080D180E280F38074
:105A00008C2F0E94B10C6C157D058E059F0521F130
:105A1000C0936B0AC092670AD092680AE092690A42
:105A2000F0926A0A81E08093880A1092720A809349
:105A3000710A8BE0C89FF0011124E655F44F67818D
:105A4000708590E080E00E9465598B019C01B70150
:105A5000A6018C2F0E946E2CCF911F910F91FF9069
:105A6000EF90DF90CF9008958F929F92AF92BF9268
:105A7000CF92DF92EF92FF920F931F93CF93DF931A
:105A8000C62FFC018481958182FF01C16111A3C1F0
:105A90008EE30E9403109091170E92959170DFEFA4
:105AA00089130DC08FE30E9403109091080E929508
:105AB0009170D1E0891303C010E0D0E001C011E083
:105AC00080E40E9403109091F90D929591708913D2
:105AD000CCC181E40E9403109091EA0D92959170DF
